{
  "contractName": "Authorizable",
  "abi": [
    {
      "constant": true,
      "inputs": [
        {
          "name": "",
          "type": "uint256"
        }
      ],
      "name": "authorities",
      "outputs": [
        {
          "name": "",
          "type": "address"
        }
      ],
      "payable": false,
      "stateMutability": "view",
      "type": "function"
    },
    {
      "constant": false,
      "inputs": [],
      "name": "renounceOwnership",
      "outputs": [],
      "payable": false,
      "stateMutability": "nonpayable",
      "type": "function"
    },
    {
      "constant": true,
      "inputs": [],
      "name": "owner",
      "outputs": [
        {
          "name": "",
          "type": "address"
        }
      ],
      "payable": false,
      "stateMutability": "view",
      "type": "function"
    },
    {
      "constant": true,
      "inputs": [
        {
          "name": "",
          "type": "address"
        }
      ],
      "name": "authorized",
      "outputs": [
        {
          "name": "",
          "type": "bool"
        }
      ],
      "payable": false,
      "stateMutability": "view",
      "type": "function"
    },
    {
      "constant": false,
      "inputs": [
        {
          "name": "_newOwner",
          "type": "address"
        }
      ],
      "name": "transferOwnership",
      "outputs": [],
      "payable": false,
      "stateMutability": "nonpayable",
      "type": "function"
    },
    {
      "anonymous": false,
      "inputs": [
        {
          "indexed": true,
          "name": "authAddress",
          "type": "address"
        },
        {
          "indexed": false,
          "name": "authorizedBy",
          "type": "address"
        }
      ],
      "name": "AddressAuthorized",
      "type": "event"
    },
    {
      "anonymous": false,
      "inputs": [
        {
          "indexed": true,
          "name": "addressRemoved",
          "type": "address"
        },
        {
          "indexed": false,
          "name": "authorizedBy",
          "type": "address"
        }
      ],
      "name": "AuthorizedAddressRemoved",
      "type": "event"
    },
    {
      "anonymous": false,
      "inputs": [
        {
          "indexed": true,
          "name": "previousOwner",
          "type": "address"
        }
      ],
      "name": "OwnershipRenounced",
      "type": "event"
    },
    {
      "anonymous": false,
      "inputs": [
        {
          "indexed": true,
          "name": "previousOwner",
          "type": "address"
        },
        {
          "indexed": true,
          "name": "newOwner",
          "type": "address"
        }
      ],
      "name": "OwnershipTransferred",
      "type": "event"
    },
    {
      "constant": false,
      "inputs": [
        {
          "name": "_authTarget",
          "type": "address"
        }
      ],
      "name": "addAuthorizedAddress",
      "outputs": [],
      "payable": false,
      "stateMutability": "nonpayable",
      "type": "function"
    },
    {
      "constant": false,
      "inputs": [
        {
          "name": "_authTarget",
          "type": "address"
        }
      ],
      "name": "removeAuthorizedAddress",
      "outputs": [],
      "payable": false,
      "stateMutability": "nonpayable",
      "type": "function"
    },
    {
      "constant": false,
      "inputs": [
        {
          "name": "_authTarget",
          "type": "address"
        },
        {
          "name": "_index",
          "type": "uint256"
        }
      ],
      "name": "removeAuthorizedAddressAtIndex",
      "outputs": [],
      "payable": false,
      "stateMutability": "nonpayable",
      "type": "function"
    },
    {
      "constant": true,
      "inputs": [],
      "name": "getAuthorizedAddresses",
      "outputs": [
        {
          "name": "",
          "type": "address[]"
        }
      ],
      "payable": false,
      "stateMutability": "view",
      "type": "function"
    }
  ],
  "bytecode": "0x608060405260008054600160a060020a03191633179055610ab9806100256000396000f3006080604052600436106100985763ffffffff7c010000000000000000000000000000000000000000000000000000000060003504166342f1181e811461009d578063494503d4146100c057806370712939146100f4578063715018a6146101155780638da5cb5b1461012a5780639ad267441461013f578063b918161114610163578063d39de6e914610198578063f2fde38b146101fd575b600080fd5b3480156100a957600080fd5b506100be600160a060020a036004351661021e565b005b3480156100cc57600080fd5b506100d86004356103e5565b60408051600160a060020a039092168252519081900360200190f35b34801561010057600080fd5b506100be600160a060020a036004351661040d565b34801561012157600080fd5b506100be610626565b34801561013657600080fd5b506100d8610692565b34801561014b57600080fd5b506100be600160a060020a03600435166024356106a1565b34801561016f57600080fd5b50610184600160a060020a036004351661092e565b604080519115158252519081900360200190f35b3480156101a457600080fd5b506101ad610943565b60408051602080825283518183015283519192839290830191858101910280838360005b838110156101e95781810151838201526020016101d1565b505050509050019250505060405180910390f35b34801561020957600080fd5b506100be600160a060020a03600435166109a6565b600054600160a060020a0316331461023557600080fd5b600160a060020a038116600090815260016020908152604091829020548251606081018452602681527f546172676574206d757374206e6f7420616c726561647920626520617574686f928101929092527f72697a65642e0000000000000000000000000000000000000000000000000000928201929092529060ff161561033e5760405160e560020a62461bcd0281526004018080602001828103825283818151815260200191508051906020019080838360005b838110156103035781810151838201526020016102eb565b50505050905090810190601f1680156103305780820380516001836020036101000a031916815260200191505b509250505060405180910390fd5b50600160a060020a0381166000818152600160208181526040808420805460ff1916841790556002805493840181559093527f405787fa12a823e0f2b7631cc41b3ba8828b3321ca811111fa75cd3aa3bb5ace909101805473ffffffffffffffffffffffffffffffffffffffff191684179055815133815291517f8918da6429714f0e9c40ae7f270773e27fc8caf7a256e19807f859563b7514de9281900390910190a250565b60028054829081106103f357fe5b600091825260209091200154600160a060020a0316905081565b60008054600160a060020a0316331461042557600080fd5b600160a060020a038216600090815260016020908152604091829020548251606081018452602281527f5461726765742061646472657373206d75737420626520617574686f72697a65928101929092527f642e000000000000000000000000000000000000000000000000000000000000928201929092529060ff1615156104f35760405160e560020a62461bcd028152600401808060200182810382528381815181526020019150805190602001908083836000838110156103035781810151838201526020016102eb565b5050600160a060020a0381166000908152600160205260408120805460ff191690555b6002548110156106225781600160a060020a031660028281548110151561053957fe5b600091825260209091200154600160a060020a0316141561061a5760028054600019810190811061056657fe5b60009182526020909120015460028054600160a060020a03909216918390811061058c57fe5b6000918252602090912001805473ffffffffffffffffffffffffffffffffffffffff1916600160a060020a03929092169190911790556002805460001901906105d59082610a46565b50604080513381529051600160a060020a038416917f1f32c1b084e2de0713b8fb16bd46bb9df710a3dbeae2f3ca93af46e016dcc6b0919081900360200190a2610622565b600101610516565b5050565b600054600160a060020a0316331461063d57600080fd5b60008054604051600160a060020a03909116917ff8df31144d9c2f0f6b59d69b8b98abd5459d07f2742c4df920b25aae33c6482091a26000805473ffffffffffffffffffffffffffffffffffffffff19169055565b600054600160a060020a031681565b600054600160a060020a031633146106b857600080fd5b60025460408051606081018252602781527f53706563696669656420617272617920696e646578206973206f7574206f662060208201527f626f756e64732e00000000000000000000000000000000000000000000000000918101919091529082106107695760405160e560020a62461bcd028152600401808060200182810382528381815181526020019150805190602001908083836000838110156103035781810151838201526020016102eb565b5081600160a060020a031660028281548110151561078357fe5b6000918252602091829020015460408051606081018252602d81527f4164647265737320666f756e6420617420696e64657820646f6573206e6f7420938101939093527f6d61746368207461726765742e00000000000000000000000000000000000000908301529091600160a060020a03909116146108485760405160e560020a62461bcd028152600401808060200182810382528381815181526020019150805190602001908083836000838110156103035781810151838201526020016102eb565b50600160a060020a0382166000908152600160205260409020805460ff1916905560028054600019810190811061087b57fe5b60009182526020909120015460028054600160a060020a0390921691839081106108a157fe5b6000918252602090912001805473ffffffffffffffffffffffffffffffffffffffff1916600160a060020a03929092169190911790556002805460001901906108ea9082610a46565b50604080513381529051600160a060020a038416917f1f32c1b084e2de0713b8fb16bd46bb9df710a3dbeae2f3ca93af46e016dcc6b0919081900360200190a25050565b60016020526000908152604090205460ff1681565b6060600280548060200260200160405190810160405280929190818152602001828054801561099b57602002820191906000526020600020905b8154600160a060020a0316815260019091019060200180831161097d575b505050505090505b90565b600054600160a060020a031633146109bd57600080fd5b6109c6816109c9565b50565b600160a060020a03811615156109de57600080fd5b60008054604051600160a060020a03808516939216917f8be0079c531659141344cd1fd0a4f28419497f9722a3daafe3b4186f6b6457e091a36000805473ffffffffffffffffffffffffffffffffffffffff1916600160a060020a0392909216919091179055565b815481835581811115610a6a57600083815260209020610a6a918101908301610a6f565b505050565b6109a391905b80821115610a895760008155600101610a75565b50905600a165627a7a72305820125ef64ea0096f99caea7b8e479c0b9ec4abf897e21fe68b9e334af49c2397de0029",
  "source": "/*\n    Copyright 2018 Set Labs Inc.\n\n    Licensed under the Apache License, Version 2.0 (the \"License\");\n    you may not use this file except in compliance with the License.\n    You may obtain a copy of the License at\n\n    http://www.apache.org/licenses/LICENSE-2.0\n\n    Unless required by applicable law or agreed to in writing, software\n    distributed under the License is distributed on an \"AS IS\" BASIS,\n    WITHOUT WARRANTIES OR CONDITIONS OF ANY KIND, either express or implied.\n    See the License for the specific language governing permissions and\n    limitations under the License.\n*/\n\npragma solidity 0.4.24;\n\nimport { Ownable } from \"zeppelin-solidity/contracts/ownership/Ownable.sol\";\n\n\n/**\n * @title Authorizable\n * @author Set Protocol\n *\n * The Authorizable contract is an inherited contract that sets permissions on certain function calls\n * through the onlyAuthorized modifier. Permissions can be managed only by the Owner of the contract.\n */\ncontract Authorizable is\n    Ownable\n{\n\n    /* ============ Constants ============ */\n\n    // Error messages\n    string constant SENDER_NOT_AUTHORIZED = \"Sender not authorized to call this method.\";\n    string constant TARGET_NOT_AUTHORIZED = \"Target address must be authorized.\";\n    string constant TARGET_ALREADY_AUTHORIZED = \"Target must not already be authorized.\";\n    string constant INDEX_OUT_OF_BOUNDS = \"Specified array index is out of bounds.\";\n    string constant INDEX_ADDRESS_MISMATCH = \"Address found at index does not match target.\";\n\n    /* ============ State Variables ============ */\n\n    // Mapping of addresses to bool indicator of authorization\n    mapping (address => bool) public authorized;\n\n    // Array of authorized addresses\n    address[] public authorities;\n\n    /* ============ Modifiers ============ */\n\n    // Only authorized addresses can invoke functions with this modifier.\n    modifier onlyAuthorized {\n        require(\n            authorized[msg.sender],\n            SENDER_NOT_AUTHORIZED\n        );\n        _;\n    }\n\n    /* ============ Events ============ */\n\n    // Event emitted when new address is authorized.\n    event AddressAuthorized (\n        address indexed authAddress,\n        address authorizedBy\n    );\n\n    // Event emitted when address is deauthorized.\n    event AuthorizedAddressRemoved (\n        address indexed addressRemoved,\n        address authorizedBy\n    );\n\n    /* ============ Setters ============ */\n\n    /**\n     * Add authorized address to contract. Can only be set by owner.\n     *\n     * @param  _authTarget   The address of the new authorized contract\n     */\n\n    function addAuthorizedAddress(address _authTarget)\n        external\n        onlyOwner\n    {\n        // Require that address is not already authorized\n        require(\n            !authorized[_authTarget],\n            TARGET_ALREADY_AUTHORIZED\n        );\n\n        // Set address authority to true\n        authorized[_authTarget] = true;\n\n        // Add address to authorities array\n        authorities.push(_authTarget);\n\n        // Emit authorized address event\n        emit AddressAuthorized(\n            _authTarget,\n            msg.sender\n        );\n    }\n\n    /**\n     * Remove authorized address from contract. Can only be set by owner.\n     *\n     * @param  _authTarget   The address to be de-permissioned\n     */\n\n    function removeAuthorizedAddress(address _authTarget)\n        external\n        onlyOwner\n    {\n        // Require address is authorized\n        require(\n            authorized[_authTarget],\n            TARGET_NOT_AUTHORIZED\n        );\n\n        // Delete address from authorized mapping\n        delete authorized[_authTarget];\n\n        for (uint i = 0; i < authorities.length; i++) {\n\n            // Check if address in authorities matches target address\n            if (authorities[i] == _authTarget) {\n\n                // Set target address index value to address at end of array\n                authorities[i] = authorities[authorities.length - 1];\n\n                // Delete last address in array\n                authorities.length -= 1;\n\n                // Emit AuthorizedAddressRemoved event.\n                emit AuthorizedAddressRemoved(\n                    _authTarget,\n                    msg.sender\n                );\n                break;\n            }\n        }\n    }\n\n    /**\n     * More efficiently remove authorized address from contract. Can only be set by owner.\n     *\n     * @param  _authTarget   The address to be de-permissioned\n     * @param _index           The index of the _authTarget address in authorities\n     */\n\n    function removeAuthorizedAddressAtIndex(\n        address _authTarget,\n        uint256 _index\n    )\n        external\n        onlyOwner\n    {\n        // Require index is less than length of authorities\n        require(\n            _index < authorities.length,\n            INDEX_OUT_OF_BOUNDS\n        );\n\n        // Require address at index of authorities matches target address\n        require(\n            authorities[_index] == _authTarget,\n            INDEX_ADDRESS_MISMATCH\n        );\n\n        // Delete address from authorized mapping\n        delete authorized[_authTarget];\n\n        // Replace address at index with address at end of array\n        authorities[_index] = authorities[authorities.length - 1];\n\n        // Remove last address from array\n        authorities.length -= 1;\n\n        // Emit AuthorizedAddressRemoved event.\n        emit AuthorizedAddressRemoved(\n            _authTarget,\n            msg.sender\n        );\n    }\n\n    /* ============ Getters ============ */\n\n    /**\n     * Get array of authorized addresses.\n     */\n\n    function getAuthorizedAddresses()\n        external\n        view\n        returns (address[] memory)\n    {\n        // Return array of authorized addresses\n        return authorities;\n    }\n}\n",
  "sourcePath": "/Users/justinkchen/workspace/set-protocol-contracts/contracts/lib/Authorizable.sol",
  "compiler": {
    "name": "solc",
    "version": "0.4.24+commit.e67f0147.Emscripten.clang"
  },
  "schemaVersion": "2.0.0",
  "updatedAt": "2018-07-08T01:11:15.202Z"
}