{
  "contractName": "BadTokenMock",
  "abi": [
    {
      "constant": true,
      "inputs": [],
      "name": "name",
      "outputs": [
        {
          "name": "",
          "type": "string"
        }
      ],
      "payable": false,
      "stateMutability": "view",
      "type": "function"
    },
    {
      "constant": false,
      "inputs": [
        {
          "name": "_spender",
          "type": "address"
        },
        {
          "name": "_value",
          "type": "uint256"
        }
      ],
      "name": "approve",
      "outputs": [
        {
          "name": "",
          "type": "bool"
        }
      ],
      "payable": false,
      "stateMutability": "nonpayable",
      "type": "function"
    },
    {
      "constant": true,
      "inputs": [],
      "name": "totalSupply",
      "outputs": [
        {
          "name": "",
          "type": "uint256"
        }
      ],
      "payable": false,
      "stateMutability": "view",
      "type": "function"
    },
    {
      "constant": false,
      "inputs": [
        {
          "name": "_from",
          "type": "address"
        },
        {
          "name": "_to",
          "type": "address"
        },
        {
          "name": "_value",
          "type": "uint256"
        }
      ],
      "name": "transferFrom",
      "outputs": [
        {
          "name": "",
          "type": "bool"
        }
      ],
      "payable": false,
      "stateMutability": "nonpayable",
      "type": "function"
    },
    {
      "constant": true,
      "inputs": [],
      "name": "decimals",
      "outputs": [
        {
          "name": "",
          "type": "uint256"
        }
      ],
      "payable": false,
      "stateMutability": "view",
      "type": "function"
    },
    {
      "constant": false,
      "inputs": [
        {
          "name": "_spender",
          "type": "address"
        },
        {
          "name": "_subtractedValue",
          "type": "uint256"
        }
      ],
      "name": "decreaseApproval",
      "outputs": [
        {
          "name": "",
          "type": "bool"
        }
      ],
      "payable": false,
      "stateMutability": "nonpayable",
      "type": "function"
    },
    {
      "constant": true,
      "inputs": [
        {
          "name": "_owner",
          "type": "address"
        }
      ],
      "name": "balanceOf",
      "outputs": [
        {
          "name": "",
          "type": "uint256"
        }
      ],
      "payable": false,
      "stateMutability": "view",
      "type": "function"
    },
    {
      "constant": true,
      "inputs": [],
      "name": "symbol",
      "outputs": [
        {
          "name": "",
          "type": "string"
        }
      ],
      "payable": false,
      "stateMutability": "view",
      "type": "function"
    },
    {
      "constant": false,
      "inputs": [
        {
          "name": "_spender",
          "type": "address"
        },
        {
          "name": "_addedValue",
          "type": "uint256"
        }
      ],
      "name": "increaseApproval",
      "outputs": [
        {
          "name": "",
          "type": "bool"
        }
      ],
      "payable": false,
      "stateMutability": "nonpayable",
      "type": "function"
    },
    {
      "constant": true,
      "inputs": [
        {
          "name": "_owner",
          "type": "address"
        },
        {
          "name": "_spender",
          "type": "address"
        }
      ],
      "name": "allowance",
      "outputs": [
        {
          "name": "",
          "type": "uint256"
        }
      ],
      "payable": false,
      "stateMutability": "view",
      "type": "function"
    },
    {
      "inputs": [
        {
          "name": "initialAccount",
          "type": "address"
        },
        {
          "name": "initialBalance",
          "type": "uint256"
        },
        {
          "name": "_name",
          "type": "string"
        },
        {
          "name": "_symbol",
          "type": "string"
        }
      ],
      "payable": false,
      "stateMutability": "nonpayable",
      "type": "constructor"
    },
    {
      "anonymous": false,
      "inputs": [
        {
          "indexed": true,
          "name": "owner",
          "type": "address"
        },
        {
          "indexed": true,
          "name": "spender",
          "type": "address"
        },
        {
          "indexed": false,
          "name": "value",
          "type": "uint256"
        }
      ],
      "name": "Approval",
      "type": "event"
    },
    {
      "anonymous": false,
      "inputs": [
        {
          "indexed": true,
          "name": "from",
          "type": "address"
        },
        {
          "indexed": true,
          "name": "to",
          "type": "address"
        },
        {
          "indexed": false,
          "name": "value",
          "type": "uint256"
        }
      ],
      "name": "Transfer",
      "type": "event"
    },
    {
      "constant": false,
      "inputs": [
        {
          "name": "_to",
          "type": "address"
        },
        {
          "name": "_value",
          "type": "uint256"
        }
      ],
      "name": "transfer",
      "outputs": [
        {
          "name": "",
          "type": "bool"
        }
      ],
      "payable": false,
      "stateMutability": "nonpayable",
      "type": "function"
    }
  ],
  "bytecode": "0x6080604052601260035534801561001557600080fd5b506040516109503803806109508339810160409081528151602080840151838501516060860151600160a060020a03851660009081528085529590952082905560068290558501805193959194909391019161007691600491850190610094565b50805161008a906005906020840190610094565b505050505061012f565b828054600181600116156101000203166002900490600052602060002090601f016020900481019282601f106100d557805160ff1916838001178555610102565b82800160010185558215610102579182015b828111156101025782518255916020019190600101906100e7565b5061010e929150610112565b5090565b61012c91905b8082111561010e5760008155600101610118565b90565b6108128061013e6000396000f3006080604052600436106100ae5763ffffffff7c010000000000000000000000000000000000000000000000000000000060003504166306fdde0381146100b3578063095ea7b31461013d57806318160ddd1461017557806323b872dd1461019c578063313ce567146101c657806366188463146101db57806370a08231146101ff57806395d89b4114610220578063a9059cbb14610235578063d73dd62314610259578063dd62ed3e1461027d575b600080fd5b3480156100bf57600080fd5b506100c86102a4565b6040805160208082528351818301528351919283929083019185019080838360005b838110156101025781810151838201526020016100ea565b50505050905090810190601f16801561012f5780820380516001836020036101000a031916815260200191505b509250505060405180910390f35b34801561014957600080fd5b50610161600160a060020a0360043516602435610332565b604080519115158252519081900360200190f35b34801561018157600080fd5b5061018a610398565b60408051918252519081900360200190f35b3480156101a857600080fd5b50610161600160a060020a036004358116906024351660443561039e565b3480156101d257600080fd5b5061018a610515565b3480156101e757600080fd5b50610161600160a060020a036004351660243561051b565b34801561020b57600080fd5b5061018a600160a060020a036004351661060b565b34801561022c57600080fd5b506100c8610626565b34801561024157600080fd5b50610161600160a060020a0360043516602435610681565b34801561026557600080fd5b50610161600160a060020a03600435166024356106fd565b34801561028957600080fd5b5061018a600160a060020a0360043581169060243516610796565b6004805460408051602060026001851615610100026000190190941693909304601f8101849004840282018401909252818152929183018282801561032a5780601f106102ff5761010080835404028352916020019161032a565b820191906000526020600020905b81548152906001019060200180831161030d57829003601f168201915b505050505081565b336000818152600260209081526040808320600160a060020a038716808552908352818420869055815186815291519394909390927f8c5be1e5ebec7d5bd14f71427d1e84f3dd0314c0f7b2291e5b200ac8c7c3b925928290030190a350600192915050565b60065481565b6000600160a060020a03831615156103b557600080fd5b600160a060020a0384166000908152602081905260409020548211156103da57600080fd5b600160a060020a038416600090815260026020908152604080832033845290915290205482111561040a57600080fd5b600160a060020a038416600090815260208190526040902054610433908363ffffffff6107c116565b600160a060020a038086166000908152602081905260408082209390935590851681522054610468908363ffffffff6107d316565b600160a060020a038085166000908152602081815260408083209490945591871681526002825282812033825290915220546104aa908363ffffffff6107c116565b600160a060020a03808616600081815260026020908152604080832033845282529182902094909455805186815290519287169391927fddf252ad1be2c89b69c2b068fc378daa952ba7f163c4a11628f55a4df523b3ef929181900390910190a35060019392505050565b60035481565b336000908152600260209081526040808320600160a060020a03861684529091528120548083111561057057336000908152600260209081526040808320600160a060020a03881684529091528120556105a5565b610580818463ffffffff6107c116565b336000908152600260209081526040808320600160a060020a03891684529091529020555b336000818152600260209081526040808320600160a060020a0389168085529083529281902054815190815290519293927f8c5be1e5ebec7d5bd14f71427d1e84f3dd0314c0f7b2291e5b200ac8c7c3b925929181900390910190a35060019392505050565b600160a060020a031660009081526020819052604090205490565b6005805460408051602060026001851615610100026000190190941693909304601f8101849004840282018401909252818152929183018282801561032a5780601f106102ff5761010080835404028352916020019161032a565b6000600160a060020a038316151561069857600080fd5b336000908152602081905260409020548211156106b457600080fd5b604080518381529051600160a060020a0385169133917fddf252ad1be2c89b69c2b068fc378daa952ba7f163c4a11628f55a4df523b3ef9181900360200190a350600192915050565b336000908152600260209081526040808320600160a060020a0386168452909152812054610731908363ffffffff6107d316565b336000818152600260209081526040808320600160a060020a0389168085529083529281902085905580519485525191937f8c5be1e5ebec7d5bd14f71427d1e84f3dd0314c0f7b2291e5b200ac8c7c3b925929081900390910190a350600192915050565b600160a060020a03918216600090815260026020908152604080832093909416825291909152205490565b6000828211156107cd57fe5b50900390565b818101828110156107e057fe5b929150505600a165627a7a7230582068ec4830840248e5e65cd93a41c8d57193b781fce7e1aff8c01393561ef8575d0029",
  "source": "pragma solidity 0.4.24;\n\n\nimport \"zeppelin-solidity/contracts/token/ERC20/StandardToken.sol\";\n\n\n// mock class using BasicToken\ncontract BadTokenMock is StandardToken {\n  uint256 public decimals = 18;\n  string public name;\n  string public symbol;\n  uint256 public totalSupply;\n\n  constructor(\n    address initialAccount,\n    uint256 initialBalance,\n    string _name,\n    string _symbol)\n    public\n  {\n    balances[initialAccount] = initialBalance;\n    totalSupply = initialBalance;\n    name = _name;\n    symbol = _symbol;\n  }\n\n  /**\n  * @dev Transfer token for a specified address\n  * @param _to The address to transfer to.\n  * @param _value The amount to be transferred.\n  */\n  function transfer(address _to, uint256 _value) public returns (bool) {\n    require(_to != address(0));\n    require(_value <= balances[msg.sender]);\n\n    // BAD TOKEN which does not update balances properly\n\n    emit Transfer(msg.sender, _to, _value);\n    return true;\n  }\n}\n",
  "sourcePath": "/Users/justinkchen/workspace/set-protocol-contracts/contracts/mocks/tokens/BadTokenMock.sol",
  "compiler": {
    "name": "solc",
    "version": "0.4.24+commit.e67f0147.Emscripten.clang"
  },
  "schemaVersion": "2.0.0",
  "updatedAt": "2018-08-22T08:07:49.210Z"
}