{
  "contractName": "Bytes32Mock",
  "abi": [
    {
      "constant": true,
      "inputs": [
        {
          "name": "data",
          "type": "bytes32"
        }
      ],
      "name": "testBytes32ToBytes",
      "outputs": [
        {
          "name": "",
          "type": "bytes"
        }
      ],
      "payable": false,
      "stateMutability": "pure",
      "type": "function"
    },
    {
      "constant": true,
      "inputs": [
        {
          "name": "data",
          "type": "bytes32"
        }
      ],
      "name": "testBytes32ToString",
      "outputs": [
        {
          "name": "",
          "type": "string"
        }
      ],
      "payable": false,
      "stateMutability": "pure",
      "type": "function"
    }
  ],
  "bytecode": "0x608060405234801561001057600080fd5b506102e3806100206000396000f30060806040526004361061004b5763ffffffff7c01000000000000000000000000000000000000000000000000000000006000350416630a21ef958114610050578063c76ecf99146100dd575b600080fd5b34801561005c57600080fd5b506100686004356100f5565b6040805160208082528351818301528351919283929083019185019080838360005b838110156100a257818101518382015260200161008a565b50505050905090810190601f1680156100cf5780820380516001836020036101000a031916815260200191505b509250505060405180910390f35b3480156100e957600080fd5b50610068600435610106565b606061010082610111565b92915050565b60606101008261018e565b60608061011d8361018e565b9050806040516020018082805190602001908083835b602083106101525780518252601f199092019160209182019101610133565b6001836020036101000a038019825116818451168082178552505050505050905001915050604051602081830303815290604052915050919050565b60606000815b6020821080156101be57508382602081106101ab57fe5b1a60f860020a0260f860020a9004600014155b156101ce57816001019150610194565b816040519080825280601f01601f1916602001820160405280156101fc578160200160208202803883390190505b509050600091505b60208210801561024f575083826020811061021b57fe5b1a60f860020a027effffffffffffffffffffffffffffffffffffffffffffffffffffffffffffff1916600060f860020a0214155b156102b05783826020811061026057fe5b1a60f860020a02818381518110151561027557fe5b9060200101907effffffffffffffffffffffffffffffffffffffffffffffffffffffffffffff1916908160001a905350816001019150610204565b93925050505600a165627a7a7230582031b84f7ca9714455e8f5c63408a84000546f276a8b722d13df5fc5176639d8690029",
  "source": "pragma solidity 0.4.24;\n\nimport { Bytes32 } from \"../../lib/Bytes32.sol\";\n\ncontract Bytes32Mock {\n    function testBytes32ToBytes(bytes32 data)\n        public\n        pure\n        returns(bytes)\n    {\n        return Bytes32.bytes32ToBytes(data);\n    }\n\n    function testBytes32ToString(bytes32 data)\n        public\n        pure\n        returns(string)\n    {\n        return Bytes32.bytes32ToString(data);\n    }\n}\n",
  "sourcePath": "/Users/justinkchen/workspace/set-protocol-contracts/contracts/mocks/lib/Bytes32Mock.sol",
  "compiler": {
    "name": "solc",
    "version": "0.4.24+commit.e67f0147.Emscripten.clang"
  },
  "schemaVersion": "2.0.0",
  "updatedAt": "2018-08-22T08:07:49.031Z"
}