{
  "contractName": "CommonMathMock",
  "abi": [
    {
      "constant": true,
      "inputs": [],
      "name": "testMaxUInt256",
      "outputs": [
        {
          "name": "",
          "type": "uint256"
        }
      ],
      "payable": false,
      "stateMutability": "pure",
      "type": "function"
    }
  ],
  "bytecode": "0x608060405234801561001057600080fd5b5060d88061001f6000396000f300608060405260043610603e5763ffffffff7c01000000000000000000000000000000000000000000000000000000006000350416635c39ea8681146043575b600080fd5b348015604e57600080fd5b5060556069565b604051606091906089565b60405180910390f35b600060716076565b905090565b60001990565b608381609b565b82525050565b6020810160958284607c565b92915050565b905600a265627a7a723058205352a38e21a698e6bd15d7b301c54f3ff7370a0afee489e49d883d5b378183d66c6578706572696d656e74616cf50037",
  "source": "pragma solidity 0.4.24;\npragma experimental \"ABIEncoderV2\";\n\nimport { CommonMath } from \"../../lib/CommonMath.sol\";\n\n// Mock contract implementation of OrderLibrary functions\ncontract CommonMathMock {\n    function testMaxUInt256()\n        public\n        pure\n        returns(uint256)\n    {\n        return CommonMath.maxUInt256();\n    }\n}\n",
  "sourcePath": "/Users/alexsoong/Source/set-protocol/set-protocol-contracts/contracts/mocks/lib/CommonMathMock.sol",
  "compiler": {
    "name": "solc",
    "version": "0.4.24+commit.e67f0147.Emscripten.clang"
  },
  "schemaVersion": "2.0.0",
  "updatedAt": "2018-08-10T21:21:49.389Z"
}