{
  "contractName": "CoreModifiers",
  "abi": [
    {
      "constant": true,
      "inputs": [
        {
          "name": "_factory",
          "type": "address"
        }
      ],
      "name": "validFactories",
      "outputs": [
        {
          "name": "",
          "type": "bool"
        }
      ],
      "payable": false,
      "stateMutability": "view",
      "type": "function"
    },
    {
      "constant": true,
      "inputs": [
        {
          "name": "_orderHash",
          "type": "bytes32"
        }
      ],
      "name": "orderCancels",
      "outputs": [
        {
          "name": "",
          "type": "uint256"
        }
      ],
      "payable": false,
      "stateMutability": "view",
      "type": "function"
    },
    {
      "constant": true,
      "inputs": [],
      "name": "vaultAddress",
      "outputs": [
        {
          "name": "",
          "type": "address"
        }
      ],
      "payable": false,
      "stateMutability": "view",
      "type": "function"
    },
    {
      "constant": true,
      "inputs": [],
      "name": "transferProxyAddress",
      "outputs": [
        {
          "name": "",
          "type": "address"
        }
      ],
      "payable": false,
      "stateMutability": "view",
      "type": "function"
    },
    {
      "constant": true,
      "inputs": [
        {
          "name": "_exchangeId",
          "type": "uint8"
        }
      ],
      "name": "exchanges",
      "outputs": [
        {
          "name": "",
          "type": "address"
        }
      ],
      "payable": false,
      "stateMutability": "view",
      "type": "function"
    },
    {
      "constant": true,
      "inputs": [],
      "name": "state",
      "outputs": [
        {
          "name": "transferProxyAddress",
          "type": "address"
        },
        {
          "name": "vaultAddress",
          "type": "address"
        }
      ],
      "payable": false,
      "stateMutability": "view",
      "type": "function"
    },
    {
      "constant": true,
      "inputs": [
        {
          "name": "_orderHash",
          "type": "bytes32"
        }
      ],
      "name": "orderFills",
      "outputs": [
        {
          "name": "",
          "type": "uint256"
        }
      ],
      "payable": false,
      "stateMutability": "view",
      "type": "function"
    },
    {
      "constant": true,
      "inputs": [
        {
          "name": "_set",
          "type": "address"
        }
      ],
      "name": "validSets",
      "outputs": [
        {
          "name": "",
          "type": "bool"
        }
      ],
      "payable": false,
      "stateMutability": "view",
      "type": "function"
    }
  ],
  "bytecode": "0x608060405234801561001057600080fd5b506102a4806100206000396000f30060806040526004361061008d5763ffffffff7c01000000000000000000000000000000000000000000000000000000006000350416630e4355d481146100925780631e912bd6146100c7578063430bf08a146100f15780638ca4daf914610122578063a003e06914610137578063c19d93fb14610152578063f7213db61461018d578063fef3ee73146101a5575b600080fd5b34801561009e57600080fd5b506100b3600160a060020a03600435166101c6565b604080519115158252519081900360200190f35b3480156100d357600080fd5b506100df6004356101e4565b60408051918252519081900360200190f35b3480156100fd57600080fd5b506101066101f6565b60408051600160a060020a039092168252519081900360200190f35b34801561012e57600080fd5b50610106610205565b34801561014357600080fd5b5061010660ff60043516610214565b34801561015e57600080fd5b50610167610232565b60408051600160a060020a03938416815291909216602082015281519081900390910190f35b34801561019957600080fd5b506100df600435610248565b3480156101b157600080fd5b506100b3600160a060020a036004351661025a565b600160a060020a031660009081526003602052604090205460ff1690565b60009081526006602052604090205490565b600254600160a060020a031690565b600154600160a060020a031690565b60ff16600090815260208190526040902054600160a060020a031690565b600154600254600160a060020a03918216911682565b60009081526005602052604090205490565b600160a060020a031660009081526004602052604090205460ff16905600a165627a7a72305820438c40988f6d1b1707847376992fa028f2cd9b47ee2c97db0cabf0e084e9b4ef0029",
  "source": "/*\n    Copyright 2018 Set Labs Inc.\n\n    Licensed under the Apache License, Version 2.0 (the \"License\");\n    you may not use this file except in compliance with the License.\n    You may obtain a copy of the License at\n\n    http://www.apache.org/licenses/LICENSE-2.0\n\n    Unless required by applicable law or agreed to in writing, software\n    distributed under the License is distributed on an \"AS IS\" BASIS,\n    WITHOUT WARRANTIES OR CONDITIONS OF ANY KIND, either express or implied.\n    See the License for the specific language governing permissions and\n    limitations under the License.\n*/\n\npragma solidity 0.4.24;\n\nimport { CoreState } from \"./CoreState.sol\";\nimport { ISetToken } from \"../interfaces/ISetToken.sol\";\n\n\n/**\n * @title Core Shared Modifiers\n * @author Set Protocol\n *\n * The Core Shared Modifiers library contains the modifiers that are shared across the different\n * Core extensions.\n */\ncontract CoreModifiers is\n    CoreState\n{\n\n    /* ============ Constants ============ */\n\n    string constant INVALID_QUANTITY = \"Quantity must be multiple of the natural unit of the set.\";\n    string constant ZERO_QUANTITY = \"Quantity must be greater than zero.\";\n    string constant INVALID_SET = \"Set token is disabled or does not exist.\";\n    string constant INVALID_FACTORY = \"Factory is disabled or does not exist.\";\n\n    /* ============ Modifiers ============ */\n\n    // Check that quantity submitted is greater than 0\n    modifier isPositiveQuantity(uint _quantity) {\n        require(\n            _quantity > 0,\n            ZERO_QUANTITY\n        );\n        _;\n    }\n\n    // Verify Factory is linked to Core\n    modifier isValidFactory(address _factoryAddress) {\n        require(\n            state.validFactories[_factoryAddress],\n            INVALID_FACTORY\n        );\n        _;\n    }\n\n    // Verify set was created by core and is enabled\n    modifier isValidSet(address _setAddress) {\n        require(\n            state.validSets[_setAddress],\n            INVALID_SET\n        );\n        _;\n    }\n\n    // Validate quantity is multiple of natural unit\n    modifier isNaturalUnitMultiple(uint _quantity, address _setToken) {\n        require(\n            _quantity % ISetToken(_setToken).naturalUnit() == 0,\n            INVALID_QUANTITY\n        );\n        _;\n    }\n}\n",
  "sourcePath": "/Users/justinkchen/workspace/set-protocol-contracts/contracts/core/lib/CoreSharedModifiers.sol",
  "compiler": {
    "name": "solc",
    "version": "0.4.24+commit.e67f0147.Emscripten.clang"
  },
  "schemaVersion": "2.0.0",
  "updatedAt": "2018-07-08T01:11:15.197Z"
}