{
  "contractName": "CoreAccounting",
  "abi": [
    {
      "constant": true,
      "inputs": [
        {
          "name": "_factory",
          "type": "address"
        }
      ],
      "name": "validFactories",
      "outputs": [
        {
          "name": "",
          "type": "bool"
        }
      ],
      "payable": false,
      "stateMutability": "view",
      "type": "function"
    },
    {
      "constant": true,
      "inputs": [
        {
          "name": "_orderHash",
          "type": "bytes32"
        }
      ],
      "name": "orderCancels",
      "outputs": [
        {
          "name": "",
          "type": "uint256"
        }
      ],
      "payable": false,
      "stateMutability": "view",
      "type": "function"
    },
    {
      "constant": true,
      "inputs": [],
      "name": "setTokens",
      "outputs": [
        {
          "name": "",
          "type": "address[]"
        }
      ],
      "payable": false,
      "stateMutability": "view",
      "type": "function"
    },
    {
      "constant": true,
      "inputs": [],
      "name": "transferProxy",
      "outputs": [
        {
          "name": "",
          "type": "address"
        }
      ],
      "payable": false,
      "stateMutability": "view",
      "type": "function"
    },
    {
      "constant": true,
      "inputs": [
        {
          "name": "_exchangeId",
          "type": "uint8"
        }
      ],
      "name": "exchanges",
      "outputs": [
        {
          "name": "",
          "type": "address"
        }
      ],
      "payable": false,
      "stateMutability": "view",
      "type": "function"
    },
    {
      "constant": true,
      "inputs": [],
      "name": "state",
      "outputs": [
        {
          "name": "transferProxy",
          "type": "address"
        },
        {
          "name": "vault",
          "type": "address"
        }
      ],
      "payable": false,
      "stateMutability": "view",
      "type": "function"
    },
    {
      "constant": true,
      "inputs": [
        {
          "name": "_orderHash",
          "type": "bytes32"
        }
      ],
      "name": "orderFills",
      "outputs": [
        {
          "name": "",
          "type": "uint256"
        }
      ],
      "payable": false,
      "stateMutability": "view",
      "type": "function"
    },
    {
      "constant": true,
      "inputs": [],
      "name": "vault",
      "outputs": [
        {
          "name": "",
          "type": "address"
        }
      ],
      "payable": false,
      "stateMutability": "view",
      "type": "function"
    },
    {
      "constant": true,
      "inputs": [],
      "name": "factories",
      "outputs": [
        {
          "name": "",
          "type": "address[]"
        }
      ],
      "payable": false,
      "stateMutability": "view",
      "type": "function"
    },
    {
      "constant": true,
      "inputs": [
        {
          "name": "_set",
          "type": "address"
        }
      ],
      "name": "validSets",
      "outputs": [
        {
          "name": "",
          "type": "bool"
        }
      ],
      "payable": false,
      "stateMutability": "view",
      "type": "function"
    },
    {
      "constant": false,
      "inputs": [
        {
          "name": "_token",
          "type": "address"
        },
        {
          "name": "_quantity",
          "type": "uint256"
        }
      ],
      "name": "deposit",
      "outputs": [],
      "payable": false,
      "stateMutability": "nonpayable",
      "type": "function"
    },
    {
      "constant": false,
      "inputs": [
        {
          "name": "_token",
          "type": "address"
        },
        {
          "name": "_quantity",
          "type": "uint256"
        }
      ],
      "name": "withdraw",
      "outputs": [],
      "payable": false,
      "stateMutability": "nonpayable",
      "type": "function"
    },
    {
      "constant": false,
      "inputs": [
        {
          "name": "_tokens",
          "type": "address[]"
        },
        {
          "name": "_quantities",
          "type": "uint256[]"
        }
      ],
      "name": "batchDeposit",
      "outputs": [],
      "payable": false,
      "stateMutability": "nonpayable",
      "type": "function"
    },
    {
      "constant": false,
      "inputs": [
        {
          "name": "_tokens",
          "type": "address[]"
        },
        {
          "name": "_quantities",
          "type": "uint256[]"
        }
      ],
      "name": "batchWithdraw",
      "outputs": [],
      "payable": false,
      "stateMutability": "nonpayable",
      "type": "function"
    },
    {
      "constant": false,
      "inputs": [
        {
          "name": "_to",
          "type": "address"
        },
        {
          "name": "_token",
          "type": "address"
        },
        {
          "name": "_quantity",
          "type": "uint256"
        }
      ],
      "name": "internalTransfer",
      "outputs": [],
      "payable": false,
      "stateMutability": "nonpayable",
      "type": "function"
    }
  ],
  "bytecode": "0x6080604052600160095534801561001557600080fd5b506109e0806100256000396000f3006080604052600436106100da5763ffffffff7c01000000000000000000000000000000000000000000000000000000006000350416630e4355d481146100df5780631e912bd61461011457806330a907361461013e57806347e7ef241461016c578063559ed3391461019057806359e026f7146101f55780636e667db31461021f578063a003e06914610250578063c19d93fb1461026b578063e131243e146102a6578063f3fef3a3146102d2578063f7213db6146102f6578063fbfa77cf1461030e578063fe5b38e414610323578063fef3ee7314610338575b600080fd5b3480156100eb57600080fd5b50610100600160a060020a0360043516610359565b604080519115158252519081900360200190f35b34801561012057600080fd5b5061012c600435610377565b60408051918252519081900360200190f35b34801561014a57600080fd5b5061016a6024600480358281019290820135918135918201910135610389565b005b34801561017857600080fd5b5061016a600160a060020a036004351660243561040e565b34801561019c57600080fd5b506101a5610437565b60408051602080825283518183015283519192839290830191858101910280838360005b838110156101e15781810151838201526020016101c9565b505050509050019250505060405180910390f35b34801561020157600080fd5b5061016a600160a060020a036004358116906024351660443561049c565b34801561022b57600080fd5b5061023461054e565b60408051600160a060020a039092168252519081900360200190f35b34801561025c57600080fd5b5061023460ff6004351661055d565b34801561027757600080fd5b5061028061057b565b60408051600160a060020a03938416815291909216602082015281519081900390910190f35b3480156102b257600080fd5b5061016a6024600480358281019290820135918135918201910135610591565b3480156102de57600080fd5b5061016a600160a060020a0360043516602435610627565b34801561030257600080fd5b5061012c600435610645565b34801561031a57600080fd5b50610234610657565b34801561032f57600080fd5b506101a5610666565b34801561034457600080fd5b50610100600160a060020a03600435166106c9565b600160a060020a031660009081526003602052604090205460ff1690565b60009081526008602052604090205490565b60095460011461039857600080fd5b600260098190555061040333338686808060200260200160405190810160405280939291908181526020018383602002808284375050604080516020808c0282810182019093528b82529095508b94508a9350839250850190849080828437506106e7945050505050565b505060016009555050565b60095460011461041d57600080fd5b600260095561042e3380848461076a565b50506001600955565b6060600060060180548060200260200160405190810160405280929190818152602001828054801561049257602002820191906000526020600020905b8154600160a060020a03168152600190910190602001808311610474575b5050505050905090565b6009546001146104ab57600080fd5b6002600981905554604080517fb19ad577000000000000000000000000000000000000000000000000000000008152600160a060020a0386811660048301523360248301528581166044830152606482018590529151919092169163b19ad57791608480830192600092919082900301818387803b15801561052c57600080fd5b505af1158015610540573d6000803e3d6000fd5b505060016009555050505050565b600154600160a060020a031690565b60ff16600090815260208190526040902054600160a060020a031690565b600154600254600160a060020a03918216911682565b6009546000906001146105a357600080fd5b6002600955600084116105b557600080fd5b600082116105c257600080fd5b8382146105ce57600080fd5b5060005b8381101561061b576106138585838181106105e957fe5b90506020020135600160a060020a0316848484818110151561060757fe5b90506020020135610897565b6001016105d2565b50506001600955505050565b60095460011461063657600080fd5b600260095561042e8282610897565b60009081526007602052604090205490565b600254600160a060020a031690565b6060600060040180548060200260200160405190810160405280929190818152602001828054801561049257602002820191906000526020600020908154600160a060020a03168152600190910190602001808311610474575050505050905090565b600160a060020a031660009081526005602052604090205460ff1690565b60008083511115156106f857600080fd5b815160001061070657600080fd5b815183511461071457600080fd5b5060005b82518110156107635761075b8585858481518110151561073457fe5b90602001906020020151858581518110151561074c57fe5b9060200190602002015161076a565b600101610718565b5050505050565b600154600254604080517fa6c4e467000000000000000000000000000000000000000000000000000000008152600160a060020a03868116600483015260248201869052888116604483015292831660648201529051919092169163a6c4e46791608480830192600092919082900301818387803b1580156107eb57600080fd5b505af11580156107ff573d6000803e3d6000fd5b5050600254604080517fbada5726000000000000000000000000000000000000000000000000000000008152600160a060020a038781166004830152888116602483015260448201879052915191909216935063bada57269250606480830192600092919082900301818387803b15801561087957600080fd5b505af115801561088d573d6000803e3d6000fd5b5050505050505050565b600254604080517f80ddda30000000000000000000000000000000000000000000000000000000008152600160a060020a038581166004830152336024830152604482018590529151919092169182916380ddda309160648082019260009290919082900301818387803b15801561090e57600080fd5b505af1158015610922573d6000803e3d6000fd5b5050604080517fc3b35a7e000000000000000000000000000000000000000000000000000000008152600160a060020a038781166004830152336024830152604482018790529151918516935063c3b35a7e925060648082019260009290919082900301818387803b15801561099757600080fd5b505af11580156109ab573d6000803e3d6000fd5b505050505050505600a165627a7a7230582088195c17927af81cd0fdebffe5f45bb85482363b615ce2b386ec098f0bf780260029",
  "source": "/*\n    Copyright 2018 Set Labs Inc.\n\n    Licensed under the Apache License, Version 2.0 (the \"License\");\n    you may not use this file except in compliance with the License.\n    You may obtain a copy of the License at\n\n    http://www.apache.org/licenses/LICENSE-2.0\n\n    Unless required by applicable law or agreed to in writing, software\n    distributed under the License is distributed on an \"AS IS\" BASIS,\n    WITHOUT WARRANTIES OR CONDITIONS OF ANY KIND, either express or implied.\n    See the License for the specific language governing permissions and\n    limitations under the License.\n*/\n\npragma solidity 0.4.24;\n\nimport { ReentrancyGuard } from \"zeppelin-solidity/contracts/ReentrancyGuard.sol\";\nimport { SafeMath } from \"zeppelin-solidity/contracts/math/SafeMath.sol\";\nimport { CoreState } from \"../lib/CoreState.sol\";\nimport { ITransferProxy } from \"../interfaces/ITransferProxy.sol\";\nimport { IVault } from \"../interfaces/IVault.sol\";\n\n\n/**\n * @title Core Accounting\n * @author Set Protocol\n *\n * The CoreAccounting contract interfaces with the vault and transfer proxies\n * for storage of tokenized assets\n */\ncontract CoreAccounting is\n    CoreState,\n    ReentrancyGuard\n{\n    // Use SafeMath library for all uint256 arithmetic\n    using SafeMath for uint256;\n\n    /* ============ External Functions ============ */\n\n    /**\n     * Deposit any quantity of tokens into the vault and attribute to sender.\n     *\n     * @param  _token           The address of the ERC20 token\n     * @param  _quantity        The number of tokens to deposit\n     */\n    function deposit(\n        address _token,\n        uint256 _quantity\n    )\n        external\n        nonReentrant\n    {\n        // Call internal deposit function\n        depositInternal(\n            msg.sender,\n            msg.sender,\n            _token,\n            _quantity\n        );\n    }\n\n    /**\n     * Withdraw a quantity of tokens from the vault.\n     *\n     * @param  _token           The address of the ERC20 token\n     * @param  _quantity        The number of tokens to withdraw\n     */\n    function withdraw(\n        address _token,\n        uint256 _quantity\n    )\n        external\n        nonReentrant\n    {\n        withdrawInternal(\n            _token,\n            _quantity\n        );\n    }\n\n    /**\n     * Deposit multiple tokens to the vault and attribute to sender.\n     * Quantities should be in the order of the addresses of the tokens being deposited.\n     *\n     * @param  _tokens           Array of the addresses of the ERC20 tokens\n     * @param  _quantities       Array of the number of tokens to deposit\n     */\n    function batchDeposit(\n        address[] _tokens,\n        uint256[] _quantities\n    )\n        external\n        nonReentrant\n    {\n        // Call internal batch deposit function\n        batchDepositInternal(\n            msg.sender,\n            msg.sender,\n            _tokens,\n            _quantities\n        );\n    }\n\n    /**\n     * Withdraw multiple tokens from the vault. Quantities should be in the\n     * order of the addresses of the tokens being withdrawn.\n     *\n     * @param  _tokens            Array of the addresses of the ERC20 tokens\n     * @param  _quantities        Array of the number of tokens to withdraw\n     */\n    function batchWithdraw(\n        address[] _tokens,\n        uint256[] _quantities\n    )\n        external\n        nonReentrant\n    {\n        // Confirm an empty _tokens array is not passed\n        require(_tokens.length > 0);\n\n        // Confirm an empty _quantities array is not passed\n        require(_quantities.length > 0);\n\n        // Confirm there is one quantity for every token address\n        require(_tokens.length == _quantities.length);\n\n        // For each token and quantity pair, run withdraw function\n        for (uint256 i = 0; i < _tokens.length; i++) {\n            withdrawInternal(\n                _tokens[i],\n                _quantities[i]\n            );\n        }\n    }\n\n    /**\n     * Sender can transfer tokens associated with their account in Vault to\n     * another users account in vault\n     *\n     * @param  _to             Address token being transferred to\n     * @param  _token          Address of token being transferred\n     * @param  _quantity       Amount of tokens being transferred\n     */\n    function internalTransfer(\n        address _to,\n        address _token,\n        uint256 _quantity\n    )\n        external\n        nonReentrant\n    {\n        IVault(state.vault).transferBalance(\n            _to,\n            msg.sender,\n            _token,\n            _quantity\n        );\n    }\n\n    /* ============ Internal Functions ============ */\n\n    /**\n     * Deposit any quantity of tokens into the vault.\n     *\n     * @param  _from            Address depositing token\n     * @param  _to              Address to credit for deposit\n     * @param  _token           Address of token being deposited\n     * @param  _quantity        The number of tokens to deposit\n     */\n    function depositInternal(\n        address _from,\n        address _to,\n        address _token,\n        uint256 _quantity\n    )\n        internal\n    {\n        // Call TransferProxy contract to transfer user tokens to Vault\n        ITransferProxy(state.transferProxy).transfer(\n            _token,\n            _quantity,\n            _from,\n            state.vault\n        );\n\n        // Call Vault contract to attribute deposited tokens to user\n        IVault(state.vault).incrementTokenOwner(\n            _token,\n            _to,\n            _quantity\n        );\n    }\n\n    /**\n     * Internal function that Withdraws a quantity of tokens from the vault.\n     *\n     * @param  _token           The address of the ERC20 token\n     * @param  _quantity        The number of tokens to withdraw\n     */\n    function withdrawInternal(\n        address _token,\n        uint256 _quantity\n    )\n        internal\n    {\n        // Declare interface variavle for vault\n        IVault vault = IVault(state.vault);\n\n        // Call Vault contract to deattribute tokens to user\n        vault.decrementTokenOwner(\n            _token,\n            msg.sender,\n            _quantity\n        );\n\n        // Call Vault to withdraw tokens from Vault to user\n        vault.withdrawTo(\n            _token,\n            msg.sender,\n            _quantity\n        );\n    }\n\n\n    /**\n     * Deposit multiple tokens to the vault. Quantities should be in the\n     * order of the addresses of the tokens being deposited.\n     *\n     * @param  _from            Address depositing tokens\n     * @param  _to              Address to credit for deposits\n     * @param  _tokens          Addresses of tokens being deposited\n     * @param  _quantities      The quantities of tokens to deposit\n     */\n    function batchDepositInternal(\n        address _from,\n        address _to,\n        address[] _tokens,\n        uint256[] _quantities\n    )\n        internal\n    {\n        // Confirm and empty _tokens array is not passed\n        require(_tokens.length > 0);\n\n        // Confirm an empty _quantities array is not passed\n        require(_quantities.length > 0);\n\n        // Confirm there is one quantity for every token address\n        require(_tokens.length == _quantities.length);\n\n        // For each token and quantity pair, run depositInternal function\n        for (uint256 i = 0; i < _tokens.length; i++) {\n            depositInternal(\n                _from,\n                _to,\n                _tokens[i],\n                _quantities[i]\n            );\n        }\n    }\n}\n",
  "sourcePath": "/Users/justinkchen/workspace/set-protocol-contracts/contracts/core/extensions/CoreAccounting.sol",
  "compiler": {
    "name": "solc",
    "version": "0.4.24+commit.e67f0147.Emscripten.clang"
  },
  "schemaVersion": "2.0.0",
  "updatedAt": "2018-08-25T17:34:39.484Z"
}