{
  "contractName": "CoreExchangeDispatcher",
  "abi": [
    {
      "constant": true,
      "inputs": [
        {
          "name": "_factory",
          "type": "address"
        }
      ],
      "name": "validFactories",
      "outputs": [
        {
          "name": "",
          "type": "bool"
        }
      ],
      "payable": false,
      "stateMutability": "view",
      "type": "function"
    },
    {
      "constant": true,
      "inputs": [
        {
          "name": "_orderHash",
          "type": "bytes32"
        }
      ],
      "name": "orderCancels",
      "outputs": [
        {
          "name": "",
          "type": "uint256"
        }
      ],
      "payable": false,
      "stateMutability": "view",
      "type": "function"
    },
    {
      "constant": true,
      "inputs": [],
      "name": "vaultAddress",
      "outputs": [
        {
          "name": "",
          "type": "address"
        }
      ],
      "payable": false,
      "stateMutability": "view",
      "type": "function"
    },
    {
      "constant": true,
      "inputs": [],
      "name": "setTokens",
      "outputs": [
        {
          "name": "",
          "type": "address[]"
        }
      ],
      "payable": false,
      "stateMutability": "view",
      "type": "function"
    },
    {
      "constant": false,
      "inputs": [],
      "name": "renounceOwnership",
      "outputs": [],
      "payable": false,
      "stateMutability": "nonpayable",
      "type": "function"
    },
    {
      "constant": true,
      "inputs": [],
      "name": "transferProxyAddress",
      "outputs": [
        {
          "name": "",
          "type": "address"
        }
      ],
      "payable": false,
      "stateMutability": "view",
      "type": "function"
    },
    {
      "constant": true,
      "inputs": [],
      "name": "owner",
      "outputs": [
        {
          "name": "",
          "type": "address"
        }
      ],
      "payable": false,
      "stateMutability": "view",
      "type": "function"
    },
    {
      "constant": true,
      "inputs": [
        {
          "name": "_exchangeId",
          "type": "uint8"
        }
      ],
      "name": "exchanges",
      "outputs": [
        {
          "name": "",
          "type": "address"
        }
      ],
      "payable": false,
      "stateMutability": "view",
      "type": "function"
    },
    {
      "constant": true,
      "inputs": [],
      "name": "state",
      "outputs": [
        {
          "name": "transferProxyAddress",
          "type": "address"
        },
        {
          "name": "vaultAddress",
          "type": "address"
        }
      ],
      "payable": false,
      "stateMutability": "view",
      "type": "function"
    },
    {
      "constant": false,
      "inputs": [
        {
          "name": "_newOwner",
          "type": "address"
        }
      ],
      "name": "transferOwnership",
      "outputs": [],
      "payable": false,
      "stateMutability": "nonpayable",
      "type": "function"
    },
    {
      "constant": true,
      "inputs": [
        {
          "name": "_orderHash",
          "type": "bytes32"
        }
      ],
      "name": "orderFills",
      "outputs": [
        {
          "name": "",
          "type": "uint256"
        }
      ],
      "payable": false,
      "stateMutability": "view",
      "type": "function"
    },
    {
      "constant": true,
      "inputs": [],
      "name": "factories",
      "outputs": [
        {
          "name": "",
          "type": "address[]"
        }
      ],
      "payable": false,
      "stateMutability": "view",
      "type": "function"
    },
    {
      "constant": true,
      "inputs": [
        {
          "name": "_set",
          "type": "address"
        }
      ],
      "name": "validSets",
      "outputs": [
        {
          "name": "",
          "type": "bool"
        }
      ],
      "payable": false,
      "stateMutability": "view",
      "type": "function"
    },
    {
      "anonymous": false,
      "inputs": [
        {
          "indexed": false,
          "name": "_exchangeId",
          "type": "uint8"
        },
        {
          "indexed": false,
          "name": "_exchange",
          "type": "address"
        }
      ],
      "name": "ExchangeRegistered",
      "type": "event"
    },
    {
      "anonymous": false,
      "inputs": [
        {
          "indexed": true,
          "name": "previousOwner",
          "type": "address"
        }
      ],
      "name": "OwnershipRenounced",
      "type": "event"
    },
    {
      "anonymous": false,
      "inputs": [
        {
          "indexed": true,
          "name": "previousOwner",
          "type": "address"
        },
        {
          "indexed": true,
          "name": "newOwner",
          "type": "address"
        }
      ],
      "name": "OwnershipTransferred",
      "type": "event"
    },
    {
      "constant": false,
      "inputs": [
        {
          "name": "_exchangeId",
          "type": "uint8"
        },
        {
          "name": "_exchange",
          "type": "address"
        }
      ],
      "name": "registerExchange",
      "outputs": [],
      "payable": false,
      "stateMutability": "nonpayable",
      "type": "function"
    }
  ],
  "bytecode": "0x608060405260008054600160a060020a03191633179055610792806100256000396000f3006080604052600436106100cf5763ffffffff7c01000000000000000000000000000000000000000000000000000000006000350416630e4355d481146100d45780631e912bd6146101165780633e3d13b214610140578063430bf08a14610176578063559ed339146101b4578063715018a6146102195780638ca4daf91461022e5780638da5cb5b14610243578063a003e06914610258578063c19d93fb14610273578063f2fde38b146102bb578063f7213db6146102e9578063fe5b38e414610301578063fef3ee7314610316575b600080fd5b3480156100e057600080fd5b5061010273ffffffffffffffffffffffffffffffffffffffff60043516610344565b604080519115158252519081900360200190f35b34801561012257600080fd5b5061012e60043561036f565b60408051918252519081900360200190f35b34801561014c57600080fd5b5061017460ff6004351673ffffffffffffffffffffffffffffffffffffffff60243516610381565b005b34801561018257600080fd5b5061018b610435565b6040805173ffffffffffffffffffffffffffffffffffffffff9092168252519081900360200190f35b3480156101c057600080fd5b506101c9610451565b60408051602080825283518183015283519192839290830191858101910280838360005b838110156102055781810151838201526020016101ed565b505050509050019250505060405180910390f35b34801561022557600080fd5b506101746104c3565b34801561023a57600080fd5b5061018b610554565b34801561024f57600080fd5b5061018b610570565b34801561026457600080fd5b5061018b60ff6004351661058c565b34801561027f57600080fd5b506102886105b7565b6040805173ffffffffffffffffffffffffffffffffffffffff938416815291909216602082015281519081900390910190f35b3480156102c757600080fd5b5061017473ffffffffffffffffffffffffffffffffffffffff600435166105da565b3480156102f557600080fd5b5061012e60043561060a565b34801561030d57600080fd5b506101c961061c565b34801561032257600080fd5b5061010273ffffffffffffffffffffffffffffffffffffffff6004351661068c565b73ffffffffffffffffffffffffffffffffffffffff1660009081526004602052604090205460ff1690565b60009081526009602052604090205490565b60005473ffffffffffffffffffffffffffffffffffffffff1633146103a557600080fd5b60ff821660008181526001602090815260409182902080547fffffffffffffffffffffffff00000000000000000000000000000000000000001673ffffffffffffffffffffffffffffffffffffffff861690811790915582519384529083015280517feee2c0570205f21356a5108d71a4d6e7151682b92a84c761fca82cac87275c289281900390910190a15050565b60035473ffffffffffffffffffffffffffffffffffffffff1690565b606060016006018054806020026020016040519081016040528092919081815260200182805480156104b957602002820191906000526020600020905b815473ffffffffffffffffffffffffffffffffffffffff16815260019091019060200180831161048e575b5050505050905090565b60005473ffffffffffffffffffffffffffffffffffffffff1633146104e757600080fd5b6000805460405173ffffffffffffffffffffffffffffffffffffffff909116917ff8df31144d9c2f0f6b59d69b8b98abd5459d07f2742c4df920b25aae33c6482091a2600080547fffffffffffffffffffffffff0000000000000000000000000000000000000000169055565b60025473ffffffffffffffffffffffffffffffffffffffff1690565b60005473ffffffffffffffffffffffffffffffffffffffff1681565b60ff1660009081526001602052604090205473ffffffffffffffffffffffffffffffffffffffff1690565b60025460035473ffffffffffffffffffffffffffffffffffffffff918216911682565b60005473ffffffffffffffffffffffffffffffffffffffff1633146105fe57600080fd5b610607816106b7565b50565b60009081526008602052604090205490565b606060016004018054806020026020016040519081016040528092919081815260200182805480156104b95760200282019190600052602060002090815473ffffffffffffffffffffffffffffffffffffffff16815260019091019060200180831161048e575050505050905090565b73ffffffffffffffffffffffffffffffffffffffff1660009081526006602052604090205460ff1690565b73ffffffffffffffffffffffffffffffffffffffff811615156106d957600080fd5b6000805460405173ffffffffffffffffffffffffffffffffffffffff808516939216917f8be0079c531659141344cd1fd0a4f28419497f9722a3daafe3b4186f6b6457e091a3600080547fffffffffffffffffffffffff00000000000000000000000000000000000000001673ffffffffffffffffffffffffffffffffffffffff929092169190911790555600a165627a7a72305820b0584d6079cc73038c9608c7601c272909984e68cd536cf0789617c3ba5e74580029",
  "source": "/*\n    Copyright 2018 Set Labs Inc.\n\n    Licensed under the Apache License, Version 2.0 (the \"License\");\n    you may not use this file except in compliance with the License.\n    You may obtain a copy of the License at\n\n    http://www.apache.org/licenses/LICENSE-2.0\n\n    Unless required by applicable law or agreed to in writing, software\n    distributed under the License is distributed on an \"AS IS\" BASIS,\n    WITHOUT WARRANTIES OR CONDITIONS OF ANY KIND, either express or implied.\n    See the License for the specific language governing permissions and\n    limitations under the License.\n*/\n\npragma solidity 0.4.24;\n\nimport { Ownable } from \"zeppelin-solidity/contracts/ownership/Ownable.sol\";\nimport { CoreState } from \"../lib/CoreState.sol\";\n\n\n/**\n * @title Core Exchange Dispatcher\n * @author Set Protocol\n *\n * The CoreExchangeDispatcher factilitates updating permissible exchanges\n * that are used in filling issuance orders. See CoreState.State.exchanges\n */\ncontract CoreExchangeDispatcher is\n    Ownable,\n    CoreState\n{\n\n    /* ============ Events ============ */\n\n    // Logs registration of new exchange\n    event ExchangeRegistered(\n        uint8 _exchangeId,\n        address _exchange\n    );\n\n    /* ============ Setter Functions ============ */\n\n    /**\n     * Register exchange address into mapping of exchanges \n     *\n     * @param _exchangeId   Enumeration of exchange\n     * @param _exchange     Exchange address to set\n     */\n    function registerExchange(\n        uint8 _exchangeId,\n        address _exchange\n    )\n        external\n        onlyOwner\n    {\n        // Add asset proxy and log registration.\n        state.exchanges[_exchangeId] = _exchange;\n\n        // Add asset proxy and log registration.\n        emit ExchangeRegistered(\n            _exchangeId,\n            _exchange\n        );\n    }\n}\n",
  "sourcePath": "/Users/inje/Documents/repos/set-protocol-contracts/contracts/core/extensions/CoreExchangeDispatcher.sol",
  "compiler": {
    "name": "solc",
    "version": "0.4.24+commit.e67f0147.Emscripten.clang"
  },
  "schemaVersion": "2.0.0",
  "updatedAt": "2018-07-13T21:55:38.337Z"
}