{
  "contractName": "CoreIssuance",
  "abi": [
    {
      "constant": true,
      "inputs": [
        {
          "name": "_factory",
          "type": "address"
        }
      ],
      "name": "validFactories",
      "outputs": [
        {
          "name": "",
          "type": "bool"
        }
      ],
      "payable": false,
      "stateMutability": "view",
      "type": "function"
    },
    {
      "constant": true,
      "inputs": [
        {
          "name": "_orderHash",
          "type": "bytes32"
        }
      ],
      "name": "orderCancels",
      "outputs": [
        {
          "name": "",
          "type": "uint256"
        }
      ],
      "payable": false,
      "stateMutability": "view",
      "type": "function"
    },
    {
      "constant": true,
      "inputs": [],
      "name": "vaultAddress",
      "outputs": [
        {
          "name": "",
          "type": "address"
        }
      ],
      "payable": false,
      "stateMutability": "view",
      "type": "function"
    },
    {
      "constant": true,
      "inputs": [],
      "name": "transferProxyAddress",
      "outputs": [
        {
          "name": "",
          "type": "address"
        }
      ],
      "payable": false,
      "stateMutability": "view",
      "type": "function"
    },
    {
      "constant": true,
      "inputs": [
        {
          "name": "_exchangeId",
          "type": "uint8"
        }
      ],
      "name": "exchanges",
      "outputs": [
        {
          "name": "",
          "type": "address"
        }
      ],
      "payable": false,
      "stateMutability": "view",
      "type": "function"
    },
    {
      "constant": true,
      "inputs": [],
      "name": "state",
      "outputs": [
        {
          "name": "transferProxyAddress",
          "type": "address"
        },
        {
          "name": "vaultAddress",
          "type": "address"
        }
      ],
      "payable": false,
      "stateMutability": "view",
      "type": "function"
    },
    {
      "constant": true,
      "inputs": [
        {
          "name": "_orderHash",
          "type": "bytes32"
        }
      ],
      "name": "orderFills",
      "outputs": [
        {
          "name": "",
          "type": "uint256"
        }
      ],
      "payable": false,
      "stateMutability": "view",
      "type": "function"
    },
    {
      "constant": true,
      "inputs": [
        {
          "name": "_set",
          "type": "address"
        }
      ],
      "name": "validSets",
      "outputs": [
        {
          "name": "",
          "type": "bool"
        }
      ],
      "payable": false,
      "stateMutability": "view",
      "type": "function"
    },
    {
      "anonymous": false,
      "inputs": [
        {
          "indexed": true,
          "name": "_setToken",
          "type": "address"
        },
        {
          "indexed": true,
          "name": "_component",
          "type": "address"
        },
        {
          "indexed": false,
          "name": "_quantity",
          "type": "uint256"
        }
      ],
      "name": "IssuanceComponentDeposited",
      "type": "event"
    },
    {
      "constant": false,
      "inputs": [
        {
          "name": "_setAddress",
          "type": "address"
        },
        {
          "name": "_quantity",
          "type": "uint256"
        }
      ],
      "name": "issue",
      "outputs": [],
      "payable": false,
      "stateMutability": "nonpayable",
      "type": "function"
    },
    {
      "constant": false,
      "inputs": [
        {
          "name": "_setAddress",
          "type": "address"
        },
        {
          "name": "_quantity",
          "type": "uint256"
        }
      ],
      "name": "redeem",
      "outputs": [],
      "payable": false,
      "stateMutability": "nonpayable",
      "type": "function"
    }
  ],
  "bytecode": "0x608060405234801561001057600080fd5b50611efe806100206000396000f3006080604052600436106100a4576000357c0100000000000000000000000000000000000000000000000000000000900463ffffffff1680630e4355d4146100a95780631e912bd6146101045780631e9a695014610149578063430bf08a14610196578063867904b4146101ed5780638ca4daf91461023a578063a003e06914610291578063c19d93fb14610301578063f7213db61461038b578063fef3ee73146103d0575b600080fd5b3480156100b557600080fd5b506100ea600480360381019080803573ffffffffffffffffffffffffffffffffffffffff16906020019092919050505061042b565b604051808215151515815260200191505060405180910390f35b34801561011057600080fd5b506101336004803603810190808035600019169060200190929190505050610483565b6040518082815260200191505060405180910390f35b34801561015557600080fd5b50610194600480360381019080803573ffffffffffffffffffffffffffffffffffffffff169060200190929190803590602001909291905050506104aa565b005b3480156101a257600080fd5b506101ab610eb5565b604051808273ffffffffffffffffffffffffffffffffffffffff1673ffffffffffffffffffffffffffffffffffffffff16815260200191505060405180910390f35b3480156101f957600080fd5b50610238600480360381019080803573ffffffffffffffffffffffffffffffffffffffff16906020019092919080359060200190929190505050610ee1565b005b34801561024657600080fd5b5061024f61130b565b604051808273ffffffffffffffffffffffffffffffffffffffff1673ffffffffffffffffffffffffffffffffffffffff16815260200191505060405180910390f35b34801561029d57600080fd5b506102bf600480360381019080803560ff169060200190929190505050611337565b604051808273ffffffffffffffffffffffffffffffffffffffff1673ffffffffffffffffffffffffffffffffffffffff16815260200191505060405180910390f35b34801561030d57600080fd5b5061031661137c565b604051808373ffffffffffffffffffffffffffffffffffffffff1673ffffffffffffffffffffffffffffffffffffffff1681526020018273ffffffffffffffffffffffffffffffffffffffff1673ffffffffffffffffffffffffffffffffffffffff1681526020019250505060405180910390f35b34801561039757600080fd5b506103ba60048036038101908080356000191690602001909291905050506113ce565b6040518082815260200191505060405180910390f35b3480156103dc57600080fd5b50610411600480360381019080803573ffffffffffffffffffffffffffffffffffffffff1690602001909291905050506113f5565b604051808215151515815260200191505060405180910390f35b60008060030160008373ffffffffffffffffffffffffffffffffffffffff1673ffffffffffffffffffffffffffffffffffffffff16815260200190815260200160002060009054906101000a900460ff169050919050565b60008060060160008360001916600019168152602001908152602001600020549050919050565b600060608060008060008088600060040160008273ffffffffffffffffffffffffffffffffffffffff1673ffffffffffffffffffffffffffffffffffffffff16815260200190815260200160002060009054906101000a900460ff16606060405190810160405280602881526020017f53657420746f6b656e2069732064697361626c6564206f7220646f6573206e6f81526020017f742065786973742e00000000000000000000000000000000000000000000000081525090151561060b576040517f08c379a00000000000000000000000000000000000000000000000000000000081526004018080602001828103825283818151815260200191508051906020019080838360005b838110156105d05780820151818401526020810190506105b5565b50505050905090810190601f1680156105fd5780820380516001836020036101000a031916815260200191505b509250505060405180910390fd5b508860008111606060405190810160405280602381526020017f5175616e74697479206d7573742062652067726561746572207468616e207a6581526020017f726f2e0000000000000000000000000000000000000000000000000000000000815250901515610716576040517f08c379a00000000000000000000000000000000000000000000000000000000081526004018080602001828103825283818151815260200191508051906020019080838360005b838110156106db5780820151818401526020810190506106c0565b50505050905090810190601f1680156107085780820380516001836020036101000a031916815260200191505b509250505060405180910390fd5b50898b60008173ffffffffffffffffffffffffffffffffffffffff166342a7cfd56040518163ffffffff167c0100000000000000000000000000000000000000000000000000000000028152600401602060405180830381600087803b15801561077f57600080fd5b505af1158015610793573d6000803e3d6000fd5b505050506040513d60208110156107a957600080fd5b8101908080519060200190929190505050838115156107c457fe5b0614606060405190810160405280603981526020017f5175616e74697479206d757374206265206d756c7469706c65206f662074686581526020017f206e61747572616c20756e6974206f6620746865207365742e000000000000008152509015156108cb576040517f08c379a00000000000000000000000000000000000000000000000000000000081526004018080602001828103825283818151815260200191508051906020019080838360005b83811015610890578082015181840152602081019050610875565b50505050905090810190601f1680156108bd5780820380516001836020036101000a031916815260200191505b509250505060405180910390fd5b508c73ffffffffffffffffffffffffffffffffffffffff16639dc29fac338e6040518363ffffffff167c0100000000000000000000000000000000000000000000000000000000028152600401808373ffffffffffffffffffffffffffffffffffffffff1673ffffffffffffffffffffffffffffffffffffffff16815260200182815260200192505050600060405180830381600087803b15801561096f57600080fd5b505af1158015610983573d6000803e3d6000fd5b505050508c73ffffffffffffffffffffffffffffffffffffffff166342a7cfd56040518163ffffffff167c0100000000000000000000000000000000000000000000000000000000028152600401602060405180830381600087803b1580156109eb57600080fd5b505af11580156109ff573d6000803e3d6000fd5b505050506040513d6020811015610a1557600080fd5b81019080805190602001909291905050509a508c73ffffffffffffffffffffffffffffffffffffffff166399d50d5d6040518163ffffffff167c0100000000000000000000000000000000000000000000000000000000028152600401600060405180830381600087803b158015610a8c57600080fd5b505af1158015610aa0573d6000803e3d6000fd5b505050506040513d6000823e3d601f19601f820116820180604052506020811015610aca57600080fd5b810190808051640100000000811115610ae257600080fd5b82810190506020810184811115610af857600080fd5b8151856020820283011164010000000082111715610b1557600080fd5b505092919050505099508c73ffffffffffffffffffffffffffffffffffffffff1663027aa9f56040518163ffffffff167c0100000000000000000000000000000000000000000000000000000000028152600401600060405180830381600087803b158015610b8357600080fd5b505af1158015610b97573d6000803e3d6000fd5b505050506040513d6000823e3d601f19601f820116820180604052506020811015610bc157600080fd5b810190808051640100000000811115610bd957600080fd5b82810190506020810184811115610bef57600080fd5b8151856020820283011164010000000082111715610c0c57600080fd5b50509291905050509850600097505b89518861ffff161015610ea657898861ffff16815181101515610c3a57fe5b906020019060200201519650888861ffff16815181101515610c5857fe5b906020019060200201519550610c6f868c8e61144d565b9450600060020160009054906101000a900473ffffffffffffffffffffffffffffffffffffffff1673ffffffffffffffffffffffffffffffffffffffff166380ddda308e89886040518463ffffffff167c0100000000000000000000000000000000000000000000000000000000028152600401808473ffffffffffffffffffffffffffffffffffffffff1673ffffffffffffffffffffffffffffffffffffffff1681526020018373ffffffffffffffffffffffffffffffffffffffff1673ffffffffffffffffffffffffffffffffffffffff1681526020018281526020019350505050600060405180830381600087803b158015610d6d57600080fd5b505af1158015610d81573d6000803e3d6000fd5b50505050600060020160009054906101000a900473ffffffffffffffffffffffffffffffffffffffff1673ffffffffffffffffffffffffffffffffffffffff1663bada57263389886040518463ffffffff167c0100000000000000000000000000000000000000000000000000000000028152600401808473ffffffffffffffffffffffffffffffffffffffff1673ffffffffffffffffffffffffffffffffffffffff1681526020018373ffffffffffffffffffffffffffffffffffffffff1673ffffffffffffffffffffffffffffffffffffffff1681526020018281526020019350505050600060405180830381600087803b158015610e8157600080fd5b505af1158015610e95573d6000803e3d6000fd5b505050508780600101985050610c1b565b50505050505050505050505050565b60008060020160009054906101000a900473ffffffffffffffffffffffffffffffffffffffff16905090565b81600060040160008273ffffffffffffffffffffffffffffffffffffffff1673ffffffffffffffffffffffffffffffffffffffff16815260200190815260200160002060009054906101000a900460ff16606060405190810160405280602881526020017f53657420746f6b656e2069732064697361626c6564206f7220646f6573206e6f81526020017f742065786973742e000000000000000000000000000000000000000000000000815250901515611037576040517f08c379a00000000000000000000000000000000000000000000000000000000081526004018080602001828103825283818151815260200191508051906020019080838360005b83811015610ffc578082015181840152602081019050610fe1565b50505050905090810190601f1680156110295780820380516001836020036101000a031916815260200191505b509250505060405180910390fd5b508160008111606060405190810160405280602381526020017f5175616e74697479206d7573742062652067726561746572207468616e207a6581526020017f726f2e0000000000000000000000000000000000000000000000000000000000815250901515611142576040517f08c379a00000000000000000000000000000000000000000000000000000000081526004018080602001828103825283818151815260200191508051906020019080838360005b838110156111075780820151818401526020810190506110ec565b50505050905090810190601f1680156111345780820380516001836020036101000a031916815260200191505b509250505060405180910390fd5b50828460008173ffffffffffffffffffffffffffffffffffffffff166342a7cfd56040518163ffffffff167c0100000000000000000000000000000000000000000000000000000000028152600401602060405180830381600087803b1580156111ab57600080fd5b505af11580156111bf573d6000803e3d6000fd5b505050506040513d60208110156111d557600080fd5b8101908080519060200190929190505050838115156111f057fe5b0614606060405190810160405280603981526020017f5175616e74697479206d757374206265206d756c7469706c65206f662074686581526020017f206e61747572616c20756e6974206f6620746865207365742e000000000000008152509015156112f7576040517f08c379a00000000000000000000000000000000000000000000000000000000081526004018080602001828103825283818151815260200191508051906020019080838360005b838110156112bc5780820151818401526020810190506112a1565b50505050905090810190601f1680156112e95780820380516001836020036101000a031916815260200191505b509250505060405180910390fd5b5061130333878761147d565b505050505050565b60008060010160009054906101000a900473ffffffffffffffffffffffffffffffffffffffff16905090565b60008060000160008360ff1660ff16815260200190815260200160002060009054906101000a900473ffffffffffffffffffffffffffffffffffffffff169050919050565b60008060010160009054906101000a900473ffffffffffffffffffffffffffffffffffffffff16908060020160009054906101000a900473ffffffffffffffffffffffffffffffffffffffff16905082565b60008060050160008360001916600019168152602001908152602001600020549050919050565b60008060040160008373ffffffffffffffffffffffffffffffffffffffff1673ffffffffffffffffffffffffffffffffffffffff16815260200190815260200160002060009054906101000a900460ff169050919050565b6000611474846114668585611e6b90919063ffffffff16565b611e8190919063ffffffff16565b90509392505050565b6060806000806000806000808973ffffffffffffffffffffffffffffffffffffffff166399d50d5d6040518163ffffffff167c0100000000000000000000000000000000000000000000000000000000028152600401600060405180830381600087803b1580156114ed57600080fd5b505af1158015611501573d6000803e3d6000fd5b505050506040513d6000823e3d601f19601f82011682018060405250602081101561152b57600080fd5b81019080805164010000000081111561154357600080fd5b8281019050602081018481111561155957600080fd5b815185602082028301116401000000008211171561157657600080fd5b505092919050505097508973ffffffffffffffffffffffffffffffffffffffff1663027aa9f56040518163ffffffff167c0100000000000000000000000000000000000000000000000000000000028152600401600060405180830381600087803b1580156115e457600080fd5b505af11580156115f8573d6000803e3d6000fd5b505050506040513d6000823e3d601f19601f82011682018060405250602081101561162257600080fd5b81019080805164010000000081111561163a57600080fd5b8281019050602081018481111561165057600080fd5b815185602082028301116401000000008211171561166d57600080fd5b50509291905050509650600095505b87518661ffff161015611da357878661ffff1681518110151561169b57fe5b906020019060200201519450868661ffff168151811015156116b957fe5b90602001906020020151935061176e848b73ffffffffffffffffffffffffffffffffffffffff166342a7cfd56040518163ffffffff167c0100000000000000000000000000000000000000000000000000000000028152600401602060405180830381600087803b15801561172d57600080fd5b505af1158015611741573d6000803e3d6000fd5b505050506040513d602081101561175757600080fd5b81019080805190602001909291905050508b61144d565b9250600060020160009054906101000a900473ffffffffffffffffffffffffffffffffffffffff1673ffffffffffffffffffffffffffffffffffffffff16631f98ade38c876040518363ffffffff167c0100000000000000000000000000000000000000000000000000000000028152600401808373ffffffffffffffffffffffffffffffffffffffff1673ffffffffffffffffffffffffffffffffffffffff1681526020018273ffffffffffffffffffffffffffffffffffffffff1673ffffffffffffffffffffffffffffffffffffffff16815260200192505050602060405180830381600087803b15801561186457600080fd5b505af1158015611878573d6000803e3d6000fd5b505050506040513d602081101561188e57600080fd5b8101908080519060200190929190505050915082821015156119c357600060020160009054906101000a900473ffffffffffffffffffffffffffffffffffffffff1673ffffffffffffffffffffffffffffffffffffffff166380ddda308c87866040518463ffffffff167c0100000000000000000000000000000000000000000000000000000000028152600401808473ffffffffffffffffffffffffffffffffffffffff1673ffffffffffffffffffffffffffffffffffffffff1681526020018373ffffffffffffffffffffffffffffffffffffffff1673ffffffffffffffffffffffffffffffffffffffff1681526020018281526020019350505050600060405180830381600087803b1580156119a657600080fd5b505af11580156119ba573d6000803e3d6000fd5b50505050611c82565b6000821115611ae157600060020160009054906101000a900473ffffffffffffffffffffffffffffffffffffffff1673ffffffffffffffffffffffffffffffffffffffff166380ddda308c87856040518463ffffffff167c0100000000000000000000000000000000000000000000000000000000028152600401808473ffffffffffffffffffffffffffffffffffffffff1673ffffffffffffffffffffffffffffffffffffffff1681526020018373ffffffffffffffffffffffffffffffffffffffff1673ffffffffffffffffffffffffffffffffffffffff1681526020018281526020019350505050600060405180830381600087803b158015611ac857600080fd5b505af1158015611adc573d6000803e3d6000fd5b505050505b611af48284611eb990919063ffffffff16565b9050600060010160009054906101000a900473ffffffffffffffffffffffffffffffffffffffff1673ffffffffffffffffffffffffffffffffffffffff166303ee22958c87611b4c8688611eb990919063ffffffff16565b6040518463ffffffff167c0100000000000000000000000000000000000000000000000000000000028152600401808473ffffffffffffffffffffffffffffffffffffffff1673ffffffffffffffffffffffffffffffffffffffff1681526020018373ffffffffffffffffffffffffffffffffffffffff1673ffffffffffffffffffffffffffffffffffffffff1681526020018281526020019350505050600060405180830381600087803b158015611c0457600080fd5b505af1158015611c18573d6000803e3d6000fd5b505050508473ffffffffffffffffffffffffffffffffffffffff168a73ffffffffffffffffffffffffffffffffffffffff167fced8518610cf00c97309551834addd978c595341eda2066dbd52f9e990489573836040518082815260200191505060405180910390a35b600060020160009054906101000a900473ffffffffffffffffffffffffffffffffffffffff1673ffffffffffffffffffffffffffffffffffffffff1663bada57268b87866040518463ffffffff167c0100000000000000000000000000000000000000000000000000000000028152600401808473ffffffffffffffffffffffffffffffffffffffff1673ffffffffffffffffffffffffffffffffffffffff1681526020018373ffffffffffffffffffffffffffffffffffffffff1673ffffffffffffffffffffffffffffffffffffffff1681526020018281526020019350505050600060405180830381600087803b158015611d7e57600080fd5b505af1158015611d92573d6000803e3d6000fd5b50505050858060010196505061167c565b8973ffffffffffffffffffffffffffffffffffffffff166340c10f198c8b6040518363ffffffff167c0100000000000000000000000000000000000000000000000000000000028152600401808373ffffffffffffffffffffffffffffffffffffffff1673ffffffffffffffffffffffffffffffffffffffff16815260200182815260200192505050600060405180830381600087803b158015611e4657600080fd5b505af1158015611e5a573d6000803e3d6000fd5b505050505050505050505050505050565b60008183811515611e7857fe5b04905092915050565b600080831415611e945760009050611eb3565b8183029050818382811515611ea557fe5b04141515611eaf57fe5b8090505b92915050565b6000828211151515611ec757fe5b8183039050929150505600a165627a7a723058205b6259574f07feb246edb1ad2e9108735a81ca495a44899f8593fcb71a7f08510029",
  "source": "/*\n    Copyright 2018 Set Labs Inc.\n\n    Licensed under the Apache License, Version 2.0 (the \"License\");\n    you may not use this file except in compliance with the License.\n    You may obtain a copy of the License at\n\n    http://www.apache.org/licenses/LICENSE-2.0\n\n    Unless required by applicable law or agreed to in writing, software\n    distributed under the License is distributed on an \"AS IS\" BASIS,\n    WITHOUT WARRANTIES OR CONDITIONS OF ANY KIND, either express or implied.\n    See the License for the specific language governing permissions and\n    limitations under the License.\n*/\n\npragma solidity 0.4.24;\n\nimport { SafeMath } from \"zeppelin-solidity/contracts/math/SafeMath.sol\";\nimport { CoreModifiers } from \"../lib/CoreSharedModifiers.sol\";\nimport { CoreState } from \"../lib/CoreState.sol\";\nimport { ISetToken } from \"../interfaces/ISetToken.sol\";\nimport { ITransferProxy } from \"../interfaces/ITransferProxy.sol\";\nimport { IVault } from \"../interfaces/IVault.sol\";\n\n\n/**\n * @title Core Issuance\n * @author Set Protocol\n *\n * The CoreIssuance contract contains public set token operations\n */\ncontract CoreIssuance is\n    CoreState,\n    CoreModifiers\n{\n    // Use SafeMath library for all uint256 arithmetic\n    using SafeMath for uint256;\n\n    /* ============ Events ============ */\n\n    event IssuanceComponentDeposited(\n        address indexed _setToken,\n        address indexed _component,\n        uint _quantity\n    );\n\n    /* ============ Public Functions ============ */\n\n    /**\n     * Exchanges components for Set Tokens\n     *\n     * @param  _setAddress   Address of set to issue\n     * @param  _quantity     Quantity of set to issue\n     */\n    function issue(\n        address _setAddress,\n        uint _quantity\n    )\n        external\n        isValidSet(_setAddress)\n        isPositiveQuantity(_quantity)\n        isNaturalUnitMultiple(_quantity, _setAddress)\n    {\n        // Run issueInternal\n        issueInternal(msg.sender, _setAddress, _quantity);\n    }\n\n    /**\n     * Function to convert Set Tokens into underlying components\n     *\n     * @param _setAddress   The address of the Set token\n     * @param _quantity     The number of tokens to redeem\n     */\n    function redeem(\n        address _setAddress,\n        uint _quantity\n    )\n        external\n        isValidSet(_setAddress)\n        isPositiveQuantity(_quantity)\n        isNaturalUnitMultiple(_quantity, _setAddress)\n    {\n        // Burn the Set token (thereby decrementing the SetToken balance)\n        ISetToken(_setAddress).burn(msg.sender, _quantity);\n\n        uint naturalUnit = ISetToken(_setAddress).naturalUnit();\n\n        // Transfer the underlying tokens to the corresponding token balances\n        address[] memory components = ISetToken(_setAddress).getComponents();\n        uint[] memory units = ISetToken(_setAddress).getUnits();\n        for (uint16 i = 0; i < components.length; i++) {\n            address currentComponent = components[i];\n            uint currentUnit = units[i];\n\n            uint tokenValue = calculateTransferValue(\n                currentUnit,\n                naturalUnit,\n                _quantity\n            );\n\n            // Decrement the Set amount\n            IVault(state.vaultAddress).decrementTokenOwner(\n                _setAddress,\n                currentComponent,\n                tokenValue\n            );\n\n            // Increment the component amount\n            IVault(state.vaultAddress).incrementTokenOwner(\n                msg.sender,\n                currentComponent,\n                tokenValue\n            );\n        }\n    }\n\n    /* ============ Private Functions ============ */\n\n    /**\n     * Function to calculate the transfer value of a component given quantity of Set\n     *\n     * @param _componentUnits   The units of the component token\n     * @param _naturalUnit      The natural unit of the Set token\n     * @param _quantity         The number of tokens being redeem\n     */\n    function calculateTransferValue(\n        uint _componentUnits,\n        uint _naturalUnit,\n        uint _quantity\n    )\n        pure\n        internal\n        returns(uint)\n    {\n        return _quantity.div(_naturalUnit).mul(_componentUnits);\n    }\n\n    /* ============ Internal Functions ============ */\n\n    /**\n     * Exchanges components for Set Tokens, accepting any owner\n     *\n     * @param  _owner        Address to issue set to\n     * @param  _setAddress   Address of set to issue\n     * @param  _quantity     Quantity of set to issue\n     */\n    function issueInternal(\n        address _owner,\n        address _setAddress,\n        uint _quantity\n    )\n        internal\n    {\n        // Fetch set token components\n        address[] memory components = ISetToken(_setAddress).getComponents();\n        // Fetch set token component units\n        uint[] memory units = ISetToken(_setAddress).getUnits();\n\n        // Inspect vault for required component quantity\n        for (uint16 i = 0; i < components.length; i++) {\n            address component = components[i];\n            uint unit = units[i];\n\n            // Calculate required component quantity\n            uint requiredComponentQuantity = calculateTransferValue(\n                unit,\n                ISetToken(_setAddress).naturalUnit(),\n                _quantity\n            );\n\n            // Fetch component quantity in vault\n            uint vaultBalance = IVault(state.vaultAddress).getOwnerBalance(_owner, component);\n            if (vaultBalance >= requiredComponentQuantity) {\n                // Decrement vault balance by the required component quantity\n                IVault(state.vaultAddress).decrementTokenOwner(\n                    _owner,\n                    component,\n                    requiredComponentQuantity\n                );\n            } else {\n                // User has less than required amount, decrement the vault by full balance\n                if (vaultBalance > 0) {\n                    IVault(state.vaultAddress).decrementTokenOwner(\n                        _owner,\n                        component,\n                        vaultBalance\n                    );\n                }\n\n                // Calculate remainder to deposit\n                uint amountToDeposit = requiredComponentQuantity.sub(vaultBalance);\n\n                // Transfer the remainder component quantity required to vault\n                ITransferProxy(state.transferProxyAddress).transferToVault(\n                    _owner,\n                    component,\n                    requiredComponentQuantity.sub(vaultBalance)\n                );\n\n                // Log transfer of component from issuer waller\n                emit IssuanceComponentDeposited(\n                    _setAddress,\n                    component,\n                    amountToDeposit\n                );\n            }\n\n            // Increment the vault balance of the set token for the component\n            IVault(state.vaultAddress).incrementTokenOwner(\n                _setAddress,\n                component,\n                requiredComponentQuantity\n            );\n        }\n\n        // Issue set token\n        ISetToken(_setAddress).mint(_owner, _quantity);\n    }\n}\n",
  "sourcePath": "/Users/justinkchen/workspace/set-protocol-contracts/contracts/core/extensions/CoreIssuance.sol",
  "compiler": {
    "name": "solc",
    "version": "0.4.24+commit.e67f0147.Emscripten.clang"
  },
  "schemaVersion": "2.0.0",
  "updatedAt": "2018-07-07T07:45:08.897Z"
}