{
  "contractName": "Core",
  "abi": [
    {
      "constant": true,
      "inputs": [
        {
          "name": "_factory",
          "type": "address"
        }
      ],
      "name": "validFactories",
      "outputs": [
        {
          "name": "",
          "type": "bool"
        }
      ],
      "payable": false,
      "stateMutability": "view",
      "type": "function"
    },
    {
      "constant": false,
      "inputs": [
        {
          "name": "_transferProxyAddress",
          "type": "address"
        }
      ],
      "name": "setTransferProxyAddress",
      "outputs": [],
      "payable": false,
      "stateMutability": "nonpayable",
      "type": "function"
    },
    {
      "constant": false,
      "inputs": [
        {
          "name": "_factoryAddress",
          "type": "address"
        }
      ],
      "name": "disableFactory",
      "outputs": [],
      "payable": false,
      "stateMutability": "nonpayable",
      "type": "function"
    },
    {
      "constant": true,
      "inputs": [
        {
          "name": "_orderHash",
          "type": "bytes32"
        }
      ],
      "name": "orderCancels",
      "outputs": [
        {
          "name": "",
          "type": "uint256"
        }
      ],
      "payable": false,
      "stateMutability": "view",
      "type": "function"
    },
    {
      "constant": false,
      "inputs": [
        {
          "name": "_setAddress",
          "type": "address"
        },
        {
          "name": "_quantity",
          "type": "uint256"
        }
      ],
      "name": "redeem",
      "outputs": [],
      "payable": false,
      "stateMutability": "nonpayable",
      "type": "function"
    },
    {
      "constant": false,
      "inputs": [
        {
          "name": "_tokenAddresses",
          "type": "address[]"
        },
        {
          "name": "_quantities",
          "type": "uint256[]"
        }
      ],
      "name": "batchDeposit",
      "outputs": [],
      "payable": false,
      "stateMutability": "nonpayable",
      "type": "function"
    },
    {
      "constant": false,
      "inputs": [
        {
          "name": "_exchangeId",
          "type": "uint8"
        },
        {
          "name": "_exchange",
          "type": "address"
        }
      ],
      "name": "registerExchange",
      "outputs": [],
      "payable": false,
      "stateMutability": "nonpayable",
      "type": "function"
    },
    {
      "constant": true,
      "inputs": [],
      "name": "vaultAddress",
      "outputs": [
        {
          "name": "",
          "type": "address"
        }
      ],
      "payable": false,
      "stateMutability": "view",
      "type": "function"
    },
    {
      "constant": false,
      "inputs": [
        {
          "name": "_tokenAddress",
          "type": "address"
        },
        {
          "name": "_quantity",
          "type": "uint256"
        }
      ],
      "name": "deposit",
      "outputs": [],
      "payable": false,
      "stateMutability": "nonpayable",
      "type": "function"
    },
    {
      "constant": false,
      "inputs": [
        {
          "name": "_factoryAddress",
          "type": "address"
        },
        {
          "name": "_components",
          "type": "address[]"
        },
        {
          "name": "_units",
          "type": "uint256[]"
        },
        {
          "name": "_naturalUnit",
          "type": "uint256"
        },
        {
          "name": "_name",
          "type": "string"
        },
        {
          "name": "_symbol",
          "type": "string"
        }
      ],
      "name": "create",
      "outputs": [
        {
          "name": "",
          "type": "address"
        }
      ],
      "payable": false,
      "stateMutability": "nonpayable",
      "type": "function"
    },
    {
      "constant": true,
      "inputs": [],
      "name": "setTokens",
      "outputs": [
        {
          "name": "",
          "type": "address[]"
        }
      ],
      "payable": false,
      "stateMutability": "view",
      "type": "function"
    },
    {
      "constant": false,
      "inputs": [
        {
          "name": "_addresses",
          "type": "address[5]"
        },
        {
          "name": "_values",
          "type": "uint256[5]"
        },
        {
          "name": "_requiredComponents",
          "type": "address[]"
        },
        {
          "name": "_requiredComponentAmounts",
          "type": "uint256[]"
        },
        {
          "name": "_fillQuantity",
          "type": "uint256"
        },
        {
          "name": "_v",
          "type": "uint8"
        },
        {
          "name": "sigBytes",
          "type": "bytes32[]"
        },
        {
          "name": "_orderData",
          "type": "bytes"
        }
      ],
      "name": "fillOrder",
      "outputs": [],
      "payable": false,
      "stateMutability": "nonpayable",
      "type": "function"
    },
    {
      "constant": false,
      "inputs": [],
      "name": "renounceOwnership",
      "outputs": [],
      "payable": false,
      "stateMutability": "nonpayable",
      "type": "function"
    },
    {
      "constant": false,
      "inputs": [
        {
          "name": "_setAddress",
          "type": "address"
        }
      ],
      "name": "disableSet",
      "outputs": [],
      "payable": false,
      "stateMutability": "nonpayable",
      "type": "function"
    },
    {
      "constant": false,
      "inputs": [
        {
          "name": "_vaultAddress",
          "type": "address"
        }
      ],
      "name": "setVaultAddress",
      "outputs": [],
      "payable": false,
      "stateMutability": "nonpayable",
      "type": "function"
    },
    {
      "constant": false,
      "inputs": [
        {
          "name": "_setAddress",
          "type": "address"
        },
        {
          "name": "_quantity",
          "type": "uint256"
        }
      ],
      "name": "issue",
      "outputs": [],
      "payable": false,
      "stateMutability": "nonpayable",
      "type": "function"
    },
    {
      "constant": true,
      "inputs": [],
      "name": "transferProxyAddress",
      "outputs": [
        {
          "name": "",
          "type": "address"
        }
      ],
      "payable": false,
      "stateMutability": "view",
      "type": "function"
    },
    {
      "constant": true,
      "inputs": [],
      "name": "owner",
      "outputs": [
        {
          "name": "",
          "type": "address"
        }
      ],
      "payable": false,
      "stateMutability": "view",
      "type": "function"
    },
    {
      "constant": false,
      "inputs": [
        {
          "name": "_factoryAddress",
          "type": "address"
        }
      ],
      "name": "enableFactory",
      "outputs": [],
      "payable": false,
      "stateMutability": "nonpayable",
      "type": "function"
    },
    {
      "constant": true,
      "inputs": [
        {
          "name": "_exchangeId",
          "type": "uint8"
        }
      ],
      "name": "exchanges",
      "outputs": [
        {
          "name": "",
          "type": "address"
        }
      ],
      "payable": false,
      "stateMutability": "view",
      "type": "function"
    },
    {
      "constant": false,
      "inputs": [
        {
          "name": "_setAddress",
          "type": "address"
        },
        {
          "name": "_quantity",
          "type": "uint256"
        },
        {
          "name": "_toWithdraw",
          "type": "uint256"
        }
      ],
      "name": "redeemAndWithdraw",
      "outputs": [],
      "payable": false,
      "stateMutability": "nonpayable",
      "type": "function"
    },
    {
      "constant": true,
      "inputs": [],
      "name": "state",
      "outputs": [
        {
          "name": "transferProxyAddress",
          "type": "address"
        },
        {
          "name": "vaultAddress",
          "type": "address"
        }
      ],
      "payable": false,
      "stateMutability": "view",
      "type": "function"
    },
    {
      "constant": false,
      "inputs": [
        {
          "name": "_addresses",
          "type": "address[5]"
        },
        {
          "name": "_values",
          "type": "uint256[5]"
        },
        {
          "name": "_requiredComponents",
          "type": "address[]"
        },
        {
          "name": "_requiredComponentAmounts",
          "type": "uint256[]"
        },
        {
          "name": "_cancelQuantity",
          "type": "uint256"
        }
      ],
      "name": "cancelOrder",
      "outputs": [],
      "payable": false,
      "stateMutability": "nonpayable",
      "type": "function"
    },
    {
      "constant": false,
      "inputs": [
        {
          "name": "_tokenAddresses",
          "type": "address[]"
        },
        {
          "name": "_quantities",
          "type": "uint256[]"
        }
      ],
      "name": "batchWithdraw",
      "outputs": [],
      "payable": false,
      "stateMutability": "nonpayable",
      "type": "function"
    },
    {
      "constant": false,
      "inputs": [
        {
          "name": "_newOwner",
          "type": "address"
        }
      ],
      "name": "transferOwnership",
      "outputs": [],
      "payable": false,
      "stateMutability": "nonpayable",
      "type": "function"
    },
    {
      "constant": false,
      "inputs": [
        {
          "name": "_tokenAddress",
          "type": "address"
        },
        {
          "name": "_quantity",
          "type": "uint256"
        }
      ],
      "name": "withdraw",
      "outputs": [],
      "payable": false,
      "stateMutability": "nonpayable",
      "type": "function"
    },
    {
      "constant": true,
      "inputs": [
        {
          "name": "_orderHash",
          "type": "bytes32"
        }
      ],
      "name": "orderFills",
      "outputs": [
        {
          "name": "",
          "type": "uint256"
        }
      ],
      "payable": false,
      "stateMutability": "view",
      "type": "function"
    },
    {
      "constant": true,
      "inputs": [],
      "name": "factories",
      "outputs": [
        {
          "name": "",
          "type": "address[]"
        }
      ],
      "payable": false,
      "stateMutability": "view",
      "type": "function"
    },
    {
      "constant": true,
      "inputs": [
        {
          "name": "_set",
          "type": "address"
        }
      ],
      "name": "validSets",
      "outputs": [
        {
          "name": "",
          "type": "bool"
        }
      ],
      "payable": false,
      "stateMutability": "view",
      "type": "function"
    },
    {
      "anonymous": false,
      "inputs": [
        {
          "indexed": true,
          "name": "_setToken",
          "type": "address"
        },
        {
          "indexed": true,
          "name": "_component",
          "type": "address"
        },
        {
          "indexed": false,
          "name": "_quantity",
          "type": "uint256"
        }
      ],
      "name": "IssuanceComponentDeposited",
      "type": "event"
    },
    {
      "anonymous": false,
      "inputs": [
        {
          "indexed": true,
          "name": "_setTokenAddress",
          "type": "address"
        },
        {
          "indexed": false,
          "name": "_factoryAddress",
          "type": "address"
        },
        {
          "indexed": false,
          "name": "_components",
          "type": "address[]"
        },
        {
          "indexed": false,
          "name": "_units",
          "type": "uint256[]"
        },
        {
          "indexed": false,
          "name": "_naturalUnit",
          "type": "uint256"
        },
        {
          "indexed": false,
          "name": "_name",
          "type": "string"
        },
        {
          "indexed": false,
          "name": "_symbol",
          "type": "string"
        }
      ],
      "name": "SetTokenCreated",
      "type": "event"
    },
    {
      "anonymous": false,
      "inputs": [
        {
          "indexed": false,
          "name": "_exchangeId",
          "type": "uint8"
        },
        {
          "indexed": false,
          "name": "_exchange",
          "type": "address"
        }
      ],
      "name": "ExchangeRegistered",
      "type": "event"
    },
    {
      "anonymous": false,
      "inputs": [
        {
          "indexed": true,
          "name": "previousOwner",
          "type": "address"
        }
      ],
      "name": "OwnershipRenounced",
      "type": "event"
    },
    {
      "anonymous": false,
      "inputs": [
        {
          "indexed": true,
          "name": "previousOwner",
          "type": "address"
        },
        {
          "indexed": true,
          "name": "newOwner",
          "type": "address"
        }
      ],
      "name": "OwnershipTransferred",
      "type": "event"
    }
  ],
  "bytecode": "0x608060405260008054600160a060020a03191633179055615bab806100256000396000f3006080604052600436106101745763ffffffff7c01000000000000000000000000000000000000000000000000000000006000350416630e4355d48114610179578063124cfd78146101bb5780631a1f2b3e146101eb5780631e912bd6146102195780631e9a69501461024357806330a90736146102745780633e3d13b2146102a0578063430bf08a146102d457806347e7ef24146103125780635290444914610343578063559ed339146103a55780635a3bd39e1461040a578063715018a61461046357806377274ff01461047857806385535cc5146104a6578063867904b4146104d45780638ca4daf9146105055780638da5cb5b1461051a5780639f80ee881461052f578063a003e0691461055d578063ac842c6614610578578063c19d93fb146105ac578063c57a445b146105f4578063e131243e1461062a578063f2fde38b14610656578063f3fef3a314610684578063f7213db6146106b5578063fe5b38e4146106cd578063fef3ee73146106e2575b600080fd5b34801561018557600080fd5b506101a773ffffffffffffffffffffffffffffffffffffffff60043516610710565b604080519115158252519081900360200190f35b3480156101c757600080fd5b506101e973ffffffffffffffffffffffffffffffffffffffff6004351661073b565b005b3480156101f757600080fd5b506101e973ffffffffffffffffffffffffffffffffffffffff600435166107a6565b34801561022557600080fd5b50610231600435610a5e565b60408051918252519081900360200190f35b34801561024f57600080fd5b506101e973ffffffffffffffffffffffffffffffffffffffff60043516602435610a70565b34801561028057600080fd5b506101e960246004803582810192908201359181359182019101356112bf565b3480156102ac57600080fd5b506101e960ff6004351673ffffffffffffffffffffffffffffffffffffffff6024351661158d565b3480156102e057600080fd5b506102e9611641565b6040805173ffffffffffffffffffffffffffffffffffffffff9092168252519081900360200190f35b34801561031e57600080fd5b506101e973ffffffffffffffffffffffffffffffffffffffff6004351660243561165e565b34801561034f57600080fd5b506102e96004803573ffffffffffffffffffffffffffffffffffffffff1690602480358082019290810135916044358082019290810135916064359160843580830192908201359160a435918201910135611860565b3480156103b157600080fd5b506103ba611c62565b60408051602080825283518183015283519192839290830191858101910280838360005b838110156103f65781810151838201526020016103de565b505050509050019250505060405180910390f35b34801561041657600080fd5b506101e9600460a461014435602481810191840135906101643580820191908601359061018435906101a43560ff16906101c43580820191908a0135906101e435908101908b0135611cd4565b34801561046f57600080fd5b506101e96120bc565b34801561048457600080fd5b506101e973ffffffffffffffffffffffffffffffffffffffff6004351661214d565b3480156104b257600080fd5b506101e973ffffffffffffffffffffffffffffffffffffffff600435166123be565b3480156104e057600080fd5b506101e973ffffffffffffffffffffffffffffffffffffffff60043516602435612429565b34801561051157600080fd5b506102e961275c565b34801561052657600080fd5b506102e9612778565b34801561053b57600080fd5b506101e973ffffffffffffffffffffffffffffffffffffffff60043516612794565b34801561056957600080fd5b506102e960ff60043516612861565b34801561058457600080fd5b506101e973ffffffffffffffffffffffffffffffffffffffff6004351660243560443561288c565b3480156105b857600080fd5b506105c16131f0565b6040805173ffffffffffffffffffffffffffffffffffffffff938416815291909216602082015281519081900390910190f35b34801561060057600080fd5b506101e9600460a46101443560248181019184013590610164359081019085013561018435613213565b34801561063657600080fd5b506101e960246004803582810192908201359181359182019101356136dc565b34801561066257600080fd5b506101e973ffffffffffffffffffffffffffffffffffffffff600435166139a1565b34801561069057600080fd5b506101e973ffffffffffffffffffffffffffffffffffffffff600435166024356139d1565b3480156106c157600080fd5b50610231600435613aff565b3480156106d957600080fd5b506103ba613b11565b3480156106ee57600080fd5b506101a773ffffffffffffffffffffffffffffffffffffffff60043516613b81565b73ffffffffffffffffffffffffffffffffffffffff1660009081526004602052604090205460ff1690565b60005473ffffffffffffffffffffffffffffffffffffffff16331461075f57600080fd5b600280547fffffffffffffffffffffffff00000000000000000000000000000000000000001673ffffffffffffffffffffffffffffffffffffffff92909216919091179055565b6000805473ffffffffffffffffffffffffffffffffffffffff1633146107cb57600080fd5b73ffffffffffffffffffffffffffffffffffffffff8216600090815260046020908152604091829020548251606081018452602681527f466163746f72792069732064697361626c6564206f7220646f6573206e6f7420928101929092527f65786973742e000000000000000000000000000000000000000000000000000092820192909252839160ff1615156108fa576040517f08c379a00000000000000000000000000000000000000000000000000000000081526004018080602001828103825283818151815260200191508051906020019080838360005b838110156108bf5781810151838201526020016108a7565b50505050905090810190601f1680156108ec5780820380516001836020036101000a031916815260200191505b509250505060405180910390fd5b5073ffffffffffffffffffffffffffffffffffffffff8316600090815260046020526040812080547fffffffffffffffffffffffffffffffffffffffffffffffffffffffffffffff0016905591505b600554821015610a59576005805473ffffffffffffffffffffffffffffffffffffffff851691908490811061097a57fe5b60009182526020909120015473ffffffffffffffffffffffffffffffffffffffff161415610a4e576005805460001981019081106109b457fe5b6000918252602090912001546005805473ffffffffffffffffffffffffffffffffffffffff90921691849081106109e757fe5b600091825260209091200180547fffffffffffffffffffffffff00000000000000000000000000000000000000001673ffffffffffffffffffffffffffffffffffffffff92909216919091179055600580546000190190610a489082615a3c565b50610a59565b600190910190610949565b505050565b60009081526009602052604090205490565b73ffffffffffffffffffffffffffffffffffffffff8216600090815260066020908152604080832054815160608181018452602882527f53657420746f6b656e2069732064697361626c6564206f7220646f6573206e6f948201949094527f742065786973742e00000000000000000000000000000000000000000000000092810192909252829184918291829189919060ff161515610b6c576040517f08c379a0000000000000000000000000000000000000000000000000000000008152600401808060200182810382528381815181526020019150805190602001908083836000838110156108bf5781810151838201526020016108a7565b5060408051606081018252602381527f5175616e74697479206d7573742062652067726561746572207468616e207a6560208201527f726f2e000000000000000000000000000000000000000000000000000000000091810191909152889060008211610c35576040517f08c379a0000000000000000000000000000000000000000000000000000000008152600401808060200182810382528381815181526020019150805190602001908083836000838110156108bf5781810151838201526020016108a7565b50888a8073ffffffffffffffffffffffffffffffffffffffff166342a7cfd56040518163ffffffff167c0100000000000000000000000000000000000000000000000000000000028152600401602060405180830381600087803b158015610c9c57600080fd5b505af1158015610cb0573d6000803e3d6000fd5b505050506040513d6020811015610cc657600080fd5b505182811515610cd257fe5b60408051606081018252603981527f5175616e74697479206d757374206265206d756c7469706c65206f662074686560208201527f206e61747572616c20756e6974206f6620746865207365742e000000000000009181019190915291900615610d98576040517f08c379a0000000000000000000000000000000000000000000000000000000008152600401808060200182810382528381815181526020019150805190602001908083836000838110156108bf5781810151838201526020016108a7565b50604080517f9dc29fac000000000000000000000000000000000000000000000000000000008152336004820152602481018d9052905173ffffffffffffffffffffffffffffffffffffffff8e1691639dc29fac91604480830192600092919082900301818387803b158015610e0d57600080fd5b505af1158015610e21573d6000803e3d6000fd5b505050508b73ffffffffffffffffffffffffffffffffffffffff166342a7cfd56040518163ffffffff167c0100000000000000000000000000000000000000000000000000000000028152600401602060405180830381600087803b158015610e8957600080fd5b505af1158015610e9d573d6000803e3d6000fd5b505050506040513d6020811015610eb357600080fd5b5051604080517f99d50d5d0000000000000000000000000000000000000000000000000000000081529051919b5073ffffffffffffffffffffffffffffffffffffffff8e16916399d50d5d9160048082019260009290919082900301818387803b158015610f2057600080fd5b505af1158015610f34573d6000803e3d6000fd5b505050506040513d6000823e601f3d908101601f191682016040526020811015610f5d57600080fd5b810190808051640100000000811115610f7557600080fd5b82016020810184811115610f8857600080fd5b8151856020820283011164010000000082111715610fa557600080fd5b505092919050505098508b73ffffffffffffffffffffffffffffffffffffffff1663027aa9f56040518163ffffffff167c0100000000000000000000000000000000000000000000000000000000028152600401600060405180830381600087803b15801561101357600080fd5b505af1158015611027573d6000803e3d6000fd5b505050506040513d6000823e601f3d908101601f19168201604052602081101561105057600080fd5b81019080805164010000000081111561106857600080fd5b8201602081018481111561107b57600080fd5b815185602082028301116401000000008211171561109857600080fd5b50909b5060009a50505050505b88518761ffff1610156112b157888761ffff168151811015156110c457fe5b9060200190602002015195506110f6888861ffff168151811015156110e557fe5b906020019060200201518b8d613bac565b9450600160020160009054906101000a900473ffffffffffffffffffffffffffffffffffffffff1673ffffffffffffffffffffffffffffffffffffffff166380ddda308d88886040518463ffffffff167c0100000000000000000000000000000000000000000000000000000000028152600401808473ffffffffffffffffffffffffffffffffffffffff1673ffffffffffffffffffffffffffffffffffffffff1681526020018373ffffffffffffffffffffffffffffffffffffffff1673ffffffffffffffffffffffffffffffffffffffff1681526020018281526020019350505050600060405180830381600087803b1580156111f457600080fd5b505af1158015611208573d6000803e3d6000fd5b5050600354604080517fbada572600000000000000000000000000000000000000000000000000000000815233600482015273ffffffffffffffffffffffffffffffffffffffff8b81166024830152604482018b9052915191909216935063bada57269250606480830192600092919082900301818387803b15801561128d57600080fd5b505af11580156112a1573d6000803e3d6000fd5b5050600190980197506110a59050565b505050505050505050505050565b60008484808060200260200160405190810160405280939291908181526020018383602002808284375050604080516020808a0282810182019093528982529095508994508893508392508501908490808284375050855160408051808201909152601c81527f416464726573736573206d757374206e6f7420626520656d7074792e000000006020820152945060001092506113bb915050576040517f08c379a0000000000000000000000000000000000000000000000000000000008152600401808060200182810382528381815181526020019150805190602001908083836000838110156108bf5781810151838201526020016108a7565b50805160408051808201909152601d81527f5175616e746974696573206d757374206e6f7420626520656d7074792e00000060208201529060001061145c576040517f08c379a0000000000000000000000000000000000000000000000000000000008152600401808060200182810382528381815181526020019150805190602001908083836000838110156108bf5781810151838201526020016108a7565b508051825160408051606081018252603181527f41646472657373657320616e64207175616e746974696573206d75737420626560208201527f207468652073616d65206c656e6774682e000000000000000000000000000000918101919091529114611525576040517f08c379a0000000000000000000000000000000000000000000000000000000008152600401808060200182810382528381815181526020019150805190602001908083836000838110156108bf5781810151838201526020016108a7565b50600092505b858310156115845761157987878581811061154257fe5b9050602002013573ffffffffffffffffffffffffffffffffffffffff16868686818110151561156d57fe5b9050602002013561165e565b60019092019161152b565b50505050505050565b60005473ffffffffffffffffffffffffffffffffffffffff1633146115b157600080fd5b60ff821660008181526001602090815260409182902080547fffffffffffffffffffffffff00000000000000000000000000000000000000001673ffffffffffffffffffffffffffffffffffffffff861690811790915582519384529083015280517feee2c0570205f21356a5108d71a4d6e7151682b92a84c761fca82cac87275c289281900390910190a15050565b60035473ffffffffffffffffffffffffffffffffffffffff165b90565b60408051606081018252602381527f5175616e74697479206d7573742062652067726561746572207468616e207a6560208201527f726f2e000000000000000000000000000000000000000000000000000000000091810191909152819060008211611726576040517f08c379a0000000000000000000000000000000000000000000000000000000008152600401808060200182810382528381815181526020019150805190602001908083836000838110156108bf5781810151838201526020016108a7565b50600254600354604080517fa6c4e46700000000000000000000000000000000000000000000000000000000815273ffffffffffffffffffffffffffffffffffffffff87811660048301526024820187905233604483015292831660648201529051919092169163a6c4e46791608480830192600092919082900301818387803b1580156117b357600080fd5b505af11580156117c7573d6000803e3d6000fd5b5050600354604080517fbada572600000000000000000000000000000000000000000000000000000000815233600482015273ffffffffffffffffffffffffffffffffffffffff888116602483015260448201889052915191909216935063bada57269250606480830192600092919082900301818387803b15801561184c57600080fd5b505af1158015611584573d6000803e3d6000fd5b73ffffffffffffffffffffffffffffffffffffffff8a166000908152600460209081526040808320548151606081018352602681527f466163746f72792069732064697361626c6564206f7220646f6573206e6f7420938101939093527f65786973742e00000000000000000000000000000000000000000000000000009183019190915282918d9160ff161515611954576040517f08c379a0000000000000000000000000000000000000000000000000000000008152600401808060200182810382528381815181526020019150805190602001908083836000838110156108bf5781810151838201526020016108a7565b508c73ffffffffffffffffffffffffffffffffffffffff1663110a25c28d8d8d8d8d8d8d8d8d6040518a63ffffffff167c0100000000000000000000000000000000000000000000000000000000028152600401808060200180602001888152602001806020018060200185810385528e8e8281815260200192506020028082843790910186810385528c8152602090810191508d908d0280828437909101868103845289815260200190508989808284379091018681038352878152602001905087878082843782019150509d5050505050505050505050505050602060405180830381600087803b158015611a4a57600080fd5b505af1158015611a5e573d6000803e3d6000fd5b505050506040513d6020811015611a7457600080fd5b8101908080519060200190929190505050915060018060050160008473ffffffffffffffffffffffffffffffffffffffff1673ffffffffffffffffffffffffffffffffffffffff16815260200190815260200160002060006101000a81548160ff02191690831515021790555060016006018290806001815401808255809150509060018203906000526020600020016000909192909190916101000a81548173ffffffffffffffffffffffffffffffffffffffff021916908373ffffffffffffffffffffffffffffffffffffffff160217905550508173ffffffffffffffffffffffffffffffffffffffff167f388b9bd51ec792eb7ce238581b3f844072709011b2a20260c428451e07d764a88e8e8e8e8e8e8e8e8e8e604051808b73ffffffffffffffffffffffffffffffffffffffff1673ffffffffffffffffffffffffffffffffffffffff1681526020018060200180602001888152602001806020018060200185810385528e8e8281815260200192506020028082843790910186810385528c8152602090810191508d908d0280828437909101868103845289815260200190508989808284379091018681038352878152602001905087878082843782019150509e50505050505050505050505050505060405180910390a2509b9a5050505050505050505050565b60606001600601805480602002602001604051908101604052809291908181526020018280548015611cca57602002820191906000526020600020905b815473ffffffffffffffffffffffffffffffffffffffff168152600190910190602001808311611c9f575b5050505050905090565b611cdc615a60565b604080516101a0810190915273ffffffffffffffffffffffffffffffffffffffff8e35168152602081018d6000602002013581526020018c8c8080602002602001604051908101604052809392919081815260200183836020028082843782019150505050505081526020018a8a808060200260200160405190810160405280939291908181526020018383602002808284375050509284525050602090910190508e6001602002013573ffffffffffffffffffffffffffffffffffffffff1673ffffffffffffffffffffffffffffffffffffffff1681526020018e6002600581101515611dc657fe5b602002013573ffffffffffffffffffffffffffffffffffffffff1673ffffffffffffffffffffffffffffffffffffffff1681526020018d6001600581101515611e0b57fe5b602090810291909101358252018d6002602090810291909101358252018e6003602002013573ffffffffffffffffffffffffffffffffffffffff1673ffffffffffffffffffffffffffffffffffffffff1681526020018e6004600581101515611e7057fe5b602002013573ffffffffffffffffffffffffffffffffffffffff1673ffffffffffffffffffffffffffffffffffffffff1681526020018d6003600581101515611eb557fe5b602090810291909101358252018d600460200201358152602001611f818f600580602002604051908101604052809291908260056020028082843782019150505050508f600580602002604051908101604052809291908260056020028082843782019150505050508f8f808060200260200160405190810160405280939291908181526020018383602002808284378201915050505050508e8e8080602002602001604051908101604052809392919081815260200183836020028082843750613bd6945050505050565b90526101808101516080820151919250611fca918888886000818110611fa357fe5b6020029190910135905089896001818110611fba57fe5b9050602002013560001916613e74565b60408051808201909152601881527f496e76616c6964206f72646572207369676e61747572652e00000000000000006020820152901515612067576040517f08c379a0000000000000000000000000000000000000000000000000000000008152600401808060200182810382528381815181526020019150805190602001908083836000838110156108bf5781810151838201526020016108a7565b506120728188613ff7565b6120ad818885858080601f0160208091040260200160405190810160405280939291908181526020018383808284375061460c945050505050565b50505050505050505050505050565b60005473ffffffffffffffffffffffffffffffffffffffff1633146120e057600080fd5b6000805460405173ffffffffffffffffffffffffffffffffffffffff909116917ff8df31144d9c2f0f6b59d69b8b98abd5459d07f2742c4df920b25aae33c6482091a2600080547fffffffffffffffffffffffff0000000000000000000000000000000000000000169055565b6000805473ffffffffffffffffffffffffffffffffffffffff16331461217257600080fd5b73ffffffffffffffffffffffffffffffffffffffff8216600090815260066020908152604091829020548251606081018452602881527f53657420746f6b656e2069732064697361626c6564206f7220646f6573206e6f928101929092527f742065786973742e00000000000000000000000000000000000000000000000092820192909252839160ff161515612265576040517f08c379a0000000000000000000000000000000000000000000000000000000008152600401808060200182810382528381815181526020019150805190602001908083836000838110156108bf5781810151838201526020016108a7565b5073ffffffffffffffffffffffffffffffffffffffff8316600090815260066020526040812080547fffffffffffffffffffffffffffffffffffffffffffffffffffffffffffffff0016905591505b600754821015610a59576007805473ffffffffffffffffffffffffffffffffffffffff85169190849081106122e557fe5b60009182526020909120015473ffffffffffffffffffffffffffffffffffffffff1614156123b35760078054600019810190811061231f57fe5b6000918252602090912001546007805473ffffffffffffffffffffffffffffffffffffffff909216918490811061235257fe5b600091825260209091200180547fffffffffffffffffffffffff00000000000000000000000000000000000000001673ffffffffffffffffffffffffffffffffffffffff92909216919091179055600780546000190190610a489082615a3c565b6001909101906122b4565b60005473ffffffffffffffffffffffffffffffffffffffff1633146123e257600080fd5b600380547fffffffffffffffffffffffff00000000000000000000000000000000000000001673ffffffffffffffffffffffffffffffffffffffff92909216919091179055565b73ffffffffffffffffffffffffffffffffffffffff8216600090815260066020908152604091829020548251606081018452602881527f53657420746f6b656e2069732064697361626c6564206f7220646f6573206e6f928101929092527f742065786973742e00000000000000000000000000000000000000000000000092820192909252839160ff16151561251c576040517f08c379a0000000000000000000000000000000000000000000000000000000008152600401808060200182810382528381815181526020019150805190602001908083836000838110156108bf5781810151838201526020016108a7565b5060408051606081018252602381527f5175616e74697479206d7573742062652067726561746572207468616e207a6560208201527f726f2e0000000000000000000000000000000000000000000000000000000000918101919091528290600082116125e5576040517f08c379a0000000000000000000000000000000000000000000000000000000008152600401808060200182810382528381815181526020019150805190602001908083836000838110156108bf5781810151838201526020016108a7565b5082848073ffffffffffffffffffffffffffffffffffffffff166342a7cfd56040518163ffffffff167c0100000000000000000000000000000000000000000000000000000000028152600401602060405180830381600087803b15801561264c57600080fd5b505af1158015612660573d6000803e3d6000fd5b505050506040513d602081101561267657600080fd5b50518281151561268257fe5b60408051606081018252603981527f5175616e74697479206d757374206265206d756c7469706c65206f662074686560208201527f206e61747572616c20756e6974206f6620746865207365742e000000000000009181019190915291900615612748576040517f08c379a0000000000000000000000000000000000000000000000000000000008152600401808060200182810382528381815181526020019150805190602001908083836000838110156108bf5781810151838201526020016108a7565b50612754338787614a80565b505050505050565b60025473ffffffffffffffffffffffffffffffffffffffff1690565b60005473ffffffffffffffffffffffffffffffffffffffff1681565b60005473ffffffffffffffffffffffffffffffffffffffff1633146127b857600080fd5b73ffffffffffffffffffffffffffffffffffffffff16600081815260046020526040812080547fffffffffffffffffffffffffffffffffffffffffffffffffffffffffffffff001660019081179091556005805491820181559091527f036b6384b5eca791c62761152d0c79bb0604c104a5fb6f4eb0703f3154bb3db00180547fffffffffffffffffffffffff0000000000000000000000000000000000000000169091179055565b60ff1660009081526001602052604090205473ffffffffffffffffffffffffffffffffffffffff1690565b73ffffffffffffffffffffffffffffffffffffffff8316600090815260066020908152604080832054815160608181018452602882527f53657420746f6b656e2069732064697361626c6564206f7220646f6573206e6f948201949094527f742065786973742e0000000000000000000000000000000000000000000000009281019290925282918491829182918a919060ff161515612988576040517f08c379a0000000000000000000000000000000000000000000000000000000008152600401808060200182810382528381815181526020019150805190602001908083836000838110156108bf5781810151838201526020016108a7565b5060408051606081018252602381527f5175616e74697479206d7573742062652067726561746572207468616e207a6560208201527f726f2e000000000000000000000000000000000000000000000000000000000091810191909152899060008211612a51576040517f08c379a0000000000000000000000000000000000000000000000000000000008152600401808060200182810382528381815181526020019150805190602001908083836000838110156108bf5781810151838201526020016108a7565b50898b8073ffffffffffffffffffffffffffffffffffffffff166342a7cfd56040518163ffffffff167c0100000000000000000000000000000000000000000000000000000000028152600401602060405180830381600087803b158015612ab857600080fd5b505af1158015612acc573d6000803e3d6000fd5b505050506040513d6020811015612ae257600080fd5b505182811515612aee57fe5b60408051606081018252603981527f5175616e74697479206d757374206265206d756c7469706c65206f662074686560208201527f206e61747572616c20756e6974206f6620746865207365742e000000000000009181019190915291900615612bb4576040517f08c379a0000000000000000000000000000000000000000000000000000000008152600401808060200182810382528381815181526020019150805190602001908083836000838110156108bf5781810151838201526020016108a7565b50604080517f9dc29fac000000000000000000000000000000000000000000000000000000008152336004820152602481018e9052905173ffffffffffffffffffffffffffffffffffffffff8f1691639dc29fac91604480830192600092919082900301818387803b158015612c2957600080fd5b505af1158015612c3d573d6000803e3d6000fd5b505050508c73ffffffffffffffffffffffffffffffffffffffff166342a7cfd56040518163ffffffff167c0100000000000000000000000000000000000000000000000000000000028152600401602060405180830381600087803b158015612ca557600080fd5b505af1158015612cb9573d6000803e3d6000fd5b505050506040513d6020811015612ccf57600080fd5b5051604080517f99d50d5d0000000000000000000000000000000000000000000000000000000081529051919b5073ffffffffffffffffffffffffffffffffffffffff8f16916399d50d5d9160048082019260009290919082900301818387803b158015612d3c57600080fd5b505af1158015612d50573d6000803e3d6000fd5b505050506040513d6000823e601f3d908101601f191682016040526020811015612d7957600080fd5b810190808051640100000000811115612d9157600080fd5b82016020810184811115612da457600080fd5b8151856020820283011164010000000082111715612dc157600080fd5b505092919050505098508c73ffffffffffffffffffffffffffffffffffffffff1663027aa9f56040518163ffffffff167c0100000000000000000000000000000000000000000000000000000000028152600401600060405180830381600087803b158015612e2f57600080fd5b505af1158015612e43573d6000803e3d6000fd5b505050506040513d6000823e601f3d908101601f191682016040526020811015612e6c57600080fd5b810190808051640100000000811115612e8457600080fd5b82016020810184811115612e9757600080fd5b8151856020820283011164010000000082111715612eb457600080fd5b50909b5060009a50505050505b88518710156120ad57612eec8888815181101515612edb57fe5b906020019060200201518b8e613bac565b6003548a5191975073ffffffffffffffffffffffffffffffffffffffff16906380ddda30908f908c908b908110612f1f57fe5b90602001906020020151896040518463ffffffff167c0100000000000000000000000000000000000000000000000000000000028152600401808473ffffffffffffffffffffffffffffffffffffffff1673ffffffffffffffffffffffffffffffffffffffff1681526020018373ffffffffffffffffffffffffffffffffffffffff1673ffffffffffffffffffffffffffffffffffffffff1681526020018281526020019350505050600060405180830381600087803b158015612fe257600080fd5b505af1158015612ff6573d6000803e3d6000fd5b505050600288900a9550508a8516156130d757600354895173ffffffffffffffffffffffffffffffffffffffff9091169063c3b35a7e908b908a90811061303957fe5b60209081029091010151604080517c010000000000000000000000000000000000000000000000000000000063ffffffff851602815273ffffffffffffffffffffffffffffffffffffffff9092166004830152336024830152604482018a905251606480830192600092919082900301818387803b1580156130ba57600080fd5b505af11580156130ce573d6000803e3d6000fd5b505050506131e5565b600354895173ffffffffffffffffffffffffffffffffffffffff9091169063bada57269033908c908b90811061310957fe5b90602001906020020151896040518463ffffffff167c0100000000000000000000000000000000000000000000000000000000028152600401808473ffffffffffffffffffffffffffffffffffffffff1673ffffffffffffffffffffffffffffffffffffffff1681526020018373ffffffffffffffffffffffffffffffffffffffff1673ffffffffffffffffffffffffffffffffffffffff1681526020018281526020019350505050600060405180830381600087803b1580156131cc57600080fd5b505af11580156131e0573d6000803e3d6000fd5b505050505b600190960195612ec1565b60025460035473ffffffffffffffffffffffffffffffffffffffff918216911682565b61321b615a60565b60008060008460008111606060405190810160405280602381526020017f5175616e74697479206d7573742062652067726561746572207468616e207a6581526020017f726f2e00000000000000000000000000000000000000000000000000000000008152509015156132eb576040517f08c379a0000000000000000000000000000000000000000000000000000000008152600401808060200182810382528381815181526020019150805190602001908083836000838110156108bf5781810151838201526020016108a7565b50604080516101a0810190915273ffffffffffffffffffffffffffffffffffffffff8d35168152602081018c6000602002013581526020018b8b80806020026020016040519081016040528093929190818152602001838360200280828437820191505050505050815260200189898080602002602001604051908101604052809392919081815260200183836020028082843750505092845250505060208e81013573ffffffffffffffffffffffffffffffffffffffff16908201526040018d6002602002013573ffffffffffffffffffffffffffffffffffffffff1673ffffffffffffffffffffffffffffffffffffffff1681526020018c60016005811015156133f357fe5b602090810291909101358252018c6002602090810291909101358252018d6003602002013573ffffffffffffffffffffffffffffffffffffffff1673ffffffffffffffffffffffffffffffffffffffff1681526020018d600460058110151561345857fe5b602002013573ffffffffffffffffffffffffffffffffffffffff1673ffffffffffffffffffffffffffffffffffffffff1681526020018c600360058110151561349d57fe5b602090810291909101358252018c6004602002013581526020016135698e600580602002604051908101604052809291908260056020028082843782019150505050508e600580602002604051908101604052809291908260056020028082843782019150505050508e8e808060200260200160405190810160405280939291908181526020018383602002808284378201915050505050508d8d8080602002602001604051908101604052809392919081815260200183836020028082843750613bd6945050505050565b9052608081015160408051808201909152601c81527f4f6e6c79206d616b65722063616e2063616e63656c206f726465722e00000000602082015291965073ffffffffffffffffffffffffffffffffffffffff163314613625576040517f08c379a0000000000000000000000000000000000000000000000000000000008152600401808060200182810382528381815181526020019150805190602001908083836000838110156108bf5781810151838201526020016108a7565b506136308587613ff7565b610180850180516000908152600960209081526040808320549351835260089091529020546136649163ffffffff61527c16565b602086015190945061367c908563ffffffff61528f16565b925061368e838763ffffffff6152a116565b6101808601516000908152600960205260409020549092506136b6908363ffffffff61527c16565b610180909501516000908152600960205260409020949094555050505050505050505050565b60008484808060200260200160405190810160405280939291908181526020018383602002808284375050604080516020808a0282810182019093528982529095508994508893508392508501908490808284375050855160408051808201909152601c81527f416464726573736573206d757374206e6f7420626520656d7074792e000000006020820152945060001092506137d8915050576040517f08c379a0000000000000000000000000000000000000000000000000000000008152600401808060200182810382528381815181526020019150805190602001908083836000838110156108bf5781810151838201526020016108a7565b50805160408051808201909152601d81527f5175616e746974696573206d757374206e6f7420626520656d7074792e000000602082015290600010613879576040517f08c379a0000000000000000000000000000000000000000000000000000000008152600401808060200182810382528381815181526020019150805190602001908083836000838110156108bf5781810151838201526020016108a7565b508051825160408051606081018252603181527f41646472657373657320616e64207175616e746974696573206d75737420626560208201527f207468652073616d65206c656e6774682e000000000000000000000000000000918101919091529114613942576040517f08c379a0000000000000000000000000000000000000000000000000000000008152600401808060200182810382528381815181526020019150805190602001908083836000838110156108bf5781810151838201526020016108a7565b50600092505b858310156115845761399687878581811061395f57fe5b9050602002013573ffffffffffffffffffffffffffffffffffffffff16868686818110151561398a57fe5b905060200201356139d1565b600190920191613948565b60005473ffffffffffffffffffffffffffffffffffffffff1633146139c557600080fd5b6139ce816152b9565b50565b600354604080517f80ddda3000000000000000000000000000000000000000000000000000000000815233600482015273ffffffffffffffffffffffffffffffffffffffff858116602483015260448201859052915191909216916380ddda3091606480830192600092919082900301818387803b158015613a5257600080fd5b505af1158015613a66573d6000803e3d6000fd5b5050600354604080517fc3b35a7e00000000000000000000000000000000000000000000000000000000815273ffffffffffffffffffffffffffffffffffffffff878116600483015233602483015260448201879052915191909216935063c3b35a7e9250606480830192600092919082900301818387803b158015613aeb57600080fd5b505af1158015612754573d6000803e3d6000fd5b60009081526008602052604090205490565b60606001600401805480602002602001604051908101604052809291908181526020018280548015611cca5760200282019190600052602060002090815473ffffffffffffffffffffffffffffffffffffffff168152600190910190602001808311611c9f575050505050905090565b73ffffffffffffffffffffffffffffffffffffffff1660009081526006602052604090205460ff1690565b6000613bce84613bc2848663ffffffff61536816565b9063ffffffff61537d16565b949350505050565b6000848160200201518560016020020151866002602002015187600360200201518860046020020151886000602002015189600160200201518a600260200201518b600360200201518c600460200201518c8c604051602001808d73ffffffffffffffffffffffffffffffffffffffff1673ffffffffffffffffffffffffffffffffffffffff166c010000000000000000000000000281526014018c73ffffffffffffffffffffffffffffffffffffffff1673ffffffffffffffffffffffffffffffffffffffff166c010000000000000000000000000281526014018b73ffffffffffffffffffffffffffffffffffffffff1673ffffffffffffffffffffffffffffffffffffffff166c010000000000000000000000000281526014018a73ffffffffffffffffffffffffffffffffffffffff1673ffffffffffffffffffffffffffffffffffffffff166c010000000000000000000000000281526014018973ffffffffffffffffffffffffffffffffffffffff1673ffffffffffffffffffffffffffffffffffffffff166c01000000000000000000000000028152601401888152602001878152602001868152602001858152602001848152602001838051906020019060200280838360005b83811015613dbc578181015183820152602001613da4565b50505050905001828051906020019060200280838360005b83811015613dec578181015183820152602001613dd4565b505050509050019c505050505050505050505050506040516020818303038152906040526040518082805190602001908083835b60208310613e3f5780518252601f199092019160209182019101613e20565b5181516020939093036101000a6000190180199091169216919091179052604051920182900390912098975050505050505050565b60008060606040805190810160405280601c81526020017f19457468657265756d205369676e6564204d6573736167653a0a3332000000008152509050600181896040516020018083805190602001908083835b60208310613ee75780518252601f199092019160209182019101613ec8565b51815160209384036101000a600019018019909216911617905292019384525060408051808503815293820190819052835193945092839250908401908083835b60208310613f475780518252601f199092019160209182019101613f28565b51815160209384036101000a60001901801990921691161790526040805192909401829003822060008084528383018087529190915260ff8e1683860152606083018d9052608083018c9052935160a08084019750919550601f1981019492819003909101925090865af1158015613fc3573d6000803e3d6000fd5b5050604051601f19015173ffffffffffffffffffffffffffffffffffffffff90811698169790971498975050505050505050565b815173ffffffffffffffffffffffffffffffffffffffff8116600090815260066020908152604091829020548251606081018452602881527f53657420746f6b656e2069732064697361626c6564206f7220646f6573206e6f928101929092527f742065786973742e000000000000000000000000000000000000000000000000928201929092529060ff1615156140eb576040517f08c379a0000000000000000000000000000000000000000000000000000000008152600401808060200182810382528381815181526020019150805190602001908083836000838110156108bf5781810151838201526020016108a7565b5060408051606081018252602381527f5175616e74697479206d7573742062652067726561746572207468616e207a6560208201527f726f2e0000000000000000000000000000000000000000000000000000000000918101919091528290600082116141b4576040517f08c379a0000000000000000000000000000000000000000000000000000000008152600401808060200182810382528381815181526020019150805190602001908083836000838110156108bf5781810151838201526020016108a7565b5060008460c001511180156141cd575060008460200151115b606060405190810160405280602281526020017f5175616e746974792073686f756c642062652067726561746572207468616e2081526020017f302e000000000000000000000000000000000000000000000000000000000000815250901515614293576040517f08c379a0000000000000000000000000000000000000000000000000000000008152600401808060200182810382528381815181526020019150805190602001908083836000838110156108bf5781810151838201526020016108a7565b5060e084015160408051808201909152601781527f54686973206f726465722068617320657870697265642e000000000000000000602082015290421115614337576040517f08c379a0000000000000000000000000000000000000000000000000000000008152600401808060200182810382528381815181526020019150805190602001908083836000838110156108bf5781810151838201526020016108a7565b50836000015173ffffffffffffffffffffffffffffffffffffffff166342a7cfd56040518163ffffffff167c0100000000000000000000000000000000000000000000000000000000028152600401602060405180830381600087803b1580156143a057600080fd5b505af11580156143b4573d6000803e3d6000fd5b505050506040513d60208110156143ca57600080fd5b505160208501518115156143da57fe5b60408051606081018252603981527f5175616e74697479206d757374206265206d756c7469706c65206f662074686560208201527f206e61747572616c20756e6974206f6620746865207365742e0000000000000091810191909152919006156144a0576040517f08c379a0000000000000000000000000000000000000000000000000000000008152600401808060200182810382528381815181526020019150805190602001908083836000838110156108bf5781810151838201526020016108a7565b50836000015173ffffffffffffffffffffffffffffffffffffffff166342a7cfd56040518163ffffffff167c0100000000000000000000000000000000000000000000000000000000028152600401602060405180830381600087803b15801561450957600080fd5b505af115801561451d573d6000803e3d6000fd5b505050506040513d602081101561453357600080fd5b50518381151561453f57fe5b60408051606081018252603981527f5175616e74697479206d757374206265206d756c7469706c65206f662074686560208201527f206e61747572616c20756e6974206f6620746865207365742e000000000000009181019190915291900615614605576040517f08c379a0000000000000000000000000000000000000000000000000000000008152600401808060200182810382528381815181526020019150805190602001908083836000838110156108bf5781810151838201526020016108a7565b5050505050565b6101808301805160009081526009602090815260408083205493518352600890915281205490918291606091839182918291829182918291614654919063ffffffff61527c16565b60208d015190995061466c908a63ffffffff61528f16565b60408051606081018252603981527f46696c6c20616d6f756e74206d75737420626520657175616c206f72206c657360208201527f73207468616e206f70656e206f7264657220616d6f756e742e00000000000000918101919091529098508b891015614735576040517f08c379a0000000000000000000000000000000000000000000000000000000008152600401808060200182810382528381815181526020019150805190602001908083836000838110156108bf5781810151838201526020016108a7565b508b6040015151604051908082528060200260200182016040528015614765578160200160208202803883390190505b5096506147938c602001516147878d8f60c0015161537d90919063ffffffff16565b9063ffffffff61536816565b9550600094505b8b60400151518561ffff1610156149055760035460808d015160408e0151805173ffffffffffffffffffffffffffffffffffffffff90931692631f98ade392919061ffff8a169081106147e957fe5b6020908102909101810151604080517c010000000000000000000000000000000000000000000000000000000063ffffffff871602815273ffffffffffffffffffffffffffffffffffffffff9485166004820152939091166024840152516044808401938290030181600087803b15801561486357600080fd5b505af1158015614877573d6000803e3d6000fd5b505050506040513d602081101561488d57600080fd5b505160208d015160608e015180519296506148cc92614787918f9161ffff8b169081106148b657fe5b602090810290910101519063ffffffff61537d16565b92506148de848463ffffffff61527c16565b878661ffff168151811015156148f057fe5b6020908102909101015260019094019361479a565b6149138a8d608001516153a6565b91508582111561492257600080fd5b600094505b8b60400151518561ffff161015614a295760035460808d015160408e0151805173ffffffffffffffffffffffffffffffffffffffff90931692631f98ade392919061ffff8a1690811061497657fe5b6020908102909101810151604080517c010000000000000000000000000000000000000000000000000000000063ffffffff871602815273ffffffffffffffffffffffffffffffffffffffff9485166004820152939091166024840152516044808401938290030181600087803b1580156149f057600080fd5b505af1158015614a04573d6000803e3d6000fd5b505050506040513d6020811015614a1a57600080fd5b50516001909501949050614927565b614a358c8c88856155da565b6101808c0151600090815260086020526040902054614a5a908c63ffffffff61527c16565b610180909c015160009081526008602052604090209b909b555050505050505050505050565b6060806000806000806000808973ffffffffffffffffffffffffffffffffffffffff166399d50d5d6040518163ffffffff167c0100000000000000000000000000000000000000000000000000000000028152600401600060405180830381600087803b158015614af057600080fd5b505af1158015614b04573d6000803e3d6000fd5b505050506040513d6000823e601f3d908101601f191682016040526020811015614b2d57600080fd5b810190808051640100000000811115614b4557600080fd5b82016020810184811115614b5857600080fd5b8151856020820283011164010000000082111715614b7557600080fd5b505092919050505097508973ffffffffffffffffffffffffffffffffffffffff1663027aa9f56040518163ffffffff167c0100000000000000000000000000000000000000000000000000000000028152600401600060405180830381600087803b158015614be357600080fd5b505af1158015614bf7573d6000803e3d6000fd5b505050506040513d6000823e601f3d908101601f191682016040526020811015614c2057600080fd5b810190808051640100000000811115614c3857600080fd5b82016020810184811115614c4b57600080fd5b8151856020820283011164010000000082111715614c6857600080fd5b50909a5060009950505050505b87518661ffff1610156151b457878661ffff16815181101515614c9457fe5b906020019060200201519450868661ffff16815181101515614cb257fe5b906020019060200201519350614d58848b73ffffffffffffffffffffffffffffffffffffffff166342a7cfd56040518163ffffffff167c0100000000000000000000000000000000000000000000000000000000028152600401602060405180830381600087803b158015614d2657600080fd5b505af1158015614d3a573d6000803e3d6000fd5b505050506040513d6020811015614d5057600080fd5b50518b613bac565b600354604080517f1f98ade300000000000000000000000000000000000000000000000000000000815273ffffffffffffffffffffffffffffffffffffffff8f8116600483015289811660248301529151939650911691631f98ade3916044808201926020929091908290030181600087803b158015614dd757600080fd5b505af1158015614deb573d6000803e3d6000fd5b505050506040513d6020811015614e0157600080fd5b50519150828210614eac57600354604080517f80ddda3000000000000000000000000000000000000000000000000000000000815273ffffffffffffffffffffffffffffffffffffffff8e81166004830152888116602483015260448201879052915191909216916380ddda3091606480830192600092919082900301818387803b158015614e8f57600080fd5b505af1158015614ea3573d6000803e3d6000fd5b5050505061510d565b6000821115614f5157600354604080517f80ddda3000000000000000000000000000000000000000000000000000000000815273ffffffffffffffffffffffffffffffffffffffff8e81166004830152888116602483015260448201869052915191909216916380ddda3091606480830192600092919082900301818387803b158015614f3857600080fd5b505af1158015614f4c573d6000803e3d6000fd5b505050505b614f61838363ffffffff61528f16565b60025490915073ffffffffffffffffffffffffffffffffffffffff1663a6c4e46786614f93868663ffffffff61528f16565b8e600160020160009054906101000a900473ffffffffffffffffffffffffffffffffffffffff166040518563ffffffff167c0100000000000000000000000000000000000000000000000000000000028152600401808573ffffffffffffffffffffffffffffffffffffffff1673ffffffffffffffffffffffffffffffffffffffff1681526020018481526020018373ffffffffffffffffffffffffffffffffffffffff1673ffffffffffffffffffffffffffffffffffffffff1681526020018273ffffffffffffffffffffffffffffffffffffffff1673ffffffffffffffffffffffffffffffffffffffff168152602001945050505050600060405180830381600087803b1580156150a557600080fd5b505af11580156150b9573d6000803e3d6000fd5b505060408051848152905173ffffffffffffffffffffffffffffffffffffffff808a1694508e1692507fced8518610cf00c97309551834addd978c595341eda2066dbd52f9e9904895739181900360200190a35b600354604080517fbada572600000000000000000000000000000000000000000000000000000000815273ffffffffffffffffffffffffffffffffffffffff8d811660048301528881166024830152604482018790529151919092169163bada572691606480830192600092919082900301818387803b15801561519057600080fd5b505af11580156151a4573d6000803e3d6000fd5b505060019097019650614c759050565b8973ffffffffffffffffffffffffffffffffffffffff166340c10f198c8b6040518363ffffffff167c0100000000000000000000000000000000000000000000000000000000028152600401808373ffffffffffffffffffffffffffffffffffffffff1673ffffffffffffffffffffffffffffffffffffffff16815260200182815260200192505050600060405180830381600087803b15801561525757600080fd5b505af115801561526b573d6000803e3d6000fd5b505050505050505050505050505050565b8181018281101561528957fe5b92915050565b60008282111561529b57fe5b50900390565b60008183106152b057816152b2565b825b9392505050565b73ffffffffffffffffffffffffffffffffffffffff811615156152db57600080fd5b6000805460405173ffffffffffffffffffffffffffffffffffffffff808516939216917f8be0079c531659141344cd1fd0a4f28419497f9722a3daafe3b4186f6b6457e091a3600080547fffffffffffffffffffffffff00000000000000000000000000000000000000001673ffffffffffffffffffffffffffffffffffffffff92909216919091179055565b6000818381151561537557fe5b049392505050565b600082151561538e57506000615289565b5081810281838281151561539e57fe5b041461528957fe5b600080600060606153b5615b3a565b60008060605b89518710156155cc576153df8a886153da81608063ffffffff61527c16565b615821565b94506153ea85615953565b805160ff16600090815260016020908152604091829020548251808401909352601883527f45786368616e676520646f6573206e6f742065786973742e00000000000000009183019190915291955073ffffffffffffffffffffffffffffffffffffffff90911693508315156154bc576040517f08c379a0000000000000000000000000000000000000000000000000000000008152600401808060200182810382528381815181526020019150805190602001908083836000838110156108bf5781810151838201526020016108a7565b5060608401516154d390608063ffffffff61527c16565b91506154fa8a6154ea89608063ffffffff61527c16565b6153da8a8663ffffffff61527c16565b600254602086015160408088015181517fa6c4e46700000000000000000000000000000000000000000000000000000000815273ffffffffffffffffffffffffffffffffffffffff938416600482015260248101919091528d831660448201528783166064820152905193945091169163a6c4e4679160848082019260009290919082900301818387803b15801561559157600080fd5b505af11580156155a5573d6000803e3d6000fd5b505050506155bc828861527c90919063ffffffff16565b96508360400151860195506153bb565b509398975050505050505050565b6000806155ed848463ffffffff61528f16565b60025460a08801516080890151604080517fa6c4e46700000000000000000000000000000000000000000000000000000000815273ffffffffffffffffffffffffffffffffffffffff93841660048201526024810186905291831660448301523360648301525193955091169163a6c4e4679160848082019260009290919082900301818387803b15801561568157600080fd5b505af1158015615695573d6000803e3d6000fd5b50505060208701516101408801516156b89250614787908863ffffffff61537d16565b60025461012088015160808901516101008a0151604080517fa6c4e46700000000000000000000000000000000000000000000000000000000815273ffffffffffffffffffffffffffffffffffffffff948516600482015260248101879052928416604484015290831660648301525193945091169163a6c4e4679160848082019260009290919082900301818387803b15801561575557600080fd5b505af1158015615769573d6000803e3d6000fd5b50506002546101208901516101008a0151604080517fa6c4e46700000000000000000000000000000000000000000000000000000000815273ffffffffffffffffffffffffffffffffffffffff93841660048201526024810188905233604482015291831660648301525191909216935063a6c4e4679250608480830192600092919082900301818387803b15801561580157600080fd5b505af1158015615815573d6000803e3d6000fd5b50505050505050505050565b60608183111561589257604080517f08c379a000000000000000000000000000000000000000000000000000000000815260206004820152601a60248201527f46524f4d5f4c4553535f5448414e5f544f5f5245515549524544000000000000604482015290519081900360640190fd5b835182111561590257604080517f08c379a000000000000000000000000000000000000000000000000000000000815260206004820152601c60248201527f544f5f4c4553535f5448414e5f4c454e4754485f524551554952454400000000604482015290519081900360640190fd5b8282036040519080825280601f01601f191660200182016040528015615932578160200160208202803883390190505b5090506152b261594182615991565b8461594b87615991565b018351615997565b61595b615b3a565b615963615b3a565b6020830151815260408301516020820152606083015160408201526080830151606082015280915050919050565b60200190565b60208110156159c1576001816020036101000a038019835116818551168082178652505050610a59565b828214156159ce57610a59565b82821115615a085760208103905080820181840181515b82851015615a005784518652602095860195909401936159e5565b905250610a59565b60208103905080820181840183515b81861215615a335782518252601f199283019290910190615a17565b85525050505050565b815481835581811115610a5957600083815260209020610a59918101908301615b61565b6101a060405190810160405280600073ffffffffffffffffffffffffffffffffffffffff168152602001600081526020016060815260200160608152602001600073ffffffffffffffffffffffffffffffffffffffff168152602001600073ffffffffffffffffffffffffffffffffffffffff1681526020016000815260200160008152602001600073ffffffffffffffffffffffffffffffffffffffff168152602001600073ffffffffffffffffffffffffffffffffffffffff1681526020016000815260200160008152602001600080191681525090565b60408051608081018252600080825260208201819052918101829052606081019190915290565b61165b91905b80821115615b7b5760008155600101615b67565b50905600a165627a7a723058203d8469f37874f160c5d2fd4b1a863ba835469cf3aff58d6a6f25e644c05af3de0029",
  "source": "/*\n    Copyright 2018 Set Labs Inc.\n\n    Licensed under the Apache License, Version 2.0 (the \"License\");\n    you may not use this file except in compliance with the License.\n    You may obtain a copy of the License at\n\n    http://www.apache.org/licenses/LICENSE-2.0\n\n    Unless required by applicable law or agreed to in writing, software\n    distributed under the License is distributed on an \"AS IS\" BASIS,\n    WITHOUT WARRANTIES OR CONDITIONS OF ANY KIND, either express or implied.\n    See the License for the specific language governing permissions and\n    limitations under the License.\n*/\n\npragma solidity 0.4.24;\n\nimport { CoreAccounting } from \"./extensions/CoreAccounting.sol\";\nimport { CoreExchangeDispatcher } from \"./extensions/CoreExchangeDispatcher.sol\";\nimport { CoreFactory } from \"./extensions/CoreFactory.sol\";\nimport { CoreInternal } from \"./extensions/CoreInternal.sol\";\nimport { CoreIssuance } from \"./extensions/CoreIssuance.sol\";\nimport { CoreIssuanceOrder } from \"./extensions/CoreIssuanceOrder.sol\";\n\n\n\n/**\n * @title Core\n * @author Set Protocol\n *\n * The Core contract acts as a coordinator handling issuing, redeeming, and\n * creating Sets, as well as all collateral flows throughout the system.\n */\ncontract Core is\n    CoreExchangeDispatcher,\n    CoreIssuanceOrder,\n    CoreAccounting,\n    CoreInternal,\n    CoreFactory,\n    CoreIssuance\n{}\n",
  "sourcePath": "/Users/inje/Documents/repos/set-protocol-contracts/contracts/core/Core.sol",
  "compiler": {
    "name": "solc",
    "version": "0.4.24+commit.e67f0147.Emscripten.clang"
  },
  "schemaVersion": "2.0.0",
  "updatedAt": "2018-07-13T21:55:38.158Z"
}