{
  "contractName": "Core",
  "abi": [
    {
      "constant": true,
      "inputs": [
        {
          "name": "_factory",
          "type": "address"
        }
      ],
      "name": "validFactories",
      "outputs": [
        {
          "name": "",
          "type": "bool"
        }
      ],
      "payable": false,
      "stateMutability": "view",
      "type": "function"
    },
    {
      "constant": false,
      "inputs": [
        {
          "name": "_transferProxy",
          "type": "address"
        }
      ],
      "name": "setTransferProxyAddress",
      "outputs": [],
      "payable": false,
      "stateMutability": "nonpayable",
      "type": "function"
    },
    {
      "constant": false,
      "inputs": [
        {
          "name": "_factory",
          "type": "address"
        }
      ],
      "name": "disableFactory",
      "outputs": [],
      "payable": false,
      "stateMutability": "nonpayable",
      "type": "function"
    },
    {
      "constant": false,
      "inputs": [
        {
          "name": "_addresses",
          "type": "address[5]"
        },
        {
          "name": "_values",
          "type": "uint256[6]"
        },
        {
          "name": "_requiredComponents",
          "type": "address[]"
        },
        {
          "name": "_requiredComponentAmounts",
          "type": "uint256[]"
        },
        {
          "name": "_cancelQuantity",
          "type": "uint256"
        }
      ],
      "name": "cancelOrder",
      "outputs": [],
      "payable": false,
      "stateMutability": "nonpayable",
      "type": "function"
    },
    {
      "constant": true,
      "inputs": [
        {
          "name": "_orderHash",
          "type": "bytes32"
        }
      ],
      "name": "orderCancels",
      "outputs": [
        {
          "name": "",
          "type": "uint256"
        }
      ],
      "payable": false,
      "stateMutability": "view",
      "type": "function"
    },
    {
      "constant": false,
      "inputs": [
        {
          "name": "_set",
          "type": "address"
        },
        {
          "name": "_quantity",
          "type": "uint256"
        }
      ],
      "name": "redeem",
      "outputs": [],
      "payable": false,
      "stateMutability": "nonpayable",
      "type": "function"
    },
    {
      "constant": false,
      "inputs": [
        {
          "name": "_tokens",
          "type": "address[]"
        },
        {
          "name": "_quantities",
          "type": "uint256[]"
        }
      ],
      "name": "batchDeposit",
      "outputs": [],
      "payable": false,
      "stateMutability": "nonpayable",
      "type": "function"
    },
    {
      "constant": false,
      "inputs": [
        {
          "name": "_exchangeId",
          "type": "uint8"
        },
        {
          "name": "_exchange",
          "type": "address"
        }
      ],
      "name": "registerExchange",
      "outputs": [],
      "payable": false,
      "stateMutability": "nonpayable",
      "type": "function"
    },
    {
      "constant": false,
      "inputs": [
        {
          "name": "_token",
          "type": "address"
        },
        {
          "name": "_quantity",
          "type": "uint256"
        }
      ],
      "name": "deposit",
      "outputs": [],
      "payable": false,
      "stateMutability": "nonpayable",
      "type": "function"
    },
    {
      "constant": false,
      "inputs": [
        {
          "name": "_factory",
          "type": "address"
        },
        {
          "name": "_components",
          "type": "address[]"
        },
        {
          "name": "_units",
          "type": "uint256[]"
        },
        {
          "name": "_naturalUnit",
          "type": "uint256"
        },
        {
          "name": "_name",
          "type": "string"
        },
        {
          "name": "_symbol",
          "type": "string"
        }
      ],
      "name": "create",
      "outputs": [
        {
          "name": "",
          "type": "address"
        }
      ],
      "payable": false,
      "stateMutability": "nonpayable",
      "type": "function"
    },
    {
      "constant": true,
      "inputs": [],
      "name": "setTokens",
      "outputs": [
        {
          "name": "",
          "type": "address[]"
        }
      ],
      "payable": false,
      "stateMutability": "view",
      "type": "function"
    },
    {
      "constant": false,
      "inputs": [
        {
          "name": "_to",
          "type": "address"
        },
        {
          "name": "_token",
          "type": "address"
        },
        {
          "name": "_quantity",
          "type": "uint256"
        }
      ],
      "name": "internalTransfer",
      "outputs": [],
      "payable": false,
      "stateMutability": "nonpayable",
      "type": "function"
    },
    {
      "constant": true,
      "inputs": [],
      "name": "transferProxy",
      "outputs": [
        {
          "name": "",
          "type": "address"
        }
      ],
      "payable": false,
      "stateMutability": "view",
      "type": "function"
    },
    {
      "constant": false,
      "inputs": [],
      "name": "renounceOwnership",
      "outputs": [],
      "payable": false,
      "stateMutability": "nonpayable",
      "type": "function"
    },
    {
      "constant": false,
      "inputs": [
        {
          "name": "_set",
          "type": "address"
        }
      ],
      "name": "disableSet",
      "outputs": [],
      "payable": false,
      "stateMutability": "nonpayable",
      "type": "function"
    },
    {
      "constant": false,
      "inputs": [
        {
          "name": "_vault",
          "type": "address"
        }
      ],
      "name": "setVaultAddress",
      "outputs": [],
      "payable": false,
      "stateMutability": "nonpayable",
      "type": "function"
    },
    {
      "constant": false,
      "inputs": [
        {
          "name": "_set",
          "type": "address"
        },
        {
          "name": "_quantity",
          "type": "uint256"
        }
      ],
      "name": "issue",
      "outputs": [],
      "payable": false,
      "stateMutability": "nonpayable",
      "type": "function"
    },
    {
      "constant": true,
      "inputs": [],
      "name": "owner",
      "outputs": [
        {
          "name": "",
          "type": "address"
        }
      ],
      "payable": false,
      "stateMutability": "view",
      "type": "function"
    },
    {
      "constant": false,
      "inputs": [
        {
          "name": "_factory",
          "type": "address"
        }
      ],
      "name": "enableFactory",
      "outputs": [],
      "payable": false,
      "stateMutability": "nonpayable",
      "type": "function"
    },
    {
      "constant": true,
      "inputs": [
        {
          "name": "_exchangeId",
          "type": "uint8"
        }
      ],
      "name": "exchanges",
      "outputs": [
        {
          "name": "",
          "type": "address"
        }
      ],
      "payable": false,
      "stateMutability": "view",
      "type": "function"
    },
    {
      "constant": false,
      "inputs": [
        {
          "name": "_set",
          "type": "address"
        },
        {
          "name": "_quantity",
          "type": "uint256"
        }
      ],
      "name": "redeemInVault",
      "outputs": [],
      "payable": false,
      "stateMutability": "nonpayable",
      "type": "function"
    },
    {
      "constant": false,
      "inputs": [
        {
          "name": "_set",
          "type": "address"
        },
        {
          "name": "_quantity",
          "type": "uint256"
        },
        {
          "name": "_toExclude",
          "type": "uint256"
        }
      ],
      "name": "redeemAndWithdraw",
      "outputs": [],
      "payable": false,
      "stateMutability": "nonpayable",
      "type": "function"
    },
    {
      "constant": true,
      "inputs": [],
      "name": "state",
      "outputs": [
        {
          "name": "transferProxy",
          "type": "address"
        },
        {
          "name": "vault",
          "type": "address"
        }
      ],
      "payable": false,
      "stateMutability": "view",
      "type": "function"
    },
    {
      "constant": false,
      "inputs": [
        {
          "name": "_tokens",
          "type": "address[]"
        },
        {
          "name": "_quantities",
          "type": "uint256[]"
        }
      ],
      "name": "batchWithdraw",
      "outputs": [],
      "payable": false,
      "stateMutability": "nonpayable",
      "type": "function"
    },
    {
      "constant": false,
      "inputs": [
        {
          "name": "_addresses",
          "type": "address[5]"
        },
        {
          "name": "_values",
          "type": "uint256[6]"
        },
        {
          "name": "_requiredComponents",
          "type": "address[]"
        },
        {
          "name": "_requiredComponentAmounts",
          "type": "uint256[]"
        },
        {
          "name": "_fillQuantity",
          "type": "uint256"
        },
        {
          "name": "_v",
          "type": "uint8"
        },
        {
          "name": "sigBytes",
          "type": "bytes32[]"
        },
        {
          "name": "_orderData",
          "type": "bytes"
        }
      ],
      "name": "fillOrder",
      "outputs": [],
      "payable": false,
      "stateMutability": "nonpayable",
      "type": "function"
    },
    {
      "constant": false,
      "inputs": [
        {
          "name": "_newOwner",
          "type": "address"
        }
      ],
      "name": "transferOwnership",
      "outputs": [],
      "payable": false,
      "stateMutability": "nonpayable",
      "type": "function"
    },
    {
      "constant": false,
      "inputs": [
        {
          "name": "_token",
          "type": "address"
        },
        {
          "name": "_quantity",
          "type": "uint256"
        }
      ],
      "name": "withdraw",
      "outputs": [],
      "payable": false,
      "stateMutability": "nonpayable",
      "type": "function"
    },
    {
      "constant": true,
      "inputs": [
        {
          "name": "_orderHash",
          "type": "bytes32"
        }
      ],
      "name": "orderFills",
      "outputs": [
        {
          "name": "",
          "type": "uint256"
        }
      ],
      "payable": false,
      "stateMutability": "view",
      "type": "function"
    },
    {
      "constant": true,
      "inputs": [],
      "name": "vault",
      "outputs": [
        {
          "name": "",
          "type": "address"
        }
      ],
      "payable": false,
      "stateMutability": "view",
      "type": "function"
    },
    {
      "constant": true,
      "inputs": [],
      "name": "factories",
      "outputs": [
        {
          "name": "",
          "type": "address[]"
        }
      ],
      "payable": false,
      "stateMutability": "view",
      "type": "function"
    },
    {
      "constant": true,
      "inputs": [
        {
          "name": "_set",
          "type": "address"
        }
      ],
      "name": "validSets",
      "outputs": [
        {
          "name": "",
          "type": "bool"
        }
      ],
      "payable": false,
      "stateMutability": "view",
      "type": "function"
    },
    {
      "anonymous": false,
      "inputs": [
        {
          "indexed": true,
          "name": "_setToken",
          "type": "address"
        },
        {
          "indexed": true,
          "name": "_component",
          "type": "address"
        },
        {
          "indexed": false,
          "name": "_quantity",
          "type": "uint256"
        }
      ],
      "name": "IssuanceComponentDeposited",
      "type": "event"
    },
    {
      "anonymous": false,
      "inputs": [
        {
          "indexed": true,
          "name": "_setTokenAddress",
          "type": "address"
        },
        {
          "indexed": false,
          "name": "_factory",
          "type": "address"
        },
        {
          "indexed": false,
          "name": "_components",
          "type": "address[]"
        },
        {
          "indexed": false,
          "name": "_units",
          "type": "uint256[]"
        },
        {
          "indexed": false,
          "name": "_naturalUnit",
          "type": "uint256"
        },
        {
          "indexed": false,
          "name": "_name",
          "type": "string"
        },
        {
          "indexed": false,
          "name": "_symbol",
          "type": "string"
        }
      ],
      "name": "SetTokenCreated",
      "type": "event"
    },
    {
      "anonymous": false,
      "inputs": [
        {
          "indexed": false,
          "name": "setAddress",
          "type": "address"
        },
        {
          "indexed": true,
          "name": "makerAddress",
          "type": "address"
        },
        {
          "indexed": true,
          "name": "takerAddress",
          "type": "address"
        },
        {
          "indexed": false,
          "name": "makerToken",
          "type": "address"
        },
        {
          "indexed": true,
          "name": "relayerAddress",
          "type": "address"
        },
        {
          "indexed": false,
          "name": "relayerToken",
          "type": "address"
        },
        {
          "indexed": false,
          "name": "quantityFilled",
          "type": "uint256"
        },
        {
          "indexed": false,
          "name": "makerTokenToTaker",
          "type": "uint256"
        },
        {
          "indexed": false,
          "name": "relayerTokenAmountPaid",
          "type": "uint256"
        },
        {
          "indexed": false,
          "name": "orderHash",
          "type": "bytes32"
        }
      ],
      "name": "LogFill",
      "type": "event"
    },
    {
      "anonymous": false,
      "inputs": [
        {
          "indexed": false,
          "name": "setAddress",
          "type": "address"
        },
        {
          "indexed": true,
          "name": "makerAddress",
          "type": "address"
        },
        {
          "indexed": false,
          "name": "makerToken",
          "type": "address"
        },
        {
          "indexed": true,
          "name": "relayerAddress",
          "type": "address"
        },
        {
          "indexed": false,
          "name": "quantityCanceled",
          "type": "uint256"
        },
        {
          "indexed": false,
          "name": "orderHash",
          "type": "bytes32"
        }
      ],
      "name": "LogCancel",
      "type": "event"
    },
    {
      "anonymous": false,
      "inputs": [
        {
          "indexed": false,
          "name": "_exchangeId",
          "type": "uint8"
        },
        {
          "indexed": false,
          "name": "_exchange",
          "type": "address"
        }
      ],
      "name": "ExchangeRegistered",
      "type": "event"
    },
    {
      "anonymous": false,
      "inputs": [
        {
          "indexed": true,
          "name": "previousOwner",
          "type": "address"
        }
      ],
      "name": "OwnershipRenounced",
      "type": "event"
    },
    {
      "anonymous": false,
      "inputs": [
        {
          "indexed": true,
          "name": "previousOwner",
          "type": "address"
        },
        {
          "indexed": true,
          "name": "newOwner",
          "type": "address"
        }
      ],
      "name": "OwnershipTransferred",
      "type": "event"
    }
  ],
  "bytecode": "0x608060405260008054600160a060020a03191633179055613e3b806100256000396000f3006080604052600436106101715763ffffffff60e060020a6000350416630e4355d48114610176578063124cfd78146101ab5780631a1f2b3e146101ce5780631cbb3877146101ef5780631e912bd6146102255780631e9a69501461024f57806330a90736146102735780633e3d13b21461029f57806347e7ef24146102c657806352904449146102ea578063559ed3391461035b57806359e026f7146103c05780636e667db3146103ea578063715018a6146103ff57806377274ff01461041457806385535cc514610435578063867904b4146104565780638da5cb5b1461047a5780639f80ee881461048f578063a003e069146104b0578063a782132c146104cb578063ac842c66146104ef578063c19d93fb14610516578063e131243e14610551578063e88942ba1461057d578063f2fde38b146105d6578063f3fef3a3146105f7578063f7213db61461061b578063fbfa77cf14610633578063fe5b38e414610648578063fef3ee731461065d575b600080fd5b34801561018257600080fd5b50610197600160a060020a036004351661067e565b604080519115158252519081900360200190f35b3480156101b757600080fd5b506101cc600160a060020a036004351661069c565b005b3480156101da57600080fd5b506101cc600160a060020a03600435166106d5565b3480156101fb57600080fd5b506101cc600460a4610164356024818101918401359061018435908101908501356101a4356107fb565b34801561023157600080fd5b5061023d6004356109fb565b60408051918252519081900360200190f35b34801561025b57600080fd5b506101cc600160a060020a0360043516602435610a0d565b34801561027f57600080fd5b506101cc6024600480358281019290820135918135918201910135610a18565b3480156102ab57600080fd5b506101cc60ff60043516600160a060020a0360243516610a81565b3480156102d257600080fd5b506101cc600160a060020a0360043516602435610b03565b3480156102f657600080fd5b5061033f60048035600160a060020a031690602480358082019290810135916044358082019290810135916064359160843580830192908201359160a435918201910135610b0f565b60408051600160a060020a039092168252519081900360200190f35b34801561036757600080fd5b50610370610dc3565b60408051602080825283518183015283519192839290830191858101910280838360005b838110156103ac578181015183820152602001610394565b505050509050019250505060405180910390f35b3480156103cc57600080fd5b506101cc600160a060020a0360043581169060243516604435610e29565b3480156103f657600080fd5b5061033f610ec2565b34801561040b57600080fd5b506101cc610ed1565b34801561042057600080fd5b506101cc600160a060020a0360043516610f30565b34801561044157600080fd5b506101cc600160a060020a036004351661104c565b34801561046257600080fd5b506101cc600160a060020a0360043516602435611085565b34801561048657600080fd5b5061033f611136565b34801561049b57600080fd5b506101cc600160a060020a0360043516611145565b3480156104bc57600080fd5b5061033f60ff600435166111c2565b3480156104d757600080fd5b506101cc600160a060020a03600435166024356111e0565b3480156104fb57600080fd5b506101cc600160a060020a0360043516602435604435611284565b34801561052257600080fd5b5061052b611828565b60408051600160a060020a03938416815291909216602082015281519081900390910190f35b34801561055d57600080fd5b506101cc602460048035828101929082013591813591820191013561183e565b34801561058957600080fd5b506101cc600460a46101643560248181019184013590610184358082019190860135906101a435906101c43560ff16906101e43580820191908a01359061020435908101908b01356118b9565b3480156105e257600080fd5b506101cc600160a060020a0360043516611a28565b34801561060357600080fd5b506101cc600160a060020a0360043516602435611a4b565b34801561062757600080fd5b5061023d600435611b4b565b34801561063f57600080fd5b5061033f611b5d565b34801561065457600080fd5b50610370611b6c565b34801561066957600080fd5b50610197600160a060020a0360043516611bcf565b600160a060020a031660009081526004602052604090205460ff1690565b600054600160a060020a031633146106b357600080fd5b60028054600160a060020a031916600160a060020a0392909216919091179055565b60008054600160a060020a031633146106ed57600080fd5b600160a060020a03821660009081526004602052604090205460ff16151561071457600080fd5b50600160a060020a0381166000908152600460205260408120805460ff191690555b6005548110156107f75760058054600160a060020a03841691908390811061075a57fe5b600091825260209091200154600160a060020a031614156107ef5760058054600019810190811061078757fe5b60009182526020909120015460058054600160a060020a0390921691839081106107ad57fe5b60009182526020909120018054600160a060020a031916600160a060020a03929092169190911790556005805460001901906107e99082613d2c565b506107f7565b600101610736565b5050565b610803613d50565b6000808080851161081357600080fd5b6040805160a08181019092526108ba918d90600590839083908082843750506040805160c081810190925293508f925060069150839083908082843782019150505050508b8b808060200260200160405190810160405280939291908181526020018383602002808284378201915050505050508a8a8080602002602001604051908101604052809392919081815260200183836020028082843750611bed945050505050565b6020810151909450600160a060020a031633146108d657600080fd5b6108e08486611cad565b6101a0840180516000908152600960209081526040808320549351835260089091529020546109149163ffffffff611e1116565b60a085015190935061092c908463ffffffff611e2416565b915061093e828663ffffffff611e3616565b6101a0850151600090815260096020526040902054909150610966908263ffffffff611e1116565b6101a08501805160009081526009602090815260409182902093909355606080880151848901518951848b015195518551600160a060020a039283168152968216978701979097528585018890529285019590955291519181169316917fcfd7c58678e31e293d74b8f7aebbfb1a9c6dd7617df89f9ad0bc9271291df5d3919081900360800190a35050505050505050505050565b60009081526009602052604090205490565b6107f7338383611e4e565b610a7b33338686808060200260200160405190810160405280939291908181526020018383602002808284375050604080516020808c0282810182019093528b82529095508b94508a935083925085019084908082843750612320945050505050565b50505050565b600054600160a060020a03163314610a9857600080fd5b60ff82166000818152600160209081526040918290208054600160a060020a031916600160a060020a03861690811790915582519384529083015280517feee2c0570205f21356a5108d71a4d6e7151682b92a84c761fca82cac87275c289281900390910190a15050565b6107f73333848461239c565b600160a060020a038a16600090815260046020526040812054819060ff161515610b3857600080fd5b8b600160a060020a031663110a25c28c8c8c8c8c8c8c8c8c6040518a63ffffffff1660e060020a028152600401808060200180602001888152602001806020018060200185810385528e8e8281815260200192506020028082843790910186810385528c8152602090810191508d908d0280828437909101868103845289815260200190508989808284379091018681038352878152602001905087878082843782019150509d5050505050505050505050505050602060405180830381600087803b158015610c0757600080fd5b505af1158015610c1b573d6000803e3d6000fd5b505050506040513d6020811015610c3157600080fd5b81019080805190602001909291905050509050600180600501600083600160a060020a0316600160a060020a0316815260200190815260200160002060006101000a81548160ff02191690831515021790555060016006018190806001815401808255809150509060018203906000526020600020016000909192909190916101000a815481600160a060020a030219169083600160a060020a031602179055505080600160a060020a03167f388b9bd51ec792eb7ce238581b3f844072709011b2a20260c428451e07d764a88d8d8d8d8d8d8d8d8d8d604051808b600160a060020a0316600160a060020a031681526020018060200180602001888152602001806020018060200185810385528e8e8281815260200192506020028082843790910186810385528c8152602090810191508d908d0280828437909101868103845289815260200190508989808284379091018681038352878152602001905087878082843782019150509e50505050505050505050505050505060405180910390a29b9a5050505050505050505050565b60606001600601805480602002602001604051908101604052809291908181526020018280548015610e1e57602002820191906000526020600020905b8154600160a060020a03168152600190910190602001808311610e00575b505050505090505b90565b600354604080517fb19ad577000000000000000000000000000000000000000000000000000000008152600160a060020a0386811660048301523360248301528581166044830152606482018590529151919092169163b19ad57791608480830192600092919082900301818387803b158015610ea557600080fd5b505af1158015610eb9573d6000803e3d6000fd5b50505050505050565b600254600160a060020a031690565b600054600160a060020a03163314610ee857600080fd5b60008054604051600160a060020a03909116917ff8df31144d9c2f0f6b59d69b8b98abd5459d07f2742c4df920b25aae33c6482091a260008054600160a060020a0319169055565b60008054600160a060020a03163314610f4857600080fd5b600160a060020a03821660009081526006602052604090205460ff161515610f6f57600080fd5b50600160a060020a0381166000908152600660205260408120805460ff191690555b6007548110156107f75760078054600160a060020a038416919083908110610fb557fe5b600091825260209091200154600160a060020a0316141561104457600780546000198101908110610fe257fe5b60009182526020909120015460078054600160a060020a03909216918390811061100857fe5b60009182526020909120018054600160a060020a031916600160a060020a03929092169190911790556007805460001901906107e99082613d2c565b600101610f91565b600054600160a060020a0316331461106357600080fd5b60038054600160a060020a031916600160a060020a0392909216919091179055565b600160a060020a03821660009081526006602052604090205460ff1615156110ac57600080fd5b81600160a060020a03166342a7cfd56040518163ffffffff1660e060020a028152600401602060405180830381600087803b1580156110ea57600080fd5b505af11580156110fe573d6000803e3d6000fd5b505050506040513d602081101561111457600080fd5b50518181151561112057fe5b061561112b57600080fd5b6107f73383836124b3565b600054600160a060020a031681565b600054600160a060020a0316331461115c57600080fd5b600160a060020a03166000818152600460205260408120805460ff191660019081179091556005805491820181559091527f036b6384b5eca791c62761152d0c79bb0604c104a5fb6f4eb0703f3154bb3db0018054600160a060020a0319169091179055565b60ff16600090815260016020526040902054600160a060020a031690565b600354604080517f80ddda30000000000000000000000000000000000000000000000000000000008152336004820152600160a060020a03858116602483015260448201859052915191909216916380ddda3091606480830192600092919082900301818387803b15801561125457600080fd5b505af1158015611268573d6000803e3d6000fd5b50506003546107f79250600160a060020a031690508383611e4e565b600354600160a060020a0380851660009081526006602052604081205486939290921691606090819083908190819060ff1615156112c157600080fd5b87600160a060020a03166342a7cfd56040518163ffffffff1660e060020a028152600401602060405180830381600087803b1580156112ff57600080fd5b505af1158015611313573d6000803e3d6000fd5b505050506040513d602081101561132957600080fd5b50518a81151561133557fe5b061561134057600080fd5b604080517f9dc29fac000000000000000000000000000000000000000000000000000000008152336004820152602481018c90529051600160a060020a038a1691639dc29fac91604480830192600092919082900301818387803b1580156113a757600080fd5b505af11580156113bb573d6000803e3d6000fd5b5050505087600160a060020a03166342a7cfd56040518163ffffffff1660e060020a028152600401602060405180830381600087803b1580156113fd57600080fd5b505af1158015611411573d6000803e3d6000fd5b505050506040513d602081101561142757600080fd5b5051604080517f99d50d5d0000000000000000000000000000000000000000000000000000000081529051919750600160a060020a038a16916399d50d5d9160048082019260009290919082900301818387803b15801561148757600080fd5b505af115801561149b573d6000803e3d6000fd5b505050506040513d6000823e601f3d908101601f1916820160405260208110156114c457600080fd5b8101908080516401000000008111156114dc57600080fd5b820160208101848111156114ef57600080fd5b815185602082028301116401000000008211171561150c57600080fd5b5050929190505050945087600160a060020a031663027aa9f56040518163ffffffff1660e060020a028152600401600060405180830381600087803b15801561155457600080fd5b505af1158015611568573d6000803e3d6000fd5b505050506040513d6000823e601f3d908101601f19168201604052602081101561159157600080fd5b8101908080516401000000008111156115a957600080fd5b820160208101848111156115bc57600080fd5b81518560208202830111640100000000821117156115d957600080fd5b5090975060009650505050505b845183101561181b57611611848481518110151561160057fe5b90602001906020020151878c612be9565b915086600160a060020a03166380ddda308c878681518110151561163157fe5b90602001906020020151856040518463ffffffff1660e060020a0281526004018084600160a060020a0316600160a060020a0316815260200183600160a060020a0316600160a060020a031681526020018281526020019350505050600060405180830381600087803b1580156116a757600080fd5b505af11580156116bb573d6000803e3d6000fd5b505050600284900a9150508881161561177f5786600160a060020a031663bada57263387868151811015156116ec57fe5b90602001906020020151856040518463ffffffff1660e060020a0281526004018084600160a060020a0316600160a060020a0316815260200183600160a060020a0316600160a060020a031681526020018281526020019350505050600060405180830381600087803b15801561176257600080fd5b505af1158015611776573d6000803e3d6000fd5b50505050611810565b86600160a060020a031663c3b35a7e868581518110151561179c57fe5b602090810290910101516040805160e060020a63ffffffff8516028152600160a060020a0390921660048301523360248301526044820186905251606480830192600092919082900301818387803b1580156117f757600080fd5b505af115801561180b573d6000803e3d6000fd5b505050505b6001909201916115e6565b5050505050505050505050565b600254600354600160a060020a03918216911682565b600080841161184c57600080fd5b6000821161185957600080fd5b83821461186557600080fd5b5060005b838110156118b2576118aa85858381811061188057fe5b90506020020135600160a060020a0316848484818110151561189e57fe5b90506020020135611a4b565b600101611869565b5050505050565b6118c1613d50565b6040805160a081810190925261196f918f90600590839083908082843782019150505050508d600680602002604051908101604052809291908260066020028082843782019150505050508d8d808060200260200160405190810160405280939291908181526020018383602002808284378201915050505050508c8c8080602002602001604051908101604052809392919081815260200183836020028082843750611bed945050505050565b90506119b6816101a0015182602001518888886000818110151561198f57fe5b60200291909101359050898960018181106119a657fe5b9050602002013560001916612c13565b15156119c157600080fd5b6119cb8188611cad565b611a06818885858080601f01602080910402602001604051908101604052809392919081815260200183838082843750612d89945050505050565b611a1981602001518260000151896124b3565b50505050505050505050505050565b600054600160a060020a03163314611a3f57600080fd5b611a48816130e3565b50565b600354604080517f80ddda30000000000000000000000000000000000000000000000000000000008152336004820152600160a060020a038581166024830152604482018590529151919092169182916380ddda309160648082019260009290919082900301818387803b158015611ac257600080fd5b505af1158015611ad6573d6000803e3d6000fd5b5050604080517fc3b35a7e000000000000000000000000000000000000000000000000000000008152600160a060020a038781166004830152336024830152604482018790529151918516935063c3b35a7e925060648082019260009290919082900301818387803b158015610ea557600080fd5b60009081526008602052604090205490565b600354600160a060020a031690565b60606001600401805480602002602001604051908101604052809291908181526020018280548015610e1e57602002820191906000526020600020908154600160a060020a03168152600190910190602001808311610e00575050505050905090565b600160a060020a031660009081526006602052604090205460ff1690565b611bf5613d50565b611bfd613d50565b604080516101c0810182528751600160a060020a0390811682526020808a0151821681840152898401518216838501526060808b01518316818501526080808c015190931683850152895160a080860191909152918a015160c08501529389015160e08401529288015161010083015287015161012082015290860151610140820152610160810185905261018081018490526101a08101611ca188888888613153565b90529695505050505050565b8151600160a060020a03811660009081526006602052604090205460ff161515611cd657600080fd5b60008360c00151118015611cee575060008360a00151115b1515611cf957600080fd5b60e0830151421115611d0a57600080fd5b80600160a060020a03166342a7cfd56040518163ffffffff1660e060020a028152600401602060405180830381600087803b158015611d4857600080fd5b505af1158015611d5c573d6000803e3d6000fd5b505050506040513d6020811015611d7257600080fd5b505160a0840151811515611d8257fe5b0615611d8d57600080fd5b80600160a060020a03166342a7cfd56040518163ffffffff1660e060020a028152600401602060405180830381600087803b158015611dcb57600080fd5b505af1158015611ddf573d6000803e3d6000fd5b505050506040513d6020811015611df557600080fd5b505182811515611e0157fe5b0615611e0c57600080fd5b505050565b81810182811015611e1e57fe5b92915050565b600082821115611e3057fe5b50900390565b6000818310611e455781611e47565b825b9392505050565b600354600160a060020a0380841660009081526006602052604081205485939290921691606090819083908190819060ff161515611e8b57600080fd5b87600160a060020a03166342a7cfd56040518163ffffffff1660e060020a028152600401602060405180830381600087803b158015611ec957600080fd5b505af1158015611edd573d6000803e3d6000fd5b505050506040513d6020811015611ef357600080fd5b505189811515611eff57fe5b0615611f0a57600080fd5b87600160a060020a0316639dc29fac8c8b6040518363ffffffff1660e060020a0281526004018083600160a060020a0316600160a060020a0316815260200182815260200192505050600060405180830381600087803b158015611f6d57600080fd5b505af1158015611f81573d6000803e3d6000fd5b5050505087600160a060020a03166342a7cfd56040518163ffffffff1660e060020a028152600401602060405180830381600087803b158015611fc357600080fd5b505af1158015611fd7573d6000803e3d6000fd5b505050506040513d6020811015611fed57600080fd5b5051604080517f99d50d5d0000000000000000000000000000000000000000000000000000000081529051919750600160a060020a038a16916399d50d5d9160048082019260009290919082900301818387803b15801561204d57600080fd5b505af1158015612061573d6000803e3d6000fd5b505050506040513d6000823e601f3d908101601f19168201604052602081101561208a57600080fd5b8101908080516401000000008111156120a257600080fd5b820160208101848111156120b557600080fd5b81518560208202830111640100000000821117156120d257600080fd5b5050929190505050945087600160a060020a031663027aa9f56040518163ffffffff1660e060020a028152600401600060405180830381600087803b15801561211a57600080fd5b505af115801561212e573d6000803e3d6000fd5b505050506040513d6000823e601f3d908101601f19168201604052602081101561215757600080fd5b81019080805164010000000081111561216f57600080fd5b8201602081018481111561218257600080fd5b815185602082028301116401000000008211171561219f57600080fd5b5090975060009650505050505b84518361ffff16101561181b57848361ffff168151811015156121cb57fe5b9060200190602002015191506121fd848461ffff168151811015156121ec57fe5b90602001906020020151878b612be9565b604080517f80ddda30000000000000000000000000000000000000000000000000000000008152600160a060020a038d811660048301528581166024830152604482018490529151929350908916916380ddda309160648082019260009290919082900301818387803b15801561227357600080fd5b505af1158015612287573d6000803e3d6000fd5b5050604080517fbada5726000000000000000000000000000000000000000000000000000000008152336004820152600160a060020a038681166024830152604482018690529151918b16935063bada5726925060648082019260009290919082900301818387803b1580156122fc57600080fd5b505af1158015612310573d6000803e3d6000fd5b5050600190940193506121ac9050565b600080835111151561233157600080fd5b815160001061233f57600080fd5b815183511461234d57600080fd5b5060005b82518110156118b2576123948585858481518110151561236d57fe5b90602001906020020151858581518110151561238557fe5b9060200190602002015161239c565b600101612351565b6002546003546040805160e060020a63a6c4e467028152600160a060020a03868116600483015260248201869052888116604483015292831660648201529051919092169163a6c4e46791608480830192600092919082900301818387803b15801561240757600080fd5b505af115801561241b573d6000803e3d6000fd5b5050600354604080517fbada5726000000000000000000000000000000000000000000000000000000008152600160a060020a038881166004830152878116602483015260448201879052915191909216935063bada57269250606480830192600092919082900301818387803b15801561249557600080fd5b505af11580156124a9573d6000803e3d6000fd5b5050505050505050565b60008060006060806000806000808a9850600160020160009054906101000a9004600160a060020a0316975088600160a060020a03166342a7cfd56040518163ffffffff1660e060020a028152600401602060405180830381600087803b15801561251d57600080fd5b505af1158015612531573d6000803e3d6000fd5b505050506040513d602081101561254757600080fd5b5051604080517f99d50d5d0000000000000000000000000000000000000000000000000000000081529051919850600160a060020a038b16916399d50d5d9160048082019260009290919082900301818387803b1580156125a757600080fd5b505af11580156125bb573d6000803e3d6000fd5b505050506040513d6000823e601f3d908101601f1916820160405260208110156125e457600080fd5b8101908080516401000000008111156125fc57600080fd5b8201602081018481111561260f57600080fd5b815185602082028301116401000000008211171561262c57600080fd5b5050929190505050955088600160a060020a031663027aa9f56040518163ffffffff1660e060020a028152600401600060405180830381600087803b15801561267457600080fd5b505af1158015612688573d6000803e3d6000fd5b505050506040513d6000823e601f3d908101601f1916820160405260208110156126b157600080fd5b8101908080516401000000008111156126c957600080fd5b820160208101848111156126dc57600080fd5b81518560208202830111640100000000821117156126f957600080fd5b5090985060009750505050505b8551841015612b6057612731858581518110151561272057fe5b90602001906020020151888c612be9565b925087600160a060020a0316631f98ade38d888781518110151561275157fe5b60209081029091018101516040805160e060020a63ffffffff8716028152600160a060020a039485166004820152939091166024840152516044808401938290030181600087803b1580156127a557600080fd5b505af11580156127b9573d6000803e3d6000fd5b505050506040513d60208110156127cf57600080fd5b5051915082821061288b5787600160a060020a03166380ddda308d88878151811015156127f857fe5b90602001906020020151866040518463ffffffff1660e060020a0281526004018084600160a060020a0316600160a060020a0316815260200183600160a060020a0316600160a060020a031681526020018281526020019350505050600060405180830381600087803b15801561286e57600080fd5b505af1158015612882573d6000803e3d6000fd5b50505050612aa8565b60008211156129415787600160a060020a03166380ddda308d88878151811015156128b257fe5b90602001906020020151856040518463ffffffff1660e060020a0281526004018084600160a060020a0316600160a060020a0316815260200183600160a060020a0316600160a060020a031681526020018281526020019350505050600060405180830381600087803b15801561292857600080fd5b505af115801561293c573d6000803e3d6000fd5b505050505b612951838363ffffffff611e2416565b6002548751919250600160a060020a03169063a6c4e4679088908790811061297557fe5b6020908102909101015161298f868663ffffffff611e2416565b8f600160020160009054906101000a9004600160a060020a03166040518563ffffffff1660e060020a0281526004018085600160a060020a0316600160a060020a0316815260200184815260200183600160a060020a0316600160a060020a0316815260200182600160a060020a0316600160a060020a03168152602001945050505050600060405180830381600087803b158015612a2d57600080fd5b505af1158015612a41573d6000803e3d6000fd5b505050508584815181101515612a5357fe5b90602001906020020151600160a060020a03168b600160a060020a03167fced8518610cf00c97309551834addd978c595341eda2066dbd52f9e990489573836040518082815260200191505060405180910390a35b87600160a060020a031663bada57268c8887815181101515612ac657fe5b90602001906020020151866040518463ffffffff1660e060020a0281526004018084600160a060020a0316600160a060020a0316815260200183600160a060020a0316600160a060020a031681526020018281526020019350505050600060405180830381600087803b158015612b3c57600080fd5b505af1158015612b50573d6000803e3d6000fd5b5050600190950194506127069050565b88600160a060020a03166340c10f198d8c6040518363ffffffff1660e060020a0281526004018083600160a060020a0316600160a060020a0316815260200182815260200192505050600060405180830381600087803b158015612bc357600080fd5b505af1158015612bd7573d6000803e3d6000fd5b50505050505050505050505050505050565b6000612c0b84612bff848663ffffffff61337e16565b9063ffffffff61339316565b949350505050565b60008060606040805190810160405280601c81526020017f19457468657265756d205369676e6564204d6573736167653a0a3332000000008152509050600181896040516020018083805190602001908083835b60208310612c865780518252601f199092019160209182019101612c67565b51815160209384036101000a600019018019909216911617905292019384525060408051808503815293820190819052835193945092839250908401908083835b60208310612ce65780518252601f199092019160209182019101612cc7565b51815160209384036101000a60001901801990921691161790526040805192909401829003822060008084528383018087529190915260ff8e1683860152606083018d9052608083018c9052935160a08084019750919550601f1981019492819003909101925090865af1158015612d62573d6000803e3d6000fd5b5050604051601f190151600160a060020a0390811698169790971498975050505050505050565b6003546101a084018051600090815260096020908152604080832054935183526008909152812054600160a060020a03909316929091606091839182918291829182918291612ddd9163ffffffff611e1116565b97508a612df7898e60a00151611e2490919063ffffffff16565b1015612e0257600080fd5b8b610160015151604051908082528060200260200182016040528015612e32578160200160208202803883390190505b509650612e488c60c001518c8e60a001516133bc565b9550600094505b8b6101600151518561ffff161015612f775788600160a060020a0316631f98ade38d602001518e61016001518861ffff16815181101515612e8c57fe5b60209081029091018101516040805160e060020a63ffffffff8716028152600160a060020a039485166004820152939091166024840152516044808401938290030181600087803b158015612ee057600080fd5b505af1158015612ef4573d6000803e3d6000fd5b505050506040513d6020811015612f0a57600080fd5b50516101808d01518051919550612f3e9161ffff8816908110612f2957fe5b906020019060200201518c8e60a001516133bc565b9250612f50848463ffffffff611e1116565b878661ffff16815181101515612f6257fe5b60209081029091010152600190940193612e4f565b612f858a8d60200151613454565b915085821115612f9457600080fd5b600094505b8b6101600151518561ffff16101561308c5788600160a060020a0316631f98ade38d602001518e61016001518861ffff16815181101515612fd657fe5b60209081029091018101516040805160e060020a63ffffffff8716028152600160a060020a039485166004820152939091166024840152516044808401938290030181600087803b15801561302a57600080fd5b505af115801561303e573d6000803e3d6000fd5b505050506040513d602081101561305457600080fd5b50518751909150879061ffff871690811061306b57fe5b6020908102909101015181101561308157600080fd5b600190940193612f99565b6130988c8c88856137e8565b6101a08c01516000908152600860205260409020546130bd908c63ffffffff611e1116565b6101a0909c015160009081526008602052604090209b909b555050505050505050505050565b600160a060020a03811615156130f857600080fd5b60008054604051600160a060020a03808516939216917f8be0079c531659141344cd1fd0a4f28419497f9722a3daafe3b4186f6b6457e091a360008054600160a060020a031916600160a060020a0392909216919091179055565b6000848160200201518560016020020151866002602002015187600360200201518860046020020151886000602002015189600160200201518a600260200201518b600360200201518c600460200201518d600560200201518d8d604051602001808e600160a060020a0316600160a060020a03166c010000000000000000000000000281526014018d600160a060020a0316600160a060020a03166c010000000000000000000000000281526014018c600160a060020a0316600160a060020a03166c010000000000000000000000000281526014018b600160a060020a0316600160a060020a03166c010000000000000000000000000281526014018a600160a060020a0316600160a060020a03166c01000000000000000000000000028152601401898152602001888152602001878152602001868152602001858152602001848152602001838051906020019060200280838360005b838110156132c55781810151838201526020016132ad565b50505050905001828051906020019060200280838360005b838110156132f55781810151838201526020016132dd565b505050509050019d50505050505050505050505050506040516020818303038152906040526040518082805190602001908083835b602083106133495780518252601f19909201916020918201910161332a565b5181516020939093036101000a6000190180199091169216919091179052604051920182900390912098975050505050505050565b6000818381151561338b57fe5b049392505050565b60008215156133a457506000611e1e565b508181028183828115156133b457fe5b0414611e1e57fe5b6000806000838015156133cb57fe5b85870991508115156133fe576133f7846133eb888863ffffffff61339316565b9063ffffffff61337e16565b925061344b565b613424613411868863ffffffff61339316565b6133eb84620f424063ffffffff61339316565b90506103e8811061343457600080fd5b613448846133eb888863ffffffff61339316565b92505b50509392505050565b6000806000613461613dc3565b60008060608060605b8a518810156137d95761347d8b89613971565b805160ff16600090815260016020526040902054909650600160a060020a031694508415156134ab57600080fd5b60808601516134c19060a063ffffffff611e1116565b93506134ed8b6134d88a60a063ffffffff611e1116565b6134e88b8863ffffffff611e1116565b6139d0565b60025460408089015160608a0151825160e060020a63a6c4e467028152600160a060020a03928316600482015260248101919091528e82166044820152898216606482015291519396509091169163a6c4e4679160848082019260009290919082900301818387803b15801561356257600080fd5b505af1158015613576573d6000803e3d6000fd5b50505050856020015160ff166040519080825280602002602001820160405280156135ab578160200160208202803883390190505b509150856020015160ff166040519080825280602002602001820160405280156135df578160200160208202803883390190505b506020808801516040517fbd5b3046000000000000000000000000000000000000000000000000000000008152336004820181815260ff84166024840152606060448401908152895160648501528951969750600160a060020a038c169663bd5b3046969395948b946084909101919085019080838360005b83811015613670578181015183820152602001613658565b50505050905090810190601f16801561369d5780820380516001836020036101000a031916815260200191505b50945050505050600060405180830381600087803b1580156136be57600080fd5b505af11580156136d2573d6000803e3d6000fd5b505050506040513d6000823e601f3d908101601f1916820160409081528110156136fb57600080fd5b81019080805164010000000081111561371357600080fd5b8201602081018481111561372657600080fd5b815185602082028301116401000000008211171561374357600080fd5b5050929190602001805164010000000081111561375f57600080fd5b8201602081018481111561377257600080fd5b815185602082028301116401000000008211171561378f57600080fd5b5094965094506137a993508892508d915085905084612320565b6137b9888563ffffffff611e1116565b97506137d2866060015188611e1190919063ffffffff16565b965061346a565b50949998505050505050505050565b6002546040850151600091600160a060020a03169063a6c4e46790613813868663ffffffff611e2416565b60208901516040805160e060020a63ffffffff8716028152600160a060020a0394851660048201526024810193909352921660448201523360648201529051608480830192600092919082900301818387803b15801561387257600080fd5b505af1158015613886573d6000803e3d6000fd5b505050506060850151600160a060020a0316156138ae576138a78585613b02565b90506138b2565b5060005b8460600151600160a060020a031633600160a060020a03168660200151600160a060020a03167fd96d7e885d794cf0991f8b4a09648f9467003fbe55a3e914bbb366faad261d2b886000015189604001518a608001518a61391c8a8c611e2490919063ffffffff16565b6101a08e015160408051600160a060020a039788168152958716602087015293909516848401526060840191909152608083015260a0820188905260c082019290925290519081900360e00190a45050505050565b613979613dc3565b613981613dc3565b600061399c8461399087613c81565b9063ffffffff611e1116565b8051835260208082015190840152604080820151908401526060808201519084015260809081015190830152509392505050565b606081831115613a4157604080517f08c379a000000000000000000000000000000000000000000000000000000000815260206004820152601a60248201527f46524f4d5f4c4553535f5448414e5f544f5f5245515549524544000000000000604482015290519081900360640190fd5b8351821115613ab157604080517f08c379a000000000000000000000000000000000000000000000000000000000815260206004820152601c60248201527f544f5f4c4553535f5448414e5f4c454e4754485f524551554952454400000000604482015290519081900360640190fd5b8282036040519080825280601f01601f191660200182016040528015613ae1578160200160208202803883390190505b509050611e47613af082613c81565b84613afa87613c81565b018351613c87565b60025461010083015160a0840151600092600160a060020a03169183918291613b2c9187906133bc565b9150613b42866101200151868860a001516133bc565b90506000821115613bd9576080860151602087015160608801516040805160e060020a63a6c4e467028152600160a060020a0394851660048201526024810187905292841660448401529083166064830152519185169163a6c4e4679160848082019260009290919082900301818387803b158015613bc057600080fd5b505af1158015613bd4573d6000803e3d6000fd5b505050505b6000811115613c6757608086015160608701516040805160e060020a63a6c4e467028152600160a060020a039384166004820152602481018590523360448201529183166064830152519185169163a6c4e4679160848082019260009290919082900301818387803b158015613c4e57600080fd5b505af1158015613c62573d6000803e3d6000fd5b505050505b613c77828263ffffffff611e1116565b9695505050505050565b60200190565b6020811015613cb1576001816020036101000a038019835116818551168082178652505050611e0c565b82821415613cbe57611e0c565b82821115613cf85760208103905080820181840181515b82851015613cf0578451865260209586019590940193613cd5565b905250611e0c565b60208103905080820181840183515b81861215613d235782518252601f199283019290910190613d07565b85525050505050565b815481835581811115611e0c57600083815260209020611e0c918101908301613df1565b604080516101c08101825260008082526020820181905291810182905260608082018390526080820183905260a0820183905260c0820183905260e0820183905261010082018390526101208201839052610140820183905261016082018190526101808201526101a081019190915290565b6040805160a08101825260008082526020820181905291810182905260608101829052608081019190915290565b610e2691905b80821115613e0b5760008155600101613df7565b50905600a165627a7a72305820e2b13a0b1391aa018461d6d033c9e417827c520f7e11a1209ff43d1632d5b75c0029",
  "source": "    /*\n    Copyright 2018 Set Labs Inc.\n\n    Licensed under the Apache License, Version 2.0 (the \"License\");\n    you may not use this file except in compliance with the License.\n    You may obtain a copy of the License at\n\n    http://www.apache.org/licenses/LICENSE-2.0\n\n    Unless required by applicable law or agreed to in writing, software\n    distributed under the License is distributed on an \"AS IS\" BASIS,\n    WITHOUT WARRANTIES OR CONDITIONS OF ANY KIND, either express or implied.\n    See the License for the specific language governing permissions and\n    limitations under the License.\n*/\n\npragma solidity 0.4.24;\n\nimport { CoreAccounting } from \"./extensions/CoreAccounting.sol\";\nimport { CoreExchangeDispatcher } from \"./extensions/CoreExchangeDispatcher.sol\";\nimport { CoreFactory } from \"./extensions/CoreFactory.sol\";\nimport { CoreInternal } from \"./extensions/CoreInternal.sol\";\nimport { CoreIssuance } from \"./extensions/CoreIssuance.sol\";\nimport { CoreIssuanceOrder } from \"./extensions/CoreIssuanceOrder.sol\";\n\n\n\n/**\n * @title Core\n * @author Set Protocol\n *\n * The Core contract acts as a coordinator handling issuing, redeeming, and\n * creating Sets, as well as all collateral flows throughout the system.\n */\n /* solium-disable-next-line no-empty-blocks */\ncontract Core is\n    CoreExchangeDispatcher,\n    CoreIssuanceOrder,\n    CoreAccounting,\n    CoreInternal,\n    CoreFactory,\n    CoreIssuance\n{}\n",
  "sourcePath": "/Users/alexsoong/Source/set-protocol/set-protocol-contracts/contracts/core/Core.sol",
  "compiler": {
    "name": "solc",
    "version": "0.4.24+commit.e67f0147.Emscripten.clang"
  },
  "schemaVersion": "2.0.0",
  "updatedAt": "2018-08-10T21:21:49.329Z"
}