{
  "contractName": "CoreIssuance",
  "abi": [
    {
      "constant": true,
      "inputs": [
        {
          "name": "_factory",
          "type": "address"
        }
      ],
      "name": "validFactories",
      "outputs": [
        {
          "name": "",
          "type": "bool"
        }
      ],
      "payable": false,
      "stateMutability": "view",
      "type": "function"
    },
    {
      "constant": true,
      "inputs": [
        {
          "name": "_orderHash",
          "type": "bytes32"
        }
      ],
      "name": "orderCancels",
      "outputs": [
        {
          "name": "",
          "type": "uint256"
        }
      ],
      "payable": false,
      "stateMutability": "view",
      "type": "function"
    },
    {
      "constant": true,
      "inputs": [],
      "name": "setTokens",
      "outputs": [
        {
          "name": "",
          "type": "address[]"
        }
      ],
      "payable": false,
      "stateMutability": "view",
      "type": "function"
    },
    {
      "constant": true,
      "inputs": [],
      "name": "transferProxy",
      "outputs": [
        {
          "name": "",
          "type": "address"
        }
      ],
      "payable": false,
      "stateMutability": "view",
      "type": "function"
    },
    {
      "constant": true,
      "inputs": [
        {
          "name": "_exchangeId",
          "type": "uint8"
        }
      ],
      "name": "exchanges",
      "outputs": [
        {
          "name": "",
          "type": "address"
        }
      ],
      "payable": false,
      "stateMutability": "view",
      "type": "function"
    },
    {
      "constant": true,
      "inputs": [],
      "name": "state",
      "outputs": [
        {
          "name": "transferProxy",
          "type": "address"
        },
        {
          "name": "vault",
          "type": "address"
        }
      ],
      "payable": false,
      "stateMutability": "view",
      "type": "function"
    },
    {
      "constant": true,
      "inputs": [
        {
          "name": "_orderHash",
          "type": "bytes32"
        }
      ],
      "name": "orderFills",
      "outputs": [
        {
          "name": "",
          "type": "uint256"
        }
      ],
      "payable": false,
      "stateMutability": "view",
      "type": "function"
    },
    {
      "constant": true,
      "inputs": [],
      "name": "vault",
      "outputs": [
        {
          "name": "",
          "type": "address"
        }
      ],
      "payable": false,
      "stateMutability": "view",
      "type": "function"
    },
    {
      "constant": true,
      "inputs": [],
      "name": "factories",
      "outputs": [
        {
          "name": "",
          "type": "address[]"
        }
      ],
      "payable": false,
      "stateMutability": "view",
      "type": "function"
    },
    {
      "constant": true,
      "inputs": [
        {
          "name": "_set",
          "type": "address"
        }
      ],
      "name": "validSets",
      "outputs": [
        {
          "name": "",
          "type": "bool"
        }
      ],
      "payable": false,
      "stateMutability": "view",
      "type": "function"
    },
    {
      "anonymous": false,
      "inputs": [
        {
          "indexed": true,
          "name": "_setToken",
          "type": "address"
        },
        {
          "indexed": true,
          "name": "_component",
          "type": "address"
        },
        {
          "indexed": false,
          "name": "_quantity",
          "type": "uint256"
        }
      ],
      "name": "IssuanceComponentDeposited",
      "type": "event"
    },
    {
      "constant": false,
      "inputs": [
        {
          "name": "_set",
          "type": "address"
        },
        {
          "name": "_quantity",
          "type": "uint256"
        }
      ],
      "name": "issue",
      "outputs": [],
      "payable": false,
      "stateMutability": "nonpayable",
      "type": "function"
    },
    {
      "constant": false,
      "inputs": [
        {
          "name": "_set",
          "type": "address"
        },
        {
          "name": "_quantity",
          "type": "uint256"
        }
      ],
      "name": "redeem",
      "outputs": [],
      "payable": false,
      "stateMutability": "nonpayable",
      "type": "function"
    },
    {
      "constant": false,
      "inputs": [
        {
          "name": "_set",
          "type": "address"
        },
        {
          "name": "_quantity",
          "type": "uint256"
        },
        {
          "name": "_toWithdraw",
          "type": "uint256"
        }
      ],
      "name": "redeemAndWithdraw",
      "outputs": [],
      "payable": false,
      "stateMutability": "nonpayable",
      "type": "function"
    }
  ],
  "bytecode": "0x608060405234801561001057600080fd5b50611782806100206000396000f3006080604052600436106100ab5763ffffffff60e060020a6000350416630e4355d481146100b05780631e912bd6146100e55780631e9a69501461010f578063559ed339146101355780636e667db31461019a578063867904b4146101cb578063a003e069146101ef578063ac842c661461020a578063c19d93fb14610231578063f7213db61461026c578063fbfa77cf14610284578063fe5b38e414610299578063fef3ee73146102ae575b600080fd5b3480156100bc57600080fd5b506100d1600160a060020a03600435166102cf565b604080519115158252519081900360200190f35b3480156100f157600080fd5b506100fd6004356102ed565b60408051918252519081900360200190f35b34801561011b57600080fd5b50610133600160a060020a03600435166024356102ff565b005b34801561014157600080fd5b5061014a6107e1565b60408051602080825283518183015283519192839290830191858101910280838360005b8381101561018657818101518382015260200161016e565b505050509050019250505060405180910390f35b3480156101a657600080fd5b506101af610846565b60408051600160a060020a039092168252519081900360200190f35b3480156101d757600080fd5b50610133600160a060020a0360043516602435610855565b3480156101fb57600080fd5b506101af60ff6004351661090a565b34801561021657600080fd5b50610133600160a060020a0360043516602435604435610928565b34801561023d57600080fd5b50610246610ecc565b60408051600160a060020a03938416815291909216602082015281519081900390910190f35b34801561027857600080fd5b506100fd600435610ee2565b34801561029057600080fd5b506101af610ef4565b3480156102a557600080fd5b5061014a610f03565b3480156102ba57600080fd5b506100d1600160a060020a0360043516610f66565b600160a060020a031660009081526003602052604090205460ff1690565b60009081526008602052604090205490565b600254600160a060020a0380841660009081526005602052604081205485939290921691606090819083908190819060ff16151561033c57600080fd5b87600160a060020a03166342a7cfd56040518163ffffffff1660e060020a028152600401602060405180830381600087803b15801561037a57600080fd5b505af115801561038e573d6000803e3d6000fd5b505050506040513d60208110156103a457600080fd5b5051898115156103b057fe5b06156103bb57600080fd5b604080517f9dc29fac000000000000000000000000000000000000000000000000000000008152336004820152602481018b90529051600160a060020a038a1691639dc29fac91604480830192600092919082900301818387803b15801561042257600080fd5b505af1158015610436573d6000803e3d6000fd5b5050505087600160a060020a03166342a7cfd56040518163ffffffff1660e060020a028152600401602060405180830381600087803b15801561047857600080fd5b505af115801561048c573d6000803e3d6000fd5b505050506040513d60208110156104a257600080fd5b5051604080517f99d50d5d0000000000000000000000000000000000000000000000000000000081529051919750600160a060020a038a16916399d50d5d9160048082019260009290919082900301818387803b15801561050257600080fd5b505af1158015610516573d6000803e3d6000fd5b505050506040513d6000823e601f3d908101601f19168201604052602081101561053f57600080fd5b81019080805164010000000081111561055757600080fd5b8201602081018481111561056a57600080fd5b815185602082028301116401000000008211171561058757600080fd5b5050929190505050945087600160a060020a031663027aa9f56040518163ffffffff1660e060020a028152600401600060405180830381600087803b1580156105cf57600080fd5b505af11580156105e3573d6000803e3d6000fd5b505050506040513d6000823e601f3d908101601f19168201604052602081101561060c57600080fd5b81019080805164010000000081111561062457600080fd5b8201602081018481111561063757600080fd5b815185602082028301116401000000008211171561065457600080fd5b5090975060009650505050505b84518361ffff1610156107d557848361ffff1681518110151561068057fe5b9060200190602002015191506106b2848461ffff168151811015156106a157fe5b90602001906020020151878b610f84565b604080517f80ddda30000000000000000000000000000000000000000000000000000000008152600160a060020a038d811660048301528581166024830152604482018490529151929350908916916380ddda309160648082019260009290919082900301818387803b15801561072857600080fd5b505af115801561073c573d6000803e3d6000fd5b5050604080517fbada5726000000000000000000000000000000000000000000000000000000008152336004820152600160a060020a038681166024830152604482018690529151918b16935063bada5726925060648082019260009290919082900301818387803b1580156107b157600080fd5b505af11580156107c5573d6000803e3d6000fd5b5050600190940193506106619050565b50505050505050505050565b6060600060060180548060200260200160405190810160405280929190818152602001828054801561083c57602002820191906000526020600020905b8154600160a060020a0316815260019091019060200180831161081e575b5050505050905090565b600154600160a060020a031690565b600160a060020a03821660009081526005602052604090205460ff16151561087c57600080fd5b81600160a060020a03166342a7cfd56040518163ffffffff1660e060020a028152600401602060405180830381600087803b1580156108ba57600080fd5b505af11580156108ce573d6000803e3d6000fd5b505050506040513d60208110156108e457600080fd5b5051818115156108f057fe5b06156108fb57600080fd5b610906338383610fae565b5050565b60ff16600090815260208190526040902054600160a060020a031690565b600254600160a060020a0380851660009081526005602052604081205486939290921691606090819083908190819060ff16151561096557600080fd5b87600160a060020a03166342a7cfd56040518163ffffffff1660e060020a028152600401602060405180830381600087803b1580156109a357600080fd5b505af11580156109b7573d6000803e3d6000fd5b505050506040513d60208110156109cd57600080fd5b50518a8115156109d957fe5b06156109e457600080fd5b604080517f9dc29fac000000000000000000000000000000000000000000000000000000008152336004820152602481018c90529051600160a060020a038a1691639dc29fac91604480830192600092919082900301818387803b158015610a4b57600080fd5b505af1158015610a5f573d6000803e3d6000fd5b5050505087600160a060020a03166342a7cfd56040518163ffffffff1660e060020a028152600401602060405180830381600087803b158015610aa157600080fd5b505af1158015610ab5573d6000803e3d6000fd5b505050506040513d6020811015610acb57600080fd5b5051604080517f99d50d5d0000000000000000000000000000000000000000000000000000000081529051919750600160a060020a038a16916399d50d5d9160048082019260009290919082900301818387803b158015610b2b57600080fd5b505af1158015610b3f573d6000803e3d6000fd5b505050506040513d6000823e601f3d908101601f191682016040526020811015610b6857600080fd5b810190808051640100000000811115610b8057600080fd5b82016020810184811115610b9357600080fd5b8151856020820283011164010000000082111715610bb057600080fd5b5050929190505050945087600160a060020a031663027aa9f56040518163ffffffff1660e060020a028152600401600060405180830381600087803b158015610bf857600080fd5b505af1158015610c0c573d6000803e3d6000fd5b505050506040513d6000823e601f3d908101601f191682016040526020811015610c3557600080fd5b810190808051640100000000811115610c4d57600080fd5b82016020810184811115610c6057600080fd5b8151856020820283011164010000000082111715610c7d57600080fd5b5090975060009650505050505b8451831015610ebf57610cb58484815181101515610ca457fe5b90602001906020020151878c610f84565b915086600160a060020a03166380ddda308c8786815181101515610cd557fe5b90602001906020020151856040518463ffffffff1660e060020a0281526004018084600160a060020a0316600160a060020a0316815260200183600160a060020a0316600160a060020a031681526020018281526020019350505050600060405180830381600087803b158015610d4b57600080fd5b505af1158015610d5f573d6000803e3d6000fd5b505050600284900a91505088811615610e075786600160a060020a031663c3b35a7e8685815181101515610d8f57fe5b602090810290910101516040805160e060020a63ffffffff8516028152600160a060020a0390921660048301523360248301526044820186905251606480830192600092919082900301818387803b158015610dea57600080fd5b505af1158015610dfe573d6000803e3d6000fd5b50505050610eb4565b86600160a060020a031663bada5726338786815181101515610e2557fe5b90602001906020020151856040518463ffffffff1660e060020a0281526004018084600160a060020a0316600160a060020a0316815260200183600160a060020a0316600160a060020a031681526020018281526020019350505050600060405180830381600087803b158015610e9b57600080fd5b505af1158015610eaf573d6000803e3d6000fd5b505050505b600190920191610c8a565b5050505050505050505050565b600154600254600160a060020a03918216911682565b60009081526007602052604090205490565b600254600160a060020a031690565b6060600060040180548060200260200160405190810160405280929190818152602001828054801561083c57602002820191906000526020600020908154600160a060020a0316815260019091019060200180831161081e575050505050905090565b600160a060020a031660009081526005602052604090205460ff1690565b6000610fa684610f9a848663ffffffff61170416565b9063ffffffff61171b16565b949350505050565b60008060006060806000806000808a9850600060020160009054906101000a9004600160a060020a0316975088600160a060020a03166342a7cfd56040518163ffffffff1660e060020a028152600401602060405180830381600087803b15801561101857600080fd5b505af115801561102c573d6000803e3d6000fd5b505050506040513d602081101561104257600080fd5b5051604080517f99d50d5d0000000000000000000000000000000000000000000000000000000081529051919850600160a060020a038b16916399d50d5d9160048082019260009290919082900301818387803b1580156110a257600080fd5b505af11580156110b6573d6000803e3d6000fd5b505050506040513d6000823e601f3d908101601f1916820160405260208110156110df57600080fd5b8101908080516401000000008111156110f757600080fd5b8201602081018481111561110a57600080fd5b815185602082028301116401000000008211171561112757600080fd5b5050929190505050955088600160a060020a031663027aa9f56040518163ffffffff1660e060020a028152600401600060405180830381600087803b15801561116f57600080fd5b505af1158015611183573d6000803e3d6000fd5b505050506040513d6000823e601f3d908101601f1916820160405260208110156111ac57600080fd5b8101908080516401000000008111156111c457600080fd5b820160208101848111156111d757600080fd5b81518560208202830111640100000000821117156111f457600080fd5b5090985060009750505050505b85518461ffff16101561167b57611234858561ffff1681518110151561122357fe5b90602001906020020151888c610f84565b925087600160a060020a0316631f98ade38d888761ffff1681518110151561125857fe5b60209081029091018101516040805160e060020a63ffffffff8716028152600160a060020a039485166004820152939091166024840152516044808401938290030181600087803b1580156112ac57600080fd5b505af11580156112c0573d6000803e3d6000fd5b505050506040513d60208110156112d657600080fd5b505191508282106113965787600160a060020a03166380ddda308d888761ffff1681518110151561130357fe5b90602001906020020151866040518463ffffffff1660e060020a0281526004018084600160a060020a0316600160a060020a0316815260200183600160a060020a0316600160a060020a031681526020018281526020019350505050600060405180830381600087803b15801561137957600080fd5b505af115801561138d573d6000803e3d6000fd5b505050506115bf565b60008211156114505787600160a060020a03166380ddda308d888761ffff168151811015156113c157fe5b90602001906020020151856040518463ffffffff1660e060020a0281526004018084600160a060020a0316600160a060020a0316815260200183600160a060020a0316600160a060020a031681526020018281526020019350505050600060405180830381600087803b15801561143757600080fd5b505af115801561144b573d6000803e3d6000fd5b505050505b611460838363ffffffff61174416565b6001548751919250600160a060020a03169063a6c4e46790889061ffff881690811061148857fe5b602090810290910101516114a2868663ffffffff61174416565b8f600060020160009054906101000a9004600160a060020a03166040518563ffffffff1660e060020a0281526004018085600160a060020a0316600160a060020a0316815260200184815260200183600160a060020a0316600160a060020a0316815260200182600160a060020a0316600160a060020a03168152602001945050505050600060405180830381600087803b15801561154057600080fd5b505af1158015611554573d6000803e3d6000fd5b50505050858461ffff1681518110151561156a57fe5b90602001906020020151600160a060020a03168b600160a060020a03167fced8518610cf00c97309551834addd978c595341eda2066dbd52f9e990489573836040518082815260200191505060405180910390a35b87600160a060020a031663bada57268c888761ffff168151811015156115e157fe5b90602001906020020151866040518463ffffffff1660e060020a0281526004018084600160a060020a0316600160a060020a0316815260200183600160a060020a0316600160a060020a031681526020018281526020019350505050600060405180830381600087803b15801561165757600080fd5b505af115801561166b573d6000803e3d6000fd5b5050600190950194506112019050565b88600160a060020a03166340c10f198d8c6040518363ffffffff1660e060020a0281526004018083600160a060020a0316600160a060020a0316815260200182815260200192505050600060405180830381600087803b1580156116de57600080fd5b505af11580156116f2573d6000803e3d6000fd5b50505050505050505050505050505050565b6000818381151561171157fe5b0490505b92915050565b600082151561172c57506000611715565b5081810281838281151561173c57fe5b041461171557fe5b60008282111561175057fe5b509003905600a165627a7a723058209761381e81706e2bac43871466e24d594c21e6829389cb2ec3f904023b7c82ba0029",
  "source": "/*\n    Copyright 2018 Set Labs Inc.\n\n    Licensed under the Apache License, Version 2.0 (the \"License\");\n    you may not use this file except in compliance with the License.\n    You may obtain a copy of the License at\n\n    http://www.apache.org/licenses/LICENSE-2.0\n\n    Unless required by applicable law or agreed to in writing, software\n    distributed under the License is distributed on an \"AS IS\" BASIS,\n    WITHOUT WARRANTIES OR CONDITIONS OF ANY KIND, either express or implied.\n    See the License for the specific language governing permissions and\n    limitations under the License.\n*/\n\npragma solidity 0.4.24;\n\nimport { SafeMath } from \"zeppelin-solidity/contracts/math/SafeMath.sol\";\nimport { CoreState } from \"../lib/CoreState.sol\";\nimport { ISetToken } from \"../interfaces/ISetToken.sol\";\nimport { ITransferProxy } from \"../interfaces/ITransferProxy.sol\";\nimport { IVault } from \"../interfaces/IVault.sol\";\n\n\n/**\n * @title Core Issuance\n * @author Set Protocol\n *\n * The CoreIssuance contract contains function related to issuing and\n * redeeming Sets.\n */\ncontract CoreIssuance is\n    CoreState\n{\n    // Use SafeMath library for all uint256 arithmetic\n    using SafeMath for uint256;\n\n    /* ============ Events ============ */\n\n    event IssuanceComponentDeposited(\n        address indexed _setToken,\n        address indexed _component,\n        uint _quantity\n    );\n\n    /* ============ External Functions ============ */\n\n    /**\n     * Exchanges components for Set Tokens\n     *\n     * @param  _set          Address of set to issue\n     * @param  _quantity     Quantity of set to issue\n     */\n    function issue(\n        address _set,\n        uint _quantity\n    )\n        external\n    {\n        // Verify Set was created by Core and is enabled\n        require(state.validSets[_set]);\n\n        // Validate quantity is multiple of natural unit\n        require(_quantity % ISetToken(_set).naturalUnit() == 0);\n\n        // Run issueInternal\n        issueInternal(\n            msg.sender,\n            _set,\n            _quantity\n        );\n    }\n\n    /**\n     * Function to convert Set Tokens into underlying components\n     *\n     * @param _set          The address of the Set token\n     * @param _quantity     The number of tokens to redeem\n     */\n    function redeem(\n        address _set,\n        uint _quantity\n    )\n        external\n    {\n        // Declare interface variables\n        ISetToken setToken = ISetToken(_set);\n        IVault vault = IVault(state.vault);\n\n        // Verify Set was created by Core and is enabled\n        require(state.validSets[_set]);\n\n        // Validate quantity is multiple of natural unit\n        require(_quantity % setToken.naturalUnit() == 0);\n\n        // Burn the Set token (thereby decrementing the SetToken balance)\n        setToken.burn(msg.sender, _quantity);\n\n        // Fetch Set token properties\n        uint naturalUnit = setToken.naturalUnit();\n        address[] memory components = setToken.getComponents();\n        uint[] memory units = setToken.getUnits();\n\n        // Transfer the underlying tokens to the corresponding token balances\n        for (uint16 i = 0; i < components.length; i++) {\n            address currentComponent = components[i];\n\n            // Calculate redeemable amount of tokens\n            uint tokenValue = calculateTransferValue(\n                units[i],\n                naturalUnit,\n                _quantity\n            );\n\n            // Decrement the Set amount\n            vault.decrementTokenOwner(\n                _set,\n                currentComponent,\n                tokenValue\n            );\n\n            // Increment the component amount\n            vault.incrementTokenOwner(\n                msg.sender,\n                currentComponent,\n                tokenValue\n            );\n        }\n    }\n\n    /**\n     * Composite method to redeem and withdraw with a single transaction\n     *\n     * Normally, you should expect to be able to withdraw all of the tokens.\n     * However, some have central abilities to freeze transfers (e.g. EOS). _toWithdraw\n     * allows you to optionally specify which component tokens to transfer\n     * back to the user. The rest will remain in the vault under the users' addresses.\n     *\n     * @param _set          The address of the Set token\n     * @param _quantity     The number of tokens to redeem\n     * @param _toWithdraw   Mask of indexes of tokens to withdraw\n     */\n    function redeemAndWithdraw(\n        address _set,\n        uint _quantity,\n        uint _toWithdraw\n    )\n        external\n    {\n        // Declare interface variables\n        ISetToken setToken = ISetToken(_set);\n        IVault vault = IVault(state.vault);\n\n        // Verify Set was created by Core and is enabled\n        require(state.validSets[_set]);\n\n        // Validate quantity is multiple of natural unit\n        require(_quantity % setToken.naturalUnit() == 0);\n\n        // Burn the Set token (thereby decrementing the SetToken balance)\n        setToken.burn(msg.sender, _quantity);\n\n        // Fetch Set token properties\n        uint naturalUnit = setToken.naturalUnit();\n        address[] memory components = setToken.getComponents();\n        uint[] memory units = setToken.getUnits();\n\n        // Loop through and decrement vault balances for the set, withdrawing if requested\n        for (uint i = 0; i < components.length; i++) {\n            // Calculate quantity to transfer\n            uint componentQuantity = calculateTransferValue(\n                units[i],\n                naturalUnit,\n                _quantity\n            );\n\n            // Decrement the component amount owned by the Set\n            vault.decrementTokenOwner(\n                _set,\n                components[i],\n                componentQuantity\n            );\n\n            // Calculate bit index of current component\n            uint componentBitIndex = 2 ** i;\n\n            // Transfer to user if component is included in _toWithdraw\n            if ((_toWithdraw & componentBitIndex) != 0) {\n                // Call Vault to withdraw tokens from Vault to user\n                vault.withdrawTo(\n                    components[i],\n                    msg.sender,\n                    componentQuantity\n                );\n            } else {\n                // Otherwise, increment the component amount for the user\n                vault.incrementTokenOwner(\n                    msg.sender,\n                    components[i],\n                    componentQuantity\n                );\n            }\n        }\n    }\n\n    /* ============ Internal Functions ============ */\n\n    /**\n     * Exchanges components for Set Tokens, accepting any owner\n     *\n     * @param  _owner        Address to issue set to\n     * @param  _set          Address of set to issue\n     * @param  _quantity     Quantity of set to issue\n     */\n    function issueInternal(\n        address _owner,\n        address _set,\n        uint _quantity\n    )\n        internal\n    {\n        // Declare interface variables\n        ISetToken setToken = ISetToken(_set);\n        IVault vault = IVault(state.vault);\n\n        // Fetch set token properties\n        uint naturalUnit = setToken.naturalUnit();\n        address[] memory components = setToken.getComponents();\n        uint[] memory units = setToken.getUnits();\n\n        // Inspect vault for required component quantity\n        for (uint16 i = 0; i < components.length; i++) {\n\n            // Calculate required component quantity\n            uint requiredComponentQuantity = calculateTransferValue(\n                units[i],\n                naturalUnit,\n                _quantity\n            );\n\n            // Fetch component quantity in vault\n            uint vaultBalance = vault.getOwnerBalance(\n                _owner,\n                components[i]\n            );\n\n            if (vaultBalance >= requiredComponentQuantity) {\n                // Decrement vault balance by the required component quantity\n                vault.decrementTokenOwner(\n                    _owner,\n                    components[i],\n                    requiredComponentQuantity\n                );\n            } else {\n                // User has less than required amount, decrement the vault by full balance\n                if (vaultBalance > 0) {\n                    vault.decrementTokenOwner(\n                        _owner,\n                        components[i],\n                        vaultBalance\n                    );\n                }\n\n                // Calculate remainder to deposit\n                uint amountToDeposit = requiredComponentQuantity.sub(vaultBalance);\n\n                // Transfer the remainder component quantity required to vault\n                ITransferProxy(state.transferProxy).transfer(\n                    components[i],\n                    requiredComponentQuantity.sub(vaultBalance),\n                    _owner,\n                    state.vault\n                );\n\n                // Log transfer of component from issuer wallet\n                emit IssuanceComponentDeposited(\n                    _set,\n                    components[i],\n                    amountToDeposit\n                );\n            }\n\n            // Increment the vault balance of the set token for the component\n            vault.incrementTokenOwner(\n                _set,\n                components[i],\n                requiredComponentQuantity\n            );\n        }\n\n        // Issue set token\n        setToken.mint(\n            _owner,\n            _quantity\n        );\n    }\n\n    /**\n     * Function to calculate the transfer value of a component given quantity of Set\n     *\n     * @param _componentUnits   The units of the component token\n     * @param _naturalUnit      The natural unit of the Set token\n     * @param _quantity         The number of tokens being redeem\n     */\n    function calculateTransferValue(\n        uint _componentUnits,\n        uint _naturalUnit,\n        uint _quantity\n    )\n        pure\n        internal\n        returns (uint)\n    {\n        return _quantity.div(_naturalUnit).mul(_componentUnits);\n    }\n}\n",
  "sourcePath": "/Users/justinkchen/workspace/set-protocol-contracts/contracts/core/extensions/CoreIssuance.sol",
  "compiler": {
    "name": "solc",
    "version": "0.4.24+commit.e67f0147.Emscripten.clang"
  },
  "schemaVersion": "2.0.0",
  "updatedAt": "2018-08-07T05:35:59.443Z"
}