{
  "contractName": "CoreFactory",
  "abi": [
    {
      "constant": true,
      "inputs": [
        {
          "name": "_factory",
          "type": "address"
        }
      ],
      "name": "validFactories",
      "outputs": [
        {
          "name": "",
          "type": "bool"
        }
      ],
      "payable": false,
      "stateMutability": "view",
      "type": "function"
    },
    {
      "constant": true,
      "inputs": [
        {
          "name": "_orderHash",
          "type": "bytes32"
        }
      ],
      "name": "orderCancels",
      "outputs": [
        {
          "name": "",
          "type": "uint256"
        }
      ],
      "payable": false,
      "stateMutability": "view",
      "type": "function"
    },
    {
      "constant": true,
      "inputs": [],
      "name": "setTokens",
      "outputs": [
        {
          "name": "",
          "type": "address[]"
        }
      ],
      "payable": false,
      "stateMutability": "view",
      "type": "function"
    },
    {
      "constant": true,
      "inputs": [],
      "name": "transferProxy",
      "outputs": [
        {
          "name": "",
          "type": "address"
        }
      ],
      "payable": false,
      "stateMutability": "view",
      "type": "function"
    },
    {
      "constant": true,
      "inputs": [
        {
          "name": "_exchangeId",
          "type": "uint8"
        }
      ],
      "name": "exchanges",
      "outputs": [
        {
          "name": "",
          "type": "address"
        }
      ],
      "payable": false,
      "stateMutability": "view",
      "type": "function"
    },
    {
      "constant": true,
      "inputs": [],
      "name": "state",
      "outputs": [
        {
          "name": "transferProxy",
          "type": "address"
        },
        {
          "name": "vault",
          "type": "address"
        }
      ],
      "payable": false,
      "stateMutability": "view",
      "type": "function"
    },
    {
      "constant": true,
      "inputs": [
        {
          "name": "_orderHash",
          "type": "bytes32"
        }
      ],
      "name": "orderFills",
      "outputs": [
        {
          "name": "",
          "type": "uint256"
        }
      ],
      "payable": false,
      "stateMutability": "view",
      "type": "function"
    },
    {
      "constant": true,
      "inputs": [],
      "name": "vault",
      "outputs": [
        {
          "name": "",
          "type": "address"
        }
      ],
      "payable": false,
      "stateMutability": "view",
      "type": "function"
    },
    {
      "constant": true,
      "inputs": [],
      "name": "factories",
      "outputs": [
        {
          "name": "",
          "type": "address[]"
        }
      ],
      "payable": false,
      "stateMutability": "view",
      "type": "function"
    },
    {
      "constant": true,
      "inputs": [
        {
          "name": "_set",
          "type": "address"
        }
      ],
      "name": "validSets",
      "outputs": [
        {
          "name": "",
          "type": "bool"
        }
      ],
      "payable": false,
      "stateMutability": "view",
      "type": "function"
    },
    {
      "anonymous": false,
      "inputs": [
        {
          "indexed": true,
          "name": "_setTokenAddress",
          "type": "address"
        },
        {
          "indexed": false,
          "name": "_factory",
          "type": "address"
        },
        {
          "indexed": false,
          "name": "_components",
          "type": "address[]"
        },
        {
          "indexed": false,
          "name": "_units",
          "type": "uint256[]"
        },
        {
          "indexed": false,
          "name": "_naturalUnit",
          "type": "uint256"
        },
        {
          "indexed": false,
          "name": "_name",
          "type": "string"
        },
        {
          "indexed": false,
          "name": "_symbol",
          "type": "string"
        }
      ],
      "name": "SetTokenCreated",
      "type": "event"
    },
    {
      "constant": false,
      "inputs": [
        {
          "name": "_factory",
          "type": "address"
        },
        {
          "name": "_components",
          "type": "address[]"
        },
        {
          "name": "_units",
          "type": "uint256[]"
        },
        {
          "name": "_naturalUnit",
          "type": "uint256"
        },
        {
          "name": "_name",
          "type": "string"
        },
        {
          "name": "_symbol",
          "type": "string"
        }
      ],
      "name": "create",
      "outputs": [
        {
          "name": "",
          "type": "address"
        }
      ],
      "payable": false,
      "stateMutability": "nonpayable",
      "type": "function"
    }
  ],
  "bytecode": "0x608060405234801561001057600080fd5b50610826806100206000396000f3006080604052600436106100ae5763ffffffff7c01000000000000000000000000000000000000000000000000000000006000350416630e4355d481146100b35780631e912bd6146100e85780635290444914610112578063559ed339146101835780636e667db3146101e8578063a003e069146101fd578063c19d93fb14610218578063f7213db614610253578063fbfa77cf1461026b578063fe5b38e414610280578063fef3ee7314610295575b600080fd5b3480156100bf57600080fd5b506100d4600160a060020a03600435166102b6565b604080519115158252519081900360200190f35b3480156100f457600080fd5b506101006004356102d4565b60408051918252519081900360200190f35b34801561011e57600080fd5b5061016760048035600160a060020a031690602480358082019290810135916044358082019290810135916064359160843580830192908201359160a4359182019101356102e6565b60408051600160a060020a039092168252519081900360200190f35b34801561018f57600080fd5b506101986106b0565b60408051602080825283518183015283519192839290830191858101910280838360005b838110156101d45781810151838201526020016101bc565b505050509050019250505060405180910390f35b3480156101f457600080fd5b50610167610715565b34801561020957600080fd5b5061016760ff60043516610724565b34801561022457600080fd5b5061022d610742565b60408051600160a060020a03938416815291909216602082015281519081900390910190f35b34801561025f57600080fd5b50610100600435610758565b34801561027757600080fd5b5061016761076a565b34801561028c57600080fd5b50610198610779565b3480156102a157600080fd5b506100d4600160a060020a03600435166107dc565b600160a060020a031660009081526003602052604090205460ff1690565b60009081526008602052604090205490565b600160a060020a038a166000908152600360209081526040808320548151606081018352602681527f466163746f72792069732064697361626c6564206f7220646f6573206e6f7420938101939093527f65786973742e00000000000000000000000000000000000000000000000000009183019190915282918d9160ff161515610409576040517f08c379a00000000000000000000000000000000000000000000000000000000081526004018080602001828103825283818151815260200191508051906020019080838360005b838110156103ce5781810151838201526020016103b6565b50505050905090810190601f1680156103fb5780820380516001836020036101000a031916815260200191505b509250505060405180910390fd5b508c600160a060020a031663110a25c28d8d8d8d8d8d8d8d8d6040518a63ffffffff167c0100000000000000000000000000000000000000000000000000000000028152600401808060200180602001888152602001806020018060200185810385528e8e8281815260200192506020028082843790910186810385528c8152602090810191508d908d0280828437909101868103845289815260200190508989808284379091018681038352878152602001905087878082843782019150509d5050505050505050505050505050602060405180830381600087803b1580156104f257600080fd5b505af1158015610506573d6000803e3d6000fd5b505050506040513d602081101561051c57600080fd5b8101908080519060200190929190505050915060016000600501600084600160a060020a0316600160a060020a0316815260200190815260200160002060006101000a81548160ff02191690831515021790555060006006018290806001815401808255809150509060018203906000526020600020016000909192909190916101000a815481600160a060020a030219169083600160a060020a031602179055505081600160a060020a03167f388b9bd51ec792eb7ce238581b3f844072709011b2a20260c428451e07d764a88e8e8e8e8e8e8e8e8e8e604051808b600160a060020a0316600160a060020a031681526020018060200180602001888152602001806020018060200185810385528e8e8281815260200192506020028082843790910186810385528c8152602090810191508d908d0280828437909101868103845289815260200190508989808284379091018681038352878152602001905087878082843782019150509e50505050505050505050505050505060405180910390a2509b9a5050505050505050505050565b6060600060060180548060200260200160405190810160405280929190818152602001828054801561070b57602002820191906000526020600020905b8154600160a060020a031681526001909101906020018083116106ed575b5050505050905090565b600154600160a060020a031690565b60ff16600090815260208190526040902054600160a060020a031690565b600154600254600160a060020a03918216911682565b60009081526007602052604090205490565b600254600160a060020a031690565b6060600060040180548060200260200160405190810160405280929190818152602001828054801561070b57602002820191906000526020600020908154600160a060020a031681526001909101906020018083116106ed575050505050905090565b600160a060020a031660009081526005602052604090205460ff16905600a165627a7a723058201951014e8038d415a0c9e1f3865d1f64350b919403887f87a6abd79099fe2eec0029",
  "source": "/*\n    Copyright 2018 Set Labs Inc.\n\n    Licensed under the Apache License, Version 2.0 (the \"License\");\n    you may not use this file except in compliance with the License.\n    You may obtain a copy of the License at\n\n    http://www.apache.org/licenses/LICENSE-2.0\n\n    Unless required by applicable law or agreed to in writing, software\n    distributed under the License is distributed on an \"AS IS\" BASIS,\n    WITHOUT WARRANTIES OR CONDITIONS OF ANY KIND, either express or implied.\n    See the License for the specific language governing permissions and\n    limitations under the License.\n*/\n\npragma solidity 0.4.24;\n\nimport { SafeMath } from \"zeppelin-solidity/contracts/math/SafeMath.sol\";\nimport { CoreModifiers } from \"../lib/CoreSharedModifiers.sol\";\nimport { CoreState } from \"../lib/CoreState.sol\";\nimport { ISetFactory } from \"../interfaces/ISetFactory.sol\";\n\n\n/**\n * @title Core Factory\n * @author Set Protocol\n *\n * The CoreFactory contract contains Set Token creation operations\n */\ncontract CoreFactory is\n    CoreState,\n    CoreModifiers\n{\n    // Use SafeMath library for all uint256 arithmetic\n    using SafeMath for uint256;\n\n    /* ============ Constants ============ */\n\n    string constant INVALID_FACTORY = \"Factory is disabled or does not exist.\";\n\n    /* ============ Events ============ */\n\n    event SetTokenCreated(\n        address indexed _setTokenAddress,\n        address _factory,\n        address[] _components,\n        uint[] _units,\n        uint _naturalUnit,\n        string _name,\n        string _symbol\n    );\n\n\n    /* ============ External Functions ============ */\n\n    /**\n     * Deploys a new Set Token and adds it to the valid list of SetTokens\n     *\n     * @param  _factory              The address of the Factory to create from\n     * @param  _components           The address of component tokens\n     * @param  _units                The units of each component token\n     * @param  _naturalUnit          The minimum unit to be issued or redeemed\n     * @param  _name                 The name of the new Set\n     * @param  _symbol               The symbol of the new Set\n     * @return setTokenAddress       The address of the new Set\n     */\n    function create(\n        address _factory,\n        address[] _components,\n        uint[] _units,\n        uint _naturalUnit,\n        string _name,\n        string _symbol\n    )\n        external\n        isValidFactory(_factory)\n        returns (address)\n    {\n        // Create the Set\n        address newSetTokenAddress = ISetFactory(_factory).create(\n            _components,\n            _units,\n            _naturalUnit,\n            _name,\n            _symbol\n        );\n\n        // Add Set to the mapping of tracked Sets\n        state.validSets[newSetTokenAddress] = true;\n\n        // Add Set to the array of tracked Sets\n        state.setTokens.push(newSetTokenAddress);\n\n        // Emit Set Token creation log\n        emit SetTokenCreated(\n            newSetTokenAddress,\n            _factory,\n            _components,\n            _units,\n            _naturalUnit,\n            _name,\n            _symbol\n        );\n\n        return newSetTokenAddress;\n    }\n}\n",
  "sourcePath": "/Users/justinkchen/workspace/set-protocol-contracts/contracts/core/extensions/CoreFactory.sol",
  "compiler": {
    "name": "solc",
    "version": "0.4.24+commit.e67f0147.Emscripten.clang"
  },
  "schemaVersion": "2.0.0",
  "updatedAt": "2018-07-27T04:20:39.811Z"
}