{
  "contractName": "CoreAccounting",
  "abi": [
    {
      "constant": true,
      "inputs": [
        {
          "name": "_factory",
          "type": "address"
        }
      ],
      "name": "validFactories",
      "outputs": [
        {
          "name": "",
          "type": "bool"
        }
      ],
      "payable": false,
      "stateMutability": "view",
      "type": "function"
    },
    {
      "constant": true,
      "inputs": [
        {
          "name": "_orderHash",
          "type": "bytes32"
        }
      ],
      "name": "orderCancels",
      "outputs": [
        {
          "name": "",
          "type": "uint256"
        }
      ],
      "payable": false,
      "stateMutability": "view",
      "type": "function"
    },
    {
      "constant": true,
      "inputs": [],
      "name": "vaultAddress",
      "outputs": [
        {
          "name": "",
          "type": "address"
        }
      ],
      "payable": false,
      "stateMutability": "view",
      "type": "function"
    },
    {
      "constant": true,
      "inputs": [],
      "name": "transferProxyAddress",
      "outputs": [
        {
          "name": "",
          "type": "address"
        }
      ],
      "payable": false,
      "stateMutability": "view",
      "type": "function"
    },
    {
      "constant": true,
      "inputs": [
        {
          "name": "_exchangeId",
          "type": "uint8"
        }
      ],
      "name": "exchanges",
      "outputs": [
        {
          "name": "",
          "type": "address"
        }
      ],
      "payable": false,
      "stateMutability": "view",
      "type": "function"
    },
    {
      "constant": true,
      "inputs": [],
      "name": "state",
      "outputs": [
        {
          "name": "transferProxyAddress",
          "type": "address"
        },
        {
          "name": "vaultAddress",
          "type": "address"
        }
      ],
      "payable": false,
      "stateMutability": "view",
      "type": "function"
    },
    {
      "constant": true,
      "inputs": [
        {
          "name": "_orderHash",
          "type": "bytes32"
        }
      ],
      "name": "orderFills",
      "outputs": [
        {
          "name": "",
          "type": "uint256"
        }
      ],
      "payable": false,
      "stateMutability": "view",
      "type": "function"
    },
    {
      "constant": true,
      "inputs": [
        {
          "name": "_set",
          "type": "address"
        }
      ],
      "name": "validSets",
      "outputs": [
        {
          "name": "",
          "type": "bool"
        }
      ],
      "payable": false,
      "stateMutability": "view",
      "type": "function"
    },
    {
      "constant": false,
      "inputs": [
        {
          "name": "_tokenAddresses",
          "type": "address[]"
        },
        {
          "name": "_quantities",
          "type": "uint256[]"
        }
      ],
      "name": "batchDeposit",
      "outputs": [],
      "payable": false,
      "stateMutability": "nonpayable",
      "type": "function"
    },
    {
      "constant": false,
      "inputs": [
        {
          "name": "_tokenAddresses",
          "type": "address[]"
        },
        {
          "name": "_quantities",
          "type": "uint256[]"
        }
      ],
      "name": "batchWithdraw",
      "outputs": [],
      "payable": false,
      "stateMutability": "nonpayable",
      "type": "function"
    },
    {
      "constant": false,
      "inputs": [
        {
          "name": "_tokenAddress",
          "type": "address"
        },
        {
          "name": "_quantity",
          "type": "uint256"
        }
      ],
      "name": "deposit",
      "outputs": [],
      "payable": false,
      "stateMutability": "nonpayable",
      "type": "function"
    },
    {
      "constant": false,
      "inputs": [
        {
          "name": "_tokenAddress",
          "type": "address"
        },
        {
          "name": "_quantity",
          "type": "uint256"
        }
      ],
      "name": "withdraw",
      "outputs": [],
      "payable": false,
      "stateMutability": "nonpayable",
      "type": "function"
    }
  ],
  "bytecode": "0x608060405234801561001057600080fd5b50610b8a806100206000396000f3006080604052600436106100b95763ffffffff7c01000000000000000000000000000000000000000000000000000000006000350416630e4355d481146100be5780631e912bd6146100f357806330a907361461011d578063430bf08a1461014b57806347e7ef241461017c5780638ca4daf9146101a0578063a003e069146101b5578063c19d93fb146101d0578063e131243e1461020b578063f3fef3a314610237578063f7213db61461025b578063fef3ee7314610273575b600080fd5b3480156100ca57600080fd5b506100df600160a060020a0360043516610294565b604080519115158252519081900360200190f35b3480156100ff57600080fd5b5061010b6004356102b2565b60408051918252519081900360200190f35b34801561012957600080fd5b5061014960246004803582810192908201359181359182019101356102c4565b005b34801561015757600080fd5b5061016061057c565b60408051600160a060020a039092168252519081900360200190f35b34801561018857600080fd5b50610149600160a060020a036004351660243561058b565b3480156101ac57600080fd5b5061016061075c565b3480156101c157600080fd5b5061016060ff6004351661076b565b3480156101dc57600080fd5b506101e5610789565b60408051600160a060020a03938416815291909216602082015281519081900390910190f35b34801561021757600080fd5b50610149602460048035828101929082013591813591820191013561079f565b34801561024357600080fd5b50610149600160a060020a0360043516602435610a12565b34801561026757600080fd5b5061010b600435610b2e565b34801561027f57600080fd5b506100df600160a060020a0360043516610b40565b600160a060020a031660009081526003602052604090205460ff1690565b60009081526006602052604090205490565b60008484808060200260200160405190810160405280939291908181526020018383602002808284375050604080516020808a0282810182019093528982529095508994508893508392508501908490808284375050855160408051808201909152601c81527f416464726573736573206d757374206e6f7420626520656d7074792e000000006020820152945060001092506103e59150505760405160e560020a62461bcd0281526004018080602001828103825283818151815260200191508051906020019080838360005b838110156103aa578181015183820152602001610392565b50505050905090810190601f1680156103d75780820380516001836020036101000a031916815260200191505b509250505060405180910390fd5b50805160408051808201909152601d81527f5175616e746974696573206d757374206e6f7420626520656d7074792e00000060208201529060001061046f5760405160e560020a62461bcd028152600401808060200182810382528381815181526020019150805190602001908083836000838110156103aa578181015183820152602001610392565b508051825160408051606081018252603181527f41646472657373657320616e64207175616e746974696573206d75737420626560208201527f207468652073616d65206c656e6774682e0000000000000000000000000000009181019190915291146105215760405160e560020a62461bcd028152600401808060200182810382528381815181526020019150805190602001908083836000838110156103aa578181015183820152602001610392565b50600092505b858310156105735761056887878581811061053e57fe5b90506020020135600160a060020a0316868686818110151561055c57fe5b9050602002013561058b565b600190920191610527565b50505050505050565b600254600160a060020a031690565b60408051606081018252602381527f5175616e74697479206d7573742062652067726561746572207468616e207a6560208201527f726f2e00000000000000000000000000000000000000000000000000000000009181019190915281906000821161063c5760405160e560020a62461bcd028152600401808060200182810382528381815181526020019150805190602001908083836000838110156103aa578181015183820152602001610392565b50600154600254604080517fa6c4e467000000000000000000000000000000000000000000000000000000008152600160a060020a0387811660048301526024820187905233604483015292831660648201529051919092169163a6c4e46791608480830192600092919082900301818387803b1580156106bc57600080fd5b505af11580156106d0573d6000803e3d6000fd5b5050600254604080517fbada5726000000000000000000000000000000000000000000000000000000008152336004820152600160a060020a03888116602483015260448201889052915191909216935063bada57269250606480830192600092919082900301818387803b15801561074857600080fd5b505af1158015610573573d6000803e3d6000fd5b600154600160a060020a031690565b60ff16600090815260208190526040902054600160a060020a031690565b600154600254600160a060020a03918216911682565b60008484808060200260200160405190810160405280939291908181526020018383602002808284375050604080516020808a0282810182019093528982529095508994508893508392508501908490808284375050855160408051808201909152601c81527f416464726573736573206d757374206e6f7420626520656d7074792e000000006020820152945060001092506108849150505760405160e560020a62461bcd028152600401808060200182810382528381815181526020019150805190602001908083836000838110156103aa578181015183820152602001610392565b50805160408051808201909152601d81527f5175616e746974696573206d757374206e6f7420626520656d7074792e00000060208201529060001061090e5760405160e560020a62461bcd028152600401808060200182810382528381815181526020019150805190602001908083836000838110156103aa578181015183820152602001610392565b508051825160408051606081018252603181527f41646472657373657320616e64207175616e746974696573206d75737420626560208201527f207468652073616d65206c656e6774682e0000000000000000000000000000009181019190915291146109c05760405160e560020a62461bcd028152600401808060200182810382528381815181526020019150805190602001908083836000838110156103aa578181015183820152602001610392565b50600092505b8583101561057357610a078787858181106109dd57fe5b90506020020135600160a060020a031686868681811015156109fb57fe5b90506020020135610a12565b6001909201916109c6565b600254604080517f80ddda30000000000000000000000000000000000000000000000000000000008152336004820152600160a060020a03858116602483015260448201859052915191909216916380ddda3091606480830192600092919082900301818387803b158015610a8657600080fd5b505af1158015610a9a573d6000803e3d6000fd5b5050600254604080517fc3b35a7e000000000000000000000000000000000000000000000000000000008152600160a060020a03878116600483015233602483015260448201879052915191909216935063c3b35a7e9250606480830192600092919082900301818387803b158015610b1257600080fd5b505af1158015610b26573d6000803e3d6000fd5b505050505050565b60009081526005602052604090205490565b600160a060020a031660009081526004602052604090205460ff16905600a165627a7a72305820e20f6cf326c43adf1b4f946b46a940faefc7f5fdf6be022e161a0b223c5a46760029",
  "source": "/*\n    Copyright 2018 Set Labs Inc.\n\n    Licensed under the Apache License, Version 2.0 (the \"License\");\n    you may not use this file except in compliance with the License.\n    You may obtain a copy of the License at\n\n    http://www.apache.org/licenses/LICENSE-2.0\n\n    Unless required by applicable law or agreed to in writing, software\n    distributed under the License is distributed on an \"AS IS\" BASIS,\n    WITHOUT WARRANTIES OR CONDITIONS OF ANY KIND, either express or implied.\n    See the License for the specific language governing permissions and\n    limitations under the License.\n*/\n\npragma solidity 0.4.24;\n\nimport { SafeMath } from \"zeppelin-solidity/contracts/math/SafeMath.sol\";\nimport { CoreModifiers } from \"../lib/CoreSharedModifiers.sol\";\nimport { CoreState } from \"../lib/CoreState.sol\";\nimport { ITransferProxy } from \"../interfaces/ITransferProxy.sol\";\nimport { IVault } from \"../interfaces/IVault.sol\";\n\n\n/**\n * @title Core Accounting\n * @author Set Protocol\n *\n * The CoreAccounting contract interfaces with the vault and transfer transfer proxies\n * for storage of tokenized assets\n */\ncontract CoreAccounting is\n    CoreState,\n    CoreModifiers\n{\n    // Use SafeMath library for all uint256 arithmetic\n    using SafeMath for uint256;\n\n    /* ============ Constants ============ */\n\n    string constant ADDRESSES_MISSING = \"Addresses must not be empty.\";\n    string constant BATCH_INPUT_MISMATCH = \"Addresses and quantities must be the same length.\";\n    string constant QUANTITES_MISSING = \"Quantities must not be empty.\";\n    string constant ZERO_QUANTITY = \"Quantity must be greater than zero.\";\n\n    /* ============ Modifiers ============ */\n\n    // Confirm that all inputs are valid for batch transactions\n    modifier isValidBatchTransaction(address[] _tokenAddresses, uint[] _quantities) {\n        // Confirm an empty _addresses array is not passed\n        require(\n            _tokenAddresses.length > 0,\n            ADDRESSES_MISSING\n        );\n\n        // Confirm an empty _quantities array is not passed\n        require(\n            _quantities.length > 0,\n            QUANTITES_MISSING\n        );\n\n        // Confirm there is one quantity for every token address\n        require(\n            _tokenAddresses.length == _quantities.length,\n            BATCH_INPUT_MISMATCH\n        );\n        _;\n    }\n\n    /* ============ Public Functions ============ */\n\n    /**\n     * Deposit multiple tokens to the vault. Quantities should be in the\n     * order of the addresses of the tokens being deposited.\n     *\n     * @param  _tokenAddresses   Array of the addresses of the ERC20 tokens\n     * @param  _quantities       Array of the number of tokens to deposit\n     */\n    function batchDeposit(\n        address[] _tokenAddresses,\n        uint[] _quantities\n    )\n        external\n        isValidBatchTransaction(_tokenAddresses, _quantities)\n    {\n        // For each token and quantity pair, run deposit function\n        for (uint i = 0; i < _tokenAddresses.length; i++) {\n            deposit(\n                _tokenAddresses[i],\n                _quantities[i]\n            );\n        }\n    }\n\n    /**\n     * Withdraw multiple tokens from the vault. Quantities should be in the\n     * order of the addresses of the tokens being withdrawn.\n     *\n     * @param  _tokenAddresses    Array of the addresses of the ERC20 tokens\n     * @param  _quantities        Array of the number of tokens to withdraw\n     */\n    function batchWithdraw(\n        address[] _tokenAddresses,\n        uint[] _quantities\n    )\n        external\n        isValidBatchTransaction(_tokenAddresses, _quantities)\n    {\n        // For each token and quantity pair, run withdraw function\n        for (uint i = 0; i < _tokenAddresses.length; i++) {\n            withdraw(\n                _tokenAddresses[i],\n                _quantities[i]\n            );\n        }\n    }\n\n    /**\n     * Deposit any quantity of tokens into the vault.\n     *\n     * @param  _tokenAddress    The address of the ERC20 token\n     * @param  _quantity        The number of tokens to deposit\n     */\n    function deposit(\n        address _tokenAddress,\n        uint _quantity\n    )\n        public\n        isPositiveQuantity(_quantity)\n    {\n        // Call TransferProxy contract to transfer user tokens to Vault\n        ITransferProxy(state.transferProxyAddress).transfer(\n            _tokenAddress,\n            _quantity,\n            msg.sender,\n            state.vaultAddress\n        );\n\n        // Call Vault contract to attribute deposited tokens to user\n        IVault(state.vaultAddress).incrementTokenOwner(\n            msg.sender,\n            _tokenAddress,\n            _quantity\n        );\n    }\n\n    /**\n     * Withdraw a quantity of tokens from the vault.\n     *\n     * @param  _tokenAddress    The address of the ERC20 token\n     * @param  _quantity        The number of tokens to withdraw\n     */\n    function withdraw(\n        address _tokenAddress,\n        uint _quantity\n    )\n        public\n    {\n        // Call Vault contract to deattribute tokens to user\n        IVault(state.vaultAddress).decrementTokenOwner(\n            msg.sender,\n            _tokenAddress,\n            _quantity\n        );\n\n        // Call Vault to withdraw tokens from Vault to user\n        IVault(state.vaultAddress).withdrawTo(\n            _tokenAddress,\n            msg.sender,\n            _quantity\n        );\n    }\n}\n",
  "sourcePath": "/Users/justinkchen/workspace/set-protocol-contracts/contracts/core/extensions/CoreAccounting.sol",
  "compiler": {
    "name": "solc",
    "version": "0.4.24+commit.e67f0147.Emscripten.clang"
  },
  "schemaVersion": "2.0.0",
  "updatedAt": "2018-07-08T01:11:15.190Z"
}