{
  "contractName": "CoreState",
  "abi": [
    {
      "constant": true,
      "inputs": [],
      "name": "state",
      "outputs": [
        {
          "name": "transferProxyAddress",
          "type": "address"
        },
        {
          "name": "vaultAddress",
          "type": "address"
        }
      ],
      "payable": false,
      "stateMutability": "view",
      "type": "function"
    },
    {
      "constant": true,
      "inputs": [
        {
          "name": "_exchangeId",
          "type": "uint8"
        }
      ],
      "name": "exchanges",
      "outputs": [
        {
          "name": "",
          "type": "address"
        }
      ],
      "payable": false,
      "stateMutability": "view",
      "type": "function"
    },
    {
      "constant": true,
      "inputs": [],
      "name": "transferProxyAddress",
      "outputs": [
        {
          "name": "",
          "type": "address"
        }
      ],
      "payable": false,
      "stateMutability": "view",
      "type": "function"
    },
    {
      "constant": true,
      "inputs": [],
      "name": "vaultAddress",
      "outputs": [
        {
          "name": "",
          "type": "address"
        }
      ],
      "payable": false,
      "stateMutability": "view",
      "type": "function"
    },
    {
      "constant": true,
      "inputs": [
        {
          "name": "_factory",
          "type": "address"
        }
      ],
      "name": "validFactories",
      "outputs": [
        {
          "name": "",
          "type": "bool"
        }
      ],
      "payable": false,
      "stateMutability": "view",
      "type": "function"
    },
    {
      "constant": true,
      "inputs": [
        {
          "name": "_set",
          "type": "address"
        }
      ],
      "name": "validSets",
      "outputs": [
        {
          "name": "",
          "type": "bool"
        }
      ],
      "payable": false,
      "stateMutability": "view",
      "type": "function"
    },
    {
      "constant": true,
      "inputs": [
        {
          "name": "_orderHash",
          "type": "bytes32"
        }
      ],
      "name": "orderFills",
      "outputs": [
        {
          "name": "",
          "type": "uint256"
        }
      ],
      "payable": false,
      "stateMutability": "view",
      "type": "function"
    },
    {
      "constant": true,
      "inputs": [
        {
          "name": "_orderHash",
          "type": "bytes32"
        }
      ],
      "name": "orderCancels",
      "outputs": [
        {
          "name": "",
          "type": "uint256"
        }
      ],
      "payable": false,
      "stateMutability": "view",
      "type": "function"
    }
  ],
  "bytecode": "0x608060405234801561001057600080fd5b50610594806100206000396000f30060806040526004361061008e576000357c0100000000000000000000000000000000000000000000000000000000900463ffffffff1680630e4355d4146100935780631e912bd6146100ee578063430bf08a146101335780638ca4daf91461018a578063a003e069146101e1578063c19d93fb14610251578063f7213db6146102db578063fef3ee7314610320575b600080fd5b34801561009f57600080fd5b506100d4600480360381019080803573ffffffffffffffffffffffffffffffffffffffff16906020019092919050505061037b565b604051808215151515815260200191505060405180910390f35b3480156100fa57600080fd5b5061011d60048036038101908080356000191690602001909291905050506103d3565b6040518082815260200191505060405180910390f35b34801561013f57600080fd5b506101486103fa565b604051808273ffffffffffffffffffffffffffffffffffffffff1673ffffffffffffffffffffffffffffffffffffffff16815260200191505060405180910390f35b34801561019657600080fd5b5061019f610426565b604051808273ffffffffffffffffffffffffffffffffffffffff1673ffffffffffffffffffffffffffffffffffffffff16815260200191505060405180910390f35b3480156101ed57600080fd5b5061020f600480360381019080803560ff169060200190929190505050610452565b604051808273ffffffffffffffffffffffffffffffffffffffff1673ffffffffffffffffffffffffffffffffffffffff16815260200191505060405180910390f35b34801561025d57600080fd5b50610266610497565b604051808373ffffffffffffffffffffffffffffffffffffffff1673ffffffffffffffffffffffffffffffffffffffff1681526020018273ffffffffffffffffffffffffffffffffffffffff1673ffffffffffffffffffffffffffffffffffffffff1681526020019250505060405180910390f35b3480156102e757600080fd5b5061030a60048036038101908080356000191690602001909291905050506104e9565b6040518082815260200191505060405180910390f35b34801561032c57600080fd5b50610361600480360381019080803573ffffffffffffffffffffffffffffffffffffffff169060200190929190505050610510565b604051808215151515815260200191505060405180910390f35b60008060030160008373ffffffffffffffffffffffffffffffffffffffff1673ffffffffffffffffffffffffffffffffffffffff16815260200190815260200160002060009054906101000a900460ff169050919050565b60008060060160008360001916600019168152602001908152602001600020549050919050565b60008060020160009054906101000a900473ffffffffffffffffffffffffffffffffffffffff16905090565b60008060010160009054906101000a900473ffffffffffffffffffffffffffffffffffffffff16905090565b60008060000160008360ff1660ff16815260200190815260200160002060009054906101000a900473ffffffffffffffffffffffffffffffffffffffff169050919050565b60008060010160009054906101000a900473ffffffffffffffffffffffffffffffffffffffff16908060020160009054906101000a900473ffffffffffffffffffffffffffffffffffffffff16905082565b60008060050160008360001916600019168152602001908152602001600020549050919050565b60008060040160008373ffffffffffffffffffffffffffffffffffffffff1673ffffffffffffffffffffffffffffffffffffffff16815260200190815260200160002060009054906101000a900460ff1690509190505600a165627a7a723058205fff594963aee3f438ac11a5af9b26d7346ef447ef1519fb1e35adcf6c65a6ce0029",
  "source": "/*\n    Copyright 2018 Set Labs Inc.\n\n    Licensed under the Apache License, Version 2.0 (the \"License\");\n    you may not use this file except in compliance with the License.\n    You may obtain a copy of the License at\n\n    http://www.apache.org/licenses/LICENSE-2.0\n\n    Unless required by applicable law or agreed to in writing, software\n    distributed under the License is distributed on an \"AS IS\" BASIS,\n    WITHOUT WARRANTIES OR CONDITIONS OF ANY KIND, either express or implied.\n    See the License for the specific language governing permissions and\n    limitations under the License.\n*/\n\npragma solidity 0.4.24;\n\n\n/**\n * @title CoreState\n * @author Set Protocol\n *\n * The CoreState library maintains all state for the Core contract thus\n * allowing it to operate across multiple mixins.\n */\ncontract CoreState {\n\n    /* ============ Structs ============ */\n\n    struct State {\n        // Mapping of exchange enumeration to address\n        mapping(uint8 => address) exchanges;\n\n        // Address of the TransferProxy contract\n        address transferProxyAddress;\n\n        // Address of the Vault contract\n        address vaultAddress;\n\n        // Mapping of tracked SetToken factories\n        mapping(address => bool) validFactories;\n\n        // Mapping of tracked SetTokens\n        mapping(address => bool) validSets;\n\n        // Mapping of filled Issuance Orders\n        mapping(bytes32 => uint) orderFills;\n\n        // Mapping of canceled Issuance Orders\n        mapping(bytes32 => uint) orderCancels;\n    }\n\n    /* ============ State Variables ============ */\n\n    State public state;\n\n    /* ============ Public Getters ============ */\n\n    function exchanges(uint8 _exchangeId)\n        public\n        view\n        returns(address)\n    {\n        return state.exchanges[_exchangeId];\n    }\n\n    function transferProxyAddress()\n        public\n        view\n        returns(address)\n    {\n        return state.transferProxyAddress;\n    }\n\n    function vaultAddress()\n        public\n        view\n        returns(address)\n    {\n        return state.vaultAddress;\n    }\n\n    function validFactories(address _factory)\n        public\n        view\n        returns(bool)\n    {\n        return state.validFactories[_factory];\n    }\n\n    function validSets(address _set)\n        public\n        view\n        returns(bool)\n    {\n        return state.validSets[_set];\n    }\n\n    function orderFills(bytes32 _orderHash)\n        public\n        view\n        returns(uint)\n    {\n        return state.orderFills[_orderHash];\n    }\n\n    function orderCancels(bytes32 _orderHash)\n        public\n        view\n        returns(uint)\n    {\n        return state.orderCancels[_orderHash];\n    }\n}\n",
  "sourcePath": "/Users/justinkchen/workspace/set-protocol-contracts/contracts/core/lib/CoreState.sol",
  "compiler": {
    "name": "solc",
    "version": "0.4.24+commit.e67f0147.Emscripten.clang"
  },
  "schemaVersion": "2.0.0",
  "updatedAt": "2018-07-07T07:45:08.905Z"
}