{
  "contractName": "CoreInternal",
  "abi": [
    {
      "constant": true,
      "inputs": [
        {
          "name": "_factory",
          "type": "address"
        }
      ],
      "name": "validFactories",
      "outputs": [
        {
          "name": "",
          "type": "bool"
        }
      ],
      "payable": false,
      "stateMutability": "view",
      "type": "function"
    },
    {
      "constant": true,
      "inputs": [
        {
          "name": "_orderHash",
          "type": "bytes32"
        }
      ],
      "name": "orderCancels",
      "outputs": [
        {
          "name": "",
          "type": "uint256"
        }
      ],
      "payable": false,
      "stateMutability": "view",
      "type": "function"
    },
    {
      "constant": true,
      "inputs": [],
      "name": "setTokens",
      "outputs": [
        {
          "name": "",
          "type": "address[]"
        }
      ],
      "payable": false,
      "stateMutability": "view",
      "type": "function"
    },
    {
      "constant": true,
      "inputs": [],
      "name": "transferProxy",
      "outputs": [
        {
          "name": "",
          "type": "address"
        }
      ],
      "payable": false,
      "stateMutability": "view",
      "type": "function"
    },
    {
      "constant": false,
      "inputs": [],
      "name": "renounceOwnership",
      "outputs": [],
      "payable": false,
      "stateMutability": "nonpayable",
      "type": "function"
    },
    {
      "constant": true,
      "inputs": [],
      "name": "owner",
      "outputs": [
        {
          "name": "",
          "type": "address"
        }
      ],
      "payable": false,
      "stateMutability": "view",
      "type": "function"
    },
    {
      "constant": true,
      "inputs": [
        {
          "name": "_exchangeId",
          "type": "uint8"
        }
      ],
      "name": "exchanges",
      "outputs": [
        {
          "name": "",
          "type": "address"
        }
      ],
      "payable": false,
      "stateMutability": "view",
      "type": "function"
    },
    {
      "constant": true,
      "inputs": [],
      "name": "state",
      "outputs": [
        {
          "name": "transferProxy",
          "type": "address"
        },
        {
          "name": "vault",
          "type": "address"
        }
      ],
      "payable": false,
      "stateMutability": "view",
      "type": "function"
    },
    {
      "constant": false,
      "inputs": [
        {
          "name": "_newOwner",
          "type": "address"
        }
      ],
      "name": "transferOwnership",
      "outputs": [],
      "payable": false,
      "stateMutability": "nonpayable",
      "type": "function"
    },
    {
      "constant": true,
      "inputs": [
        {
          "name": "_orderHash",
          "type": "bytes32"
        }
      ],
      "name": "orderFills",
      "outputs": [
        {
          "name": "",
          "type": "uint256"
        }
      ],
      "payable": false,
      "stateMutability": "view",
      "type": "function"
    },
    {
      "constant": true,
      "inputs": [],
      "name": "vault",
      "outputs": [
        {
          "name": "",
          "type": "address"
        }
      ],
      "payable": false,
      "stateMutability": "view",
      "type": "function"
    },
    {
      "constant": true,
      "inputs": [],
      "name": "factories",
      "outputs": [
        {
          "name": "",
          "type": "address[]"
        }
      ],
      "payable": false,
      "stateMutability": "view",
      "type": "function"
    },
    {
      "constant": true,
      "inputs": [
        {
          "name": "_set",
          "type": "address"
        }
      ],
      "name": "validSets",
      "outputs": [
        {
          "name": "",
          "type": "bool"
        }
      ],
      "payable": false,
      "stateMutability": "view",
      "type": "function"
    },
    {
      "anonymous": false,
      "inputs": [
        {
          "indexed": true,
          "name": "previousOwner",
          "type": "address"
        }
      ],
      "name": "OwnershipRenounced",
      "type": "event"
    },
    {
      "anonymous": false,
      "inputs": [
        {
          "indexed": true,
          "name": "previousOwner",
          "type": "address"
        },
        {
          "indexed": true,
          "name": "newOwner",
          "type": "address"
        }
      ],
      "name": "OwnershipTransferred",
      "type": "event"
    },
    {
      "constant": false,
      "inputs": [
        {
          "name": "_vault",
          "type": "address"
        }
      ],
      "name": "setVaultAddress",
      "outputs": [],
      "payable": false,
      "stateMutability": "nonpayable",
      "type": "function"
    },
    {
      "constant": false,
      "inputs": [
        {
          "name": "_transferProxy",
          "type": "address"
        }
      ],
      "name": "setTransferProxyAddress",
      "outputs": [],
      "payable": false,
      "stateMutability": "nonpayable",
      "type": "function"
    },
    {
      "constant": false,
      "inputs": [
        {
          "name": "_factory",
          "type": "address"
        }
      ],
      "name": "enableFactory",
      "outputs": [],
      "payable": false,
      "stateMutability": "nonpayable",
      "type": "function"
    },
    {
      "constant": false,
      "inputs": [
        {
          "name": "_factory",
          "type": "address"
        }
      ],
      "name": "disableFactory",
      "outputs": [],
      "payable": false,
      "stateMutability": "nonpayable",
      "type": "function"
    },
    {
      "constant": false,
      "inputs": [
        {
          "name": "_set",
          "type": "address"
        }
      ],
      "name": "disableSet",
      "outputs": [],
      "payable": false,
      "stateMutability": "nonpayable",
      "type": "function"
    }
  ],
  "bytecode": "0x608060405260008054600160a060020a031916331790556109c0806100256000396000f3006080604052600436106100fb5763ffffffff7c01000000000000000000000000000000000000000000000000000000006000350416630e4355d48114610100578063124cfd78146101355780631a1f2b3e146101585780631e912bd614610179578063559ed339146101a35780636e667db314610208578063715018a61461023957806377274ff01461024e57806385535cc51461026f5780638da5cb5b146102905780639f80ee88146102a5578063a003e069146102c6578063c19d93fb146102e1578063f2fde38b1461031c578063f7213db61461033d578063fbfa77cf14610355578063fe5b38e41461036a578063fef3ee731461037f575b600080fd5b34801561010c57600080fd5b50610121600160a060020a03600435166103a0565b604080519115158252519081900360200190f35b34801561014157600080fd5b50610156600160a060020a03600435166103be565b005b34801561016457600080fd5b50610156600160a060020a03600435166103f7565b34801561018557600080fd5b5061019160043561051d565b60408051918252519081900360200190f35b3480156101af57600080fd5b506101b861052f565b60408051602080825283518183015283519192839290830191858101910280838360005b838110156101f45781810151838201526020016101dc565b505050509050019250505060405180910390f35b34801561021457600080fd5b5061021d610595565b60408051600160a060020a039092168252519081900360200190f35b34801561024557600080fd5b506101566105a4565b34801561025a57600080fd5b50610156600160a060020a0360043516610603565b34801561027b57600080fd5b50610156600160a060020a036004351661071f565b34801561029c57600080fd5b5061021d610758565b3480156102b157600080fd5b50610156600160a060020a0360043516610767565b3480156102d257600080fd5b5061021d60ff600435166107e4565b3480156102ed57600080fd5b506102f6610802565b60408051600160a060020a03938416815291909216602082015281519081900390910190f35b34801561032857600080fd5b50610156600160a060020a0360043516610818565b34801561034957600080fd5b5061019160043561083b565b34801561036157600080fd5b5061021d61084d565b34801561037657600080fd5b506101b861085c565b34801561038b57600080fd5b50610121600160a060020a03600435166108bf565b600160a060020a031660009081526004602052604090205460ff1690565b600054600160a060020a031633146103d557600080fd5b60028054600160a060020a031916600160a060020a0392909216919091179055565b60008054600160a060020a0316331461040f57600080fd5b600160a060020a03821660009081526004602052604090205460ff16151561043657600080fd5b50600160a060020a0381166000908152600460205260408120805460ff191690555b6005548110156105195760058054600160a060020a03841691908390811061047c57fe5b600091825260209091200154600160a060020a03161415610511576005805460001981019081106104a957fe5b60009182526020909120015460058054600160a060020a0390921691839081106104cf57fe5b60009182526020909120018054600160a060020a031916600160a060020a039290921691909117905560058054600019019061050b908261094d565b50610519565b600101610458565b5050565b60009081526009602052604090205490565b6060600160060180548060200260200160405190810160405280929190818152602001828054801561058a57602002820191906000526020600020905b8154600160a060020a0316815260019091019060200180831161056c575b505050505090505b90565b600254600160a060020a031690565b600054600160a060020a031633146105bb57600080fd5b60008054604051600160a060020a03909116917ff8df31144d9c2f0f6b59d69b8b98abd5459d07f2742c4df920b25aae33c6482091a260008054600160a060020a0319169055565b60008054600160a060020a0316331461061b57600080fd5b600160a060020a03821660009081526006602052604090205460ff16151561064257600080fd5b50600160a060020a0381166000908152600660205260408120805460ff191690555b6007548110156105195760078054600160a060020a03841691908390811061068857fe5b600091825260209091200154600160a060020a03161415610717576007805460001981019081106106b557fe5b60009182526020909120015460078054600160a060020a0390921691839081106106db57fe5b60009182526020909120018054600160a060020a031916600160a060020a039290921691909117905560078054600019019061050b908261094d565b600101610664565b600054600160a060020a0316331461073657600080fd5b60038054600160a060020a031916600160a060020a0392909216919091179055565b600054600160a060020a031681565b600054600160a060020a0316331461077e57600080fd5b600160a060020a03166000818152600460205260408120805460ff191660019081179091556005805491820181559091527f036b6384b5eca791c62761152d0c79bb0604c104a5fb6f4eb0703f3154bb3db0018054600160a060020a0319169091179055565b60ff16600090815260016020526040902054600160a060020a031690565b600254600354600160a060020a03918216911682565b600054600160a060020a0316331461082f57600080fd5b610838816108dd565b50565b60009081526008602052604090205490565b600354600160a060020a031690565b6060600160040180548060200260200160405190810160405280929190818152602001828054801561058a57602002820191906000526020600020908154600160a060020a0316815260019091019060200180831161056c575050505050905090565b600160a060020a031660009081526006602052604090205460ff1690565b600160a060020a03811615156108f257600080fd5b60008054604051600160a060020a03808516939216917f8be0079c531659141344cd1fd0a4f28419497f9722a3daafe3b4186f6b6457e091a360008054600160a060020a031916600160a060020a0392909216919091179055565b81548183558181111561097157600083815260209020610971918101908301610976565b505050565b61059291905b80821115610990576000815560010161097c565b50905600a165627a7a7230582042002638e0d0e1e855b1b87115f76eb9f4b5ce283ea5cbf51611b608f437fbfa0029",
  "source": "/*\n    Copyright 2018 Set Labs Inc.\n\n    Licensed under the Apache License, Version 2.0 (the \"License\");\n    you may not use this file except in compliance with the License.\n    You may obtain a copy of the License at\n\n    http://www.apache.org/licenses/LICENSE-2.0\n\n    Unless required by applicable law or agreed to in writing, software\n    distributed under the License is distributed on an \"AS IS\" BASIS,\n    WITHOUT WARRANTIES OR CONDITIONS OF ANY KIND, either express or implied.\n    See the License for the specific language governing permissions and\n    limitations under the License.\n*/\n\npragma solidity 0.4.24;\n\nimport { Ownable } from \"zeppelin-solidity/contracts/ownership/Ownable.sol\";\nimport { CoreState } from \"../lib/CoreState.sol\";\n\n\n/**\n * @title Core Internal\n * @author Set Protocol\n *\n * The CoreInternal contract contains methods to alter state of variables that track\n * Core dependency addresses.\n */\ncontract CoreInternal is\n    Ownable,\n    CoreState\n{\n    /* ============ External Functions ============ */\n\n    /**\n     * Set vaultAddress. Can only be set by owner of Core.\n     *\n     * @param  _vault   The address of the Vault\n     */\n    function setVaultAddress(\n        address _vault\n    )\n        external\n        onlyOwner\n    {\n        // Commit passed address to vaultAddress state variable\n        state.vault = _vault;\n    }\n\n    /**\n     * Set transferProxyAddress. Can only be set by owner of Core.\n     *\n     * @param  _transferProxy   The address of the TransferProxy\n     */\n    function setTransferProxyAddress(\n        address _transferProxy\n    )\n        external\n        onlyOwner\n    {\n        // Commit passed address to transferProxyAddress state variable\n        state.transferProxy = _transferProxy;\n    }\n\n    /**\n     * Add a factory to the mapping of tracked factories. Can only be set by\n     * owner of Core.\n     *\n     * @param  _factory   The address of the SetTokenFactory to enable\n     */\n    function enableFactory(\n        address _factory\n    )\n        external\n        onlyOwner\n    {\n        // Mark as true in validFactories mapping\n        state.validFactories[_factory] = true;\n\n        // Add to factories array\n        state.factories.push(_factory);\n    }\n\n    /**\n     * Disable a factory in the mapping of tracked factories. Can only be disabled\n     * by owner of Core.\n     *\n     * @param  _factory   The address of the SetTokenFactory to disable\n     */\n    function disableFactory(\n        address _factory\n    )\n        external\n        onlyOwner\n    {\n        // Verify Factory is linked to Core\n        require(state.validFactories[_factory]);\n\n        // Mark as false in validFactories mapping\n        state.validFactories[_factory] = false;\n\n        // Find and remove factory from factories array\n        for (uint256 i = 0; i < state.factories.length; i++) {\n            if (state.factories[i] == _factory) {\n                state.factories[i] = state.factories[state.factories.length - 1];\n                state.factories.length -= 1;\n                break;\n            }\n        }\n    }\n\n    /**\n     * Disable a set token in the mapping of tracked set tokens. Can only\n     * be disables by owner of Core.\n     *\n     * @param  _set   The address of the SetToken to disable\n     */\n    function disableSet(\n        address _set\n    )\n        external\n        onlyOwner\n    {\n        // Verify Set was created by Core and is enabled\n        require(state.validSets[_set]);\n\n        // Mark as false in validSet mapping\n        state.validSets[_set] = false;\n\n        // Find and remove from setTokens array\n        for (uint256 i = 0; i < state.setTokens.length; i++) {\n            if (state.setTokens[i] == _set) {\n                state.setTokens[i] = state.setTokens[state.setTokens.length - 1];\n                state.setTokens.length -= 1;\n                break;\n            }\n        }\n    }\n}\n",
  "sourcePath": "/Users/alexsoong/Source/set-protocol/set-protocol-contracts/contracts/core/extensions/CoreInternal.sol",
  "compiler": {
    "name": "solc",
    "version": "0.4.24+commit.e67f0147.Emscripten.clang"
  },
  "schemaVersion": "2.0.0",
  "updatedAt": "2018-08-10T21:21:49.369Z"
}