{
  "contractName": "CoreIssuance",
  "abi": [
    {
      "constant": true,
      "inputs": [
        {
          "name": "_factory",
          "type": "address"
        }
      ],
      "name": "validFactories",
      "outputs": [
        {
          "name": "",
          "type": "bool"
        }
      ],
      "payable": false,
      "stateMutability": "view",
      "type": "function"
    },
    {
      "constant": true,
      "inputs": [
        {
          "name": "_orderHash",
          "type": "bytes32"
        }
      ],
      "name": "orderCancels",
      "outputs": [
        {
          "name": "",
          "type": "uint256"
        }
      ],
      "payable": false,
      "stateMutability": "view",
      "type": "function"
    },
    {
      "constant": true,
      "inputs": [],
      "name": "vaultAddress",
      "outputs": [
        {
          "name": "",
          "type": "address"
        }
      ],
      "payable": false,
      "stateMutability": "view",
      "type": "function"
    },
    {
      "constant": true,
      "inputs": [],
      "name": "transferProxyAddress",
      "outputs": [
        {
          "name": "",
          "type": "address"
        }
      ],
      "payable": false,
      "stateMutability": "view",
      "type": "function"
    },
    {
      "constant": true,
      "inputs": [
        {
          "name": "_exchangeId",
          "type": "uint8"
        }
      ],
      "name": "exchanges",
      "outputs": [
        {
          "name": "",
          "type": "address"
        }
      ],
      "payable": false,
      "stateMutability": "view",
      "type": "function"
    },
    {
      "constant": true,
      "inputs": [],
      "name": "state",
      "outputs": [
        {
          "name": "transferProxyAddress",
          "type": "address"
        },
        {
          "name": "vaultAddress",
          "type": "address"
        }
      ],
      "payable": false,
      "stateMutability": "view",
      "type": "function"
    },
    {
      "constant": true,
      "inputs": [
        {
          "name": "_orderHash",
          "type": "bytes32"
        }
      ],
      "name": "orderFills",
      "outputs": [
        {
          "name": "",
          "type": "uint256"
        }
      ],
      "payable": false,
      "stateMutability": "view",
      "type": "function"
    },
    {
      "constant": true,
      "inputs": [
        {
          "name": "_set",
          "type": "address"
        }
      ],
      "name": "validSets",
      "outputs": [
        {
          "name": "",
          "type": "bool"
        }
      ],
      "payable": false,
      "stateMutability": "view",
      "type": "function"
    },
    {
      "anonymous": false,
      "inputs": [
        {
          "indexed": true,
          "name": "_setToken",
          "type": "address"
        },
        {
          "indexed": true,
          "name": "_component",
          "type": "address"
        },
        {
          "indexed": false,
          "name": "_quantity",
          "type": "uint256"
        }
      ],
      "name": "IssuanceComponentDeposited",
      "type": "event"
    },
    {
      "constant": false,
      "inputs": [
        {
          "name": "_setAddress",
          "type": "address"
        },
        {
          "name": "_quantity",
          "type": "uint256"
        }
      ],
      "name": "issue",
      "outputs": [],
      "payable": false,
      "stateMutability": "nonpayable",
      "type": "function"
    },
    {
      "constant": false,
      "inputs": [
        {
          "name": "_setAddress",
          "type": "address"
        },
        {
          "name": "_quantity",
          "type": "uint256"
        }
      ],
      "name": "redeem",
      "outputs": [],
      "payable": false,
      "stateMutability": "nonpayable",
      "type": "function"
    },
    {
      "constant": false,
      "inputs": [
        {
          "name": "_setAddress",
          "type": "address"
        },
        {
          "name": "_quantity",
          "type": "uint256"
        },
        {
          "name": "_toWithdraw",
          "type": "uint256"
        }
      ],
      "name": "redeemAndWithdraw",
      "outputs": [],
      "payable": false,
      "stateMutability": "nonpayable",
      "type": "function"
    }
  ],
  "bytecode": "0x608060405234801561001057600080fd5b50611bc3806100206000396000f3006080604052600436106100955763ffffffff60e060020a6000350416630e4355d4811461009a5780631e912bd6146100cf5780631e9a6950146100f9578063430bf08a1461011f578063867904b4146101505780638ca4daf914610174578063a003e06914610189578063ac842c66146101a4578063c19d93fb146101cb578063f7213db614610206578063fef3ee731461021e575b600080fd5b3480156100a657600080fd5b506100bb600160a060020a036004351661023f565b604080519115158252519081900360200190f35b3480156100db57600080fd5b506100e760043561025d565b60408051918252519081900360200190f35b34801561010557600080fd5b5061011d600160a060020a036004351660243561026f565b005b34801561012b57600080fd5b506101346109a8565b60408051600160a060020a039092168252519081900360200190f35b34801561015c57600080fd5b5061011d600160a060020a03600435166024356109b7565b34801561018057600080fd5b50610134610c72565b34801561019557600080fd5b5061013460ff60043516610c81565b3480156101b057600080fd5b5061011d600160a060020a0360043516602435604435610c9f565b3480156101d757600080fd5b506101e061144d565b60408051600160a060020a03938416815291909216602082015281519081900390910190f35b34801561021257600080fd5b506100e7600435611463565b34801561022a57600080fd5b506100bb600160a060020a0360043516611475565b600160a060020a031660009081526003602052604090205460ff1690565b60009081526006602052604090205490565b600160a060020a038216600090815260046020908152604080832054815160608181018452602882527f53657420746f6b656e2069732064697361626c6564206f7220646f6573206e6f948201949094527f742065786973742e00000000000000000000000000000000000000000000000092810192909252829184918291829189919060ff1615156103835760405160e560020a62461bcd0281526004018080602001828103825283818151815260200191508051906020019080838360005b83811015610348578181015183820152602001610330565b50505050905090810190601f1680156103755780820380516001836020036101000a031916815260200191505b509250505060405180910390fd5b5060408051606081018252602381527f5175616e74697479206d7573742062652067726561746572207468616e207a6560208201527f726f2e0000000000000000000000000000000000000000000000000000000000918101919091528890600082116104355760405160e560020a62461bcd02815260040180806020018281038252838181518152602001915080519060200190808383600083811015610348578181015183820152602001610330565b50888a80600160a060020a03166342a7cfd56040518163ffffffff1660e060020a028152600401602060405180830381600087803b15801561047657600080fd5b505af115801561048a573d6000803e3d6000fd5b505050506040513d60208110156104a057600080fd5b5051828115156104ac57fe5b60408051606081018252603981527f5175616e74697479206d757374206265206d756c7469706c65206f662074686560208201527f206e61747572616c20756e6974206f6620746865207365742e00000000000000918101919091529190061561055b5760405160e560020a62461bcd02815260040180806020018281038252838181518152602001915080519060200190808383600083811015610348578181015183820152602001610330565b50604080517f9dc29fac000000000000000000000000000000000000000000000000000000008152336004820152602481018d90529051600160a060020a038e1691639dc29fac91604480830192600092919082900301818387803b1580156105c357600080fd5b505af11580156105d7573d6000803e3d6000fd5b505050508b600160a060020a03166342a7cfd56040518163ffffffff1660e060020a028152600401602060405180830381600087803b15801561061957600080fd5b505af115801561062d573d6000803e3d6000fd5b505050506040513d602081101561064357600080fd5b5051604080517f99d50d5d0000000000000000000000000000000000000000000000000000000081529051919b50600160a060020a038e16916399d50d5d9160048082019260009290919082900301818387803b1580156106a357600080fd5b505af11580156106b7573d6000803e3d6000fd5b505050506040513d6000823e601f3d908101601f1916820160405260208110156106e057600080fd5b8101908080516401000000008111156106f857600080fd5b8201602081018481111561070b57600080fd5b815185602082028301116401000000008211171561072857600080fd5b505092919050505098508b600160a060020a031663027aa9f56040518163ffffffff1660e060020a028152600401600060405180830381600087803b15801561077057600080fd5b505af1158015610784573d6000803e3d6000fd5b505050506040513d6000823e601f3d908101601f1916820160405260208110156107ad57600080fd5b8101908080516401000000008111156107c557600080fd5b820160208101848111156107d857600080fd5b81518560208202830111640100000000821117156107f557600080fd5b50909b5060009a50505050505b88518761ffff16101561099a57888761ffff1681518110151561082157fe5b906020019060200201519550610853888861ffff1681518110151561084257fe5b906020019060200201518b8d611493565b9450600060020160009054906101000a9004600160a060020a0316600160a060020a03166380ddda308d88886040518463ffffffff1660e060020a0281526004018084600160a060020a0316600160a060020a0316815260200183600160a060020a0316600160a060020a031681526020018281526020019350505050600060405180830381600087803b1580156108ea57600080fd5b505af11580156108fe573d6000803e3d6000fd5b5050600254604080517fbada5726000000000000000000000000000000000000000000000000000000008152336004820152600160a060020a038b81166024830152604482018b9052915191909216935063bada57269250606480830192600092919082900301818387803b15801561097657600080fd5b505af115801561098a573d6000803e3d6000fd5b5050600190980197506108029050565b505050505050505050505050565b600254600160a060020a031690565b600160a060020a038216600090815260046020908152604091829020548251606081018452602881527f53657420746f6b656e2069732064697361626c6564206f7220646f6573206e6f928101929092527f742065786973742e00000000000000000000000000000000000000000000000092820192909252839160ff161515610a865760405160e560020a62461bcd02815260040180806020018281038252838181518152602001915080519060200190808383600083811015610348578181015183820152602001610330565b5060408051606081018252602381527f5175616e74697479206d7573742062652067726561746572207468616e207a6560208201527f726f2e000000000000000000000000000000000000000000000000000000000091810191909152829060008211610b385760405160e560020a62461bcd02815260040180806020018281038252838181518152602001915080519060200190808383600083811015610348578181015183820152602001610330565b50828480600160a060020a03166342a7cfd56040518163ffffffff1660e060020a028152600401602060405180830381600087803b158015610b7957600080fd5b505af1158015610b8d573d6000803e3d6000fd5b505050506040513d6020811015610ba357600080fd5b505182811515610baf57fe5b60408051606081018252603981527f5175616e74697479206d757374206265206d756c7469706c65206f662074686560208201527f206e61747572616c20756e6974206f6620746865207365742e000000000000009181019190915291900615610c5e5760405160e560020a62461bcd02815260040180806020018281038252838181518152602001915080519060200190808383600083811015610348578181015183820152602001610330565b50610c6a3387876114bd565b505050505050565b600154600160a060020a031690565b60ff16600090815260208190526040902054600160a060020a031690565b600160a060020a038316600090815260046020908152604080832054815160608181018452602882527f53657420746f6b656e2069732064697361626c6564206f7220646f6573206e6f948201949094527f742065786973742e0000000000000000000000000000000000000000000000009281019290925282918491829182918a919060ff161515610d775760405160e560020a62461bcd02815260040180806020018281038252838181518152602001915080519060200190808383600083811015610348578181015183820152602001610330565b5060408051606081018252602381527f5175616e74697479206d7573742062652067726561746572207468616e207a6560208201527f726f2e000000000000000000000000000000000000000000000000000000000091810191909152899060008211610e295760405160e560020a62461bcd02815260040180806020018281038252838181518152602001915080519060200190808383600083811015610348578181015183820152602001610330565b50898b80600160a060020a03166342a7cfd56040518163ffffffff1660e060020a028152600401602060405180830381600087803b158015610e6a57600080fd5b505af1158015610e7e573d6000803e3d6000fd5b505050506040513d6020811015610e9457600080fd5b505182811515610ea057fe5b60408051606081018252603981527f5175616e74697479206d757374206265206d756c7469706c65206f662074686560208201527f206e61747572616c20756e6974206f6620746865207365742e000000000000009181019190915291900615610f4f5760405160e560020a62461bcd02815260040180806020018281038252838181518152602001915080519060200190808383600083811015610348578181015183820152602001610330565b50604080517f9dc29fac000000000000000000000000000000000000000000000000000000008152336004820152602481018e90529051600160a060020a038f1691639dc29fac91604480830192600092919082900301818387803b158015610fb757600080fd5b505af1158015610fcb573d6000803e3d6000fd5b505050508c600160a060020a03166342a7cfd56040518163ffffffff1660e060020a028152600401602060405180830381600087803b15801561100d57600080fd5b505af1158015611021573d6000803e3d6000fd5b505050506040513d602081101561103757600080fd5b5051604080517f99d50d5d0000000000000000000000000000000000000000000000000000000081529051919b50600160a060020a038f16916399d50d5d9160048082019260009290919082900301818387803b15801561109757600080fd5b505af11580156110ab573d6000803e3d6000fd5b505050506040513d6000823e601f3d908101601f1916820160405260208110156110d457600080fd5b8101908080516401000000008111156110ec57600080fd5b820160208101848111156110ff57600080fd5b815185602082028301116401000000008211171561111c57600080fd5b505092919050505098508c600160a060020a031663027aa9f56040518163ffffffff1660e060020a028152600401600060405180830381600087803b15801561116457600080fd5b505af1158015611178573d6000803e3d6000fd5b505050506040513d6000823e601f3d908101601f1916820160405260208110156111a157600080fd5b8101908080516401000000008111156111b957600080fd5b820160208101848111156111cc57600080fd5b81518560208202830111640100000000821117156111e957600080fd5b50909b5060009a50505050505b885187101561143e57611221888881518110151561121057fe5b906020019060200201518b8e611493565b6002548a51919750600160a060020a0316906380ddda30908f908c908b90811061124757fe5b90602001906020020151896040518463ffffffff1660e060020a0281526004018084600160a060020a0316600160a060020a0316815260200183600160a060020a0316600160a060020a031681526020018281526020019350505050600060405180830381600087803b1580156112bd57600080fd5b505af11580156112d1573d6000803e3d6000fd5b505050600288900a9550508a85161561137f576002548951600160a060020a039091169063c3b35a7e908b908a90811061130757fe5b602090810290910101516040805160e060020a63ffffffff8516028152600160a060020a039092166004830152336024830152604482018a905251606480830192600092919082900301818387803b15801561136257600080fd5b505af1158015611376573d6000803e3d6000fd5b50505050611433565b6002548951600160a060020a039091169063bada57269033908c908b9081106113a457fe5b90602001906020020151896040518463ffffffff1660e060020a0281526004018084600160a060020a0316600160a060020a0316815260200183600160a060020a0316600160a060020a031681526020018281526020019350505050600060405180830381600087803b15801561141a57600080fd5b505af115801561142e573d6000803e3d6000fd5b505050505b6001909601956111f6565b50505050505050505050505050565b600154600254600160a060020a03918216911682565b60009081526005602052604090205490565b600160a060020a031660009081526004602052604090205460ff1690565b60006114b5846114a9848663ffffffff611b4516565b9063ffffffff611b5c16565b949350505050565b60608060008060008060008089600160a060020a03166399d50d5d6040518163ffffffff1660e060020a028152600401600060405180830381600087803b15801561150757600080fd5b505af115801561151b573d6000803e3d6000fd5b505050506040513d6000823e601f3d908101601f19168201604052602081101561154457600080fd5b81019080805164010000000081111561155c57600080fd5b8201602081018481111561156f57600080fd5b815185602082028301116401000000008211171561158c57600080fd5b5050929190505050975089600160a060020a031663027aa9f56040518163ffffffff1660e060020a028152600401600060405180830381600087803b1580156115d457600080fd5b505af11580156115e8573d6000803e3d6000fd5b505050506040513d6000823e601f3d908101601f19168201604052602081101561161157600080fd5b81019080805164010000000081111561162957600080fd5b8201602081018481111561163c57600080fd5b815185602082028301116401000000008211171561165957600080fd5b50909a5060009950505050505b87518661ffff161015611abd57878661ffff1681518110151561168557fe5b906020019060200201519450868661ffff168151811015156116a357fe5b906020019060200201519350611723848b600160a060020a03166342a7cfd56040518163ffffffff1660e060020a028152600401602060405180830381600087803b1580156116f157600080fd5b505af1158015611705573d6000803e3d6000fd5b505050506040513d602081101561171b57600080fd5b50518b611493565b600254604080517f1f98ade3000000000000000000000000000000000000000000000000000000008152600160a060020a038f8116600483015289811660248301529151939650911691631f98ade3916044808201926020929091908290030181600087803b15801561179557600080fd5b505af11580156117a9573d6000803e3d6000fd5b505050506040513d60208110156117bf57600080fd5b5051915082821061185d57600254604080517f80ddda30000000000000000000000000000000000000000000000000000000008152600160a060020a038e81166004830152888116602483015260448201879052915191909216916380ddda3091606480830192600092919082900301818387803b15801561184057600080fd5b505af1158015611854573d6000803e3d6000fd5b50505050611a23565b60008211156118f557600254604080517f80ddda30000000000000000000000000000000000000000000000000000000008152600160a060020a038e81166004830152888116602483015260448201869052915191909216916380ddda3091606480830192600092919082900301818387803b1580156118dc57600080fd5b505af11580156118f0573d6000803e3d6000fd5b505050505b611905838363ffffffff611b8516565b600154909150600160a060020a031663a6c4e4678661192a868663ffffffff611b8516565b8e600060020160009054906101000a9004600160a060020a03166040518563ffffffff1660e060020a0281526004018085600160a060020a0316600160a060020a0316815260200184815260200183600160a060020a0316600160a060020a0316815260200182600160a060020a0316600160a060020a03168152602001945050505050600060405180830381600087803b1580156119c857600080fd5b505af11580156119dc573d6000803e3d6000fd5b5050604080518481529051600160a060020a03808a1694508e1692507fced8518610cf00c97309551834addd978c595341eda2066dbd52f9e9904895739181900360200190a35b600254604080517fbada5726000000000000000000000000000000000000000000000000000000008152600160a060020a038d811660048301528881166024830152604482018790529151919092169163bada572691606480830192600092919082900301818387803b158015611a9957600080fd5b505af1158015611aad573d6000803e3d6000fd5b5050600190970196506116669050565b89600160a060020a03166340c10f198c8b6040518363ffffffff1660e060020a0281526004018083600160a060020a0316600160a060020a0316815260200182815260200192505050600060405180830381600087803b158015611b2057600080fd5b505af1158015611b34573d6000803e3d6000fd5b505050505050505050505050505050565b60008183811515611b5257fe5b0490505b92915050565b6000821515611b6d57506000611b56565b50818102818382811515611b7d57fe5b0414611b5657fe5b600082821115611b9157fe5b509003905600a165627a7a72305820d6a02227bfaade592928d52b45c83471e2712618f8275518141746524a1bd9990029",
  "source": "/*\n    Copyright 2018 Set Labs Inc.\n\n    Licensed under the Apache License, Version 2.0 (the \"License\");\n    you may not use this file except in compliance with the License.\n    You may obtain a copy of the License at\n\n    http://www.apache.org/licenses/LICENSE-2.0\n\n    Unless required by applicable law or agreed to in writing, software\n    distributed under the License is distributed on an \"AS IS\" BASIS,\n    WITHOUT WARRANTIES OR CONDITIONS OF ANY KIND, either express or implied.\n    See the License for the specific language governing permissions and\n    limitations under the License.\n*/\n\npragma solidity 0.4.24;\n\nimport { SafeMath } from \"zeppelin-solidity/contracts/math/SafeMath.sol\";\nimport { CoreModifiers } from \"../lib/CoreSharedModifiers.sol\";\nimport { CoreState } from \"../lib/CoreState.sol\";\nimport { ISetToken } from \"../interfaces/ISetToken.sol\";\nimport { ITransferProxy } from \"../interfaces/ITransferProxy.sol\";\nimport { IVault } from \"../interfaces/IVault.sol\";\n\n\n/**\n * @title Core Issuance\n * @author Set Protocol\n *\n * The CoreIssuance contract contains public set token operations\n */\ncontract CoreIssuance is\n    CoreState,\n    CoreModifiers\n{\n    // Use SafeMath library for all uint256 arithmetic\n    using SafeMath for uint256;\n\n    /* ============ Events ============ */\n\n    event IssuanceComponentDeposited(\n        address indexed _setToken,\n        address indexed _component,\n        uint _quantity\n    );\n\n    /* ============ Public Functions ============ */\n\n    /**\n     * Exchanges components for Set Tokens\n     *\n     * @param  _setAddress   Address of set to issue\n     * @param  _quantity     Quantity of set to issue\n     */\n    function issue(\n        address _setAddress,\n        uint _quantity\n    )\n        external\n        isValidSet(_setAddress)\n        isPositiveQuantity(_quantity)\n        isNaturalUnitMultiple(_quantity, _setAddress)\n    {\n        // Run issueInternal\n        issueInternal(msg.sender, _setAddress, _quantity);\n    }\n\n    /**\n     * Function to convert Set Tokens into underlying components\n     *\n     * @param _setAddress   The address of the Set token\n     * @param _quantity     The number of tokens to redeem\n     */\n    function redeem(\n        address _setAddress,\n        uint _quantity\n    )\n        external\n        isValidSet(_setAddress)\n        isPositiveQuantity(_quantity)\n        isNaturalUnitMultiple(_quantity, _setAddress)\n    {\n        // Burn the Set token (thereby decrementing the SetToken balance)\n        ISetToken(_setAddress).burn(msg.sender, _quantity);\n\n        uint naturalUnit = ISetToken(_setAddress).naturalUnit();\n\n        // Transfer the underlying tokens to the corresponding token balances\n        address[] memory components = ISetToken(_setAddress).getComponents();\n        uint[] memory units = ISetToken(_setAddress).getUnits();\n        for (uint16 i = 0; i < components.length; i++) {\n            address currentComponent = components[i];\n\n            uint tokenValue = calculateTransferValue(\n                units[i],\n                naturalUnit,\n                _quantity\n            );\n\n            // Decrement the Set amount\n            IVault(state.vaultAddress).decrementTokenOwner(\n                _setAddress,\n                currentComponent,\n                tokenValue\n            );\n\n            // Increment the component amount\n            IVault(state.vaultAddress).incrementTokenOwner(\n                msg.sender,\n                currentComponent,\n                tokenValue\n            );\n        }\n    }\n\n    /**\n     * Composite method to redeem and withdraw with a single transaction\n     *\n     * Normally, you should expect to be able to withdraw all of the tokens.\n     * However, some have central abilities to freeze transfers (e.g. EOS). _toWithdraw\n     * allows you to optionally specify which component tokens to transfer\n     * back to the user. The rest will remain in the vault under the users' addresses.\n     *\n     * @param _setAddress   The address of the Set token\n     * @param _quantity     The number of tokens to redeem\n     * @param _toWithdraw   Mask of indexes of tokens to withdraw\n     */\n    function redeemAndWithdraw(\n        address _setAddress,\n        uint _quantity,\n        uint _toWithdraw\n    )\n        external\n        isValidSet(_setAddress)\n        isPositiveQuantity(_quantity)\n        isNaturalUnitMultiple(_quantity, _setAddress)\n    {\n        // Burn the Set token (thereby decrementing the SetToken balance)\n        ISetToken(_setAddress).burn(msg.sender, _quantity);\n\n        // Fetch Set token properties\n        uint naturalUnit = ISetToken(_setAddress).naturalUnit();\n        address[] memory components = ISetToken(_setAddress).getComponents();\n        uint[] memory units = ISetToken(_setAddress).getUnits();\n\n        // Loop through and decrement vault balances for the set, withdrawing if requested\n        for (uint i = 0; i < components.length; i++) {\n            // Calculate quantity to transfer\n            uint componentQuantity = calculateTransferValue(\n                units[i],\n                naturalUnit,\n                _quantity\n            );\n\n            // Decrement the component amount owned by the Set\n            IVault(state.vaultAddress).decrementTokenOwner(\n                _setAddress,\n                components[i],\n                componentQuantity\n            );\n\n            // Calculate bit index of current component\n            uint componentBitIndex = 2 ** i;\n\n            // Transfer to user if component is included in _toWithdraw\n            if ((_toWithdraw & componentBitIndex) != 0) {\n                // Call Vault to withdraw tokens from Vault to user\n                IVault(state.vaultAddress).withdrawTo(\n                    components[i],\n                    msg.sender,\n                    componentQuantity\n                );\n            } else {\n                // Otherwise, increment the component amount for the user\n                IVault(state.vaultAddress).incrementTokenOwner(\n                    msg.sender,\n                    components[i],\n                    componentQuantity\n                );\n            }\n        }\n    }\n\n    /* ============ Private Functions ============ */\n\n    /**\n     * Function to calculate the transfer value of a component given quantity of Set\n     *\n     * @param _componentUnits   The units of the component token\n     * @param _naturalUnit      The natural unit of the Set token\n     * @param _quantity         The number of tokens being redeem\n     */\n    function calculateTransferValue(\n        uint _componentUnits,\n        uint _naturalUnit,\n        uint _quantity\n    )\n        pure\n        internal\n        returns (uint)\n    {\n        return _quantity.div(_naturalUnit).mul(_componentUnits);\n    }\n\n    /* ============ Internal Functions ============ */\n\n    /**\n     * Exchanges components for Set Tokens, accepting any owner\n     *\n     * @param  _owner        Address to issue set to\n     * @param  _setAddress   Address of set to issue\n     * @param  _quantity     Quantity of set to issue\n     */\n    function issueInternal(\n        address _owner,\n        address _setAddress,\n        uint _quantity\n    )\n        internal\n    {\n        // Fetch set token components\n        address[] memory components = ISetToken(_setAddress).getComponents();\n        // Fetch set token component units\n        uint[] memory units = ISetToken(_setAddress).getUnits();\n\n        // Inspect vault for required component quantity\n        for (uint16 i = 0; i < components.length; i++) {\n            address component = components[i];\n            uint unit = units[i];\n\n            // Calculate required component quantity\n            uint requiredComponentQuantity = calculateTransferValue(\n                unit,\n                ISetToken(_setAddress).naturalUnit(),\n                _quantity\n            );\n\n            // Fetch component quantity in vault\n            uint vaultBalance = IVault(state.vaultAddress).getOwnerBalance(_owner, component);\n            if (vaultBalance >= requiredComponentQuantity) {\n                // Decrement vault balance by the required component quantity\n                IVault(state.vaultAddress).decrementTokenOwner(\n                    _owner,\n                    component,\n                    requiredComponentQuantity\n                );\n            } else {\n                // User has less than required amount, decrement the vault by full balance\n                if (vaultBalance > 0) {\n                    IVault(state.vaultAddress).decrementTokenOwner(\n                        _owner,\n                        component,\n                        vaultBalance\n                    );\n                }\n\n                // Calculate remainder to deposit\n                uint amountToDeposit = requiredComponentQuantity.sub(vaultBalance);\n\n                // Transfer the remainder component quantity required to vault\n                ITransferProxy(state.transferProxyAddress).transfer(\n                    component,\n                    requiredComponentQuantity.sub(vaultBalance),\n                    _owner,\n                    state.vaultAddress\n                );\n\n                // Log transfer of component from issuer waller\n                emit IssuanceComponentDeposited(\n                    _setAddress,\n                    component,\n                    amountToDeposit\n                );\n            }\n\n            // Increment the vault balance of the set token for the component\n            IVault(state.vaultAddress).incrementTokenOwner(\n                _setAddress,\n                component,\n                requiredComponentQuantity\n            );\n        }\n\n        // Issue set token\n        ISetToken(_setAddress).mint(_owner, _quantity);\n    }\n}\n",
  "sourcePath": "/Users/justinkchen/workspace/set-protocol-contracts/contracts/core/extensions/CoreIssuance.sol",
  "compiler": {
    "name": "solc",
    "version": "0.4.24+commit.e67f0147.Emscripten.clang"
  },
  "schemaVersion": "2.0.0",
  "updatedAt": "2018-07-08T01:11:15.192Z"
}