{
  "contractName": "CoreState",
  "abi": [
    {
      "constant": true,
      "inputs": [],
      "name": "state",
      "outputs": [
        {
          "name": "transferProxy",
          "type": "address"
        },
        {
          "name": "vault",
          "type": "address"
        }
      ],
      "payable": false,
      "stateMutability": "view",
      "type": "function"
    },
    {
      "constant": true,
      "inputs": [
        {
          "name": "_exchangeId",
          "type": "uint8"
        }
      ],
      "name": "exchanges",
      "outputs": [
        {
          "name": "",
          "type": "address"
        }
      ],
      "payable": false,
      "stateMutability": "view",
      "type": "function"
    },
    {
      "constant": true,
      "inputs": [],
      "name": "transferProxy",
      "outputs": [
        {
          "name": "",
          "type": "address"
        }
      ],
      "payable": false,
      "stateMutability": "view",
      "type": "function"
    },
    {
      "constant": true,
      "inputs": [],
      "name": "vault",
      "outputs": [
        {
          "name": "",
          "type": "address"
        }
      ],
      "payable": false,
      "stateMutability": "view",
      "type": "function"
    },
    {
      "constant": true,
      "inputs": [
        {
          "name": "_factory",
          "type": "address"
        }
      ],
      "name": "validFactories",
      "outputs": [
        {
          "name": "",
          "type": "bool"
        }
      ],
      "payable": false,
      "stateMutability": "view",
      "type": "function"
    },
    {
      "constant": true,
      "inputs": [],
      "name": "factories",
      "outputs": [
        {
          "name": "",
          "type": "address[]"
        }
      ],
      "payable": false,
      "stateMutability": "view",
      "type": "function"
    },
    {
      "constant": true,
      "inputs": [
        {
          "name": "_set",
          "type": "address"
        }
      ],
      "name": "validSets",
      "outputs": [
        {
          "name": "",
          "type": "bool"
        }
      ],
      "payable": false,
      "stateMutability": "view",
      "type": "function"
    },
    {
      "constant": true,
      "inputs": [],
      "name": "setTokens",
      "outputs": [
        {
          "name": "",
          "type": "address[]"
        }
      ],
      "payable": false,
      "stateMutability": "view",
      "type": "function"
    },
    {
      "constant": true,
      "inputs": [
        {
          "name": "_orderHash",
          "type": "bytes32"
        }
      ],
      "name": "orderFills",
      "outputs": [
        {
          "name": "",
          "type": "uint256"
        }
      ],
      "payable": false,
      "stateMutability": "view",
      "type": "function"
    },
    {
      "constant": true,
      "inputs": [
        {
          "name": "_orderHash",
          "type": "bytes32"
        }
      ],
      "name": "orderCancels",
      "outputs": [
        {
          "name": "",
          "type": "uint256"
        }
      ],
      "payable": false,
      "stateMutability": "view",
      "type": "function"
    }
  ],
  "bytecode": "0x608060405234801561001057600080fd5b506103fc806100206000396000f3006080604052600436106100a35763ffffffff7c01000000000000000000000000000000000000000000000000000000006000350416630e4355d481146100a85780631e912bd6146100dd578063559ed339146101075780636e667db31461016c578063a003e0691461019d578063c19d93fb146101b8578063f7213db6146101f3578063fbfa77cf1461020b578063fe5b38e414610220578063fef3ee7314610235575b600080fd5b3480156100b457600080fd5b506100c9600160a060020a0360043516610256565b604080519115158252519081900360200190f35b3480156100e957600080fd5b506100f5600435610274565b60408051918252519081900360200190f35b34801561011357600080fd5b5061011c610286565b60408051602080825283518183015283519192839290830191858101910280838360005b83811015610158578181015183820152602001610140565b505050509050019250505060405180910390f35b34801561017857600080fd5b506101816102eb565b60408051600160a060020a039092168252519081900360200190f35b3480156101a957600080fd5b5061018160ff600435166102fa565b3480156101c457600080fd5b506101cd610318565b60408051600160a060020a03938416815291909216602082015281519081900390910190f35b3480156101ff57600080fd5b506100f560043561032e565b34801561021757600080fd5b50610181610340565b34801561022c57600080fd5b5061011c61034f565b34801561024157600080fd5b506100c9600160a060020a03600435166103b2565b600160a060020a031660009081526003602052604090205460ff1690565b60009081526008602052604090205490565b606060006006018054806020026020016040519081016040528092919081815260200182805480156102e157602002820191906000526020600020905b8154600160a060020a031681526001909101906020018083116102c3575b5050505050905090565b600154600160a060020a031690565b60ff16600090815260208190526040902054600160a060020a031690565b600154600254600160a060020a03918216911682565b60009081526007602052604090205490565b600254600160a060020a031690565b606060006004018054806020026020016040519081016040528092919081815260200182805480156102e157602002820191906000526020600020908154600160a060020a031681526001909101906020018083116102c3575050505050905090565b600160a060020a031660009081526005602052604090205460ff16905600a165627a7a72305820ed359e9a9d4f3003d60edca81183499c25c340fc92589c0445b0d09336a613ae0029",
  "source": "/*\n    Copyright 2018 Set Labs Inc.\n\n    Licensed under the Apache License, Version 2.0 (the \"License\");\n    you may not use this file except in compliance with the License.\n    You may obtain a copy of the License at\n\n    http://www.apache.org/licenses/LICENSE-2.0\n\n    Unless required by applicable law or agreed to in writing, software\n    distributed under the License is distributed on an \"AS IS\" BASIS,\n    WITHOUT WARRANTIES OR CONDITIONS OF ANY KIND, either express or implied.\n    See the License for the specific language governing permissions and\n    limitations under the License.\n*/\n\npragma solidity 0.4.24;\n\n\n/**\n * @title CoreState\n * @author Set Protocol\n *\n * The CoreState library maintains all state for the Core contract thus\n * allowing it to operate across multiple mixins.\n */\ncontract CoreState {\n\n    /* ============ Structs ============ */\n\n    struct State {\n        // Mapping of exchange enumeration to address\n        mapping(uint8 => address) exchanges;\n\n        // Address of the TransferProxy contract\n        address transferProxy;\n\n        // Address of the Vault contract\n        address vault;\n\n        // Mapping of tracked SetToken factories\n        mapping(address => bool) validFactories;\n\n        // Array of tracked SetToken factories\n        address[] factories;\n\n        // Mapping of tracked SetTokens\n        mapping(address => bool) validSets;\n\n        // Array of tracked SetTokens\n        address[] setTokens;\n\n        // Mapping of filled Issuance Orders\n        mapping(bytes32 => uint) orderFills;\n\n        // Mapping of canceled Issuance Orders\n        mapping(bytes32 => uint) orderCancels;\n    }\n\n    /* ============ State Variables ============ */\n\n    State public state;\n\n    /* ============ Public Getters ============ */\n\n    /**\n     * Return address belonging to given exchangeId.\n     *\n     * @param  _exchangeId       ExchangeId number\n     * @return address           Address belonging to given exchangeId\n     */\n    function exchanges(\n        uint8 _exchangeId\n    )\n        public\n        view\n        returns(address)\n    {\n        return state.exchanges[_exchangeId];\n    }\n\n    /**\n     * Return transferProxy address.\n     *\n     * @return address       transferProxy address\n     */\n    function transferProxy()\n        public\n        view\n        returns(address)\n    {\n        return state.transferProxy;\n    }\n\n    /**\n     * Return vault address\n     *\n     * @return address        vault address\n     */\n    function vault()\n        public\n        view\n        returns(address)\n    {\n        return state.vault;\n    }\n\n    /**\n     * Return boolean indicating if address is valid factory.\n     *\n     * @param  _factory       Factory address\n     * @return bool           Boolean indicating if enabled factory\n     */\n    function validFactories(\n        address _factory\n    )\n        public\n        view\n        returns(bool)\n    {\n        return state.validFactories[_factory];\n    }\n\n    /**\n     * Return array of all enabled factories.\n     *\n     * @return address[]      Array of enabled factories\n     */\n    function factories()\n        public\n        view\n        returns(address[])\n    {\n        return state.factories;\n    }\n\n    /**\n     * Return boolean indicating if address is valid Set.\n     *\n     * @param  _set           Set address\n     * @return bool           Boolean indicating if valid Set\n     */\n    function validSets(\n        address _set\n    )\n        public\n        view\n        returns(bool)\n    {\n        return state.validSets[_set];\n    }\n\n    /**\n     * Return array of all valid Set Tokens.\n     *\n     * @return address[]      Array of valid Set Tokens\n     */\n    function setTokens()\n        public\n        view\n        returns(address[])\n    {\n        return state.setTokens;\n    }\n\n    /**\n     * Return amount of Issuance Order already filled\n     *\n     * @param  _orderHash       Issuance Order orderHash\n     * @return uint256             Amount of Issuance Order filled\n     */\n    function orderFills(\n        bytes32 _orderHash\n    )\n        public\n        view\n        returns(uint256)\n    {\n        return state.orderFills[_orderHash];\n    }\n\n    /**\n     * Return amount of Issuance Order already canceled\n     *\n     * @param  _orderHash       Issuance Order orderHash\n     * @return uint256             Amount of Issuance Order canceled\n     */\n    function orderCancels(\n        bytes32 _orderHash\n    )\n        public\n        view\n        returns(uint256)\n    {\n        return state.orderCancels[_orderHash];\n    }\n}\n",
  "sourcePath": "/Users/justinkchen/workspace/set-protocol-contracts/contracts/core/lib/CoreState.sol",
  "compiler": {
    "name": "solc",
    "version": "0.4.24+commit.e67f0147.Emscripten.clang"
  },
  "schemaVersion": "2.0.0",
  "updatedAt": "2018-08-22T08:07:49.122Z"
}