{
  "contractName": "Core",
  "abi": [
    {
      "constant": false,
      "inputs": [
        {
          "name": "_addresses",
          "type": "address[5]"
        },
        {
          "name": "_values",
          "type": "uint256[5]"
        },
        {
          "name": "_cancelQuantity",
          "type": "uint256"
        }
      ],
      "name": "cancelOrder",
      "outputs": [],
      "payable": false,
      "stateMutability": "nonpayable",
      "type": "function"
    },
    {
      "constant": true,
      "inputs": [
        {
          "name": "_factory",
          "type": "address"
        }
      ],
      "name": "validFactories",
      "outputs": [
        {
          "name": "",
          "type": "bool"
        }
      ],
      "payable": false,
      "stateMutability": "view",
      "type": "function"
    },
    {
      "constant": false,
      "inputs": [
        {
          "name": "_transferProxyAddress",
          "type": "address"
        }
      ],
      "name": "setTransferProxyAddress",
      "outputs": [],
      "payable": false,
      "stateMutability": "nonpayable",
      "type": "function"
    },
    {
      "constant": false,
      "inputs": [
        {
          "name": "_factoryAddress",
          "type": "address"
        }
      ],
      "name": "disableFactory",
      "outputs": [],
      "payable": false,
      "stateMutability": "nonpayable",
      "type": "function"
    },
    {
      "constant": true,
      "inputs": [
        {
          "name": "_orderHash",
          "type": "bytes32"
        }
      ],
      "name": "orderCancels",
      "outputs": [
        {
          "name": "",
          "type": "uint256"
        }
      ],
      "payable": false,
      "stateMutability": "view",
      "type": "function"
    },
    {
      "constant": false,
      "inputs": [
        {
          "name": "_setAddress",
          "type": "address"
        },
        {
          "name": "_quantity",
          "type": "uint256"
        }
      ],
      "name": "redeem",
      "outputs": [],
      "payable": false,
      "stateMutability": "nonpayable",
      "type": "function"
    },
    {
      "constant": false,
      "inputs": [
        {
          "name": "_tokenAddresses",
          "type": "address[]"
        },
        {
          "name": "_quantities",
          "type": "uint256[]"
        }
      ],
      "name": "batchDeposit",
      "outputs": [],
      "payable": false,
      "stateMutability": "nonpayable",
      "type": "function"
    },
    {
      "constant": false,
      "inputs": [
        {
          "name": "_exchangeId",
          "type": "uint8"
        },
        {
          "name": "_exchange",
          "type": "address"
        }
      ],
      "name": "registerExchange",
      "outputs": [],
      "payable": false,
      "stateMutability": "nonpayable",
      "type": "function"
    },
    {
      "constant": true,
      "inputs": [],
      "name": "vaultAddress",
      "outputs": [
        {
          "name": "",
          "type": "address"
        }
      ],
      "payable": false,
      "stateMutability": "view",
      "type": "function"
    },
    {
      "constant": false,
      "inputs": [
        {
          "name": "_tokenAddress",
          "type": "address"
        },
        {
          "name": "_quantity",
          "type": "uint256"
        }
      ],
      "name": "deposit",
      "outputs": [],
      "payable": false,
      "stateMutability": "nonpayable",
      "type": "function"
    },
    {
      "constant": false,
      "inputs": [
        {
          "name": "_factoryAddress",
          "type": "address"
        },
        {
          "name": "_components",
          "type": "address[]"
        },
        {
          "name": "_units",
          "type": "uint256[]"
        },
        {
          "name": "_naturalUnit",
          "type": "uint256"
        },
        {
          "name": "_name",
          "type": "string"
        },
        {
          "name": "_symbol",
          "type": "string"
        }
      ],
      "name": "create",
      "outputs": [
        {
          "name": "",
          "type": "address"
        }
      ],
      "payable": false,
      "stateMutability": "nonpayable",
      "type": "function"
    },
    {
      "constant": false,
      "inputs": [],
      "name": "renounceOwnership",
      "outputs": [],
      "payable": false,
      "stateMutability": "nonpayable",
      "type": "function"
    },
    {
      "constant": false,
      "inputs": [
        {
          "name": "_setAddress",
          "type": "address"
        }
      ],
      "name": "disableSet",
      "outputs": [],
      "payable": false,
      "stateMutability": "nonpayable",
      "type": "function"
    },
    {
      "constant": false,
      "inputs": [
        {
          "name": "_vaultAddress",
          "type": "address"
        }
      ],
      "name": "setVaultAddress",
      "outputs": [],
      "payable": false,
      "stateMutability": "nonpayable",
      "type": "function"
    },
    {
      "constant": false,
      "inputs": [
        {
          "name": "_setAddress",
          "type": "address"
        },
        {
          "name": "_quantity",
          "type": "uint256"
        }
      ],
      "name": "issue",
      "outputs": [],
      "payable": false,
      "stateMutability": "nonpayable",
      "type": "function"
    },
    {
      "constant": true,
      "inputs": [],
      "name": "transferProxyAddress",
      "outputs": [
        {
          "name": "",
          "type": "address"
        }
      ],
      "payable": false,
      "stateMutability": "view",
      "type": "function"
    },
    {
      "constant": true,
      "inputs": [],
      "name": "owner",
      "outputs": [
        {
          "name": "",
          "type": "address"
        }
      ],
      "payable": false,
      "stateMutability": "view",
      "type": "function"
    },
    {
      "constant": false,
      "inputs": [
        {
          "name": "_factoryAddress",
          "type": "address"
        }
      ],
      "name": "enableFactory",
      "outputs": [],
      "payable": false,
      "stateMutability": "nonpayable",
      "type": "function"
    },
    {
      "constant": true,
      "inputs": [
        {
          "name": "_exchangeId",
          "type": "uint8"
        }
      ],
      "name": "exchanges",
      "outputs": [
        {
          "name": "",
          "type": "address"
        }
      ],
      "payable": false,
      "stateMutability": "view",
      "type": "function"
    },
    {
      "constant": false,
      "inputs": [
        {
          "name": "_setAddress",
          "type": "address"
        },
        {
          "name": "_quantity",
          "type": "uint256"
        },
        {
          "name": "_toWithdraw",
          "type": "uint256"
        }
      ],
      "name": "redeemAndWithdraw",
      "outputs": [],
      "payable": false,
      "stateMutability": "nonpayable",
      "type": "function"
    },
    {
      "constant": true,
      "inputs": [],
      "name": "state",
      "outputs": [
        {
          "name": "transferProxyAddress",
          "type": "address"
        },
        {
          "name": "vaultAddress",
          "type": "address"
        }
      ],
      "payable": false,
      "stateMutability": "view",
      "type": "function"
    },
    {
      "constant": false,
      "inputs": [
        {
          "name": "_addresses",
          "type": "address[5]"
        },
        {
          "name": "_values",
          "type": "uint256[5]"
        },
        {
          "name": "_fillQuantity",
          "type": "uint256"
        },
        {
          "name": "_v",
          "type": "uint8"
        },
        {
          "name": "sigBytes",
          "type": "bytes32[]"
        },
        {
          "name": "_orderData",
          "type": "bytes"
        }
      ],
      "name": "fillOrder",
      "outputs": [],
      "payable": false,
      "stateMutability": "nonpayable",
      "type": "function"
    },
    {
      "constant": false,
      "inputs": [
        {
          "name": "_tokenAddresses",
          "type": "address[]"
        },
        {
          "name": "_quantities",
          "type": "uint256[]"
        }
      ],
      "name": "batchWithdraw",
      "outputs": [],
      "payable": false,
      "stateMutability": "nonpayable",
      "type": "function"
    },
    {
      "constant": false,
      "inputs": [
        {
          "name": "_newOwner",
          "type": "address"
        }
      ],
      "name": "transferOwnership",
      "outputs": [],
      "payable": false,
      "stateMutability": "nonpayable",
      "type": "function"
    },
    {
      "constant": false,
      "inputs": [
        {
          "name": "_tokenAddress",
          "type": "address"
        },
        {
          "name": "_quantity",
          "type": "uint256"
        }
      ],
      "name": "withdraw",
      "outputs": [],
      "payable": false,
      "stateMutability": "nonpayable",
      "type": "function"
    },
    {
      "constant": true,
      "inputs": [
        {
          "name": "_orderHash",
          "type": "bytes32"
        }
      ],
      "name": "orderFills",
      "outputs": [
        {
          "name": "",
          "type": "uint256"
        }
      ],
      "payable": false,
      "stateMutability": "view",
      "type": "function"
    },
    {
      "constant": true,
      "inputs": [
        {
          "name": "_set",
          "type": "address"
        }
      ],
      "name": "validSets",
      "outputs": [
        {
          "name": "",
          "type": "bool"
        }
      ],
      "payable": false,
      "stateMutability": "view",
      "type": "function"
    },
    {
      "anonymous": false,
      "inputs": [
        {
          "indexed": true,
          "name": "_setToken",
          "type": "address"
        },
        {
          "indexed": true,
          "name": "_component",
          "type": "address"
        },
        {
          "indexed": false,
          "name": "_quantity",
          "type": "uint256"
        }
      ],
      "name": "IssuanceComponentDeposited",
      "type": "event"
    },
    {
      "anonymous": false,
      "inputs": [
        {
          "indexed": true,
          "name": "_setTokenAddress",
          "type": "address"
        },
        {
          "indexed": false,
          "name": "_factoryAddress",
          "type": "address"
        },
        {
          "indexed": false,
          "name": "_components",
          "type": "address[]"
        },
        {
          "indexed": false,
          "name": "_units",
          "type": "uint256[]"
        },
        {
          "indexed": false,
          "name": "_naturalUnit",
          "type": "uint256"
        },
        {
          "indexed": false,
          "name": "_name",
          "type": "string"
        },
        {
          "indexed": false,
          "name": "_symbol",
          "type": "string"
        }
      ],
      "name": "SetTokenCreated",
      "type": "event"
    },
    {
      "anonymous": false,
      "inputs": [
        {
          "indexed": false,
          "name": "_exchangeId",
          "type": "uint8"
        },
        {
          "indexed": false,
          "name": "_exchange",
          "type": "address"
        }
      ],
      "name": "ExchangeRegistered",
      "type": "event"
    },
    {
      "anonymous": false,
      "inputs": [
        {
          "indexed": true,
          "name": "previousOwner",
          "type": "address"
        }
      ],
      "name": "OwnershipRenounced",
      "type": "event"
    },
    {
      "anonymous": false,
      "inputs": [
        {
          "indexed": true,
          "name": "previousOwner",
          "type": "address"
        },
        {
          "indexed": true,
          "name": "newOwner",
          "type": "address"
        }
      ],
      "name": "OwnershipTransferred",
      "type": "event"
    }
  ],
  "bytecode": "0x608060405260008054600160a060020a03191633179055613ec5806100256000396000f3006080604052600436106101455763ffffffff60e060020a60003504166309bd003e811461014a5780630e4355d414610169578063124cfd781461019e5780631a1f2b3e146101bf5780631e912bd6146101e05780631e9a69501461020a57806330a907361461022e5780633e3d13b21461025a578063430bf08a1461028157806347e7ef24146102b257806352904449146102d6578063715018a61461032b57806377274ff01461034057806385535cc514610361578063867904b4146103825780638ca4daf9146103a65780638da5cb5b146103bb5780639f80ee88146103d0578063a003e069146103f1578063ac842c661461040c578063c19d93fb14610433578063c56fdd941461046e578063e131243e146104ab578063f2fde38b146104d7578063f3fef3a3146104f8578063f7213db61461051c578063fef3ee7314610534575b600080fd5b34801561015657600080fd5b50610167600460a461014435610555565b005b34801561017557600080fd5b5061018a600160a060020a0360043516610842565b604080519115158252519081900360200190f35b3480156101aa57600080fd5b50610167600160a060020a0360043516610860565b3480156101cb57600080fd5b50610167600160a060020a03600435166108a6565b3480156101ec57600080fd5b506101f86004356109af565b60408051918252519081900360200190f35b34801561021657600080fd5b50610167600160a060020a03600435166024356109c1565b34801561023a57600080fd5b50610167602460048035828101929082013591813591820191013561104d565b34801561026657600080fd5b5061016760ff60043516600160a060020a03602435166112c9565b34801561028d57600080fd5b50610296611358565b60408051600160a060020a039092168252519081900360200190f35b3480156102be57600080fd5b50610167600160a060020a0360043516602435611367565b3480156102e257600080fd5b5061029660048035600160a060020a031690602480358082019290810135916044358082019290810135916064359160843580830192908201359160a43591820191013561150f565b34801561033757600080fd5b5061016761181d565b34801561034c57600080fd5b50610167600160a060020a0360043516611889565b34801561036d57600080fd5b50610167600160a060020a036004351661196e565b34801561038e57600080fd5b50610167600160a060020a03600435166024356119b4565b3480156103b257600080fd5b50610296611bfe565b3480156103c757600080fd5b50610296611c0d565b3480156103dc57600080fd5b50610167600160a060020a0360043516611c1c565b3480156103fd57600080fd5b5061029660ff60043516611c57565b34801561041857600080fd5b50610167600160a060020a0360043516602435604435611c75565b34801561043f57600080fd5b506104486123b2565b60408051600160a060020a03938416815291909216602082015281519081900390910190f35b34801561047a57600080fd5b50610167600460a4610144356101643560ff1661018435602481810191860135906101a435908101908701356123c8565b3480156104b757600080fd5b5061016760246004803582810192908201359181359182019101356128d3565b3480156104e357600080fd5b50610167600160a060020a0360043516612b46565b34801561050457600080fd5b50610167600160a060020a0360043516602435612b69565b34801561052857600080fd5b506101f8600435612c7d565b34801561054057600080fd5b5061018a600160a060020a0360043516612c8f565b61055d613d76565b6000806000846000811160606040519081016040528060238152602001600080516020613e7a833981519152815260200160e960020a62393797028152509015156106295760405160e560020a62461bcd0281526004018080602001828103825283818151815260200191508051906020019080838360005b838110156105ee5781810151838201526020016105d6565b50505050905090810190601f16801561061b5780820380516001836020036101000a031916815260200191505b509250505060405180910390fd5b506040805161016081018252600160a060020a038a35811682528935602080840191909152808c01358216838501528b8401358216606080850191909152908b01356080808501919091528b85013560a080860191909152828e0135841660c0860152818e013590931660e0850152908b01356101008401528a0135610120830152825180820190935290916101408301916106f791908c90600590839083908082843750506040805160a081810190925293508e925060059150839083908082843750612cad9350505050565b90526040808201518151808301909252601c82527f4f6e6c79206d616b65722063616e2063616e63656c206f726465722e00000000602083015291965090600160a060020a0316331461078f5760405160e560020a62461bcd028152600401808060200182810382528381815181526020019150805190602001908083836000838110156105ee5781810151838201526020016105d6565b5061079a8587612dc4565b610140850180516000908152600760209081526040808320549351835260069091529020546107ce9163ffffffff61312916565b60208601519094506107e6908563ffffffff61313616565b92506107f8838763ffffffff61314816565b610140860151600090815260076020526040902054909250610820908363ffffffff61312916565b6101409095015160009081526007602052604090209490945550505050505050565b600160a060020a031660009081526004602052604090205460ff1690565b600054600160a060020a0316331461087757600080fd5b6002805473ffffffffffffffffffffffffffffffffffffffff1916600160a060020a0392909216919091179055565b600054600160a060020a031633146108bd57600080fd5b600160a060020a038116600090815260046020908152604091829020548251606081018452602681527f466163746f72792069732064697361626c6564206f7220646f6573206e6f7420928101929092527f65786973742e000000000000000000000000000000000000000000000000000092820192909252829160ff16151561098c5760405160e560020a62461bcd028152600401808060200182810382528381815181526020019150805190602001908083836000838110156105ee5781810151838201526020016105d6565b5050600160a060020a03166000908152600460205260409020805460ff19169055565b60009081526007602052604090205490565b600160a060020a03821660009081526005602090815260408083205481516060818101845260288252600080516020613dfa83398151915294820194909452600080516020613e3a83398151915292810192909252829184918291829189919060ff161515610a755760405160e560020a62461bcd028152600401808060200182810382528381815181526020019150805190602001908083836000838110156105ee5781810151838201526020016105d6565b506040805160608101825260238152600080516020613e7a833981519152602082015260e960020a623937970291810191909152889060008211610afe5760405160e560020a62461bcd028152600401808060200182810382528381815181526020019150805190602001908083836000838110156105ee5781810151838201526020016105d6565b50888a80600160a060020a03166342a7cfd56040518163ffffffff1660e060020a028152600401602060405180830381600087803b158015610b3f57600080fd5b505af1158015610b53573d6000803e3d6000fd5b505050506040513d6020811015610b6957600080fd5b505182811515610b7557fe5b6040805160608101825260398152600080516020613e5a8339815191526020820152600080516020613e1a8339815191529181019190915291900615610c005760405160e560020a62461bcd028152600401808060200182810382528381815181526020019150805190602001908083836000838110156105ee5781810151838201526020016105d6565b50604080517f9dc29fac000000000000000000000000000000000000000000000000000000008152336004820152602481018d90529051600160a060020a038e1691639dc29fac91604480830192600092919082900301818387803b158015610c6857600080fd5b505af1158015610c7c573d6000803e3d6000fd5b505050508b600160a060020a03166342a7cfd56040518163ffffffff1660e060020a028152600401602060405180830381600087803b158015610cbe57600080fd5b505af1158015610cd2573d6000803e3d6000fd5b505050506040513d6020811015610ce857600080fd5b5051604080517f99d50d5d0000000000000000000000000000000000000000000000000000000081529051919b50600160a060020a038e16916399d50d5d9160048082019260009290919082900301818387803b158015610d4857600080fd5b505af1158015610d5c573d6000803e3d6000fd5b505050506040513d6000823e601f3d908101601f191682016040526020811015610d8557600080fd5b810190808051640100000000811115610d9d57600080fd5b82016020810184811115610db057600080fd5b8151856020820283011164010000000082111715610dcd57600080fd5b505092919050505098508b600160a060020a031663027aa9f56040518163ffffffff1660e060020a028152600401600060405180830381600087803b158015610e1557600080fd5b505af1158015610e29573d6000803e3d6000fd5b505050506040513d6000823e601f3d908101601f191682016040526020811015610e5257600080fd5b810190808051640100000000811115610e6a57600080fd5b82016020810184811115610e7d57600080fd5b8151856020820283011164010000000082111715610e9a57600080fd5b50909b5060009a50505050505b88518761ffff16101561103f57888761ffff16815181101515610ec657fe5b906020019060200201519550610ef8888861ffff16815181101515610ee757fe5b906020019060200201518b8d613160565b9450600160020160009054906101000a9004600160a060020a0316600160a060020a03166380ddda308d88886040518463ffffffff1660e060020a0281526004018084600160a060020a0316600160a060020a0316815260200183600160a060020a0316600160a060020a031681526020018281526020019350505050600060405180830381600087803b158015610f8f57600080fd5b505af1158015610fa3573d6000803e3d6000fd5b5050600354604080517fbada5726000000000000000000000000000000000000000000000000000000008152336004820152600160a060020a038b81166024830152604482018b9052915191909216935063bada57269250606480830192600092919082900301818387803b15801561101b57600080fd5b505af115801561102f573d6000803e3d6000fd5b505060019098019750610ea79050565b505050505050505050505050565b60008484808060200260200160405190810160405280939291908181526020018383602002808284375050604080516020808a0282810182019093528982529095508994508893508392508501908490808284375050855160408051808201909152601c81527f416464726573736573206d757374206e6f7420626520656d7074792e000000006020820152945060001092506111329150505760405160e560020a62461bcd028152600401808060200182810382528381815181526020019150805190602001908083836000838110156105ee5781810151838201526020016105d6565b50805160408051808201909152601d81527f5175616e746974696573206d757374206e6f7420626520656d7074792e0000006020820152906000106111bc5760405160e560020a62461bcd028152600401808060200182810382528381815181526020019150805190602001908083836000838110156105ee5781810151838201526020016105d6565b508051825160408051606081018252603181527f41646472657373657320616e64207175616e746974696573206d75737420626560208201527f207468652073616d65206c656e6774682e00000000000000000000000000000091810191909152911461126e5760405160e560020a62461bcd028152600401808060200182810382528381815181526020019150805190602001908083836000838110156105ee5781810151838201526020016105d6565b50600092505b858310156112c0576112b587878581811061128b57fe5b90506020020135600160a060020a031686868681811015156112a957fe5b90506020020135611367565b600190920191611274565b50505050505050565b600054600160a060020a031633146112e057600080fd5b60ff8216600081815260016020908152604091829020805473ffffffffffffffffffffffffffffffffffffffff1916600160a060020a03861690811790915582519384529083015280517feee2c0570205f21356a5108d71a4d6e7151682b92a84c761fca82cac87275c289281900390910190a15050565b600354600160a060020a031690565b6040805160608101825260238152600080516020613e7a833981519152602082015260e960020a6239379702918101919091528190600082116113ef5760405160e560020a62461bcd028152600401808060200182810382528381815181526020019150805190602001908083836000838110156105ee5781810151838201526020016105d6565b50600254600354604080517fa6c4e467000000000000000000000000000000000000000000000000000000008152600160a060020a0387811660048301526024820187905233604483015292831660648201529051919092169163a6c4e46791608480830192600092919082900301818387803b15801561146f57600080fd5b505af1158015611483573d6000803e3d6000fd5b5050600354604080517fbada5726000000000000000000000000000000000000000000000000000000008152336004820152600160a060020a03888116602483015260448201889052915191909216935063bada57269250606480830192600092919082900301818387803b1580156114fb57600080fd5b505af11580156112c0573d6000803e3d6000fd5b600160a060020a038a166000908152600460209081526040808320548151606081018352602681527f466163746f72792069732064697361626c6564206f7220646f6573206e6f7420938101939093527f65786973742e00000000000000000000000000000000000000000000000000009183019190915282918d9160ff1615156115df5760405160e560020a62461bcd028152600401808060200182810382528381815181526020019150805190602001908083836000838110156105ee5781810151838201526020016105d6565b508c600160a060020a031663110a25c28d8d8d8d8d8d8d8d8d6040518a63ffffffff1660e060020a028152600401808060200180602001888152602001806020018060200185810385528e8e8281815260200192506020028082843790910186810385528c8152602090810191508d908d0280828437909101868103845289815260200190508989808284379091018681038352878152602001905087878082843782019150509d5050505050505050505050505050602060405180830381600087803b1580156116af57600080fd5b505af11580156116c3573d6000803e3d6000fd5b505050506040513d60208110156116d957600080fd5b81019080805190602001909291905050509150600180600401600084600160a060020a0316600160a060020a0316815260200190815260200160002060006101000a81548160ff02191690831515021790555081600160a060020a03167f388b9bd51ec792eb7ce238581b3f844072709011b2a20260c428451e07d764a88e8e8e8e8e8e8e8e8e8e604051808b600160a060020a0316600160a060020a031681526020018060200180602001888152602001806020018060200185810385528e8e8281815260200192506020028082843790910186810385528c8152602090810191508d908d0280828437909101868103845289815260200190508989808284379091018681038352878152602001905087878082843782019150509e50505050505050505050505050505060405180910390a2509b9a5050505050505050505050565b600054600160a060020a0316331461183457600080fd5b60008054604051600160a060020a03909116917ff8df31144d9c2f0f6b59d69b8b98abd5459d07f2742c4df920b25aae33c6482091a26000805473ffffffffffffffffffffffffffffffffffffffff19169055565b600054600160a060020a031633146118a057600080fd5b600160a060020a03811660009081526005602090815260409182902054825160608101845260288152600080516020613dfa83398151915292810192909252600080516020613e3a83398151915292820192909252829160ff16151561194b5760405160e560020a62461bcd028152600401808060200182810382528381815181526020019150805190602001908083836000838110156105ee5781810151838201526020016105d6565b5050600160a060020a03166000908152600560205260409020805460ff19169055565b600054600160a060020a0316331461198557600080fd5b6003805473ffffffffffffffffffffffffffffffffffffffff1916600160a060020a0392909216919091179055565b600160a060020a03821660009081526005602090815260409182902054825160608101845260288152600080516020613dfa83398151915292810192909252600080516020613e3a83398151915292820192909252839160ff161515611a5f5760405160e560020a62461bcd028152600401808060200182810382528381815181526020019150805190602001908083836000838110156105ee5781810151838201526020016105d6565b506040805160608101825260238152600080516020613e7a833981519152602082015260e960020a623937970291810191909152829060008211611ae85760405160e560020a62461bcd028152600401808060200182810382528381815181526020019150805190602001908083836000838110156105ee5781810151838201526020016105d6565b50828480600160a060020a03166342a7cfd56040518163ffffffff1660e060020a028152600401602060405180830381600087803b158015611b2957600080fd5b505af1158015611b3d573d6000803e3d6000fd5b505050506040513d6020811015611b5357600080fd5b505182811515611b5f57fe5b6040805160608101825260398152600080516020613e5a8339815191526020820152600080516020613e1a8339815191529181019190915291900615611bea5760405160e560020a62461bcd028152600401808060200182810382528381815181526020019150805190602001908083836000838110156105ee5781810151838201526020016105d6565b50611bf633878761318a565b505050505050565b600254600160a060020a031690565b600054600160a060020a031681565b600054600160a060020a03163314611c3357600080fd5b600160a060020a03166000908152600460205260409020805460ff19166001179055565b60ff16600090815260016020526040902054600160a060020a031690565b600160a060020a03831660009081526005602090815260408083205481516060818101845260288252600080516020613dfa83398151915294820194909452600080516020613e3a8339815191529281019290925282918491829182918a919060ff161515611d295760405160e560020a62461bcd028152600401808060200182810382528381815181526020019150805190602001908083836000838110156105ee5781810151838201526020016105d6565b506040805160608101825260238152600080516020613e7a833981519152602082015260e960020a623937970291810191909152899060008211611db25760405160e560020a62461bcd028152600401808060200182810382528381815181526020019150805190602001908083836000838110156105ee5781810151838201526020016105d6565b50898b80600160a060020a03166342a7cfd56040518163ffffffff1660e060020a028152600401602060405180830381600087803b158015611df357600080fd5b505af1158015611e07573d6000803e3d6000fd5b505050506040513d6020811015611e1d57600080fd5b505182811515611e2957fe5b6040805160608101825260398152600080516020613e5a8339815191526020820152600080516020613e1a8339815191529181019190915291900615611eb45760405160e560020a62461bcd028152600401808060200182810382528381815181526020019150805190602001908083836000838110156105ee5781810151838201526020016105d6565b50604080517f9dc29fac000000000000000000000000000000000000000000000000000000008152336004820152602481018e90529051600160a060020a038f1691639dc29fac91604480830192600092919082900301818387803b158015611f1c57600080fd5b505af1158015611f30573d6000803e3d6000fd5b505050508c600160a060020a03166342a7cfd56040518163ffffffff1660e060020a028152600401602060405180830381600087803b158015611f7257600080fd5b505af1158015611f86573d6000803e3d6000fd5b505050506040513d6020811015611f9c57600080fd5b5051604080517f99d50d5d0000000000000000000000000000000000000000000000000000000081529051919b50600160a060020a038f16916399d50d5d9160048082019260009290919082900301818387803b158015611ffc57600080fd5b505af1158015612010573d6000803e3d6000fd5b505050506040513d6000823e601f3d908101601f19168201604052602081101561203957600080fd5b81019080805164010000000081111561205157600080fd5b8201602081018481111561206457600080fd5b815185602082028301116401000000008211171561208157600080fd5b505092919050505098508c600160a060020a031663027aa9f56040518163ffffffff1660e060020a028152600401600060405180830381600087803b1580156120c957600080fd5b505af11580156120dd573d6000803e3d6000fd5b505050506040513d6000823e601f3d908101601f19168201604052602081101561210657600080fd5b81019080805164010000000081111561211e57600080fd5b8201602081018481111561213157600080fd5b815185602082028301116401000000008211171561214e57600080fd5b50909b5060009a50505050505b88518710156123a357612186888881518110151561217557fe5b906020019060200201518b8e613160565b6003548a51919750600160a060020a0316906380ddda30908f908c908b9081106121ac57fe5b90602001906020020151896040518463ffffffff1660e060020a0281526004018084600160a060020a0316600160a060020a0316815260200183600160a060020a0316600160a060020a031681526020018281526020019350505050600060405180830381600087803b15801561222257600080fd5b505af1158015612236573d6000803e3d6000fd5b505050600288900a9550508a8516156122e4576003548951600160a060020a039091169063c3b35a7e908b908a90811061226c57fe5b602090810290910101516040805160e060020a63ffffffff8516028152600160a060020a039092166004830152336024830152604482018a905251606480830192600092919082900301818387803b1580156122c757600080fd5b505af11580156122db573d6000803e3d6000fd5b50505050612398565b6003548951600160a060020a039091169063bada57269033908c908b90811061230957fe5b90602001906020020151896040518463ffffffff1660e060020a0281526004018084600160a060020a0316600160a060020a0316815260200183600160a060020a0316600160a060020a031681526020018281526020019350505050600060405180830381600087803b15801561237f57600080fd5b505af1158015612393573d6000803e3d6000fd5b505050505b60019096019561215b565b50505050505050505050505050565b600254600354600160a060020a03918216911682565b6123d0613d76565b600160a060020a03893516600081815260056020908152604080832054815160608101835260288152600080516020613dfa83398151915293810193909352600080516020613e3a833981519152918301919091529192839290919060ff1615156124805760405160e560020a62461bcd028152600401808060200182810382528381815181526020019150805190602001908083836000838110156105ee5781810151838201526020016105d6565b506040805160608101825260238152600080516020613e7a833981519152602082015260e960020a6239379702918101919091528a90600082116125095760405160e560020a62461bcd028152600401808060200182810382528381815181526020019150805190602001908083836000838110156105ee5781810151838201526020016105d6565b50604080516101608101909152600160a060020a038e35168152602081018d6000602090810291909101358252018e60016020020135600160a060020a0316600160a060020a031681526020018e600260058110151561256557fe5b6020020135600160a060020a0316600160a060020a031681526020018d600160058110151561259057fe5b602090810291909101358252018d6002602090810291909101358252018e60036020020135600160a060020a0316600160a060020a031681526020018e60046005811015156125db57fe5b6020020135600160a060020a0316600160a060020a031681526020018d600360058110151561260657fe5b602090810291909101358252018d6004602002013581526020016126728f600580602002604051908101604052809291908260056020028082843782019150505050508f600580602002604051908101604052809291908260056020028082843750612cad9350505050565b905261014081015160408201519196506126bb918c8c8c600081811061269457fe5b602002919091013590508d8d60018181106126ab57fe5b9050602002013560001916613812565b60408051808201909152601881527f496e76616c6964206f72646572207369676e61747572652e000000000000000060208201529015156127415760405160e560020a62461bcd028152600401808060200182810382528381815181526020019150805190602001908083836000838110156105ee5781810151838201526020016105d6565b5061274c858c612dc4565b61278587878080601f01602080910402602001604051908101604052809392919081815260200183838082843750613988945050505050565b610140850180516000908152600760209081526040808320549351835260069091529020546127b99163ffffffff61312916565b60208601519094506127d1908563ffffffff61313616565b60408051606081018252603981527f46696c6c20616d6f756e74206d75737420626520657175616c206f72206c657360208201527f73207468616e206f70656e206f7264657220616d6f756e742e00000000000000918101919091529093508b8410156128835760405160e560020a62461bcd028152600401808060200182810382528381815181526020019150805190602001908083836000838110156105ee5781810151838201526020016105d6565b506101408501516000908152600660205260409020546128a9908c63ffffffff61312916565b610140860151600090815260066020526040908190209190915585015185516123a391908d61318a565b60008484808060200260200160405190810160405280939291908181526020018383602002808284375050604080516020808a0282810182019093528982529095508994508893508392508501908490808284375050855160408051808201909152601c81527f416464726573736573206d757374206e6f7420626520656d7074792e000000006020820152945060001092506129b89150505760405160e560020a62461bcd028152600401808060200182810382528381815181526020019150805190602001908083836000838110156105ee5781810151838201526020016105d6565b50805160408051808201909152601d81527f5175616e746974696573206d757374206e6f7420626520656d7074792e000000602082015290600010612a425760405160e560020a62461bcd028152600401808060200182810382528381815181526020019150805190602001908083836000838110156105ee5781810151838201526020016105d6565b508051825160408051606081018252603181527f41646472657373657320616e64207175616e746974696573206d75737420626560208201527f207468652073616d65206c656e6774682e000000000000000000000000000000918101919091529114612af45760405160e560020a62461bcd028152600401808060200182810382528381815181526020019150805190602001908083836000838110156105ee5781810151838201526020016105d6565b50600092505b858310156112c057612b3b878785818110612b1157fe5b90506020020135600160a060020a03168686868181101515612b2f57fe5b90506020020135612b69565b600190920191612afa565b600054600160a060020a03163314612b5d57600080fd5b612b6681613ace565b50565b600354604080517f80ddda30000000000000000000000000000000000000000000000000000000008152336004820152600160a060020a03858116602483015260448201859052915191909216916380ddda3091606480830192600092919082900301818387803b158015612bdd57600080fd5b505af1158015612bf1573d6000803e3d6000fd5b5050600354604080517fc3b35a7e000000000000000000000000000000000000000000000000000000008152600160a060020a03878116600483015233602483015260448201879052915191909216935063c3b35a7e9250606480830192600092919082900301818387803b158015612c6957600080fd5b505af1158015611bf6573d6000803e3d6000fd5b60009081526006602052604090205490565b600160a060020a031660009081526005602052604090205460ff1690565b81516020808401516040808601516060808801516080808a015189518a8901518b880151958c0151938c015188516c01000000000000000000000000600160a060020a039d8e168102828e01529a8d168b026034820152978c168a026048890152948b168902605c880152999091169096026070850152608484019590955260a483019690965260c482015260e48101929092526101048083019490945280518083039094018452610124909101908190528251600093928291908401908083835b60208310612d8e5780518252601f199092019160209182019101612d6f565b6001836020036101000a038019825116818451168082178552505050505050905001915050604051809103902090505b92915050565b60008260800151118015612ddc575060008260200151115b606060405190810160405280602281526020017f5175616e746974792073686f756c642062652067726561746572207468616e2081526020017f302e000000000000000000000000000000000000000000000000000000000000815250901515612e8b5760405160e560020a62461bcd028152600401808060200182810382528381815181526020019150805190602001908083836000838110156105ee5781810151838201526020016105d6565b5060a082015160408051808201909152601781527f54686973206f726465722068617320657870697265642e000000000000000000602082015290421115612f185760405160e560020a62461bcd028152600401808060200182810382528381815181526020019150805190602001908083836000838110156105ee5781810151838201526020016105d6565b508160000151600160a060020a03166342a7cfd56040518163ffffffff1660e060020a028152600401602060405180830381600087803b158015612f5b57600080fd5b505af1158015612f6f573d6000803e3d6000fd5b505050506040513d6020811015612f8557600080fd5b50516020830151811515612f9557fe5b6040805160608101825260398152600080516020613e5a8339815191526020820152600080516020613e1a83398151915291810191909152919006156130205760405160e560020a62461bcd028152600401808060200182810382528381815181526020019150805190602001908083836000838110156105ee5781810151838201526020016105d6565b508160000151600160a060020a03166342a7cfd56040518163ffffffff1660e060020a028152600401602060405180830381600087803b15801561306357600080fd5b505af1158015613077573d6000803e3d6000fd5b505050506040513d602081101561308d57600080fd5b50518181151561309957fe5b6040805160608101825260398152600080516020613e5a8339815191526020820152600080516020613e1a83398151915291810191909152919006156131245760405160e560020a62461bcd028152600401808060200182810382528381815181526020019150805190602001908083836000838110156105ee5781810151838201526020016105d6565b505050565b81810182811015612dbe57fe5b60008282111561314257fe5b50900390565b60008183106131575781613159565b825b9392505050565b600061318284613176848663ffffffff613b4b16565b9063ffffffff613b6016565b949350505050565b60608060008060008060008089600160a060020a03166399d50d5d6040518163ffffffff1660e060020a028152600401600060405180830381600087803b1580156131d457600080fd5b505af11580156131e8573d6000803e3d6000fd5b505050506040513d6000823e601f3d908101601f19168201604052602081101561321157600080fd5b81019080805164010000000081111561322957600080fd5b8201602081018481111561323c57600080fd5b815185602082028301116401000000008211171561325957600080fd5b5050929190505050975089600160a060020a031663027aa9f56040518163ffffffff1660e060020a028152600401600060405180830381600087803b1580156132a157600080fd5b505af11580156132b5573d6000803e3d6000fd5b505050506040513d6000823e601f3d908101601f1916820160405260208110156132de57600080fd5b8101908080516401000000008111156132f657600080fd5b8201602081018481111561330957600080fd5b815185602082028301116401000000008211171561332657600080fd5b50909a5060009950505050505b87518661ffff16101561378a57878661ffff1681518110151561335257fe5b906020019060200201519450868661ffff1681518110151561337057fe5b9060200190602002015193506133f0848b600160a060020a03166342a7cfd56040518163ffffffff1660e060020a028152600401602060405180830381600087803b1580156133be57600080fd5b505af11580156133d2573d6000803e3d6000fd5b505050506040513d60208110156133e857600080fd5b50518b613160565b600354604080517f1f98ade3000000000000000000000000000000000000000000000000000000008152600160a060020a038f8116600483015289811660248301529151939650911691631f98ade3916044808201926020929091908290030181600087803b15801561346257600080fd5b505af1158015613476573d6000803e3d6000fd5b505050506040513d602081101561348c57600080fd5b5051915082821061352a57600354604080517f80ddda30000000000000000000000000000000000000000000000000000000008152600160a060020a038e81166004830152888116602483015260448201879052915191909216916380ddda3091606480830192600092919082900301818387803b15801561350d57600080fd5b505af1158015613521573d6000803e3d6000fd5b505050506136f0565b60008211156135c257600354604080517f80ddda30000000000000000000000000000000000000000000000000000000008152600160a060020a038e81166004830152888116602483015260448201869052915191909216916380ddda3091606480830192600092919082900301818387803b1580156135a957600080fd5b505af11580156135bd573d6000803e3d6000fd5b505050505b6135d2838363ffffffff61313616565b600254909150600160a060020a031663a6c4e467866135f7868663ffffffff61313616565b8e600160020160009054906101000a9004600160a060020a03166040518563ffffffff1660e060020a0281526004018085600160a060020a0316600160a060020a0316815260200184815260200183600160a060020a0316600160a060020a0316815260200182600160a060020a0316600160a060020a03168152602001945050505050600060405180830381600087803b15801561369557600080fd5b505af11580156136a9573d6000803e3d6000fd5b5050604080518481529051600160a060020a03808a1694508e1692507fced8518610cf00c97309551834addd978c595341eda2066dbd52f9e9904895739181900360200190a35b600354604080517fbada5726000000000000000000000000000000000000000000000000000000008152600160a060020a038d811660048301528881166024830152604482018790529151919092169163bada572691606480830192600092919082900301818387803b15801561376657600080fd5b505af115801561377a573d6000803e3d6000fd5b5050600190970196506133339050565b89600160a060020a03166340c10f198c8b6040518363ffffffff1660e060020a0281526004018083600160a060020a0316600160a060020a0316815260200182815260200192505050600060405180830381600087803b1580156137ed57600080fd5b505af1158015613801573d6000803e3d6000fd5b505050505050505050505050505050565b60008060606040805190810160405280601c81526020017f19457468657265756d205369676e6564204d6573736167653a0a3332000000008152509050600181896040516020018083805190602001908083835b602083106138855780518252601f199092019160209182019101613866565b51815160209384036101000a600019018019909216911617905292019384525060408051808503815293820190819052835193945092839250908401908083835b602083106138e55780518252601f1990920191602091820191016138c6565b51815160209384036101000a60001901801990921691161790526040805192909401829003822060008084528383018087529190915260ff8e1683860152606083018d9052608083018c9052935160a08084019750919550601f1981019492819003909101925090865af1158015613961573d6000803e3d6000fd5b5050604051601f190151600160a060020a0390811698169790971498975050505050505050565b60006060613994613dd2565b60008060605b86518610156112c0576139be87876139b981608063ffffffff61312916565b613b89565b94506139c985613c8d565b805160ff16600090815260016020908152604091829020548251808401909352601883527f45786368616e676520646f6573206e6f742065786973742e000000000000000091830191909152919550600160a060020a039091169350831515613a775760405160e560020a62461bcd028152600401808060200182810382528381815181526020019150805190602001908083836000838110156105ee5781810151838201526020016105d6565b506060840151613a8e90608063ffffffff61312916565b9150613ab587613aa588608063ffffffff61312916565b6139b9898663ffffffff61312916565b9050613ac7868363ffffffff61312916565b955061399a565b600160a060020a0381161515613ae357600080fd5b60008054604051600160a060020a03808516939216917f8be0079c531659141344cd1fd0a4f28419497f9722a3daafe3b4186f6b6457e091a36000805473ffffffffffffffffffffffffffffffffffffffff1916600160a060020a0392909216919091179055565b60008183811515613b5857fe5b049392505050565b6000821515613b7157506000612dbe565b50818102818382811515613b8157fe5b0414612dbe57fe5b606081831115613be3576040805160e560020a62461bcd02815260206004820152601a60248201527f46524f4d5f4c4553535f5448414e5f544f5f5245515549524544000000000000604482015290519081900360640190fd5b8351821115613c3c576040805160e560020a62461bcd02815260206004820152601c60248201527f544f5f4c4553535f5448414e5f4c454e4754485f524551554952454400000000604482015290519081900360640190fd5b8282036040519080825280601f01601f191660200182016040528015613c6c578160200160208202803883390190505b509050613159613c7b82613ccb565b84613c8587613ccb565b018351613cd1565b613c95613dd2565b613c9d613dd2565b6020830151815260408301516020820152606083015160408201526080830151606082015280915050919050565b60200190565b6020811015613cfb576001816020036101000a038019835116818551168082178652505050613124565b82821415613d0857613124565b82821115613d425760208103905080820181840181515b82851015613d3a578451865260209586019590940193613d1f565b905250613124565b60208103905080820181840183515b81861215613d6d5782518252601f199283019290910190613d51565b85525050505050565b6040805161016081018252600080825260208201819052918101829052606081018290526080810182905260a0810182905260c0810182905260e081018290526101008101829052610120810182905261014081019190915290565b60408051608081018252600080825260208201819052918101829052606081019190915290560053657420746f6b656e2069732064697361626c6564206f7220646f6573206e6f206e61747572616c20756e6974206f6620746865207365742e00000000000000742065786973742e0000000000000000000000000000000000000000000000005175616e74697479206d757374206265206d756c7469706c65206f66207468655175616e74697479206d7573742062652067726561746572207468616e207a65a165627a7a72305820069192f509a6f4f1076aea98b3e0ae009b819754921eccd6d6cf4312bf2cfa530029",
  "source": "/*\n    Copyright 2018 Set Labs Inc.\n\n    Licensed under the Apache License, Version 2.0 (the \"License\");\n    you may not use this file except in compliance with the License.\n    You may obtain a copy of the License at\n\n    http://www.apache.org/licenses/LICENSE-2.0\n\n    Unless required by applicable law or agreed to in writing, software\n    distributed under the License is distributed on an \"AS IS\" BASIS,\n    WITHOUT WARRANTIES OR CONDITIONS OF ANY KIND, either express or implied.\n    See the License for the specific language governing permissions and\n    limitations under the License.\n*/\n\npragma solidity 0.4.24;\n\nimport { CoreAccounting } from \"./extensions/CoreAccounting.sol\";\nimport { CoreExchangeDispatcher } from \"./extensions/CoreExchangeDispatcher.sol\";\nimport { CoreFactory } from \"./extensions/CoreFactory.sol\";\nimport { CoreInternal } from \"./extensions/CoreInternal.sol\";\nimport { CoreIssuance } from \"./extensions/CoreIssuance.sol\";\nimport { CoreIssuanceOrder } from \"./extensions/CoreIssuanceOrder.sol\";\n\n\n\n/**\n * @title Core\n * @author Set Protocol\n *\n * The Core contract acts as a coordinator handling issuing, redeeming, and\n * creating Sets, as well as all collateral flows throughout the system.\n */\ncontract Core is\n    CoreExchangeDispatcher,\n    CoreIssuanceOrder,\n    CoreAccounting,\n    CoreInternal,\n    CoreFactory,\n    CoreIssuance\n{}\n",
  "sourcePath": "/Users/justinkchen/workspace/set-protocol-contracts/contracts/core/Core.sol",
  "compiler": {
    "name": "solc",
    "version": "0.4.24+commit.e67f0147.Emscripten.clang"
  },
  "schemaVersion": "2.0.0",
  "updatedAt": "2018-07-08T01:11:15.185Z"
}