{
  "contractName": "Core",
  "abi": [
    {
      "constant": true,
      "inputs": [
        {
          "name": "_factory",
          "type": "address"
        }
      ],
      "name": "validFactories",
      "outputs": [
        {
          "name": "",
          "type": "bool"
        }
      ],
      "payable": false,
      "stateMutability": "view",
      "type": "function"
    },
    {
      "constant": false,
      "inputs": [
        {
          "name": "_transferProxy",
          "type": "address"
        }
      ],
      "name": "setTransferProxyAddress",
      "outputs": [],
      "payable": false,
      "stateMutability": "nonpayable",
      "type": "function"
    },
    {
      "constant": false,
      "inputs": [
        {
          "name": "_factory",
          "type": "address"
        }
      ],
      "name": "disableFactory",
      "outputs": [],
      "payable": false,
      "stateMutability": "nonpayable",
      "type": "function"
    },
    {
      "constant": true,
      "inputs": [
        {
          "name": "_orderHash",
          "type": "bytes32"
        }
      ],
      "name": "orderCancels",
      "outputs": [
        {
          "name": "",
          "type": "uint256"
        }
      ],
      "payable": false,
      "stateMutability": "view",
      "type": "function"
    },
    {
      "constant": false,
      "inputs": [
        {
          "name": "_set",
          "type": "address"
        },
        {
          "name": "_quantity",
          "type": "uint256"
        }
      ],
      "name": "redeem",
      "outputs": [],
      "payable": false,
      "stateMutability": "nonpayable",
      "type": "function"
    },
    {
      "constant": false,
      "inputs": [
        {
          "name": "_tokens",
          "type": "address[]"
        },
        {
          "name": "_quantities",
          "type": "uint256[]"
        }
      ],
      "name": "batchDeposit",
      "outputs": [],
      "payable": false,
      "stateMutability": "nonpayable",
      "type": "function"
    },
    {
      "constant": false,
      "inputs": [
        {
          "name": "_exchangeId",
          "type": "uint8"
        },
        {
          "name": "_exchange",
          "type": "address"
        }
      ],
      "name": "registerExchange",
      "outputs": [],
      "payable": false,
      "stateMutability": "nonpayable",
      "type": "function"
    },
    {
      "constant": false,
      "inputs": [
        {
          "name": "_token",
          "type": "address"
        },
        {
          "name": "_quantity",
          "type": "uint256"
        }
      ],
      "name": "deposit",
      "outputs": [],
      "payable": false,
      "stateMutability": "nonpayable",
      "type": "function"
    },
    {
      "constant": false,
      "inputs": [
        {
          "name": "_factory",
          "type": "address"
        },
        {
          "name": "_components",
          "type": "address[]"
        },
        {
          "name": "_units",
          "type": "uint256[]"
        },
        {
          "name": "_naturalUnit",
          "type": "uint256"
        },
        {
          "name": "_name",
          "type": "string"
        },
        {
          "name": "_symbol",
          "type": "string"
        }
      ],
      "name": "create",
      "outputs": [
        {
          "name": "",
          "type": "address"
        }
      ],
      "payable": false,
      "stateMutability": "nonpayable",
      "type": "function"
    },
    {
      "constant": true,
      "inputs": [],
      "name": "setTokens",
      "outputs": [
        {
          "name": "",
          "type": "address[]"
        }
      ],
      "payable": false,
      "stateMutability": "view",
      "type": "function"
    },
    {
      "constant": false,
      "inputs": [
        {
          "name": "_addresses",
          "type": "address[5]"
        },
        {
          "name": "_values",
          "type": "uint256[5]"
        },
        {
          "name": "_requiredComponents",
          "type": "address[]"
        },
        {
          "name": "_requiredComponentAmounts",
          "type": "uint256[]"
        },
        {
          "name": "_fillQuantity",
          "type": "uint256"
        },
        {
          "name": "_v",
          "type": "uint8"
        },
        {
          "name": "sigBytes",
          "type": "bytes32[]"
        },
        {
          "name": "_orderData",
          "type": "bytes"
        }
      ],
      "name": "fillOrder",
      "outputs": [],
      "payable": false,
      "stateMutability": "nonpayable",
      "type": "function"
    },
    {
      "constant": true,
      "inputs": [],
      "name": "transferProxy",
      "outputs": [
        {
          "name": "",
          "type": "address"
        }
      ],
      "payable": false,
      "stateMutability": "view",
      "type": "function"
    },
    {
      "constant": false,
      "inputs": [],
      "name": "renounceOwnership",
      "outputs": [],
      "payable": false,
      "stateMutability": "nonpayable",
      "type": "function"
    },
    {
      "constant": false,
      "inputs": [
        {
          "name": "_set",
          "type": "address"
        }
      ],
      "name": "disableSet",
      "outputs": [],
      "payable": false,
      "stateMutability": "nonpayable",
      "type": "function"
    },
    {
      "constant": false,
      "inputs": [
        {
          "name": "_vault",
          "type": "address"
        }
      ],
      "name": "setVaultAddress",
      "outputs": [],
      "payable": false,
      "stateMutability": "nonpayable",
      "type": "function"
    },
    {
      "constant": false,
      "inputs": [
        {
          "name": "_set",
          "type": "address"
        },
        {
          "name": "_quantity",
          "type": "uint256"
        }
      ],
      "name": "issue",
      "outputs": [],
      "payable": false,
      "stateMutability": "nonpayable",
      "type": "function"
    },
    {
      "constant": true,
      "inputs": [],
      "name": "owner",
      "outputs": [
        {
          "name": "",
          "type": "address"
        }
      ],
      "payable": false,
      "stateMutability": "view",
      "type": "function"
    },
    {
      "constant": false,
      "inputs": [
        {
          "name": "_factory",
          "type": "address"
        }
      ],
      "name": "enableFactory",
      "outputs": [],
      "payable": false,
      "stateMutability": "nonpayable",
      "type": "function"
    },
    {
      "constant": true,
      "inputs": [
        {
          "name": "_exchangeId",
          "type": "uint8"
        }
      ],
      "name": "exchanges",
      "outputs": [
        {
          "name": "",
          "type": "address"
        }
      ],
      "payable": false,
      "stateMutability": "view",
      "type": "function"
    },
    {
      "constant": false,
      "inputs": [
        {
          "name": "_set",
          "type": "address"
        },
        {
          "name": "_quantity",
          "type": "uint256"
        },
        {
          "name": "_toWithdraw",
          "type": "uint256"
        }
      ],
      "name": "redeemAndWithdraw",
      "outputs": [],
      "payable": false,
      "stateMutability": "nonpayable",
      "type": "function"
    },
    {
      "constant": true,
      "inputs": [],
      "name": "state",
      "outputs": [
        {
          "name": "transferProxy",
          "type": "address"
        },
        {
          "name": "vault",
          "type": "address"
        }
      ],
      "payable": false,
      "stateMutability": "view",
      "type": "function"
    },
    {
      "constant": false,
      "inputs": [
        {
          "name": "_addresses",
          "type": "address[5]"
        },
        {
          "name": "_values",
          "type": "uint256[5]"
        },
        {
          "name": "_requiredComponents",
          "type": "address[]"
        },
        {
          "name": "_requiredComponentAmounts",
          "type": "uint256[]"
        },
        {
          "name": "_cancelQuantity",
          "type": "uint256"
        }
      ],
      "name": "cancelOrder",
      "outputs": [],
      "payable": false,
      "stateMutability": "nonpayable",
      "type": "function"
    },
    {
      "constant": false,
      "inputs": [
        {
          "name": "_tokens",
          "type": "address[]"
        },
        {
          "name": "_quantities",
          "type": "uint256[]"
        }
      ],
      "name": "batchWithdraw",
      "outputs": [],
      "payable": false,
      "stateMutability": "nonpayable",
      "type": "function"
    },
    {
      "constant": false,
      "inputs": [
        {
          "name": "_newOwner",
          "type": "address"
        }
      ],
      "name": "transferOwnership",
      "outputs": [],
      "payable": false,
      "stateMutability": "nonpayable",
      "type": "function"
    },
    {
      "constant": false,
      "inputs": [
        {
          "name": "_token",
          "type": "address"
        },
        {
          "name": "_quantity",
          "type": "uint256"
        }
      ],
      "name": "withdraw",
      "outputs": [],
      "payable": false,
      "stateMutability": "nonpayable",
      "type": "function"
    },
    {
      "constant": true,
      "inputs": [
        {
          "name": "_orderHash",
          "type": "bytes32"
        }
      ],
      "name": "orderFills",
      "outputs": [
        {
          "name": "",
          "type": "uint256"
        }
      ],
      "payable": false,
      "stateMutability": "view",
      "type": "function"
    },
    {
      "constant": true,
      "inputs": [],
      "name": "vault",
      "outputs": [
        {
          "name": "",
          "type": "address"
        }
      ],
      "payable": false,
      "stateMutability": "view",
      "type": "function"
    },
    {
      "constant": true,
      "inputs": [],
      "name": "factories",
      "outputs": [
        {
          "name": "",
          "type": "address[]"
        }
      ],
      "payable": false,
      "stateMutability": "view",
      "type": "function"
    },
    {
      "constant": true,
      "inputs": [
        {
          "name": "_set",
          "type": "address"
        }
      ],
      "name": "validSets",
      "outputs": [
        {
          "name": "",
          "type": "bool"
        }
      ],
      "payable": false,
      "stateMutability": "view",
      "type": "function"
    },
    {
      "anonymous": false,
      "inputs": [
        {
          "indexed": true,
          "name": "_setToken",
          "type": "address"
        },
        {
          "indexed": true,
          "name": "_component",
          "type": "address"
        },
        {
          "indexed": false,
          "name": "_quantity",
          "type": "uint256"
        }
      ],
      "name": "IssuanceComponentDeposited",
      "type": "event"
    },
    {
      "anonymous": false,
      "inputs": [
        {
          "indexed": true,
          "name": "_setTokenAddress",
          "type": "address"
        },
        {
          "indexed": false,
          "name": "_factory",
          "type": "address"
        },
        {
          "indexed": false,
          "name": "_components",
          "type": "address[]"
        },
        {
          "indexed": false,
          "name": "_units",
          "type": "uint256[]"
        },
        {
          "indexed": false,
          "name": "_naturalUnit",
          "type": "uint256"
        },
        {
          "indexed": false,
          "name": "_name",
          "type": "string"
        },
        {
          "indexed": false,
          "name": "_symbol",
          "type": "string"
        }
      ],
      "name": "SetTokenCreated",
      "type": "event"
    },
    {
      "anonymous": false,
      "inputs": [
        {
          "indexed": false,
          "name": "setAddress",
          "type": "address"
        },
        {
          "indexed": true,
          "name": "makerAddress",
          "type": "address"
        },
        {
          "indexed": true,
          "name": "takerAddress",
          "type": "address"
        },
        {
          "indexed": false,
          "name": "makerToken",
          "type": "address"
        },
        {
          "indexed": true,
          "name": "relayerAddress",
          "type": "address"
        },
        {
          "indexed": false,
          "name": "relayerToken",
          "type": "address"
        },
        {
          "indexed": false,
          "name": "quantityFilled",
          "type": "uint256"
        },
        {
          "indexed": false,
          "name": "makerTokenToTaker",
          "type": "uint256"
        },
        {
          "indexed": false,
          "name": "relayerTokenAmountPaid",
          "type": "uint256"
        },
        {
          "indexed": false,
          "name": "orderHash",
          "type": "bytes32"
        }
      ],
      "name": "LogFill",
      "type": "event"
    },
    {
      "anonymous": false,
      "inputs": [
        {
          "indexed": false,
          "name": "setAddress",
          "type": "address"
        },
        {
          "indexed": true,
          "name": "makerAddress",
          "type": "address"
        },
        {
          "indexed": false,
          "name": "makerToken",
          "type": "address"
        },
        {
          "indexed": true,
          "name": "relayerAddress",
          "type": "address"
        },
        {
          "indexed": false,
          "name": "quantityCanceled",
          "type": "uint256"
        },
        {
          "indexed": false,
          "name": "orderHash",
          "type": "bytes32"
        }
      ],
      "name": "LogCancel",
      "type": "event"
    },
    {
      "anonymous": false,
      "inputs": [
        {
          "indexed": false,
          "name": "_exchangeId",
          "type": "uint8"
        },
        {
          "indexed": false,
          "name": "_exchange",
          "type": "address"
        }
      ],
      "name": "ExchangeRegistered",
      "type": "event"
    },
    {
      "anonymous": false,
      "inputs": [
        {
          "indexed": true,
          "name": "previousOwner",
          "type": "address"
        }
      ],
      "name": "OwnershipRenounced",
      "type": "event"
    },
    {
      "anonymous": false,
      "inputs": [
        {
          "indexed": true,
          "name": "previousOwner",
          "type": "address"
        },
        {
          "indexed": true,
          "name": "newOwner",
          "type": "address"
        }
      ],
      "name": "OwnershipTransferred",
      "type": "event"
    }
  ],
  "bytecode": "0x608060405260008054600160a060020a03191633179055613e50806100256000396000f30060806040526004361061015b5763ffffffff60e060020a6000350416630e4355d48114610160578063124cfd78146101955780631a1f2b3e146101b85780631e912bd6146101d95780631e9a69501461020357806330a90736146102275780633e3d13b21461025357806347e7ef241461027a578063529044491461029e578063559ed3391461030f5780635a3bd39e146103745780636e667db3146103cd578063715018a6146103e257806377274ff0146103f757806385535cc514610418578063867904b4146104395780638da5cb5b1461045d5780639f80ee8814610472578063a003e06914610493578063ac842c66146104ae578063c19d93fb146104d5578063c57a445b14610510578063e131243e14610546578063f2fde38b14610572578063f3fef3a314610593578063f7213db6146105b7578063fbfa77cf146105cf578063fe5b38e4146105e4578063fef3ee73146105f9575b600080fd5b34801561016c57600080fd5b50610181600160a060020a036004351661061a565b604080519115158252519081900360200190f35b3480156101a157600080fd5b506101b6600160a060020a0360043516610638565b005b3480156101c457600080fd5b506101b6600160a060020a0360043516610671565b3480156101e557600080fd5b506101f1600435610797565b60408051918252519081900360200190f35b34801561020f57600080fd5b506101b6600160a060020a03600435166024356107a9565b34801561023357600080fd5b506101b66024600480358281019290820135918135918201910135610c8b565b34801561025f57600080fd5b506101b660ff60043516600160a060020a0360243516610cf4565b34801561028657600080fd5b506101b6600160a060020a0360043516602435610d76565b3480156102aa57600080fd5b506102f360048035600160a060020a031690602480358082019290810135916044358082019290810135916064359160843580830192908201359160a435918201910135610d82565b60408051600160a060020a039092168252519081900360200190f35b34801561031b57600080fd5b50610324611036565b60408051602080825283518183015283519192839290830191858101910280838360005b83811015610360578181015183820152602001610348565b505050509050019250505060405180910390f35b34801561038057600080fd5b506101b6600460a461014435602481810191840135906101643580820191908601359061018435906101a43560ff16906101c43580820191908a0135906101e435908101908b013561109c565b3480156103d957600080fd5b506102f361142c565b3480156103ee57600080fd5b506101b661143b565b34801561040357600080fd5b506101b6600160a060020a036004351661149a565b34801561042457600080fd5b506101b6600160a060020a03600435166115b6565b34801561044557600080fd5b506101b6600160a060020a03600435166024356115ef565b34801561046957600080fd5b506102f36116a0565b34801561047e57600080fd5b506101b6600160a060020a03600435166116af565b34801561049f57600080fd5b506102f360ff6004351661172c565b3480156104ba57600080fd5b506101b6600160a060020a036004351660243560443561174a565b3480156104e157600080fd5b506104ea611cee565b60408051600160a060020a03938416815291909216602082015281519081900390910190f35b34801561051c57600080fd5b506101b6600460a46101443560248181019184013590610164359081019085013561018435611d04565b34801561055257600080fd5b506101b66024600480358281019290820135918135918201910135612002565b34801561057e57600080fd5b506101b6600160a060020a036004351661207d565b34801561059f57600080fd5b506101b6600160a060020a03600435166024356120a0565b3480156105c357600080fd5b506101f16004356121bd565b3480156105db57600080fd5b506102f36121cf565b3480156105f057600080fd5b506103246121de565b34801561060557600080fd5b50610181600160a060020a0360043516612241565b600160a060020a031660009081526004602052604090205460ff1690565b600054600160a060020a0316331461064f57600080fd5b60028054600160a060020a031916600160a060020a0392909216919091179055565b60008054600160a060020a0316331461068957600080fd5b600160a060020a03821660009081526004602052604090205460ff1615156106b057600080fd5b50600160a060020a0381166000908152600460205260408120805460ff191690555b6005548110156107935760058054600160a060020a0384169190839081106106f657fe5b600091825260209091200154600160a060020a0316141561078b5760058054600019810190811061072357fe5b60009182526020909120015460058054600160a060020a03909216918390811061074957fe5b60009182526020909120018054600160a060020a031916600160a060020a03929092169190911790556005805460001901906107859082613d49565b50610793565b6001016106d2565b5050565b60009081526009602052604090205490565b600354600160a060020a0380841660009081526006602052604081205485939290921691606090819083908190819060ff1615156107e657600080fd5b87600160a060020a03166342a7cfd56040518163ffffffff1660e060020a028152600401602060405180830381600087803b15801561082457600080fd5b505af1158015610838573d6000803e3d6000fd5b505050506040513d602081101561084e57600080fd5b50518981151561085a57fe5b061561086557600080fd5b604080517f9dc29fac000000000000000000000000000000000000000000000000000000008152336004820152602481018b90529051600160a060020a038a1691639dc29fac91604480830192600092919082900301818387803b1580156108cc57600080fd5b505af11580156108e0573d6000803e3d6000fd5b5050505087600160a060020a03166342a7cfd56040518163ffffffff1660e060020a028152600401602060405180830381600087803b15801561092257600080fd5b505af1158015610936573d6000803e3d6000fd5b505050506040513d602081101561094c57600080fd5b5051604080517f99d50d5d0000000000000000000000000000000000000000000000000000000081529051919750600160a060020a038a16916399d50d5d9160048082019260009290919082900301818387803b1580156109ac57600080fd5b505af11580156109c0573d6000803e3d6000fd5b505050506040513d6000823e601f3d908101601f1916820160405260208110156109e957600080fd5b810190808051640100000000811115610a0157600080fd5b82016020810184811115610a1457600080fd5b8151856020820283011164010000000082111715610a3157600080fd5b5050929190505050945087600160a060020a031663027aa9f56040518163ffffffff1660e060020a028152600401600060405180830381600087803b158015610a7957600080fd5b505af1158015610a8d573d6000803e3d6000fd5b505050506040513d6000823e601f3d908101601f191682016040526020811015610ab657600080fd5b810190808051640100000000811115610ace57600080fd5b82016020810184811115610ae157600080fd5b8151856020820283011164010000000082111715610afe57600080fd5b5090975060009650505050505b84518361ffff161015610c7f57848361ffff16815181101515610b2a57fe5b906020019060200201519150610b5c848461ffff16815181101515610b4b57fe5b90602001906020020151878b61225f565b604080517f80ddda30000000000000000000000000000000000000000000000000000000008152600160a060020a038d811660048301528581166024830152604482018490529151929350908916916380ddda309160648082019260009290919082900301818387803b158015610bd257600080fd5b505af1158015610be6573d6000803e3d6000fd5b5050604080517fbada5726000000000000000000000000000000000000000000000000000000008152336004820152600160a060020a038681166024830152604482018690529151918b16935063bada5726925060648082019260009290919082900301818387803b158015610c5b57600080fd5b505af1158015610c6f573d6000803e3d6000fd5b505060019094019350610b0b9050565b50505050505050505050565b610cee33338686808060200260200160405190810160405280939291908181526020018383602002808284375050604080516020808c0282810182019093528b82529095508b94508a935083925085019084908082843750612289945050505050565b50505050565b600054600160a060020a03163314610d0b57600080fd5b60ff82166000818152600160209081526040918290208054600160a060020a031916600160a060020a03861690811790915582519384529083015280517feee2c0570205f21356a5108d71a4d6e7151682b92a84c761fca82cac87275c289281900390910190a15050565b61079333338484612305565b600160a060020a038a16600090815260046020526040812054819060ff161515610dab57600080fd5b8b600160a060020a031663110a25c28c8c8c8c8c8c8c8c8c6040518a63ffffffff1660e060020a028152600401808060200180602001888152602001806020018060200185810385528e8e8281815260200192506020028082843790910186810385528c8152602090810191508d908d0280828437909101868103845289815260200190508989808284379091018681038352878152602001905087878082843782019150509d5050505050505050505050505050602060405180830381600087803b158015610e7a57600080fd5b505af1158015610e8e573d6000803e3d6000fd5b505050506040513d6020811015610ea457600080fd5b81019080805190602001909291905050509050600180600501600083600160a060020a0316600160a060020a0316815260200190815260200160002060006101000a81548160ff02191690831515021790555060016006018190806001815401808255809150509060018203906000526020600020016000909192909190916101000a815481600160a060020a030219169083600160a060020a031602179055505080600160a060020a03167f388b9bd51ec792eb7ce238581b3f844072709011b2a20260c428451e07d764a88d8d8d8d8d8d8d8d8d8d604051808b600160a060020a0316600160a060020a031681526020018060200180602001888152602001806020018060200185810385528e8e8281815260200192506020028082843790910186810385528c8152602090810191508d908d0280828437909101868103845289815260200190508989808284379091018681038352878152602001905087878082843782019150509e50505050505050505050505050505060405180910390a29b9a5050505050505050505050565b6060600160060180548060200260200160405190810160405280929190818152602001828054801561109157602002820191906000526020600020905b8154600160a060020a03168152600190910190602001808311611073575b505050505090505b90565b6110a4613d6d565b604080516101a08101909152600160a060020a038e35168152602081018e60016020020135600160a060020a0316600160a060020a031681526020018e60026005811015156110ef57fe5b6020020135600160a060020a0316600160a060020a031681526020018e600360058110151561111a57fe5b6020020135600160a060020a0316600160a060020a031681526020018e600460058110151561114557fe5b6020020135600160a060020a0316600160a060020a031681526020018d600060058110151561117057fe5b602090810291909101358252018d6001602090810291909101358252018d6002602090810291909101358252018d6003602090810291909101358252018d6004602002013581526020018c8c8080602002602001604051908101604052809392919081815260200183836020028082843782019150505050505081526020018a8a8080602002602001604051908101604052809392919081815260200183836020028082843782019150505050505081526020016112d68f600580602002604051908101604052809291908260056020028082843782019150505050508f600580602002604051908101604052809291908260056020028082843782019150505050508f8f808060200260200160405190810160405280939291908181526020018383602002808284378201915050505050508e8e808060200260200160405190810160405280939291908181526020018383602002808284375061241c945050505050565b9052610180810151602082015191925073__OrderLibrary__________________________9163ef4b688f9190898989600081811061131157fe5b602002919091013590508a8a600181811061132857fe5b6040805160e060020a63ffffffff8b160281526004810198909852600160a060020a03909616602488015260ff9094166044870152506064850191909152602091820201356084840152905160a480840193829003018186803b15801561138e57600080fd5b505af41580156113a2573d6000803e3d6000fd5b505050506040513d60208110156113b857600080fd5b505115156113c557600080fd5b6113cf8188612638565b61140a818885858080601f0160208091040260200160405190810160405280939291908181526020018383808284375061279c945050505050565b61141d8160200151826000015189612bf1565b50505050505050505050505050565b600254600160a060020a031690565b600054600160a060020a0316331461145257600080fd5b60008054604051600160a060020a03909116917ff8df31144d9c2f0f6b59d69b8b98abd5459d07f2742c4df920b25aae33c6482091a260008054600160a060020a0319169055565b60008054600160a060020a031633146114b257600080fd5b600160a060020a03821660009081526006602052604090205460ff1615156114d957600080fd5b50600160a060020a0381166000908152600660205260408120805460ff191690555b6007548110156107935760078054600160a060020a03841691908390811061151f57fe5b600091825260209091200154600160a060020a031614156115ae5760078054600019810190811061154c57fe5b60009182526020909120015460078054600160a060020a03909216918390811061157257fe5b60009182526020909120018054600160a060020a031916600160a060020a03929092169190911790556007805460001901906107859082613d49565b6001016114fb565b600054600160a060020a031633146115cd57600080fd5b60038054600160a060020a031916600160a060020a0392909216919091179055565b600160a060020a03821660009081526006602052604090205460ff16151561161657600080fd5b81600160a060020a03166342a7cfd56040518163ffffffff1660e060020a028152600401602060405180830381600087803b15801561165457600080fd5b505af1158015611668573d6000803e3d6000fd5b505050506040513d602081101561167e57600080fd5b50518181151561168a57fe5b061561169557600080fd5b610793338383612bf1565b600054600160a060020a031681565b600054600160a060020a031633146116c657600080fd5b600160a060020a03166000818152600460205260408120805460ff191660019081179091556005805491820181559091527f036b6384b5eca791c62761152d0c79bb0604c104a5fb6f4eb0703f3154bb3db0018054600160a060020a0319169091179055565b60ff16600090815260016020526040902054600160a060020a031690565b600354600160a060020a0380851660009081526006602052604081205486939290921691606090819083908190819060ff16151561178757600080fd5b87600160a060020a03166342a7cfd56040518163ffffffff1660e060020a028152600401602060405180830381600087803b1580156117c557600080fd5b505af11580156117d9573d6000803e3d6000fd5b505050506040513d60208110156117ef57600080fd5b50518a8115156117fb57fe5b061561180657600080fd5b604080517f9dc29fac000000000000000000000000000000000000000000000000000000008152336004820152602481018c90529051600160a060020a038a1691639dc29fac91604480830192600092919082900301818387803b15801561186d57600080fd5b505af1158015611881573d6000803e3d6000fd5b5050505087600160a060020a03166342a7cfd56040518163ffffffff1660e060020a028152600401602060405180830381600087803b1580156118c357600080fd5b505af11580156118d7573d6000803e3d6000fd5b505050506040513d60208110156118ed57600080fd5b5051604080517f99d50d5d0000000000000000000000000000000000000000000000000000000081529051919750600160a060020a038a16916399d50d5d9160048082019260009290919082900301818387803b15801561194d57600080fd5b505af1158015611961573d6000803e3d6000fd5b505050506040513d6000823e601f3d908101601f19168201604052602081101561198a57600080fd5b8101908080516401000000008111156119a257600080fd5b820160208101848111156119b557600080fd5b81518560208202830111640100000000821117156119d257600080fd5b5050929190505050945087600160a060020a031663027aa9f56040518163ffffffff1660e060020a028152600401600060405180830381600087803b158015611a1a57600080fd5b505af1158015611a2e573d6000803e3d6000fd5b505050506040513d6000823e601f3d908101601f191682016040526020811015611a5757600080fd5b810190808051640100000000811115611a6f57600080fd5b82016020810184811115611a8257600080fd5b8151856020820283011164010000000082111715611a9f57600080fd5b5090975060009650505050505b8451831015611ce157611ad78484815181101515611ac657fe5b90602001906020020151878c61225f565b915086600160a060020a03166380ddda308c8786815181101515611af757fe5b90602001906020020151856040518463ffffffff1660e060020a0281526004018084600160a060020a0316600160a060020a0316815260200183600160a060020a0316600160a060020a031681526020018281526020019350505050600060405180830381600087803b158015611b6d57600080fd5b505af1158015611b81573d6000803e3d6000fd5b505050600284900a91505088811615611c295786600160a060020a031663c3b35a7e8685815181101515611bb157fe5b602090810290910101516040805160e060020a63ffffffff8516028152600160a060020a0390921660048301523360248301526044820186905251606480830192600092919082900301818387803b158015611c0c57600080fd5b505af1158015611c20573d6000803e3d6000fd5b50505050611cd6565b86600160a060020a031663bada5726338786815181101515611c4757fe5b90602001906020020151856040518463ffffffff1660e060020a0281526004018084600160a060020a0316600160a060020a0316815260200183600160a060020a0316600160a060020a031681526020018281526020019350505050600060405180830381600087803b158015611cbd57600080fd5b505af1158015611cd1573d6000803e3d6000fd5b505050505b600190920191611aac565b5050505050505050505050565b600254600354600160a060020a03918216911682565b611d0c613d6d565b60008080808511611d1c57600080fd5b604080516101a081018252600160a060020a038d35811682526020808f01358216908301528d8301358116928201929092526060808e01358316908201526080808e01359092169181019190915260a081018b60006020908102919091013582528c810135828201526040808e0135818401526060808f0135908401526080808f01359084015280518c830281810184019092528c815260a090930192918d918d9182919085019084908082843782019150505050505081526020018888808060200260200160405190810160405280939291908181526020018383602002808284378201915050505050508152602001611ebf8d600580602002604051908101604052809291908260056020028082843782019150505050508d600580602002604051908101604052809291908260056020028082843782019150505050508d8d808060200260200160405190810160405280939291908181526020018383602002808284378201915050505050508c8c808060200260200160405190810160405280939291908181526020018383602002808284375061241c945050505050565b90526020810151909450600160a060020a03163314611edd57600080fd5b611ee78486612638565b61018084018051600090815260096020908152604080832054935183526008909152902054611f1b9163ffffffff61334716565b60a0850151909350611f33908463ffffffff61335a16565b9150611f45828663ffffffff61336c16565b610180850151600090815260096020526040902054909150611f6d908263ffffffff61334716565b6101808501805160009081526009602090815260409182902093909355606080880151848901518951848b015195518551600160a060020a039283168152968216978701979097528585018890529285019590955291519181169316917fcfd7c58678e31e293d74b8f7aebbfb1a9c6dd7617df89f9ad0bc9271291df5d3919081900360800190a35050505050505050505050565b600080841161201057600080fd5b6000821161201d57600080fd5b83821461202957600080fd5b5060005b838110156120765761206e85858381811061204457fe5b90506020020135600160a060020a0316848484818110151561206257fe5b905060200201356120a0565b60010161202d565b5050505050565b600054600160a060020a0316331461209457600080fd5b61209d81613384565b50565b600354604080517f80ddda30000000000000000000000000000000000000000000000000000000008152336004820152600160a060020a038581166024830152604482018590529151919092169182916380ddda309160648082019260009290919082900301818387803b15801561211757600080fd5b505af115801561212b573d6000803e3d6000fd5b5050604080517fc3b35a7e000000000000000000000000000000000000000000000000000000008152600160a060020a038781166004830152336024830152604482018790529151918516935063c3b35a7e925060648082019260009290919082900301818387803b1580156121a057600080fd5b505af11580156121b4573d6000803e3d6000fd5b50505050505050565b60009081526008602052604090205490565b600354600160a060020a031690565b6060600160040180548060200260200160405190810160405280929190818152602001828054801561109157602002820191906000526020600020908154600160a060020a03168152600190910190602001808311611073575050505050905090565b600160a060020a031660009081526006602052604090205460ff1690565b600061228184612275848663ffffffff6133f416565b9063ffffffff61340916565b949350505050565b600080835111151561229a57600080fd5b81516000106122a857600080fd5b81518351146122b657600080fd5b5060005b8251811015612076576122fd858585848151811015156122d657fe5b9060200190602002015185858151811015156122ee57fe5b90602001906020020151612305565b6001016122ba565b6002546003546040805160e060020a63a6c4e467028152600160a060020a03868116600483015260248201869052888116604483015292831660648201529051919092169163a6c4e46791608480830192600092919082900301818387803b15801561237057600080fd5b505af1158015612384573d6000803e3d6000fd5b5050600354604080517fbada5726000000000000000000000000000000000000000000000000000000008152600160a060020a038881166004830152878116602483015260448201879052915191909216935063bada57269250606480830192600092919082900301818387803b1580156123fe57600080fd5b505af1158015612412573d6000803e3d6000fd5b5050505050505050565b6000848160200201518560016020020151866002602002015187600360200201518860046020020151886000602002015189600160200201518a600260200201518b600360200201518c600460200201518c8c604051602001808d600160a060020a0316600160a060020a03166c010000000000000000000000000281526014018c600160a060020a0316600160a060020a03166c010000000000000000000000000281526014018b600160a060020a0316600160a060020a03166c010000000000000000000000000281526014018a600160a060020a0316600160a060020a03166c0100000000000000000000000002815260140189600160a060020a0316600160a060020a03166c01000000000000000000000000028152601401888152602001878152602001868152602001858152602001848152602001838051906020019060200280838360005b83811015612580578181015183820152602001612568565b50505050905001828051906020019060200280838360005b838110156125b0578181015183820152602001612598565b505050509050019c505050505050505050505050506040516020818303038152906040526040518082805190602001908083835b602083106126035780518252601f1990920191602091820191016125e4565b5181516020939093036101000a6000190180199091169216919091179052604051920182900390912098975050505050505050565b8151600160a060020a03811660009081526006602052604090205460ff16151561266157600080fd5b60008360c00151118015612679575060008360a00151115b151561268457600080fd5b60e083015142111561269557600080fd5b80600160a060020a03166342a7cfd56040518163ffffffff1660e060020a028152600401602060405180830381600087803b1580156126d357600080fd5b505af11580156126e7573d6000803e3d6000fd5b505050506040513d60208110156126fd57600080fd5b505160a084015181151561270d57fe5b061561271857600080fd5b80600160a060020a03166342a7cfd56040518163ffffffff1660e060020a028152600401602060405180830381600087803b15801561275657600080fd5b505af115801561276a573d6000803e3d6000fd5b505050506040513d602081101561278057600080fd5b50518281151561278c57fe5b061561279757600080fd5b505050565b60035461018084018051600090815260096020908152604080832054935183526008909152812054600160a060020a039093169290916060918391829182918291829182916127f09163ffffffff61334716565b97508a61280a898e60a0015161335a90919063ffffffff16565b101561281557600080fd5b8b610140015151604051908082528060200260200182016040528015612845578160200160208202803883390190505b50965073__OrderLibrary__________________________6398024a8b8d60c001518d8f60a001516040518463ffffffff1660e060020a02815260040180848152602001838152602001828152602001935050505060206040518083038186803b1580156128b257600080fd5b505af41580156128c6573d6000803e3d6000fd5b505050506040513d60208110156128dc57600080fd5b50519550600094505b8b6101400151518561ffff161015612a925788600160a060020a0316631f98ade38d602001518e61014001518861ffff1681518110151561292257fe5b60209081029091018101516040805160e060020a63ffffffff8716028152600160a060020a039485166004820152939091166024840152516044808401938290030181600087803b15801561297657600080fd5b505af115801561298a573d6000803e3d6000fd5b505050506040513d60208110156129a057600080fd5b50516101608d0151805191955073__OrderLibrary__________________________916398024a8b919061ffff89169081106129d857fe5b906020019060200201518d8f60a001516040518463ffffffff1660e060020a02815260040180848152602001838152602001828152602001935050505060206040518083038186803b158015612a2d57600080fd5b505af4158015612a41573d6000803e3d6000fd5b505050506040513d6020811015612a5757600080fd5b50519250612a6b848463ffffffff61334716565b878661ffff16815181101515612a7d57fe5b602090810290910101526001909401936128e5565b612aa08a8d60200151613432565b9150600094505b8b6101400151518561ffff161015612b9a5788600160a060020a0316631f98ade38d602001518e61014001518861ffff16815181101515612ae457fe5b60209081029091018101516040805160e060020a63ffffffff8716028152600160a060020a039485166004820152939091166024840152516044808401938290030181600087803b158015612b3857600080fd5b505af1158015612b4c573d6000803e3d6000fd5b505050506040513d6020811015612b6257600080fd5b50518751909150879061ffff8716908110612b7957fe5b60209081029091010151811015612b8f57600080fd5b600190940193612aa7565b612ba68c8c88856137d0565b6101808c0151600090815260086020526040902054612bcb908c63ffffffff61334716565b610180909c015160009081526008602052604090209b909b555050505050505050505050565b60008060006060806000806000808a9850600160020160009054906101000a9004600160a060020a0316975088600160a060020a03166342a7cfd56040518163ffffffff1660e060020a028152600401602060405180830381600087803b158015612c5b57600080fd5b505af1158015612c6f573d6000803e3d6000fd5b505050506040513d6020811015612c8557600080fd5b5051604080517f99d50d5d0000000000000000000000000000000000000000000000000000000081529051919850600160a060020a038b16916399d50d5d9160048082019260009290919082900301818387803b158015612ce557600080fd5b505af1158015612cf9573d6000803e3d6000fd5b505050506040513d6000823e601f3d908101601f191682016040526020811015612d2257600080fd5b810190808051640100000000811115612d3a57600080fd5b82016020810184811115612d4d57600080fd5b8151856020820283011164010000000082111715612d6a57600080fd5b5050929190505050955088600160a060020a031663027aa9f56040518163ffffffff1660e060020a028152600401600060405180830381600087803b158015612db257600080fd5b505af1158015612dc6573d6000803e3d6000fd5b505050506040513d6000823e601f3d908101601f191682016040526020811015612def57600080fd5b810190808051640100000000811115612e0757600080fd5b82016020810184811115612e1a57600080fd5b8151856020820283011164010000000082111715612e3757600080fd5b5090985060009750505050505b85518461ffff1610156132be57612e77858561ffff16815181101515612e6657fe5b90602001906020020151888c61225f565b925087600160a060020a0316631f98ade38d888761ffff16815181101515612e9b57fe5b60209081029091018101516040805160e060020a63ffffffff8716028152600160a060020a039485166004820152939091166024840152516044808401938290030181600087803b158015612eef57600080fd5b505af1158015612f03573d6000803e3d6000fd5b505050506040513d6020811015612f1957600080fd5b50519150828210612fd95787600160a060020a03166380ddda308d888761ffff16815181101515612f4657fe5b90602001906020020151866040518463ffffffff1660e060020a0281526004018084600160a060020a0316600160a060020a0316815260200183600160a060020a0316600160a060020a031681526020018281526020019350505050600060405180830381600087803b158015612fbc57600080fd5b505af1158015612fd0573d6000803e3d6000fd5b50505050613202565b60008211156130935787600160a060020a03166380ddda308d888761ffff1681518110151561300457fe5b90602001906020020151856040518463ffffffff1660e060020a0281526004018084600160a060020a0316600160a060020a0316815260200183600160a060020a0316600160a060020a031681526020018281526020019350505050600060405180830381600087803b15801561307a57600080fd5b505af115801561308e573d6000803e3d6000fd5b505050505b6130a3838363ffffffff61335a16565b6002548751919250600160a060020a03169063a6c4e46790889061ffff88169081106130cb57fe5b602090810290910101516130e5868663ffffffff61335a16565b8f600160020160009054906101000a9004600160a060020a03166040518563ffffffff1660e060020a0281526004018085600160a060020a0316600160a060020a0316815260200184815260200183600160a060020a0316600160a060020a0316815260200182600160a060020a0316600160a060020a03168152602001945050505050600060405180830381600087803b15801561318357600080fd5b505af1158015613197573d6000803e3d6000fd5b50505050858461ffff168151811015156131ad57fe5b90602001906020020151600160a060020a03168b600160a060020a03167fced8518610cf00c97309551834addd978c595341eda2066dbd52f9e990489573836040518082815260200191505060405180910390a35b87600160a060020a031663bada57268c888761ffff1681518110151561322457fe5b90602001906020020151866040518463ffffffff1660e060020a0281526004018084600160a060020a0316600160a060020a0316815260200183600160a060020a0316600160a060020a031681526020018281526020019350505050600060405180830381600087803b15801561329a57600080fd5b505af11580156132ae573d6000803e3d6000fd5b505060019095019450612e449050565b88600160a060020a03166340c10f198d8c6040518363ffffffff1660e060020a0281526004018083600160a060020a0316600160a060020a0316815260200182815260200192505050600060405180830381600087803b15801561332157600080fd5b505af1158015613335573d6000803e3d6000fd5b50505050505050505050505050505050565b8181018281101561335457fe5b92915050565b60008282111561336657fe5b50900390565b600081831061337b578161337d565b825b9392505050565b600160a060020a038116151561339957600080fd5b60008054604051600160a060020a03808516939216917f8be0079c531659141344cd1fd0a4f28419497f9722a3daafe3b4186f6b6457e091a360008054600160a060020a031916600160a060020a0392909216919091179055565b6000818381151561340157fe5b049392505050565b600082151561341a57506000613354565b5081810281838281151561342a57fe5b041461335457fe5b60008060006060613441613dd8565b60008060608060605b8b518910156137c05761346e8c8a6134698160a063ffffffff61334716565b613b24565b965061347987613c56565b805160ff16600090815260016020526040902054909650600160a060020a031694508415156134a757600080fd5b60808601516134bd9060a063ffffffff61334716565b93506134e48c6134d48b60a063ffffffff61334716565b6134698c8863ffffffff61334716565b60025460408089015160608a0151825160e060020a63a6c4e467028152600160a060020a03928316600482015260248101919091528f82166044820152898216606482015291519396509091169163a6c4e4679160848082019260009290919082900301818387803b15801561355957600080fd5b505af115801561356d573d6000803e3d6000fd5b50505050856020015160ff166040519080825280602002602001820160405280156135a2578160200160208202803883390190505b509150856020015160ff166040519080825280602002602001820160405280156135d6578160200160208202803883390190505b506020808801516040517fbd5b3046000000000000000000000000000000000000000000000000000000008152336004820181815260ff84166024840152606060448401908152895160648501528951969750600160a060020a038c169663bd5b3046969395948b946084909101919085019080838360005b8381101561366757818101518382015260200161364f565b50505050905090810190601f1680156136945780820380516001836020036101000a031916815260200191505b50945050505050600060405180830381600087803b1580156136b557600080fd5b505af11580156136c9573d6000803e3d6000fd5b505050506040513d6000823e601f3d908101601f1916820160409081528110156136f257600080fd5b81019080805164010000000081111561370a57600080fd5b8201602081018481111561371d57600080fd5b815185602082028301116401000000008211171561373a57600080fd5b5050929190602001805164010000000081111561375657600080fd5b8201602081018481111561376957600080fd5b815185602082028301116401000000008211171561378657600080fd5b5094965094506137a093508892508e915085905084612289565b6137b0898563ffffffff61334716565b985085606001518801975061344a565b50959a9950505050505050505050565b6002546040850151600160a060020a0390911690600090829063a6c4e467906137ff878763ffffffff61335a16565b60208a01516040805160e060020a63ffffffff8716028152600160a060020a0394851660048201526024810193909352921660448201523360648201529051608480830192600092919082900301818387803b15801561385e57600080fd5b505af1158015613872573d6000803e3d6000fd5b5050505073__OrderLibrary__________________________6398024a8b876101000151878960a001516040518463ffffffff1660e060020a02815260040180848152602001838152602001828152602001935050505060206040518083038186803b1580156138e157600080fd5b505af41580156138f5573d6000803e3d6000fd5b505050506040513d602081101561390b57600080fd5b50516080870151602088015160608901516040805160e060020a63a6c4e467028152600160a060020a0394851660048201526024810186905292841660448401529083166064830152519293509084169163a6c4e4679160848082019260009290919082900301818387803b15801561398357600080fd5b505af1158015613997573d6000803e3d6000fd5b505050608087015160608801516040805160e060020a63a6c4e467028152600160a060020a03938416600482015260248101869052336044820152918316606483015251918516925063a6c4e46791608480830192600092919082900301818387803b158015613a0657600080fd5b505af1158015613a1a573d6000803e3d6000fd5b505050508560600151600160a060020a031633600160a060020a03168760200151600160a060020a03167fd96d7e885d794cf0991f8b4a09648f9467003fbe55a3e914bbb366faad261d2b89600001518a604001518b608001518b613a888b8d61335a90919063ffffffff16565b613a998a600263ffffffff61340916565b8f61018001516040518088600160a060020a0316600160a060020a0316815260200187600160a060020a0316600160a060020a0316815260200186600160a060020a0316600160a060020a03168152602001858152602001848152602001838152602001826000191660001916815260200197505050505050505060405180910390a4505050505050565b606081831115613b9557604080517f08c379a000000000000000000000000000000000000000000000000000000000815260206004820152601a60248201527f46524f4d5f4c4553535f5448414e5f544f5f5245515549524544000000000000604482015290519081900360640190fd5b8351821115613c0557604080517f08c379a000000000000000000000000000000000000000000000000000000000815260206004820152601c60248201527f544f5f4c4553535f5448414e5f4c454e4754485f524551554952454400000000604482015290519081900360640190fd5b8282036040519080825280601f01601f191660200182016040528015613c35578160200160208202803883390190505b50905061337d613c4482613c9e565b84613c4e87613c9e565b018351613ca4565b613c5e613dd8565b613c66613dd8565b6020830151815260408301516020820152606083015160408201526080830151606082015260a0830151608082015280915050919050565b60200190565b6020811015613cce576001816020036101000a038019835116818551168082178652505050612797565b82821415613cdb57612797565b82821115613d155760208103905080820181840181515b82851015613d0d578451865260209586019590940193613cf2565b905250612797565b60208103905080820181840183515b81861215613d405782518252601f199283019290910190613d24565b85525050505050565b81548183558181111561279757600083815260209020612797918101908301613e06565b604080516101a08101825260008082526020820181905291810182905260608082018390526080820183905260a0820183905260c0820183905260e0820183905261010082018390526101208201839052610140820181905261016082015261018081019190915290565b6040805160a08101825260008082526020820181905291810182905260608101829052608081019190915290565b61109991905b80821115613e205760008155600101613e0c565b50905600a165627a7a7230582093c3b66dda12eb98df8a403b1e9b1bde339a8505bf900f8b4560c00ac4a405e90029",
  "source": "    /*\n    Copyright 2018 Set Labs Inc.\n\n    Licensed under the Apache License, Version 2.0 (the \"License\");\n    you may not use this file except in compliance with the License.\n    You may obtain a copy of the License at\n\n    http://www.apache.org/licenses/LICENSE-2.0\n\n    Unless required by applicable law or agreed to in writing, software\n    distributed under the License is distributed on an \"AS IS\" BASIS,\n    WITHOUT WARRANTIES OR CONDITIONS OF ANY KIND, either express or implied.\n    See the License for the specific language governing permissions and\n    limitations under the License.\n*/\n\npragma solidity 0.4.24;\n\nimport { CoreAccounting } from \"./extensions/CoreAccounting.sol\";\nimport { CoreExchangeDispatcher } from \"./extensions/CoreExchangeDispatcher.sol\";\nimport { CoreFactory } from \"./extensions/CoreFactory.sol\";\nimport { CoreInternal } from \"./extensions/CoreInternal.sol\";\nimport { CoreIssuance } from \"./extensions/CoreIssuance.sol\";\nimport { CoreIssuanceOrder } from \"./extensions/CoreIssuanceOrder.sol\";\n\n\n\n/**\n * @title Core\n * @author Set Protocol\n *\n * The Core contract acts as a coordinator handling issuing, redeeming, and\n * creating Sets, as well as all collateral flows throughout the system.\n */\n /* solium-disable-next-line no-empty-blocks */\ncontract Core is\n    CoreExchangeDispatcher,\n    CoreIssuanceOrder,\n    CoreAccounting,\n    CoreInternal,\n    CoreFactory,\n    CoreIssuance\n{}\n",
  "sourcePath": "/Users/justinkchen/workspace/set-protocol-contracts/contracts/core/Core.sol",
  "compiler": {
    "name": "solc",
    "version": "0.4.24+commit.e67f0147.Emscripten.clang"
  },
  "schemaVersion": "2.0.0",
  "updatedAt": "2018-08-08T05:31:02.852Z"
}