{
  "contractName": "CoreInternal",
  "abi": [
    {
      "constant": true,
      "inputs": [
        {
          "name": "_factory",
          "type": "address"
        }
      ],
      "name": "validFactories",
      "outputs": [
        {
          "name": "",
          "type": "bool"
        }
      ],
      "payable": false,
      "stateMutability": "view",
      "type": "function"
    },
    {
      "constant": true,
      "inputs": [
        {
          "name": "_orderHash",
          "type": "bytes32"
        }
      ],
      "name": "orderCancels",
      "outputs": [
        {
          "name": "",
          "type": "uint256"
        }
      ],
      "payable": false,
      "stateMutability": "view",
      "type": "function"
    },
    {
      "constant": true,
      "inputs": [],
      "name": "vaultAddress",
      "outputs": [
        {
          "name": "",
          "type": "address"
        }
      ],
      "payable": false,
      "stateMutability": "view",
      "type": "function"
    },
    {
      "constant": false,
      "inputs": [],
      "name": "renounceOwnership",
      "outputs": [],
      "payable": false,
      "stateMutability": "nonpayable",
      "type": "function"
    },
    {
      "constant": true,
      "inputs": [],
      "name": "transferProxyAddress",
      "outputs": [
        {
          "name": "",
          "type": "address"
        }
      ],
      "payable": false,
      "stateMutability": "view",
      "type": "function"
    },
    {
      "constant": true,
      "inputs": [],
      "name": "owner",
      "outputs": [
        {
          "name": "",
          "type": "address"
        }
      ],
      "payable": false,
      "stateMutability": "view",
      "type": "function"
    },
    {
      "constant": true,
      "inputs": [
        {
          "name": "_exchangeId",
          "type": "uint8"
        }
      ],
      "name": "exchanges",
      "outputs": [
        {
          "name": "",
          "type": "address"
        }
      ],
      "payable": false,
      "stateMutability": "view",
      "type": "function"
    },
    {
      "constant": true,
      "inputs": [],
      "name": "state",
      "outputs": [
        {
          "name": "transferProxyAddress",
          "type": "address"
        },
        {
          "name": "vaultAddress",
          "type": "address"
        }
      ],
      "payable": false,
      "stateMutability": "view",
      "type": "function"
    },
    {
      "constant": false,
      "inputs": [
        {
          "name": "_newOwner",
          "type": "address"
        }
      ],
      "name": "transferOwnership",
      "outputs": [],
      "payable": false,
      "stateMutability": "nonpayable",
      "type": "function"
    },
    {
      "constant": true,
      "inputs": [
        {
          "name": "_orderHash",
          "type": "bytes32"
        }
      ],
      "name": "orderFills",
      "outputs": [
        {
          "name": "",
          "type": "uint256"
        }
      ],
      "payable": false,
      "stateMutability": "view",
      "type": "function"
    },
    {
      "constant": true,
      "inputs": [
        {
          "name": "_set",
          "type": "address"
        }
      ],
      "name": "validSets",
      "outputs": [
        {
          "name": "",
          "type": "bool"
        }
      ],
      "payable": false,
      "stateMutability": "view",
      "type": "function"
    },
    {
      "anonymous": false,
      "inputs": [
        {
          "indexed": true,
          "name": "previousOwner",
          "type": "address"
        }
      ],
      "name": "OwnershipRenounced",
      "type": "event"
    },
    {
      "anonymous": false,
      "inputs": [
        {
          "indexed": true,
          "name": "previousOwner",
          "type": "address"
        },
        {
          "indexed": true,
          "name": "newOwner",
          "type": "address"
        }
      ],
      "name": "OwnershipTransferred",
      "type": "event"
    },
    {
      "constant": false,
      "inputs": [
        {
          "name": "_vaultAddress",
          "type": "address"
        }
      ],
      "name": "setVaultAddress",
      "outputs": [],
      "payable": false,
      "stateMutability": "nonpayable",
      "type": "function"
    },
    {
      "constant": false,
      "inputs": [
        {
          "name": "_transferProxyAddress",
          "type": "address"
        }
      ],
      "name": "setTransferProxyAddress",
      "outputs": [],
      "payable": false,
      "stateMutability": "nonpayable",
      "type": "function"
    },
    {
      "constant": false,
      "inputs": [
        {
          "name": "_factoryAddress",
          "type": "address"
        }
      ],
      "name": "enableFactory",
      "outputs": [],
      "payable": false,
      "stateMutability": "nonpayable",
      "type": "function"
    },
    {
      "constant": false,
      "inputs": [
        {
          "name": "_factoryAddress",
          "type": "address"
        }
      ],
      "name": "disableFactory",
      "outputs": [],
      "payable": false,
      "stateMutability": "nonpayable",
      "type": "function"
    },
    {
      "constant": false,
      "inputs": [
        {
          "name": "_setAddress",
          "type": "address"
        }
      ],
      "name": "disableSet",
      "outputs": [],
      "payable": false,
      "stateMutability": "nonpayable",
      "type": "function"
    }
  ],
  "bytecode": "0x608060405260008054600160a060020a0319163317905561084c806100256000396000f3006080604052600436106100e55763ffffffff7c01000000000000000000000000000000000000000000000000000000006000350416630e4355d481146100ea578063124cfd781461011f5780631a1f2b3e146101425780631e912bd614610163578063430bf08a1461018d578063715018a6146101be57806377274ff0146101d357806385535cc5146101f45780638ca4daf9146102155780638da5cb5b1461022a5780639f80ee881461023f578063a003e06914610260578063c19d93fb1461027b578063f2fde38b146102b6578063f7213db6146102d7578063fef3ee73146102ef575b600080fd5b3480156100f657600080fd5b5061010b600160a060020a0360043516610310565b604080519115158252519081900360200190f35b34801561012b57600080fd5b50610140600160a060020a036004351661032e565b005b34801561014e57600080fd5b50610140600160a060020a0360043516610374565b34801561016f57600080fd5b5061017b6004356104d0565b60408051918252519081900360200190f35b34801561019957600080fd5b506101a26104e2565b60408051600160a060020a039092168252519081900360200190f35b3480156101ca57600080fd5b506101406104f1565b3480156101df57600080fd5b50610140600160a060020a036004351661055d565b34801561020057600080fd5b50610140600160a060020a036004351661067d565b34801561022157600080fd5b506101a26106c3565b34801561023657600080fd5b506101a26106d2565b34801561024b57600080fd5b50610140600160a060020a03600435166106e1565b34801561026c57600080fd5b506101a260ff6004351661071c565b34801561028757600080fd5b5061029061073a565b60408051600160a060020a03938416815291909216602082015281519081900390910190f35b3480156102c257600080fd5b50610140600160a060020a0360043516610750565b3480156102e357600080fd5b5061017b600435610773565b3480156102fb57600080fd5b5061010b600160a060020a0360043516610785565b600160a060020a031660009081526004602052604090205460ff1690565b600054600160a060020a0316331461034557600080fd5b6002805473ffffffffffffffffffffffffffffffffffffffff1916600160a060020a0392909216919091179055565b600054600160a060020a0316331461038b57600080fd5b600160a060020a038116600090815260046020908152604091829020548251606081018452602681527f466163746f72792069732064697361626c6564206f7220646f6573206e6f7420928101929092527f65786973742e000000000000000000000000000000000000000000000000000092820192909252829160ff1615156104ad576040517f08c379a00000000000000000000000000000000000000000000000000000000081526004018080602001828103825283818151815260200191508051906020019080838360005b8381101561047257818101518382015260200161045a565b50505050905090810190601f16801561049f5780820380516001836020036101000a031916815260200191505b509250505060405180910390fd5b5050600160a060020a03166000908152600460205260409020805460ff19169055565b60009081526007602052604090205490565b600354600160a060020a031690565b600054600160a060020a0316331461050857600080fd5b60008054604051600160a060020a03909116917ff8df31144d9c2f0f6b59d69b8b98abd5459d07f2742c4df920b25aae33c6482091a26000805473ffffffffffffffffffffffffffffffffffffffff19169055565b600054600160a060020a0316331461057457600080fd5b600160a060020a038116600090815260056020908152604091829020548251606081018452602881527f53657420746f6b656e2069732064697361626c6564206f7220646f6573206e6f928101929092527f742065786973742e00000000000000000000000000000000000000000000000092820192909252829160ff16151561065a576040517f08c379a00000000000000000000000000000000000000000000000000000000081526004018080602001828103825283818151815260200191508051906020019080838360008381101561047257818101518382015260200161045a565b5050600160a060020a03166000908152600560205260409020805460ff19169055565b600054600160a060020a0316331461069457600080fd5b6003805473ffffffffffffffffffffffffffffffffffffffff1916600160a060020a0392909216919091179055565b600254600160a060020a031690565b600054600160a060020a031681565b600054600160a060020a031633146106f857600080fd5b600160a060020a03166000908152600460205260409020805460ff19166001179055565b60ff16600090815260016020526040902054600160a060020a031690565b600254600354600160a060020a03918216911682565b600054600160a060020a0316331461076757600080fd5b610770816107a3565b50565b60009081526006602052604090205490565b600160a060020a031660009081526005602052604090205460ff1690565b600160a060020a03811615156107b857600080fd5b60008054604051600160a060020a03808516939216917f8be0079c531659141344cd1fd0a4f28419497f9722a3daafe3b4186f6b6457e091a36000805473ffffffffffffffffffffffffffffffffffffffff1916600160a060020a03929092169190911790555600a165627a7a72305820d38c1a4c7dc39f0d3432ca8aa3d435d172a17e6473e9a81020f21d0ea8467dd20029",
  "source": "/*\n    Copyright 2018 Set Labs Inc.\n\n    Licensed under the Apache License, Version 2.0 (the \"License\");\n    you may not use this file except in compliance with the License.\n    You may obtain a copy of the License at\n\n    http://www.apache.org/licenses/LICENSE-2.0\n\n    Unless required by applicable law or agreed to in writing, software\n    distributed under the License is distributed on an \"AS IS\" BASIS,\n    WITHOUT WARRANTIES OR CONDITIONS OF ANY KIND, either express or implied.\n    See the License for the specific language governing permissions and\n    limitations under the License.\n*/\n\npragma solidity 0.4.24;\n\nimport { Ownable } from \"zeppelin-solidity/contracts/ownership/Ownable.sol\";\nimport { CoreModifiers } from \"../lib/CoreSharedModifiers.sol\";\nimport { CoreState } from \"../lib/CoreState.sol\";\n\n\n/**\n * @title Core Internal\n * @author Set Protocol\n *\n * The CoreInternal contract contains methods to alter state that tracks contract\n * addresses that need to interact with Core.\n */\ncontract CoreInternal is\n    Ownable,\n    CoreState,\n    CoreModifiers\n{\n    /* ============ Setter Functions ============ */\n\n    /**\n     * Set vaultAddress. Can only be set by owner of Core.\n     *\n     * @param  _vaultAddress   The address of the Vault\n     */\n    function setVaultAddress(\n        address _vaultAddress\n    )\n        external\n        onlyOwner\n    {\n        // Commit passed address to vaultAddress state variable\n        state.vaultAddress = _vaultAddress;\n    }\n\n    /**\n     * Set transferProxyAddress. Can only be set by owner of Core.\n     *\n     * @param  _transferProxyAddress   The address of the TransferProxy\n     */\n    function setTransferProxyAddress(\n        address _transferProxyAddress\n    )\n        external\n        onlyOwner\n    {\n        // Commit passed address to transferProxyAddress state variable\n        state.transferProxyAddress = _transferProxyAddress;\n    }\n\n    /**\n     * Add a factory to the mapping of tracked factories.\n     *\n     * @param  _factoryAddress   The address of the SetTokenFactory to enable\n     */\n    function enableFactory(\n        address _factoryAddress\n    )\n        external\n        onlyOwner\n    {\n        state.validFactories[_factoryAddress] = true;\n    }\n\n    /**\n     * Disable a factory in the mapping of tracked factories.\n     *\n     * @param  _factoryAddress   The address of the SetTokenFactory to disable\n     */\n    function disableFactory(\n        address _factoryAddress\n    )\n        external\n        onlyOwner\n        isValidFactory(_factoryAddress)\n    {\n        state.validFactories[_factoryAddress] = false;\n    }\n\n    /**\n     * Disable a set token in the mapping of tracked set tokens.\n     *\n     * @param  _setAddress   The address of the SetToken to remove\n     */\n    function disableSet(\n        address _setAddress\n    )\n        external\n        onlyOwner\n        isValidSet(_setAddress)\n    {\n        state.validSets[_setAddress] = false;\n    }\n}\n",
  "sourcePath": "/Users/justinkchen/workspace/set-protocol-contracts/contracts/core/extensions/CoreInternal.sol",
  "compiler": {
    "name": "solc",
    "version": "0.4.24+commit.e67f0147.Emscripten.clang"
  },
  "schemaVersion": "2.0.0",
  "updatedAt": "2018-07-08T01:11:15.192Z"
}