{
  "contractName": "Core",
  "abi": [
    {
      "constant": true,
      "inputs": [
        {
          "name": "_factory",
          "type": "address"
        }
      ],
      "name": "validFactories",
      "outputs": [
        {
          "name": "",
          "type": "bool"
        }
      ],
      "payable": false,
      "stateMutability": "view",
      "type": "function"
    },
    {
      "constant": false,
      "inputs": [
        {
          "name": "_transferProxyAddress",
          "type": "address"
        }
      ],
      "name": "setTransferProxyAddress",
      "outputs": [],
      "payable": false,
      "stateMutability": "nonpayable",
      "type": "function"
    },
    {
      "constant": false,
      "inputs": [
        {
          "name": "_factoryAddress",
          "type": "address"
        }
      ],
      "name": "disableFactory",
      "outputs": [],
      "payable": false,
      "stateMutability": "nonpayable",
      "type": "function"
    },
    {
      "constant": true,
      "inputs": [
        {
          "name": "_orderHash",
          "type": "bytes32"
        }
      ],
      "name": "orderCancels",
      "outputs": [
        {
          "name": "",
          "type": "uint256"
        }
      ],
      "payable": false,
      "stateMutability": "view",
      "type": "function"
    },
    {
      "constant": false,
      "inputs": [
        {
          "name": "_setAddress",
          "type": "address"
        },
        {
          "name": "_quantity",
          "type": "uint256"
        }
      ],
      "name": "redeem",
      "outputs": [],
      "payable": false,
      "stateMutability": "nonpayable",
      "type": "function"
    },
    {
      "constant": false,
      "inputs": [
        {
          "name": "_tokenAddresses",
          "type": "address[]"
        },
        {
          "name": "_quantities",
          "type": "uint256[]"
        }
      ],
      "name": "batchDeposit",
      "outputs": [],
      "payable": false,
      "stateMutability": "nonpayable",
      "type": "function"
    },
    {
      "constant": false,
      "inputs": [
        {
          "name": "_exchangeId",
          "type": "uint8"
        },
        {
          "name": "_exchange",
          "type": "address"
        }
      ],
      "name": "registerExchange",
      "outputs": [],
      "payable": false,
      "stateMutability": "nonpayable",
      "type": "function"
    },
    {
      "constant": true,
      "inputs": [],
      "name": "vaultAddress",
      "outputs": [
        {
          "name": "",
          "type": "address"
        }
      ],
      "payable": false,
      "stateMutability": "view",
      "type": "function"
    },
    {
      "constant": false,
      "inputs": [
        {
          "name": "_tokenAddress",
          "type": "address"
        },
        {
          "name": "_quantity",
          "type": "uint256"
        }
      ],
      "name": "deposit",
      "outputs": [],
      "payable": false,
      "stateMutability": "nonpayable",
      "type": "function"
    },
    {
      "constant": false,
      "inputs": [
        {
          "name": "_factoryAddress",
          "type": "address"
        },
        {
          "name": "_components",
          "type": "address[]"
        },
        {
          "name": "_units",
          "type": "uint256[]"
        },
        {
          "name": "_naturalUnit",
          "type": "uint256"
        },
        {
          "name": "_name",
          "type": "string"
        },
        {
          "name": "_symbol",
          "type": "string"
        }
      ],
      "name": "create",
      "outputs": [
        {
          "name": "",
          "type": "address"
        }
      ],
      "payable": false,
      "stateMutability": "nonpayable",
      "type": "function"
    },
    {
      "constant": false,
      "inputs": [
        {
          "name": "_addresses",
          "type": "address[4]"
        },
        {
          "name": "_values",
          "type": "uint256[5]"
        },
        {
          "name": "_fillQuantity",
          "type": "uint256"
        },
        {
          "name": "_v",
          "type": "uint8"
        },
        {
          "name": "_r",
          "type": "bytes32"
        },
        {
          "name": "_s",
          "type": "bytes32"
        },
        {
          "name": "_orderData",
          "type": "bytes"
        }
      ],
      "name": "fillOrder",
      "outputs": [],
      "payable": false,
      "stateMutability": "nonpayable",
      "type": "function"
    },
    {
      "constant": false,
      "inputs": [],
      "name": "renounceOwnership",
      "outputs": [],
      "payable": false,
      "stateMutability": "nonpayable",
      "type": "function"
    },
    {
      "constant": false,
      "inputs": [
        {
          "name": "_setAddress",
          "type": "address"
        }
      ],
      "name": "disableSet",
      "outputs": [],
      "payable": false,
      "stateMutability": "nonpayable",
      "type": "function"
    },
    {
      "constant": false,
      "inputs": [
        {
          "name": "_vaultAddress",
          "type": "address"
        }
      ],
      "name": "setVaultAddress",
      "outputs": [],
      "payable": false,
      "stateMutability": "nonpayable",
      "type": "function"
    },
    {
      "constant": false,
      "inputs": [
        {
          "name": "_setAddress",
          "type": "address"
        },
        {
          "name": "_quantity",
          "type": "uint256"
        }
      ],
      "name": "issue",
      "outputs": [],
      "payable": false,
      "stateMutability": "nonpayable",
      "type": "function"
    },
    {
      "constant": true,
      "inputs": [],
      "name": "transferProxyAddress",
      "outputs": [
        {
          "name": "",
          "type": "address"
        }
      ],
      "payable": false,
      "stateMutability": "view",
      "type": "function"
    },
    {
      "constant": true,
      "inputs": [],
      "name": "owner",
      "outputs": [
        {
          "name": "",
          "type": "address"
        }
      ],
      "payable": false,
      "stateMutability": "view",
      "type": "function"
    },
    {
      "constant": false,
      "inputs": [
        {
          "name": "_addresses",
          "type": "address[4]"
        },
        {
          "name": "_values",
          "type": "uint256[5]"
        },
        {
          "name": "_cancelQuantity",
          "type": "uint256"
        }
      ],
      "name": "cancelOrder",
      "outputs": [],
      "payable": false,
      "stateMutability": "nonpayable",
      "type": "function"
    },
    {
      "constant": false,
      "inputs": [
        {
          "name": "_factoryAddress",
          "type": "address"
        }
      ],
      "name": "enableFactory",
      "outputs": [],
      "payable": false,
      "stateMutability": "nonpayable",
      "type": "function"
    },
    {
      "constant": true,
      "inputs": [
        {
          "name": "_exchangeId",
          "type": "uint8"
        }
      ],
      "name": "exchanges",
      "outputs": [
        {
          "name": "",
          "type": "address"
        }
      ],
      "payable": false,
      "stateMutability": "view",
      "type": "function"
    },
    {
      "constant": true,
      "inputs": [],
      "name": "state",
      "outputs": [
        {
          "name": "transferProxyAddress",
          "type": "address"
        },
        {
          "name": "vaultAddress",
          "type": "address"
        }
      ],
      "payable": false,
      "stateMutability": "view",
      "type": "function"
    },
    {
      "constant": false,
      "inputs": [
        {
          "name": "_tokenAddresses",
          "type": "address[]"
        },
        {
          "name": "_quantities",
          "type": "uint256[]"
        }
      ],
      "name": "batchWithdraw",
      "outputs": [],
      "payable": false,
      "stateMutability": "nonpayable",
      "type": "function"
    },
    {
      "constant": false,
      "inputs": [
        {
          "name": "_newOwner",
          "type": "address"
        }
      ],
      "name": "transferOwnership",
      "outputs": [],
      "payable": false,
      "stateMutability": "nonpayable",
      "type": "function"
    },
    {
      "constant": false,
      "inputs": [
        {
          "name": "_tokenAddress",
          "type": "address"
        },
        {
          "name": "_quantity",
          "type": "uint256"
        }
      ],
      "name": "withdraw",
      "outputs": [],
      "payable": false,
      "stateMutability": "nonpayable",
      "type": "function"
    },
    {
      "constant": true,
      "inputs": [
        {
          "name": "_orderHash",
          "type": "bytes32"
        }
      ],
      "name": "orderFills",
      "outputs": [
        {
          "name": "",
          "type": "uint256"
        }
      ],
      "payable": false,
      "stateMutability": "view",
      "type": "function"
    },
    {
      "constant": true,
      "inputs": [
        {
          "name": "_set",
          "type": "address"
        }
      ],
      "name": "validSets",
      "outputs": [
        {
          "name": "",
          "type": "bool"
        }
      ],
      "payable": false,
      "stateMutability": "view",
      "type": "function"
    },
    {
      "anonymous": false,
      "inputs": [
        {
          "indexed": true,
          "name": "_setToken",
          "type": "address"
        },
        {
          "indexed": true,
          "name": "_component",
          "type": "address"
        },
        {
          "indexed": false,
          "name": "_quantity",
          "type": "uint256"
        }
      ],
      "name": "IssuanceComponentDeposited",
      "type": "event"
    },
    {
      "anonymous": false,
      "inputs": [
        {
          "indexed": true,
          "name": "_setTokenAddress",
          "type": "address"
        },
        {
          "indexed": false,
          "name": "_factoryAddress",
          "type": "address"
        },
        {
          "indexed": false,
          "name": "_components",
          "type": "address[]"
        },
        {
          "indexed": false,
          "name": "_units",
          "type": "uint256[]"
        },
        {
          "indexed": false,
          "name": "_naturalUnit",
          "type": "uint256"
        },
        {
          "indexed": false,
          "name": "_name",
          "type": "string"
        },
        {
          "indexed": false,
          "name": "_symbol",
          "type": "string"
        }
      ],
      "name": "SetTokenCreated",
      "type": "event"
    },
    {
      "anonymous": false,
      "inputs": [
        {
          "indexed": false,
          "name": "_exchangeId",
          "type": "uint8"
        },
        {
          "indexed": false,
          "name": "_exchange",
          "type": "address"
        }
      ],
      "name": "ExchangeRegistered",
      "type": "event"
    },
    {
      "anonymous": false,
      "inputs": [
        {
          "indexed": true,
          "name": "previousOwner",
          "type": "address"
        }
      ],
      "name": "OwnershipRenounced",
      "type": "event"
    },
    {
      "anonymous": false,
      "inputs": [
        {
          "indexed": true,
          "name": "previousOwner",
          "type": "address"
        },
        {
          "indexed": true,
          "name": "newOwner",
          "type": "address"
        }
      ],
      "name": "OwnershipTransferred",
      "type": "event"
    }
  ],
  "bytecode": "0x6080604052336000806101000a81548173ffffffffffffffffffffffffffffffffffffffff021916908373ffffffffffffffffffffffffffffffffffffffff1602179055506157a3806100536000396000f300608060405260043610610154576000357c0100000000000000000000000000000000000000000000000000000000900463ffffffff1680630e4355d414610159578063124cfd78146101b45780631a1f2b3e146101f75780631e912bd61461023a5780631e9a69501461027f57806330a90736146102cc5780633e3d13b21461031f578063430bf08a1461036f57806347e7ef24146103c657806352904449146104135780635cee2af114610500578063715018a61461058257806377274ff01461059957806385535cc5146105dc578063867904b41461061f5780638ca4daf91461066c5780638da5cb5b146106c357806398362fa31461071a5780639f80ee881461075b578063a003e0691461079e578063c19d93fb1461080e578063e131243e14610898578063f2fde38b146108eb578063f3fef3a31461092e578063f7213db61461097b578063fef3ee73146109c0575b600080fd5b34801561016557600080fd5b5061019a600480360381019080803573ffffffffffffffffffffffffffffffffffffffff169060200190929190505050610a1b565b604051808215151515815260200191505060405180910390f35b3480156101c057600080fd5b506101f5600480360381019080803573ffffffffffffffffffffffffffffffffffffffff169060200190929190505050610a74565b005b34801561020357600080fd5b50610238600480360381019080803573ffffffffffffffffffffffffffffffffffffffff169060200190929190505050610b15565b005b34801561024657600080fd5b506102696004803603810190808035600019169060200190929190505050610d26565b6040518082815260200191505060405180910390f35b34801561028b57600080fd5b506102ca600480360381019080803573ffffffffffffffffffffffffffffffffffffffff16906020019092919080359060200190929190505050610d4e565b005b3480156102d857600080fd5b5061031d600480360381019080803590602001908201803590602001919091929391929390803590602001908201803590602001919091929391929390505050611759565b005b34801561032b57600080fd5b5061036d600480360381019080803560ff169060200190929190803573ffffffffffffffffffffffffffffffffffffffff169060200190929190505050611afc565b005b34801561037b57600080fd5b50610384611c27565b604051808273ffffffffffffffffffffffffffffffffffffffff1673ffffffffffffffffffffffffffffffffffffffff16815260200191505060405180910390f35b3480156103d257600080fd5b50610411600480360381019080803573ffffffffffffffffffffffffffffffffffffffff16906020019092919080359060200190929190505050611c54565b005b34801561041f57600080fd5b506104be600480360381019080803573ffffffffffffffffffffffffffffffffffffffff16906020019092919080359060200190820180359060200191909192939192939080359060200190820180359060200191909192939192939080359060200190929190803590602001908201803590602001919091929391929390803590602001908201803590602001919091929391929390505050611f8b565b604051808273ffffffffffffffffffffffffffffffffffffffff1673ffffffffffffffffffffffffffffffffffffffff16815260200191505060405180910390f35b34801561050c57600080fd5b50610580600480360381019080806080019091929192908060a00190919291929080359060200190929190803560ff1690602001909291908035600019169060200190929190803560001916906020019092919080359060200190820180359060200191909192939192939050505061239c565b005b34801561058e57600080fd5b50610597612bc1565b005b3480156105a557600080fd5b506105da600480360381019080803573ffffffffffffffffffffffffffffffffffffffff169060200190929190505050612cc3565b005b3480156105e857600080fd5b5061061d600480360381019080803573ffffffffffffffffffffffffffffffffffffffff169060200190929190505050612ed4565b005b34801561062b57600080fd5b5061066a600480360381019080803573ffffffffffffffffffffffffffffffffffffffff16906020019092919080359060200190929190505050612f76565b005b34801561067857600080fd5b506106816133a0565b604051808273ffffffffffffffffffffffffffffffffffffffff1673ffffffffffffffffffffffffffffffffffffffff16815260200191505060405180910390f35b3480156106cf57600080fd5b506106d86133cc565b604051808273ffffffffffffffffffffffffffffffffffffffff1673ffffffffffffffffffffffffffffffffffffffff16815260200191505060405180910390f35b34801561072657600080fd5b50610759600480360381019080806080019091929192908060a001909192919290803590602001909291905050506133f1565b005b34801561076757600080fd5b5061079c600480360381019080803573ffffffffffffffffffffffffffffffffffffffff16906020019092919050505061387f565b005b3480156107aa57600080fd5b506107cc600480360381019080803560ff169060200190929190505050613937565b604051808273ffffffffffffffffffffffffffffffffffffffff1673ffffffffffffffffffffffffffffffffffffffff16815260200191505060405180910390f35b34801561081a57600080fd5b5061082361397d565b604051808373ffffffffffffffffffffffffffffffffffffffff1673ffffffffffffffffffffffffffffffffffffffff1681526020018273ffffffffffffffffffffffffffffffffffffffff1673ffffffffffffffffffffffffffffffffffffffff1681526020019250505060405180910390f35b3480156108a457600080fd5b506108e96004803603810190808035906020019082018035906020019190919293919293908035906020019082018035906020019190919293919293905050506139cf565b005b3480156108f757600080fd5b5061092c600480360381019080803573ffffffffffffffffffffffffffffffffffffffff169060200190929190505050613d72565b005b34801561093a57600080fd5b50610979600480360381019080803573ffffffffffffffffffffffffffffffffffffffff16906020019092919080359060200190929190505050613dd9565b005b34801561098757600080fd5b506109aa6004803603810190808035600019169060200190929190505050614005565b6040518082815260200191505060405180910390f35b3480156109cc57600080fd5b50610a01600480360381019080803573ffffffffffffffffffffffffffffffffffffffff16906020019092919050505061402d565b604051808215151515815260200191505060405180910390f35b6000600160030160008373ffffffffffffffffffffffffffffffffffffffff1673ffffffffffffffffffffffffffffffffffffffff16815260200190815260200160002060009054906101000a900460ff169050919050565b6000809054906101000a900473ffffffffffffffffffffffffffffffffffffffff1673ffffffffffffffffffffffffffffffffffffffff163373ffffffffffffffffffffffffffffffffffffffff16141515610acf57600080fd5b806001800160006101000a81548173ffffffffffffffffffffffffffffffffffffffff021916908373ffffffffffffffffffffffffffffffffffffffff16021790555050565b6000809054906101000a900473ffffffffffffffffffffffffffffffffffffffff1673ffffffffffffffffffffffffffffffffffffffff163373ffffffffffffffffffffffffffffffffffffffff16141515610b7057600080fd5b80600160030160008273ffffffffffffffffffffffffffffffffffffffff1673ffffffffffffffffffffffffffffffffffffffff16815260200190815260200160002060009054906101000a900460ff16606060405190810160405280602681526020017f466163746f72792069732064697361626c6564206f7220646f6573206e6f742081526020017f65786973742e0000000000000000000000000000000000000000000000000000815250901515610cc6576040517f08c379a00000000000000000000000000000000000000000000000000000000081526004018080602001828103825283818151815260200191508051906020019080838360005b83811015610c8b578082015181840152602081019050610c70565b50505050905090810190601f168015610cb85780820380516001836020036101000a031916815260200191505b509250505060405180910390fd5b506000600160030160008473ffffffffffffffffffffffffffffffffffffffff1673ffffffffffffffffffffffffffffffffffffffff16815260200190815260200160002060006101000a81548160ff0219169083151502179055505050565b6000600160060160008360001916600019168152602001908152602001600020549050919050565b600060608060008060008088600160040160008273ffffffffffffffffffffffffffffffffffffffff1673ffffffffffffffffffffffffffffffffffffffff16815260200190815260200160002060009054906101000a900460ff16606060405190810160405280602881526020017f53657420746f6b656e2069732064697361626c6564206f7220646f6573206e6f81526020017f742065786973742e000000000000000000000000000000000000000000000000815250901515610eaf576040517f08c379a00000000000000000000000000000000000000000000000000000000081526004018080602001828103825283818151815260200191508051906020019080838360005b83811015610e74578082015181840152602081019050610e59565b50505050905090810190601f168015610ea15780820380516001836020036101000a031916815260200191505b509250505060405180910390fd5b508860008111606060405190810160405280602381526020017f5175616e74697479206d7573742062652067726561746572207468616e207a6581526020017f726f2e0000000000000000000000000000000000000000000000000000000000815250901515610fba576040517f08c379a00000000000000000000000000000000000000000000000000000000081526004018080602001828103825283818151815260200191508051906020019080838360005b83811015610f7f578082015181840152602081019050610f64565b50505050905090810190601f168015610fac5780820380516001836020036101000a031916815260200191505b509250505060405180910390fd5b50898b60008173ffffffffffffffffffffffffffffffffffffffff166342a7cfd56040518163ffffffff167c0100000000000000000000000000000000000000000000000000000000028152600401602060405180830381600087803b15801561102357600080fd5b505af1158015611037573d6000803e3d6000fd5b505050506040513d602081101561104d57600080fd5b81019080805190602001909291905050508381151561106857fe5b0614606060405190810160405280603981526020017f5175616e74697479206d757374206265206d756c7469706c65206f662074686581526020017f206e61747572616c20756e6974206f6620746865207365742e0000000000000081525090151561116f576040517f08c379a00000000000000000000000000000000000000000000000000000000081526004018080602001828103825283818151815260200191508051906020019080838360005b83811015611134578082015181840152602081019050611119565b50505050905090810190601f1680156111615780820380516001836020036101000a031916815260200191505b509250505060405180910390fd5b508c73ffffffffffffffffffffffffffffffffffffffff16639dc29fac338e6040518363ffffffff167c0100000000000000000000000000000000000000000000000000000000028152600401808373ffffffffffffffffffffffffffffffffffffffff1673ffffffffffffffffffffffffffffffffffffffff16815260200182815260200192505050600060405180830381600087803b15801561121357600080fd5b505af1158015611227573d6000803e3d6000fd5b505050508c73ffffffffffffffffffffffffffffffffffffffff166342a7cfd56040518163ffffffff167c0100000000000000000000000000000000000000000000000000000000028152600401602060405180830381600087803b15801561128f57600080fd5b505af11580156112a3573d6000803e3d6000fd5b505050506040513d60208110156112b957600080fd5b81019080805190602001909291905050509a508c73ffffffffffffffffffffffffffffffffffffffff166399d50d5d6040518163ffffffff167c0100000000000000000000000000000000000000000000000000000000028152600401600060405180830381600087803b15801561133057600080fd5b505af1158015611344573d6000803e3d6000fd5b505050506040513d6000823e3d601f19601f82011682018060405250602081101561136e57600080fd5b81019080805164010000000081111561138657600080fd5b8281019050602081018481111561139c57600080fd5b81518560208202830111640100000000821117156113b957600080fd5b505092919050505099508c73ffffffffffffffffffffffffffffffffffffffff1663027aa9f56040518163ffffffff167c0100000000000000000000000000000000000000000000000000000000028152600401600060405180830381600087803b15801561142757600080fd5b505af115801561143b573d6000803e3d6000fd5b505050506040513d6000823e3d601f19601f82011682018060405250602081101561146557600080fd5b81019080805164010000000081111561147d57600080fd5b8281019050602081018481111561149357600080fd5b81518560208202830111640100000000821117156114b057600080fd5b50509291905050509850600097505b89518861ffff16101561174a57898861ffff168151811015156114de57fe5b906020019060200201519650888861ffff168151811015156114fc57fe5b906020019060200201519550611513868c8e614086565b9450600160020160009054906101000a900473ffffffffffffffffffffffffffffffffffffffff1673ffffffffffffffffffffffffffffffffffffffff166380ddda308e89886040518463ffffffff167c0100000000000000000000000000000000000000000000000000000000028152600401808473ffffffffffffffffffffffffffffffffffffffff1673ffffffffffffffffffffffffffffffffffffffff1681526020018373ffffffffffffffffffffffffffffffffffffffff1673ffffffffffffffffffffffffffffffffffffffff1681526020018281526020019350505050600060405180830381600087803b15801561161157600080fd5b505af1158015611625573d6000803e3d6000fd5b50505050600160020160009054906101000a900473ffffffffffffffffffffffffffffffffffffffff1673ffffffffffffffffffffffffffffffffffffffff1663bada57263389886040518463ffffffff167c0100000000000000000000000000000000000000000000000000000000028152600401808473ffffffffffffffffffffffffffffffffffffffff1673ffffffffffffffffffffffffffffffffffffffff1681526020018373ffffffffffffffffffffffffffffffffffffffff1673ffffffffffffffffffffffffffffffffffffffff1681526020018281526020019350505050600060405180830381600087803b15801561172557600080fd5b505af1158015611739573d6000803e3d6000fd5b5050505087806001019850506114bf565b50505050505050505050505050565b600084848080602002602001604051908101604052809392919081815260200183836020028082843782019150505050505083838080602002602001604051908101604052809392919081815260200183836020028082843782019150505050505060008251116040805190810160405280601c81526020017f416464726573736573206d757374206e6f7420626520656d7074792e0000000081525090151561189e576040517f08c379a00000000000000000000000000000000000000000000000000000000081526004018080602001828103825283818151815260200191508051906020019080838360005b83811015611863578082015181840152602081019050611848565b50505050905090810190601f1680156118905780820380516001836020036101000a031916815260200191505b509250505060405180910390fd5b5060008151116040805190810160405280601d81526020017f5175616e746974696573206d757374206e6f7420626520656d7074792e000000815250901515611982576040517f08c379a00000000000000000000000000000000000000000000000000000000081526004018080602001828103825283818151815260200191508051906020019080838360005b8381101561194757808201518184015260208101905061192c565b50505050905090810190601f1680156119745780820380516001836020036101000a031916815260200191505b509250505060405180910390fd5b508051825114606060405190810160405280603181526020017f41646472657373657320616e64207175616e746974696573206d75737420626581526020017f207468652073616d65206c656e6774682e000000000000000000000000000000815250901515611a8d576040517f08c379a00000000000000000000000000000000000000000000000000000000081526004018080602001828103825283818151815260200191508051906020019080838360005b83811015611a52578082015181840152602081019050611a37565b50505050905090810190601f168015611a7f5780820380516001836020036101000a031916815260200191505b509250505060405180910390fd5b50600092505b86869050831015611af357611ae68787858181101515611aaf57fe5b9050602002013573ffffffffffffffffffffffffffffffffffffffff168686868181101515611ada57fe5b90506020020135611c54565b8280600101935050611a93565b50505050505050565b6000809054906101000a900473ffffffffffffffffffffffffffffffffffffffff1673ffffffffffffffffffffffffffffffffffffffff163373ffffffffffffffffffffffffffffffffffffffff16141515611b5757600080fd5b80600160000160008460ff1660ff16815260200190815260200160002060006101000a81548173ffffffffffffffffffffffffffffffffffffffff021916908373ffffffffffffffffffffffffffffffffffffffff1602179055507feee2c0570205f21356a5108d71a4d6e7151682b92a84c761fca82cac87275c288282604051808360ff1660ff1681526020018273ffffffffffffffffffffffffffffffffffffffff1673ffffffffffffffffffffffffffffffffffffffff1681526020019250505060405180910390a15050565b6000600160020160009054906101000a900473ffffffffffffffffffffffffffffffffffffffff16905090565b8060008111606060405190810160405280602381526020017f5175616e74697479206d7573742062652067726561746572207468616e207a6581526020017f726f2e0000000000000000000000000000000000000000000000000000000000815250901515611d5e576040517f08c379a00000000000000000000000000000000000000000000000000000000081526004018080602001828103825283818151815260200191508051906020019080838360005b83811015611d23578082015181840152602081019050611d08565b50505050905090810190601f168015611d505780820380516001836020036101000a031916815260200191505b509250505060405180910390fd5b506001800160009054906101000a900473ffffffffffffffffffffffffffffffffffffffff1673ffffffffffffffffffffffffffffffffffffffff166303ee22953385856040518463ffffffff167c0100000000000000000000000000000000000000000000000000000000028152600401808473ffffffffffffffffffffffffffffffffffffffff1673ffffffffffffffffffffffffffffffffffffffff1681526020018373ffffffffffffffffffffffffffffffffffffffff1673ffffffffffffffffffffffffffffffffffffffff1681526020018281526020019350505050600060405180830381600087803b158015611e5a57600080fd5b505af1158015611e6e573d6000803e3d6000fd5b50505050600160020160009054906101000a900473ffffffffffffffffffffffffffffffffffffffff1673ffffffffffffffffffffffffffffffffffffffff1663bada57263385856040518463ffffffff167c0100000000000000000000000000000000000000000000000000000000028152600401808473ffffffffffffffffffffffffffffffffffffffff1673ffffffffffffffffffffffffffffffffffffffff1681526020018373ffffffffffffffffffffffffffffffffffffffff1673ffffffffffffffffffffffffffffffffffffffff1681526020018281526020019350505050600060405180830381600087803b158015611f6e57600080fd5b505af1158015611f82573d6000803e3d6000fd5b50505050505050565b6000808b600160030160008273ffffffffffffffffffffffffffffffffffffffff1673ffffffffffffffffffffffffffffffffffffffff16815260200190815260200160002060009054906101000a900460ff16606060405190810160405280602681526020017f466163746f72792069732064697361626c6564206f7220646f6573206e6f742081526020017f65786973742e00000000000000000000000000000000000000000000000000008152509015156120e4576040517f08c379a00000000000000000000000000000000000000000000000000000000081526004018080602001828103825283818151815260200191508051906020019080838360005b838110156120a957808201518184015260208101905061208e565b50505050905090810190601f1680156120d65780820380516001836020036101000a031916815260200191505b509250505060405180910390fd5b508c73ffffffffffffffffffffffffffffffffffffffff1663110a25c28d8d8d8d8d8d8d8d8d6040518a63ffffffff167c0100000000000000000000000000000000000000000000000000000000028152600401808060200180602001888152602001806020018060200185810385528e8e82818152602001925060200280828437820191505085810384528c8c82818152602001925060200280828437820191505085810383528989828181526020019250808284378201915050858103825287878281815260200192508082843782019150509d5050505050505050505050505050602060405180830381600087803b1580156121e257600080fd5b505af11580156121f6573d6000803e3d6000fd5b505050506040513d602081101561220c57600080fd5b8101908080519060200190929190505050915060018060040160008473ffffffffffffffffffffffffffffffffffffffff1673ffffffffffffffffffffffffffffffffffffffff16815260200190815260200160002060006101000a81548160ff0219169083151502179055508173ffffffffffffffffffffffffffffffffffffffff167f388b9bd51ec792eb7ce238581b3f844072709011b2a20260c428451e07d764a88e8e8e8e8e8e8e8e8e8e604051808b73ffffffffffffffffffffffffffffffffffffffff1673ffffffffffffffffffffffffffffffffffffffff1681526020018060200180602001888152602001806020018060200185810385528e8e82818152602001925060200280828437820191505085810384528c8c82818152602001925060200280828437820191505085810383528989828181526020019250808284378201915050858103825287878281815260200192508082843782019150509e50505050505050505050505050505060405180910390a281925050509a9950505050505050505050565b6123a46156ab565b8860006004811015156123b357fe5b602002013573ffffffffffffffffffffffffffffffffffffffff16600160040160008273ffffffffffffffffffffffffffffffffffffffff1673ffffffffffffffffffffffffffffffffffffffff16815260200190815260200160002060009054906101000a900460ff16606060405190810160405280602881526020017f53657420746f6b656e2069732064697361626c6564206f7220646f6573206e6f81526020017f742065786973742e000000000000000000000000000000000000000000000000815250901515612523576040517f08c379a00000000000000000000000000000000000000000000000000000000081526004018080602001828103825283818151815260200191508051906020019080838360005b838110156124e85780820151818401526020810190506124cd565b50505050905090810190601f1680156125155780820380516001836020036101000a031916815260200191505b509250505060405180910390fd5b508760008111606060405190810160405280602381526020017f5175616e74697479206d7573742062652067726561746572207468616e207a6581526020017f726f2e000000000000000000000000000000000000000000000000000000000081525090151561262e576040517f08c379a00000000000000000000000000000000000000000000000000000000081526004018080602001828103825283818151815260200191508051906020019080838360005b838110156125f35780820151818401526020810190506125d8565b50505050905090810190601f1680156126205780820380516001836020036101000a031916815260200191505b509250505060405180910390fd5b50888b600060048110151561263f57fe5b602002013573ffffffffffffffffffffffffffffffffffffffff1660008173ffffffffffffffffffffffffffffffffffffffff166342a7cfd56040518163ffffffff167c0100000000000000000000000000000000000000000000000000000000028152600401602060405180830381600087803b1580156126c057600080fd5b505af11580156126d4573d6000803e3d6000fd5b505050506040513d60208110156126ea57600080fd5b81019080805190602001909291905050508381151561270557fe5b0614606060405190810160405280603981526020017f5175616e74697479206d757374206265206d756c7469706c65206f662074686581526020017f206e61747572616c20756e6974206f6620746865207365742e0000000000000081525090151561280c576040517f08c379a00000000000000000000000000000000000000000000000000000000081526004018080602001828103825283818151815260200191508051906020019080838360005b838110156127d15780820151818401526020810190506127b6565b50505050905090810190601f1680156127fe5780820380516001836020036101000a031916815260200191505b509250505060405180910390fd5b50610140604051908101604052808e600060048110151561282957fe5b602002013573ffffffffffffffffffffffffffffffffffffffff1673ffffffffffffffffffffffffffffffffffffffff1681526020018d600060058110151561286e57fe5b602002013581526020018e600160048110151561288757fe5b602002013573ffffffffffffffffffffffffffffffffffffffff1673ffffffffffffffffffffffffffffffffffffffff1681526020018e60026004811015156128cc57fe5b602002013573ffffffffffffffffffffffffffffffffffffffff1673ffffffffffffffffffffffffffffffffffffffff1681526020018d600160058110151561291157fe5b602002013581526020018d600260058110151561292a57fe5b602002013581526020018e600360048110151561294357fe5b602002013573ffffffffffffffffffffffffffffffffffffffff1673ffffffffffffffffffffffffffffffffffffffff1681526020018d600360058110151561298857fe5b602002013581526020018d60046005811015156129a157fe5b602002013581526020016129ff8f600480602002604051908101604052809291908260046020028082843782019150505050508f600580602002604051908101604052809291908260056020028082843782019150505050506140b6565b600019168152509450612a12858c614319565b612a2885610120015186604001518c8c8c614522565b6040805190810160405280601881526020017f496e76616c6964206f72646572207369676e61747572652e0000000000000000815250901515612b06576040517f08c379a00000000000000000000000000000000000000000000000000000000081526004018080602001828103825283818151815260200191508051906020019080838360005b83811015612acb578082015181840152602081019050612ab0565b50505050905090810190601f168015612af85780820380516001836020036101000a031916815260200191505b509250505060405180910390fd5b50612b4287878080601f0160208091040260200160405190810160405280939291908181526020018383808284378201915050505050506146fc565b612b788b60016005016000886101200151600019166000191681526020019081526020016000205461490490919063ffffffff16565b600160050160008761012001516000191660001916815260200190815260200160002081905550612bb2856040015186600001518d614920565b50505050505050505050505050565b6000809054906101000a900473ffffffffffffffffffffffffffffffffffffffff1673ffffffffffffffffffffffffffffffffffffffff163373ffffffffffffffffffffffffffffffffffffffff16141515612c1c57600080fd5b6000809054906101000a900473ffffffffffffffffffffffffffffffffffffffff1673ffffffffffffffffffffffffffffffffffffffff167ff8df31144d9c2f0f6b59d69b8b98abd5459d07f2742c4df920b25aae33c6482060405160405180910390a260008060006101000a81548173ffffffffffffffffffffffffffffffffffffffff021916908373ffffffffffffffffffffffffffffffffffffffff160217905550565b6000809054906101000a900473ffffffffffffffffffffffffffffffffffffffff1673ffffffffffffffffffffffffffffffffffffffff163373ffffffffffffffffffffffffffffffffffffffff16141515612d1e57600080fd5b80600160040160008273ffffffffffffffffffffffffffffffffffffffff1673ffffffffffffffffffffffffffffffffffffffff16815260200190815260200160002060009054906101000a900460ff16606060405190810160405280602881526020017f53657420746f6b656e2069732064697361626c6564206f7220646f6573206e6f81526020017f742065786973742e000000000000000000000000000000000000000000000000815250901515612e74576040517f08c379a00000000000000000000000000000000000000000000000000000000081526004018080602001828103825283818151815260200191508051906020019080838360005b83811015612e39578082015181840152602081019050612e1e565b50505050905090810190601f168015612e665780820380516001836020036101000a031916815260200191505b509250505060405180910390fd5b506000600160040160008473ffffffffffffffffffffffffffffffffffffffff1673ffffffffffffffffffffffffffffffffffffffff16815260200190815260200160002060006101000a81548160ff0219169083151502179055505050565b6000809054906101000a900473ffffffffffffffffffffffffffffffffffffffff1673ffffffffffffffffffffffffffffffffffffffff163373ffffffffffffffffffffffffffffffffffffffff16141515612f2f57600080fd5b80600160020160006101000a81548173ffffffffffffffffffffffffffffffffffffffff021916908373ffffffffffffffffffffffffffffffffffffffff16021790555050565b81600160040160008273ffffffffffffffffffffffffffffffffffffffff1673ffffffffffffffffffffffffffffffffffffffff16815260200190815260200160002060009054906101000a900460ff16606060405190810160405280602881526020017f53657420746f6b656e2069732064697361626c6564206f7220646f6573206e6f81526020017f742065786973742e0000000000000000000000000000000000000000000000008152509015156130cc576040517f08c379a00000000000000000000000000000000000000000000000000000000081526004018080602001828103825283818151815260200191508051906020019080838360005b83811015613091578082015181840152602081019050613076565b50505050905090810190601f1680156130be5780820380516001836020036101000a031916815260200191505b509250505060405180910390fd5b508160008111606060405190810160405280602381526020017f5175616e74697479206d7573742062652067726561746572207468616e207a6581526020017f726f2e00000000000000000000000000000000000000000000000000000000008152509015156131d7576040517f08c379a00000000000000000000000000000000000000000000000000000000081526004018080602001828103825283818151815260200191508051906020019080838360005b8381101561319c578082015181840152602081019050613181565b50505050905090810190601f1680156131c95780820380516001836020036101000a031916815260200191505b509250505060405180910390fd5b50828460008173ffffffffffffffffffffffffffffffffffffffff166342a7cfd56040518163ffffffff167c0100000000000000000000000000000000000000000000000000000000028152600401602060405180830381600087803b15801561324057600080fd5b505af1158015613254573d6000803e3d6000fd5b505050506040513d602081101561326a57600080fd5b81019080805190602001909291905050508381151561328557fe5b0614606060405190810160405280603981526020017f5175616e74697479206d757374206265206d756c7469706c65206f662074686581526020017f206e61747572616c20756e6974206f6620746865207365742e0000000000000081525090151561338c576040517f08c379a00000000000000000000000000000000000000000000000000000000081526004018080602001828103825283818151815260200191508051906020019080838360005b83811015613351578082015181840152602081019050613336565b50505050905090810190601f16801561337e5780820380516001836020036101000a031916815260200191505b509250505060405180910390fd5b50613398338787614920565b505050505050565b60006001800160009054906101000a900473ffffffffffffffffffffffffffffffffffffffff16905090565b6000809054906101000a900473ffffffffffffffffffffffffffffffffffffffff1681565b6133f96156ab565b8160008111606060405190810160405280602381526020017f5175616e74697479206d7573742062652067726561746572207468616e207a6581526020017f726f2e0000000000000000000000000000000000000000000000000000000000815250901515613503576040517f08c379a00000000000000000000000000000000000000000000000000000000081526004018080602001828103825283818151815260200191508051906020019080838360005b838110156134c85780820151818401526020810190506134ad565b50505050905090810190601f1680156134f55780820380516001836020036101000a031916815260200191505b509250505060405180910390fd5b506101406040519081016040528086600060048110151561352057fe5b602002013573ffffffffffffffffffffffffffffffffffffffff1673ffffffffffffffffffffffffffffffffffffffff16815260200185600060058110151561356557fe5b6020020135815260200186600160048110151561357e57fe5b602002013573ffffffffffffffffffffffffffffffffffffffff1673ffffffffffffffffffffffffffffffffffffffff1681526020018660026004811015156135c357fe5b602002013573ffffffffffffffffffffffffffffffffffffffff1673ffffffffffffffffffffffffffffffffffffffff16815260200185600160058110151561360857fe5b6020020135815260200185600260058110151561362157fe5b6020020135815260200186600360048110151561363a57fe5b602002013573ffffffffffffffffffffffffffffffffffffffff1673ffffffffffffffffffffffffffffffffffffffff16815260200185600360058110151561367f57fe5b6020020135815260200185600460058110151561369857fe5b602002013581526020016136f6876004806020026040519081016040528092919082600460200280828437820191505050505087600580602002604051908101604052809291908260056020028082843782019150505050506140b6565b6000191681525091503373ffffffffffffffffffffffffffffffffffffffff16826040015173ffffffffffffffffffffffffffffffffffffffff16146040805190810160405280601c81526020017f4f6e6c79206d616b65722063616e2063616e63656c206f726465722e00000000815250901515613810576040517f08c379a00000000000000000000000000000000000000000000000000000000081526004018080602001828103825283818151815260200191508051906020019080838360005b838110156137d55780820151818401526020810190506137ba565b50505050905090810190601f1680156138025780820380516001836020036101000a031916815260200191505b509250505060405180910390fd5b5061381b8284614319565b6138518360016006016000856101200151600019166000191681526020019081526020016000205461490490919063ffffffff16565b6001600601600084610120015160001916600019168152602001908152602001600020819055505050505050565b6000809054906101000a900473ffffffffffffffffffffffffffffffffffffffff1673ffffffffffffffffffffffffffffffffffffffff163373ffffffffffffffffffffffffffffffffffffffff161415156138da57600080fd5b60018060030160008373ffffffffffffffffffffffffffffffffffffffff1673ffffffffffffffffffffffffffffffffffffffff16815260200190815260200160002060006101000a81548160ff02191690831515021790555050565b6000600160000160008360ff1660ff16815260200190815260200160002060009054906101000a900473ffffffffffffffffffffffffffffffffffffffff169050919050565b60018060010160009054906101000a900473ffffffffffffffffffffffffffffffffffffffff16908060020160009054906101000a900473ffffffffffffffffffffffffffffffffffffffff16905082565b600084848080602002602001604051908101604052809392919081815260200183836020028082843782019150505050505083838080602002602001604051908101604052809392919081815260200183836020028082843782019150505050505060008251116040805190810160405280601c81526020017f416464726573736573206d757374206e6f7420626520656d7074792e00000000815250901515613b14576040517f08c379a00000000000000000000000000000000000000000000000000000000081526004018080602001828103825283818151815260200191508051906020019080838360005b83811015613ad9578082015181840152602081019050613abe565b50505050905090810190601f168015613b065780820380516001836020036101000a031916815260200191505b509250505060405180910390fd5b5060008151116040805190810160405280601d81526020017f5175616e746974696573206d757374206e6f7420626520656d7074792e000000815250901515613bf8576040517f08c379a00000000000000000000000000000000000000000000000000000000081526004018080602001828103825283818151815260200191508051906020019080838360005b83811015613bbd578082015181840152602081019050613ba2565b50505050905090810190601f168015613bea5780820380516001836020036101000a031916815260200191505b509250505060405180910390fd5b508051825114606060405190810160405280603181526020017f41646472657373657320616e64207175616e746974696573206d75737420626581526020017f207468652073616d65206c656e6774682e000000000000000000000000000000815250901515613d03576040517f08c379a00000000000000000000000000000000000000000000000000000000081526004018080602001828103825283818151815260200191508051906020019080838360005b83811015613cc8578082015181840152602081019050613cad565b50505050905090810190601f168015613cf55780820380516001836020036101000a031916815260200191505b509250505060405180910390fd5b50600092505b86869050831015613d6957613d5c8787858181101515613d2557fe5b9050602002013573ffffffffffffffffffffffffffffffffffffffff168686868181101515613d5057fe5b90506020020135613dd9565b8280600101935050613d09565b50505050505050565b6000809054906101000a900473ffffffffffffffffffffffffffffffffffffffff1673ffffffffffffffffffffffffffffffffffffffff163373ffffffffffffffffffffffffffffffffffffffff16141515613dcd57600080fd5b613dd68161530d565b50565b600160020160009054906101000a900473ffffffffffffffffffffffffffffffffffffffff1673ffffffffffffffffffffffffffffffffffffffff166380ddda303384846040518463ffffffff167c0100000000000000000000000000000000000000000000000000000000028152600401808473ffffffffffffffffffffffffffffffffffffffff1673ffffffffffffffffffffffffffffffffffffffff1681526020018373ffffffffffffffffffffffffffffffffffffffff1673ffffffffffffffffffffffffffffffffffffffff1681526020018281526020019350505050600060405180830381600087803b158015613ed557600080fd5b505af1158015613ee9573d6000803e3d6000fd5b50505050600160020160009054906101000a900473ffffffffffffffffffffffffffffffffffffffff1673ffffffffffffffffffffffffffffffffffffffff1663c3b35a7e8333846040518463ffffffff167c0100000000000000000000000000000000000000000000000000000000028152600401808473ffffffffffffffffffffffffffffffffffffffff1673ffffffffffffffffffffffffffffffffffffffff1681526020018373ffffffffffffffffffffffffffffffffffffffff1673ffffffffffffffffffffffffffffffffffffffff1681526020018281526020019350505050600060405180830381600087803b158015613fe957600080fd5b505af1158015613ffd573d6000803e3d6000fd5b505050505050565b6000600160050160008360001916600019168152602001908152602001600020549050919050565b6000600160040160008373ffffffffffffffffffffffffffffffffffffffff1673ffffffffffffffffffffffffffffffffffffffff16815260200190815260200160002060009054906101000a900460ff169050919050565b60006140ad8461409f858561540790919063ffffffff16565b61541d90919063ffffffff16565b90509392505050565b60008260006004811015156140c757fe5b60200201518360016004811015156140db57fe5b60200201518460026004811015156140ef57fe5b602002015185600360048110151561410357fe5b602002015185600060058110151561411757fe5b602002015186600160058110151561412b57fe5b602002015187600260058110151561413f57fe5b602002015188600360058110151561415357fe5b602002015189600460058110151561416757fe5b6020020151604051602001808a73ffffffffffffffffffffffffffffffffffffffff1673ffffffffffffffffffffffffffffffffffffffff166c010000000000000000000000000281526014018973ffffffffffffffffffffffffffffffffffffffff1673ffffffffffffffffffffffffffffffffffffffff166c010000000000000000000000000281526014018873ffffffffffffffffffffffffffffffffffffffff1673ffffffffffffffffffffffffffffffffffffffff166c010000000000000000000000000281526014018773ffffffffffffffffffffffffffffffffffffffff1673ffffffffffffffffffffffffffffffffffffffff166c0100000000000000000000000002815260140186815260200185815260200184815260200183815260200182815260200199505050505050505050506040516020818303038152906040526040518082805190602001908083835b6020831015156142e457805182526020820191506020810190506020830392506142bf565b6001836020036101000a0380198251168184511680821785525050505050509050019150506040518091039020905092915050565b60008260800151118015614331575060008260200151115b606060405190810160405280603781526020017f5175616e7469747920616e64206d616b6572546f6b656e416d6f756e7420736881526020017f6f756c642062652067726561746572207468616e20302e000000000000000000815250901515614436576040517f08c379a00000000000000000000000000000000000000000000000000000000081526004018080602001828103825283818151815260200191508051906020019080838360005b838110156143fb5780820151818401526020810190506143e0565b50505050905090810190601f1680156144285780820380516001836020036101000a031916815260200191505b509250505060405180910390fd5b508160a001514211156040805190810160405280601781526020017f54686973206f726465722068617320657870697265642e00000000000000000081525090151561451d576040517f08c379a00000000000000000000000000000000000000000000000000000000081526004018080602001828103825283818151815260200191508051906020019080838360005b838110156144e25780820151818401526020810190506144c7565b50505050905090810190601f16801561450f5780820380516001836020036101000a031916815260200191505b509250505060405180910390fd5b505050565b60008060606040805190810160405280601c81526020017f19457468657265756d205369676e6564204d6573736167653a0a3332000000008152509050600181896040516020018083805190602001908083835b60208310151561459b5780518252602082019150602081019050602083039250614576565b6001836020036101000a0380198251168184511680821785525050505050509050018260001916600019168152602001925050506040516020818303038152906040526040518082805190602001908083835b60208310151561461357805182526020820191506020810190506020830392506145ee565b6001836020036101000a0380198251168184511680821785525050505050509050019150506040518091039020878787604051600081526020016040526040518085600019166000191681526020018460ff1660ff1681526020018360001916600019168152602001826000191660001916815260200194505050505060206040516020810390808403906000865af11580156146b4573d6000803e3d6000fd5b5050506020604051035191508673ffffffffffffffffffffffffffffffffffffffff168273ffffffffffffffffffffffffffffffffffffffff16149250505095945050505050565b6000606061470861575a565b60008060605b86518610156148fb57614735878761473060408a61490490919063ffffffff16565b615455565b9450614740856155a8565b935060016000016000856000015160ff1660ff16815260200190815260200160002060009054906101000a900473ffffffffffffffffffffffffffffffffffffffff169250600073ffffffffffffffffffffffffffffffffffffffff168373ffffffffffffffffffffffffffffffffffffffff1614156040805190810160405280601881526020017f45786368616e676520646f6573206e6f742065786973742e0000000000000000815250901515614894576040517f08c379a00000000000000000000000000000000000000000000000000000000081526004018080602001828103825283818151815260200191508051906020019080838360005b8381101561485957808201518184015260208101905061483e565b50505050905090810190601f1680156148865780820380516001836020036101000a031916815260200191505b509250505060405180910390fd5b506148ad6040856020015161490490919063ffffffff16565b91506148df876148c760408961490490919063ffffffff16565b6148da858a61490490919063ffffffff16565b615455565b90506148f4828761490490919063ffffffff16565b955061470e565b50505050505050565b6000818301905082811015151561491757fe5b80905092915050565b6060806000806000806000808973ffffffffffffffffffffffffffffffffffffffff166399d50d5d6040518163ffffffff167c0100000000000000000000000000000000000000000000000000000000028152600401600060405180830381600087803b15801561499057600080fd5b505af11580156149a4573d6000803e3d6000fd5b505050506040513d6000823e3d601f19601f8201168201806040525060208110156149ce57600080fd5b8101908080516401000000008111156149e657600080fd5b828101905060208101848111156149fc57600080fd5b8151856020820283011164010000000082111715614a1957600080fd5b505092919050505097508973ffffffffffffffffffffffffffffffffffffffff1663027aa9f56040518163ffffffff167c0100000000000000000000000000000000000000000000000000000000028152600401600060405180830381600087803b158015614a8757600080fd5b505af1158015614a9b573d6000803e3d6000fd5b505050506040513d6000823e3d601f19601f820116820180604052506020811015614ac557600080fd5b810190808051640100000000811115614add57600080fd5b82810190506020810184811115614af357600080fd5b8151856020820283011164010000000082111715614b1057600080fd5b50509291905050509650600095505b87518661ffff16101561524557878661ffff16815181101515614b3e57fe5b906020019060200201519450868661ffff16815181101515614b5c57fe5b906020019060200201519350614c11848b73ffffffffffffffffffffffffffffffffffffffff166342a7cfd56040518163ffffffff167c0100000000000000000000000000000000000000000000000000000000028152600401602060405180830381600087803b158015614bd057600080fd5b505af1158015614be4573d6000803e3d6000fd5b505050506040513d6020811015614bfa57600080fd5b81019080805190602001909291905050508b614086565b9250600160020160009054906101000a900473ffffffffffffffffffffffffffffffffffffffff1673ffffffffffffffffffffffffffffffffffffffff16631f98ade38c876040518363ffffffff167c0100000000000000000000000000000000000000000000000000000000028152600401808373ffffffffffffffffffffffffffffffffffffffff1673ffffffffffffffffffffffffffffffffffffffff1681526020018273ffffffffffffffffffffffffffffffffffffffff1673ffffffffffffffffffffffffffffffffffffffff16815260200192505050602060405180830381600087803b158015614d0757600080fd5b505af1158015614d1b573d6000803e3d6000fd5b505050506040513d6020811015614d3157600080fd5b810190808051906020019092919050505091508282101515614e6657600160020160009054906101000a900473ffffffffffffffffffffffffffffffffffffffff1673ffffffffffffffffffffffffffffffffffffffff166380ddda308c87866040518463ffffffff167c0100000000000000000000000000000000000000000000000000000000028152600401808473ffffffffffffffffffffffffffffffffffffffff1673ffffffffffffffffffffffffffffffffffffffff1681526020018373ffffffffffffffffffffffffffffffffffffffff1673ffffffffffffffffffffffffffffffffffffffff1681526020018281526020019350505050600060405180830381600087803b158015614e4957600080fd5b505af1158015614e5d573d6000803e3d6000fd5b50505050615124565b6000821115614f8457600160020160009054906101000a900473ffffffffffffffffffffffffffffffffffffffff1673ffffffffffffffffffffffffffffffffffffffff166380ddda308c87856040518463ffffffff167c0100000000000000000000000000000000000000000000000000000000028152600401808473ffffffffffffffffffffffffffffffffffffffff1673ffffffffffffffffffffffffffffffffffffffff1681526020018373ffffffffffffffffffffffffffffffffffffffff1673ffffffffffffffffffffffffffffffffffffffff1681526020018281526020019350505050600060405180830381600087803b158015614f6b57600080fd5b505af1158015614f7f573d6000803e3d6000fd5b505050505b614f9782846155d290919063ffffffff16565b90506001800160009054906101000a900473ffffffffffffffffffffffffffffffffffffffff1673ffffffffffffffffffffffffffffffffffffffff166303ee22958c87614fee86886155d290919063ffffffff16565b6040518463ffffffff167c0100000000000000000000000000000000000000000000000000000000028152600401808473ffffffffffffffffffffffffffffffffffffffff1673ffffffffffffffffffffffffffffffffffffffff1681526020018373ffffffffffffffffffffffffffffffffffffffff1673ffffffffffffffffffffffffffffffffffffffff1681526020018281526020019350505050600060405180830381600087803b1580156150a657600080fd5b505af11580156150ba573d6000803e3d6000fd5b505050508473ffffffffffffffffffffffffffffffffffffffff168a73ffffffffffffffffffffffffffffffffffffffff167fced8518610cf00c97309551834addd978c595341eda2066dbd52f9e990489573836040518082815260200191505060405180910390a35b600160020160009054906101000a900473ffffffffffffffffffffffffffffffffffffffff1673ffffffffffffffffffffffffffffffffffffffff1663bada57268b87866040518463ffffffff167c0100000000000000000000000000000000000000000000000000000000028152600401808473ffffffffffffffffffffffffffffffffffffffff1673ffffffffffffffffffffffffffffffffffffffff1681526020018373ffffffffffffffffffffffffffffffffffffffff1673ffffffffffffffffffffffffffffffffffffffff1681526020018281526020019350505050600060405180830381600087803b15801561522057600080fd5b505af1158015615234573d6000803e3d6000fd5b505050508580600101965050614b1f565b8973ffffffffffffffffffffffffffffffffffffffff166340c10f198c8b6040518363ffffffff167c0100000000000000000000000000000000000000000000000000000000028152600401808373ffffffffffffffffffffffffffffffffffffffff1673ffffffffffffffffffffffffffffffffffffffff16815260200182815260200192505050600060405180830381600087803b1580156152e857600080fd5b505af11580156152fc573d6000803e3d6000fd5b505050505050505050505050505050565b600073ffffffffffffffffffffffffffffffffffffffff168173ffffffffffffffffffffffffffffffffffffffff161415151561534957600080fd5b8073ffffffffffffffffffffffffffffffffffffffff166000809054906101000a900473ffffffffffffffffffffffffffffffffffffffff1673ffffffffffffffffffffffffffffffffffffffff167f8be0079c531659141344cd1fd0a4f28419497f9722a3daafe3b4186f6b6457e060405160405180910390a3806000806101000a81548173ffffffffffffffffffffffffffffffffffffffff021916908373ffffffffffffffffffffffffffffffffffffffff16021790555050565b6000818381151561541457fe5b04905092915050565b600080831415615430576000905061544f565b818302905081838281151561544157fe5b0414151561544b57fe5b8090505b92915050565b60608183111515156154cf576040517f08c379a000000000000000000000000000000000000000000000000000000000815260040180806020018281038252601a8152602001807f46524f4d5f4c4553535f5448414e5f544f5f524551554952454400000000000081525060200191505060405180910390fd5b83518211151515615548576040517f08c379a000000000000000000000000000000000000000000000000000000000815260040180806020018281038252601c8152602001807f544f5f4c4553535f5448414e5f4c454e4754485f52455155495245440000000081525060200191505060405180910390fd5b8282036040519080825280601f01601f19166020018201604052801561557d5781602001602082028038833980820191505090505b50905061559e61558c826155eb565b84615596876155eb565b0183516155fb565b8090509392505050565b6155b061575a565b6155b861575a565b602083015181526040830151602082015280915050919050565b60008282111515156155e057fe5b818303905092915050565b6000602082019050809050919050565b6020811015615625576001816020036101000a0380198351168185511680821786525050506156a5565b82821415615632576156a6565b828211156156715760208103905080820181840181515b828510156156665784518652602085019450602086019550615649565b8082525050506156a4565b60208103905080820181840183515b8186121561569d5782518252602083039250602082039150615680565b8086525050505b5b5b505050565b61014060405190810160405280600073ffffffffffffffffffffffffffffffffffffffff16815260200160008152602001600073ffffffffffffffffffffffffffffffffffffffff168152602001600073ffffffffffffffffffffffffffffffffffffffff1681526020016000815260200160008152602001600073ffffffffffffffffffffffffffffffffffffffff1681526020016000815260200160008152602001600080191681525090565b6040805190810160405280600060ff1681526020016000815250905600a165627a7a723058205189cc30f7075f1d45dc1a3bb4b92abe85d02e59adb757d5639694a5e3bbfafe0029",
  "source": "/*\n    Copyright 2018 Set Labs Inc.\n\n    Licensed under the Apache License, Version 2.0 (the \"License\");\n    you may not use this file except in compliance with the License.\n    You may obtain a copy of the License at\n\n    http://www.apache.org/licenses/LICENSE-2.0\n\n    Unless required by applicable law or agreed to in writing, software\n    distributed under the License is distributed on an \"AS IS\" BASIS,\n    WITHOUT WARRANTIES OR CONDITIONS OF ANY KIND, either express or implied.\n    See the License for the specific language governing permissions and\n    limitations under the License.\n*/\n\npragma solidity 0.4.24;\n\nimport { CoreAccounting } from \"./extensions/CoreAccounting.sol\";\nimport { CoreExchangeDispatcher } from \"./extensions/CoreExchangeDispatcher.sol\";\nimport { CoreFactory } from \"./extensions/CoreFactory.sol\";\nimport { CoreInternal } from \"./extensions/CoreInternal.sol\";\nimport { CoreIssuance } from \"./extensions/CoreIssuance.sol\";\nimport { CoreIssuanceOrder } from \"./extensions/CoreIssuanceOrder.sol\";\n\n\n\n/**\n * @title Core\n * @author Set Protocol\n *\n * The Core contract acts as a coordinator handling issuing, redeeming, and\n * creating Sets, as well as all collateral flows throughout the system.\n */\ncontract Core is\n    CoreExchangeDispatcher,\n    CoreIssuanceOrder,\n    CoreAccounting,\n    CoreInternal,\n    CoreFactory,\n    CoreIssuance\n{}\n",
  "sourcePath": "/Users/justinkchen/workspace/set-protocol-contracts/contracts/core/Core.sol",
  "compiler": {
    "name": "solc",
    "version": "0.4.24+commit.e67f0147.Emscripten.clang"
  },
  "schemaVersion": "2.0.0",
  "updatedAt": "2018-07-07T07:45:08.888Z"
}