{
  "contractName": "CoreExchangeDispatcher",
  "abi": [
    {
      "constant": true,
      "inputs": [
        {
          "name": "_factory",
          "type": "address"
        }
      ],
      "name": "validFactories",
      "outputs": [
        {
          "name": "",
          "type": "bool"
        }
      ],
      "payable": false,
      "stateMutability": "view",
      "type": "function"
    },
    {
      "constant": true,
      "inputs": [
        {
          "name": "_orderHash",
          "type": "bytes32"
        }
      ],
      "name": "orderCancels",
      "outputs": [
        {
          "name": "",
          "type": "uint256"
        }
      ],
      "payable": false,
      "stateMutability": "view",
      "type": "function"
    },
    {
      "constant": true,
      "inputs": [],
      "name": "setTokens",
      "outputs": [
        {
          "name": "",
          "type": "address[]"
        }
      ],
      "payable": false,
      "stateMutability": "view",
      "type": "function"
    },
    {
      "constant": true,
      "inputs": [],
      "name": "transferProxy",
      "outputs": [
        {
          "name": "",
          "type": "address"
        }
      ],
      "payable": false,
      "stateMutability": "view",
      "type": "function"
    },
    {
      "constant": false,
      "inputs": [],
      "name": "renounceOwnership",
      "outputs": [],
      "payable": false,
      "stateMutability": "nonpayable",
      "type": "function"
    },
    {
      "constant": true,
      "inputs": [],
      "name": "owner",
      "outputs": [
        {
          "name": "",
          "type": "address"
        }
      ],
      "payable": false,
      "stateMutability": "view",
      "type": "function"
    },
    {
      "constant": true,
      "inputs": [
        {
          "name": "_exchangeId",
          "type": "uint8"
        }
      ],
      "name": "exchanges",
      "outputs": [
        {
          "name": "",
          "type": "address"
        }
      ],
      "payable": false,
      "stateMutability": "view",
      "type": "function"
    },
    {
      "constant": true,
      "inputs": [],
      "name": "state",
      "outputs": [
        {
          "name": "transferProxy",
          "type": "address"
        },
        {
          "name": "vault",
          "type": "address"
        }
      ],
      "payable": false,
      "stateMutability": "view",
      "type": "function"
    },
    {
      "constant": false,
      "inputs": [
        {
          "name": "_newOwner",
          "type": "address"
        }
      ],
      "name": "transferOwnership",
      "outputs": [],
      "payable": false,
      "stateMutability": "nonpayable",
      "type": "function"
    },
    {
      "constant": true,
      "inputs": [
        {
          "name": "_orderHash",
          "type": "bytes32"
        }
      ],
      "name": "orderFills",
      "outputs": [
        {
          "name": "",
          "type": "uint256"
        }
      ],
      "payable": false,
      "stateMutability": "view",
      "type": "function"
    },
    {
      "constant": true,
      "inputs": [],
      "name": "vault",
      "outputs": [
        {
          "name": "",
          "type": "address"
        }
      ],
      "payable": false,
      "stateMutability": "view",
      "type": "function"
    },
    {
      "constant": true,
      "inputs": [],
      "name": "factories",
      "outputs": [
        {
          "name": "",
          "type": "address[]"
        }
      ],
      "payable": false,
      "stateMutability": "view",
      "type": "function"
    },
    {
      "constant": true,
      "inputs": [
        {
          "name": "_set",
          "type": "address"
        }
      ],
      "name": "validSets",
      "outputs": [
        {
          "name": "",
          "type": "bool"
        }
      ],
      "payable": false,
      "stateMutability": "view",
      "type": "function"
    },
    {
      "anonymous": false,
      "inputs": [
        {
          "indexed": false,
          "name": "_exchangeId",
          "type": "uint8"
        },
        {
          "indexed": false,
          "name": "_exchange",
          "type": "address"
        }
      ],
      "name": "ExchangeRegistered",
      "type": "event"
    },
    {
      "anonymous": false,
      "inputs": [
        {
          "indexed": true,
          "name": "previousOwner",
          "type": "address"
        }
      ],
      "name": "OwnershipRenounced",
      "type": "event"
    },
    {
      "anonymous": false,
      "inputs": [
        {
          "indexed": true,
          "name": "previousOwner",
          "type": "address"
        },
        {
          "indexed": true,
          "name": "newOwner",
          "type": "address"
        }
      ],
      "name": "OwnershipTransferred",
      "type": "event"
    },
    {
      "constant": false,
      "inputs": [
        {
          "name": "_exchangeId",
          "type": "uint8"
        },
        {
          "name": "_exchange",
          "type": "address"
        }
      ],
      "name": "registerExchange",
      "outputs": [],
      "payable": false,
      "stateMutability": "nonpayable",
      "type": "function"
    }
  ],
  "bytecode": "0x608060405260008054600160a060020a03191633179055610646806100256000396000f3006080604052600436106100cf5763ffffffff7c01000000000000000000000000000000000000000000000000000000006000350416630e4355d481146100d45780631e912bd6146101095780633e3d13b214610133578063559ed3391461015c5780636e667db3146101c1578063715018a6146101f25780638da5cb5b14610207578063a003e0691461021c578063c19d93fb14610237578063f2fde38b14610272578063f7213db614610293578063fbfa77cf146102ab578063fe5b38e4146102c0578063fef3ee73146102d5575b600080fd5b3480156100e057600080fd5b506100f5600160a060020a03600435166102f6565b604080519115158252519081900360200190f35b34801561011557600080fd5b50610121600435610314565b60408051918252519081900360200190f35b34801561013f57600080fd5b5061015a60ff60043516600160a060020a0360243516610326565b005b34801561016857600080fd5b506101716103b5565b60408051602080825283518183015283519192839290830191858101910280838360005b838110156101ad578181015183820152602001610195565b505050509050019250505060405180910390f35b3480156101cd57600080fd5b506101d661041a565b60408051600160a060020a039092168252519081900360200190f35b3480156101fe57600080fd5b5061015a610429565b34801561021357600080fd5b506101d6610495565b34801561022857600080fd5b506101d660ff600435166104a4565b34801561024357600080fd5b5061024c6104c2565b60408051600160a060020a03938416815291909216602082015281519081900390910190f35b34801561027e57600080fd5b5061015a600160a060020a03600435166104d8565b34801561029f57600080fd5b506101216004356104fb565b3480156102b757600080fd5b506101d661050d565b3480156102cc57600080fd5b5061017161051c565b3480156102e157600080fd5b506100f5600160a060020a036004351661057f565b600160a060020a031660009081526004602052604090205460ff1690565b60009081526009602052604090205490565b600054600160a060020a0316331461033d57600080fd5b60ff8216600081815260016020908152604091829020805473ffffffffffffffffffffffffffffffffffffffff1916600160a060020a03861690811790915582519384529083015280517feee2c0570205f21356a5108d71a4d6e7151682b92a84c761fca82cac87275c289281900390910190a15050565b6060600160060180548060200260200160405190810160405280929190818152602001828054801561041057602002820191906000526020600020905b8154600160a060020a031681526001909101906020018083116103f2575b5050505050905090565b600254600160a060020a031690565b600054600160a060020a0316331461044057600080fd5b60008054604051600160a060020a03909116917ff8df31144d9c2f0f6b59d69b8b98abd5459d07f2742c4df920b25aae33c6482091a26000805473ffffffffffffffffffffffffffffffffffffffff19169055565b600054600160a060020a031681565b60ff16600090815260016020526040902054600160a060020a031690565b600254600354600160a060020a03918216911682565b600054600160a060020a031633146104ef57600080fd5b6104f88161059d565b50565b60009081526008602052604090205490565b600354600160a060020a031690565b6060600160040180548060200260200160405190810160405280929190818152602001828054801561041057602002820191906000526020600020908154600160a060020a031681526001909101906020018083116103f2575050505050905090565b600160a060020a031660009081526006602052604090205460ff1690565b600160a060020a03811615156105b257600080fd5b60008054604051600160a060020a03808516939216917f8be0079c531659141344cd1fd0a4f28419497f9722a3daafe3b4186f6b6457e091a36000805473ffffffffffffffffffffffffffffffffffffffff1916600160a060020a03929092169190911790555600a165627a7a723058201f017c646390e7fafe15e1275889d3b8c7bd1d42a711a8da27d4e99c024261540029",
  "source": "/*\n    Copyright 2018 Set Labs Inc.\n\n    Licensed under the Apache License, Version 2.0 (the \"License\");\n    you may not use this file except in compliance with the License.\n    You may obtain a copy of the License at\n\n    http://www.apache.org/licenses/LICENSE-2.0\n\n    Unless required by applicable law or agreed to in writing, software\n    distributed under the License is distributed on an \"AS IS\" BASIS,\n    WITHOUT WARRANTIES OR CONDITIONS OF ANY KIND, either express or implied.\n    See the License for the specific language governing permissions and\n    limitations under the License.\n*/\n\npragma solidity 0.4.24;\n\nimport { Ownable } from \"zeppelin-solidity/contracts/ownership/Ownable.sol\";\nimport { CoreState } from \"../lib/CoreState.sol\";\n\n\n/**\n * @title Core Exchange Dispatcher\n * @author Set Protocol\n *\n * The CoreExchangeDispatcher factilitates updating permissible exchanges\n * that are used in filling issuance orders. See CoreState.State.exchanges\n */\ncontract CoreExchangeDispatcher is\n    Ownable,\n    CoreState\n{\n\n    /* ============ Events ============ */\n\n    // Logs registration of new exchange\n    event ExchangeRegistered(\n        uint8 _exchangeId,\n        address _exchange\n    );\n\n    /* ============ External Functions ============ */\n\n    /**\n     * Register exchange address into mapping of exchanges\n     *\n     * @param _exchangeId   Enumeration of exchange\n     * @param _exchange     Exchange address to set\n     */\n    function registerExchange(\n        uint8 _exchangeId,\n        address _exchange\n    )\n        external\n        onlyOwner\n    {\n        // Add asset proxy and log registration.\n        state.exchanges[_exchangeId] = _exchange;\n\n        // Add asset proxy and log registration.\n        emit ExchangeRegistered(\n            _exchangeId,\n            _exchange\n        );\n    }\n}\n",
  "sourcePath": "/Users/alexsoong/Source/set-protocol/set-protocol-contracts/contracts/core/extensions/CoreExchangeDispatcher.sol",
  "compiler": {
    "name": "solc",
    "version": "0.4.24+commit.e67f0147.Emscripten.clang"
  },
  "schemaVersion": "2.0.0",
  "updatedAt": "2018-08-10T21:21:49.346Z"
}