{
  "contractName": "CoreIssuance",
  "abi": [
    {
      "constant": true,
      "inputs": [
        {
          "name": "_factory",
          "type": "address"
        }
      ],
      "name": "validFactories",
      "outputs": [
        {
          "name": "",
          "type": "bool"
        }
      ],
      "payable": false,
      "stateMutability": "view",
      "type": "function"
    },
    {
      "constant": true,
      "inputs": [
        {
          "name": "_orderHash",
          "type": "bytes32"
        }
      ],
      "name": "orderCancels",
      "outputs": [
        {
          "name": "",
          "type": "uint256"
        }
      ],
      "payable": false,
      "stateMutability": "view",
      "type": "function"
    },
    {
      "constant": true,
      "inputs": [],
      "name": "setTokens",
      "outputs": [
        {
          "name": "",
          "type": "address[]"
        }
      ],
      "payable": false,
      "stateMutability": "view",
      "type": "function"
    },
    {
      "constant": true,
      "inputs": [],
      "name": "transferProxy",
      "outputs": [
        {
          "name": "",
          "type": "address"
        }
      ],
      "payable": false,
      "stateMutability": "view",
      "type": "function"
    },
    {
      "constant": true,
      "inputs": [
        {
          "name": "_exchangeId",
          "type": "uint8"
        }
      ],
      "name": "exchanges",
      "outputs": [
        {
          "name": "",
          "type": "address"
        }
      ],
      "payable": false,
      "stateMutability": "view",
      "type": "function"
    },
    {
      "constant": true,
      "inputs": [],
      "name": "state",
      "outputs": [
        {
          "name": "transferProxy",
          "type": "address"
        },
        {
          "name": "vault",
          "type": "address"
        }
      ],
      "payable": false,
      "stateMutability": "view",
      "type": "function"
    },
    {
      "constant": true,
      "inputs": [
        {
          "name": "_orderHash",
          "type": "bytes32"
        }
      ],
      "name": "orderFills",
      "outputs": [
        {
          "name": "",
          "type": "uint256"
        }
      ],
      "payable": false,
      "stateMutability": "view",
      "type": "function"
    },
    {
      "constant": true,
      "inputs": [],
      "name": "vault",
      "outputs": [
        {
          "name": "",
          "type": "address"
        }
      ],
      "payable": false,
      "stateMutability": "view",
      "type": "function"
    },
    {
      "constant": true,
      "inputs": [],
      "name": "factories",
      "outputs": [
        {
          "name": "",
          "type": "address[]"
        }
      ],
      "payable": false,
      "stateMutability": "view",
      "type": "function"
    },
    {
      "constant": true,
      "inputs": [
        {
          "name": "_set",
          "type": "address"
        }
      ],
      "name": "validSets",
      "outputs": [
        {
          "name": "",
          "type": "bool"
        }
      ],
      "payable": false,
      "stateMutability": "view",
      "type": "function"
    },
    {
      "anonymous": false,
      "inputs": [
        {
          "indexed": true,
          "name": "_setToken",
          "type": "address"
        },
        {
          "indexed": true,
          "name": "_component",
          "type": "address"
        },
        {
          "indexed": false,
          "name": "_quantity",
          "type": "uint256"
        }
      ],
      "name": "IssuanceComponentDeposited",
      "type": "event"
    },
    {
      "constant": false,
      "inputs": [
        {
          "name": "_set",
          "type": "address"
        },
        {
          "name": "_quantity",
          "type": "uint256"
        }
      ],
      "name": "issue",
      "outputs": [],
      "payable": false,
      "stateMutability": "nonpayable",
      "type": "function"
    },
    {
      "constant": false,
      "inputs": [
        {
          "name": "_set",
          "type": "address"
        },
        {
          "name": "_quantity",
          "type": "uint256"
        }
      ],
      "name": "redeem",
      "outputs": [],
      "payable": false,
      "stateMutability": "nonpayable",
      "type": "function"
    },
    {
      "constant": false,
      "inputs": [
        {
          "name": "_set",
          "type": "address"
        },
        {
          "name": "_quantity",
          "type": "uint256"
        },
        {
          "name": "_toExclude",
          "type": "uint256"
        }
      ],
      "name": "redeemAndWithdraw",
      "outputs": [],
      "payable": false,
      "stateMutability": "nonpayable",
      "type": "function"
    },
    {
      "constant": false,
      "inputs": [
        {
          "name": "_set",
          "type": "address"
        },
        {
          "name": "_quantity",
          "type": "uint256"
        }
      ],
      "name": "redeemInVault",
      "outputs": [],
      "payable": false,
      "stateMutability": "nonpayable",
      "type": "function"
    }
  ],
  "bytecode": "0x60806040526009805460ff1916905534801561001a57600080fd5b506118998061002a6000396000f3006080604052600436106100b65763ffffffff60e060020a6000350416630e4355d481146100bb5780631e912bd6146100f05780631e9a69501461011a578063559ed339146101405780636e667db3146101a5578063867904b4146101d6578063a003e069146101fa578063a782132c14610215578063ac842c6614610239578063c19d93fb14610260578063f7213db61461029b578063fbfa77cf146102b3578063fe5b38e4146102c8578063fef3ee73146102dd575b600080fd5b3480156100c757600080fd5b506100dc600160a060020a03600435166102fe565b604080519115158252519081900360200190f35b3480156100fc57600080fd5b5061010860043561031c565b60408051918252519081900360200190f35b34801561012657600080fd5b5061013e600160a060020a036004351660243561032e565b005b34801561014c57600080fd5b50610155610364565b60408051602080825283518183015283519192839290830191858101910280838360005b83811015610191578181015183820152602001610179565b505050509050019250505060405180910390f35b3480156101b157600080fd5b506101ba6103c9565b60408051600160a060020a039092168252519081900360200190f35b3480156101e257600080fd5b5061013e600160a060020a03600435166024356103d8565b34801561020657600080fd5b506101ba60ff600435166104a6565b34801561022157600080fd5b5061013e600160a060020a03600435166024356104c4565b34801561024557600080fd5b5061013e600160a060020a0360043516602435604435610585565b34801561026c57600080fd5b50610275610b21565b60408051600160a060020a03938416815291909216602082015281519081900390910190f35b3480156102a757600080fd5b50610108600435610b37565b3480156102bf57600080fd5b506101ba610b49565b3480156102d457600080fd5b50610155610b58565b3480156102e957600080fd5b506100dc600160a060020a0360043516610bbb565b600160a060020a031660009081526003602052604090205460ff1690565b60009081526008602052604090205490565b60095460ff161561033e57600080fd5b6009805460ff19166001179055610356338383610bd9565b50506009805460ff19169055565b606060006006018054806020026020016040519081016040528092919081815260200182805480156103bf57602002820191906000526020600020905b8154600160a060020a031681526001909101906020018083116103a1575b5050505050905090565b600154600160a060020a031690565b60095460ff16156103e857600080fd5b6009805460ff19166001179055600160a060020a03821660009081526005602052604090205460ff16151561041c57600080fd5b81600160a060020a03166342a7cfd56040518163ffffffff1660e060020a028152600401602060405180830381600087803b15801561045a57600080fd5b505af115801561046e573d6000803e3d6000fd5b505050506040513d602081101561048457600080fd5b50518181151561049057fe5b061561049b57600080fd5b6103563383836110b8565b60ff16600090815260208190526040902054600160a060020a031690565b60095460ff16156104d457600080fd5b6009805460ff19166001179055600254604080517f80ddda30000000000000000000000000000000000000000000000000000000008152600160a060020a03858116600483015233602483015260448201859052915191909216916380ddda3091606480830192600092919082900301818387803b15801561055557600080fd5b505af1158015610569573d6000803e3d6000fd5b50506002546103569250600160a060020a031690508383610bd9565b60095460009081908190606090819083908190819060ff16156105a757600080fd5b6009805460ff19166001179055600254600160a060020a03808d166000908152600560205260409020548d9a509116975060ff1615156105e657600080fd5b87600160a060020a03166342a7cfd56040518163ffffffff1660e060020a028152600401602060405180830381600087803b15801561062457600080fd5b505af1158015610638573d6000803e3d6000fd5b505050506040513d602081101561064e57600080fd5b50518a81151561065a57fe5b061561066557600080fd5b604080517f9dc29fac000000000000000000000000000000000000000000000000000000008152336004820152602481018c90529051600160a060020a038a1691639dc29fac91604480830192600092919082900301818387803b1580156106cc57600080fd5b505af11580156106e0573d6000803e3d6000fd5b5050505087600160a060020a03166342a7cfd56040518163ffffffff1660e060020a028152600401602060405180830381600087803b15801561072257600080fd5b505af1158015610736573d6000803e3d6000fd5b505050506040513d602081101561074c57600080fd5b5051604080517f99d50d5d0000000000000000000000000000000000000000000000000000000081529051919750600160a060020a038a16916399d50d5d9160048082019260009290919082900301818387803b1580156107ac57600080fd5b505af11580156107c0573d6000803e3d6000fd5b505050506040513d6000823e601f3d908101601f1916820160405260208110156107e957600080fd5b81019080805164010000000081111561080157600080fd5b8201602081018481111561081457600080fd5b815185602082028301116401000000008211171561083157600080fd5b5050929190505050945087600160a060020a031663027aa9f56040518163ffffffff1660e060020a028152600401600060405180830381600087803b15801561087957600080fd5b505af115801561088d573d6000803e3d6000fd5b505050506040513d6000823e601f3d908101601f1916820160405260208110156108b657600080fd5b8101908080516401000000008111156108ce57600080fd5b820160208101848111156108e157600080fd5b81518560208202830111640100000000821117156108fe57600080fd5b5090975060009650505050505b8451831015610b0a57610936848481518110151561092557fe5b90602001906020020151878c6117ee565b915086600160a060020a03166380ddda30868581518110151561095557fe5b602090810290910101516040805160e060020a63ffffffff8516028152600160a060020a039283166004820152918f1660248301526044820186905251606480830192600092919082900301818387803b1580156109b257600080fd5b505af11580156109c6573d6000803e3d6000fd5b505050600284900a91505088811615610a6e5786600160a060020a031663bada572686858151811015156109f657fe5b602090810290910101516040805160e060020a63ffffffff8516028152600160a060020a0390921660048301523360248301526044820186905251606480830192600092919082900301818387803b158015610a5157600080fd5b505af1158015610a65573d6000803e3d6000fd5b50505050610aff565b86600160a060020a031663c3b35a7e8685815181101515610a8b57fe5b602090810290910101516040805160e060020a63ffffffff8516028152600160a060020a0390921660048301523360248301526044820186905251606480830192600092919082900301818387803b158015610ae657600080fd5b505af1158015610afa573d6000803e3d6000fd5b505050505b60019092019161090b565b50506009805460ff19169055505050505050505050565b600154600254600160a060020a03918216911682565b60009081526007602052604090205490565b600254600160a060020a031690565b606060006004018054806020026020016040519081016040528092919081815260200182805480156103bf57602002820191906000526020600020908154600160a060020a031681526001909101906020018083116103a1575050505050905090565b600160a060020a031660009081526005602052604090205460ff1690565b600254600160a060020a0380841660009081526005602052604081205485939290921691606090819083908190819060ff161515610c1657600080fd5b87600160a060020a03166342a7cfd56040518163ffffffff1660e060020a028152600401602060405180830381600087803b158015610c5457600080fd5b505af1158015610c68573d6000803e3d6000fd5b505050506040513d6020811015610c7e57600080fd5b505189811515610c8a57fe5b0615610c9557600080fd5b87600160a060020a0316639dc29fac8c8b6040518363ffffffff1660e060020a0281526004018083600160a060020a0316600160a060020a0316815260200182815260200192505050600060405180830381600087803b158015610cf857600080fd5b505af1158015610d0c573d6000803e3d6000fd5b5050505087600160a060020a03166342a7cfd56040518163ffffffff1660e060020a028152600401602060405180830381600087803b158015610d4e57600080fd5b505af1158015610d62573d6000803e3d6000fd5b505050506040513d6020811015610d7857600080fd5b5051604080517f99d50d5d0000000000000000000000000000000000000000000000000000000081529051919750600160a060020a038a16916399d50d5d9160048082019260009290919082900301818387803b158015610dd857600080fd5b505af1158015610dec573d6000803e3d6000fd5b505050506040513d6000823e601f3d908101601f191682016040526020811015610e1557600080fd5b810190808051640100000000811115610e2d57600080fd5b82016020810184811115610e4057600080fd5b8151856020820283011164010000000082111715610e5d57600080fd5b5050929190505050945087600160a060020a031663027aa9f56040518163ffffffff1660e060020a028152600401600060405180830381600087803b158015610ea557600080fd5b505af1158015610eb9573d6000803e3d6000fd5b505050506040513d6000823e601f3d908101601f191682016040526020811015610ee257600080fd5b810190808051640100000000811115610efa57600080fd5b82016020810184811115610f0d57600080fd5b8151856020820283011164010000000082111715610f2a57600080fd5b5090975060009650505050505b84518361ffff1610156110ab57848361ffff16815181101515610f5657fe5b906020019060200201519150610f88848461ffff16815181101515610f7757fe5b90602001906020020151878b6117ee565b604080517f80ddda30000000000000000000000000000000000000000000000000000000008152600160a060020a0385811660048301528d81166024830152604482018490529151929350908916916380ddda309160648082019260009290919082900301818387803b158015610ffe57600080fd5b505af1158015611012573d6000803e3d6000fd5b5050604080517fbada5726000000000000000000000000000000000000000000000000000000008152600160a060020a038681166004830152336024830152604482018690529151918b16935063bada5726925060648082019260009290919082900301818387803b15801561108757600080fd5b505af115801561109b573d6000803e3d6000fd5b505060019094019350610f379050565b5050505050505050505050565b60008060006060806000806000808a9850600060020160009054906101000a9004600160a060020a0316975088600160a060020a03166342a7cfd56040518163ffffffff1660e060020a028152600401602060405180830381600087803b15801561112257600080fd5b505af1158015611136573d6000803e3d6000fd5b505050506040513d602081101561114c57600080fd5b5051604080517f99d50d5d0000000000000000000000000000000000000000000000000000000081529051919850600160a060020a038b16916399d50d5d9160048082019260009290919082900301818387803b1580156111ac57600080fd5b505af11580156111c0573d6000803e3d6000fd5b505050506040513d6000823e601f3d908101601f1916820160405260208110156111e957600080fd5b81019080805164010000000081111561120157600080fd5b8201602081018481111561121457600080fd5b815185602082028301116401000000008211171561123157600080fd5b5050929190505050955088600160a060020a031663027aa9f56040518163ffffffff1660e060020a028152600401600060405180830381600087803b15801561127957600080fd5b505af115801561128d573d6000803e3d6000fd5b505050506040513d6000823e601f3d908101601f1916820160405260208110156112b657600080fd5b8101908080516401000000008111156112ce57600080fd5b820160208101848111156112e157600080fd5b81518560208202830111640100000000821117156112fe57600080fd5b5090985060009750505050505b855184101561176557611336858581518110151561132557fe5b90602001906020020151888c6117ee565b925087600160a060020a0316631f98ade3878681518110151561135557fe5b906020019060200201518e6040518363ffffffff1660e060020a0281526004018083600160a060020a0316600160a060020a0316815260200182600160a060020a0316600160a060020a0316815260200192505050602060405180830381600087803b1580156113c457600080fd5b505af11580156113d8573d6000803e3d6000fd5b505050506040513d60208110156113ee57600080fd5b505191508282106114aa5787600160a060020a03166380ddda30878681518110151561141657fe5b906020019060200201518e866040518463ffffffff1660e060020a0281526004018084600160a060020a0316600160a060020a0316815260200183600160a060020a0316600160a060020a031681526020018281526020019350505050600060405180830381600087803b15801561148d57600080fd5b505af11580156114a1573d6000803e3d6000fd5b505050506116c7565b60008211156115605787600160a060020a03166380ddda3087868151811015156114d057fe5b906020019060200201518e856040518463ffffffff1660e060020a0281526004018084600160a060020a0316600160a060020a0316815260200183600160a060020a0316600160a060020a031681526020018281526020019350505050600060405180830381600087803b15801561154757600080fd5b505af115801561155b573d6000803e3d6000fd5b505050505b611570838363ffffffff61181816565b6001548751919250600160a060020a03169063a6c4e4679088908790811061159457fe5b602090810290910101516115ae868663ffffffff61181816565b8f600060020160009054906101000a9004600160a060020a03166040518563ffffffff1660e060020a0281526004018085600160a060020a0316600160a060020a0316815260200184815260200183600160a060020a0316600160a060020a0316815260200182600160a060020a0316600160a060020a03168152602001945050505050600060405180830381600087803b15801561164c57600080fd5b505af1158015611660573d6000803e3d6000fd5b50505050858481518110151561167257fe5b90602001906020020151600160a060020a03168b600160a060020a03167fced8518610cf00c97309551834addd978c595341eda2066dbd52f9e990489573836040518082815260200191505060405180910390a35b87600160a060020a031663bada572687868151811015156116e457fe5b602090810290910101516040805160e060020a63ffffffff8516028152600160a060020a039283166004820152918f1660248301526044820187905251606480830192600092919082900301818387803b15801561174157600080fd5b505af1158015611755573d6000803e3d6000fd5b50506001909501945061130b9050565b88600160a060020a03166340c10f198d8c6040518363ffffffff1660e060020a0281526004018083600160a060020a0316600160a060020a0316815260200182815260200192505050600060405180830381600087803b1580156117c857600080fd5b505af11580156117dc573d6000803e3d6000fd5b50505050505050505050505050505050565b600061181083611804848763ffffffff61182f16565b9063ffffffff61185816565b949350505050565b60008282111561182457fe5b508082035b92915050565b600082151561184057506000611829565b5081810281838281151561185057fe5b041461182957fe5b6000818381151561186557fe5b0493925050505600a165627a7a7230582070f4d9381ffaaf332be55b9ae4cba66047e7b9df07b6c063873d4353ccb248580029",
  "source": "/*\n    Copyright 2018 Set Labs Inc.\n\n    Licensed under the Apache License, Version 2.0 (the \"License\");\n    you may not use this file except in compliance with the License.\n    You may obtain a copy of the License at\n\n    http://www.apache.org/licenses/LICENSE-2.0\n\n    Unless required by applicable law or agreed to in writing, software\n    distributed under the License is distributed on an \"AS IS\" BASIS,\n    WITHOUT WARRANTIES OR CONDITIONS OF ANY KIND, either express or implied.\n    See the License for the specific language governing permissions and\n    limitations under the License.\n*/\n\npragma solidity 0.4.24;\n\nimport { ReentrancyGuard } from \"zeppelin-solidity/contracts/ReentrancyGuard.sol\";\nimport { SafeMath } from \"zeppelin-solidity/contracts/math/SafeMath.sol\";\nimport { CoreState } from \"../lib/CoreState.sol\";\nimport { ISetToken } from \"../interfaces/ISetToken.sol\";\nimport { ITransferProxy } from \"../interfaces/ITransferProxy.sol\";\nimport { IVault } from \"../interfaces/IVault.sol\";\n\n\n/**\n * @title Core Issuance\n * @author Set Protocol\n *\n * The CoreIssuance contract contains function related to issuing and\n * redeeming Sets.\n */\ncontract CoreIssuance is\n    CoreState,\n    ReentrancyGuard\n{\n    // Use SafeMath library for all uint256 arithmetic\n    using SafeMath for uint256;\n\n    /* ============ Events ============ */\n\n    event IssuanceComponentDeposited(\n        address indexed _setToken,\n        address indexed _component,\n        uint256 _quantity\n    );\n\n    /* ============ External Functions ============ */\n\n    /**\n     * Exchanges components for Set Tokens\n     *\n     * @param  _set          Address of set to issue\n     * @param  _quantity     Quantity of set to issue\n     */\n    function issue(\n        address _set,\n        uint256 _quantity\n    )\n        external\n        nonReentrant\n    {\n        // Verify Set was created by Core and is enabled\n        require(state.validSets[_set]);\n\n        // Validate quantity is multiple of natural unit\n        require(_quantity % ISetToken(_set).naturalUnit() == 0);\n\n        // Run issueInternal\n        issueInternal(\n            msg.sender,\n            _set,\n            _quantity\n        );\n    }\n\n    /**\n     * Function to convert Set Tokens into underlying components\n     *\n     * @param _set          The address of the Set token\n     * @param _quantity     The number of tokens to redeem\n     */\n    function redeem(\n        address _set,\n        uint256 _quantity\n    )\n        external\n        nonReentrant\n    {\n        redeemInternal(\n            msg.sender,\n            _set,\n            _quantity\n        );\n    }\n\n    /**\n     * Composite method to redeem and withdraw with a single transaction\n     *\n     * Normally, you should expect to be able to withdraw all of the tokens.\n     * However, some have central abilities to freeze transfers (e.g. EOS). _toExclude\n     * allows you to optionally specify which component tokens to exclude when\n     * redeeming. They will remain in the vault under the users' addresses.\n     *\n     * @param _set          The address of the Set token\n     * @param _quantity     The number of tokens to redeem\n     * @param _toExclude    Mask of indexes of tokens to exclude from withdrawing\n     */\n    function redeemAndWithdraw(\n        address _set,\n        uint256 _quantity,\n        uint256 _toExclude\n    )\n        external\n        nonReentrant\n    {\n        // Declare interface variables\n        ISetToken setToken = ISetToken(_set);\n        IVault vault = IVault(state.vault);\n\n        // Verify Set was created by Core and is enabled\n        require(state.validSets[_set]);\n\n        // Validate quantity is multiple of natural unit\n        require(_quantity % setToken.naturalUnit() == 0);\n\n        // Burn the Set token (thereby decrementing the SetToken balance)\n        setToken.burn(msg.sender, _quantity);\n\n        // Fetch Set token properties\n        uint256 naturalUnit = setToken.naturalUnit();\n        address[] memory components = setToken.getComponents();\n        uint256[] memory units = setToken.getUnits();\n\n        // Loop through and decrement vault balances for the set, withdrawing if requested\n        for (uint256 i = 0; i < components.length; i++) {\n            // Calculate quantity to transfer\n            uint256 componentQuantity = calculateTransferValue(\n                units[i],\n                naturalUnit,\n                _quantity\n            );\n\n            // Decrement the component amount owned by the Set\n            vault.decrementTokenOwner(\n                components[i],\n                _set,\n                componentQuantity\n            );\n\n            // Calculate bit index of current component\n            uint256 componentBitIndex = 2 ** i;\n\n            // Transfer to user unless component index is included in _toExclude\n            if ((_toExclude & componentBitIndex) != 0) {\n                // Just increment vault balance for user for component\n                vault.incrementTokenOwner(\n                    components[i],\n                    msg.sender,\n                    componentQuantity\n                );\n            } else {\n                // Call Vault to withdraw tokens from Vault to user\n                vault.withdrawTo(\n                    components[i],\n                    msg.sender,\n                    componentQuantity\n                );\n            }\n        }\n    }\n\n    /**\n     * Function to convert Set Tokens held in the vault into underlying components in vault\n     *\n     * @param _set          The address of the Set token\n     * @param _quantity     The number of tokens to redeem\n     */\n    function redeemInVault(\n        address _set,\n        uint _quantity\n    )\n        external\n        nonReentrant\n    {\n        // Decrement ownership of Set token in the vault\n        IVault(state.vault).decrementTokenOwner(\n            _set,\n            msg.sender,\n            _quantity\n        );\n\n        redeemInternal(\n            state.vault,\n            _set,\n            _quantity\n        );\n    }\n\n    /* ============ Internal Functions ============ */\n\n    /**\n     * Exchanges components for Set Tokens, accepting any owner\n     *\n     * @param  _owner        Address to issue set to\n     * @param  _set          Address of set to issue\n     * @param  _quantity     Quantity of set to issue\n     */\n    function issueInternal(\n        address _owner,\n        address _set,\n        uint256 _quantity\n    )\n        internal\n    {\n        // Declare interface variables\n        ISetToken setToken = ISetToken(_set);\n        IVault vault = IVault(state.vault);\n\n        // Fetch set token properties\n        uint256 naturalUnit = setToken.naturalUnit();\n        address[] memory components = setToken.getComponents();\n        uint256[] memory units = setToken.getUnits();\n\n        // Inspect vault for required component quantity\n        for (uint256 i = 0; i < components.length; i++) {\n\n            // Calculate required component quantity\n            uint256 requiredComponentQuantity = calculateTransferValue(\n                units[i],\n                naturalUnit,\n                _quantity\n            );\n\n            // Fetch component quantity in vault\n            uint256 vaultBalance = vault.getOwnerBalance(\n                components[i],\n                _owner\n            );\n\n            if (vaultBalance >= requiredComponentQuantity) {\n                // Decrement vault balance by the required component quantity\n                vault.decrementTokenOwner(\n                    components[i],\n                    _owner,\n                    requiredComponentQuantity\n                );\n            } else {\n                // User has less than required amount, decrement the vault by full balance\n                if (vaultBalance > 0) {\n                    vault.decrementTokenOwner(\n                        components[i],\n                        _owner,\n                        vaultBalance\n                    );\n                }\n\n                // Calculate remainder to deposit\n                uint256 amountToDeposit = requiredComponentQuantity.sub(vaultBalance);\n\n                // Transfer the remainder component quantity required to vault\n                ITransferProxy(state.transferProxy).transfer(\n                    components[i],\n                    requiredComponentQuantity.sub(vaultBalance),\n                    _owner,\n                    state.vault\n                );\n\n                // Log transfer of component from issuer wallet\n                emit IssuanceComponentDeposited(\n                    _set,\n                    components[i],\n                    amountToDeposit\n                );\n            }\n\n            // Increment the vault balance of the set token for the component\n            vault.incrementTokenOwner(\n                components[i],\n                _set,\n                requiredComponentQuantity\n            );\n        }\n\n        // Issue set token\n        setToken.mint(\n            _owner,\n            _quantity\n        );\n    }\n\n    /**\n     * Function to convert Set Tokens into underlying components\n     *\n     * @param _burnAddress  The address to burn Set token from\n     * @param _set          The address of the Set token\n     * @param _quantity     The number of tokens to redeem\n     */\n    function redeemInternal(\n        address _burnAddress,\n        address _set,\n        uint _quantity\n    )\n        internal\n    {\n        // Declare interface variables\n        ISetToken setToken = ISetToken(_set);\n        IVault vault = IVault(state.vault);\n\n        // Verify Set was created by Core and is enabled\n        require(state.validSets[_set]);\n\n        // Validate quantity is multiple of natural unit\n        require(_quantity % setToken.naturalUnit() == 0);\n\n        // Burn the Set token (thereby decrementing the SetToken balance)\n        setToken.burn(_burnAddress, _quantity);\n\n        // Fetch Set token properties\n        uint naturalUnit = setToken.naturalUnit();\n        address[] memory components = setToken.getComponents();\n        uint[] memory units = setToken.getUnits();\n\n        // Transfer the underlying tokens to the corresponding token balances\n        for (uint16 i = 0; i < components.length; i++) {\n            address currentComponent = components[i];\n\n            // Calculate redeemable amount of tokens\n            uint tokenValue = calculateTransferValue(\n                units[i],\n                naturalUnit,\n                _quantity\n            );\n\n            // Decrement the Set amount\n            vault.decrementTokenOwner(\n                currentComponent,\n                _set,\n                tokenValue\n            );\n\n            // Increment the component amount\n            vault.incrementTokenOwner(\n                currentComponent,\n                msg.sender,\n                tokenValue\n            );\n        }\n    }\n\n    /**\n     * Function to calculate the transfer value of a component given quantity of Set\n     *\n     * @param _componentUnits   The units of the component token\n     * @param _naturalUnit      The natural unit of the Set token\n     * @param _quantity         The number of tokens being redeem\n     */\n    function calculateTransferValue(\n        uint256 _componentUnits,\n        uint256 _naturalUnit,\n        uint256 _quantity\n    )\n        pure\n        internal\n        returns (uint256)\n    {\n        return _quantity.mul(_componentUnits).div(_naturalUnit);\n    }\n}\n",
  "sourcePath": "/Users/justinkchen/workspace/set-protocol-contracts/contracts/core/extensions/CoreIssuance.sol",
  "compiler": {
    "name": "solc",
    "version": "0.4.24+commit.e67f0147.Emscripten.clang"
  },
  "schemaVersion": "2.0.0",
  "updatedAt": "2018-08-23T23:58:05.589Z"
}