{
  "contractName": "ERC20Wrapper",
  "abi": [
    {
      "constant": true,
      "inputs": [
        {
          "name": "_token",
          "type": "address"
        },
        {
          "name": "_owner",
          "type": "address"
        }
      ],
      "name": "balanceOf",
      "outputs": [
        {
          "name": "",
          "type": "uint256"
        }
      ],
      "payable": false,
      "stateMutability": "view",
      "type": "function"
    },
    {
      "constant": false,
      "inputs": [
        {
          "name": "_token",
          "type": "address"
        },
        {
          "name": "_to",
          "type": "address"
        },
        {
          "name": "_quantity",
          "type": "uint256"
        }
      ],
      "name": "transfer",
      "outputs": [],
      "payable": false,
      "stateMutability": "nonpayable",
      "type": "function"
    },
    {
      "constant": false,
      "inputs": [
        {
          "name": "_token",
          "type": "address"
        },
        {
          "name": "_from",
          "type": "address"
        },
        {
          "name": "_to",
          "type": "address"
        },
        {
          "name": "_quantity",
          "type": "uint256"
        }
      ],
      "name": "transferFrom",
      "outputs": [],
      "payable": false,
      "stateMutability": "nonpayable",
      "type": "function"
    }
  ],
  "bytecode": "0x610309610030600b82828239805160001a6073146000811461002057610022565bfe5b5030600052607381538281f30073000000000000000000000000000000000000000030146080604052600436106100545763ffffffff60e060020a60003504166315dacbea8114610059578063beabacc81461008b578063f7888aec146100b5575b600080fd5b81801561006557600080fd5b50610089600160a060020a03600435811690602435811690604435166064356100e1565b005b81801561009757600080fd5b50610089600160a060020a0360043581169060243516604435610185565b6100cf600160a060020a0360043581169060243516610218565b60408051918252519081900360200190f35b604080517f23b872dd000000000000000000000000000000000000000000000000000000008152600160a060020a0385811660048301528481166024830152604482018490529151918616916323b872dd9160648082019260009290919082900301818387803b15801561015457600080fd5b505af1158015610168573d6000803e3d6000fd5b505050506101746102a8565b151561017f57600080fd5b50505050565b82600160a060020a031663a9059cbb83836040518363ffffffff1660e060020a0281526004018083600160a060020a0316600160a060020a0316815260200182815260200192505050600060405180830381600087803b1580156101e857600080fd5b505af11580156101fc573d6000803e3d6000fd5b505050506102086102a8565b151561021357600080fd5b505050565b600082600160a060020a03166370a08231836040518263ffffffff1660e060020a0281526004018082600160a060020a0316600160a060020a03168152602001915050602060405180830381600087803b15801561027557600080fd5b505af1158015610289573d6000803e3d6000fd5b505050506040513d602081101561029f57600080fd5b50519392505050565b6000803d80156102bf57602081146102c8576102d4565b600191506102d4565b60206000803e60005191505b506001149190505600a165627a7a72305820fff9444616fc08c2a381c67ed3b92a65c9d51681bf323fbdba9d6165b7c364650029",
  "source": "/*\n    Copyright 2018 Set Labs Inc.\n\n    Licensed under the Apache License, Version 2.0 (the \"License\");\n    you may not use this file except in compliance with the License.\n    You may obtain a copy of the License at\n\n    http://www.apache.org/licenses/LICENSE-2.0\n\n    Unless required by applicable law or agreed to in writing, software\n    distributed under the License is distributed on an \"AS IS\" BASIS,\n    WITHOUT WARRANTIES OR CONDITIONS OF ANY KIND, either express or implied.\n    See the License for the specific language governing permissions and\n    limitations under the License.\n*/\n\npragma solidity 0.4.24;\n\nimport { CommonMath } from \"./CommonMath.sol\";\nimport { IERC20 } from \"./IERC20.sol\";\n\n\n/**\n * @title ERC20Wrapper\n * @author Set Protocol\n *\n * This library contains functions for interacting wtih ERC20 tokens, even those not fully compliant.\n * For all functions we will only accept tokens that return a null or true value, any other values will\n * cause the operation to revert.\n */\nlibrary ERC20Wrapper {\n\n    // ============ Internal Functions ============\n\n    /**\n     * Check balance owner's balance of ERC20 token\n     *\n     * @param  _token          The address of the ERC20 token\n     * @param  _owner          The owner who's balance is being checked\n     * @return  uint256        The _owner's amount of tokens\n     */\n    function balanceOf(\n        address _token,\n        address _owner\n    )\n        external\n        view\n        returns (uint256)\n    {\n        return IERC20(_token).balanceOf(_owner);\n    }\n\n    /**\n     * Checks spender's allowance to use token's on owner's behalf.\n     *\n     * @param  _token          The address of the ERC20 token\n     * @param  _owner          The token owner address\n     * @param  _spender        The address the allowance is being checked on\n     * @return  uint256        The spender's allowance on behalf of owner\n     */\n    function allowance(\n        address _token,\n        address _owner,\n        address _spender\n    )\n        internal\n        view\n        returns (uint256)\n    {\n        return IERC20(_token).allowance(_owner, _spender);\n    }\n\n    /**\n     * Transfers tokens from an address. Handle's tokens that return true or null.\n     * If other value returned, reverts.\n     *\n     * @param  _token          The address of the ERC20 token\n     * @param  _to             The address to transfer to\n     * @param  _quantity       The amount of tokens to transfer\n     */\n    function transfer(\n        address _token,\n        address _to,\n        uint256 _quantity\n    )\n        external\n    {\n        IERC20(_token).transfer(_to, _quantity);\n\n        // Check that transfer returns true or null\n        require(checkSuccess());\n    }\n\n    /**\n     * Transfers tokens from an address (that has set allowance on the proxy).\n     * Handle's tokens that return true or null. If other value returned, reverts.\n     *\n     * @param  _token          The address of the ERC20 token\n     * @param  _from           The address to transfer from\n     * @param  _to             The address to transfer to\n     * @param  _quantity       The number of tokens to transfer\n     */\n    function transferFrom(\n        address _token,\n        address _from,\n        address _to,\n        uint256 _quantity\n    )\n        external\n    {\n        IERC20(_token).transferFrom(_from, _to, _quantity);\n\n        // Check that transferFrom returns true or null\n        require(checkSuccess());\n    }\n\n    /**\n     * Grants spender ability to spend on owner's behalf.\n     * Handle's tokens that return true or null. If other value returned, reverts.\n     *\n     * @param  _token          The address of the ERC20 token\n     * @param  _spender        The address to approve for transfer\n     * @param  _quantity       The amount of tokens to approve spender for\n     */\n    function approve(\n        address _token,\n        address _spender,\n        uint256 _quantity\n    )\n        internal\n    {\n        IERC20(_token).approve(_spender, _quantity);\n\n        // Check that approve returns true or null\n        require(checkSuccess());\n    }\n\n    /**\n     * Ensure's the owner has granted enough allowance for system to\n     * transfer tokens.\n     *\n     * @param  _token          The address of the ERC20 token\n     * @param  _owner          The address of the token owner\n     * @param  _spender        The address to grant/check allowance for\n     * @param  _quantity       The amount to see if allowed for\n     */\n    function ensureAllowance(\n        address _token,\n        address _owner,\n        address _spender,\n        uint256 _quantity\n    )\n        internal\n    {\n        uint256 currentAllowance = allowance(_token, _owner, _spender);\n        if (currentAllowance < _quantity) {\n            approve(\n                _token,\n                _spender,\n                CommonMath.maxUInt256()\n            );\n        }\n    }\n\n    // ============ Private Functions ============\n\n    /**\n     * Checks the return value of the previous function up to 32 bytes. Returns true if the previous\n     * function returned 0 bytes or 1.\n     */\n    function checkSuccess(\n    )\n        private\n        pure\n        returns (bool)\n    {\n        // default to failure\n        uint256 returnValue = 0;\n\n        assembly {\n            // check number of bytes returned from last function call\n            switch returndatasize\n\n            // no bytes returned: assume success\n            case 0x0 {\n                returnValue := 1\n            }\n\n            // 32 bytes returned\n            case 0x20 {\n                // copy 32 bytes into scratch space\n                returndatacopy(0x0, 0x0, 0x20)\n\n                // load those bytes into returnValue\n                returnValue := mload(0x0)\n            }\n\n            // not sure what was returned: dont mark as success\n            default { }\n        }\n\n        // check if returned value is one or nothing\n        return returnValue == 1;\n    }\n}\n",
  "sourcePath": "/Users/justinkchen/workspace/set-protocol-contracts/contracts/lib/ERC20Wrapper.sol",
  "compiler": {
    "name": "solc",
    "version": "0.4.24+commit.e67f0147.Emscripten.clang"
  },
  "schemaVersion": "2.0.0",
  "updatedAt": "2018-08-23T23:58:07.492Z"
}