{
  "contractName": "ERC20WrapperMock",
  "abi": [
    {
      "constant": false,
      "inputs": [
        {
          "name": "_token",
          "type": "address"
        },
        {
          "name": "_owner",
          "type": "address"
        },
        {
          "name": "_spender",
          "type": "address"
        }
      ],
      "name": "allowance",
      "outputs": [
        {
          "name": "",
          "type": "uint256"
        }
      ],
      "payable": false,
      "stateMutability": "nonpayable",
      "type": "function"
    },
    {
      "constant": false,
      "inputs": [
        {
          "name": "_token",
          "type": "address"
        },
        {
          "name": "_spender",
          "type": "address"
        },
        {
          "name": "_quantity",
          "type": "uint256"
        }
      ],
      "name": "approve",
      "outputs": [],
      "payable": false,
      "stateMutability": "nonpayable",
      "type": "function"
    },
    {
      "constant": false,
      "inputs": [
        {
          "name": "_token",
          "type": "address"
        },
        {
          "name": "_owner",
          "type": "address"
        },
        {
          "name": "_spender",
          "type": "address"
        },
        {
          "name": "_quantity",
          "type": "uint256"
        }
      ],
      "name": "ensureAllowance",
      "outputs": [],
      "payable": false,
      "stateMutability": "nonpayable",
      "type": "function"
    }
  ],
  "bytecode": "0x608060405234801561001057600080fd5b50610637806100206000396000f3006080604052600436106100565763ffffffff7c01000000000000000000000000000000000000000000000000000000006000350416630f1bd38c811461005b578063927da1051461007d578063e1f21c67146100b3575b600080fd5b34801561006757600080fd5b5061007b610076366004610412565b6100d3565b005b34801561008957600080fd5b5061009d6100983660046103c5565b6100e5565b6040516100aa919061058e565b60405180910390f35b3480156100bf57600080fd5b5061007b6100ce366004610473565b6100fc565b6100df8484848461010c565b50505050565b60006100f284848461013c565b90505b9392505050565b6101078383836101e5565b505050565b600061011985858561013c565b90508181101561013557610135858461013061035a565b6101e5565b5050505050565b6040517fdd62ed3e00000000000000000000000000000000000000000000000000000000815260009073ffffffffffffffffffffffffffffffffffffffff85169063dd62ed3e906101939086908690600401610547565b602060405180830381600087803b1580156101ad57600080fd5b505af11580156101c1573d6000803e3d6000fd5b505050506040513d601f19601f820116820180604052506100f291908101906104dc565b6040517f095ea7b300000000000000000000000000000000000000000000000000000000815273ffffffffffffffffffffffffffffffffffffffff84169063095ea7b3906102399085908590600401610562565b602060405180830381600087803b15801561025357600080fd5b505af1158015610267573d6000803e3d6000fd5b505050506040513d601f19601f8201168201806040525061028b91908101906104b6565b50610294610360565b608060405190810160405280604281526020017f417070726f76656420746f6b656e20646f6573206e6f742072657475726e206e81526020017f756c6c206f722074727565206f6e207375636365737366756c20617070726f7681526020017f652e0000000000000000000000000000000000000000000000000000000000008152509015156100df576040517f08c379a0000000000000000000000000000000000000000000000000000000008152600401610351919061057d565b60405180910390fd5b60001990565b6000803d801561037757602081146103805761038c565b6001915061038c565b60206000803e60005191505b50600114919050565b60006100f582356105a6565b60006100f582516105c2565b60006100f582356105bf565b60006100f582516105bf565b6000806000606084860312156103da57600080fd5b60006103e68686610395565b93505060206103f786828701610395565b925050604061040886828701610395565b9150509250925092565b6000806000806080858703121561042857600080fd5b60006104348787610395565b945050602061044587828801610395565b935050604061045687828801610395565b9250506060610467878288016103ad565b91505092959194509250565b60008060006060848603121561048857600080fd5b60006104948686610395565b93505060206104a586828701610395565b9250506040610408868287016103ad565b6000602082840312156104c857600080fd5b60006104d484846103a1565b949350505050565b6000602082840312156104ee57600080fd5b60006104d484846103b9565b610503816105a6565b82525050565b6000610514826105a2565b8084526105288160208601602086016105c7565b610531816105f3565b9093016020019392505050565b610503816105bf565b6040810161055582856104fa565b6100f560208301846104fa565b6040810161057082856104fa565b6100f5602083018461053e565b602080825281016100f58184610509565b6020810161059c828461053e565b92915050565b5190565b73ffffffffffffffffffffffffffffffffffffffff1690565b90565b151590565b60005b838110156105e25781810151838201526020016105ca565b838111156100df5750506000910152565b601f01601f1916905600a265627a7a72305820a099f21c5d7da684b3a078a52387fe85e98ab188ec919b2f295f85cc87ca3dbb6c6578706572696d656e74616cf50037",
  "source": "pragma solidity 0.4.24;\npragma experimental \"ABIEncoderV2\";\n\nimport { ERC20Wrapper } from \"../../lib/ERC20Wrapper.sol\";\n\n// Mock contract implementation of OrderLibrary functions\ncontract ERC20WrapperMock {\n    function allowance(\n        address _token,\n        address _owner,\n        address _spender\n    )\n        public\n        returns (uint256)\n    {\n        return ERC20Wrapper.allowance(_token, _owner, _spender);\n    }\n\n    function approve(\n        address _token,\n        address _spender,\n        uint256 _quantity\n    )\n        public\n    {\n        ERC20Wrapper.approve(_token, _spender, _quantity);\n    }\n\n    function ensureAllowance(\n        address _token,\n        address _owner,\n        address _spender,\n        uint256 _quantity\n    )\n        public\n    {\n        ERC20Wrapper.ensureAllowance(_token, _owner, _spender, _quantity);\n    }\n}\n",
  "sourcePath": "/Users/justinkchen/workspace/set-protocol-contracts/contracts/mocks/lib/ERC20WrapperMock.sol",
  "compiler": {
    "name": "solc",
    "version": "0.4.24+commit.e67f0147.Emscripten.clang"
  },
  "schemaVersion": "2.0.0",
  "updatedAt": "2018-07-27T04:20:39.845Z"
}