{
  "contractName": "ERC20WrapperMock",
  "abi": [
    {
      "constant": false,
      "inputs": [
        {
          "name": "_token",
          "type": "address"
        },
        {
          "name": "_owner",
          "type": "address"
        },
        {
          "name": "_spender",
          "type": "address"
        }
      ],
      "name": "allowance",
      "outputs": [
        {
          "name": "",
          "type": "uint256"
        }
      ],
      "payable": false,
      "stateMutability": "nonpayable",
      "type": "function"
    },
    {
      "constant": false,
      "inputs": [
        {
          "name": "_token",
          "type": "address"
        },
        {
          "name": "_spender",
          "type": "address"
        },
        {
          "name": "_quantity",
          "type": "uint256"
        }
      ],
      "name": "approve",
      "outputs": [],
      "payable": false,
      "stateMutability": "nonpayable",
      "type": "function"
    },
    {
      "constant": false,
      "inputs": [
        {
          "name": "_token",
          "type": "address"
        },
        {
          "name": "_owner",
          "type": "address"
        },
        {
          "name": "_spender",
          "type": "address"
        },
        {
          "name": "_quantity",
          "type": "uint256"
        }
      ],
      "name": "ensureAllowance",
      "outputs": [],
      "payable": false,
      "stateMutability": "nonpayable",
      "type": "function"
    }
  ],
  "bytecode": "0x608060405234801561001057600080fd5b506104fc806100206000396000f3006080604052600436106100565763ffffffff7c01000000000000000000000000000000000000000000000000000000006000350416630f1bd38c811461005b578063927da1051461007d578063e1f21c67146100b3575b600080fd5b34801561006757600080fd5b5061007b610076366004610357565b6100d3565b005b34801561008957600080fd5b5061009d61009836600461030a565b6100e5565b6040516100aa919061048d565b60405180910390f35b3480156100bf57600080fd5b5061007b6100ce3660046103b8565b6100fc565b6100df8484848461010c565b50505050565b60006100f284848461013c565b90505b9392505050565b6101078383836101e5565b505050565b600061011985858561013c565b90508181101561013557610135858461013061029f565b6101e5565b5050505050565b6040517fdd62ed3e00000000000000000000000000000000000000000000000000000000815260009073ffffffffffffffffffffffffffffffffffffffff85169063dd62ed3e906101939086908690600401610457565b602060405180830381600087803b1580156101ad57600080fd5b505af11580156101c1573d6000803e3d6000fd5b505050506040513d601f19601f820116820180604052506100f29190810190610421565b6040517f095ea7b300000000000000000000000000000000000000000000000000000000815273ffffffffffffffffffffffffffffffffffffffff84169063095ea7b3906102399085908590600401610472565b602060405180830381600087803b15801561025357600080fd5b505af1158015610267573d6000803e3d6000fd5b505050506040513d601f19601f8201168201806040525061028b91908101906103fb565b506102946102a5565b151561010757600080fd5b60001990565b6000803d80156102bc57602081146102c5576102d1565b600191506102d1565b60206000803e60005191505b50600114919050565b60006100f582356104a1565b60006100f582516104bd565b60006100f582356104ba565b60006100f582516104ba565b60008060006060848603121561031f57600080fd5b600061032b86866102da565b935050602061033c868287016102da565b925050604061034d868287016102da565b9150509250925092565b6000806000806080858703121561036d57600080fd5b600061037987876102da565b945050602061038a878288016102da565b935050604061039b878288016102da565b92505060606103ac878288016102f2565b91505092959194509250565b6000806000606084860312156103cd57600080fd5b60006103d986866102da565b93505060206103ea868287016102da565b925050604061034d868287016102f2565b60006020828403121561040d57600080fd5b600061041984846102e6565b949350505050565b60006020828403121561043357600080fd5b600061041984846102fe565b610448816104a1565b82525050565b610448816104ba565b60408101610465828561043f565b6100f5602083018461043f565b60408101610480828561043f565b6100f5602083018461044e565b6020810161049b828461044e565b92915050565b73ffffffffffffffffffffffffffffffffffffffff1690565b90565b1515905600a265627a7a723058207790aaa15ca7511808884c699bb4b9f4ed807b6355a0ccddb57cfee2409524c66c6578706572696d656e74616cf50037",
  "source": "pragma solidity 0.4.24;\npragma experimental \"ABIEncoderV2\";\n\nimport { ERC20Wrapper } from \"../../lib/ERC20Wrapper.sol\";\n\n// Mock contract implementation of OrderLibrary functions\ncontract ERC20WrapperMock {\n    function allowance(\n        address _token,\n        address _owner,\n        address _spender\n    )\n        public\n        returns (uint256)\n    {\n        return ERC20Wrapper.allowance(_token, _owner, _spender);\n    }\n\n    function approve(\n        address _token,\n        address _spender,\n        uint256 _quantity\n    )\n        public\n    {\n        ERC20Wrapper.approve(_token, _spender, _quantity);\n    }\n\n    function ensureAllowance(\n        address _token,\n        address _owner,\n        address _spender,\n        uint256 _quantity\n    )\n        public\n    {\n        ERC20Wrapper.ensureAllowance(_token, _owner, _spender, _quantity);\n    }\n}\n",
  "sourcePath": "/Users/justinkchen/workspace/set-protocol-contracts/contracts/mocks/lib/ERC20WrapperMock.sol",
  "compiler": {
    "name": "solc",
    "version": "0.4.24+commit.e67f0147.Emscripten.clang"
  },
  "schemaVersion": "2.0.0",
  "updatedAt": "2018-08-06T13:39:43.017Z"
}