{
  "contractName": "ERC20WrapperMock",
  "abi": [
    {
      "constant": false,
      "inputs": [
        {
          "name": "_token",
          "type": "address"
        },
        {
          "name": "_owner",
          "type": "address"
        },
        {
          "name": "_spender",
          "type": "address"
        }
      ],
      "name": "allowance",
      "outputs": [
        {
          "name": "",
          "type": "uint256"
        }
      ],
      "payable": false,
      "stateMutability": "nonpayable",
      "type": "function"
    },
    {
      "constant": false,
      "inputs": [
        {
          "name": "_token",
          "type": "address"
        },
        {
          "name": "_spender",
          "type": "address"
        },
        {
          "name": "_quantity",
          "type": "uint256"
        }
      ],
      "name": "approve",
      "outputs": [],
      "payable": false,
      "stateMutability": "nonpayable",
      "type": "function"
    }
  ],
  "bytecode": "0x608060405234801561001057600080fd5b50610587806100206000396000f30060806040526004361061004b5763ffffffff7c0100000000000000000000000000000000000000000000000000000000600035041663927da1058114610050578063e1f21c6714610086575b600080fd5b34801561005c57600080fd5b5061007061006b366004610358565b6100a8565b60405161007d91906104c0565b60405180910390f35b34801561009257600080fd5b506100a66100a13660046103a5565b6100bf565b005b60006100b58484846100cf565b90505b9392505050565b6100ca838383610178565b505050565b6040517fdd62ed3e00000000000000000000000000000000000000000000000000000000815260009073ffffffffffffffffffffffffffffffffffffffff85169063dd62ed3e906101269086908690600401610479565b602060405180830381600087803b15801561014057600080fd5b505af1158015610154573d6000803e3d6000fd5b505050506040513d601f19601f820116820180604052506100b5919081019061040e565b6040517f095ea7b300000000000000000000000000000000000000000000000000000000815273ffffffffffffffffffffffffffffffffffffffff84169063095ea7b3906101cc9085908590600401610494565b602060405180830381600087803b1580156101e657600080fd5b505af11580156101fa573d6000803e3d6000fd5b505050506040513d601f19601f8201168201806040525061021e91908101906103e8565b506102276102f3565b608060405190810160405280604281526020017f417070726f76656420746f6b656e20646f6573206e6f742072657475726e206e81526020017f756c6c206f722074727565206f6e207375636365737366756c20617070726f7681526020017f652e0000000000000000000000000000000000000000000000000000000000008152509015156102ed576040517f08c379a00000000000000000000000000000000000000000000000000000000081526004016102e491906104af565b60405180910390fd5b50505050565b6000803d801561030a57602081146103135761031f565b6001915061031f565b60206000803e60005191505b50600114919050565b60006100b882356104d8565b60006100b882516104f4565b60006100b882356104f1565b60006100b882516104f1565b60008060006060848603121561036d57600080fd5b60006103798686610328565b935050602061038a86828701610328565b925050604061039b86828701610328565b9150509250925092565b6000806000606084860312156103ba57600080fd5b60006103c68686610328565b93505060206103d786828701610328565b925050604061039b86828701610340565b6000602082840312156103fa57600080fd5b60006104068484610334565b949350505050565b60006020828403121561042057600080fd5b6000610406848461034c565b610435816104d8565b82525050565b6000610446826104d4565b80845261045a8160208601602086016104f9565b61046381610525565b9093016020019392505050565b610435816104f1565b60408101610487828561042c565b6100b8602083018461042c565b604081016104a2828561042c565b6100b86020830184610470565b602080825281016100b8818461043b565b602081016104ce8284610470565b92915050565b5190565b73ffffffffffffffffffffffffffffffffffffffff1690565b90565b151590565b60005b838110156105145781810151838201526020016104fc565b838111156102ed5750506000910152565b601f017fffffffffffffffffffffffffffffffffffffffffffffffffffffffffffffffe016905600a265627a7a723058207d8329d14ff26b441611371bcc75b2f25caeae5172ad4cb65cfcf1c6bca4deb16c6578706572696d656e74616cf50037",
  "source": "pragma solidity 0.4.24;\npragma experimental \"ABIEncoderV2\";\n\nimport { ERC20Wrapper } from \"../../lib/ERC20Wrapper.sol\";\n\n// Mock contract implementation of OrderLibrary functions\ncontract ERC20WrapperMock {\n    function allowance(\n        address _token,\n        address _owner,\n        address _spender\n    )\n        public\n        returns (uint256)\n    {\n        return ERC20Wrapper.allowance(_token, _owner, _spender);\n    }\n\n    function approve(\n        address _token,\n        address _spender,\n        uint256 _quantity\n    )\n        public\n    {\n        ERC20Wrapper.approve(_token, _spender, _quantity);\n    }\n}\n",
  "sourcePath": "/Users/inje/Documents/repos/set-protocol-contracts/contracts/mocks/lib/ERC20WrapperMock.sol",
  "compiler": {
    "name": "solc",
    "version": "0.4.24+commit.e67f0147.Emscripten.clang"
  },
  "schemaVersion": "2.0.0",
  "updatedAt": "2018-07-13T21:55:38.432Z"
}