{
  "contractName": "LibEIP712",
  "abi": [
    {
      "constant": true,
      "inputs": [],
      "name": "EIP712_DOMAIN_SEPARATOR_SCHEMA_HASH",
      "outputs": [
        {
          "name": "",
          "type": "bytes32"
        }
      ],
      "payable": false,
      "stateMutability": "view",
      "type": "function"
    },
    {
      "constant": true,
      "inputs": [],
      "name": "EIP712_DOMAIN_HASH",
      "outputs": [
        {
          "name": "",
          "type": "bytes32"
        }
      ],
      "payable": false,
      "stateMutability": "view",
      "type": "function"
    }
  ],
  "bytecode": "0x608060405234801561001057600080fd5b506101f4806100206000396000f30060806040526004361061004b5763ffffffff7c01000000000000000000000000000000000000000000000000000000006000350416632624b2d98114610050578063e306f77914610077575b600080fd5b34801561005c57600080fd5b5061006561008c565b60408051918252519081900360200190f35b34801561008357600080fd5b506100656101c2565b604080517f454950373132446f6d61696e28000000000000000000000000000000000000006020808301919091527f737472696e67206e616d652c0000000000000000000000000000000000000000602d8301527f737472696e672076657273696f6e2c000000000000000000000000000000000060398301527f6164647265737320766572696679696e67436f6e74726163740000000000000060488301527f2900000000000000000000000000000000000000000000000000000000000000606183015282516042818403018152606290920192839052815191929182918401908083835b602083106101925780518252601f199092019160209182019101610173565b6001836020036101000a038019825116818451168082178552505050505050905001915050604051809103902081565b600054815600a165627a7a723058208de653a7d4c51c2ee221daa09de6eda0f1fb52fcc87d38c4d4329572397351af0029",
  "source": "/*\n\n  Copyright 2018 ZeroEx Intl.\n\n  Licensed under the Apache License, Version 2.0 (the \"License\");\n  you may not use this file except in compliance with the License.\n  You may obtain a copy of the License at\n\n    http://www.apache.org/licenses/LICENSE-2.0\n\n  Unless required by applicable law or agreed to in writing, software\n  distributed under the License is distributed on an \"AS IS\" BASIS,\n  WITHOUT WARRANTIES OR CONDITIONS OF ANY KIND, either express or implied.\n  See the License for the specific language governing permissions and\n  limitations under the License.\n\n*/\n\npragma solidity ^0.4.24;\n\ncontract LibEIP712 {\n    // EIP191 header for EIP712 prefix\n    string constant EIP191_HEADER = \"\\x19\\x01\";\n\n    // EIP712 Domain Name value\n    string constant EIP712_DOMAIN_NAME = \"0x Protocol\";\n\n    // EIP712 Domain Version value\n    string constant EIP712_DOMAIN_VERSION = \"2\";\n\n    // Hash of the EIP712 Domain Separator Schema\n    bytes32 public constant EIP712_DOMAIN_SEPARATOR_SCHEMA_HASH = keccak256(abi.encodePacked(\n        \"EIP712Domain(\",\n        \"string name,\",\n        \"string version,\",\n        \"address verifyingContract\",\n        \")\"\n    ));\n\n    // Hash of the EIP712 Domain Separator data\n    bytes32 public EIP712_DOMAIN_HASH;\n}\n",
  "sourcePath": "/Users/justinkchen/workspace/set-protocol-contracts/contracts/external/0x/Exchange/libs/LibEIP712.sol",
  "compiler": {
    "name": "solc",
    "version": "0.4.24+commit.e67f0147.Emscripten.clang"
  },
  "schemaVersion": "2.0.0",
  "updatedAt": "2018-08-08T05:31:02.892Z"
}