{
  "contractName": "NoXferReturnTokenMock",
  "abi": [
    {
      "constant": true,
      "inputs": [],
      "name": "name",
      "outputs": [
        {
          "name": "",
          "type": "string"
        }
      ],
      "payable": false,
      "stateMutability": "view",
      "type": "function"
    },
    {
      "constant": true,
      "inputs": [],
      "name": "decimals",
      "outputs": [
        {
          "name": "",
          "type": "uint256"
        }
      ],
      "payable": false,
      "stateMutability": "view",
      "type": "function"
    },
    {
      "constant": true,
      "inputs": [],
      "name": "symbol",
      "outputs": [
        {
          "name": "",
          "type": "string"
        }
      ],
      "payable": false,
      "stateMutability": "view",
      "type": "function"
    },
    {
      "inputs": [
        {
          "name": "initialAccount",
          "type": "address"
        },
        {
          "name": "initialBalance",
          "type": "uint256"
        },
        {
          "name": "_name",
          "type": "string"
        },
        {
          "name": "_symbol",
          "type": "string"
        },
        {
          "name": "_decimals",
          "type": "uint256"
        }
      ],
      "payable": false,
      "stateMutability": "nonpayable",
      "type": "constructor"
    },
    {
      "constant": true,
      "inputs": [],
      "name": "totalSupply",
      "outputs": [
        {
          "name": "",
          "type": "uint256"
        }
      ],
      "payable": false,
      "stateMutability": "view",
      "type": "function"
    },
    {
      "constant": false,
      "inputs": [
        {
          "name": "_to",
          "type": "address"
        },
        {
          "name": "_value",
          "type": "uint256"
        }
      ],
      "name": "transfer",
      "outputs": [],
      "payable": false,
      "stateMutability": "nonpayable",
      "type": "function"
    },
    {
      "constant": true,
      "inputs": [
        {
          "name": "_owner",
          "type": "address"
        }
      ],
      "name": "balanceOf",
      "outputs": [
        {
          "name": "",
          "type": "uint256"
        }
      ],
      "payable": false,
      "stateMutability": "view",
      "type": "function"
    },
    {
      "constant": false,
      "inputs": [
        {
          "name": "_from",
          "type": "address"
        },
        {
          "name": "_to",
          "type": "address"
        },
        {
          "name": "_value",
          "type": "uint256"
        }
      ],
      "name": "transferFrom",
      "outputs": [],
      "payable": false,
      "stateMutability": "nonpayable",
      "type": "function"
    },
    {
      "constant": false,
      "inputs": [
        {
          "name": "_spender",
          "type": "address"
        },
        {
          "name": "_value",
          "type": "uint256"
        }
      ],
      "name": "approve",
      "outputs": [],
      "payable": false,
      "stateMutability": "nonpayable",
      "type": "function"
    }
  ],
  "bytecode": "0x608060405234801561001057600080fd5b506040516106ab3803806106ab83398101604090815281516020808401518385015160608601516080870151600160a060020a0386166000908152808652969096208390556005839055908601805194969295909491909201926100799160039186019061009b565b50815161008d90600490602085019061009b565b506002555061013692505050565b828054600181600116156101000203166002900490600052602060002090601f016020900481019282601f106100dc57805160ff1916838001178555610109565b82800160010185558215610109579182015b828111156101095782518255916020019190600101906100ee565b50610115929150610119565b5090565b61013391905b80821115610115576000815560010161011f565b90565b610566806101456000396000f30060806040526004361061008d5763ffffffff7c010000000000000000000000000000000000000000000000000000000060003504166306fdde038114610092578063095ea7b31461011c57806318160ddd1461014257806323b872dd14610169578063313ce5671461019357806370a08231146101a857806395d89b41146101c9578063a9059cbb146101de575b600080fd5b34801561009e57600080fd5b506100a7610202565b6040805160208082528351818301528351919283929083019185019080838360005b838110156100e15781810151838201526020016100c9565b50505050905090810190601f16801561010e5780820380516001836020036101000a031916815260200191505b509250505060405180910390f35b34801561012857600080fd5b50610140600160a060020a0360043516602435610290565b005b34801561014e57600080fd5b506101576102ba565b60408051918252519081900360200190f35b34801561017557600080fd5b50610140600160a060020a03600435811690602435166044356102c0565b34801561019f57600080fd5b506101576103f6565b3480156101b457600080fd5b50610157600160a060020a03600435166103fc565b3480156101d557600080fd5b506100a7610417565b3480156101ea57600080fd5b50610140600160a060020a0360043516602435610472565b6003805460408051602060026001851615610100026000190190941693909304601f810184900484028201840190925281815292918301828280156102885780601f1061025d57610100808354040283529160200191610288565b820191906000526020600020905b81548152906001019060200180831161026b57829003601f168201915b505050505081565b336000908152600160209081526040808320600160a060020a039590951683529390529190912055565b60055490565b600160a060020a03821615156102d557600080fd5b600160a060020a0383166000908152602081905260409020548111156102fa57600080fd5b600160a060020a038316600090815260016020908152604080832033845290915290205481111561032a57600080fd5b600160a060020a038316600090815260208190526040902054610353908263ffffffff61051516565b600160a060020a038085166000908152602081905260408082209390935590841681522054610388908263ffffffff61052716565b600160a060020a038084166000908152602081815260408083209490945591861681526001825282812033825290915220546103ca908263ffffffff61051516565b600160a060020a0390931660009081526001602090815260408083203384529091529020929092555050565b60025481565b600160a060020a031660009081526020819052604090205490565b6004805460408051602060026001851615610100026000190190941693909304601f810184900484028201840190925281815292918301828280156102885780601f1061025d57610100808354040283529160200191610288565b600160a060020a038216151561048757600080fd5b336000908152602081905260409020548111156104a357600080fd5b336000908152602081905260409020546104c3908263ffffffff61051516565b3360009081526020819052604080822092909255600160a060020a038416815220546104f5908263ffffffff61052716565b600160a060020a0390921660009081526020819052604090209190915550565b60008282111561052157fe5b50900390565b8181018281101561053457fe5b929150505600a165627a7a723058203520d72f40e0340730dd78eae076decea99df8e82a2fcd73c1127e87591edbe40029",
  "source": "pragma solidity 0.4.24;\n\nimport \"zeppelin-solidity/contracts/math/SafeMath.sol\";\n\n// mock class using BasicToken\ncontract NoXferReturnTokenMock {\n\n  using SafeMath for uint256;\n\n  mapping(address => uint256) balances;\n  mapping (address => mapping (address => uint256)) internal allowed;\n\n  uint256 public decimals;\n  string public name;\n  string public symbol;\n  uint256 public totalSupply;\n\n  constructor(\n    address initialAccount,\n    uint256 initialBalance,\n    string _name,\n    string _symbol,\n    uint256 _decimals)\n    public\n  {\n    balances[initialAccount] = initialBalance;\n    totalSupply = initialBalance;\n    name = _name;\n    symbol = _symbol;\n    decimals = _decimals;\n  }\n\n  /**\n  * @dev Total number of tokens in existence\n  */\n  function totalSupply() public view returns (uint256) {\n    return totalSupply;\n  }\n\n  /**\n  * @dev Transfer token for a specified address\n  * @param _to The address to transfer to.\n  * @param _value The amount to be transferred.\n  */\n  function transfer(address _to, uint256 _value) public {\n    require(_to != address(0));\n    require(_value <= balances[msg.sender]);\n\n    balances[msg.sender] = balances[msg.sender].sub(_value);\n    balances[_to] = balances[_to].add(_value);\n  }\n\n  /**\n  * @dev Gets the balance of the specified address.\n  * @param _owner The address to query the the balance of.\n  * @return An uint256 representing the amount owned by the passed address.\n  */\n  function balanceOf(address _owner) public view returns (uint256) {\n    return balances[_owner];\n  }\n\n  /**\n   * @dev Transfer tokens from one address to another\n   * @param _from address The address which you want to send tokens from\n   * @param _to address The address which you want to transfer to\n   * @param _value uint256 the amount of tokens to be transferred\n   */\n  function transferFrom(\n    address _from,\n    address _to,\n    uint256 _value\n  )\n    public\n  {\n    require(_to != address(0));\n    require(_value <= balances[_from]);\n    require(_value <= allowed[_from][msg.sender]);\n\n    balances[_from] = balances[_from].sub(_value);\n    balances[_to] = balances[_to].add(_value);\n    allowed[_from][msg.sender] = allowed[_from][msg.sender].sub(_value);\n  }\n\n  /**\n   * @dev Approve the passed address to spend the specified amount of tokens on behalf of msg.sender.\n   * Beware that changing an allowance with this method brings the risk that someone may use both the old\n   * and the new allowance by unfortunate transaction ordering. One possible solution to mitigate this\n   * race condition is to first reduce the spender's allowance to 0 and set the desired value afterwards:\n   * https://github.com/ethereum/EIPs/issues/20#issuecomment-263524729\n   * @param _spender The address which will spend the funds.\n   * @param _value The amount of tokens to be spent.\n   */\n  function approve(address _spender, uint256 _value) public {\n    allowed[msg.sender][_spender] = _value;\n  }\n}\n",
  "sourcePath": "/Users/justinkchen/workspace/set-protocol-contracts/contracts/mocks/tokens/NoXferReturnTokenMock.sol",
  "compiler": {
    "name": "solc",
    "version": "0.4.24+commit.e67f0147.Emscripten.clang"
  },
  "schemaVersion": "2.0.0",
  "updatedAt": "2018-07-27T04:20:39.849Z"
}