{
  "contractName": "OrderLibrary",
  "abi": [
    {
      "constant": true,
      "inputs": [
        {
          "name": "_orderHash",
          "type": "bytes32"
        },
        {
          "name": "_signerAddress",
          "type": "address"
        },
        {
          "name": "_v",
          "type": "uint8"
        },
        {
          "name": "_r",
          "type": "bytes32"
        },
        {
          "name": "_s",
          "type": "bytes32"
        }
      ],
      "name": "validateSignature",
      "outputs": [
        {
          "name": "",
          "type": "bool"
        }
      ],
      "payable": false,
      "stateMutability": "pure",
      "type": "function"
    },
    {
      "constant": false,
      "inputs": [
        {
          "name": "_principal",
          "type": "uint256"
        },
        {
          "name": "_numerator",
          "type": "uint256"
        },
        {
          "name": "_denominator",
          "type": "uint256"
        }
      ],
      "name": "getPartialAmount",
      "outputs": [
        {
          "name": "",
          "type": "uint256"
        }
      ],
      "payable": false,
      "stateMutability": "nonpayable",
      "type": "function"
    }
  ],
  "bytecode": "0x610435610030600b82828239805160001a6073146000811461002057610022565bfe5b5030600052607381538281f30073000000000000000000000000000000000000000030146080604052600436106100625763ffffffff7c010000000000000000000000000000000000000000000000000000000060003504166398024a8b8114610067578063ef4b688f14610097575b600080fd5b81801561007357600080fd5b506100856004356024356044356100db565b60408051918252519081900360200190f35b6100c760043573ffffffffffffffffffffffffffffffffffffffff6024351660ff60443516606435608435610242565b604080519115158252519081900360200190f35b6000806000838015156100ea57fe5b858709915081151561011d576101168461010a888863ffffffff6103c516565b9063ffffffff6103f416565b9250610239565b610143610130868863ffffffff6103c516565b61010a84620f424063ffffffff6103c516565b60408051808201909152601981527f526f756e64696e67206572726f7220746f6f206c617267652e0000000000000060208201529091506103e88210610221576040517f08c379a00000000000000000000000000000000000000000000000000000000081526004018080602001828103825283818151815260200191508051906020019080838360005b838110156101e65781810151838201526020016101ce565b50505050905090810190601f1680156102135780820380516001836020036101000a031916815260200191505b509250505060405180910390fd5b506102368461010a888863ffffffff6103c516565b92505b50509392505050565b60008060606040805190810160405280601c81526020017f19457468657265756d205369676e6564204d6573736167653a0a3332000000008152509050600181896040516020018083805190602001908083835b602083106102b55780518252601f199092019160209182019101610296565b51815160209384036101000a600019018019909216911617905292019384525060408051808503815293820190819052835193945092839250908401908083835b602083106103155780518252601f1990920191602091820191016102f6565b51815160209384036101000a60001901801990921691161790526040805192909401829003822060008084528383018087529190915260ff8e1683860152606083018d9052608083018c9052935160a08084019750919550601f1981019492819003909101925090865af1158015610391573d6000803e3d6000fd5b5050604051601f19015173ffffffffffffffffffffffffffffffffffffffff90811698169790971498975050505050505050565b60008215156103d6575060006103ee565b508181028183828115156103e657fe5b04146103ee57fe5b92915050565b6000818381151561040157fe5b0493925050505600a165627a7a72305820258f15dd7090e92f2ab9ef6a295656a9465a690fafde4d01474f756b0b18a4200029",
  "source": "/*\n    Copyright 2018 Set Labs Inc.\n\n    Licensed under the Apache License, Version 2.0 (the \"License\");\n    you may not use this file except in compliance with the License.\n    You may obtain a copy of the License at\n\n    http://www.apache.org/licenses/LICENSE-2.0\n\n    Unless required by applicable law or agreed to in writing, software\n    distributed under the License is distributed on an \"AS IS\" BASIS,\n    WITHOUT WARRANTIES OR CONDITIONS OF ANY KIND, either express or implied.\n    See the License for the specific language governing permissions and\n    limitations under the License.\n*/\n\npragma solidity 0.4.24;\n\nimport { SafeMath } from \"zeppelin-solidity/contracts/math/SafeMath.sol\";\n\n\n/**\n * @title OrderLibrary\n * @author Set Protocol\n *\n * The Order Library contains functions for checking validation and hashing of Issuance Orders.\n *\n */\n\nlibrary OrderLibrary {\n    using SafeMath for uint256;\n\n    /* ============ Constants ============ */\n\n    string constant ROUNDING_ERROR_TOO_LARGE = \"Rounding error too large.\";\n\n    /* ============ Structs ============ */\n\n    /**\n     * Struct containing all parameters for the issuance order\n     *\n     * @param  setAddress                   Set the maker wants to mint\n     * @param  makerAddress                 Address of maker of the Issuance Order\n     * @param  makerToken                   Address of token maker wants to exchange for filling issuance order\n     * @param  relayerAddress               Address of relayer\n     * @param  relayerToken                 Token relayer wants to be compensated in\n     * @param  quantity                     Amount of Sets maker is looking to mint\n     * @param  makerTokenAmount             Amount of makerToken to be used to fill the order\n     * @param  expiration                   Timestamp marking when the order expires\n     * @param  makerRelayerFee              Amount of relayer tokens maker must pay for execution\n     * @param  takerRelayerFee              Amount of relayer tokens taker must pay for execution\n     * @param  salt                         Random number used to create unique orderHash\n     * @param  requiredComponents           Components to be acquired by taker's exchange orders\n     * @param  requiredComponentAmounts     Amounts of each component to be acquired by exchange order\n     * @param  orderHash                    Unique order identifier used to log information about the order in the protocol\n     */\n    struct IssuanceOrder {\n        address setAddress;                 // _addresses[0]\n        address makerAddress;               // _addresses[1]\n        address makerToken;                 // _addresses[2]\n        address relayerAddress;             // _addresses[3]\n        address relayerToken;               // _addresses[4]\n        uint256 quantity;                   // _values[0]\n        uint256 makerTokenAmount;           // _values[1]\n        uint256 expiration;                 // _values[2]\n        uint256 makerRelayerFee;            // _values[3]\n        uint256 takerRelayerFee;            // _values[4]\n        uint256 salt;                       // _values[5]\n        address[] requiredComponents;       // _requiredComponents\n        uint256[] requiredComponentAmounts;    // _requiredComponentAmounts\n        bytes32 orderHash;\n    }\n\n    /* ============ Internal Functions ============ */\n\n    /**\n     * Create hash of order parameters\n     *\n     * @param  _addresses                   [setAddress, makerAddress, makerToken, relayerAddress, relayerToken]\n     * @param  _values                      [quantity, makerTokenAmount, expiration, makerRelayerFee, takerRelayerFee, salt]\n     * @param  _requiredComponents          Components to be acquired by exchange order\n     * @param  _requiredComponentAmounts    Amounts of each component to be acquired by exchange order\n     */\n    function generateOrderHash(\n        address[5] _addresses,\n        uint256[6] _values,\n        address[] _requiredComponents,\n        uint256[] _requiredComponentAmounts\n    )\n        internal\n        pure\n        returns(bytes32)\n    {\n        // Hash the order parameters\n        return keccak256(\n            abi.encodePacked(\n                _addresses[0],              // setAddress\n                _addresses[1],              // makerAddress\n                _addresses[2],              // makerToken\n                _addresses[3],              // relayerAddress\n                _addresses[4],              // relayerToken\n                _values[0],                 // quantity\n                _values[1],                 // makerTokenAmount\n                _values[2],                 // expiration\n                _values[3],                 // makerRelayerFee\n                _values[4],                 // takerRelayerFee\n                _values[5],                 // salt\n                _requiredComponents,        // _requiredComponents\n                _requiredComponentAmounts   // _requiredComponentAmounts\n            )\n        );\n    }\n\n    /**\n     * Validate order signature\n     *\n     * @param  _orderHash       Hash of issuance order\n     * @param  _signerAddress   Address of Issuance Order signer\n     * @param  _v               v element of ECDSA signature\n     * @param  _r               r element of ECDSA signature\n     * @param  _s               s element of ECDSA signature\n     */\n    function validateSignature(\n        bytes32 _orderHash,\n        address _signerAddress,\n        uint8 _v,\n        bytes32 _r,\n        bytes32 _s\n    )\n        external\n        pure\n        returns(bool)\n    {\n        // Public address returned by ecrecover function\n        address recAddress;\n\n        // Ethereum msg prefix\n        bytes memory msgPrefix = \"\\x19Ethereum Signed Message:\\n32\";\n\n        // Find what address signed the order\n        recAddress = ecrecover(\n            keccak256(abi.encodePacked(msgPrefix, _orderHash)),\n            _v,\n            _r,\n            _s\n        );\n\n        return recAddress == _signerAddress;\n    }\n\n    /**\n     * Checks for rounding errors and returns value of potential partial amounts of a principal\n     *\n     * @param  _principal       Number fractional amount is derived from\n     * @param  _numerator       Numerator of fraction\n     * @param  _denominator     Denominator of fraction\n     * @return uint256          Fractional amount of principal calculated\n     */\n    function getPartialAmount(\n        uint256 _principal,\n        uint256 _numerator,\n        uint256 _denominator\n    )\n        external\n        returns (uint256)\n    {\n        // Get remainder of partial amount (if 0 not a partial amount)\n        uint256 remainder = mulmod(_principal, _numerator, _denominator);\n\n        // Return if not a partial amount\n        if (remainder == 0) {\n            return _principal.mul(_numerator).div(_denominator);\n        }\n\n        // Calculate error percentage\n        uint256 errPercentageTimes1000000 = remainder.mul(1000000).div(_numerator.mul(_principal));\n\n        // Require error percentage is less than 0.1%\n        require(errPercentageTimes1000000 < 1000, ROUNDING_ERROR_TOO_LARGE);\n        return _principal.mul(_numerator).div(_denominator);\n    }\n}\n",
  "sourcePath": "/Users/justinkchen/workspace/set-protocol-contracts/contracts/core/lib/OrderLibrary.sol",
  "compiler": {
    "name": "solc",
    "version": "0.4.24+commit.e67f0147.Emscripten.clang"
  },
  "schemaVersion": "2.0.0",
  "updatedAt": "2018-08-10T03:42:05.767Z"
}