{
  "contractName": "OrderLibraryMock",
  "abi": [
    {
      "constant": true,
      "inputs": [
        {
          "name": "_addresses",
          "type": "address[5]"
        },
        {
          "name": "_values",
          "type": "uint256[6]"
        },
        {
          "name": "_requiredComponents",
          "type": "address[]"
        },
        {
          "name": "_requiredComponentAmounts",
          "type": "uint256[]"
        }
      ],
      "name": "testGenerateOrderHash",
      "outputs": [
        {
          "name": "",
          "type": "bytes32"
        }
      ],
      "payable": false,
      "stateMutability": "pure",
      "type": "function"
    },
    {
      "constant": true,
      "inputs": [
        {
          "name": "_orderHash",
          "type": "bytes32"
        },
        {
          "name": "_signerAddress",
          "type": "address"
        },
        {
          "name": "_v",
          "type": "uint8"
        },
        {
          "name": "_r",
          "type": "bytes32"
        },
        {
          "name": "_s",
          "type": "bytes32"
        }
      ],
      "name": "testValidateSignature",
      "outputs": [
        {
          "name": "",
          "type": "bool"
        }
      ],
      "payable": false,
      "stateMutability": "pure",
      "type": "function"
    }
  ],
  "bytecode": "0x608060405234801561001057600080fd5b50610809806100206000396000f30060806040526004361061004b5763ffffffff7c0100000000000000000000000000000000000000000000000000000000600035041663c4dec7b18114610050578063e7e668a314610086575b600080fd5b34801561005c57600080fd5b5061007061006b36600461064c565b6100b3565b60405161007d91906106eb565b60405180910390f35b34801561009257600080fd5b506100a66100a1366004610592565b610168565b60405161007d91906106ff565b6040517fef4b688f00000000000000000000000000000000000000000000000000000000815260009073__OrderLibrary__________________________9063ef4b688f9061010e908990899089908990899060040161070d565b60206040518083038186803b15801561012657600080fd5b505af415801561013a573d6000803e3d6000fd5b505050506040513d601f19601f8201168201806040525061015e9190810190610626565b9695505050505050565b60006101768585858561017f565b95945050505050565b6000848160200201518560016020020151866002602002015187600360200201518860046020020151886000602002015189600160200201518a600260200201518b600360200201518c600460200201518d600560200201518d8d604051602001808e600160a060020a0316600160a060020a03166c010000000000000000000000000281526014018d600160a060020a0316600160a060020a03166c010000000000000000000000000281526014018c600160a060020a0316600160a060020a03166c010000000000000000000000000281526014018b600160a060020a0316600160a060020a03166c010000000000000000000000000281526014018a600160a060020a0316600160a060020a03166c01000000000000000000000000028152601401898152602001888152602001878152602001868152602001858152602001848152602001838051906020019060200280838360005b838110156102f15781810151838201526020016102d9565b50505050905001828051906020019060200280838360005b83811015610321578181015183820152602001610309565b505050509050019d50505050505050505050505050506040516020818303038152906040526040518082805190602001908083835b602083106103755780518252601f199092019160209182019101610356565b5181516020939093036101000a6000190180199091169216919091179052604051920182900390912098975050505050505050565b60006103b682356107b5565b9392505050565b6000601f820183136103ce57600080fd5b60056103e16103dc82610776565b61074f565b915081838560208402820111156103f757600080fd5b60005b83811015610423578161040d88826103aa565b84525060209283019291909101906001016103fa565b5050505092915050565b6000601f8201831361043e57600080fd5b813561044c6103dc82610794565b9150818183526020840193506020810190508385602084028201111561047157600080fd5b60005b83811015610423578161048788826103aa565b8452506020928301929190910190600101610474565b6000601f820183136104ae57600080fd5b60066104bc6103dc82610776565b915081838560208402820111156104d257600080fd5b60005b8381101561042357816104e8888261057a565b84525060209283019291909101906001016104d5565b6000601f8201831361050f57600080fd5b813561051d6103dc82610794565b9150818183526020840193506020810190508385602084028201111561054257600080fd5b60005b838110156104235781610558888261057a565b8452506020928301929190910190600101610545565b60006103b682516107c1565b60006103b682356107c6565b60006103b682356107c9565b6000806000806101a085870312156105a957600080fd5b60006105b587876103bd565b94505060a06105c68782880161049d565b93505061016085013567ffffffffffffffff8111156105e457600080fd5b6105f08782880161042d565b92505061018085013567ffffffffffffffff81111561060e57600080fd5b61061a878288016104fe565b91505092959194509250565b60006020828403121561063857600080fd5b6000610644848461056e565b949350505050565b600080600080600060a0868803121561066457600080fd5b6000610670888861057a565b9550506020610681888289016103aa565b945050604061069288828901610586565b93505060606106a38882890161057a565b92505060806106b48882890161057a565b9150509295509295909350565b6106ca816107b5565b82525050565b6106ca816107c1565b6106ca816107c6565b6106ca816107c9565b602081016106f982846106d0565b92915050565b602081016106f982846106d9565b60a0810161071b82886106d9565b61072860208301876106c1565b61073560408301866106e2565b61074260608301856106d9565b61015e60808301846106d9565b60405181810167ffffffffffffffff8111828210171561076e57600080fd5b604052919050565b600067ffffffffffffffff82111561078d57600080fd5b5060200290565b600067ffffffffffffffff8211156107ab57600080fd5b5060209081020190565b600160a060020a031690565b151590565b90565b60ff16905600a265627a7a72305820b4222d95b34be681285eb3fd5f4cbac8d58bc2114c9e36141e28ebcc03de16486c6578706572696d656e74616cf50037",
  "source": "pragma solidity 0.4.24;\npragma experimental \"ABIEncoderV2\";\n\nimport { OrderLibrary } from \"../../../core/lib/OrderLibrary.sol\";\n\n// Mock contract implementation of OrderLibrary functions\ncontract OrderLibraryMock {\n    function testGenerateOrderHash(\n        address[5] _addresses,\n        uint[6] _values,\n        address[] _requiredComponents,\n        uint[] _requiredComponentAmounts\n    )\n        public\n        pure\n        returns(bytes32)\n    {\n        return OrderLibrary.generateOrderHash(\n            _addresses,\n            _values,\n            _requiredComponents,\n            _requiredComponentAmounts\n        );\n    }\n\n    function testValidateSignature(\n        bytes32 _orderHash,\n        address _signerAddress,\n        uint8 _v,\n        bytes32 _r,\n        bytes32 _s\n    )\n        public\n        pure\n        returns(bool)\n    {\n        return OrderLibrary.validateSignature(\n            _orderHash,\n            _signerAddress,\n            _v,\n            _r,\n            _s\n        );\n    }\n}\n\n",
  "sourcePath": "/Users/justinkchen/workspace/set-protocol-contracts/contracts/mocks/core/lib/OrderLibraryMock.sol",
  "compiler": {
    "name": "solc",
    "version": "0.4.24+commit.e67f0147.Emscripten.clang"
  },
  "schemaVersion": "2.0.0",
  "updatedAt": "2018-08-10T03:42:05.782Z"
}