{
  "contractName": "RebalancingSetToken",
  "abi": [
    {
      "constant": true,
      "inputs": [],
      "name": "unitShares",
      "outputs": [
        {
          "name": "",
          "type": "uint256"
        }
      ],
      "payable": false,
      "stateMutability": "view",
      "type": "function"
    },
    {
      "constant": true,
      "inputs": [
        {
          "name": "",
          "type": "uint256"
        }
      ],
      "name": "combinedRebalanceUnits",
      "outputs": [
        {
          "name": "",
          "type": "uint256"
        }
      ],
      "payable": false,
      "stateMutability": "view",
      "type": "function"
    },
    {
      "constant": true,
      "inputs": [],
      "name": "name",
      "outputs": [
        {
          "name": "",
          "type": "string"
        }
      ],
      "payable": false,
      "stateMutability": "view",
      "type": "function"
    },
    {
      "constant": false,
      "inputs": [
        {
          "name": "_spender",
          "type": "address"
        },
        {
          "name": "_value",
          "type": "uint256"
        }
      ],
      "name": "approve",
      "outputs": [
        {
          "name": "",
          "type": "bool"
        }
      ],
      "payable": false,
      "stateMutability": "nonpayable",
      "type": "function"
    },
    {
      "constant": true,
      "inputs": [
        {
          "name": "",
          "type": "uint256"
        }
      ],
      "name": "combinedCurrentUnits",
      "outputs": [
        {
          "name": "",
          "type": "uint256"
        }
      ],
      "payable": false,
      "stateMutability": "view",
      "type": "function"
    },
    {
      "constant": true,
      "inputs": [],
      "name": "rebalanceInterval",
      "outputs": [
        {
          "name": "",
          "type": "uint256"
        }
      ],
      "payable": false,
      "stateMutability": "view",
      "type": "function"
    },
    {
      "constant": true,
      "inputs": [],
      "name": "totalSupply",
      "outputs": [
        {
          "name": "",
          "type": "uint256"
        }
      ],
      "payable": false,
      "stateMutability": "view",
      "type": "function"
    },
    {
      "constant": true,
      "inputs": [],
      "name": "rebalanceSetSupply",
      "outputs": [
        {
          "name": "",
          "type": "uint256"
        }
      ],
      "payable": false,
      "stateMutability": "view",
      "type": "function"
    },
    {
      "constant": true,
      "inputs": [],
      "name": "rebalancingSet",
      "outputs": [
        {
          "name": "",
          "type": "address"
        }
      ],
      "payable": false,
      "stateMutability": "view",
      "type": "function"
    },
    {
      "constant": true,
      "inputs": [],
      "name": "proposalPeriod",
      "outputs": [
        {
          "name": "",
          "type": "uint256"
        }
      ],
      "payable": false,
      "stateMutability": "view",
      "type": "function"
    },
    {
      "constant": true,
      "inputs": [],
      "name": "currentSet",
      "outputs": [
        {
          "name": "",
          "type": "address"
        }
      ],
      "payable": false,
      "stateMutability": "view",
      "type": "function"
    },
    {
      "constant": true,
      "inputs": [],
      "name": "decimals",
      "outputs": [
        {
          "name": "",
          "type": "uint8"
        }
      ],
      "payable": false,
      "stateMutability": "view",
      "type": "function"
    },
    {
      "constant": true,
      "inputs": [],
      "name": "naturalUnit",
      "outputs": [
        {
          "name": "",
          "type": "uint256"
        }
      ],
      "payable": false,
      "stateMutability": "view",
      "type": "function"
    },
    {
      "constant": true,
      "inputs": [],
      "name": "manager",
      "outputs": [
        {
          "name": "",
          "type": "address"
        }
      ],
      "payable": false,
      "stateMutability": "view",
      "type": "function"
    },
    {
      "constant": false,
      "inputs": [
        {
          "name": "_spender",
          "type": "address"
        },
        {
          "name": "_subtractedValue",
          "type": "uint256"
        }
      ],
      "name": "decreaseApproval",
      "outputs": [
        {
          "name": "",
          "type": "bool"
        }
      ],
      "payable": false,
      "stateMutability": "nonpayable",
      "type": "function"
    },
    {
      "constant": true,
      "inputs": [
        {
          "name": "_owner",
          "type": "address"
        }
      ],
      "name": "balanceOf",
      "outputs": [
        {
          "name": "",
          "type": "uint256"
        }
      ],
      "payable": false,
      "stateMutability": "view",
      "type": "function"
    },
    {
      "constant": true,
      "inputs": [],
      "name": "auctionPriceDivisor",
      "outputs": [
        {
          "name": "",
          "type": "uint256"
        }
      ],
      "payable": false,
      "stateMutability": "view",
      "type": "function"
    },
    {
      "constant": true,
      "inputs": [],
      "name": "symbol",
      "outputs": [
        {
          "name": "",
          "type": "string"
        }
      ],
      "payable": false,
      "stateMutability": "view",
      "type": "function"
    },
    {
      "constant": true,
      "inputs": [],
      "name": "auctionLibrary",
      "outputs": [
        {
          "name": "",
          "type": "address"
        }
      ],
      "payable": false,
      "stateMutability": "view",
      "type": "function"
    },
    {
      "constant": true,
      "inputs": [],
      "name": "proposalStartTime",
      "outputs": [
        {
          "name": "",
          "type": "uint256"
        }
      ],
      "payable": false,
      "stateMutability": "view",
      "type": "function"
    },
    {
      "constant": true,
      "inputs": [],
      "name": "lastRebalanceTimestamp",
      "outputs": [
        {
          "name": "",
          "type": "uint256"
        }
      ],
      "payable": false,
      "stateMutability": "view",
      "type": "function"
    },
    {
      "constant": true,
      "inputs": [],
      "name": "factory",
      "outputs": [
        {
          "name": "",
          "type": "address"
        }
      ],
      "payable": false,
      "stateMutability": "view",
      "type": "function"
    },
    {
      "constant": true,
      "inputs": [],
      "name": "curveCoefficient",
      "outputs": [
        {
          "name": "",
          "type": "uint256"
        }
      ],
      "payable": false,
      "stateMutability": "view",
      "type": "function"
    },
    {
      "constant": false,
      "inputs": [
        {
          "name": "_spender",
          "type": "address"
        },
        {
          "name": "_addedValue",
          "type": "uint256"
        }
      ],
      "name": "increaseApproval",
      "outputs": [
        {
          "name": "",
          "type": "bool"
        }
      ],
      "payable": false,
      "stateMutability": "nonpayable",
      "type": "function"
    },
    {
      "constant": true,
      "inputs": [],
      "name": "auctionStartPrice",
      "outputs": [
        {
          "name": "",
          "type": "uint256"
        }
      ],
      "payable": false,
      "stateMutability": "view",
      "type": "function"
    },
    {
      "constant": true,
      "inputs": [
        {
          "name": "_owner",
          "type": "address"
        },
        {
          "name": "_spender",
          "type": "address"
        }
      ],
      "name": "allowance",
      "outputs": [
        {
          "name": "",
          "type": "uint256"
        }
      ],
      "payable": false,
      "stateMutability": "view",
      "type": "function"
    },
    {
      "constant": true,
      "inputs": [
        {
          "name": "",
          "type": "uint256"
        }
      ],
      "name": "combinedTokenArray",
      "outputs": [
        {
          "name": "",
          "type": "address"
        }
      ],
      "payable": false,
      "stateMutability": "view",
      "type": "function"
    },
    {
      "constant": true,
      "inputs": [],
      "name": "auctionStartTime",
      "outputs": [
        {
          "name": "",
          "type": "uint256"
        }
      ],
      "payable": false,
      "stateMutability": "view",
      "type": "function"
    },
    {
      "constant": true,
      "inputs": [],
      "name": "rebalanceState",
      "outputs": [
        {
          "name": "",
          "type": "uint8"
        }
      ],
      "payable": false,
      "stateMutability": "view",
      "type": "function"
    },
    {
      "constant": true,
      "inputs": [],
      "name": "remainingCurrentSets",
      "outputs": [
        {
          "name": "",
          "type": "uint256"
        }
      ],
      "payable": false,
      "stateMutability": "view",
      "type": "function"
    },
    {
      "inputs": [
        {
          "name": "_factory",
          "type": "address"
        },
        {
          "name": "_manager",
          "type": "address"
        },
        {
          "name": "_initialSet",
          "type": "address"
        },
        {
          "name": "_initialUnitShares",
          "type": "uint256"
        },
        {
          "name": "_proposalPeriod",
          "type": "uint256"
        },
        {
          "name": "_rebalanceInterval",
          "type": "uint256"
        },
        {
          "name": "_name",
          "type": "bytes32"
        },
        {
          "name": "_symbol",
          "type": "bytes32"
        }
      ],
      "payable": false,
      "stateMutability": "nonpayable",
      "type": "constructor"
    },
    {
      "anonymous": false,
      "inputs": [
        {
          "indexed": false,
          "name": "newManager",
          "type": "address"
        },
        {
          "indexed": false,
          "name": "oldManager",
          "type": "address"
        }
      ],
      "name": "NewManagerAdded",
      "type": "event"
    },
    {
      "anonymous": false,
      "inputs": [
        {
          "indexed": false,
          "name": "rebalancingSet",
          "type": "address"
        },
        {
          "indexed": true,
          "name": "auctionLibrary",
          "type": "address"
        },
        {
          "indexed": true,
          "name": "proposalPeriodEndTime",
          "type": "uint256"
        }
      ],
      "name": "RebalanceProposed",
      "type": "event"
    },
    {
      "anonymous": false,
      "inputs": [
        {
          "indexed": false,
          "name": "oldSet",
          "type": "address"
        },
        {
          "indexed": false,
          "name": "newSet",
          "type": "address"
        }
      ],
      "name": "RebalanceStarted",
      "type": "event"
    },
    {
      "anonymous": false,
      "inputs": [
        {
          "indexed": true,
          "name": "owner",
          "type": "address"
        },
        {
          "indexed": true,
          "name": "spender",
          "type": "address"
        },
        {
          "indexed": false,
          "name": "value",
          "type": "uint256"
        }
      ],
      "name": "Approval",
      "type": "event"
    },
    {
      "anonymous": false,
      "inputs": [
        {
          "indexed": true,
          "name": "from",
          "type": "address"
        },
        {
          "indexed": true,
          "name": "to",
          "type": "address"
        },
        {
          "indexed": false,
          "name": "value",
          "type": "uint256"
        }
      ],
      "name": "Transfer",
      "type": "event"
    },
    {
      "constant": false,
      "inputs": [
        {
          "name": "_rebalancingSet",
          "type": "address"
        },
        {
          "name": "_auctionLibrary",
          "type": "address"
        },
        {
          "name": "_curveCoefficient",
          "type": "uint256"
        },
        {
          "name": "_auctionStartPrice",
          "type": "uint256"
        },
        {
          "name": "_auctionPriceDivisor",
          "type": "uint256"
        }
      ],
      "name": "propose",
      "outputs": [],
      "payable": false,
      "stateMutability": "nonpayable",
      "type": "function"
    },
    {
      "constant": false,
      "inputs": [],
      "name": "rebalance",
      "outputs": [],
      "payable": false,
      "stateMutability": "nonpayable",
      "type": "function"
    },
    {
      "constant": false,
      "inputs": [],
      "name": "settlement",
      "outputs": [],
      "payable": false,
      "stateMutability": "nonpayable",
      "type": "function"
    },
    {
      "constant": false,
      "inputs": [
        {
          "name": "_issuer",
          "type": "address"
        },
        {
          "name": "_quantity",
          "type": "uint256"
        }
      ],
      "name": "mint",
      "outputs": [],
      "payable": false,
      "stateMutability": "nonpayable",
      "type": "function"
    },
    {
      "constant": false,
      "inputs": [
        {
          "name": "_from",
          "type": "address"
        },
        {
          "name": "_quantity",
          "type": "uint256"
        }
      ],
      "name": "burn",
      "outputs": [],
      "payable": false,
      "stateMutability": "nonpayable",
      "type": "function"
    },
    {
      "constant": false,
      "inputs": [
        {
          "name": "_newManager",
          "type": "address"
        }
      ],
      "name": "setManager",
      "outputs": [],
      "payable": false,
      "stateMutability": "nonpayable",
      "type": "function"
    },
    {
      "constant": true,
      "inputs": [],
      "name": "getComponents",
      "outputs": [
        {
          "name": "",
          "type": "address[1]"
        }
      ],
      "payable": false,
      "stateMutability": "view",
      "type": "function"
    },
    {
      "constant": true,
      "inputs": [],
      "name": "getUnits",
      "outputs": [
        {
          "name": "",
          "type": "uint256[1]"
        }
      ],
      "payable": false,
      "stateMutability": "view",
      "type": "function"
    },
    {
      "constant": false,
      "inputs": [
        {
          "name": "_to",
          "type": "address"
        },
        {
          "name": "_value",
          "type": "uint256"
        }
      ],
      "name": "transfer",
      "outputs": [
        {
          "name": "",
          "type": "bool"
        }
      ],
      "payable": false,
      "stateMutability": "nonpayable",
      "type": "function"
    },
    {
      "constant": false,
      "inputs": [
        {
          "name": "_from",
          "type": "address"
        },
        {
          "name": "_to",
          "type": "address"
        },
        {
          "name": "_value",
          "type": "uint256"
        }
      ],
      "name": "transferFrom",
      "outputs": [
        {
          "name": "",
          "type": "bool"
        }
      ],
      "payable": false,
      "stateMutability": "nonpayable",
      "type": "function"
    }
  ],
  "bytecode": "0x608060405260016006553480156200001657600080fd5b5060405161010080620019ff83398101604090815281516020830151918301516060840151608085015160a086015160c087015160e09097015194969394929391929091906200007482640100000000620013e36200016282021704565b6200008d82640100000000620013e36200016282021704565b8151601290620000a59060039060208601906200037c565b508151620000bb9060049060208501906200037c565b506005805460ff191660ff92909216919091179055505062015180841015620000e357600080fd5b62015180831015620000f457600080fd5b505060058054600160a060020a039788166101000261010060a860020a03199091161790556007805460088054968916600160a060020a0319978816179055600994909455600b92909255600c5542600a559290931692169190911760a060020a60ff021916905562000421565b6060806200017983640100000000620001ec810204565b9050806040516020018082805190602001908083835b60208310620001b05780518252601f1990920191602091820191016200018f565b6001836020036101000a038019825116818451168082178552505050505050905001915050604051602081830303815290604052915050919050565b60606000815b6020821080156200025657508382602081106200020b57fe5b1a7f0100000000000000000000000000000000000000000000000000000000000000027f01000000000000000000000000000000000000000000000000000000000000009004600014155b156200026857816001019150620001f2565b816040519080825280601f01601f19166020018201604052801562000297578160200160208202803883390190505b509050600091505b6020821080156200030c5750838260208110620002b857fe5b1a7f010000000000000000000000000000000000000000000000000000000000000002600160f860020a03191660007f01000000000000000000000000000000000000000000000000000000000000000214155b1562000375578382602081106200031f57fe5b1a7f01000000000000000000000000000000000000000000000000000000000000000281838151811015156200035157fe5b906020010190600160f860020a031916908160001a9053508160010191506200029f565b9392505050565b828054600181600116156101000203166002900490600052602060002090601f016020900481019282601f10620003bf57805160ff1916838001178555620003ef565b82800160010185558215620003ef579182015b82811115620003ef578251825591602001919060010190620003d2565b50620003fd92915062000401565b5090565b6200041e91905b80821115620003fd576000815560010162000408565b90565b6115ce80620004316000396000f3006080604052600436106101d45763ffffffff60e060020a6000350416630193aea281146101d9578063027aa9f514610200578063067129a51461024d57806306fdde0314610265578063095ea7b3146102ef578063159cabae1461032757806316d1d9161461033f57806318160ddd146103545780631e32bd961461036957806320c857e61461037e57806323b872dd146103af5780632c103c79146103d957806330b86627146103ee578063313ce5671461040357806340c10f191461042e57806342a7cfd514610454578063481c6a7514610469578063511606301461047e578063661884631461049357806370a08231146104b75780637632b24b146104d85780637d7c2a1c1461050857806391a293091461051d57806395d89b411461053257806396213fc71461054757806399d50d5d1461055c5780639dc29fac14610571578063a9059cbb14610595578063a9faafd9146105b9578063b83d8157146105ce578063c45a0155146105e3578063d0524d62146105f8578063d0ebdbe71461060d578063d73dd6231461062e578063d756985b14610652578063dd62ed3e14610667578063e0523faa1461068e578063eb54f9ec146106a6578063f75af97f146106bb578063f9e72fa8146106f4575b600080fd5b3480156101e557600080fd5b506101ee610709565b60408051918252519081900360200190f35b34801561020c57600080fd5b5061021561070f565b6040518082602080838360005b8381101561023a578181015183820152602001610222565b5050505090500191505060405180910390f35b34801561025957600080fd5b506101ee60043561072b565b34801561027157600080fd5b5061027a61074a565b6040805160208082528351818301528351919283929083019185019080838360005b838110156102b457818101518382015260200161029c565b50505050905090810190601f1680156102e15780820380516001836020036101000a031916815260200191505b509250505060405180910390f35b3480156102fb57600080fd5b50610313600160a060020a03600435166024356107d8565b604080519115158252519081900360200190f35b34801561033357600080fd5b506101ee60043561083e565b34801561034b57600080fd5b506101ee61084c565b34801561036057600080fd5b506101ee610852565b34801561037557600080fd5b506101ee610858565b34801561038a57600080fd5b5061039361085e565b60408051600160a060020a039092168252519081900360200190f35b3480156103bb57600080fd5b50610313600160a060020a036004358116906024351660443561086d565b3480156103e557600080fd5b506101ee610898565b3480156103fa57600080fd5b5061039361089e565b34801561040f57600080fd5b506104186108ad565b6040805160ff9092168252519081900360200190f35b34801561043a57600080fd5b50610452600160a060020a03600435166024356108b6565b005b34801561046057600080fd5b506101ee6109f9565b34801561047557600080fd5b506103936109ff565b34801561048a57600080fd5b50610452610a0e565b34801561049f57600080fd5b50610313600160a060020a0360043516602435610a85565b3480156104c357600080fd5b506101ee600160a060020a0360043516610b75565b3480156104e457600080fd5b50610452600160a060020a0360043581169060243516604435606435608435610b90565b34801561051457600080fd5b50610452610cb7565b34801561052957600080fd5b506101ee610d83565b34801561053e57600080fd5b5061027a610d89565b34801561055357600080fd5b50610393610de4565b34801561056857600080fd5b50610215610df3565b34801561057d57600080fd5b50610452600160a060020a0360043516602435610e18565b3480156105a157600080fd5b50610313600160a060020a0360043516602435610f80565b3480156105c557600080fd5b506101ee610fa9565b3480156105da57600080fd5b506101ee610faf565b3480156105ef57600080fd5b50610393610fb5565b34801561060457600080fd5b506101ee610fc9565b34801561061957600080fd5b50610452600160a060020a0360043516610fcf565b34801561063a57600080fd5b50610313600160a060020a036004351660243561105d565b34801561065e57600080fd5b506101ee6110f6565b34801561067357600080fd5b506101ee600160a060020a03600435811690602435166110fc565b34801561069a57600080fd5b50610393600435611127565b3480156106b257600080fd5b506101ee61114f565b3480156106c757600080fd5b506106d0611155565b604051808260028111156106e057fe5b60ff16815260200191505060405180910390f35b34801561070057600080fd5b506101ee611165565b60095481565b6107176113c4565b506040805160208101909152600954815290565b601680548290811061073957fe5b600091825260209091200154905081565b6003805460408051602060026001851615610100026000190190941693909304601f810184900484028201840190925281815292918301828280156107d05780601f106107a5576101008083540402835291602001916107d0565b820191906000526020600020905b8154815290600101906020018083116107b357829003601f168201915b505050505081565b336000818152600260209081526040808320600160a060020a038716808552908352818420869055815186815291519394909390927f8c5be1e5ebec7d5bd14f71427d1e84f3dd0314c0f7b2291e5b200ac8c7c3b925928290030190a350600192915050565b601580548290811061073957fe5b600c5481565b60015490565b60185481565b600f54600160a060020a031681565b6000600160a060020a03831630141561088557600080fd5b61089084848461116b565b949350505050565b600b5481565b600854600160a060020a031681565b60055460ff1681565b600560019054906101000a9004600160a060020a0316600160a060020a031663f2f4eb266040518163ffffffff1660e060020a028152600401602060405180830381600087803b15801561090957600080fd5b505af115801561091d573d6000803e3d6000fd5b505050506040513d602081101561093357600080fd5b5051600160a060020a0316331461094957600080fd5b600260075460a060020a900460ff16600281111561096357fe5b141561096e57600080fd5b600160a060020a038216600090815260208190526040902054610997908263ffffffff6112d016565b600160a060020a0383166000908152602081905260409020556001546109c3908263ffffffff6112d016565b600155604080518281529051600160a060020a038416916000916000805160206115838339815191529181900360200190a35050565b60065481565b600754600160a060020a031681565b600260075460a060020a900460ff166002811115610a2857fe5b14610a3257600080fd5b600f546008805473ffffffffffffffffffffffffffffffffffffffff1916600160a060020a0390921691909117905542600a556007805474ff000000000000000000000000000000000000000019169055565b336000908152600260209081526040808320600160a060020a038616845290915281205480831115610ada57336000908152600260209081526040808320600160a060020a0388168452909152812055610b0f565b610aea818463ffffffff6112e316565b336000908152600260209081526040808320600160a060020a03891684529091529020555b336000818152600260209081526040808320600160a060020a0389168085529083529281902054815190815290519293927f8c5be1e5ebec7d5bd14f71427d1e84f3dd0314c0f7b2291e5b200ac8c7c3b925929181900390910190a35060019392505050565b600160a060020a031660009081526020819052604090205490565b600754600160a060020a03163314610ba757600080fd5b600060075460a060020a900460ff166002811115610bc157fe5b14610bcb57600080fd5b600c54600a54610be09163ffffffff6112d016565b421015610bec57600080fd5b600f8054600160a060020a0387811673ffffffffffffffffffffffffffffffffffffffff1992831617909255601080549287169290911691909117905560138390556012829055601181905542600d8190556007805474ff0000000000000000000000000000000000000000191660a060020a179055600b54610c6f91906112d0565b60408051600160a060020a0388811682529151918716917f6a20b1a24d612c34a3b539bd9f3cc66319e62c01bafbc9fc9f5362e2bfbacb3c9181900360200190a35050505050565b600160075460a060020a900460ff166002811115610cd157fe5b14610cdb57600080fd5b600b54600d54610cf09163ffffffff6112d016565b421015610cfc57600080fd5b42600e556007805474ff0000000000000000000000000000000000000000191674020000000000000000000000000000000000000000179055600854600f5460408051600160a060020a03938416815292909116602083015280517fe57340a36ab2ae0bdbec3486f504d5df3a525cd11937e20641f2c64ca126f1c19281900390910190a1565b60115481565b6004805460408051602060026001851615610100026000190190941693909304601f810184900484028201840190925281815292918301828280156107d05780601f106107a5576101008083540402835291602001916107d0565b601054600160a060020a031681565b610dfb6113c4565b506040805160208101909152600854600160a060020a0316815290565b600560019054906101000a9004600160a060020a0316600160a060020a031663f2f4eb266040518163ffffffff1660e060020a028152600401602060405180830381600087803b158015610e6b57600080fd5b505af1158015610e7f573d6000803e3d6000fd5b505050506040513d6020811015610e9557600080fd5b5051600160a060020a03163314610eab57600080fd5b600260075460a060020a900460ff166002811115610ec557fe5b1415610ed057600080fd5b600160a060020a038216600090815260208190526040902054811115610ef557600080fd5b600160a060020a038216600090815260208190526040902054610f1e908263ffffffff6112e316565b600160a060020a038316600090815260208190526040902055600154610f4a908263ffffffff6112e316565b600155604080518281529051600091600160a060020a038516916000805160206115838339815191529181900360200190a35050565b6000600160a060020a038316301415610f9857600080fd5b610fa283836112f5565b9392505050565b600d5481565b600a5481565b6005546101009004600160a060020a031681565b60135481565b600754600160a060020a03163314610fe657600080fd5b60075460408051600160a060020a038085168252909216602083015280517ff9c15f5b74b4e002e8881b2d9810116b1d4d45461e6dd7ac8111381b592e2c659281900390910190a16007805473ffffffffffffffffffffffffffffffffffffffff1916600160a060020a0392909216919091179055565b336000908152600260209081526040808320600160a060020a0386168452909152812054611091908363ffffffff6112d016565b336000818152600260209081526040808320600160a060020a0389168085529083529281902085905580519485525191937f8c5be1e5ebec7d5bd14f71427d1e84f3dd0314c0f7b2291e5b200ac8c7c3b925929081900390910190a350600192915050565b60125481565b600160a060020a03918216600090815260026020908152604080832093909416825291909152205490565b601480548290811061113557fe5b600091825260209091200154600160a060020a0316905081565b600e5481565b60075460a060020a900460ff1681565b60175481565b6000600160a060020a038316151561118257600080fd5b600160a060020a0384166000908152602081905260409020548211156111a757600080fd5b600160a060020a03841660009081526002602090815260408083203384529091529020548211156111d757600080fd5b600160a060020a038416600090815260208190526040902054611200908363ffffffff6112e316565b600160a060020a038086166000908152602081905260408082209390935590851681522054611235908363ffffffff6112d016565b600160a060020a03808516600090815260208181526040808320949094559187168152600282528281203382529091522054611277908363ffffffff6112e316565b600160a060020a0380861660008181526002602090815260408083203384528252918290209490945580518681529051928716939192600080516020611583833981519152929181900390910190a35060019392505050565b818101828110156112dd57fe5b92915050565b6000828211156112ef57fe5b50900390565b6000600160a060020a038316151561130c57600080fd5b3360009081526020819052604090205482111561132857600080fd5b33600090815260208190526040902054611348908363ffffffff6112e316565b3360009081526020819052604080822092909255600160a060020a0385168152205461137a908363ffffffff6112d016565b600160a060020a038416600081815260208181526040918290209390935580518581529051919233926000805160206115838339815191529281900390910190a350600192915050565b6020604051908101604052806001906020820280388339509192915050565b6060806113ef83611460565b9050806040516020018082805190602001908083835b602083106114245780518252601f199092019160209182019101611405565b6001836020036101000a038019825116818451168082178552505050505050905001915050604051602081830303815290604052915050919050565b60606000815b602082108015611490575083826020811061147d57fe5b1a60f860020a0260f860020a9004600014155b156114a057816001019150611466565b816040519080825280601f01601f1916602001820160405280156114ce578160200160208202803883390190505b509050600091505b60208210801561152157508382602081106114ed57fe5b1a60f860020a027effffffffffffffffffffffffffffffffffffffffffffffffffffffffffffff1916600060f860020a0214155b15610fa25783826020811061153257fe5b1a60f860020a02818381518110151561154757fe5b9060200101907effffffffffffffffffffffffffffffffffffffffffffffffffffffffffffff1916908160001a9053508160010191506114d65600ddf252ad1be2c89b69c2b068fc378daa952ba7f163c4a11628f55a4df523b3efa165627a7a72305820253c1e4f702bd98324320477e76e15a91593dec353c7818f655280eb2dd9038d0029",
  "source": "/*\n    Copyright 2018 Set Labs Inc.\n\n    Licensed under the Apache License, Version 2.0 (the \"License\");\n    you may not use this file except in compliance with the License.\n    You may obtain a copy of the License at\n\n    http://www.apache.org/licenses/LICENSE-2.0\n\n    Unless required by applicable law or agreed to in writing, software\n    distributed under the License is distributed on an \"AS IS\" BASIS,\n    WITHOUT WARRANTIES OR CONDITIONS OF ANY KIND, either express or implied.\n    See the License for the specific language governing permissions and\n    limitations under the License.\n*/\n\npragma solidity 0.4.24;\n\nimport { DetailedERC20 } from \"zeppelin-solidity/contracts/token/ERC20/DetailedERC20.sol\";\nimport { SafeMath } from \"zeppelin-solidity/contracts/math/SafeMath.sol\";\nimport { StandardToken } from \"zeppelin-solidity/contracts/token/ERC20/StandardToken.sol\";\nimport { Bytes32 } from \"../lib/Bytes32.sol\";\nimport { ISetFactory } from \"./interfaces/ISetFactory.sol\";\n\n\n/**\n * @title SetToken\n * @author Set Protocol\n *\n * Implementation of Rebalancing Set token.\n */\ncontract RebalancingSetToken is\n    StandardToken,\n    DetailedERC20\n{\n    using SafeMath for uint256;\n    using Bytes32 for bytes32;\n\n    /* ============ Enums ============ */\n\n    enum State { Default, Proposal, Rebalance }\n\n    /* ============ State Variables ============ */\n\n    address public factory;\n    uint256 public naturalUnit = 1;\n    address public manager;\n    State public rebalanceState;\n\n    // State updated after every rebalance\n    address public currentSet;\n    uint256 public unitShares;\n    uint256 public lastRebalanceTimestamp;\n\n    // State governing rebalance cycle\n    uint256 public proposalPeriod;\n    uint256 public rebalanceInterval;\n\n    // State to track proposal period\n    uint256 public proposalStartTime;\n\n    // State needed for auction/rebalance\n    uint256 public auctionStartTime;\n    address public rebalancingSet;\n    address public auctionLibrary;\n    uint256 public auctionPriceDivisor;\n    uint256 public auctionStartPrice;\n    uint256 public curveCoefficient;\n    address[] public combinedTokenArray;\n    uint256[] public combinedCurrentUnits;\n    uint256[] public combinedRebalanceUnits;\n    uint256 public remainingCurrentSets;\n    uint256 public rebalanceSetSupply;\n\n    /* ============ Events ============ */\n\n    event NewManagerAdded(\n        address newManager,\n        address oldManager\n    );\n\n    event RebalanceProposed(\n        address rebalancingSet,\n        address indexed auctionLibrary,\n        uint256 indexed proposalPeriodEndTime\n    );\n\n    event RebalanceStarted(\n        address oldSet,\n        address newSet\n    );\n\n\n    /* ============ Constructor ============ */\n\n    /**\n     * Constructor function for Rebalancing Set Token\n     *\n     *\n     * @param _factory                      The factory used to create the Rebalancing Set\n     * @param _manager                      The manager of the Rebalancing Set\n     * @param _initialSet                   The initial set that collateralizes the Rebalancing set\n     * @param _initialUnitShares            How much of a Set (in gWei) equals one share\n     * @param _proposalPeriod               Amount of time for users to inspect a rebalance proposal\n     * @param _rebalanceInterval            The minimum amount of time between rebalances\n     * @param _name                         The Rebalancing Set's name\n     * @param _symbol                       The Rebalancing Set's symbol\n     */\n\n    constructor(\n        address _factory,\n        address _manager,\n        address _initialSet,\n        uint256 _initialUnitShares,\n        uint256 _proposalPeriod,\n        uint256 _rebalanceInterval,\n        bytes32 _name,\n        bytes32 _symbol\n    )\n        public\n        DetailedERC20(\n            _name.bytes32ToString(),\n            _symbol.bytes32ToString(),\n            18\n        )\n    {\n        // Require day long proposal period\n        require(_proposalPeriod >= 86400);\n\n        // Require one day between end of rebalance and proposing another rebalance\n        require(_rebalanceInterval >= 86400);\n\n        factory = _factory;\n        manager = _manager;\n        currentSet = _initialSet;\n        unitShares = _initialUnitShares;\n\n        proposalPeriod = _proposalPeriod;\n        rebalanceInterval = _rebalanceInterval;\n        lastRebalanceTimestamp = block.timestamp;\n        rebalanceState = State.Default;\n    }\n\n    /* ============ Public Functions ============ */\n\n    /**\n     * Function used to set the terms of the next rebalance and start the proposal period\n     *\n     *\n     * @param _rebalancingSet               The Set to rebalance into\n     * @param _auctionLibrary               The library used to calculate the Dutch Auction price\n     * @param _curveCoefficient             The slope (or convexity) of the price curve\n     * @param _auctionPriceDivisor          The granularity with which the prices change\n     * @param _auctionStartPrice            The price to start the auction at\n     */\n    function propose(\n        address _rebalancingSet,\n        address _auctionLibrary,\n        uint256 _curveCoefficient,\n        uint256 _auctionStartPrice,\n        uint256 _auctionPriceDivisor\n    )\n        external\n    {\n        // Make sure it is manager that is proposing the rebalance\n        require(msg.sender == manager);\n\n        // New proposal cannot be made during a rebalance period\n        require(rebalanceState == State.Default);\n\n        // Make sure enough time has passed from last rebalance to start a new proposal\n        require(block.timestamp >= lastRebalanceTimestamp.add(rebalanceInterval));\n\n        // Set auction parameters\n        rebalancingSet = _rebalancingSet;\n        auctionLibrary = _auctionLibrary;\n        curveCoefficient = _curveCoefficient;\n        auctionStartPrice = _auctionStartPrice;\n        auctionPriceDivisor = _auctionPriceDivisor;\n\n        // Update state parameters\n        proposalStartTime = block.timestamp;\n        rebalanceState = State.Proposal;\n\n        emit RebalanceProposed(\n            _rebalancingSet,\n            _auctionLibrary,\n            proposalStartTime.add(proposalPeriod)\n        );\n    }\n\n    /*\n     * Initiate rebalance for the rebalancing set. Users can now submit bids.\n     *\n     */\n    function rebalance()\n        external\n    {\n        // Must be in \"Proposal\" state before going into \"Rebalance\" state\n        require(rebalanceState == State.Proposal);\n\n        // Be sure the full proposal period has elapsed\n        require(block.timestamp >= proposalStartTime.add(proposalPeriod));\n\n        // Update state parameters\n        auctionStartTime = block.timestamp;\n        rebalanceState = State.Rebalance;\n\n        emit RebalanceStarted(currentSet, rebalancingSet);\n    }\n\n    /*\n     * Initiate settlement for the rebalancing set. Full functionality now returned to\n     * set owners.\n     *\n     */\n    function settlement()\n        external\n    {\n        // Must be in Rebalance state to call settlement\n        require(rebalanceState == State.Rebalance);\n\n        // Set current set to be rebalancing set\n        currentSet = rebalancingSet;\n\n        // Update state parameters\n        lastRebalanceTimestamp = block.timestamp;\n        rebalanceState = State.Default;\n    }\n\n    /*\n     * Mint set token for given address.\n     * Can only be called by authorized contracts.\n     *\n     * @param  _issuer      The address of the issuing account\n     * @param  _quantity    The number of sets to attribute to issuer\n     */\n    function mint(\n        address _issuer,\n        uint256 _quantity\n    )\n        external\n    {\n        // Check that function caller is Core\n        require(msg.sender == ISetFactory(factory).core());\n\n        // Check that set is not in Rebalancing State\n        require(rebalanceState != State.Rebalance);\n\n        // Update token balance of the issuer\n        balances[_issuer] = balances[_issuer].add(_quantity);\n\n        // Update the total supply of the set token\n        totalSupply_ = totalSupply_.add(_quantity);\n\n        // Emit a transfer log with from address being 0 to indicate mint\n        emit Transfer(address(0), _issuer, _quantity);\n    }\n\n    /*\n     * Burn set token for given address.\n     * Can only be called by authorized contracts.\n     *\n     * @param  _from        The address of the redeeming account\n     * @param  _quantity    The number of sets to burn from redeemer\n     */\n    function burn(\n        address _from,\n        uint256 _quantity\n    )\n        external\n    {\n        // Check that function caller is Core\n        require(msg.sender == ISetFactory(factory).core());\n\n        // Check that set is not in Rebalancing State\n        require(rebalanceState != State.Rebalance);\n\n        // Require user has tokens to burn\n        require(balances[_from] >= _quantity);\n\n        // Update token balance of user\n        balances[_from] = balances[_from].sub(_quantity);\n\n        // Update total supply of Set Token\n        totalSupply_ = totalSupply_.sub(_quantity);\n\n        // Emit a transfer log with to address being 0 indicating burn\n        emit Transfer(_from, address(0), _quantity);\n    }\n\n    /*\n     * Set new manager address\n     *\n     * @param  _newManager       The address of the redeeming account\n     */\n    function setManager(\n        address _newManager\n    )\n        external\n    {\n        require(msg.sender == manager);\n\n        emit NewManagerAdded(_newManager, manager);\n        manager = _newManager;\n    }\n\n    /*\n     * Get addresses of setToken underlying the Rebalancing Set\n     *\n     * @return  componentAddresses       Array of currentSet\n     */\n    function getComponents()\n        external\n        view\n        returns(address[1])\n    {\n        return [currentSet];\n    }\n\n    /*\n     * Get unitShares of Rebalancing Set\n     *\n     * @return  units       Array of component unit\n     */\n    function getUnits()\n        external\n        view\n        returns(uint256[1])\n    {\n        return [unitShares];\n    }\n\n    /* ============ Transfer Overrides ============ */\n\n    /*\n     * ERC20 like transfer function but checks destination is valid\n     *\n     * @param  _to        The address to send Set to\n     * @param  _value     The number of Sets to send\n     * @return  bool      True on successful transfer\n     */\n    function transfer(\n        address _to,\n        uint256 _value\n    )\n        public\n        returns (bool)\n    {\n        // Confirm address is not this address\n        require(_to != address(this));\n\n        // Use inherited transfer function\n        return super.transfer(_to, _value);\n    }\n\n    /*\n     * ERC20 like transferFrom function but checks destination is valid\n     *\n     * @param  _from      The address to send Set from\n     * @param  _to        The address to send Set to\n     * @param  _value     The number of Sets to send\n     * @return  bool      True on successful transfer\n     */\n    function transferFrom(\n        address _from,\n        address _to,\n        uint256 _value\n    )\n        public\n        returns (bool)\n    {\n        // Confirm address is not this address\n        require(_to != address(this));\n\n        // Use inherited transferFrom function\n        return super.transferFrom(_from, _to, _value);\n    }\n}\n",
  "sourcePath": "/Users/justinkchen/workspace/set-protocol-contracts/contracts/core/RebalancingSetToken.sol",
  "compiler": {
    "name": "solc",
    "version": "0.4.24+commit.e67f0147.Emscripten.clang"
  },
  "schemaVersion": "2.0.0",
  "updatedAt": "2018-08-22T15:29:44.992Z"
}