{
  "contractName": "SetTokenFactory",
  "abi": [
    {
      "constant": false,
      "inputs": [
        {
          "name": "_authTarget",
          "type": "address"
        }
      ],
      "name": "addAuthorizedAddress",
      "outputs": [],
      "payable": false,
      "stateMutability": "nonpayable",
      "type": "function"
    },
    {
      "constant": true,
      "inputs": [
        {
          "name": "",
          "type": "uint256"
        }
      ],
      "name": "authorities",
      "outputs": [
        {
          "name": "",
          "type": "address"
        }
      ],
      "payable": false,
      "stateMutability": "view",
      "type": "function"
    },
    {
      "constant": false,
      "inputs": [
        {
          "name": "_authTarget",
          "type": "address"
        }
      ],
      "name": "removeAuthorizedAddress",
      "outputs": [],
      "payable": false,
      "stateMutability": "nonpayable",
      "type": "function"
    },
    {
      "constant": false,
      "inputs": [],
      "name": "renounceOwnership",
      "outputs": [],
      "payable": false,
      "stateMutability": "nonpayable",
      "type": "function"
    },
    {
      "constant": true,
      "inputs": [],
      "name": "owner",
      "outputs": [
        {
          "name": "",
          "type": "address"
        }
      ],
      "payable": false,
      "stateMutability": "view",
      "type": "function"
    },
    {
      "constant": false,
      "inputs": [
        {
          "name": "_authTarget",
          "type": "address"
        },
        {
          "name": "_index",
          "type": "uint256"
        }
      ],
      "name": "removeAuthorizedAddressAtIndex",
      "outputs": [],
      "payable": false,
      "stateMutability": "nonpayable",
      "type": "function"
    },
    {
      "constant": true,
      "inputs": [
        {
          "name": "",
          "type": "address"
        }
      ],
      "name": "authorized",
      "outputs": [
        {
          "name": "",
          "type": "bool"
        }
      ],
      "payable": false,
      "stateMutability": "view",
      "type": "function"
    },
    {
      "constant": true,
      "inputs": [],
      "name": "getAuthorizedAddresses",
      "outputs": [
        {
          "name": "",
          "type": "address[]"
        }
      ],
      "payable": false,
      "stateMutability": "view",
      "type": "function"
    },
    {
      "constant": true,
      "inputs": [],
      "name": "core",
      "outputs": [
        {
          "name": "",
          "type": "address"
        }
      ],
      "payable": false,
      "stateMutability": "view",
      "type": "function"
    },
    {
      "constant": false,
      "inputs": [
        {
          "name": "_newOwner",
          "type": "address"
        }
      ],
      "name": "transferOwnership",
      "outputs": [],
      "payable": false,
      "stateMutability": "nonpayable",
      "type": "function"
    },
    {
      "anonymous": false,
      "inputs": [
        {
          "indexed": true,
          "name": "authAddress",
          "type": "address"
        },
        {
          "indexed": false,
          "name": "authorizedBy",
          "type": "address"
        }
      ],
      "name": "AddressAuthorized",
      "type": "event"
    },
    {
      "anonymous": false,
      "inputs": [
        {
          "indexed": true,
          "name": "addressRemoved",
          "type": "address"
        },
        {
          "indexed": false,
          "name": "authorizedBy",
          "type": "address"
        }
      ],
      "name": "AuthorizedAddressRemoved",
      "type": "event"
    },
    {
      "anonymous": false,
      "inputs": [
        {
          "indexed": true,
          "name": "previousOwner",
          "type": "address"
        }
      ],
      "name": "OwnershipRenounced",
      "type": "event"
    },
    {
      "anonymous": false,
      "inputs": [
        {
          "indexed": true,
          "name": "previousOwner",
          "type": "address"
        },
        {
          "indexed": true,
          "name": "newOwner",
          "type": "address"
        }
      ],
      "name": "OwnershipTransferred",
      "type": "event"
    },
    {
      "constant": false,
      "inputs": [
        {
          "name": "_core",
          "type": "address"
        }
      ],
      "name": "setCoreAddress",
      "outputs": [],
      "payable": false,
      "stateMutability": "nonpayable",
      "type": "function"
    },
    {
      "constant": false,
      "inputs": [
        {
          "name": "_components",
          "type": "address[]"
        },
        {
          "name": "_units",
          "type": "uint256[]"
        },
        {
          "name": "_naturalUnit",
          "type": "uint256"
        },
        {
          "name": "_name",
          "type": "string"
        },
        {
          "name": "_symbol",
          "type": "string"
        }
      ],
      "name": "create",
      "outputs": [
        {
          "name": "",
          "type": "address"
        }
      ],
      "payable": false,
      "stateMutability": "nonpayable",
      "type": "function"
    }
  ],
  "bytecode": "0x608060405260008054600160a060020a031916331790556121ee806100256000396000f300608060405260043610620000c65763ffffffff7c0100000000000000000000000000000000000000000000000000000000600035041663110a25c28114620000cb57806342f1181e1462000132578063494503d41462000158578063707129391462000173578063715018a614620001975780638da5cb5b14620001af57806391aad23914620001c75780639ad2674414620001eb578063b91816111462000212578063d39de6e9146200024a578063f2f4eb2614620002b4578063f2fde38b14620002cc575b600080fd5b348015620000d857600080fd5b5062000116602460048035828101929082013591813580830192908201359160443591606435808201929081013591608435908101910135620002f0565b60408051600160a060020a039092168252519081900360200190f35b3480156200013f57600080fd5b5062000156600160a060020a0360043516620004d5565b005b3480156200016557600080fd5b506200011660043562000664565b3480156200018057600080fd5b5062000156600160a060020a03600435166200068d565b348015620001a457600080fd5b5062000156620008b3565b348015620001bc57600080fd5b506200011662000920565b348015620001d457600080fd5b5062000156600160a060020a03600435166200092f565b348015620001f857600080fd5b5062000156600160a060020a036004351660243562000976565b3480156200021f57600080fd5b5062000236600160a060020a036004351662000c0f565b604080519115158252519081900360200190f35b3480156200025757600080fd5b506200026262000c24565b60408051602080825283518183015283519192839290830191858101910280838360005b83811015620002a057818101518382015260200162000286565b505050509050019250505060405180910390f35b348015620002c157600080fd5b506200011662000c89565b348015620002d957600080fd5b5062000156600160a060020a036004351662000c98565b336000908152600160209081526040808320548151606081018352602a81527f53656e646572206e6f7420617574686f72697a656420746f2063616c6c207468938101939093527f6973206d6574686f642e000000000000000000000000000000000000000000009183019190915260ff161515620003f35760405160e560020a62461bcd0281526004018080602001828103825283818151815260200191508051906020019080838360005b83811015620003b75781810151838201526020016200039d565b50505050905090810190601f168015620003e55780820380516001836020036101000a031916815260200191505b509250505060405180910390fd5b50308a8a8a8a8a8a8a8a8a6200040862000d3c565b808b600160a060020a0316600160a060020a031681526020018060200180602001888152602001806020018060200185810385528e8e8281815260200192506020028082843790910186810385528c8152602090810191508d908d0280828437909101868103845289815260200190508989808284379091018681038352878152602001905087878082843782019150509e505050505050505050505050505050604051809103906000f080158015620004c6573d6000803e3d6000fd5b509a9950505050505050505050565b600054600160a060020a03163314620004ed57600080fd5b600160a060020a038116600090815260016020908152604091829020548251606081018452602681527f546172676574206d757374206e6f7420616c726561647920626520617574686f928101929092527f72697a65642e0000000000000000000000000000000000000000000000000000928201929092529060ff1615620005bd5760405160e560020a62461bcd02815260040180806020018281038252838181518152602001915080519060200190808383600083811015620003b75781810151838201526020016200039d565b50600160a060020a0381166000818152600160208181526040808420805460ff1916841790556002805493840181559093527f405787fa12a823e0f2b7631cc41b3ba8828b3321ca811111fa75cd3aa3bb5ace909101805473ffffffffffffffffffffffffffffffffffffffff191684179055815133815291517f8918da6429714f0e9c40ae7f270773e27fc8caf7a256e19807f859563b7514de9281900390910190a250565b60028054829081106200067357fe5b600091825260209091200154600160a060020a0316905081565b60008054600160a060020a03163314620006a657600080fd5b600160a060020a038216600090815260016020908152604091829020548251606081018452602281527f5461726765742061646472657373206d75737420626520617574686f72697a65928101929092527f642e000000000000000000000000000000000000000000000000000000000000928201929092529060ff161515620007775760405160e560020a62461bcd02815260040180806020018281038252838181518152602001915080519060200190808383600083811015620003b75781810151838201526020016200039d565b5050600160a060020a0381166000908152600160205260408120805460ff191690555b600254811015620008af5781600160a060020a0316600282815481101515620007bf57fe5b600091825260209091200154600160a060020a03161415620008a657600280546000198101908110620007ee57fe5b60009182526020909120015460028054600160a060020a0390921691839081106200081557fe5b6000918252602090912001805473ffffffffffffffffffffffffffffffffffffffff1916600160a060020a039290921691909117905560028054600019019062000860908262000d4d565b50604080513381529051600160a060020a038416917f1f32c1b084e2de0713b8fb16bd46bb9df710a3dbeae2f3ca93af46e016dcc6b0919081900360200190a2620008af565b6001016200079a565b5050565b600054600160a060020a03163314620008cb57600080fd5b60008054604051600160a060020a03909116917ff8df31144d9c2f0f6b59d69b8b98abd5459d07f2742c4df920b25aae33c6482091a26000805473ffffffffffffffffffffffffffffffffffffffff19169055565b600054600160a060020a031681565b600054600160a060020a031633146200094757600080fd5b6003805473ffffffffffffffffffffffffffffffffffffffff1916600160a060020a0392909216919091179055565b600054600160a060020a031633146200098e57600080fd5b60025460408051606081018252602781527f53706563696669656420617272617920696e646578206973206f7574206f662060208201527f626f756e64732e000000000000000000000000000000000000000000000000009181019190915290821062000a425760405160e560020a62461bcd02815260040180806020018281038252838181518152602001915080519060200190808383600083811015620003b75781810151838201526020016200039d565b5081600160a060020a031660028281548110151562000a5d57fe5b6000918252602091829020015460408051606081018252602d81527f4164647265737320666f756e6420617420696e64657820646f6573206e6f7420938101939093527f6d61746368207461726765742e00000000000000000000000000000000000000908301529091600160a060020a039091161462000b255760405160e560020a62461bcd02815260040180806020018281038252838181518152602001915080519060200190808383600083811015620003b75781810151838201526020016200039d565b50600160a060020a0382166000908152600160205260409020805460ff1916905560028054600019810190811062000b5957fe5b60009182526020909120015460028054600160a060020a03909216918390811062000b8057fe5b6000918252602090912001805473ffffffffffffffffffffffffffffffffffffffff1916600160a060020a039290921691909117905560028054600019019062000bcb908262000d4d565b50604080513381529051600160a060020a038416917f1f32c1b084e2de0713b8fb16bd46bb9df710a3dbeae2f3ca93af46e016dcc6b0919081900360200190a25050565b60016020526000908152604090205460ff1681565b6060600280548060200260200160405190810160405280929190818152602001828054801562000c7e57602002820191906000526020600020905b8154600160a060020a0316815260019091019060200180831162000c5f575b505050505090505b90565b600354600160a060020a031681565b600054600160a060020a0316331462000cb057600080fd5b62000cbb8162000cbe565b50565b600160a060020a038116151562000cd457600080fd5b60008054604051600160a060020a03808516939216917f8be0079c531659141344cd1fd0a4f28419497f9722a3daafe3b4186f6b6457e091a36000805473ffffffffffffffffffffffffffffffffffffffff1916600160a060020a0392909216919091179055565b6040516114288062000d9b83390190565b81548183558181111562000d745760008381526020902062000d7491810190830162000d79565b505050565b62000c8691905b8082111562000d96576000815560010162000d80565b5090560060806040523480156200001157600080fd5b5060405162001428380380620014288339810160409081528151602080840151928401516060850151608086015160a087015190870180519597968701969384019592949093919091019160009182918291829182918891889160129162000080916003919086019062000533565b5081516200009690600490602085019062000533565b506005805460ff191660ff92909216919091179055505060008811620000bb57600080fd5b8951600010620000ca57600080fd5b8851600010620000d957600080fd5b88518a5114620000e857600080fd5b60129450600092505b8851831015620004285788838151811015156200010a57fe5b602090810290910101519150600082116200012457600080fd5b89838151811015156200013357fe5b602090810290910101519050600160a060020a03811615156200015557600080fd5b80600160a060020a031660405180807f646563696d616c73282900000000000000000000000000000000000000000000815250600a01905060405180910390207c010000000000000000000000000000000000000000000000000000000090046040518163ffffffff167c01000000000000000000000000000000000000000000000000000000000281526004016000604051808303816000875af19250505015620002a25780600160a060020a031663313ce5676040518163ffffffff167c0100000000000000000000000000000000000000000000000000000000028152600401602060405180830381600087803b1580156200025357600080fd5b505af115801562000268573d6000803e3d6000fd5b505050506040513d60208110156200027f57600080fd5b5051935060ff808616908516106200029857846200029a565b835b9450620002a7565b600094505b620002bb8164010000000062000477810204565b15620002c657600080fd5b600160086000836040516020018082600160a060020a0316600160a060020a03166c010000000000000000000000000281526014019150506040516020818303038152906040526040518082805190602001908083835b602083106200033e5780518252601f1990920191602091820191016200031d565b51815160209384036101000a60001901801990921691161790526040805192909401829003909120865285810196909652509283016000908120805460ff19169615159690961790955550508051808201909152600160a060020a03848116825291810185815260078054600181810183559190955291517fa66cc928b5edb82af9bd49922954155ab7b0942694bea4ce44661d9a8736c68860029095029485018054600160a060020a031916919094161790925590517fa66cc928b5edb82af9bd49922954155ab7b0942694bea4ce44661d9a8736c689909201919091559290920191620000f1565b60ff601286900316600a0a8810156200044057600080fd5b505060098054600160a060020a031916600160a060020a039a909a169990991790985550505060069190915550620005d892505050565b600060086000836040516020018082600160a060020a0316600160a060020a03166c010000000000000000000000000281526014019150506040516020818303038152906040526040518082805190602001908083835b60208310620004ef5780518252601f199092019160209182019101620004ce565b51815160209384036101000a600019018019909216911617905260408051929094018290039091208652850195909552929092016000205460ff1695945050505050565b828054600181600116156101000203166002900490600052602060002090601f016020900481019282601f106200057657805160ff1916838001178555620005a6565b82800160010185558215620005a6579182015b82811115620005a657825182559160200191906001019062000589565b50620005b4929150620005b8565b5090565b620005d591905b80821115620005b45760008155600101620005bf565b90565b610e4080620005e86000396000f3006080604052600436106100e25763ffffffff60e060020a600035041663027aa9f581146100e757806306fdde031461014c578063095ea7b3146101d657806318160ddd1461020e57806323b872dd14610235578063313ce5671461025f57806340c10f191461028a57806342a7cfd5146102b057806366188463146102c557806370a08231146102e957806395d89b411461030a57806399d50d5d1461031f5780639dc29fac14610334578063a9059cbb14610358578063c45a01551461037c578063c5d574fe146103ad578063d73dd623146103e8578063dd62ed3e1461040c575b600080fd5b3480156100f357600080fd5b506100fc610433565b60408051602080825283518183015283519192839290830191858101910280838360005b83811015610138578181015183820152602001610120565b505050509050019250505060405180910390f35b34801561015857600080fd5b506101616104bf565b6040805160208082528351818301528351919283929083019185019080838360005b8381101561019b578181015183820152602001610183565b50505050905090810190601f1680156101c85780820380516001836020036101000a031916815260200191505b509250505060405180910390f35b3480156101e257600080fd5b506101fa600160a060020a036004351660243561054d565b604080519115158252519081900360200190f35b34801561021a57600080fd5b506102236105b3565b60408051918252519081900360200190f35b34801561024157600080fd5b506101fa600160a060020a03600435811690602435166044356105b9565b34801561026b57600080fd5b506102746105f9565b6040805160ff9092168252519081900360200190f35b34801561029657600080fd5b506102ae600160a060020a0360043516602435610602565b005b3480156102bc57600080fd5b506102236106f1565b3480156102d157600080fd5b506101fa600160a060020a03600435166024356106f7565b3480156102f557600080fd5b50610223600160a060020a03600435166107e7565b34801561031657600080fd5b50610161610802565b34801561032b57600080fd5b506100fc61085d565b34801561034057600080fd5b506102ae600160a060020a03600435166024356108fb565b34801561036457600080fd5b506101fa600160a060020a0360043516602435610a50565b34801561038857600080fd5b50610391610a8e565b60408051600160a060020a039092168252519081900360200190f35b3480156103b957600080fd5b506103c5600435610a9d565b60408051600160a060020a03909316835260208301919091528051918290030190f35b3480156103f457600080fd5b506101fa600160a060020a0360043516602435610ad3565b34801561041857600080fd5b50610223600160a060020a0360043581169060243516610b6c565b6060806000600780549050604051908082528060200260200182016040528015610467578160200160208202803883390190505b509150600090505b6007548110156104b957600780548290811061048757fe5b90600052602060002090600202016001015482828151811015156104a757fe5b6020908102909101015260010161046f565b50919050565b6003805460408051602060026001851615610100026000190190941693909304601f810184900484028201840190925281815292918301828280156105455780601f1061051a57610100808354040283529160200191610545565b820191906000526020600020905b81548152906001019060200180831161052857829003601f168201915b505050505081565b336000818152600260209081526040808320600160a060020a038716808552908352818420869055815186815291519394909390927f8c5be1e5ebec7d5bd14f71427d1e84f3dd0314c0f7b2291e5b200ac8c7c3b925928290030190a350600192915050565b60015490565b6000600160a060020a03831615156105d057600080fd5b600160a060020a0383163014156105e657600080fd5b6105f1848484610b97565b949350505050565b60055460ff1681565b600960009054906101000a9004600160a060020a0316600160a060020a031663f2f4eb266040518163ffffffff1660e060020a028152600401602060405180830381600087803b15801561065557600080fd5b505af1158015610669573d6000803e3d6000fd5b505050506040513d602081101561067f57600080fd5b5051600160a060020a0316331461069557600080fd5b600160a060020a0382166000908152602081905260409020546106be908263ffffffff610d0e16565b600160a060020a0383166000908152602081905260409020556001546106ea908263ffffffff610d0e16565b6001555050565b60065481565b336000908152600260209081526040808320600160a060020a03861684529091528120548083111561074c57336000908152600260209081526040808320600160a060020a0388168452909152812055610781565b61075c818463ffffffff610d2116565b336000908152600260209081526040808320600160a060020a03891684529091529020555b336000818152600260209081526040808320600160a060020a0389168085529083529281902054815190815290519293927f8c5be1e5ebec7d5bd14f71427d1e84f3dd0314c0f7b2291e5b200ac8c7c3b925929181900390910190a35060019392505050565b600160a060020a031660009081526020819052604090205490565b6004805460408051602060026001851615610100026000190190941693909304601f810184900484028201840190925281815292918301828280156105455780601f1061051a57610100808354040283529160200191610545565b6060806000600780549050604051908082528060200260200182016040528015610891578160200160208202803883390190505b509150600090505b6007548110156104b95760078054829081106108b157fe5b60009182526020909120600290910201548251600160a060020a03909116908390839081106108dc57fe5b600160a060020a03909216602092830290910190910152600101610899565b600960009054906101000a9004600160a060020a0316600160a060020a031663f2f4eb266040518163ffffffff1660e060020a028152600401602060405180830381600087803b15801561094e57600080fd5b505af1158015610962573d6000803e3d6000fd5b505050506040513d602081101561097857600080fd5b5051600160a060020a0316331461098e57600080fd5b600160a060020a0382166000908152602081905260409020548111156109b357600080fd5b600160a060020a0382166000908152602081905260409020546109dc908263ffffffff610d2116565b600160a060020a038316600090815260208190526040902055600154610a08908263ffffffff610d2116565b600155604080518281529051600091600160a060020a038516917fddf252ad1be2c89b69c2b068fc378daa952ba7f163c4a11628f55a4df523b3ef9181900360200190a35050565b6000600160a060020a0383161515610a6757600080fd5b600160a060020a038316301415610a7d57600080fd5b610a878383610d33565b9392505050565b600954600160a060020a031681565b6007805482908110610aab57fe5b600091825260209091206002909102018054600190910154600160a060020a03909116915082565b336000908152600260209081526040808320600160a060020a0386168452909152812054610b07908363ffffffff610d0e16565b336000818152600260209081526040808320600160a060020a0389168085529083529281902085905580519485525191937f8c5be1e5ebec7d5bd14f71427d1e84f3dd0314c0f7b2291e5b200ac8c7c3b925929081900390910190a350600192915050565b600160a060020a03918216600090815260026020908152604080832093909416825291909152205490565b6000600160a060020a0383161515610bae57600080fd5b600160a060020a038416600090815260208190526040902054821115610bd357600080fd5b600160a060020a0384166000908152600260209081526040808320338452909152902054821115610c0357600080fd5b600160a060020a038416600090815260208190526040902054610c2c908363ffffffff610d2116565b600160a060020a038086166000908152602081905260408082209390935590851681522054610c61908363ffffffff610d0e16565b600160a060020a03808516600090815260208181526040808320949094559187168152600282528281203382529091522054610ca3908363ffffffff610d2116565b600160a060020a03808616600081815260026020908152604080832033845282529182902094909455805186815290519287169391927fddf252ad1be2c89b69c2b068fc378daa952ba7f163c4a11628f55a4df523b3ef929181900390910190a35060019392505050565b81810182811015610d1b57fe5b92915050565b600082821115610d2d57fe5b50900390565b6000600160a060020a0383161515610d4a57600080fd5b33600090815260208190526040902054821115610d6657600080fd5b33600090815260208190526040902054610d86908363ffffffff610d2116565b3360009081526020819052604080822092909255600160a060020a03851681522054610db8908363ffffffff610d0e16565b600160a060020a038416600081815260208181526040918290209390935580518581529051919233927fddf252ad1be2c89b69c2b068fc378daa952ba7f163c4a11628f55a4df523b3ef9281900390910190a3506001929150505600a165627a7a72305820eda6de5ac5930b327dec86229b363d46ec07bce1c33ed5b3d2dad21530da5f760029a165627a7a723058208837dc5e9ac779809b9ad30266176cf1e650b5130dbecbf7e15d9ad7c1da456f0029",
  "source": "/*\n    Copyright 2018 Set Labs Inc.\n\n    Licensed under the Apache License, Version 2.0 (the \"License\");\n    you may not use this file except in compliance with the License.\n    You may obtain a copy of the License at\n\n    http://www.apache.org/licenses/LICENSE-2.0\n\n    Unless required by applicable law or agreed to in writing, software\n    distributed under the License is distributed on an \"AS IS\" BASIS,\n    WITHOUT WARRANTIES OR CONDITIONS OF ANY KIND, either express or implied.\n    See the License for the specific language governing permissions and\n    limitations under the License.\n*/\n\npragma solidity 0.4.24;\n\nimport { Authorizable } from \"../lib/Authorizable.sol\";\nimport { SetToken } from \"./SetToken.sol\";\n\n\n/**\n * @title SetTokenFactory\n * @author Set Protocol\n *\n * SetTokenFactory is a smart contract used to deploy new SetToken contracts.\n * SetTokens deployed by the factory can only have their mint and burn functions\n * called by Core\n */\ncontract SetTokenFactory\n  is Authorizable\n{\n    /* ============ State Variables ============ */\n\n    // Address of the Core contract\n    address public core;\n\n    /* ============ Setter Functions ============ */\n\n    /**\n     * Set core. Can only be set by owner of SetTokenFactory's owner.\n     *\n     * @param  _core   The address of deployed core contract\n     */\n    function setCoreAddress(\n        address _core\n    )\n        external\n        onlyOwner\n    {\n        // Commit passed address to vaultAddress state variable\n        core = _core;\n    }\n\n    /* ============ Public Functions ============ */\n\n    /**\n     * Deploys a new SetToken contract.\n     * Can only be called by authorized core contracts.\n     *\n     * @param  _components     The address of component tokens\n     * @param  _units          The units of each component token\n     * @param  _naturalUnit    The minimum unit to be issued or redeemed\n     * @param  _name           The name of the new Set\n     * @param  _symbol         The symbol of the new Set\n     * @return setToken        The address of the newly created SetToken\n     */\n    function create(\n        address[] _components,\n        uint256[] _units,\n        uint256 _naturalUnit,\n        string _name,\n        string _symbol\n    )\n        external\n        onlyAuthorized\n        returns (address)\n    {\n        // Create a new SetToken contract\n        return new SetToken(\n            this,\n            _components,\n            _units,\n            _naturalUnit,\n            _name,\n            _symbol\n        );\n    }\n}\n",
  "sourcePath": "/Users/justinkchen/workspace/set-protocol-contracts/contracts/core/SetTokenFactory.sol",
  "compiler": {
    "name": "solc",
    "version": "0.4.24+commit.e67f0147.Emscripten.clang"
  },
  "schemaVersion": "2.0.0",
  "updatedAt": "2018-08-10T03:42:05.680Z"
}