{
  "contractName": "SetToken",
  "abi": [
    {
      "constant": true,
      "inputs": [],
      "name": "name",
      "outputs": [
        {
          "name": "",
          "type": "string"
        }
      ],
      "payable": false,
      "stateMutability": "view",
      "type": "function"
    },
    {
      "constant": false,
      "inputs": [
        {
          "name": "_spender",
          "type": "address"
        },
        {
          "name": "_value",
          "type": "uint256"
        }
      ],
      "name": "approve",
      "outputs": [
        {
          "name": "",
          "type": "bool"
        }
      ],
      "payable": false,
      "stateMutability": "nonpayable",
      "type": "function"
    },
    {
      "constant": true,
      "inputs": [],
      "name": "totalSupply",
      "outputs": [
        {
          "name": "",
          "type": "uint256"
        }
      ],
      "payable": false,
      "stateMutability": "view",
      "type": "function"
    },
    {
      "constant": true,
      "inputs": [],
      "name": "decimals",
      "outputs": [
        {
          "name": "",
          "type": "uint8"
        }
      ],
      "payable": false,
      "stateMutability": "view",
      "type": "function"
    },
    {
      "constant": true,
      "inputs": [],
      "name": "naturalUnit",
      "outputs": [
        {
          "name": "",
          "type": "uint256"
        }
      ],
      "payable": false,
      "stateMutability": "view",
      "type": "function"
    },
    {
      "constant": false,
      "inputs": [
        {
          "name": "_spender",
          "type": "address"
        },
        {
          "name": "_subtractedValue",
          "type": "uint256"
        }
      ],
      "name": "decreaseApproval",
      "outputs": [
        {
          "name": "",
          "type": "bool"
        }
      ],
      "payable": false,
      "stateMutability": "nonpayable",
      "type": "function"
    },
    {
      "constant": true,
      "inputs": [
        {
          "name": "_owner",
          "type": "address"
        }
      ],
      "name": "balanceOf",
      "outputs": [
        {
          "name": "",
          "type": "uint256"
        }
      ],
      "payable": false,
      "stateMutability": "view",
      "type": "function"
    },
    {
      "constant": true,
      "inputs": [],
      "name": "symbol",
      "outputs": [
        {
          "name": "",
          "type": "string"
        }
      ],
      "payable": false,
      "stateMutability": "view",
      "type": "function"
    },
    {
      "constant": true,
      "inputs": [],
      "name": "factory",
      "outputs": [
        {
          "name": "",
          "type": "address"
        }
      ],
      "payable": false,
      "stateMutability": "view",
      "type": "function"
    },
    {
      "constant": true,
      "inputs": [
        {
          "name": "",
          "type": "uint256"
        }
      ],
      "name": "components",
      "outputs": [
        {
          "name": "address_",
          "type": "address"
        },
        {
          "name": "unit_",
          "type": "uint256"
        }
      ],
      "payable": false,
      "stateMutability": "view",
      "type": "function"
    },
    {
      "constant": false,
      "inputs": [
        {
          "name": "_spender",
          "type": "address"
        },
        {
          "name": "_addedValue",
          "type": "uint256"
        }
      ],
      "name": "increaseApproval",
      "outputs": [
        {
          "name": "",
          "type": "bool"
        }
      ],
      "payable": false,
      "stateMutability": "nonpayable",
      "type": "function"
    },
    {
      "constant": true,
      "inputs": [
        {
          "name": "_owner",
          "type": "address"
        },
        {
          "name": "_spender",
          "type": "address"
        }
      ],
      "name": "allowance",
      "outputs": [
        {
          "name": "",
          "type": "uint256"
        }
      ],
      "payable": false,
      "stateMutability": "view",
      "type": "function"
    },
    {
      "inputs": [
        {
          "name": "_factory",
          "type": "address"
        },
        {
          "name": "_components",
          "type": "address[]"
        },
        {
          "name": "_units",
          "type": "uint256[]"
        },
        {
          "name": "_naturalUnit",
          "type": "uint256"
        },
        {
          "name": "_name",
          "type": "string"
        },
        {
          "name": "_symbol",
          "type": "string"
        }
      ],
      "payable": false,
      "stateMutability": "nonpayable",
      "type": "constructor"
    },
    {
      "anonymous": false,
      "inputs": [
        {
          "indexed": true,
          "name": "owner",
          "type": "address"
        },
        {
          "indexed": true,
          "name": "spender",
          "type": "address"
        },
        {
          "indexed": false,
          "name": "value",
          "type": "uint256"
        }
      ],
      "name": "Approval",
      "type": "event"
    },
    {
      "anonymous": false,
      "inputs": [
        {
          "indexed": true,
          "name": "from",
          "type": "address"
        },
        {
          "indexed": true,
          "name": "to",
          "type": "address"
        },
        {
          "indexed": false,
          "name": "value",
          "type": "uint256"
        }
      ],
      "name": "Transfer",
      "type": "event"
    },
    {
      "constant": false,
      "inputs": [
        {
          "name": "_issuer",
          "type": "address"
        },
        {
          "name": "_quantity",
          "type": "uint256"
        }
      ],
      "name": "mint",
      "outputs": [],
      "payable": false,
      "stateMutability": "nonpayable",
      "type": "function"
    },
    {
      "constant": false,
      "inputs": [
        {
          "name": "_from",
          "type": "address"
        },
        {
          "name": "_quantity",
          "type": "uint256"
        }
      ],
      "name": "burn",
      "outputs": [],
      "payable": false,
      "stateMutability": "nonpayable",
      "type": "function"
    },
    {
      "constant": true,
      "inputs": [],
      "name": "getComponents",
      "outputs": [
        {
          "name": "",
          "type": "address[]"
        }
      ],
      "payable": false,
      "stateMutability": "view",
      "type": "function"
    },
    {
      "constant": true,
      "inputs": [],
      "name": "getUnits",
      "outputs": [
        {
          "name": "",
          "type": "uint256[]"
        }
      ],
      "payable": false,
      "stateMutability": "view",
      "type": "function"
    },
    {
      "constant": false,
      "inputs": [
        {
          "name": "_to",
          "type": "address"
        },
        {
          "name": "_value",
          "type": "uint256"
        }
      ],
      "name": "transfer",
      "outputs": [
        {
          "name": "",
          "type": "bool"
        }
      ],
      "payable": false,
      "stateMutability": "nonpayable",
      "type": "function"
    },
    {
      "constant": false,
      "inputs": [
        {
          "name": "_from",
          "type": "address"
        },
        {
          "name": "_to",
          "type": "address"
        },
        {
          "name": "_value",
          "type": "uint256"
        }
      ],
      "name": "transferFrom",
      "outputs": [
        {
          "name": "",
          "type": "bool"
        }
      ],
      "payable": false,
      "stateMutability": "nonpayable",
      "type": "function"
    }
  ],
  "bytecode": "0x60806040523480156200001157600080fd5b5060405162001bef38038062001bef8339810160409081528151602080840151928401516060850151608086015160a087015190870180519597968701969384019592949093919091019160009182918291829182918891889160129162000080916003919086019062000a62565b5081516200009690600490602085019062000a62565b506005805460ff191660ff92909216919091179055505060408051606081018252602381527f5175616e74697479206d7573742062652067726561746572207468616e207a6560208201527f726f2e000000000000000000000000000000000000000000000000000000000091810191909152889060008211620001b5576040517f08c379a00000000000000000000000000000000000000000000000000000000081526004018080602001828103825283818151815260200191508051906020019080838360005b83811015620001795781810151838201526020016200015f565b50505050905090810190601f168015620001a75780820380516001836020036101000a031916815260200191505b509250505060405180910390fd5b508a8a60008251116040805190810160405280601d81526020017f436f6d706f6e656e7473206d757374206e6f7420626520656d7074792e0000008152509015156200025f576040517f08c379a000000000000000000000000000000000000000000000000000000000815260040180806020018281038252838181518152602001915080519060200190808383600083811015620001795781810151838201526020016200015f565b50805160408051808201909152601881527f556e697473206d757374206e6f7420626520656d7074792e000000000000000060208201529060001062000303576040517f08c379a000000000000000000000000000000000000000000000000000000000815260040180806020018281038252838181518152602001915080519060200190808383600083811015620001795781810151838201526020016200015f565b508051825160408051606081018252602d81527f436f6d706f6e656e747320616e6420756e697473206d7573742062652074686560208201527f2073616d65206c656e6774682e00000000000000000000000000000000000000918101919091529114620003cf576040517f08c379a000000000000000000000000000000000000000000000000000000000815260040180806020018281038252838181518152602001915080519060200190808383600083811015620001795781810151838201526020016200015f565b5060129750600095505b8b518661ffff16101562000898578b8661ffff16815181101515620003fa57fe5b90602001906020020151945060008511606060405190810160405280602381526020017f556e6974206465636c61726174696f6e73206d757374206265206e6f6e2d7a6581526020017f726f2e0000000000000000000000000000000000000000000000000000000000815250901515620004d3576040517f08c379a000000000000000000000000000000000000000000000000000000000815260040180806020018281038252838181518152602001915080519060200190808383600083811015620001795781810151838201526020016200015f565b508c8661ffff16815181101515620004e757fe5b602090810290910181015160408051606081018252602681527f436f6d706f6e656e7473206d7573742068617665206e6f6e2d7a65726f206164938101939093527f64726573732e0000000000000000000000000000000000000000000000000000908301529450600160a060020a0385161515620005c4576040517f08c379a000000000000000000000000000000000000000000000000000000000815260040180806020018281038252838181518152602001915080519060200190808383600083811015620001795781810151838201526020016200015f565b5083600160a060020a031660405180807f646563696d616c73282900000000000000000000000000000000000000000000815250600a01905060405180910390207c010000000000000000000000000000000000000000000000000000000090046040518163ffffffff167c01000000000000000000000000000000000000000000000000000000000281526004016000604051808303816000875af19250505015620007125783600160a060020a031663313ce5676040518163ffffffff167c0100000000000000000000000000000000000000000000000000000000028152600401602060405180830381600087803b158015620006c357600080fd5b505af1158015620006d8573d6000803e3d6000fd5b505050506040513d6020811015620006ef57600080fd5b5051965060ff808916908816106200070857876200070a565b865b975062000717565b600097505b6200072b84640100000000620009a6810204565b156200073657600080fd5b600160086000866040516020018082600160a060020a0316600160a060020a03166c010000000000000000000000000281526014019150506040516020818303038152906040526040518082805190602001908083835b60208310620007ae5780518252601f1990920191602091820191016200078d565b51815160209384036101000a60001901801990921691161790526040805192909401829003909120865285810196909652509283016000908120805460ff19169615159690961790955550508051808201909152600160a060020a03878116825291810188815260078054600181810183559190955291517fa66cc928b5edb82af9bd49922954155ab7b0942694bea4ce44661d9a8736c68860029095029485018054600160a060020a031916919094161790925590517fa66cc928b5edb82af9bd49922954155ab7b0942694bea4ce44661d9a8736c689909201919091559590950194620003d9565b60408051606081018252603381527f4e61747572616c20756e697420646f6573206e6f7420776f726b20776974682060208201527f636f6d706f6e656e7420646563696d616c732e000000000000000000000000009181019190915260ff60128a900316600a0a8c10156200096b576040517f08c379a000000000000000000000000000000000000000000000000000000000815260040180806020018281038252838181518152602001915080519060200190808383600083811015620001795781810151838201526020016200015f565b505060098054600160a060020a031916600160a060020a039e909e169d909d17909c555050506006959095555062000b079650505050505050565b600060086000836040516020018082600160a060020a0316600160a060020a03166c010000000000000000000000000281526014019150506040516020818303038152906040526040518082805190602001908083835b6020831062000a1e5780518252601f199092019160209182019101620009fd565b51815160209384036101000a600019018019909216911617905260408051929094018290039091208652850195909552929092016000205460ff1695945050505050565b828054600181600116156101000203166002900490600052602060002090601f016020900481019282601f1062000aa557805160ff191683800117855562000ad5565b8280016001018555821562000ad5579182015b8281111562000ad557825182559160200191906001019062000ab8565b5062000ae392915062000ae7565b5090565b62000b0491905b8082111562000ae3576000815560010162000aee565b90565b6110d88062000b176000396000f3006080604052600436106100e25763ffffffff60e060020a600035041663027aa9f581146100e757806306fdde031461014c578063095ea7b3146101d657806318160ddd1461020e57806323b872dd14610235578063313ce5671461025f57806340c10f191461028a57806342a7cfd5146102b057806366188463146102c557806370a08231146102e957806395d89b411461030a57806399d50d5d1461031f5780639dc29fac14610334578063a9059cbb14610358578063c45a01551461037c578063c5d574fe146103ad578063d73dd623146103e8578063dd62ed3e1461040c575b600080fd5b3480156100f357600080fd5b506100fc610433565b60408051602080825283518183015283519192839290830191858101910280838360005b83811015610138578181015183820152602001610120565b505050509050019250505060405180910390f35b34801561015857600080fd5b506101616104cb565b6040805160208082528351818301528351919283929083019185019080838360005b8381101561019b578181015183820152602001610183565b50505050905090810190601f1680156101c85780820380516001836020036101000a031916815260200191505b509250505060405180910390f35b3480156101e257600080fd5b506101fa600160a060020a0360043516602435610559565b604080519115158252519081900360200190f35b34801561021a57600080fd5b506102236105bf565b60408051918252519081900360200190f35b34801561024157600080fd5b506101fa600160a060020a03600435811690602435166044356105c5565b34801561026b57600080fd5b50610274610607565b6040805160ff9092168252519081900360200190f35b34801561029657600080fd5b506102ae600160a060020a0360043516602435610610565b005b3480156102bc57600080fd5b506102236107f6565b3480156102d157600080fd5b506101fa600160a060020a03600435166024356107fc565b3480156102f557600080fd5b50610223600160a060020a03600435166108ec565b34801561031657600080fd5b50610161610907565b34801561032b57600080fd5b506100fc610962565b34801561034057600080fd5b506102ae600160a060020a0360043516602435610a0c565b34801561036457600080fd5b506101fa600160a060020a0360043516602435610ce6565b34801561038857600080fd5b50610391610d26565b60408051600160a060020a039092168252519081900360200190f35b3480156103b957600080fd5b506103c5600435610d35565b60408051600160a060020a03909316835260208301919091528051918290030190f35b3480156103f457600080fd5b506101fa600160a060020a0360043516602435610d6b565b34801561041857600080fd5b50610223600160a060020a0360043581169060243516610e04565b6060806000600780549050604051908082528060200260200182016040528015610467578160200160208202803883390190505b509150600090505b60075461ffff821610156104c5576007805461ffff831690811061048f57fe5b906000526020600020906002020160010154828261ffff168151811015156104b357fe5b6020908102909101015260010161046f565b50919050565b6003805460408051602060026001851615610100026000190190941693909304601f810184900484028201840190925281815292918301828280156105515780601f1061052657610100808354040283529160200191610551565b820191906000526020600020905b81548152906001019060200180831161053457829003601f168201915b505050505081565b336000818152600260209081526040808320600160a060020a038716808552908352818420869055815186815291519394909390927f8c5be1e5ebec7d5bd14f71427d1e84f3dd0314c0f7b2291e5b200ac8c7c3b925928290030190a350600192915050565b60015490565b600082600160a060020a03811615156105dd57600080fd5b600160a060020a0381163014156105f357600080fd5b6105fe858585610e2f565b95945050505050565b60055460ff1681565b600960009054906101000a9004600160a060020a0316600160a060020a031663f2f4eb266040518163ffffffff1660e060020a028152600401602060405180830381600087803b15801561066357600080fd5b505af1158015610677573d6000803e3d6000fd5b505050506040513d602081101561068d57600080fd5b505160408051606081018252603181527f53656e646572206973206e6f74207065726d697474656420746f20706572666f60208201527f726d20746869732066756e6374696f6e2e0000000000000000000000000000009181019190915290600160a060020a03163314610799576040517f08c379a00000000000000000000000000000000000000000000000000000000081526004018080602001828103825283818151815260200191508051906020019080838360005b8381101561075e578181015183820152602001610746565b50505050905090810190601f16801561078b5780820380516001836020036101000a031916815260200191505b509250505060405180910390fd5b50600160a060020a0382166000908152602081905260409020546107c3908263ffffffff610fa616565b600160a060020a0383166000908152602081905260409020556001546107ef908263ffffffff610fa616565b6001555050565b60065481565b336000908152600260209081526040808320600160a060020a03861684529091528120548083111561085157336000908152600260209081526040808320600160a060020a0388168452909152812055610886565b610861818463ffffffff610fb916565b336000908152600260209081526040808320600160a060020a03891684529091529020555b336000818152600260209081526040808320600160a060020a0389168085529083529281902054815190815290519293927f8c5be1e5ebec7d5bd14f71427d1e84f3dd0314c0f7b2291e5b200ac8c7c3b925929181900390910190a35060019392505050565b600160a060020a031660009081526020819052604090205490565b6004805460408051602060026001851615610100026000190190941693909304601f810184900484028201840190925281815292918301828280156105515780601f1061052657610100808354040283529160200191610551565b6060806000600780549050604051908082528060200260200182016040528015610996578160200160208202803883390190505b509150600090505b60075461ffff821610156104c5576007805461ffff83169081106109be57fe5b60009182526020909120600290910201548251600160a060020a0390911690839061ffff84169081106109ed57fe5b600160a060020a0390921660209283029091019091015260010161099e565b600960009054906101000a9004600160a060020a0316600160a060020a031663f2f4eb266040518163ffffffff1660e060020a028152600401602060405180830381600087803b158015610a5f57600080fd5b505af1158015610a73573d6000803e3d6000fd5b505050506040513d6020811015610a8957600080fd5b505160408051606081018252603181527f53656e646572206973206e6f74207065726d697474656420746f20706572666f60208201527f726d20746869732066756e6374696f6e2e0000000000000000000000000000009181019190915290600160a060020a03163314610b59576040517f08c379a00000000000000000000000000000000000000000000000000000000081526004018080602001828103825283818151815260200191508051906020019080838360008381101561075e578181015183820152602001610746565b5060408051606081018252602381527f5175616e74697479206d7573742062652067726561746572207468616e207a6560208201527f726f2e000000000000000000000000000000000000000000000000000000000091810191909152819060008211610c22576040517f08c379a00000000000000000000000000000000000000000000000000000000081526004018080602001828103825283818151815260200191508051906020019080838360008381101561075e578181015183820152602001610746565b50600160a060020a038316600090815260208190526040902054821115610c4857600080fd5b600160a060020a038316600090815260208190526040902054610c71908363ffffffff610fb916565b600160a060020a038416600090815260208190526040902055600154610c9d908363ffffffff610fb916565b600155604080518381529051600091600160a060020a038616917fddf252ad1be2c89b69c2b068fc378daa952ba7f163c4a11628f55a4df523b3ef9181900360200190a3505050565b600082600160a060020a0381161515610cfe57600080fd5b600160a060020a038116301415610d1457600080fd5b610d1e8484610fcb565b949350505050565b600954600160a060020a031681565b6007805482908110610d4357fe5b600091825260209091206002909102018054600190910154600160a060020a03909116915082565b336000908152600260209081526040808320600160a060020a0386168452909152812054610d9f908363ffffffff610fa616565b336000818152600260209081526040808320600160a060020a0389168085529083529281902085905580519485525191937f8c5be1e5ebec7d5bd14f71427d1e84f3dd0314c0f7b2291e5b200ac8c7c3b925929081900390910190a350600192915050565b600160a060020a03918216600090815260026020908152604080832093909416825291909152205490565b6000600160a060020a0383161515610e4657600080fd5b600160a060020a038416600090815260208190526040902054821115610e6b57600080fd5b600160a060020a0384166000908152600260209081526040808320338452909152902054821115610e9b57600080fd5b600160a060020a038416600090815260208190526040902054610ec4908363ffffffff610fb916565b600160a060020a038086166000908152602081905260408082209390935590851681522054610ef9908363ffffffff610fa616565b600160a060020a03808516600090815260208181526040808320949094559187168152600282528281203382529091522054610f3b908363ffffffff610fb916565b600160a060020a03808616600081815260026020908152604080832033845282529182902094909455805186815290519287169391927fddf252ad1be2c89b69c2b068fc378daa952ba7f163c4a11628f55a4df523b3ef929181900390910190a35060019392505050565b81810182811015610fb357fe5b92915050565b600082821115610fc557fe5b50900390565b6000600160a060020a0383161515610fe257600080fd5b33600090815260208190526040902054821115610ffe57600080fd5b3360009081526020819052604090205461101e908363ffffffff610fb916565b3360009081526020819052604080822092909255600160a060020a03851681522054611050908363ffffffff610fa616565b600160a060020a038416600081815260208181526040918290209390935580518581529051919233927fddf252ad1be2c89b69c2b068fc378daa952ba7f163c4a11628f55a4df523b3ef9281900390910190a3506001929150505600a165627a7a72305820fb865df181d5de43fdff4774a7c3fc2274ac9841ace581ce49332552f0f7e42c0029",
  "source": "/*\n    Copyright 2018 Set Labs Inc.\n\n    Licensed under the Apache License, Version 2.0 (the \"License\");\n    you may not use this file except in compliance with the License.\n    You may obtain a copy of the License at\n\n    http://www.apache.org/licenses/LICENSE-2.0\n\n    Unless required by applicable law or agreed to in writing, software\n    distributed under the License is distributed on an \"AS IS\" BASIS,\n    WITHOUT WARRANTIES OR CONDITIONS OF ANY KIND, either express or implied.\n    See the License for the specific language governing permissions and\n    limitations under the License.\n*/\n\npragma solidity 0.4.24;\n\n\nimport { DetailedERC20 } from \"zeppelin-solidity/contracts/token/ERC20/DetailedERC20.sol\";\nimport { SafeMath } from \"zeppelin-solidity/contracts/math/SafeMath.sol\";\nimport { StandardToken } from \"zeppelin-solidity/contracts/token/ERC20/StandardToken.sol\";\nimport { ISetFactory } from \"./interfaces/ISetFactory.sol\";\n\n\n/**\n * @title SetToken\n * @author Set Protocol\n *\n * Implementation of the basic {Set} token.\n */\ncontract SetToken is\n    StandardToken,\n    DetailedERC20\n{\n    using SafeMath for uint256;\n\n    /* ============ Constants ============ */\n\n    string constant COMPONENTS_INPUT_MISMATCH = \"Components and units must be the same length.\";\n    string constant COMPONENTS_MISSING = \"Components must not be empty.\";\n    string constant INVALID_COMPONENT_UNIT = \"Unit declarations must be non-zero.\";\n    string constant INVALID_COMPONENT_ADDRESS = \"Components must have non-zero address.\";\n    string constant INVALID_NATURAL_UNIT = \"Natural unit does not work with component decimals.\";\n    string constant INVALID_SENDER = \"Sender is not permitted to perform this function.\";\n    string constant UNITS_MISSING = \"Units must not be empty.\";\n    string constant ZERO_QUANTITY = \"Quantity must be greater than zero.\";\n\n    /* ============ Structs ============ */\n\n    struct Component {\n        address address_;\n        uint unit_;\n    }\n\n    /* ============ State Variables ============ */\n\n    uint public naturalUnit;\n    Component[] public components;\n\n    // Mapping of componentHash to isComponent\n    mapping(bytes32 => bool) internal isComponent;\n\n    // Address of the Factory contract that created the SetToken\n    address public factory;\n\n    /* ============ Modifiers ============ */\n\n    modifier isCore() {\n        require(\n            msg.sender == ISetFactory(factory).core(),\n            INVALID_SENDER\n        );\n        _;\n    }\n\n    // Confirm that all inputs for creating a set are valid\n    modifier areValidCreationParameters(address[] _components, uint[] _units) {\n        // Confirm an empty _components array is not passed\n        require(\n            _components.length > 0,\n            COMPONENTS_MISSING\n        );\n\n        // Confirm an empty _quantities array is not passed\n        require(\n            _units.length > 0,\n            UNITS_MISSING\n        );\n\n        // Confirm there is one quantity for every token address\n        require(\n            _components.length == _units.length,\n            COMPONENTS_INPUT_MISMATCH\n        );\n        _;\n    }\n\n    modifier isPositive(uint _quantity) {\n        // Require quantity passed is greater than 0\n        require(\n            _quantity > 0,\n            ZERO_QUANTITY\n        );\n        _;\n    }\n\n    modifier isValidDestination(address _to) {\n        // Confirm address is not null\n        require(_to != address(0));\n        // Confirm address is not this address\n        require(_to != address(this));\n        _;\n    }\n\n    /* ============ Constructor ============ */\n\n    /**\n     * Constructor function for {Set} token\n     *\n     * As looping operations are expensive, checking for duplicates will be on the onus of the application developer\n     *\n     * @param _factory          A list of component address which you want to include\n     * @param _components       A list of component address which you want to include\n     * @param _units            A list of quantities in gWei of each component (corresponds to the {Set} of _components)\n     * @param _naturalUnit      The minimum multiple of Sets that can be issued or redeeemed\n     * @param _name             The Set's name\n     * @param _symbol           The Set's symbol\n     */\n    constructor(\n        address _factory,\n        address[] _components,\n        uint[] _units,\n        uint _naturalUnit,\n        string _name,\n        string _symbol\n    )\n        public\n        DetailedERC20(_name, _symbol, 18)\n        isPositive(_naturalUnit)\n        areValidCreationParameters(_components, _units)\n    {\n        // NOTE: It will be the onus of developers to check whether the addressExists\n        // are in fact ERC20 addresses\n        uint8 minDecimals = 18;\n        uint8 currentDecimals;\n        for (uint16 i = 0; i < _units.length; i++) {\n            // Check that all units are non-zero. Negative numbers will underflow\n            uint currentUnits = _units[i];\n            require(\n                currentUnits > 0,\n                INVALID_COMPONENT_UNIT\n            );\n\n            // Check that all addresses are non-zero\n            address currentComponent = _components[i];\n            require(\n                currentComponent != address(0),\n                INVALID_COMPONENT_ADDRESS\n            );\n\n            // Figure out which of the components has the minimum decimal value\n            /* solium-disable-next-line security/no-low-level-calls */\n            if (currentComponent.call(bytes4(keccak256(\"decimals()\")))) {\n                currentDecimals = DetailedERC20(currentComponent).decimals();\n                minDecimals = currentDecimals < minDecimals ? currentDecimals : minDecimals;\n            } else {\n                // If one of the components does not implement decimals, we assume the worst\n                // and set minDecimals to 0\n                minDecimals = 0;\n            }\n\n            // Check the component has not already been added\n            require(!tokenIsComponent(currentComponent));\n\n            // add component to isComponent mapping\n            isComponent[keccak256(abi.encodePacked(currentComponent))] = true;\n\n            // Add component data to components struct array\n            components.push(Component({\n                address_: currentComponent,\n                unit_: currentUnits\n            }));\n        }\n\n        // This is the minimum natural unit possible for a Set with these components.\n        require(\n            _naturalUnit >= uint(10) ** (18 - minDecimals),\n            INVALID_NATURAL_UNIT\n        );\n\n        factory = _factory;\n        naturalUnit = _naturalUnit;\n    }\n\n    /* ============ Public Functions ============ */\n\n    /*\n     * Mint set token for given address.\n     * Can only be called by authorized contracts.\n     *\n     * @param  _issuer      The address of the issuing account\n     * @param  _quantity    The number of sets to attribute to issuer\n     */\n    function mint(\n        address _issuer,\n        uint _quantity\n    )\n        external\n        isCore\n    {\n        // Update token balance of the issuer\n        balances[_issuer] = balances[_issuer].add(_quantity);\n\n        // Update the total supply of the set token\n        totalSupply_ = totalSupply_.add(_quantity);\n    }\n\n    /*\n     * Burn set token for given address.\n     * Can only be called by authorized contracts.\n     *\n     * @param  _from        The address of the redeeming account\n     * @param  _quantity    The number of sets to burn from redeemer\n     */\n    function burn(\n        address _from,\n        uint _quantity\n    )\n        external\n        isCore\n        isPositive(_quantity)\n    {\n        // Require user has tokens to burn\n        require(balances[_from] >= _quantity);\n\n        // Update token balance of user\n        balances[_from] = balances[_from].sub(_quantity);\n\n        // Update total supply of Set Token\n        totalSupply_ = totalSupply_.sub(_quantity);\n\n        // Emit a transfer log with to address being 0 indicating burn\n        emit Transfer(_from, address(0), _quantity);\n    }\n\n    /*\n     * Get addresses of all components in the Set\n     *\n     * @return  componentAddresses       Array of component tokens\n     */\n    function getComponents()\n        public\n        view\n        returns(address[])\n    {\n        address[] memory componentAddresses = new address[](components.length);\n\n        // Iterate through components and get address of each component\n        for (uint16 i = 0; i < components.length; i++) {\n            componentAddresses[i] = components[i].address_;\n        }\n        return componentAddresses;\n    }\n\n    /*\n     * Get units of all tokens in Set\n     *\n     * @return  units       Array of component units\n     */\n    function getUnits()\n        public\n        view\n        returns(uint[])\n    {\n        uint[] memory units = new uint[](components.length);\n\n        // Iterate through components and get units of each component\n        for (uint16 i = 0; i < components.length; i++) {\n            units[i] = components[i].unit_;\n        }\n        return units;\n    }\n\n    /* ============ Transfer Overrides ============ */\n\n    /*\n     * ERC20 like transfer function but checks destination is valid\n     *\n     * @param  _to        The address to send Set to\n     * @param  _value     The number of Sets to send\n     * @return  bool      True on successful transfer\n     */\n    function transfer(\n        address _to,\n        uint256 _value\n    )\n        public\n        isValidDestination(_to)\n        returns (bool)\n    {\n        // Use inherited transfer function\n        return super.transfer(_to, _value);\n    }\n\n    /*\n     * ERC20 like transferFrom function but checks destination is valid\n     *\n     * @param  _from      The address to send Set from\n     * @param  _to        The address to send Set to\n     * @param  _value     The number of Sets to send\n     * @return  bool      True on successful transfer\n     */\n    function transferFrom(\n        address _from,\n        address _to,\n        uint256 _value\n    )\n        public\n        isValidDestination(_to)\n        returns (bool)\n    {\n        // Use inherited transferFrom function\n        return super.transferFrom(_from, _to, _value);\n    }\n\n    /* ============ Internal Functions ============ */\n\n    /*\n     * Checks to make sure token is component of Set\n     *\n     * @param  _tokenAddress     Address of token being checked\n     * @return  bool             True if token is component of Set\n     */\n    function tokenIsComponent(\n        address _tokenAddress\n    )\n        view\n        internal\n        returns (bool)\n    {\n        return isComponent[keccak256(abi.encodePacked(_tokenAddress))];\n    }\n}\n",
  "sourcePath": "/Users/justinkchen/workspace/set-protocol-contracts/contracts/core/SetToken.sol",
  "compiler": {
    "name": "solc",
    "version": "0.4.24+commit.e67f0147.Emscripten.clang"
  },
  "schemaVersion": "2.0.0",
  "updatedAt": "2018-07-27T04:20:39.801Z"
}