{
  "contractName": "SetTokenRegistry",
  "abi": [
    {
      "constant": true,
      "inputs": [
        {
          "name": "",
          "type": "bytes32"
        }
      ],
      "name": "setAddressByHashedSymbol",
      "outputs": [
        {
          "name": "",
          "type": "address"
        }
      ],
      "payable": false,
      "stateMutability": "view",
      "type": "function"
    },
    {
      "constant": true,
      "inputs": [
        {
          "name": "",
          "type": "bytes32"
        }
      ],
      "name": "setAddressByHashedName",
      "outputs": [
        {
          "name": "",
          "type": "address"
        }
      ],
      "payable": false,
      "stateMutability": "view",
      "type": "function"
    },
    {
      "constant": true,
      "inputs": [
        {
          "name": "",
          "type": "uint256"
        }
      ],
      "name": "setAddresses",
      "outputs": [
        {
          "name": "",
          "type": "address"
        }
      ],
      "payable": false,
      "stateMutability": "view",
      "type": "function"
    },
    {
      "constant": true,
      "inputs": [
        {
          "name": "",
          "type": "address"
        }
      ],
      "name": "sets",
      "outputs": [
        {
          "name": "setAddress",
          "type": "address"
        },
        {
          "name": "name",
          "type": "string"
        },
        {
          "name": "symbol",
          "type": "string"
        }
      ],
      "payable": false,
      "stateMutability": "view",
      "type": "function"
    },
    {
      "constant": false,
      "inputs": [],
      "name": "renounceOwnership",
      "outputs": [],
      "payable": false,
      "stateMutability": "nonpayable",
      "type": "function"
    },
    {
      "constant": true,
      "inputs": [],
      "name": "owner",
      "outputs": [
        {
          "name": "",
          "type": "address"
        }
      ],
      "payable": false,
      "stateMutability": "view",
      "type": "function"
    },
    {
      "constant": false,
      "inputs": [
        {
          "name": "_newOwner",
          "type": "address"
        }
      ],
      "name": "transferOwnership",
      "outputs": [],
      "payable": false,
      "stateMutability": "nonpayable",
      "type": "function"
    },
    {
      "inputs": [
        {
          "name": "_setFactory",
          "type": "address"
        }
      ],
      "payable": false,
      "stateMutability": "nonpayable",
      "type": "constructor"
    },
    {
      "anonymous": false,
      "inputs": [
        {
          "indexed": true,
          "name": "sender",
          "type": "address"
        },
        {
          "indexed": true,
          "name": "setAddress",
          "type": "address"
        },
        {
          "indexed": false,
          "name": "name",
          "type": "string"
        },
        {
          "indexed": false,
          "name": "symbol",
          "type": "string"
        }
      ],
      "name": "SetTokenCreated",
      "type": "event"
    },
    {
      "anonymous": false,
      "inputs": [
        {
          "indexed": true,
          "name": "sender",
          "type": "address"
        },
        {
          "indexed": true,
          "name": "setAddress",
          "type": "address"
        },
        {
          "indexed": false,
          "name": "name",
          "type": "string"
        },
        {
          "indexed": false,
          "name": "symbol",
          "type": "string"
        }
      ],
      "name": "SetTokenAdded",
      "type": "event"
    },
    {
      "anonymous": false,
      "inputs": [
        {
          "indexed": true,
          "name": "sender",
          "type": "address"
        },
        {
          "indexed": true,
          "name": "setAddress",
          "type": "address"
        },
        {
          "indexed": false,
          "name": "name",
          "type": "string"
        },
        {
          "indexed": false,
          "name": "symbol",
          "type": "string"
        }
      ],
      "name": "SetTokenRemoved",
      "type": "event"
    },
    {
      "anonymous": false,
      "inputs": [
        {
          "indexed": true,
          "name": "sender",
          "type": "address"
        },
        {
          "indexed": true,
          "name": "setAddress",
          "type": "address"
        },
        {
          "indexed": false,
          "name": "oldName",
          "type": "string"
        },
        {
          "indexed": false,
          "name": "newName",
          "type": "string"
        }
      ],
      "name": "SetTokenNameUpdated",
      "type": "event"
    },
    {
      "anonymous": false,
      "inputs": [
        {
          "indexed": true,
          "name": "sender",
          "type": "address"
        },
        {
          "indexed": true,
          "name": "setAddress",
          "type": "address"
        },
        {
          "indexed": false,
          "name": "oldSymbol",
          "type": "string"
        },
        {
          "indexed": false,
          "name": "newSymbol",
          "type": "string"
        }
      ],
      "name": "SetTokenSymbolUpdated",
      "type": "event"
    },
    {
      "anonymous": false,
      "inputs": [
        {
          "indexed": true,
          "name": "previousOwner",
          "type": "address"
        }
      ],
      "name": "OwnershipRenounced",
      "type": "event"
    },
    {
      "anonymous": false,
      "inputs": [
        {
          "indexed": true,
          "name": "previousOwner",
          "type": "address"
        },
        {
          "indexed": true,
          "name": "newOwner",
          "type": "address"
        }
      ],
      "name": "OwnershipTransferred",
      "type": "event"
    },
    {
      "constant": false,
      "inputs": [
        {
          "name": "_tokens",
          "type": "address[]"
        },
        {
          "name": "_units",
          "type": "uint256[]"
        },
        {
          "name": "_naturalUnit",
          "type": "uint256"
        },
        {
          "name": "_name",
          "type": "string"
        },
        {
          "name": "_symbol",
          "type": "string"
        }
      ],
      "name": "create",
      "outputs": [
        {
          "name": "",
          "type": "address"
        }
      ],
      "payable": false,
      "stateMutability": "nonpayable",
      "type": "function"
    },
    {
      "constant": false,
      "inputs": [
        {
          "name": "_set",
          "type": "address"
        },
        {
          "name": "_name",
          "type": "string"
        },
        {
          "name": "_symbol",
          "type": "string"
        }
      ],
      "name": "add",
      "outputs": [
        {
          "name": "",
          "type": "bool"
        }
      ],
      "payable": false,
      "stateMutability": "nonpayable",
      "type": "function"
    },
    {
      "constant": false,
      "inputs": [
        {
          "name": "_set",
          "type": "address"
        },
        {
          "name": "_setAddressIndex",
          "type": "uint256"
        }
      ],
      "name": "remove",
      "outputs": [
        {
          "name": "",
          "type": "bool"
        }
      ],
      "payable": false,
      "stateMutability": "nonpayable",
      "type": "function"
    },
    {
      "constant": false,
      "inputs": [
        {
          "name": "_set",
          "type": "address"
        },
        {
          "name": "_name",
          "type": "string"
        }
      ],
      "name": "modifySetName",
      "outputs": [
        {
          "name": "",
          "type": "bool"
        }
      ],
      "payable": false,
      "stateMutability": "nonpayable",
      "type": "function"
    },
    {
      "constant": false,
      "inputs": [
        {
          "name": "_set",
          "type": "address"
        },
        {
          "name": "_symbol",
          "type": "string"
        }
      ],
      "name": "modifySetSymbol",
      "outputs": [
        {
          "name": "",
          "type": "bool"
        }
      ],
      "payable": false,
      "stateMutability": "nonpayable",
      "type": "function"
    },
    {
      "constant": true,
      "inputs": [],
      "name": "getSetAddresses",
      "outputs": [
        {
          "name": "",
          "type": "address[]"
        }
      ],
      "payable": false,
      "stateMutability": "view",
      "type": "function"
    },
    {
      "constant": true,
      "inputs": [
        {
          "name": "_setSymbol",
          "type": "string"
        }
      ],
      "name": "getSetAddressBySymbol",
      "outputs": [
        {
          "name": "",
          "type": "address"
        }
      ],
      "payable": false,
      "stateMutability": "view",
      "type": "function"
    },
    {
      "constant": true,
      "inputs": [],
      "name": "getSetCount",
      "outputs": [
        {
          "name": "",
          "type": "uint256"
        }
      ],
      "payable": false,
      "stateMutability": "view",
      "type": "function"
    },
    {
      "constant": true,
      "inputs": [
        {
          "name": "_name",
          "type": "string"
        }
      ],
      "name": "getSetAddressByName",
      "outputs": [
        {
          "name": "",
          "type": "address"
        }
      ],
      "payable": false,
      "stateMutability": "view",
      "type": "function"
    },
    {
      "constant": true,
      "inputs": [
        {
          "name": "_set",
          "type": "address"
        }
      ],
      "name": "getSetMetadata",
      "outputs": [
        {
          "name": "",
          "type": "address"
        },
        {
          "name": "",
          "type": "string"
        },
        {
          "name": "",
          "type": "string"
        }
      ],
      "payable": false,
      "stateMutability": "view",
      "type": "function"
    }
  ],
  "bytecode": "0x608060405234801561001057600080fd5b50604051602080612f1c83398101806040528101908080519060200190929190505050336000806101000a81548173ffffffffffffffffffffffffffffffffffffffff021916908373ffffffffffffffffffffffffffffffffffffffff16021790555080600160006101000a81548173ffffffffffffffffffffffffffffffffffffffff021916908373ffffffffffffffffffffffffffffffffffffffff16021790555050612e58806100c46000396000f3006080604052600436106100f1576000357c0100000000000000000000000000000000000000000000000000000000900463ffffffff16806301304a4f146100f6578063110a25c214610251578063443ba0c7146103d057806346bc7fd91461047157806350b4265c1461055857806359ec2afc146105c95780635bbc1eed1461063a5780636e7f096e146106db5780636ef49f6414610748578063715018a6146108a357806377b96551146108ba5780638da5cb5b146109635780639eff34b4146109ba578063abe7f1ab14610a26578063d9cbfd5914610a8b578063f2fde38b14610b34578063f58d216314610b77575b600080fd5b34801561010257600080fd5b50610137600480360381019080803573ffffffffffffffffffffffffffffffffffffffff169060200190929190505050610ba2565b604051808473ffffffffffffffffffffffffffffffffffffffff1673ffffffffffffffffffffffffffffffffffffffff1681526020018060200180602001838103835285818151815260200191508051906020019080838360005b838110156101ad578082015181840152602081019050610192565b50505050905090810190601f1680156101da5780820380516001836020036101000a031916815260200191505b50838103825284818151815260200191508051906020019080838360005b838110156102135780820151818401526020810190506101f8565b50505050905090810190601f1680156102405780820380516001836020036101000a031916815260200191505b509550505050505060405180910390f35b34801561025d57600080fd5b5061038e600480360381019080803590602001908201803590602001908080602002602001604051908101604052809392919081815260200183836020028082843782019150505050505091929192908035906020019082018035906020019080806020026020016040519081016040528093929190818152602001838360200280828437820191505050505050919291929080359060200190929190803590602001908201803590602001908080601f0160208091040260200160405190810160405280939291908181526020018383808284378201915050505050509192919290803590602001908201803590602001908080601f0160208091040260200160405190810160405280939291908181526020018383808284378201915050505050509192919290505050610db9565b604051808273ffffffffffffffffffffffffffffffffffffffff1673ffffffffffffffffffffffffffffffffffffffff16815260200191505060405180910390f35b3480156103dc57600080fd5b50610457600480360381019080803573ffffffffffffffffffffffffffffffffffffffff169060200190929190803590602001908201803590602001908080601f0160208091040260200160405190810160405280939291908181526020018383808284378201915050505050509192919290505050611385565b604051808215151515815260200191505060405180910390f35b34801561047d57600080fd5b5061053e600480360381019080803573ffffffffffffffffffffffffffffffffffffffff169060200190929190803590602001908201803590602001908080601f0160208091040260200160405190810160405280939291908181526020018383808284378201915050505050509192919290803590602001908201803590602001908080601f0160208091040260200160405190810160405280939291908181526020018383808284378201915050505050509192919290505050611671565b604051808215151515815260200191505060405180910390f35b34801561056457600080fd5b506105876004803603810190808035600019169060200190929190505050611bd3565b604051808273ffffffffffffffffffffffffffffffffffffffff1673ffffffffffffffffffffffffffffffffffffffff16815260200191505060405180910390f35b3480156105d557600080fd5b506105f86004803603810190808035600019169060200190929190505050611c06565b604051808273ffffffffffffffffffffffffffffffffffffffff1673ffffffffffffffffffffffffffffffffffffffff16815260200191505060405180910390f35b34801561064657600080fd5b506106c1600480360381019080803573ffffffffffffffffffffffffffffffffffffffff169060200190929190803590602001908201803590602001908080601f0160208091040260200160405190810160405280939291908181526020018383808284378201915050505050509192919290505050611c39565b604051808215151515815260200191505060405180910390f35b3480156106e757600080fd5b5061070660048036038101908080359060200190929190505050611f25565b604051808273ffffffffffffffffffffffffffffffffffffffff1673ffffffffffffffffffffffffffffffffffffffff16815260200191505060405180910390f35b34801561075457600080fd5b50610789600480360381019080803573ffffffffffffffffffffffffffffffffffffffff169060200190929190505050611f63565b604051808473ffffffffffffffffffffffffffffffffffffffff1673ffffffffffffffffffffffffffffffffffffffff1681526020018060200180602001838103835285818151815260200191508051906020019080838360005b838110156107ff5780820151818401526020810190506107e4565b50505050905090810190601f16801561082c5780820380516001836020036101000a031916815260200191505b50838103825284818151815260200191508051906020019080838360005b8381101561086557808201518184015260208101905061084a565b50505050905090810190601f1680156108925780820380516001836020036101000a031916815260200191505b509550505050505060405180910390f35b3480156108af57600080fd5b506108b86120dd565b005b3480156108c657600080fd5b50610921600480360381019080803590602001908201803590602001908080601f01602080910402602001604051908101604052809392919081815260200183838082843782019150505050505091929192905050506121df565b604051808273ffffffffffffffffffffffffffffffffffffffff1673ffffffffffffffffffffffffffffffffffffffff16815260200191505060405180910390f35b34801561096f57600080fd5b50610978612286565b604051808273ffffffffffffffffffffffffffffffffffffffff1673ffffffffffffffffffffffffffffffffffffffff16815260200191505060405180910390f35b3480156109c657600080fd5b506109cf6122ab565b6040518080602001828103825283818151815260200191508051906020019060200280838360005b83811015610a125780820151818401526020810190506109f7565b505050509050019250505060405180910390f35b348015610a3257600080fd5b50610a71600480360381019080803573ffffffffffffffffffffffffffffffffffffffff16906020019092919080359060200190929190505050612339565b604051808215151515815260200191505060405180910390f35b348015610a9757600080fd5b50610af2600480360381019080803590602001908201803590602001908080601f0160208091040260200160405190810160405280939291908181526020018383808284378201915050505050509192919290505050612800565b604051808273ffffffffffffffffffffffffffffffffffffffff1673ffffffffffffffffffffffffffffffffffffffff16815260200191505060405180910390f35b348015610b4057600080fd5b50610b75600480360381019080803573ffffffffffffffffffffffffffffffffffffffff1690602001909291905050506128a7565b005b348015610b8357600080fd5b50610b8c61290e565b6040518082815260200191505060405180910390f35b6000606080610baf612c5b565b600360008673ffffffffffffffffffffffffffffffffffffffff1673ffffffffffffffffffffffffffffffffffffffff168152602001908152602001600020606060405190810160405290816000820160009054906101000a900473ffffffffffffffffffffffffffffffffffffffff1673ffffffffffffffffffffffffffffffffffffffff1673ffffffffffffffffffffffffffffffffffffffff168152602001600182018054600181600116156101000203166002900480601f016020809104026020016040519081016040528092919081815260200182805460018160011615610100020316600290048015610ce95780601f10610cbe57610100808354040283529160200191610ce9565b820191906000526020600020905b815481529060010190602001808311610ccc57829003601f168201915b50505050508152602001600282018054600181600116156101000203166002900480601f016020809104026020016040519081016040528092919081815260200182805460018160011615610100020316600290048015610d8b5780601f10610d6057610100808354040283529160200191610d8b565b820191906000526020600020905b815481529060010190602001808311610d6e57829003601f168201915b5050505050815250509050806000015181602001518260400151819150809050935093509350509193909250565b60008083600073ffffffffffffffffffffffffffffffffffffffff1660056000836040518082805190602001908083835b602083101515610e0f5780518252602082019150602081019050602083039250610dea565b6001836020036101000a03801982511681845116808217855250505050505090500191505060405180910390206000191660001916815260200190815260200160002060009054906101000a900473ffffffffffffffffffffffffffffffffffffffff1673ffffffffffffffffffffffffffffffffffffffff16141515610e9557600080fd5b83600073ffffffffffffffffffffffffffffffffffffffff1660046000836040518082805190602001908083835b602083101515610ee85780518252602082019150602081019050602083039250610ec3565b6001836020036101000a03801982511681845116808217855250505050505090500191505060405180910390206000191660001916815260200190815260200160002060009054906101000a900473ffffffffffffffffffffffffffffffffffffffff1673ffffffffffffffffffffffffffffffffffffffff16141515610f6e57600080fd5b600160009054906101000a900473ffffffffffffffffffffffffffffffffffffffff1673ffffffffffffffffffffffffffffffffffffffff1663821f91f48a8a8a6040518463ffffffff167c0100000000000000000000000000000000000000000000000000000000028152600401808060200180602001848152602001838103835286818151815260200191508051906020019060200280838360005b8381101561102757808201518184015260208101905061100c565b50505050905001838103825285818151815260200191508051906020019060200280838360005b8381101561106957808201518184015260208101905061104e565b5050505090500195505050505050602060405180830381600087803b15801561109157600080fd5b505af11580156110a5573d6000803e3d6000fd5b505050506040513d60208110156110bb57600080fd5b8101908080519060200190929190505050925060028390806001815401808255809150509060018203906000526020600020016000909192909190916101000a81548173ffffffffffffffffffffffffffffffffffffffff021916908373ffffffffffffffffffffffffffffffffffffffff160217905550506060604051908101604052808473ffffffffffffffffffffffffffffffffffffffff16815260200187815260200186815250600360008573ffffffffffffffffffffffffffffffffffffffff1673ffffffffffffffffffffffffffffffffffffffff16815260200190815260200160002060008201518160000160006101000a81548173ffffffffffffffffffffffffffffffffffffffff021916908373ffffffffffffffffffffffffffffffffffffffff1602179055506020820151816001019080519060200190611208929190612c93565b506040820151816002019080519060200190611225929190612c93565b50905050611233868461291b565b5061123e85846129e3565b508273ffffffffffffffffffffffffffffffffffffffff163373ffffffffffffffffffffffffffffffffffffffff167fb7b1e89d4bb640b93b0cb96b27077ceb558d073e00531c0a712a4afc9ccf06fe8888604051808060200180602001838103835285818151815260200191508051906020019080838360005b838110156112d45780820151818401526020810190506112b9565b50505050905090810190601f1680156113015780820380516001836020036101000a031916815260200191505b50838103825284818151815260200191508051906020019080838360005b8381101561133a57808201518184015260208101905061131f565b50505050905090810190601f1680156113675780820380516001836020036101000a031916815260200191505b5094505050505060405180910390a382935050505095945050505050565b600060606000809054906101000a900473ffffffffffffffffffffffffffffffffffffffff1673ffffffffffffffffffffffffffffffffffffffff163373ffffffffffffffffffffffffffffffffffffffff161415156113e457600080fd5b600360008573ffffffffffffffffffffffffffffffffffffffff1673ffffffffffffffffffffffffffffffffffffffff1681526020019081526020016000206001018054600181600116156101000203166002900480601f0160208091040260200160405190810160405280929190818152602001828054600181600116156101000203166002900480156114ba5780601f1061148f576101008083540402835291602001916114ba565b820191906000526020600020905b81548152906001019060200180831161149d57829003601f168201915b505050505090506114cc81600061291b565b5082600360008673ffffffffffffffffffffffffffffffffffffffff1673ffffffffffffffffffffffffffffffffffffffff1681526020019081526020016000206001019080519060200190611523929190612d13565b5061152e838561291b565b508373ffffffffffffffffffffffffffffffffffffffff163373ffffffffffffffffffffffffffffffffffffffff167fc532b1eb099007b62a28e1fca5a7dbf04552c7bdfa79b79d20b1b9087747e8108386604051808060200180602001838103835285818151815260200191508051906020019080838360005b838110156115c45780820151818401526020810190506115a9565b50505050905090810190601f1680156115f15780820380516001836020036101000a031916815260200191505b50838103825284818151815260200191508051906020019080838360005b8381101561162a57808201518184015260208101905061160f565b50505050905090810190601f1680156116575780820380516001836020036101000a031916815260200191505b5094505050505060405180910390a3600191505092915050565b600082600073ffffffffffffffffffffffffffffffffffffffff1660056000836040518082805190602001908083835b6020831015156116c657805182526020820191506020810190506020830392506116a1565b6001836020036101000a03801982511681845116808217855250505050505090500191505060405180910390206000191660001916815260200190815260200160002060009054906101000a900473ffffffffffffffffffffffffffffffffffffffff1673ffffffffffffffffffffffffffffffffffffffff1614151561174c57600080fd5b82600073ffffffffffffffffffffffffffffffffffffffff1660046000836040518082805190602001908083835b60208310151561179f578051825260208201915060208101905060208303925061177a565b6001836020036101000a03801982511681845116808217855250505050505090500191505060405180910390206000191660001916815260200190815260200160002060009054906101000a900473ffffffffffffffffffffffffffffffffffffffff1673ffffffffffffffffffffffffffffffffffffffff1614151561182557600080fd5b85600073ffffffffffffffffffffffffffffffffffffffff16600360008373ffffffffffffffffffffffffffffffffffffffff1673ffffffffffffffffffffffffffffffffffffffff16815260200190815260200160002060000160009054906101000a900473ffffffffffffffffffffffffffffffffffffffff1673ffffffffffffffffffffffffffffffffffffffff161415156118c357600080fd5b6000809054906101000a900473ffffffffffffffffffffffffffffffffffffffff1673ffffffffffffffffffffffffffffffffffffffff163373ffffffffffffffffffffffffffffffffffffffff1614151561191e57600080fd5b60028790806001815401808255809150509060018203906000526020600020016000909192909190916101000a81548173ffffffffffffffffffffffffffffffffffffffff021916908373ffffffffffffffffffffffffffffffffffffffff160217905550506060604051908101604052808873ffffffffffffffffffffffffffffffffffffffff16815260200187815260200186815250600360008973ffffffffffffffffffffffffffffffffffffffff1673ffffffffffffffffffffffffffffffffffffffff16815260200190815260200160002060008201518160000160006101000a81548173ffffffffffffffffffffffffffffffffffffffff021916908373ffffffffffffffffffffffffffffffffffffffff1602179055506020820151816001019080519060200190611a58929190612c93565b506040820151816002019080519060200190611a75929190612c93565b50905050611a83868861291b565b50611a8e85886129e3565b508673ffffffffffffffffffffffffffffffffffffffff163373ffffffffffffffffffffffffffffffffffffffff167e7daa8b19a37c4050f45e8745396381f3feb1207079ea81fbaecc4de19d359a8888604051808060200180602001838103835285818151815260200191508051906020019080838360005b83811015611b23578082015181840152602081019050611b08565b50505050905090810190601f168015611b505780820380516001836020036101000a031916815260200191505b50838103825284818151815260200191508051906020019080838360005b83811015611b89578082015181840152602081019050611b6e565b50505050905090810190601f168015611bb65780820380516001836020036101000a031916815260200191505b5094505050505060405180910390a3600193505050509392505050565b60046020528060005260406000206000915054906101000a900473ffffffffffffffffffffffffffffffffffffffff1681565b60056020528060005260406000206000915054906101000a900473ffffffffffffffffffffffffffffffffffffffff1681565b600060606000809054906101000a900473ffffffffffffffffffffffffffffffffffffffff1673ffffffffffffffffffffffffffffffffffffffff163373ffffffffffffffffffffffffffffffffffffffff16141515611c9857600080fd5b600360008573ffffffffffffffffffffffffffffffffffffffff1673ffffffffffffffffffffffffffffffffffffffff1681526020019081526020016000206002018054600181600116156101000203166002900480601f016020809104026020016040519081016040528092919081815260200182805460018160011615610100020316600290048015611d6e5780601f10611d4357610100808354040283529160200191611d6e565b820191906000526020600020905b815481529060010190602001808311611d5157829003601f168201915b50505050509050611d808160006129e3565b5082600360008673ffffffffffffffffffffffffffffffffffffffff1673ffffffffffffffffffffffffffffffffffffffff1681526020019081526020016000206002019080519060200190611dd7929190612d13565b50611de283856129e3565b508373ffffffffffffffffffffffffffffffffffffffff163373ffffffffffffffffffffffffffffffffffffffff167fc532b1eb099007b62a28e1fca5a7dbf04552c7bdfa79b79d20b1b9087747e8108386604051808060200180602001838103835285818151815260200191508051906020019080838360005b83811015611e78578082015181840152602081019050611e5d565b50505050905090810190601f168015611ea55780820380516001836020036101000a031916815260200191505b50838103825284818151815260200191508051906020019080838360005b83811015611ede578082015181840152602081019050611ec3565b50505050905090810190601f168015611f0b5780820380516001836020036101000a031916815260200191505b5094505050505060405180910390a3600191505092915050565b600281815481101515611f3457fe5b906000526020600020016000915054906101000a900473ffffffffffffffffffffffffffffffffffffffff1681565b60036020528060005260406000206000915090508060000160009054906101000a900473ffffffffffffffffffffffffffffffffffffffff1690806001018054600181600116156101000203166002900480601f0160208091040260200160405190810160405280929190818152602001828054600181600116156101000203166002900480156120355780601f1061200a57610100808354040283529160200191612035565b820191906000526020600020905b81548152906001019060200180831161201857829003601f168201915b505050505090806002018054600181600116156101000203166002900480601f0160208091040260200160405190810160405280929190818152602001828054600181600116156101000203166002900480156120d35780601f106120a8576101008083540402835291602001916120d3565b820191906000526020600020905b8154815290600101906020018083116120b657829003601f168201915b5050505050905083565b6000809054906101000a900473ffffffffffffffffffffffffffffffffffffffff1673ffffffffffffffffffffffffffffffffffffffff163373ffffffffffffffffffffffffffffffffffffffff1614151561213857600080fd5b6000809054906101000a900473ffffffffffffffffffffffffffffffffffffffff1673ffffffffffffffffffffffffffffffffffffffff167ff8df31144d9c2f0f6b59d69b8b98abd5459d07f2742c4df920b25aae33c6482060405160405180910390a260008060006101000a81548173ffffffffffffffffffffffffffffffffffffffff021916908373ffffffffffffffffffffffffffffffffffffffff160217905550565b600060046000836040518082805190602001908083835b60208310151561221b57805182526020820191506020810190506020830392506121f6565b6001836020036101000a03801982511681845116808217855250505050505090500191505060405180910390206000191660001916815260200190815260200160002060009054906101000a900473ffffffffffffffffffffffffffffffffffffffff169050919050565b6000809054906101000a900473ffffffffffffffffffffffffffffffffffffffff1681565b6060600280548060200260200160405190810160405280929190818152602001828054801561232f57602002820191906000526020600020905b8160009054906101000a900473ffffffffffffffffffffffffffffffffffffffff1673ffffffffffffffffffffffffffffffffffffffff16815260200190600101908083116122e5575b5050505050905090565b6000612343612c5b565b6000809054906101000a900473ffffffffffffffffffffffffffffffffffffffff1673ffffffffffffffffffffffffffffffffffffffff163373ffffffffffffffffffffffffffffffffffffffff1614151561239e57600080fd5b6002838154811015156123ad57fe5b9060005260206000200160009054906101000a900473ffffffffffffffffffffffffffffffffffffffff1673ffffffffffffffffffffffffffffffffffffffff168473ffffffffffffffffffffffffffffffffffffffff1614151561241157600080fd5b600360008573ffffffffffffffffffffffffffffffffffffffff1673ffffffffffffffffffffffffffffffffffffffff168152602001908152602001600020606060405190810160405290816000820160009054906101000a900473ffffffffffffffffffffffffffffffffffffffff1673ffffffffffffffffffffffffffffffffffffffff1673ffffffffffffffffffffffffffffffffffffffff168152602001600182018054600181600116156101000203166002900480601f01602080910402602001604051908101604052809291908181526020018280546001816001161561010002031660029004801561254b5780601f106125205761010080835404028352916020019161254b565b820191906000526020600020905b81548152906001019060200180831161252e57829003601f168201915b50505050508152602001600282018054600181600116156101000203166002900480601f0160208091040260200160405190810160405280929190818152602001828054600181600116156101000203166002900480156125ed5780601f106125c2576101008083540402835291602001916125ed565b820191906000526020600020905b8154815290600101906020018083116125d057829003601f168201915b50505050508152505090508373ffffffffffffffffffffffffffffffffffffffff163373ffffffffffffffffffffffffffffffffffffffff167f8c0549cd7c150e0ebb3086c88a820e1b42db9c827e3d24883f6a945b647b4ada83602001518460400151604051808060200180602001838103835285818151815260200191508051906020019080838360005b8381101561269557808201518184015260208101905061267a565b50505050905090810190601f1680156126c25780820380516001836020036101000a031916815260200191505b50838103825284818151815260200191508051906020019080838360005b838110156126fb5780820151818401526020810190506126e0565b50505050905090810190601f1680156127285780820380516001836020036101000a031916815260200191505b5094505050505060405180910390a36127468160200151600061291b565b50612756816040015160006129e3565b50600360008573ffffffffffffffffffffffffffffffffffffffff1673ffffffffffffffffffffffffffffffffffffffff168152602001908152602001600020600080820160006101000a81549073ffffffffffffffffffffffffffffffffffffffff02191690556001820160006127ce9190612d93565b6002820160006127de9190612d93565b50506127f4836002612aab90919063ffffffff16565b50600191505092915050565b600060056000836040518082805190602001908083835b60208310151561283c5780518252602082019150602081019050602083039250612817565b6001836020036101000a03801982511681845116808217855250505050505090500191505060405180910390206000191660001916815260200190815260200160002060009054906101000a900473ffffffffffffffffffffffffffffffffffffffff169050919050565b6000809054906101000a900473ffffffffffffffffffffffffffffffffffffffff1673ffffffffffffffffffffffffffffffffffffffff163373ffffffffffffffffffffffffffffffffffffffff1614151561290257600080fd5b61290b81612b61565b50565b6000600280549050905090565b60008160056000856040518082805190602001908083835b6020831015156129585780518252602082019150602081019050602083039250612933565b6001836020036101000a03801982511681845116808217855250505050505090500191505060405180910390206000191660001916815260200190815260200160002060006101000a81548173ffffffffffffffffffffffffffffffffffffffff021916908373ffffffffffffffffffffffffffffffffffffffff1602179055506001905092915050565b60008160046000856040518082805190602001908083835b602083101515612a2057805182526020820191506020810190506020830392506129fb565b6001836020036101000a03801982511681845116808217855250505050505090500191505060405180910390206000191660001916815260200190815260200160002060006101000a81548173ffffffffffffffffffffffffffffffffffffffff021916908373ffffffffffffffffffffffffffffffffffffffff1602179055506001905092915050565b6000826001848054905003815481101515612ac257fe5b9060005260206000200160009054906101000a900473ffffffffffffffffffffffffffffffffffffffff168383815481101515612afb57fe5b9060005260206000200160006101000a81548173ffffffffffffffffffffffffffffffffffffffff021916908373ffffffffffffffffffffffffffffffffffffffff16021790555060018381818054905003915081612b5a9190612ddb565b5092915050565b600073ffffffffffffffffffffffffffffffffffffffff168173ffffffffffffffffffffffffffffffffffffffff1614151515612b9d57600080fd5b8073ffffffffffffffffffffffffffffffffffffffff166000809054906101000a900473ffffffffffffffffffffffffffffffffffffffff1673ffffffffffffffffffffffffffffffffffffffff167f8be0079c531659141344cd1fd0a4f28419497f9722a3daafe3b4186f6b6457e060405160405180910390a3806000806101000a81548173ffffffffffffffffffffffffffffffffffffffff021916908373ffffffffffffffffffffffffffffffffffffffff16021790555050565b606060405190810160405280600073ffffffffffffffffffffffffffffffffffffffff16815260200160608152602001606081525090565b828054600181600116156101000203166002900490600052602060002090601f016020900481019282601f10612cd457805160ff1916838001178555612d02565b82800160010185558215612d02579182015b82811115612d01578251825591602001919060010190612ce6565b5b509050612d0f9190612e07565b5090565b828054600181600116156101000203166002900490600052602060002090601f016020900481019282601f10612d5457805160ff1916838001178555612d82565b82800160010185558215612d82579182015b82811115612d81578251825591602001919060010190612d66565b5b509050612d8f9190612e07565b5090565b50805460018160011615610100020316600290046000825580601f10612db95750612dd8565b601f016020900490600052602060002090810190612dd79190612e07565b5b50565b815481835581811115612e0257818360005260206000209182019101612e019190612e07565b5b505050565b612e2991905b80821115612e25576000816000905550600101612e0d565b5090565b905600a165627a7a72305820ad2dfd2586c81c680e481032c86442ce22cbf3966cab3625e71d1db1d4b9c5ef0029",
  "source": "pragma solidity 0.4.23;\n\nimport \"zeppelin-solidity/contracts/ownership/Ownable.sol\";\nimport \"./interfaces/ISetToken.sol\";\nimport \"./interfaces/ISetFactory.sol\";\nimport \"../lib/AddressArrayUtils.sol\";\n\n\n/**\n * @title {Set} Registry\n * @author Felix Feng\n * @dev Implementation of the {Set} registry.\n */\ncontract SetTokenRegistry is Ownable {\n    using AddressArrayUtils for address[];\n\n    ///////////////////////////////////////////////////////////\n    /// Data Structures\n    ///////////////////////////////////////////////////////////\n\n    struct SetMetadata {\n        address setAddress;\n        string name;\n        string symbol;\n    }\n        \n    ///////////////////////////////////////////////////////////\n    /// States\n    ///////////////////////////////////////////////////////////\n    ISetFactory setFactory;\n    address[] public setAddresses;\n    mapping (address => SetMetadata) public sets;\n    mapping (bytes32 => address) public setAddressByHashedSymbol;\n    mapping (bytes32 => address) public setAddressByHashedName;\n\n    ///////////////////////////////////////////////////////////\n    /// Events\n    ///////////////////////////////////////////////////////////\n\n    event SetTokenCreated(\n        address indexed sender,\n        address indexed setAddress,\n        string name,\n        string symbol\n    );\n    event SetTokenAdded(\n        address indexed sender,\n        address indexed setAddress,\n        string name,\n        string symbol\n    );\n    event SetTokenRemoved(\n        address indexed sender,\n        address indexed setAddress,\n        string name,\n        string symbol\n    );\n    event SetTokenNameUpdated(\n        address indexed sender,\n        address indexed setAddress,\n        string oldName,\n        string newName\n    );\n    event SetTokenSymbolUpdated(\n        address indexed sender,\n        address indexed setAddress,\n        string oldSymbol,\n        string newSymbol\n    );\n\n    ///////////////////////////////////////////////////////////\n    /// Modifiers\n    ///////////////////////////////////////////////////////////\n\n    modifier nameDoesNotExist(string _name) {\n        require(setAddressByHashedName[keccak256(_name)] == address(0));\n        _;\n    }\n\n    modifier symbolDoesNotExist(string _symbol) {\n        require(setAddressByHashedSymbol[keccak256(_symbol)] == address(0));\n        _;\n    }\n\n    modifier setDoesNotExist(address _setAddress) {\n        require(sets[_setAddress].setAddress == address(0));\n        _;\n    }\n\n    /**\n    * @dev Constructor Function for the {Set} registry\n    */\n    constructor(ISetFactory _setFactory) public {\n        setFactory = _setFactory;\n    }\n\n    ///////////////////////////////////////////////////////////\n    /// Registry Functions\n    ///////////////////////////////////////////////////////////\n\n    /**\n    * @dev Function creates a new {Set} and add to registry\n    */\n    function create(\n        address[] _tokens,\n        uint[] _units,\n        uint _naturalUnit,\n        string _name,\n        string _symbol\n    )\n        public\n        nameDoesNotExist(_name)\n        symbolDoesNotExist(_symbol)\n        returns(address)\n    {\n        // Instantiate that contract\n        ISetToken newSetToken = ISetToken(\n            setFactory.createSet(\n                _tokens,\n                _units,\n                _naturalUnit\n            )\n        );\n\n        // Add to the list of set addresses\n        setAddresses.push(address(newSetToken));\n\n        // Add to the mapping of set metadata\n        sets[address(newSetToken)] = SetMetadata({\n            setAddress: address(newSetToken),\n            name: _name,\n            symbol: _symbol\n        });\n\n        modifyAddressByName(_name, address(newSetToken));\n        modifyAddressBySymbol(_symbol, address(newSetToken));\n\n        emit SetTokenCreated(\n            msg.sender,\n            newSetToken,\n            _name,\n            _symbol\n        );\n\n        return newSetToken;\n    }\n\n    /**\n    * @dev Function adds an existing {Set} to the registry\n    */\n    function add(address _set, string _name, string _symbol)\n        public\n        nameDoesNotExist(_name)\n        symbolDoesNotExist(_symbol)\n        setDoesNotExist(_set)\n        onlyOwner\n        returns (bool)\n    {\n        setAddresses.push(_set);\n        sets[_set] = SetMetadata({\n            setAddress: _set,\n            name: _name,\n            symbol: _symbol\n        });\n\n        modifyAddressByName(_name, _set);\n        modifyAddressBySymbol(_symbol, _set);\n\n        emit SetTokenAdded(\n            msg.sender,\n            _set, _name,\n            _symbol\n        );\n\n        return true;\n    }\n\n    /**\n    * @dev Function remove a {Set} from the registry\n    */\n    function remove(address _set, uint _setAddressIndex)\n        public\n        onlyOwner\n        returns (bool)\n    {\n        require(_set == setAddresses[_setAddressIndex]);\n\n        SetMetadata memory set = sets[_set];\n\n        emit SetTokenRemoved(\n            msg.sender,\n            _set,\n            set.name,\n            set.symbol\n        );\n\n        modifyAddressByName(set.name, address(0));\n        modifyAddressBySymbol(set.symbol, address(0));\n\n        // Remove from metadata\n        delete sets[_set];\n\n        setAddresses.removeByIndex(_setAddressIndex);\n\n        return true;\n    }\n\n    ///////////////////////////////////////////////////////////\n    /// Setters / Modify to avoid confusion with {Set}\n    ///////////////////////////////////////////////////////////\n    function modifySetName(\n        address _set,\n        string _name\n    )\n        public\n        onlyOwner\n        returns (bool)\n    {\n        string memory existingName = sets[address(_set)].name;\n        modifyAddressByName(existingName, address(0));\n\n        sets[address(_set)].name = _name;\n        modifyAddressByName(_name, _set);\n\n        emit SetTokenNameUpdated(\n            msg.sender,\n            _set,\n            existingName,\n            _name\n        );\n\n        return true;\n    }\n\n    function modifySetSymbol(\n        address _set,\n        string _symbol\n    )\n        public\n        onlyOwner\n        returns (bool)\n    {\n        string memory existingSymbol = sets[address(_set)].symbol;\n        modifyAddressBySymbol(existingSymbol, address(0));\n\n        sets[address(_set)].symbol = _symbol;\n        modifyAddressBySymbol(_symbol, _set);\n\n        emit SetTokenNameUpdated(\n            msg.sender,\n            _set,\n            existingSymbol,\n            _symbol\n        );\n\n        return true;\n    }\n\n    ///////////////////////////////////////////////////////////\n    /// Getters\n    ///////////////////////////////////////////////////////////\n    function getSetAddresses()\n        public\n        view\n        returns(address[])\n    {\n        return setAddresses;\n    }\n\n    function getSetAddressBySymbol(\n        string _setSymbol\n    )\n        public\n        view\n        returns(address)\n    {\n        return setAddressByHashedSymbol[keccak256(_setSymbol)];\n    }\n\n    function getSetCount()\n        public\n        view\n        returns(uint)\n    {\n        return setAddresses.length;\n    }\n\n    function getSetAddressByName(\n        string _name\n    )\n        public\n        view\n        returns(address)\n    {\n        return setAddressByHashedName[keccak256(_name)];\n    }\n\n    /**\n    * @dev Gets a list of set metadata using a set address\n    */\n    function getSetMetadata(\n        address _set\n    )\n        public\n        view\n        returns(\n            address, // set address\n            string, // name;\n            string // symbol;\n        )\n    {\n        SetMetadata memory set = sets[_set];\n        return (\n        set.setAddress,\n        set.name,\n        set.symbol\n        );\n    }\n\n    ///////////////////////////////////////////////////////////\n    /// Private Function\n    ///////////////////////////////////////////////////////////\n\n    function modifyAddressByName(\n        string _name,\n        address _set\n    )\n        private\n        returns(bool)\n    {\n        setAddressByHashedName[keccak256(_name)] = _set;\n        return true;\n    }\n\n    function modifyAddressBySymbol(\n        string _symbol,\n        address _set\n    )\n        private\n        returns(bool)\n    {\n        setAddressByHashedSymbol[keccak256(_symbol)] = _set;\n        return true;\n    }\n}\n",
  "sourcePath": "/Users/alexsoong/Source/set-protocol/set-protocol-contracts/contracts/core/SetTokenRegistry.sol",
  "compiler": {
    "name": "solc",
    "version": "0.4.23+commit.124ca40d.Emscripten.clang"
  },
  "schemaVersion": "2.0.0",
  "updatedAt": "2018-06-06T22:54:27.592Z"
}