{
  "contractName": "SetTokenFactory",
  "abi": [
    {
      "constant": true,
      "inputs": [],
      "name": "core",
      "outputs": [
        {
          "name": "",
          "type": "address"
        }
      ],
      "payable": false,
      "stateMutability": "view",
      "type": "function"
    },
    {
      "inputs": [
        {
          "name": "_core",
          "type": "address"
        }
      ],
      "payable": false,
      "stateMutability": "nonpayable",
      "type": "constructor"
    },
    {
      "constant": false,
      "inputs": [
        {
          "name": "_components",
          "type": "address[]"
        },
        {
          "name": "_units",
          "type": "uint256[]"
        },
        {
          "name": "_naturalUnit",
          "type": "uint256"
        },
        {
          "name": "_name",
          "type": "bytes32"
        },
        {
          "name": "_symbol",
          "type": "bytes32"
        },
        {
          "name": "_callData",
          "type": "bytes"
        }
      ],
      "name": "create",
      "outputs": [
        {
          "name": "",
          "type": "address"
        }
      ],
      "payable": false,
      "stateMutability": "nonpayable",
      "type": "function"
    }
  ],
  "bytecode": "0x608060405234801561001057600080fd5b50604051602080611976833981016040525160008054600160a060020a03909216600160a060020a0319909216919091179055611924806100526000396000f30060806040526004361061004b5763ffffffff7c0100000000000000000000000000000000000000000000000000000000600035041663e49e72cc8114610050578063f2f4eb26146100bd575b600080fd5b34801561005c57600080fd5b50610094602460048035828101929082013591813580830192908201359160443591606435916084359160a4359081019101356100d2565b6040805173ffffffffffffffffffffffffffffffffffffffff9092168252519081900360200190f35b3480156100c957600080fd5b506100946101ad565b6000805473ffffffffffffffffffffffffffffffffffffffff1633146100f757600080fd5b308a8a8a8a8a8a8a6101076101c9565b73ffffffffffffffffffffffffffffffffffffffff89168152606081018490526080810183905260a0810182905260c06020808301828152918301899052604083019060e08401908b908b0280828437909101848103835288815260209081019150899089028082843782019150509a5050505050505050505050604051809103906000f08015801561019e573d6000803e3d6000fd5b509a9950505050505050505050565b60005473ffffffffffffffffffffffffffffffffffffffff1681565b60405161171f806101da83390190560060806040523480156200001157600080fd5b506040516200171f3803806200171f83398101604090815281516020830151918301516060840151608085015160a08601519395948501949290920192909190600080808080620000708764010000000062000e2d6200040782021704565b620000898764010000000062000e2d6200040782021704565b8151601290620000a190600390602086019062000652565b508151620000b790600490602085019062000652565b506005805460ff191660ff92909216919091179055505060008811620000dc57600080fd5b8951600010620000eb57600080fd5b8851600010620000fa57600080fd5b88518a51146200010957600080fd5b60129450600092505b8851831015620003a25788838151811015156200012b57fe5b602090810290910101519150600082116200014557600080fd5b89838151811015156200015457fe5b602090810290910101519050600160a060020a03811615156200017657600080fd5b80600160a060020a031660405180807f646563696d616c73282900000000000000000000000000000000000000000000815250600a01905060405180910390207c010000000000000000000000000000000000000000000000000000000090046040518163ffffffff167c01000000000000000000000000000000000000000000000000000000000281526004016000604051808303816000875af19250505015620002c35780600160a060020a031663313ce5676040518163ffffffff167c0100000000000000000000000000000000000000000000000000000000028152600401602060405180830381600087803b1580156200027457600080fd5b505af115801562000289573d6000803e3d6000fd5b505050506040513d6020811015620002a057600080fd5b5051935060ff80861690851610620002b95784620002bb565b835b9450620002c8565b600094505b620002dc8164010000000062000491810204565b15620002e757600080fd5b600160a060020a0381811660008181526008602090815260408083208054600160ff1990911681179091558151808301909252938152908101868152600780548086018255935290517fa66cc928b5edb82af9bd49922954155ab7b0942694bea4ce44661d9a8736c68860029093029283018054600160a060020a031916919095161790935591517fa66cc928b5edb82af9bd49922954155ab7b0942694bea4ce44661d9a8736c68990920191909155929092019162000112565b620003c0601260ff871664010000000062000d4c620004af82021704565b600a0a881015620003d057600080fd5b505060098054600160a060020a031916600160a060020a039a909a169990991790985550505060069190915550620006f792505050565b6060806200041e83640100000000620004c2810204565b9050806040516020018082805190602001908083835b60208310620004555780518252601f19909201916020918201910162000434565b6001836020036101000a038019825116818451168082178552505050505050905001915050604051602081830303815290604052915050919050565b600160a060020a031660009081526008602052604090205460ff1690565b600082821115620004bc57fe5b50900390565b60606000815b6020821080156200052c5750838260208110620004e157fe5b1a7f0100000000000000000000000000000000000000000000000000000000000000027f01000000000000000000000000000000000000000000000000000000000000009004600014155b156200053e57816001019150620004c8565b816040519080825280601f01601f1916602001820160405280156200056d578160200160208202803883390190505b509050600091505b602082108015620005e257508382602081106200058e57fe5b1a7f010000000000000000000000000000000000000000000000000000000000000002600160f860020a03191660007f01000000000000000000000000000000000000000000000000000000000000000214155b156200064b57838260208110620005f557fe5b1a7f01000000000000000000000000000000000000000000000000000000000000000281838151811015156200062757fe5b906020010190600160f860020a031916908160001a90535081600101915062000575565b9392505050565b828054600181600116156101000203166002900490600052602060002090601f016020900481019282601f106200069557805160ff1916838001178555620006c5565b82800160010185558215620006c5579182015b82811115620006c5578251825591602001919060010190620006a8565b50620006d3929150620006d7565b5090565b620006f491905b80821115620006d35760008155600101620006de565b90565b61101880620007076000396000f3006080604052600436106100ed5763ffffffff60e060020a600035041663027aa9f581146100f257806306fdde0314610157578063095ea7b3146101e157806318160ddd1461021957806318c53aca1461024057806323b872dd14610261578063313ce5671461028b57806340c10f19146102b657806342a7cfd5146102dc57806366188463146102f157806370a082311461031557806395d89b411461033657806399d50d5d1461034b5780639dc29fac14610360578063a9059cbb14610384578063c45a0155146103a8578063c5d574fe146103d9578063d73dd62314610414578063dd62ed3e14610438575b600080fd5b3480156100fe57600080fd5b5061010761045f565b60408051602080825283518183015283519192839290830191858101910280838360005b8381101561014357818101518382015260200161012b565b505050509050019250505060405180910390f35b34801561016357600080fd5b5061016c6104eb565b6040805160208082528351818301528351919283929083019185019080838360005b838110156101a657818101518382015260200161018e565b50505050905090810190601f1680156101d35780820380516001836020036101000a031916815260200191505b509250505060405180910390f35b3480156101ed57600080fd5b50610205600160a060020a0360043516602435610579565b604080519115158252519081900360200190f35b34801561022557600080fd5b5061022e6105df565b60408051918252519081900360200190f35b34801561024c57600080fd5b50610205600160a060020a03600435166105e5565b34801561026d57600080fd5b50610205600160a060020a0360043581169060243516604435610603565b34801561029757600080fd5b506102a061062e565b6040805160ff9092168252519081900360200190f35b3480156102c257600080fd5b506102da600160a060020a0360043516602435610637565b005b3480156102e857600080fd5b5061022e610755565b3480156102fd57600080fd5b50610205600160a060020a036004351660243561075b565b34801561032157600080fd5b5061022e600160a060020a036004351661084b565b34801561034257600080fd5b5061016c610866565b34801561035757600080fd5b506101076108c1565b34801561036c57600080fd5b506102da600160a060020a036004351660243561095f565b34801561039057600080fd5b50610205600160a060020a0360043516602435610aa2565b3480156103b457600080fd5b506103bd610acb565b60408051600160a060020a039092168252519081900360200190f35b3480156103e557600080fd5b506103f1600435610ada565b60408051600160a060020a03909316835260208301919091528051918290030190f35b34801561042057600080fd5b50610205600160a060020a0360043516602435610b10565b34801561044457600080fd5b5061022e600160a060020a0360043581169060243516610ba9565b6060806000600780549050604051908082528060200260200182016040528015610493578160200160208202803883390190505b509150600090505b6007548110156104e55760078054829081106104b357fe5b90600052602060002090600202016001015482828151811015156104d357fe5b6020908102909101015260010161049b565b50919050565b6003805460408051602060026001851615610100026000190190941693909304601f810184900484028201840190925281815292918301828280156105715780601f1061054657610100808354040283529160200191610571565b820191906000526020600020905b81548152906001019060200180831161055457829003601f168201915b505050505081565b336000818152600260209081526040808320600160a060020a038716808552908352818420869055815186815291519394909390927f8c5be1e5ebec7d5bd14f71427d1e84f3dd0314c0f7b2291e5b200ac8c7c3b925928290030190a350600192915050565b60015490565b600160a060020a031660009081526008602052604090205460ff1690565b6000600160a060020a03831630141561061b57600080fd5b610626848484610bd4565b949350505050565b60055460ff1681565b600960009054906101000a9004600160a060020a0316600160a060020a031663f2f4eb266040518163ffffffff1660e060020a028152600401602060405180830381600087803b15801561068a57600080fd5b505af115801561069e573d6000803e3d6000fd5b505050506040513d60208110156106b457600080fd5b5051600160a060020a031633146106ca57600080fd5b600160a060020a0382166000908152602081905260409020546106f3908263ffffffff610d3916565b600160a060020a03831660009081526020819052604090205560015461071f908263ffffffff610d3916565b600155604080518281529051600160a060020a03841691600091600080516020610fcd8339815191529181900360200190a35050565b60065481565b336000908152600260209081526040808320600160a060020a0386168452909152812054808311156107b057336000908152600260209081526040808320600160a060020a03881684529091528120556107e5565b6107c0818463ffffffff610d4c16565b336000908152600260209081526040808320600160a060020a03891684529091529020555b336000818152600260209081526040808320600160a060020a0389168085529083529281902054815190815290519293927f8c5be1e5ebec7d5bd14f71427d1e84f3dd0314c0f7b2291e5b200ac8c7c3b925929181900390910190a35060019392505050565b600160a060020a031660009081526020819052604090205490565b6004805460408051602060026001851615610100026000190190941693909304601f810184900484028201840190925281815292918301828280156105715780601f1061054657610100808354040283529160200191610571565b60608060006007805490506040519080825280602002602001820160405280156108f5578160200160208202803883390190505b509150600090505b6007548110156104e557600780548290811061091557fe5b60009182526020909120600290910201548251600160a060020a039091169083908390811061094057fe5b600160a060020a039092166020928302909101909101526001016108fd565b600960009054906101000a9004600160a060020a0316600160a060020a031663f2f4eb266040518163ffffffff1660e060020a028152600401602060405180830381600087803b1580156109b257600080fd5b505af11580156109c6573d6000803e3d6000fd5b505050506040513d60208110156109dc57600080fd5b5051600160a060020a031633146109f257600080fd5b600160a060020a038216600090815260208190526040902054811115610a1757600080fd5b600160a060020a038216600090815260208190526040902054610a40908263ffffffff610d4c16565b600160a060020a038316600090815260208190526040902055600154610a6c908263ffffffff610d4c16565b600155604080518281529051600091600160a060020a03851691600080516020610fcd8339815191529181900360200190a35050565b6000600160a060020a038316301415610aba57600080fd5b610ac48383610d5e565b9392505050565b600954600160a060020a031681565b6007805482908110610ae857fe5b600091825260209091206002909102018054600190910154600160a060020a03909116915082565b336000908152600260209081526040808320600160a060020a0386168452909152812054610b44908363ffffffff610d3916565b336000818152600260209081526040808320600160a060020a0389168085529083529281902085905580519485525191937f8c5be1e5ebec7d5bd14f71427d1e84f3dd0314c0f7b2291e5b200ac8c7c3b925929081900390910190a350600192915050565b600160a060020a03918216600090815260026020908152604080832093909416825291909152205490565b6000600160a060020a0383161515610beb57600080fd5b600160a060020a038416600090815260208190526040902054821115610c1057600080fd5b600160a060020a0384166000908152600260209081526040808320338452909152902054821115610c4057600080fd5b600160a060020a038416600090815260208190526040902054610c69908363ffffffff610d4c16565b600160a060020a038086166000908152602081905260408082209390935590851681522054610c9e908363ffffffff610d3916565b600160a060020a03808516600090815260208181526040808320949094559187168152600282528281203382529091522054610ce0908363ffffffff610d4c16565b600160a060020a0380861660008181526002602090815260408083203384528252918290209490945580518681529051928716939192600080516020610fcd833981519152929181900390910190a35060019392505050565b81810182811015610d4657fe5b92915050565b600082821115610d5857fe5b50900390565b6000600160a060020a0383161515610d7557600080fd5b33600090815260208190526040902054821115610d9157600080fd5b33600090815260208190526040902054610db1908363ffffffff610d4c16565b3360009081526020819052604080822092909255600160a060020a03851681522054610de3908363ffffffff610d3916565b600160a060020a03841660008181526020818152604091829020939093558051858152905191923392600080516020610fcd8339815191529281900390910190a350600192915050565b606080610e3983610eaa565b9050806040516020018082805190602001908083835b60208310610e6e5780518252601f199092019160209182019101610e4f565b6001836020036101000a038019825116818451168082178552505050505050905001915050604051602081830303815290604052915050919050565b60606000815b602082108015610eda5750838260208110610ec757fe5b1a60f860020a0260f860020a9004600014155b15610eea57816001019150610eb0565b816040519080825280601f01601f191660200182016040528015610f18578160200160208202803883390190505b509050600091505b602082108015610f6b5750838260208110610f3757fe5b1a60f860020a027effffffffffffffffffffffffffffffffffffffffffffffffffffffffffffff1916600060f860020a0214155b15610ac457838260208110610f7c57fe5b1a60f860020a028183815181101515610f9157fe5b9060200101907effffffffffffffffffffffffffffffffffffffffffffffffffffffffffffff1916908160001a905350816001019150610f205600ddf252ad1be2c89b69c2b068fc378daa952ba7f163c4a11628f55a4df523b3efa165627a7a72305820a557a4d2e0b8e229194ef9deff183af22de6169c443d45431faaab2315c0255b0029a165627a7a723058203ead937aa208786ca7dd2ae994512a941384ee607b8dae2220c8729139e5eaec0029",
  "source": "/*\n    Copyright 2018 Set Labs Inc.\n\n    Licensed under the Apache License, Version 2.0 (the \"License\");\n    you may not use this file except in compliance with the License.\n    You may obtain a copy of the License at\n\n    http://www.apache.org/licenses/LICENSE-2.0\n\n    Unless required by applicable law or agreed to in writing, software\n    distributed under the License is distributed on an \"AS IS\" BASIS,\n    WITHOUT WARRANTIES OR CONDITIONS OF ANY KIND, either express or implied.\n    See the License for the specific language governing permissions and\n    limitations under the License.\n*/\n\npragma solidity 0.4.24;\n\nimport { SetToken } from \"./SetToken.sol\";\n\n\n/**\n * @title SetTokenFactory\n * @author Set Protocol\n *\n * SetTokenFactory is a smart contract used to deploy new SetToken contracts.\n * SetTokens deployed by the factory can only have their mint and burn functions\n * called by Core\n */\ncontract SetTokenFactory\n{\n    /* ============ State Variables ============ */\n\n    // Address of the Core contract\n    address public core;\n\n    /* ============ Constructor ============ */\n\n    /**\n     * Set core constructor\n     *\n     * @param  _core   The address of deployed core contract\n     */\n    constructor(\n        address _core\n    )\n        public\n    {\n        core = _core;\n    }\n\n    /* ============ Public Functions ============ */\n\n    /**\n     * Deploys a new SetToken contract.\n     * Can only be called by authorized core contracts.\n     *\n     * @param  _components     The address of component tokens\n     * @param  _units          The units of each component token\n     * @param  _naturalUnit    The minimum unit to be issued or redeemed\n     * @param  _name           The bytes32 encoded name of the new Set\n     * @param  _symbol         The bytes32 encoded symbol of the new Set\n     * @param  _callData       Byte string containing additional call parameters\n     * @return setToken        The address of the newly created SetToken\n     */\n    function create(\n        address[] _components,\n        uint256[] _units,\n        uint256 _naturalUnit,\n        bytes32 _name,\n        bytes32 _symbol,\n        bytes _callData\n    )\n        external\n        returns (address)\n    {\n        // Expecting caller to be Core\n        require(msg.sender == core);\n\n        // Create a new SetToken contract\n        return new SetToken(\n            this,\n            _components,\n            _units,\n            _naturalUnit,\n            _name,\n            _symbol\n        );\n    }\n}\n",
  "sourcePath": "/Users/justinkchen/workspace/set-protocol-contracts/contracts/core/SetTokenFactory.sol",
  "compiler": {
    "name": "solc",
    "version": "0.4.24+commit.e67f0147.Emscripten.clang"
  },
  "schemaVersion": "2.0.0",
  "updatedAt": "2018-08-22T15:29:45.043Z"
}