{
  "contractName": "SetToken",
  "abi": [
    {
      "constant": true,
      "inputs": [],
      "name": "name",
      "outputs": [
        {
          "name": "",
          "type": "string"
        }
      ],
      "payable": false,
      "stateMutability": "view",
      "type": "function"
    },
    {
      "constant": false,
      "inputs": [
        {
          "name": "_spender",
          "type": "address"
        },
        {
          "name": "_value",
          "type": "uint256"
        }
      ],
      "name": "approve",
      "outputs": [
        {
          "name": "",
          "type": "bool"
        }
      ],
      "payable": false,
      "stateMutability": "nonpayable",
      "type": "function"
    },
    {
      "constant": true,
      "inputs": [],
      "name": "totalSupply",
      "outputs": [
        {
          "name": "",
          "type": "uint256"
        }
      ],
      "payable": false,
      "stateMutability": "view",
      "type": "function"
    },
    {
      "constant": true,
      "inputs": [],
      "name": "decimals",
      "outputs": [
        {
          "name": "",
          "type": "uint8"
        }
      ],
      "payable": false,
      "stateMutability": "view",
      "type": "function"
    },
    {
      "constant": true,
      "inputs": [],
      "name": "naturalUnit",
      "outputs": [
        {
          "name": "",
          "type": "uint256"
        }
      ],
      "payable": false,
      "stateMutability": "view",
      "type": "function"
    },
    {
      "constant": false,
      "inputs": [
        {
          "name": "_spender",
          "type": "address"
        },
        {
          "name": "_subtractedValue",
          "type": "uint256"
        }
      ],
      "name": "decreaseApproval",
      "outputs": [
        {
          "name": "",
          "type": "bool"
        }
      ],
      "payable": false,
      "stateMutability": "nonpayable",
      "type": "function"
    },
    {
      "constant": true,
      "inputs": [
        {
          "name": "_owner",
          "type": "address"
        }
      ],
      "name": "balanceOf",
      "outputs": [
        {
          "name": "",
          "type": "uint256"
        }
      ],
      "payable": false,
      "stateMutability": "view",
      "type": "function"
    },
    {
      "constant": true,
      "inputs": [],
      "name": "symbol",
      "outputs": [
        {
          "name": "",
          "type": "string"
        }
      ],
      "payable": false,
      "stateMutability": "view",
      "type": "function"
    },
    {
      "constant": true,
      "inputs": [],
      "name": "factory",
      "outputs": [
        {
          "name": "",
          "type": "address"
        }
      ],
      "payable": false,
      "stateMutability": "view",
      "type": "function"
    },
    {
      "constant": true,
      "inputs": [
        {
          "name": "",
          "type": "uint256"
        }
      ],
      "name": "components",
      "outputs": [
        {
          "name": "address_",
          "type": "address"
        },
        {
          "name": "unit_",
          "type": "uint256"
        }
      ],
      "payable": false,
      "stateMutability": "view",
      "type": "function"
    },
    {
      "constant": false,
      "inputs": [
        {
          "name": "_spender",
          "type": "address"
        },
        {
          "name": "_addedValue",
          "type": "uint256"
        }
      ],
      "name": "increaseApproval",
      "outputs": [
        {
          "name": "",
          "type": "bool"
        }
      ],
      "payable": false,
      "stateMutability": "nonpayable",
      "type": "function"
    },
    {
      "constant": true,
      "inputs": [
        {
          "name": "_owner",
          "type": "address"
        },
        {
          "name": "_spender",
          "type": "address"
        }
      ],
      "name": "allowance",
      "outputs": [
        {
          "name": "",
          "type": "uint256"
        }
      ],
      "payable": false,
      "stateMutability": "view",
      "type": "function"
    },
    {
      "inputs": [
        {
          "name": "_factory",
          "type": "address"
        },
        {
          "name": "_components",
          "type": "address[]"
        },
        {
          "name": "_units",
          "type": "uint256[]"
        },
        {
          "name": "_naturalUnit",
          "type": "uint256"
        },
        {
          "name": "_name",
          "type": "string"
        },
        {
          "name": "_symbol",
          "type": "string"
        }
      ],
      "payable": false,
      "stateMutability": "nonpayable",
      "type": "constructor"
    },
    {
      "anonymous": false,
      "inputs": [
        {
          "indexed": true,
          "name": "owner",
          "type": "address"
        },
        {
          "indexed": true,
          "name": "spender",
          "type": "address"
        },
        {
          "indexed": false,
          "name": "value",
          "type": "uint256"
        }
      ],
      "name": "Approval",
      "type": "event"
    },
    {
      "anonymous": false,
      "inputs": [
        {
          "indexed": true,
          "name": "from",
          "type": "address"
        },
        {
          "indexed": true,
          "name": "to",
          "type": "address"
        },
        {
          "indexed": false,
          "name": "value",
          "type": "uint256"
        }
      ],
      "name": "Transfer",
      "type": "event"
    },
    {
      "constant": false,
      "inputs": [
        {
          "name": "_issuer",
          "type": "address"
        },
        {
          "name": "_quantity",
          "type": "uint256"
        }
      ],
      "name": "mint",
      "outputs": [],
      "payable": false,
      "stateMutability": "nonpayable",
      "type": "function"
    },
    {
      "constant": false,
      "inputs": [
        {
          "name": "_from",
          "type": "address"
        },
        {
          "name": "_quantity",
          "type": "uint256"
        }
      ],
      "name": "burn",
      "outputs": [],
      "payable": false,
      "stateMutability": "nonpayable",
      "type": "function"
    },
    {
      "constant": true,
      "inputs": [],
      "name": "getComponents",
      "outputs": [
        {
          "name": "",
          "type": "address[]"
        }
      ],
      "payable": false,
      "stateMutability": "view",
      "type": "function"
    },
    {
      "constant": true,
      "inputs": [],
      "name": "getUnits",
      "outputs": [
        {
          "name": "",
          "type": "uint256[]"
        }
      ],
      "payable": false,
      "stateMutability": "view",
      "type": "function"
    },
    {
      "constant": false,
      "inputs": [
        {
          "name": "_to",
          "type": "address"
        },
        {
          "name": "_value",
          "type": "uint256"
        }
      ],
      "name": "transfer",
      "outputs": [
        {
          "name": "",
          "type": "bool"
        }
      ],
      "payable": false,
      "stateMutability": "nonpayable",
      "type": "function"
    },
    {
      "constant": false,
      "inputs": [
        {
          "name": "_from",
          "type": "address"
        },
        {
          "name": "_to",
          "type": "address"
        },
        {
          "name": "_value",
          "type": "uint256"
        }
      ],
      "name": "transferFrom",
      "outputs": [
        {
          "name": "",
          "type": "bool"
        }
      ],
      "payable": false,
      "stateMutability": "nonpayable",
      "type": "function"
    }
  ],
  "bytecode": "0x60806040523480156200001157600080fd5b50604051620028b3380380620028b383398101806040528101908080519060200190929190805182019291906020018051820192919060200180519060200190929190805182019291906020018051820192919050505060008060008060008686601282600390805190602001906200008c929190620007f9565b508160049080519060200190620000a5929190620007f9565b5080600560006101000a81548160ff021916908360ff16021790555050505060129450600092505b88518361ffff161015620006b057888361ffff16815181101515620000ee57fe5b90602001906020020151915060008211606060405190810160405280602381526020017f556e6974206465636c61726174696f6e73206d757374206265206e6f6e2d7a6581526020017f726f2e000000000000000000000000000000000000000000000000000000000081525090151562000207576040517f08c379a00000000000000000000000000000000000000000000000000000000081526004018080602001828103825283818151815260200191508051906020019080838360005b83811015620001cb578082015181840152602081019050620001ae565b50505050905090810190601f168015620001f95780820380516001836020036101000a031916815260200191505b509250505060405180910390fd5b50898361ffff168151811015156200021b57fe5b906020019060200201519050600073ffffffffffffffffffffffffffffffffffffffff168173ffffffffffffffffffffffffffffffffffffffff161415606060405190810160405280602681526020017f436f6d706f6e656e7473206d7573742068617665206e6f6e2d7a65726f20616481526020017f64726573732e000000000000000000000000000000000000000000000000000081525090151562000361576040517f08c379a00000000000000000000000000000000000000000000000000000000081526004018080602001828103825283818151815260200191508051906020019080838360005b838110156200032557808201518184015260208101905062000308565b50505050905090810190601f168015620003535780820380516001836020036101000a031916815260200191505b509250505060405180910390fd5b508073ffffffffffffffffffffffffffffffffffffffff1660405180807f646563696d616c73282900000000000000000000000000000000000000000000815250600a01905060405180910390207c010000000000000000000000000000000000000000000000000000000090046040518163ffffffff167c01000000000000000000000000000000000000000000000000000000000281526004016000604051808303816000875af19250505015620004d8578073ffffffffffffffffffffffffffffffffffffffff1663313ce5676040518163ffffffff167c0100000000000000000000000000000000000000000000000000000000028152600401602060405180830381600087803b1580156200047a57600080fd5b505af11580156200048f573d6000803e3d6000fd5b505050506040513d6020811015620004a657600080fd5b810190808051906020019092919050505093508460ff168460ff1610620004ce5784620004d0565b835b9450620004dd565b600094505b620004f78162000709640100000000026401000000009004565b1515156200050457600080fd5b60016008600083604051602001808273ffffffffffffffffffffffffffffffffffffffff1673ffffffffffffffffffffffffffffffffffffffff166c010000000000000000000000000281526014019150506040516020818303038152906040526040518082805190602001908083835b6020831015156200059c578051825260208201915060208101905060208303925062000575565b6001836020036101000a03801982511681845116808217855250505050505090500191505060405180910390206000191660001916815260200190815260200160002060006101000a81548160ff021916908315150217905550600760408051908101604052808373ffffffffffffffffffffffffffffffffffffffff168152602001848152509080600181540180825580915050906001820390600052602060002090600202016000909192909190915060008201518160000160006101000a81548173ffffffffffffffffffffffffffffffffffffffff021916908373ffffffffffffffffffffffffffffffffffffffff160217905550602082015181600101555050508280600101935050620000cd565b8a600960006101000a81548173ffffffffffffffffffffffffffffffffffffffff021916908373ffffffffffffffffffffffffffffffffffffffff160217905550876006819055505050505050505050505050620008a8565b60006008600083604051602001808273ffffffffffffffffffffffffffffffffffffffff1673ffffffffffffffffffffffffffffffffffffffff166c010000000000000000000000000281526014019150506040516020818303038152906040526040518082805190602001908083835b602083101515620007a157805182526020820191506020810190506020830392506200077a565b6001836020036101000a03801982511681845116808217855250505050505090500191505060405180910390206000191660001916815260200190815260200160002060009054906101000a900460ff169050919050565b828054600181600116156101000203166002900490600052602060002090601f016020900481019282601f106200083c57805160ff19168380011785556200086d565b828001600101855582156200086d579182015b828111156200086c5782518255916020019190600101906200084f565b5b5090506200087c919062000880565b5090565b620008a591905b80821115620008a157600081600090555060010162000887565b5090565b90565b611ffb80620008b86000396000f3006080604052600436106100fc576000357c0100000000000000000000000000000000000000000000000000000000900463ffffffff168063027aa9f51461010157806306fdde031461016d578063095ea7b3146101fd57806318160ddd1461026257806323b872dd1461028d578063313ce5671461031257806340c10f191461034357806342a7cfd51461039057806366188463146103bb57806370a082311461042057806395d89b411461047757806399d50d5d146105075780639dc29fac14610573578063a9059cbb146105c0578063c45a015514610625578063c5d574fe1461067c578063d73dd623146106f0578063dd62ed3e14610755575b600080fd5b34801561010d57600080fd5b506101166107cc565b6040518080602001828103825283818151815260200191508051906020019060200280838360005b8381101561015957808201518184015260208101905061013e565b505050509050019250505060405180910390f35b34801561017957600080fd5b50610182610878565b6040518080602001828103825283818151815260200191508051906020019080838360005b838110156101c25780820151818401526020810190506101a7565b50505050905090810190601f1680156101ef5780820380516001836020036101000a031916815260200191505b509250505060405180910390f35b34801561020957600080fd5b50610248600480360381019080803573ffffffffffffffffffffffffffffffffffffffff16906020019092919080359060200190929190505050610916565b604051808215151515815260200191505060405180910390f35b34801561026e57600080fd5b50610277610a08565b6040518082815260200191505060405180910390f35b34801561029957600080fd5b506102f8600480360381019080803573ffffffffffffffffffffffffffffffffffffffff169060200190929190803573ffffffffffffffffffffffffffffffffffffffff16906020019092919080359060200190929190505050610a12565b604051808215151515815260200191505060405180910390f35b34801561031e57600080fd5b50610327610aa1565b604051808260ff1660ff16815260200191505060405180910390f35b34801561034f57600080fd5b5061038e600480360381019080803573ffffffffffffffffffffffffffffffffffffffff16906020019092919080359060200190929190505050610ab4565b005b34801561039c57600080fd5b506103a5610d5b565b6040518082815260200191505060405180910390f35b3480156103c757600080fd5b50610406600480360381019080803573ffffffffffffffffffffffffffffffffffffffff16906020019092919080359060200190929190505050610d61565b604051808215151515815260200191505060405180910390f35b34801561042c57600080fd5b50610461600480360381019080803573ffffffffffffffffffffffffffffffffffffffff169060200190929190505050610ff2565b6040518082815260200191505060405180910390f35b34801561048357600080fd5b5061048c61103a565b6040518080602001828103825283818151815260200191508051906020019080838360005b838110156104cc5780820151818401526020810190506104b1565b50505050905090810190601f1680156104f95780820380516001836020036101000a031916815260200191505b509250505060405180910390f35b34801561051357600080fd5b5061051c6110d8565b6040518080602001828103825283818151815260200191508051906020019060200280838360005b8381101561055f578082015181840152602081019050610544565b505050509050019250505060405180910390f35b34801561057f57600080fd5b506105be600480360381019080803573ffffffffffffffffffffffffffffffffffffffff169060200190929190803590602001909291905050506111d2565b005b3480156105cc57600080fd5b5061060b600480360381019080803573ffffffffffffffffffffffffffffffffffffffff16906020019092919080359060200190929190505050611638565b604051808215151515815260200191505060405180910390f35b34801561063157600080fd5b5061063a6116c5565b604051808273ffffffffffffffffffffffffffffffffffffffff1673ffffffffffffffffffffffffffffffffffffffff16815260200191505060405180910390f35b34801561068857600080fd5b506106a7600480360381019080803590602001909291905050506116eb565b604051808373ffffffffffffffffffffffffffffffffffffffff1673ffffffffffffffffffffffffffffffffffffffff1681526020018281526020019250505060405180910390f35b3480156106fc57600080fd5b5061073b600480360381019080803573ffffffffffffffffffffffffffffffffffffffff1690602001909291908035906020019092919050505061173e565b604051808215151515815260200191505060405180910390f35b34801561076157600080fd5b506107b6600480360381019080803573ffffffffffffffffffffffffffffffffffffffff169060200190929190803573ffffffffffffffffffffffffffffffffffffffff16906020019092919050505061193a565b6040518082815260200191505060405180910390f35b60608060006007805490506040519080825280602002602001820160405280156108055781602001602082028038833980820191505090505b509150600090505b6007805490508161ffff1610156108705760078161ffff1681548110151561083157fe5b906000526020600020906002020160010154828261ffff1681518110151561085557fe5b9060200190602002018181525050808060010191505061080d565b819250505090565b60038054600181600116156101000203166002900480601f01602080910402602001604051908101604052809291908181526020018280546001816001161561010002031660029004801561090e5780601f106108e35761010080835404028352916020019161090e565b820191906000526020600020905b8154815290600101906020018083116108f157829003601f168201915b505050505081565b600081600260003373ffffffffffffffffffffffffffffffffffffffff1673ffffffffffffffffffffffffffffffffffffffff16815260200190815260200160002060008573ffffffffffffffffffffffffffffffffffffffff1673ffffffffffffffffffffffffffffffffffffffff168152602001908152602001600020819055508273ffffffffffffffffffffffffffffffffffffffff163373ffffffffffffffffffffffffffffffffffffffff167f8c5be1e5ebec7d5bd14f71427d1e84f3dd0314c0f7b2291e5b200ac8c7c3b925846040518082815260200191505060405180910390a36001905092915050565b6000600154905090565b600082600073ffffffffffffffffffffffffffffffffffffffff168173ffffffffffffffffffffffffffffffffffffffff1614151515610a5157600080fd5b3073ffffffffffffffffffffffffffffffffffffffff168173ffffffffffffffffffffffffffffffffffffffff1614151515610a8c57600080fd5b610a978585856119c1565b9150509392505050565b600560009054906101000a900460ff1681565b600960009054906101000a900473ffffffffffffffffffffffffffffffffffffffff1673ffffffffffffffffffffffffffffffffffffffff1663f2f4eb266040518163ffffffff167c0100000000000000000000000000000000000000000000000000000000028152600401602060405180830381600087803b158015610b3a57600080fd5b505af1158015610b4e573d6000803e3d6000fd5b505050506040513d6020811015610b6457600080fd5b810190808051906020019092919050505073ffffffffffffffffffffffffffffffffffffffff163373ffffffffffffffffffffffffffffffffffffffff1614606060405190810160405280603181526020017f53656e646572206973206e6f74207065726d697474656420746f20706572666f81526020017f726d20746869732066756e6374696f6e2e000000000000000000000000000000815250901515610ca8576040517f08c379a00000000000000000000000000000000000000000000000000000000081526004018080602001828103825283818151815260200191508051906020019080838360005b83811015610c6d578082015181840152602081019050610c52565b50505050905090810190601f168015610c9a5780820380516001836020036101000a031916815260200191505b509250505060405180910390fd5b50610cfa816000808573ffffffffffffffffffffffffffffffffffffffff1673ffffffffffffffffffffffffffffffffffffffff16815260200190815260200160002054611d7b90919063ffffffff16565b6000808473ffffffffffffffffffffffffffffffffffffffff1673ffffffffffffffffffffffffffffffffffffffff16815260200190815260200160002081905550610d5181600154611d7b90919063ffffffff16565b6001819055505050565b60065481565b600080600260003373ffffffffffffffffffffffffffffffffffffffff1673ffffffffffffffffffffffffffffffffffffffff16815260200190815260200160002060008573ffffffffffffffffffffffffffffffffffffffff1673ffffffffffffffffffffffffffffffffffffffff16815260200190815260200160002054905080831115610e72576000600260003373ffffffffffffffffffffffffffffffffffffffff1673ffffffffffffffffffffffffffffffffffffffff16815260200190815260200160002060008673ffffffffffffffffffffffffffffffffffffffff1673ffffffffffffffffffffffffffffffffffffffff16815260200190815260200160002081905550610f06565b610e858382611d9790919063ffffffff16565b600260003373ffffffffffffffffffffffffffffffffffffffff1673ffffffffffffffffffffffffffffffffffffffff16815260200190815260200160002060008673ffffffffffffffffffffffffffffffffffffffff1673ffffffffffffffffffffffffffffffffffffffff168152602001908152602001600020819055505b8373ffffffffffffffffffffffffffffffffffffffff163373ffffffffffffffffffffffffffffffffffffffff167f8c5be1e5ebec7d5bd14f71427d1e84f3dd0314c0f7b2291e5b200ac8c7c3b925600260003373ffffffffffffffffffffffffffffffffffffffff1673ffffffffffffffffffffffffffffffffffffffff16815260200190815260200160002060008873ffffffffffffffffffffffffffffffffffffffff1673ffffffffffffffffffffffffffffffffffffffff168152602001908152602001600020546040518082815260200191505060405180910390a3600191505092915050565b60008060008373ffffffffffffffffffffffffffffffffffffffff1673ffffffffffffffffffffffffffffffffffffffff168152602001908152602001600020549050919050565b60048054600181600116156101000203166002900480601f0160208091040260200160405190810160405280929190818152602001828054600181600116156101000203166002900480156110d05780601f106110a5576101008083540402835291602001916110d0565b820191906000526020600020905b8154815290600101906020018083116110b357829003601f168201915b505050505081565b60608060006007805490506040519080825280602002602001820160405280156111115781602001602082028038833980820191505090505b509150600090505b6007805490508161ffff1610156111ca5760078161ffff1681548110151561113d57fe5b906000526020600020906002020160000160009054906101000a900473ffffffffffffffffffffffffffffffffffffffff16828261ffff1681518110151561118157fe5b9060200190602002019073ffffffffffffffffffffffffffffffffffffffff16908173ffffffffffffffffffffffffffffffffffffffff16815250508080600101915050611119565b819250505090565b600960009054906101000a900473ffffffffffffffffffffffffffffffffffffffff1673ffffffffffffffffffffffffffffffffffffffff1663f2f4eb266040518163ffffffff167c0100000000000000000000000000000000000000000000000000000000028152600401602060405180830381600087803b15801561125857600080fd5b505af115801561126c573d6000803e3d6000fd5b505050506040513d602081101561128257600080fd5b810190808051906020019092919050505073ffffffffffffffffffffffffffffffffffffffff163373ffffffffffffffffffffffffffffffffffffffff1614606060405190810160405280603181526020017f53656e646572206973206e6f74207065726d697474656420746f20706572666f81526020017f726d20746869732066756e6374696f6e2e0000000000000000000000000000008152509015156113c6576040517f08c379a00000000000000000000000000000000000000000000000000000000081526004018080602001828103825283818151815260200191508051906020019080838360005b8381101561138b578082015181840152602081019050611370565b50505050905090810190601f1680156113b85780820380516001836020036101000a031916815260200191505b509250505060405180910390fd5b508060008111606060405190810160405280602381526020017f5175616e74697479206d7573742062652067726561746572207468616e207a6581526020017f726f2e00000000000000000000000000000000000000000000000000000000008152509015156114d1576040517f08c379a00000000000000000000000000000000000000000000000000000000081526004018080602001828103825283818151815260200191508051906020019080838360005b8381101561149657808201518184015260208101905061147b565b50505050905090810190601f1680156114c35780820380516001836020036101000a031916815260200191505b509250505060405180910390fd5b50816000808573ffffffffffffffffffffffffffffffffffffffff1673ffffffffffffffffffffffffffffffffffffffff168152602001908152602001600020541015151561151f57600080fd5b611570826000808673ffffffffffffffffffffffffffffffffffffffff1673ffffffffffffffffffffffffffffffffffffffff16815260200190815260200160002054611d9790919063ffffffff16565b6000808573ffffffffffffffffffffffffffffffffffffffff1673ffffffffffffffffffffffffffffffffffffffff168152602001908152602001600020819055506115c782600154611d9790919063ffffffff16565b600181905550600073ffffffffffffffffffffffffffffffffffffffff168373ffffffffffffffffffffffffffffffffffffffff167fddf252ad1be2c89b69c2b068fc378daa952ba7f163c4a11628f55a4df523b3ef846040518082815260200191505060405180910390a3505050565b600082600073ffffffffffffffffffffffffffffffffffffffff168173ffffffffffffffffffffffffffffffffffffffff161415151561167757600080fd5b3073ffffffffffffffffffffffffffffffffffffffff168173ffffffffffffffffffffffffffffffffffffffff16141515156116b257600080fd5b6116bc8484611db0565b91505092915050565b600960009054906101000a900473ffffffffffffffffffffffffffffffffffffffff1681565b6007818154811015156116fa57fe5b90600052602060002090600202016000915090508060000160009054906101000a900473ffffffffffffffffffffffffffffffffffffffff16908060010154905082565b60006117cf82600260003373ffffffffffffffffffffffffffffffffffffffff1673ffffffffffffffffffffffffffffffffffffffff16815260200190815260200160002060008673ffffffffffffffffffffffffffffffffffffffff1673ffffffffffffffffffffffffffffffffffffffff16815260200190815260200160002054611d7b90919063ffffffff16565b600260003373ffffffffffffffffffffffffffffffffffffffff1673ffffffffffffffffffffffffffffffffffffffff16815260200190815260200160002060008573ffffffffffffffffffffffffffffffffffffffff1673ffffffffffffffffffffffffffffffffffffffff168152602001908152602001600020819055508273ffffffffffffffffffffffffffffffffffffffff163373ffffffffffffffffffffffffffffffffffffffff167f8c5be1e5ebec7d5bd14f71427d1e84f3dd0314c0f7b2291e5b200ac8c7c3b925600260003373ffffffffffffffffffffffffffffffffffffffff1673ffffffffffffffffffffffffffffffffffffffff16815260200190815260200160002060008773ffffffffffffffffffffffffffffffffffffffff1673ffffffffffffffffffffffffffffffffffffffff168152602001908152602001600020546040518082815260200191505060405180910390a36001905092915050565b6000600260008473ffffffffffffffffffffffffffffffffffffffff1673ffffffffffffffffffffffffffffffffffffffff16815260200190815260200160002060008373ffffffffffffffffffffffffffffffffffffffff1673ffffffffffffffffffffffffffffffffffffffff16815260200190815260200160002054905092915050565b60008073ffffffffffffffffffffffffffffffffffffffff168373ffffffffffffffffffffffffffffffffffffffff16141515156119fe57600080fd5b6000808573ffffffffffffffffffffffffffffffffffffffff1673ffffffffffffffffffffffffffffffffffffffff168152602001908152602001600020548211151515611a4b57600080fd5b600260008573ffffffffffffffffffffffffffffffffffffffff1673ffffffffffffffffffffffffffffffffffffffff16815260200190815260200160002060003373ffffffffffffffffffffffffffffffffffffffff1673ffffffffffffffffffffffffffffffffffffffff168152602001908152602001600020548211151515611ad657600080fd5b611b27826000808773ffffffffffffffffffffffffffffffffffffffff1673ffffffffffffffffffffffffffffffffffffffff16815260200190815260200160002054611d9790919063ffffffff16565b6000808673ffffffffffffffffffffffffffffffffffffffff1673ffffffffffffffffffffffffffffffffffffffff16815260200190815260200160002081905550611bba826000808673ffffffffffffffffffffffffffffffffffffffff1673ffffffffffffffffffffffffffffffffffffffff16815260200190815260200160002054611d7b90919063ffffffff16565b6000808573ffffffffffffffffffffffffffffffffffffffff1673ffffffffffffffffffffffffffffffffffffffff16815260200190815260200160002081905550611c8b82600260008773ffffffffffffffffffffffffffffffffffffffff1673ffffffffffffffffffffffffffffffffffffffff16815260200190815260200160002060003373ffffffffffffffffffffffffffffffffffffffff1673ffffffffffffffffffffffffffffffffffffffff16815260200190815260200160002054611d9790919063ffffffff16565b600260008673ffffffffffffffffffffffffffffffffffffffff1673ffffffffffffffffffffffffffffffffffffffff16815260200190815260200160002060003373ffffffffffffffffffffffffffffffffffffffff1673ffffffffffffffffffffffffffffffffffffffff168152602001908152602001600020819055508273ffffffffffffffffffffffffffffffffffffffff168473ffffffffffffffffffffffffffffffffffffffff167fddf252ad1be2c89b69c2b068fc378daa952ba7f163c4a11628f55a4df523b3ef846040518082815260200191505060405180910390a3600190509392505050565b60008183019050828110151515611d8e57fe5b80905092915050565b6000828211151515611da557fe5b818303905092915050565b60008073ffffffffffffffffffffffffffffffffffffffff168373ffffffffffffffffffffffffffffffffffffffff1614151515611ded57600080fd5b6000803373ffffffffffffffffffffffffffffffffffffffff1673ffffffffffffffffffffffffffffffffffffffff168152602001908152602001600020548211151515611e3a57600080fd5b611e8b826000803373ffffffffffffffffffffffffffffffffffffffff1673ffffffffffffffffffffffffffffffffffffffff16815260200190815260200160002054611d9790919063ffffffff16565b6000803373ffffffffffffffffffffffffffffffffffffffff1673ffffffffffffffffffffffffffffffffffffffff16815260200190815260200160002081905550611f1e826000808673ffffffffffffffffffffffffffffffffffffffff1673ffffffffffffffffffffffffffffffffffffffff16815260200190815260200160002054611d7b90919063ffffffff16565b6000808573ffffffffffffffffffffffffffffffffffffffff1673ffffffffffffffffffffffffffffffffffffffff168152602001908152602001600020819055508273ffffffffffffffffffffffffffffffffffffffff163373ffffffffffffffffffffffffffffffffffffffff167fddf252ad1be2c89b69c2b068fc378daa952ba7f163c4a11628f55a4df523b3ef846040518082815260200191505060405180910390a360019050929150505600a165627a7a72305820df41b023d91b0489bc8d71be113287d3f5667870ed67e9fbf04ae6e2505c0b790029",
  "source": "/*\n    Copyright 2018 Set Labs Inc.\n\n    Licensed under the Apache License, Version 2.0 (the \"License\");\n    you may not use this file except in compliance with the License.\n    You may obtain a copy of the License at\n\n    http://www.apache.org/licenses/LICENSE-2.0\n\n    Unless required by applicable law or agreed to in writing, software\n    distributed under the License is distributed on an \"AS IS\" BASIS,\n    WITHOUT WARRANTIES OR CONDITIONS OF ANY KIND, either express or implied.\n    See the License for the specific language governing permissions and\n    limitations under the License.\n*/\n\npragma solidity 0.4.24;\n\n\nimport { DetailedERC20 } from \"zeppelin-solidity/contracts/token/ERC20/DetailedERC20.sol\";\nimport { StandardToken } from \"zeppelin-solidity/contracts/token/ERC20/StandardToken.sol\";\nimport { SafeMath } from \"zeppelin-solidity/contracts/math/SafeMath.sol\";\nimport { ISetFactory } from \"./interfaces/ISetFactory.sol\";\n\n\n/**\n * @title SetToken\n * @author Set Protocol\n *\n * Implementation of the basic {Set} token.\n */\ncontract SetToken is\n    StandardToken,\n    DetailedERC20\n{\n    using SafeMath for uint256;\n\n    /* ============ Constants ============ */\n\n    string constant COMPONENTS_INPUT_MISMATCH = \"Components and units must be the same length.\";\n    string constant COMPONENTS_MISSING = \"Components must not be empty.\";\n    string constant INVALID_COMPONENT_UNIT = \"Unit declarations must be non-zero.\";\n    string constant INVALID_COMPONENT_ADDRESS = \"Components must have non-zero address.\";\n    string constant INVALID_NATURAL_UNIT = \"Natural unit does not work with component decimals.\";\n    string constant INVALID_SENDER = \"Sender is not permitted to perform this function.\";\n    string constant UNITS_MISSING = \"Units must not be empty.\";\n    string constant ZERO_QUANTITY = \"Quantity must be greater than zero.\";\n\n    /* ============ Structs ============ */\n\n    struct Component {\n        address address_;\n        uint unit_;\n    }\n\n    /* ============ State Variables ============ */\n\n    uint public naturalUnit;\n    Component[] public components;\n\n    // Mapping of componentHash to isComponent\n    mapping(bytes32 => bool) internal isComponent;\n\n    // Address of the Factory contract that created the SetToken\n    address public factory;\n\n    /* ============ Modifiers ============ */\n\n    modifier isCore() {\n        require(\n            msg.sender == ISetFactory(factory).core(),\n            INVALID_SENDER\n        );\n        _;\n    }\n\n    // Confirm that all inputs for creating a set are valid\n    modifier areValidCreationParameters(address[] _components, uint[] _units) {\n        // Confirm an empty _components array is not passed\n        require(\n            _components.length > 0,\n            COMPONENTS_MISSING\n        );\n\n        // Confirm an empty _quantities array is not passed\n        require(\n            _units.length > 0,\n            UNITS_MISSING\n        );\n\n        // Confirm there is one quantity for every token address\n        require(\n            _components.length == _units.length,\n            COMPONENTS_INPUT_MISMATCH\n        );\n        _;\n    }\n\n    modifier isPositive(uint _quantity) {\n        require(\n            _quantity > 0,\n            ZERO_QUANTITY\n        );\n        _;\n    }\n\n    modifier isValidDestination(address _to) {\n        require(_to != address(0));\n        require(_to != address(this));\n        _;\n    }\n\n    /* ============ Constructor ============ */\n\n    /**\n     * Constructor function for {Set} token\n     *\n     * As looping operations are expensive, checking for duplicates will be on the onus of the application developer\n     *\n     * @param _components address[] A list of component address which you want to include\n     * @param _units uint[] A list of quantities in gWei of each component (corresponds to the {Set} of _components)\n     * @param _naturalUnit uint The minimum multiple of Sets that can be issued or redeeemed\n     * @param _name string The Set's name\n     * @param _symbol string the Set's symbol\n     */\n    constructor(\n        address _factory,\n        address[] _components,\n        uint[] _units,\n        uint _naturalUnit,\n        string _name,\n        string _symbol\n    )\n        public\n        DetailedERC20(_name, _symbol, 18)\n        // isPositive(_naturalUnit)\n        // areValidCreationParameters(_components, _units)\n    {\n        // NOTE: It will be the onus of developers to check whether the addressExists\n        // are in fact ERC20 addresses\n        uint8 minDecimals = 18;\n        uint8 currentDecimals;\n        for (uint16 i = 0; i < _units.length; i++) {\n            // Check that all units are non-zero. Negative numbers will underflow\n            uint currentUnits = _units[i];\n            require(\n                currentUnits > 0,\n                INVALID_COMPONENT_UNIT\n            );\n\n            // Check that all addresses are non-zero\n            address currentComponent = _components[i];\n            require(\n                currentComponent != address(0),\n                INVALID_COMPONENT_ADDRESS\n            );\n\n            // Figure out which of the components has the minimum decimal value\n            if (currentComponent.call(bytes4(keccak256(\"decimals()\")))) {\n                currentDecimals = DetailedERC20(currentComponent).decimals();\n                minDecimals = currentDecimals < minDecimals ? currentDecimals : minDecimals;\n            } else {\n                // If one of the components does not implement decimals, we assume the worst\n                // and set minDecimals to 0\n                minDecimals = 0;\n            }\n\n            // Check the component has not already been added\n            require(!tokenIsComponent(currentComponent));\n\n            // add component to isComponent mapping\n            isComponent[keccak256(abi.encodePacked(currentComponent))] = true;\n\n            components.push(Component({\n                address_: currentComponent,\n                unit_: currentUnits\n            }));\n        }\n\n        // This is the minimum natural unit possible for a Set with these components.\n        // require(\n        //     _naturalUnit >= uint(10) ** (18 - minDecimals),\n        //     INVALID_NATURAL_UNIT\n        // );\n\n        factory = _factory;\n        naturalUnit = _naturalUnit;\n    }\n\n    /* ============ Public Functions ============ */\n\n    /*\n     * Mint set token for given address.\n     * Can only be called by authorized contracts.\n     *\n     * @param  _issuer      The address of the issuing account\n     * @param  _quantity    The number of sets to attribute to issuer\n     */\n    function mint(\n        address _issuer,\n        uint _quantity\n    )\n        external\n        isCore\n    {\n        // Update token balance of the issuer\n        balances[_issuer] = balances[_issuer].add(_quantity);\n\n        // Update the total supply of the set token\n        totalSupply_ = totalSupply_.add(_quantity);\n    }\n\n    /*\n     * Burn set token for given address.\n     * Can only be called by authorized contracts.\n     *\n     * @param  _from        The address of the redeeming account\n     * @param  _quantity    The number of sets to burn from redeemer\n     */\n    function burn(\n        address _from,\n        uint _quantity\n    )\n        external\n        isCore\n        isPositive(_quantity)\n    {\n        require(balances[_from] >= _quantity);\n\n        balances[_from] = balances[_from].sub(_quantity);\n        totalSupply_ = totalSupply_.sub(_quantity);\n\n        emit Transfer(_from, address(0), _quantity);\n    }\n\n    /* ============ Getters ============ */\n\n    function getComponents()\n        public\n        view\n        returns(address[])\n    {\n        address[] memory componentAddresses = new address[](components.length);\n        for (uint16 i = 0; i < components.length; i++) {\n            componentAddresses[i] = components[i].address_;\n        }\n        return componentAddresses;\n    }\n\n    function getUnits()\n        public\n        view\n        returns(uint[])\n    {\n        uint[] memory units = new uint[](components.length);\n        for (uint16 i = 0; i < components.length; i++) {\n            units[i] = components[i].unit_;\n        }\n        return units;\n    }\n\n    /* ============ Transfer Overrides ============ */\n\n    function transfer(\n        address _to,\n        uint256 _value\n    )\n        public\n        isValidDestination(_to)\n        returns (bool)\n    {\n        return super.transfer(_to, _value);\n    }\n\n    function transferFrom(\n        address _from,\n        address _to,\n        uint256 _value\n    )\n        public\n        isValidDestination(_to)\n        returns (bool)\n    {\n        return super.transferFrom(_from, _to, _value);\n    }\n\n    /* ============ Private Helpers ============ */\n\n    function tokenIsComponent(\n        address _tokenAddress\n    )\n        view\n        internal\n        returns (bool)\n    {\n        return isComponent[keccak256(abi.encodePacked(_tokenAddress))];\n    }\n}\n",
  "sourcePath": "/Users/justinkchen/workspace/set-protocol-contracts/contracts/core/SetToken.sol",
  "compiler": {
    "name": "solc",
    "version": "0.4.24+commit.e67f0147.Emscripten.clang"
  },
  "schemaVersion": "2.0.0",
  "updatedAt": "2018-07-07T15:28:53.730Z"
}