{
  "contractName": "SetTokenFactory",
  "abi": [
    {
      "constant": false,
      "inputs": [
        {
          "name": "_authTarget",
          "type": "address"
        }
      ],
      "name": "addAuthorizedAddress",
      "outputs": [],
      "payable": false,
      "stateMutability": "nonpayable",
      "type": "function"
    },
    {
      "constant": true,
      "inputs": [
        {
          "name": "",
          "type": "uint256"
        }
      ],
      "name": "authorities",
      "outputs": [
        {
          "name": "",
          "type": "address"
        }
      ],
      "payable": false,
      "stateMutability": "view",
      "type": "function"
    },
    {
      "constant": false,
      "inputs": [
        {
          "name": "_authTarget",
          "type": "address"
        }
      ],
      "name": "removeAuthorizedAddress",
      "outputs": [],
      "payable": false,
      "stateMutability": "nonpayable",
      "type": "function"
    },
    {
      "constant": false,
      "inputs": [],
      "name": "renounceOwnership",
      "outputs": [],
      "payable": false,
      "stateMutability": "nonpayable",
      "type": "function"
    },
    {
      "constant": true,
      "inputs": [],
      "name": "owner",
      "outputs": [
        {
          "name": "",
          "type": "address"
        }
      ],
      "payable": false,
      "stateMutability": "view",
      "type": "function"
    },
    {
      "constant": false,
      "inputs": [
        {
          "name": "_authTarget",
          "type": "address"
        },
        {
          "name": "_index",
          "type": "uint256"
        }
      ],
      "name": "removeAuthorizedAddressAtIndex",
      "outputs": [],
      "payable": false,
      "stateMutability": "nonpayable",
      "type": "function"
    },
    {
      "constant": true,
      "inputs": [
        {
          "name": "",
          "type": "address"
        }
      ],
      "name": "authorized",
      "outputs": [
        {
          "name": "",
          "type": "bool"
        }
      ],
      "payable": false,
      "stateMutability": "view",
      "type": "function"
    },
    {
      "constant": true,
      "inputs": [],
      "name": "getAuthorizedAddresses",
      "outputs": [
        {
          "name": "",
          "type": "address[]"
        }
      ],
      "payable": false,
      "stateMutability": "view",
      "type": "function"
    },
    {
      "constant": true,
      "inputs": [],
      "name": "core",
      "outputs": [
        {
          "name": "",
          "type": "address"
        }
      ],
      "payable": false,
      "stateMutability": "view",
      "type": "function"
    },
    {
      "constant": false,
      "inputs": [
        {
          "name": "_newOwner",
          "type": "address"
        }
      ],
      "name": "transferOwnership",
      "outputs": [],
      "payable": false,
      "stateMutability": "nonpayable",
      "type": "function"
    },
    {
      "anonymous": false,
      "inputs": [
        {
          "indexed": true,
          "name": "authAddress",
          "type": "address"
        },
        {
          "indexed": false,
          "name": "authorizedBy",
          "type": "address"
        }
      ],
      "name": "AddressAuthorized",
      "type": "event"
    },
    {
      "anonymous": false,
      "inputs": [
        {
          "indexed": true,
          "name": "addressRemoved",
          "type": "address"
        },
        {
          "indexed": false,
          "name": "authorizedBy",
          "type": "address"
        }
      ],
      "name": "AuthorizedAddressRemoved",
      "type": "event"
    },
    {
      "anonymous": false,
      "inputs": [
        {
          "indexed": true,
          "name": "previousOwner",
          "type": "address"
        }
      ],
      "name": "OwnershipRenounced",
      "type": "event"
    },
    {
      "anonymous": false,
      "inputs": [
        {
          "indexed": true,
          "name": "previousOwner",
          "type": "address"
        },
        {
          "indexed": true,
          "name": "newOwner",
          "type": "address"
        }
      ],
      "name": "OwnershipTransferred",
      "type": "event"
    },
    {
      "constant": false,
      "inputs": [
        {
          "name": "_coreAddress",
          "type": "address"
        }
      ],
      "name": "setCoreAddress",
      "outputs": [],
      "payable": false,
      "stateMutability": "nonpayable",
      "type": "function"
    },
    {
      "constant": false,
      "inputs": [
        {
          "name": "_components",
          "type": "address[]"
        },
        {
          "name": "_units",
          "type": "uint256[]"
        },
        {
          "name": "_naturalUnit",
          "type": "uint256"
        },
        {
          "name": "_name",
          "type": "string"
        },
        {
          "name": "_symbol",
          "type": "string"
        }
      ],
      "name": "create",
      "outputs": [
        {
          "name": "",
          "type": "address"
        }
      ],
      "payable": false,
      "stateMutability": "nonpayable",
      "type": "function"
    }
  ],
  "bytecode": "0x608060405260008054600160a060020a03191633179055613048806100256000396000f300608060405260043610620000c65763ffffffff7c0100000000000000000000000000000000000000000000000000000000600035041663110a25c28114620000cb57806342f1181e146200013f578063494503d4146200017257806370712939146200018d578063715018a614620001be5780638da5cb5b14620001d657806391aad23914620001ee5780639ad26744146200021f578063b91816111462000253578063d39de6e91462000298578063f2f4eb261462000302578063f2fde38b146200031a575b600080fd5b348015620000d857600080fd5b50620001166024600480358281019290820135918135808301929082013591604435916064358082019290810135916084359081019101356200034b565b6040805173ffffffffffffffffffffffffffffffffffffffff9092168252519081900360200190f35b3480156200014c57600080fd5b506200017073ffffffffffffffffffffffffffffffffffffffff6004351662000561565b005b3480156200017f57600080fd5b506200011660043562000757565b3480156200019a57600080fd5b506200017073ffffffffffffffffffffffffffffffffffffffff600435166200078d565b348015620001cb57600080fd5b506200017062000a97565b348015620001e357600080fd5b506200011662000b29565b348015620001fb57600080fd5b506200017073ffffffffffffffffffffffffffffffffffffffff6004351662000b45565b3480156200022c57600080fd5b506200017073ffffffffffffffffffffffffffffffffffffffff6004351660243562000bb1565b3480156200026057600080fd5b506200028473ffffffffffffffffffffffffffffffffffffffff6004351662000f38565b604080519115158252519081900360200190f35b348015620002a557600080fd5b50620002b062000f4d565b60408051602080825283518183015283519192839290830191858101910280838360005b83811015620002ee578181015183820152602001620002d4565b505050509050019250505060405180910390f35b3480156200030f57600080fd5b506200011662000fbf565b3480156200032757600080fd5b506200017073ffffffffffffffffffffffffffffffffffffffff6004351662000fdb565b336000908152600160209081526040808320548151606081018352602a81527f53656e646572206e6f7420617574686f72697a656420746f2063616c6c207468938101939093527f6973206d6574686f642e000000000000000000000000000000000000000000009183019190915260ff16151562000465576040517f08c379a00000000000000000000000000000000000000000000000000000000081526004018080602001828103825283818151815260200191508051906020019080838360005b83811015620004295781810151838201526020016200040f565b50505050905090810190601f168015620004575780820380516001836020036101000a031916815260200191505b509250505060405180910390fd5b50308a8a8a8a8a8a8a8a8a6200047a620010be565b808b73ffffffffffffffffffffffffffffffffffffffff1673ffffffffffffffffffffffffffffffffffffffff1681526020018060200180602001888152602001806020018060200185810385528e8e8281815260200192506020028082843790910186810385528c8152602090810191508d908d0280828437909101868103845289815260200190508989808284379091018681038352878152602001905087878082843782019150509e505050505050505050505050505050604051809103906000f08015801562000552573d6000803e3d6000fd5b509a9950505050505050505050565b60005473ffffffffffffffffffffffffffffffffffffffff1633146200058657600080fd5b73ffffffffffffffffffffffffffffffffffffffff8116600090815260016020908152604091829020548251606081018452602681527f546172676574206d757374206e6f7420616c726561647920626520617574686f928101929092527f72697a65642e0000000000000000000000000000000000000000000000000000928201929092529060ff16156200067a576040517f08c379a000000000000000000000000000000000000000000000000000000000815260040180806020018281038252838181518152602001915080519060200190808383600083811015620004295781810151838201526020016200040f565b5073ffffffffffffffffffffffffffffffffffffffff8116600081815260016020818152604080842080547fffffffffffffffffffffffffffffffffffffffffffffffffffffffffffffff0016841790556002805493840181559093527f405787fa12a823e0f2b7631cc41b3ba8828b3321ca811111fa75cd3aa3bb5ace90910180547fffffffffffffffffffffffff00000000000000000000000000000000000000001684179055815133815291517f8918da6429714f0e9c40ae7f270773e27fc8caf7a256e19807f859563b7514de9281900390910190a250565b60028054829081106200076657fe5b60009182526020909120015473ffffffffffffffffffffffffffffffffffffffff16905081565b6000805473ffffffffffffffffffffffffffffffffffffffff163314620007b357600080fd5b73ffffffffffffffffffffffffffffffffffffffff8216600090815260016020908152604091829020548251606081018452602281527f5461726765742061646472657373206d75737420626520617574686f72697a65928101929092527f642e000000000000000000000000000000000000000000000000000000000000928201929092529060ff161515620008a8576040517f08c379a000000000000000000000000000000000000000000000000000000000815260040180806020018281038252838181518152602001915080519060200190808383600083811015620004295781810151838201526020016200040f565b505073ffffffffffffffffffffffffffffffffffffffff8116600090815260016020526040812080547fffffffffffffffffffffffffffffffffffffffffffffffffffffffffffffff001690555b60025481101562000a93578173ffffffffffffffffffffffffffffffffffffffff166002828154811015156200092857fe5b60009182526020909120015473ffffffffffffffffffffffffffffffffffffffff16141562000a8a57600280547fffffffffffffffffffffffffffffffffffffffffffffffffffffffffffffffff81019081106200098257fe5b6000918252602090912001546002805473ffffffffffffffffffffffffffffffffffffffff9092169183908110620009b657fe5b600091825260209091200180547fffffffffffffffffffffffff00000000000000000000000000000000000000001673ffffffffffffffffffffffffffffffffffffffff92909216919091179055600280547fffffffffffffffffffffffffffffffffffffffffffffffffffffffffffffffff019062000a379082620010cf565b5060408051338152905173ffffffffffffffffffffffffffffffffffffffff8416917f1f32c1b084e2de0713b8fb16bd46bb9df710a3dbeae2f3ca93af46e016dcc6b0919081900360200190a262000a93565b600101620008f6565b5050565b60005473ffffffffffffffffffffffffffffffffffffffff16331462000abc57600080fd5b6000805460405173ffffffffffffffffffffffffffffffffffffffff909116917ff8df31144d9c2f0f6b59d69b8b98abd5459d07f2742c4df920b25aae33c6482091a2600080547fffffffffffffffffffffffff0000000000000000000000000000000000000000169055565b60005473ffffffffffffffffffffffffffffffffffffffff1681565b60005473ffffffffffffffffffffffffffffffffffffffff16331462000b6a57600080fd5b600380547fffffffffffffffffffffffff00000000000000000000000000000000000000001673ffffffffffffffffffffffffffffffffffffffff92909216919091179055565b60005473ffffffffffffffffffffffffffffffffffffffff16331462000bd657600080fd5b60025460408051606081018252602781527f53706563696669656420617272617920696e646578206973206f7574206f662060208201527f626f756e64732e000000000000000000000000000000000000000000000000009181019190915290821062000ca1576040517f08c379a000000000000000000000000000000000000000000000000000000000815260040180806020018281038252838181518152602001915080519060200190808383600083811015620004295781810151838201526020016200040f565b508173ffffffffffffffffffffffffffffffffffffffff1660028281548110151562000cc957fe5b6000918252602091829020015460408051606081018252602d81527f4164647265737320666f756e6420617420696e64657820646f6573206e6f7420938101939093527f6d61746368207461726765742e0000000000000000000000000000000000000090830152909173ffffffffffffffffffffffffffffffffffffffff9091161462000db5576040517f08c379a000000000000000000000000000000000000000000000000000000000815260040180806020018281038252838181518152602001915080519060200190808383600083811015620004295781810151838201526020016200040f565b5073ffffffffffffffffffffffffffffffffffffffff8216600090815260016020526040902080547fffffffffffffffffffffffffffffffffffffffffffffffffffffffffffffff00169055600280547fffffffffffffffffffffffffffffffffffffffffffffffffffffffffffffffff810190811062000e3257fe5b6000918252602090912001546002805473ffffffffffffffffffffffffffffffffffffffff909216918390811062000e6657fe5b600091825260209091200180547fffffffffffffffffffffffff00000000000000000000000000000000000000001673ffffffffffffffffffffffffffffffffffffffff92909216919091179055600280547fffffffffffffffffffffffffffffffffffffffffffffffffffffffffffffffff019062000ee79082620010cf565b5060408051338152905173ffffffffffffffffffffffffffffffffffffffff8416917f1f32c1b084e2de0713b8fb16bd46bb9df710a3dbeae2f3ca93af46e016dcc6b0919081900360200190a25050565b60016020526000908152604090205460ff1681565b6060600280548060200260200160405190810160405280929190818152602001828054801562000fb457602002820191906000526020600020905b815473ffffffffffffffffffffffffffffffffffffffff16815260019091019060200180831162000f88575b505050505090505b90565b60035473ffffffffffffffffffffffffffffffffffffffff1681565b60005473ffffffffffffffffffffffffffffffffffffffff1633146200100057600080fd5b6200100b816200100e565b50565b73ffffffffffffffffffffffffffffffffffffffff811615156200103157600080fd5b6000805460405173ffffffffffffffffffffffffffffffffffffffff808516939216917f8be0079c531659141344cd1fd0a4f28419497f9722a3daafe3b4186f6b6457e091a3600080547fffffffffffffffffffffffff00000000000000000000000000000000000000001673ffffffffffffffffffffffffffffffffffffffff92909216919091179055565b604051611f00806200111d83390190565b815481835581811115620010f657600083815260209020620010f6918101908301620010fb565b505050565b62000fbc91905b8082111562001118576000815560010162001102565b5090560060806040523480156200001157600080fd5b5060405162001f0038038062001f008339810160409081528151602080840151928401516060850151608086015160a087015190870180519597968701969384019592949093919091019160009182918291829182918891889160129162000080916003919086019062000a62565b5081516200009690600490602085019062000a62565b506005805460ff191660ff92909216919091179055505060408051606081018252602381527f5175616e74697479206d7573742062652067726561746572207468616e207a6560208201527f726f2e000000000000000000000000000000000000000000000000000000000091810191909152889060008211620001b5576040517f08c379a00000000000000000000000000000000000000000000000000000000081526004018080602001828103825283818151815260200191508051906020019080838360005b83811015620001795781810151838201526020016200015f565b50505050905090810190601f168015620001a75780820380516001836020036101000a031916815260200191505b509250505060405180910390fd5b508a8a60008251116040805190810160405280601d81526020017f436f6d706f6e656e7473206d757374206e6f7420626520656d7074792e0000008152509015156200025f576040517f08c379a000000000000000000000000000000000000000000000000000000000815260040180806020018281038252838181518152602001915080519060200190808383600083811015620001795781810151838201526020016200015f565b50805160408051808201909152601881527f556e697473206d757374206e6f7420626520656d7074792e000000000000000060208201529060001062000303576040517f08c379a000000000000000000000000000000000000000000000000000000000815260040180806020018281038252838181518152602001915080519060200190808383600083811015620001795781810151838201526020016200015f565b508051825160408051606081018252602d81527f436f6d706f6e656e747320616e6420756e697473206d7573742062652074686560208201527f2073616d65206c656e6774682e00000000000000000000000000000000000000918101919091529114620003cf576040517f08c379a000000000000000000000000000000000000000000000000000000000815260040180806020018281038252838181518152602001915080519060200190808383600083811015620001795781810151838201526020016200015f565b5060129750600095505b8b518661ffff16101562000898578b8661ffff16815181101515620003fa57fe5b90602001906020020151945060008511606060405190810160405280602381526020017f556e6974206465636c61726174696f6e73206d757374206265206e6f6e2d7a6581526020017f726f2e0000000000000000000000000000000000000000000000000000000000815250901515620004d3576040517f08c379a000000000000000000000000000000000000000000000000000000000815260040180806020018281038252838181518152602001915080519060200190808383600083811015620001795781810151838201526020016200015f565b508c8661ffff16815181101515620004e757fe5b602090810290910181015160408051606081018252602681527f436f6d706f6e656e7473206d7573742068617665206e6f6e2d7a65726f206164938101939093527f64726573732e0000000000000000000000000000000000000000000000000000908301529450600160a060020a0385161515620005c4576040517f08c379a000000000000000000000000000000000000000000000000000000000815260040180806020018281038252838181518152602001915080519060200190808383600083811015620001795781810151838201526020016200015f565b5083600160a060020a031660405180807f646563696d616c73282900000000000000000000000000000000000000000000815250600a01905060405180910390207c010000000000000000000000000000000000000000000000000000000090046040518163ffffffff167c01000000000000000000000000000000000000000000000000000000000281526004016000604051808303816000875af19250505015620007125783600160a060020a031663313ce5676040518163ffffffff167c0100000000000000000000000000000000000000000000000000000000028152600401602060405180830381600087803b158015620006c357600080fd5b505af1158015620006d8573d6000803e3d6000fd5b505050506040513d6020811015620006ef57600080fd5b5051965060ff808916908816106200070857876200070a565b865b975062000717565b600097505b6200072b84640100000000620009a6810204565b156200073657600080fd5b600160086000866040516020018082600160a060020a0316600160a060020a03166c010000000000000000000000000281526014019150506040516020818303038152906040526040518082805190602001908083835b60208310620007ae5780518252601f1990920191602091820191016200078d565b51815160209384036101000a60001901801990921691161790526040805192909401829003909120865285810196909652509283016000908120805460ff19169615159690961790955550508051808201909152600160a060020a03878116825291810188815260078054600181810183559190955291517fa66cc928b5edb82af9bd49922954155ab7b0942694bea4ce44661d9a8736c68860029095029485018054600160a060020a031916919094161790925590517fa66cc928b5edb82af9bd49922954155ab7b0942694bea4ce44661d9a8736c689909201919091559590950194620003d9565b60408051606081018252603381527f4e61747572616c20756e697420646f6573206e6f7420776f726b20776974682060208201527f636f6d706f6e656e7420646563696d616c732e000000000000000000000000009181019190915260ff60128a900316600a0a8c10156200096b576040517f08c379a000000000000000000000000000000000000000000000000000000000815260040180806020018281038252838181518152602001915080519060200190808383600083811015620001795781810151838201526020016200015f565b505060098054600160a060020a031916600160a060020a039e909e169d909d17909c555050506006959095555062000b079650505050505050565b600060086000836040516020018082600160a060020a0316600160a060020a03166c010000000000000000000000000281526014019150506040516020818303038152906040526040518082805190602001908083835b6020831062000a1e5780518252601f199092019160209182019101620009fd565b51815160209384036101000a600019018019909216911617905260408051929094018290039091208652850195909552929092016000205460ff1695945050505050565b828054600181600116156101000203166002900490600052602060002090601f016020900481019282601f1062000aa557805160ff191683800117855562000ad5565b8280016001018555821562000ad5579182015b8281111562000ad557825182559160200191906001019062000ab8565b5062000ae392915062000ae7565b5090565b62000b0491905b8082111562000ae3576000815560010162000aee565b90565b6113e98062000b176000396000f3006080604052600436106100fb5763ffffffff7c0100000000000000000000000000000000000000000000000000000000600035041663027aa9f5811461010057806306fdde0314610165578063095ea7b3146101ef57806318160ddd1461023457806323b872dd1461025b578063313ce5671461029257806340c10f19146102bd57806342a7cfd5146102f0578063661884631461030557806370a082311461033657806395d89b411461036457806399d50d5d146103795780639dc29fac1461038e578063a9059cbb146103bf578063c45a0155146103f0578063c5d574fe1461042e578063d73dd62314610476578063dd62ed3e146104a7575b600080fd5b34801561010c57600080fd5b506101156104db565b60408051602080825283518183015283519192839290830191858101910280838360005b83811015610151578181015183820152602001610139565b505050509050019250505060405180910390f35b34801561017157600080fd5b5061017a610573565b6040805160208082528351818301528351919283929083019185019080838360005b838110156101b457818101518382015260200161019c565b50505050905090810190601f1680156101e15780820380516001836020036101000a031916815260200191505b509250505060405180910390f35b3480156101fb57600080fd5b5061022073ffffffffffffffffffffffffffffffffffffffff6004351660243561061f565b604080519115158252519081900360200190f35b34801561024057600080fd5b50610249610692565b60408051918252519081900360200190f35b34801561026757600080fd5b5061022073ffffffffffffffffffffffffffffffffffffffff60043581169060243516604435610698565b34801561029e57600080fd5b506102a76106f4565b6040805160ff9092168252519081900360200190f35b3480156102c957600080fd5b506102ee73ffffffffffffffffffffffffffffffffffffffff600435166024356106fd565b005b3480156102fc57600080fd5b5061024961093d565b34801561031157600080fd5b5061022073ffffffffffffffffffffffffffffffffffffffff60043516602435610943565b34801561034257600080fd5b5061024973ffffffffffffffffffffffffffffffffffffffff60043516610a67565b34801561037057600080fd5b5061017a610a8f565b34801561038557600080fd5b50610115610b08565b34801561039a57600080fd5b506102ee73ffffffffffffffffffffffffffffffffffffffff60043516602435610bcc565b3480156103cb57600080fd5b5061022073ffffffffffffffffffffffffffffffffffffffff60043516602435610f1a565b3480156103fc57600080fd5b50610405610f74565b6040805173ffffffffffffffffffffffffffffffffffffffff9092168252519081900360200190f35b34801561043a57600080fd5b50610446600435610f90565b6040805173ffffffffffffffffffffffffffffffffffffffff909316835260208301919091528051918290030190f35b34801561048257600080fd5b5061022073ffffffffffffffffffffffffffffffffffffffff60043516602435610fd3565b3480156104b357600080fd5b5061024973ffffffffffffffffffffffffffffffffffffffff60043581169060243516611086565b606080600060078054905060405190808252806020026020018201604052801561050f578160200160208202803883390190505b509150600090505b60075461ffff8216101561056d576007805461ffff831690811061053757fe5b906000526020600020906002020160010154828261ffff1681518110151561055b57fe5b60209081029091010152600101610517565b50919050565b6003805460408051602060026001851615610100027fffffffffffffffffffffffffffffffffffffffffffffffffffffffffffffffff0190941693909304601f810184900484028201840190925281815292918301828280156106175780601f106105ec57610100808354040283529160200191610617565b820191906000526020600020905b8154815290600101906020018083116105fa57829003601f168201915b505050505081565b33600081815260026020908152604080832073ffffffffffffffffffffffffffffffffffffffff8716808552908352818420869055815186815291519394909390927f8c5be1e5ebec7d5bd14f71427d1e84f3dd0314c0f7b2291e5b200ac8c7c3b925928290030190a350600192915050565b60015490565b60008273ffffffffffffffffffffffffffffffffffffffff811615156106bd57600080fd5b73ffffffffffffffffffffffffffffffffffffffff81163014156106e057600080fd5b6106eb8585856110be565b95945050505050565b60055460ff1681565b600960009054906101000a900473ffffffffffffffffffffffffffffffffffffffff1673ffffffffffffffffffffffffffffffffffffffff1663f2f4eb266040518163ffffffff167c0100000000000000000000000000000000000000000000000000000000028152600401602060405180830381600087803b15801561078357600080fd5b505af1158015610797573d6000803e3d6000fd5b505050506040513d60208110156107ad57600080fd5b505160408051606081018252603181527f53656e646572206973206e6f74207065726d697474656420746f20706572666f60208201527f726d20746869732066756e6374696f6e2e000000000000000000000000000000918101919091529073ffffffffffffffffffffffffffffffffffffffff1633146108c6576040517f08c379a00000000000000000000000000000000000000000000000000000000081526004018080602001828103825283818151815260200191508051906020019080838360005b8381101561088b578181015183820152602001610873565b50505050905090810190601f1680156108b85780820380516001836020036101000a031916815260200191505b509250505060405180910390fd5b5073ffffffffffffffffffffffffffffffffffffffff82166000908152602081905260409020546108fd908263ffffffff61129016565b73ffffffffffffffffffffffffffffffffffffffff8316600090815260208190526040902055600154610936908263ffffffff61129016565b6001555050565b60065481565b33600090815260026020908152604080832073ffffffffffffffffffffffffffffffffffffffff86168452909152812054808311156109b25733600090815260026020908152604080832073ffffffffffffffffffffffffffffffffffffffff881684529091528120556109f4565b6109c2818463ffffffff6112a316565b33600090815260026020908152604080832073ffffffffffffffffffffffffffffffffffffffff891684529091529020555b33600081815260026020908152604080832073ffffffffffffffffffffffffffffffffffffffff89168085529083529281902054815190815290519293927f8c5be1e5ebec7d5bd14f71427d1e84f3dd0314c0f7b2291e5b200ac8c7c3b925929181900390910190a35060019392505050565b73ffffffffffffffffffffffffffffffffffffffff1660009081526020819052604090205490565b6004805460408051602060026001851615610100027fffffffffffffffffffffffffffffffffffffffffffffffffffffffffffffffff0190941693909304601f810184900484028201840190925281815292918301828280156106175780601f106105ec57610100808354040283529160200191610617565b6060806000600780549050604051908082528060200260200182016040528015610b3c578160200160208202803883390190505b509150600090505b60075461ffff8216101561056d576007805461ffff8316908110610b6457fe5b6000918252602090912060029091020154825173ffffffffffffffffffffffffffffffffffffffff90911690839061ffff8416908110610ba057fe5b73ffffffffffffffffffffffffffffffffffffffff909216602092830290910190910152600101610b44565b600960009054906101000a900473ffffffffffffffffffffffffffffffffffffffff1673ffffffffffffffffffffffffffffffffffffffff1663f2f4eb266040518163ffffffff167c0100000000000000000000000000000000000000000000000000000000028152600401602060405180830381600087803b158015610c5257600080fd5b505af1158015610c66573d6000803e3d6000fd5b505050506040513d6020811015610c7c57600080fd5b505160408051606081018252603181527f53656e646572206973206e6f74207065726d697474656420746f20706572666f60208201527f726d20746869732066756e6374696f6e2e000000000000000000000000000000918101919091529073ffffffffffffffffffffffffffffffffffffffff163314610d59576040517f08c379a00000000000000000000000000000000000000000000000000000000081526004018080602001828103825283818151815260200191508051906020019080838360008381101561088b578181015183820152602001610873565b5060408051606081018252602381527f5175616e74697479206d7573742062652067726561746572207468616e207a6560208201527f726f2e000000000000000000000000000000000000000000000000000000000091810191909152819060008211610e22576040517f08c379a00000000000000000000000000000000000000000000000000000000081526004018080602001828103825283818151815260200191508051906020019080838360008381101561088b578181015183820152602001610873565b5073ffffffffffffffffffffffffffffffffffffffff8316600090815260208190526040902054821115610e5557600080fd5b73ffffffffffffffffffffffffffffffffffffffff8316600090815260208190526040902054610e8b908363ffffffff6112a316565b73ffffffffffffffffffffffffffffffffffffffff8416600090815260208190526040902055600154610ec4908363ffffffff6112a316565b60015560408051838152905160009173ffffffffffffffffffffffffffffffffffffffff8616917fddf252ad1be2c89b69c2b068fc378daa952ba7f163c4a11628f55a4df523b3ef9181900360200190a3505050565b60008273ffffffffffffffffffffffffffffffffffffffff81161515610f3f57600080fd5b73ffffffffffffffffffffffffffffffffffffffff8116301415610f6257600080fd5b610f6c84846112b5565b949350505050565b60095473ffffffffffffffffffffffffffffffffffffffff1681565b6007805482908110610f9e57fe5b60009182526020909120600290910201805460019091015473ffffffffffffffffffffffffffffffffffffffff909116915082565b33600090815260026020908152604080832073ffffffffffffffffffffffffffffffffffffffff86168452909152812054611014908363ffffffff61129016565b33600081815260026020908152604080832073ffffffffffffffffffffffffffffffffffffffff89168085529083529281902085905580519485525191937f8c5be1e5ebec7d5bd14f71427d1e84f3dd0314c0f7b2291e5b200ac8c7c3b925929081900390910190a350600192915050565b73ffffffffffffffffffffffffffffffffffffffff918216600090815260026020908152604080832093909416825291909152205490565b600073ffffffffffffffffffffffffffffffffffffffff831615156110e257600080fd5b73ffffffffffffffffffffffffffffffffffffffff841660009081526020819052604090205482111561111457600080fd5b73ffffffffffffffffffffffffffffffffffffffff8416600090815260026020908152604080832033845290915290205482111561115157600080fd5b73ffffffffffffffffffffffffffffffffffffffff8416600090815260208190526040902054611187908363ffffffff6112a316565b73ffffffffffffffffffffffffffffffffffffffff80861660009081526020819052604080822093909355908516815220546111c9908363ffffffff61129016565b73ffffffffffffffffffffffffffffffffffffffff808516600090815260208181526040808320949094559187168152600282528281203382529091522054611218908363ffffffff6112a316565b73ffffffffffffffffffffffffffffffffffffffff808616600081815260026020908152604080832033845282529182902094909455805186815290519287169391927fddf252ad1be2c89b69c2b068fc378daa952ba7f163c4a11628f55a4df523b3ef929181900390910190a35060019392505050565b8181018281101561129d57fe5b92915050565b6000828211156112af57fe5b50900390565b600073ffffffffffffffffffffffffffffffffffffffff831615156112d957600080fd5b336000908152602081905260409020548211156112f557600080fd5b33600090815260208190526040902054611315908363ffffffff6112a316565b336000908152602081905260408082209290925573ffffffffffffffffffffffffffffffffffffffff851681522054611354908363ffffffff61129016565b73ffffffffffffffffffffffffffffffffffffffff8416600081815260208181526040918290209390935580518581529051919233927fddf252ad1be2c89b69c2b068fc378daa952ba7f163c4a11628f55a4df523b3ef9281900390910190a3506001929150505600a165627a7a723058204b57b01a0a4d654656458d33bd8278a0deb7153bd964add2fd987b93284194bc0029a165627a7a723058207a13c29e999d0e1cfa395d459640826458ba2982d64a0dcae952fdcaef6a4bf10029",
  "source": "/*\n    Copyright 2018 Set Labs Inc.\n\n    Licensed under the Apache License, Version 2.0 (the \"License\");\n    you may not use this file except in compliance with the License.\n    You may obtain a copy of the License at\n\n    http://www.apache.org/licenses/LICENSE-2.0\n\n    Unless required by applicable law or agreed to in writing, software\n    distributed under the License is distributed on an \"AS IS\" BASIS,\n    WITHOUT WARRANTIES OR CONDITIONS OF ANY KIND, either express or implied.\n    See the License for the specific language governing permissions and\n    limitations under the License.\n*/\n\npragma solidity 0.4.24;\n\nimport { SetToken } from \"./SetToken.sol\";\nimport { Authorizable } from \"../lib/Authorizable.sol\";\n\n\n/**\n * @title SetTokenFactory\n * @author Set Protocol\n *\n * SetTokenFactory is a smart contract used to deploy new SetToken contracts.\n * SetTokens deployed by the factory can only have their mint and burn functions\n * called by Core\n */\ncontract SetTokenFactory\n  is Authorizable\n{\n    /* ============ State Variables ============ */\n\n    // Address of the Core contract\n    address public core;\n\n    /* ============ No Constructor ============ */\n\n    /* ============ Setter Functions ============ */\n\n    /**\n     * Set core. Can only be set by owner of SetTokenFactory's owner.\n     *\n     * @param  _coreAddress   The address of deployed core contract\n     */\n    function setCoreAddress(\n        address _coreAddress\n    )\n        external\n        onlyOwner\n    {\n        // Commit passed address to vaultAddress state variable\n        core = _coreAddress;\n    }\n\n    /* ============ Public Functions ============ */\n\n    /**\n     * Deploys a new SetToken contract.\n     * Can only be called by authorized core contracts.\n     *\n     * @param  _components   address[]     The address of component tokens\n     * @param  _units        uint[]        The units of each component token\n     * @param  _naturalUnit  uint          The minimum unit to be issued or redeemed\n     * @param  _name         string        The name of the new Set\n     * @param  _symbol       string        The symbol of the new Set\n     * @return setToken      address       The address of the newly created SetToken\n     */\n    function create(\n        address[] _components,\n        uint[] _units,\n        uint _naturalUnit,\n        string _name,\n        string _symbol\n    )\n        external\n        onlyAuthorized\n        returns\n        (address)\n    {\n        return new SetToken(this, _components, _units, _naturalUnit, _name, _symbol);\n    }\n}\n",
  "sourcePath": "/Users/inje/Documents/repos/set-protocol-contracts/contracts/core/SetTokenFactory.sol",
  "compiler": {
    "name": "solc",
    "version": "0.4.24+commit.e67f0147.Emscripten.clang"
  },
  "schemaVersion": "2.0.0",
  "updatedAt": "2018-07-13T21:55:38.162Z"
}