{
  "contractName": "SetToken",
  "abi": [
    {
      "constant": true,
      "inputs": [],
      "name": "name",
      "outputs": [
        {
          "name": "",
          "type": "string"
        }
      ],
      "payable": false,
      "stateMutability": "view",
      "type": "function"
    },
    {
      "constant": false,
      "inputs": [
        {
          "name": "_spender",
          "type": "address"
        },
        {
          "name": "_value",
          "type": "uint256"
        }
      ],
      "name": "approve",
      "outputs": [
        {
          "name": "",
          "type": "bool"
        }
      ],
      "payable": false,
      "stateMutability": "nonpayable",
      "type": "function"
    },
    {
      "constant": true,
      "inputs": [],
      "name": "totalSupply",
      "outputs": [
        {
          "name": "",
          "type": "uint256"
        }
      ],
      "payable": false,
      "stateMutability": "view",
      "type": "function"
    },
    {
      "constant": true,
      "inputs": [],
      "name": "decimals",
      "outputs": [
        {
          "name": "",
          "type": "uint8"
        }
      ],
      "payable": false,
      "stateMutability": "view",
      "type": "function"
    },
    {
      "constant": true,
      "inputs": [],
      "name": "naturalUnit",
      "outputs": [
        {
          "name": "",
          "type": "uint256"
        }
      ],
      "payable": false,
      "stateMutability": "view",
      "type": "function"
    },
    {
      "constant": false,
      "inputs": [
        {
          "name": "_spender",
          "type": "address"
        },
        {
          "name": "_subtractedValue",
          "type": "uint256"
        }
      ],
      "name": "decreaseApproval",
      "outputs": [
        {
          "name": "",
          "type": "bool"
        }
      ],
      "payable": false,
      "stateMutability": "nonpayable",
      "type": "function"
    },
    {
      "constant": true,
      "inputs": [
        {
          "name": "_owner",
          "type": "address"
        }
      ],
      "name": "balanceOf",
      "outputs": [
        {
          "name": "",
          "type": "uint256"
        }
      ],
      "payable": false,
      "stateMutability": "view",
      "type": "function"
    },
    {
      "constant": true,
      "inputs": [],
      "name": "symbol",
      "outputs": [
        {
          "name": "",
          "type": "string"
        }
      ],
      "payable": false,
      "stateMutability": "view",
      "type": "function"
    },
    {
      "constant": true,
      "inputs": [],
      "name": "factory",
      "outputs": [
        {
          "name": "",
          "type": "address"
        }
      ],
      "payable": false,
      "stateMutability": "view",
      "type": "function"
    },
    {
      "constant": true,
      "inputs": [
        {
          "name": "",
          "type": "uint256"
        }
      ],
      "name": "components",
      "outputs": [
        {
          "name": "address_",
          "type": "address"
        },
        {
          "name": "unit_",
          "type": "uint256"
        }
      ],
      "payable": false,
      "stateMutability": "view",
      "type": "function"
    },
    {
      "constant": false,
      "inputs": [
        {
          "name": "_spender",
          "type": "address"
        },
        {
          "name": "_addedValue",
          "type": "uint256"
        }
      ],
      "name": "increaseApproval",
      "outputs": [
        {
          "name": "",
          "type": "bool"
        }
      ],
      "payable": false,
      "stateMutability": "nonpayable",
      "type": "function"
    },
    {
      "constant": true,
      "inputs": [
        {
          "name": "_owner",
          "type": "address"
        },
        {
          "name": "_spender",
          "type": "address"
        }
      ],
      "name": "allowance",
      "outputs": [
        {
          "name": "",
          "type": "uint256"
        }
      ],
      "payable": false,
      "stateMutability": "view",
      "type": "function"
    },
    {
      "inputs": [
        {
          "name": "_factory",
          "type": "address"
        },
        {
          "name": "_components",
          "type": "address[]"
        },
        {
          "name": "_units",
          "type": "uint256[]"
        },
        {
          "name": "_naturalUnit",
          "type": "uint256"
        },
        {
          "name": "_name",
          "type": "string"
        },
        {
          "name": "_symbol",
          "type": "string"
        }
      ],
      "payable": false,
      "stateMutability": "nonpayable",
      "type": "constructor"
    },
    {
      "anonymous": false,
      "inputs": [
        {
          "indexed": true,
          "name": "owner",
          "type": "address"
        },
        {
          "indexed": true,
          "name": "spender",
          "type": "address"
        },
        {
          "indexed": false,
          "name": "value",
          "type": "uint256"
        }
      ],
      "name": "Approval",
      "type": "event"
    },
    {
      "anonymous": false,
      "inputs": [
        {
          "indexed": true,
          "name": "from",
          "type": "address"
        },
        {
          "indexed": true,
          "name": "to",
          "type": "address"
        },
        {
          "indexed": false,
          "name": "value",
          "type": "uint256"
        }
      ],
      "name": "Transfer",
      "type": "event"
    },
    {
      "constant": false,
      "inputs": [
        {
          "name": "_issuer",
          "type": "address"
        },
        {
          "name": "_quantity",
          "type": "uint256"
        }
      ],
      "name": "mint",
      "outputs": [],
      "payable": false,
      "stateMutability": "nonpayable",
      "type": "function"
    },
    {
      "constant": false,
      "inputs": [
        {
          "name": "_from",
          "type": "address"
        },
        {
          "name": "_quantity",
          "type": "uint256"
        }
      ],
      "name": "burn",
      "outputs": [],
      "payable": false,
      "stateMutability": "nonpayable",
      "type": "function"
    },
    {
      "constant": true,
      "inputs": [],
      "name": "getComponents",
      "outputs": [
        {
          "name": "",
          "type": "address[]"
        }
      ],
      "payable": false,
      "stateMutability": "view",
      "type": "function"
    },
    {
      "constant": true,
      "inputs": [],
      "name": "getUnits",
      "outputs": [
        {
          "name": "",
          "type": "uint256[]"
        }
      ],
      "payable": false,
      "stateMutability": "view",
      "type": "function"
    },
    {
      "constant": true,
      "inputs": [
        {
          "name": "_tokenAddress",
          "type": "address"
        }
      ],
      "name": "tokenIsComponent",
      "outputs": [
        {
          "name": "",
          "type": "bool"
        }
      ],
      "payable": false,
      "stateMutability": "view",
      "type": "function"
    },
    {
      "constant": false,
      "inputs": [
        {
          "name": "_to",
          "type": "address"
        },
        {
          "name": "_value",
          "type": "uint256"
        }
      ],
      "name": "transfer",
      "outputs": [
        {
          "name": "",
          "type": "bool"
        }
      ],
      "payable": false,
      "stateMutability": "nonpayable",
      "type": "function"
    },
    {
      "constant": false,
      "inputs": [
        {
          "name": "_from",
          "type": "address"
        },
        {
          "name": "_to",
          "type": "address"
        },
        {
          "name": "_value",
          "type": "uint256"
        }
      ],
      "name": "transferFrom",
      "outputs": [
        {
          "name": "",
          "type": "bool"
        }
      ],
      "payable": false,
      "stateMutability": "nonpayable",
      "type": "function"
    }
  ],
  "bytecode": "0x60806040523480156200001157600080fd5b506040516200136f3803806200136f8339810160409081528151602080840151928401516060850151608086015160a087015190870180519597968701969384019592949093919091019160009182918291829182918891889160129162000080916003919086019062000417565b5081516200009690600490602085019062000417565b506005805460ff191660ff92909216919091179055505060008811620000bb57600080fd5b8951600010620000ca57600080fd5b8851600010620000d957600080fd5b88518a5114620000e857600080fd5b60129450600092505b8851831015620003815788838151811015156200010a57fe5b602090810290910101519150600082116200012457600080fd5b89838151811015156200013357fe5b602090810290910101519050600160a060020a03811615156200015557600080fd5b80600160a060020a031660405180807f646563696d616c73282900000000000000000000000000000000000000000000815250600a01905060405180910390207c010000000000000000000000000000000000000000000000000000000090046040518163ffffffff167c01000000000000000000000000000000000000000000000000000000000281526004016000604051808303816000875af19250505015620002a25780600160a060020a031663313ce5676040518163ffffffff167c0100000000000000000000000000000000000000000000000000000000028152600401602060405180830381600087803b1580156200025357600080fd5b505af115801562000268573d6000803e3d6000fd5b505050506040513d60208110156200027f57600080fd5b5051935060ff808616908516106200029857846200029a565b835b9450620002a7565b600094505b620002bb81640100000000620003e6810204565b15620002c657600080fd5b600160a060020a0381811660008181526008602090815260408083208054600160ff1990911681179091558151808301909252938152908101868152600780548086018255935290517fa66cc928b5edb82af9bd49922954155ab7b0942694bea4ce44661d9a8736c68860029093029283018054600160a060020a031916919095161790935591517fa66cc928b5edb82af9bd49922954155ab7b0942694bea4ce44661d9a8736c689909201919091559290920191620000f1565b6200039f601260ff871664010000000062000d766200040482021704565b600a0a881015620003af57600080fd5b505060098054600160a060020a031916600160a060020a039a909a169990991790985550505060069190915550620004bc92505050565b600160a060020a031660009081526008602052604090205460ff1690565b6000828211156200041157fe5b50900390565b828054600181600116156101000203166002900490600052602060002090601f016020900481019282601f106200045a57805160ff19168380011785556200048a565b828001600101855582156200048a579182015b828111156200048a5782518255916020019190600101906200046d565b50620004989291506200049c565b5090565b620004b991905b80821115620004985760008155600101620004a3565b90565b610ea380620004cc6000396000f3006080604052600436106100ed5763ffffffff60e060020a600035041663027aa9f581146100f257806306fdde0314610157578063095ea7b3146101e157806318160ddd1461021957806318c53aca1461024057806323b872dd14610261578063313ce5671461028b57806340c10f19146102b657806342a7cfd5146102dc57806366188463146102f157806370a082311461031557806395d89b411461033657806399d50d5d1461034b5780639dc29fac14610360578063a9059cbb14610384578063c45a0155146103a8578063c5d574fe146103d9578063d73dd62314610414578063dd62ed3e14610438575b600080fd5b3480156100fe57600080fd5b5061010761045f565b60408051602080825283518183015283519192839290830191858101910280838360005b8381101561014357818101518382015260200161012b565b505050509050019250505060405180910390f35b34801561016357600080fd5b5061016c6104eb565b6040805160208082528351818301528351919283929083019185019080838360005b838110156101a657818101518382015260200161018e565b50505050905090810190601f1680156101d35780820380516001836020036101000a031916815260200191505b509250505060405180910390f35b3480156101ed57600080fd5b50610205600160a060020a0360043516602435610579565b604080519115158252519081900360200190f35b34801561022557600080fd5b5061022e6105df565b60408051918252519081900360200190f35b34801561024c57600080fd5b50610205600160a060020a03600435166105e5565b34801561026d57600080fd5b50610205600160a060020a0360043581169060243516604435610603565b34801561029757600080fd5b506102a0610643565b6040805160ff9092168252519081900360200190f35b3480156102c257600080fd5b506102da600160a060020a036004351660243561064c565b005b3480156102e857600080fd5b5061022e61076a565b3480156102fd57600080fd5b50610205600160a060020a0360043516602435610770565b34801561032157600080fd5b5061022e600160a060020a0360043516610860565b34801561034257600080fd5b5061016c61087b565b34801561035757600080fd5b506101076108d6565b34801561036c57600080fd5b506102da600160a060020a0360043516602435610974565b34801561039057600080fd5b50610205600160a060020a0360043516602435610ab7565b3480156103b457600080fd5b506103bd610af5565b60408051600160a060020a039092168252519081900360200190f35b3480156103e557600080fd5b506103f1600435610b04565b60408051600160a060020a03909316835260208301919091528051918290030190f35b34801561042057600080fd5b50610205600160a060020a0360043516602435610b3a565b34801561044457600080fd5b5061022e600160a060020a0360043581169060243516610bd3565b6060806000600780549050604051908082528060200260200182016040528015610493578160200160208202803883390190505b509150600090505b6007548110156104e55760078054829081106104b357fe5b90600052602060002090600202016001015482828151811015156104d357fe5b6020908102909101015260010161049b565b50919050565b6003805460408051602060026001851615610100026000190190941693909304601f810184900484028201840190925281815292918301828280156105715780601f1061054657610100808354040283529160200191610571565b820191906000526020600020905b81548152906001019060200180831161055457829003601f168201915b505050505081565b336000818152600260209081526040808320600160a060020a038716808552908352818420869055815186815291519394909390927f8c5be1e5ebec7d5bd14f71427d1e84f3dd0314c0f7b2291e5b200ac8c7c3b925928290030190a350600192915050565b60015490565b600160a060020a031660009081526008602052604090205460ff1690565b6000600160a060020a038316151561061a57600080fd5b600160a060020a03831630141561063057600080fd5b61063b848484610bfe565b949350505050565b60055460ff1681565b600960009054906101000a9004600160a060020a0316600160a060020a031663f2f4eb266040518163ffffffff1660e060020a028152600401602060405180830381600087803b15801561069f57600080fd5b505af11580156106b3573d6000803e3d6000fd5b505050506040513d60208110156106c957600080fd5b5051600160a060020a031633146106df57600080fd5b600160a060020a038216600090815260208190526040902054610708908263ffffffff610d6316565b600160a060020a038316600090815260208190526040902055600154610734908263ffffffff610d6316565b600155604080518281529051600160a060020a03841691600091600080516020610e588339815191529181900360200190a35050565b60065481565b336000908152600260209081526040808320600160a060020a0386168452909152812054808311156107c557336000908152600260209081526040808320600160a060020a03881684529091528120556107fa565b6107d5818463ffffffff610d7616565b336000908152600260209081526040808320600160a060020a03891684529091529020555b336000818152600260209081526040808320600160a060020a0389168085529083529281902054815190815290519293927f8c5be1e5ebec7d5bd14f71427d1e84f3dd0314c0f7b2291e5b200ac8c7c3b925929181900390910190a35060019392505050565b600160a060020a031660009081526020819052604090205490565b6004805460408051602060026001851615610100026000190190941693909304601f810184900484028201840190925281815292918301828280156105715780601f1061054657610100808354040283529160200191610571565b606080600060078054905060405190808252806020026020018201604052801561090a578160200160208202803883390190505b509150600090505b6007548110156104e557600780548290811061092a57fe5b60009182526020909120600290910201548251600160a060020a039091169083908390811061095557fe5b600160a060020a03909216602092830290910190910152600101610912565b600960009054906101000a9004600160a060020a0316600160a060020a031663f2f4eb266040518163ffffffff1660e060020a028152600401602060405180830381600087803b1580156109c757600080fd5b505af11580156109db573d6000803e3d6000fd5b505050506040513d60208110156109f157600080fd5b5051600160a060020a03163314610a0757600080fd5b600160a060020a038216600090815260208190526040902054811115610a2c57600080fd5b600160a060020a038216600090815260208190526040902054610a55908263ffffffff610d7616565b600160a060020a038316600090815260208190526040902055600154610a81908263ffffffff610d7616565b600155604080518281529051600091600160a060020a03851691600080516020610e588339815191529181900360200190a35050565b6000600160a060020a0383161515610ace57600080fd5b600160a060020a038316301415610ae457600080fd5b610aee8383610d88565b9392505050565b600954600160a060020a031681565b6007805482908110610b1257fe5b600091825260209091206002909102018054600190910154600160a060020a03909116915082565b336000908152600260209081526040808320600160a060020a0386168452909152812054610b6e908363ffffffff610d6316565b336000818152600260209081526040808320600160a060020a0389168085529083529281902085905580519485525191937f8c5be1e5ebec7d5bd14f71427d1e84f3dd0314c0f7b2291e5b200ac8c7c3b925929081900390910190a350600192915050565b600160a060020a03918216600090815260026020908152604080832093909416825291909152205490565b6000600160a060020a0383161515610c1557600080fd5b600160a060020a038416600090815260208190526040902054821115610c3a57600080fd5b600160a060020a0384166000908152600260209081526040808320338452909152902054821115610c6a57600080fd5b600160a060020a038416600090815260208190526040902054610c93908363ffffffff610d7616565b600160a060020a038086166000908152602081905260408082209390935590851681522054610cc8908363ffffffff610d6316565b600160a060020a03808516600090815260208181526040808320949094559187168152600282528281203382529091522054610d0a908363ffffffff610d7616565b600160a060020a0380861660008181526002602090815260408083203384528252918290209490945580518681529051928716939192600080516020610e58833981519152929181900390910190a35060019392505050565b81810182811015610d7057fe5b92915050565b600082821115610d8257fe5b50900390565b6000600160a060020a0383161515610d9f57600080fd5b33600090815260208190526040902054821115610dbb57600080fd5b33600090815260208190526040902054610ddb908363ffffffff610d7616565b3360009081526020819052604080822092909255600160a060020a03851681522054610e0d908363ffffffff610d6316565b600160a060020a03841660008181526020818152604091829020939093558051858152905191923392600080516020610e588339815191529281900390910190a3506001929150505600ddf252ad1be2c89b69c2b068fc378daa952ba7f163c4a11628f55a4df523b3efa165627a7a72305820eaa15db89b94a5fa1fc9c61f08ea81d17bade323f8045d2cf5b1296fd4a38cd80029",
  "source": "/*\n    Copyright 2018 Set Labs Inc.\n\n    Licensed under the Apache License, Version 2.0 (the \"License\");\n    you may not use this file except in compliance with the License.\n    You may obtain a copy of the License at\n\n    http://www.apache.org/licenses/LICENSE-2.0\n\n    Unless required by applicable law or agreed to in writing, software\n    distributed under the License is distributed on an \"AS IS\" BASIS,\n    WITHOUT WARRANTIES OR CONDITIONS OF ANY KIND, either express or implied.\n    See the License for the specific language governing permissions and\n    limitations under the License.\n*/\n\npragma solidity 0.4.24;\n\n\nimport { DetailedERC20 } from \"zeppelin-solidity/contracts/token/ERC20/DetailedERC20.sol\";\nimport { SafeMath } from \"zeppelin-solidity/contracts/math/SafeMath.sol\";\nimport { StandardToken } from \"zeppelin-solidity/contracts/token/ERC20/StandardToken.sol\";\nimport { ISetFactory } from \"./interfaces/ISetFactory.sol\";\n\n\n/**\n * @title SetToken\n * @author Set Protocol\n *\n * Implementation of the basic {Set} token.\n */\ncontract SetToken is\n    StandardToken,\n    DetailedERC20\n{\n    using SafeMath for uint256;\n\n    /* ============ Structs ============ */\n\n    struct Component {\n        address address_;\n        uint256 unit_;\n    }\n\n    /* ============ State Variables ============ */\n\n    uint256 public naturalUnit;\n    Component[] public components;\n\n    // Mapping of componentHash to isComponent\n    mapping(address => bool) internal isComponent;\n\n    // Address of the Factory contract that created the SetToken\n    address public factory;\n\n    /* ============ Constructor ============ */\n\n    /**\n     * Constructor function for {Set} token\n     *\n     * As looping operations are expensive, checking for duplicates will be on the onus of the application developer\n     *\n     * @param _factory          The factory used to create the Set Token\n     * @param _components       A list of component address which you want to include\n     * @param _units            A list of quantities in gWei of each component (corresponds to the {Set} of _components)\n     * @param _naturalUnit      The minimum multiple of Sets that can be issued or redeeemed\n     * @param _name             The Set's name\n     * @param _symbol           The Set's symbol\n     */\n    constructor(\n        address _factory,\n        address[] _components,\n        uint256[] _units,\n        uint256 _naturalUnit,\n        string _name,\n        string _symbol\n    )\n        public\n        DetailedERC20(_name, _symbol, 18)\n    {\n        // Require naturalUnit passed is greater than 0\n        require(_naturalUnit > 0);\n\n        // Confirm an empty _components array is not passed\n        require(_components.length > 0);\n\n        // Confirm an empty _quantities array is not passed\n        require(_units.length > 0);\n\n        // Confirm there is one quantity for every token address\n        require(_components.length == _units.length);\n\n        // NOTE: It will be the onus of developers to check whether the addressExists\n        // are in fact ERC20 addresses\n        uint8 minDecimals = 18;\n        uint8 currentDecimals;\n        for (uint256 i = 0; i < _units.length; i++) {\n            // Check that all units are non-zero\n            uint256 currentUnits = _units[i];\n            require(currentUnits > 0);\n\n            // Check that all addresses are non-zero\n            address currentComponent = _components[i];\n            require(currentComponent != address(0));\n\n            // Figure out which of the components has the minimum decimal value\n            /* solium-disable-next-line security/no-low-level-calls */\n            if (currentComponent.call(bytes4(keccak256(\"decimals()\")))) {\n                currentDecimals = DetailedERC20(currentComponent).decimals();\n                minDecimals = currentDecimals < minDecimals ? currentDecimals : minDecimals;\n            } else {\n                // If one of the components does not implement decimals, we assume the worst\n                // and set minDecimals to 0\n                minDecimals = 0;\n            }\n\n            // Check the component has not already been added\n            require(!tokenIsComponent(currentComponent));\n\n            // add component to isComponent mapping\n            isComponent[currentComponent] = true;\n\n            // Add component data to components struct array\n            components.push(Component({\n                address_: currentComponent,\n                unit_: currentUnits\n            }));\n        }\n\n        // This is the minimum natural unit possible for a Set with these components.\n        require(_naturalUnit >= uint(10) ** (uint256(18).sub(minDecimals)));\n\n        factory = _factory;\n        naturalUnit = _naturalUnit;\n    }\n\n    /* ============ Public Functions ============ */\n\n    /*\n     * Mint set token for given address.\n     * Can only be called by authorized contracts.\n     *\n     * @param  _issuer      The address of the issuing account\n     * @param  _quantity    The number of sets to attribute to issuer\n     */\n    function mint(\n        address _issuer,\n        uint256 _quantity\n    )\n        external\n    {\n        // Check that function caller is Core\n        require(msg.sender == ISetFactory(factory).core());\n\n        // Update token balance of the issuer\n        balances[_issuer] = balances[_issuer].add(_quantity);\n\n        // Update the total supply of the set token\n        totalSupply_ = totalSupply_.add(_quantity);\n\n        // Emit a transfer log with from address being 0 to indicate mint\n        emit Transfer(address(0), _issuer, _quantity);\n    }\n\n    /*\n     * Burn set token for given address.\n     * Can only be called by authorized contracts.\n     *\n     * @param  _from        The address of the redeeming account\n     * @param  _quantity    The number of sets to burn from redeemer\n     */\n    function burn(\n        address _from,\n        uint256 _quantity\n    )\n        external\n    {\n        // Check that function caller is Core\n        require(msg.sender == ISetFactory(factory).core());\n\n        // Require user has tokens to burn\n        require(balances[_from] >= _quantity);\n\n        // Update token balance of user\n        balances[_from] = balances[_from].sub(_quantity);\n\n        // Update total supply of Set Token\n        totalSupply_ = totalSupply_.sub(_quantity);\n\n        // Emit a transfer log with to address being 0 indicating burn\n        emit Transfer(_from, address(0), _quantity);\n    }\n\n    /*\n     * Get addresses of all components in the Set\n     *\n     * @return  componentAddresses       Array of component tokens\n     */\n    function getComponents()\n        public\n        view\n        returns(address[])\n    {\n        address[] memory componentAddresses = new address[](components.length);\n\n        // Iterate through components and get address of each component\n        for (uint256 i = 0; i < components.length; i++) {\n            componentAddresses[i] = components[i].address_;\n        }\n        return componentAddresses;\n    }\n\n    /*\n     * Get units of all tokens in Set\n     *\n     * @return  units       Array of component units\n     */\n    function getUnits()\n        public\n        view\n        returns(uint256[])\n    {\n        uint256[] memory units = new uint256[](components.length);\n\n        // Iterate through components and get units of each component\n        for (uint256 i = 0; i < components.length; i++) {\n            units[i] = components[i].unit_;\n        }\n        return units;\n    }\n\n    /*\n     * Checks to make sure token is component of Set\n     *\n     * @param  _tokenAddress     Address of token being checked\n     * @return  bool             True if token is component of Set\n     */\n    function tokenIsComponent(\n        address _tokenAddress\n    )\n        view\n        public\n        returns (bool)\n    {\n        return isComponent[_tokenAddress];\n    }\n\n    /* ============ Transfer Overrides ============ */\n\n    /*\n     * ERC20 like transfer function but checks destination is valid\n     *\n     * @param  _to        The address to send Set to\n     * @param  _value     The number of Sets to send\n     * @return  bool      True on successful transfer\n     */\n    function transfer(\n        address _to,\n        uint256 _value\n    )\n        public\n        returns (bool)\n    {\n        // Confirm address is not null\n        require(_to != address(0));\n        // Confirm address is not this address\n        require(_to != address(this));\n\n        // Use inherited transfer function\n        return super.transfer(_to, _value);\n    }\n\n    /*\n     * ERC20 like transferFrom function but checks destination is valid\n     *\n     * @param  _from      The address to send Set from\n     * @param  _to        The address to send Set to\n     * @param  _value     The number of Sets to send\n     * @return  bool      True on successful transfer\n     */\n    function transferFrom(\n        address _from,\n        address _to,\n        uint256 _value\n    )\n        public\n        returns (bool)\n    {\n        // Confirm address is not null\n        require(_to != address(0));\n        // Confirm address is not this address\n        require(_to != address(this));\n\n        // Use inherited transferFrom function\n        return super.transferFrom(_from, _to, _value);\n    }\n}\n",
  "sourcePath": "/Users/alexsoong/Source/set-protocol/set-protocol-contracts/contracts/core/SetToken.sol",
  "compiler": {
    "name": "solc",
    "version": "0.4.24+commit.e67f0147.Emscripten.clang"
  },
  "schemaVersion": "2.0.0",
  "updatedAt": "2018-08-10T21:21:49.341Z"
}