{
  "contractName": "SetToken",
  "abi": [
    {
      "constant": true,
      "inputs": [],
      "name": "name",
      "outputs": [
        {
          "name": "",
          "type": "string"
        }
      ],
      "payable": false,
      "stateMutability": "view",
      "type": "function"
    },
    {
      "constant": false,
      "inputs": [
        {
          "name": "_spender",
          "type": "address"
        },
        {
          "name": "_value",
          "type": "uint256"
        }
      ],
      "name": "approve",
      "outputs": [
        {
          "name": "",
          "type": "bool"
        }
      ],
      "payable": false,
      "stateMutability": "nonpayable",
      "type": "function"
    },
    {
      "constant": true,
      "inputs": [],
      "name": "totalSupply",
      "outputs": [
        {
          "name": "",
          "type": "uint256"
        }
      ],
      "payable": false,
      "stateMutability": "view",
      "type": "function"
    },
    {
      "constant": false,
      "inputs": [
        {
          "name": "_from",
          "type": "address"
        },
        {
          "name": "_to",
          "type": "address"
        },
        {
          "name": "_value",
          "type": "uint256"
        }
      ],
      "name": "transferFrom",
      "outputs": [
        {
          "name": "",
          "type": "bool"
        }
      ],
      "payable": false,
      "stateMutability": "nonpayable",
      "type": "function"
    },
    {
      "constant": true,
      "inputs": [],
      "name": "decimals",
      "outputs": [
        {
          "name": "",
          "type": "uint8"
        }
      ],
      "payable": false,
      "stateMutability": "view",
      "type": "function"
    },
    {
      "constant": false,
      "inputs": [
        {
          "name": "_spender",
          "type": "address"
        },
        {
          "name": "_subtractedValue",
          "type": "uint256"
        }
      ],
      "name": "decreaseApproval",
      "outputs": [
        {
          "name": "",
          "type": "bool"
        }
      ],
      "payable": false,
      "stateMutability": "nonpayable",
      "type": "function"
    },
    {
      "constant": true,
      "inputs": [
        {
          "name": "_owner",
          "type": "address"
        }
      ],
      "name": "balanceOf",
      "outputs": [
        {
          "name": "balance",
          "type": "uint256"
        }
      ],
      "payable": false,
      "stateMutability": "view",
      "type": "function"
    },
    {
      "constant": true,
      "inputs": [],
      "name": "symbol",
      "outputs": [
        {
          "name": "",
          "type": "string"
        }
      ],
      "payable": false,
      "stateMutability": "view",
      "type": "function"
    },
    {
      "constant": false,
      "inputs": [
        {
          "name": "_to",
          "type": "address"
        },
        {
          "name": "_value",
          "type": "uint256"
        }
      ],
      "name": "transfer",
      "outputs": [
        {
          "name": "",
          "type": "bool"
        }
      ],
      "payable": false,
      "stateMutability": "nonpayable",
      "type": "function"
    },
    {
      "constant": true,
      "inputs": [
        {
          "name": "",
          "type": "uint256"
        }
      ],
      "name": "components",
      "outputs": [
        {
          "name": "",
          "type": "address"
        }
      ],
      "payable": false,
      "stateMutability": "view",
      "type": "function"
    },
    {
      "constant": false,
      "inputs": [
        {
          "name": "_spender",
          "type": "address"
        },
        {
          "name": "_addedValue",
          "type": "uint256"
        }
      ],
      "name": "increaseApproval",
      "outputs": [
        {
          "name": "",
          "type": "bool"
        }
      ],
      "payable": false,
      "stateMutability": "nonpayable",
      "type": "function"
    },
    {
      "constant": true,
      "inputs": [
        {
          "name": "_owner",
          "type": "address"
        },
        {
          "name": "_spender",
          "type": "address"
        }
      ],
      "name": "allowance",
      "outputs": [
        {
          "name": "",
          "type": "uint256"
        }
      ],
      "payable": false,
      "stateMutability": "view",
      "type": "function"
    },
    {
      "constant": true,
      "inputs": [
        {
          "name": "",
          "type": "uint256"
        }
      ],
      "name": "units",
      "outputs": [
        {
          "name": "",
          "type": "uint256"
        }
      ],
      "payable": false,
      "stateMutability": "view",
      "type": "function"
    },
    {
      "inputs": [
        {
          "name": "_components",
          "type": "address[]"
        },
        {
          "name": "_units",
          "type": "uint256[]"
        },
        {
          "name": "_name",
          "type": "string"
        },
        {
          "name": "_symbol",
          "type": "string"
        }
      ],
      "payable": false,
      "stateMutability": "nonpayable",
      "type": "constructor"
    },
    {
      "anonymous": false,
      "inputs": [
        {
          "indexed": true,
          "name": "_sender",
          "type": "address"
        },
        {
          "indexed": true,
          "name": "_quantity",
          "type": "uint256"
        }
      ],
      "name": "LogIssuance",
      "type": "event"
    },
    {
      "anonymous": false,
      "inputs": [
        {
          "indexed": true,
          "name": "_sender",
          "type": "address"
        },
        {
          "indexed": true,
          "name": "_quantity",
          "type": "uint256"
        }
      ],
      "name": "LogRedemption",
      "type": "event"
    },
    {
      "anonymous": false,
      "inputs": [
        {
          "indexed": true,
          "name": "owner",
          "type": "address"
        },
        {
          "indexed": true,
          "name": "spender",
          "type": "address"
        },
        {
          "indexed": false,
          "name": "value",
          "type": "uint256"
        }
      ],
      "name": "Approval",
      "type": "event"
    },
    {
      "anonymous": false,
      "inputs": [
        {
          "indexed": true,
          "name": "from",
          "type": "address"
        },
        {
          "indexed": true,
          "name": "to",
          "type": "address"
        },
        {
          "indexed": false,
          "name": "value",
          "type": "uint256"
        }
      ],
      "name": "Transfer",
      "type": "event"
    },
    {
      "constant": false,
      "inputs": [
        {
          "name": "quantity",
          "type": "uint256"
        }
      ],
      "name": "issue",
      "outputs": [
        {
          "name": "success",
          "type": "bool"
        }
      ],
      "payable": false,
      "stateMutability": "nonpayable",
      "type": "function"
    },
    {
      "constant": false,
      "inputs": [
        {
          "name": "quantity",
          "type": "uint256"
        }
      ],
      "name": "redeem",
      "outputs": [
        {
          "name": "success",
          "type": "bool"
        }
      ],
      "payable": false,
      "stateMutability": "nonpayable",
      "type": "function"
    },
    {
      "constant": true,
      "inputs": [],
      "name": "componentCount",
      "outputs": [
        {
          "name": "componentsLength",
          "type": "uint256"
        }
      ],
      "payable": false,
      "stateMutability": "view",
      "type": "function"
    },
    {
      "constant": true,
      "inputs": [],
      "name": "getComponents",
      "outputs": [
        {
          "name": "",
          "type": "address[]"
        }
      ],
      "payable": false,
      "stateMutability": "view",
      "type": "function"
    },
    {
      "constant": true,
      "inputs": [],
      "name": "getUnits",
      "outputs": [
        {
          "name": "",
          "type": "uint256[]"
        }
      ],
      "payable": false,
      "stateMutability": "view",
      "type": "function"
    }
  ],
  "bytecode": "0x606060405234156200001057600080fd5b604051620020373803806200203783398101604052808051820191906020018051820191906020018051820191906020018051820191905050600080600060206040519081016040528060008152506020604051908101604052806000815250601282600390805190602001906200008a92919062000206565b508160049080519060200190620000a392919062000206565b5080600560006101000a81548160ff021916908360ff16021790555050505060008751111515620000d357600080fd5b60008651111515620000e457600080fd5b85518751141515620000f557600080fd5b600092505b8551831015620001955785838151811015156200011357fe5b9060200190602002015191506000821115156200012f57600080fd5b86838151811015156200013e57fe5b906020019060200201519050600073ffffffffffffffffffffffffffffffffffffffff168173ffffffffffffffffffffffffffffffffffffffff16141515156200018757600080fd5b8280600101935050620000fa565b8660079080519060200190620001ad9291906200028d565b508560089080519060200190620001c69291906200031c565b508460039080519060200190620001df92919062000206565b508360049080519060200190620001f892919062000206565b5050505050505050620003dc565b828054600181600116156101000203166002900490600052602060002090601f016020900481019282601f106200024957805160ff19168380011785556200027a565b828001600101855582156200027a579182015b82811115620002795782518255916020019190600101906200025c565b5b5090506200028991906200036e565b5090565b82805482825590600052602060002090810192821562000309579160200282015b82811115620003085782518260006101000a81548173ffffffffffffffffffffffffffffffffffffffff021916908373ffffffffffffffffffffffffffffffffffffffff16021790555091602001919060010190620002ae565b5b50905062000318919062000396565b5090565b8280548282559060005260206000209081019282156200035b579160200282015b828111156200035a5782518255916020019190600101906200033d565b5b5090506200036a91906200036e565b5090565b6200039391905b808211156200038f57600081600090555060010162000375565b5090565b90565b620003d991905b80821115620003d557600081816101000a81549073ffffffffffffffffffffffffffffffffffffffff0219169055506001016200039d565b5090565b90565b611c4b80620003ec6000396000f3006060604052600436106100fc576000357c0100000000000000000000000000000000000000000000000000000000900463ffffffff168063027aa9f51461010157806306fdde031461016b578063095ea7b3146101f957806318160ddd146102535780631fe26e9d1461027c57806323b872dd146102a5578063313ce5671461031e578063661884631461034d57806370a08231146103a757806395d89b41146103f457806399d50d5d14610482578063a9059cbb146104ec578063c5d574fe14610546578063cc872b66146105a9578063d73dd623146105e4578063db006a751461063e578063dd62ed3e14610679578063e5fba6cc146106e5575b600080fd5b341561010c57600080fd5b61011461071c565b6040518080602001828103825283818151815260200191508051906020019060200280838360005b8381101561015757808201518184015260208101905061013c565b505050509050019250505060405180910390f35b341561017657600080fd5b61017e61077a565b6040518080602001828103825283818151815260200191508051906020019080838360005b838110156101be5780820151818401526020810190506101a3565b50505050905090810190601f1680156101eb5780820380516001836020036101000a031916815260200191505b509250505060405180910390f35b341561020457600080fd5b610239600480803573ffffffffffffffffffffffffffffffffffffffff16906020019091908035906020019091905050610818565b604051808215151515815260200191505060405180910390f35b341561025e57600080fd5b61026661090a565b6040518082815260200191505060405180910390f35b341561028757600080fd5b61028f610910565b6040518082815260200191505060405180910390f35b34156102b057600080fd5b610304600480803573ffffffffffffffffffffffffffffffffffffffff1690602001909190803573ffffffffffffffffffffffffffffffffffffffff1690602001909190803590602001909190505061091d565b604051808215151515815260200191505060405180910390f35b341561032957600080fd5b610331610cd7565b604051808260ff1660ff16815260200191505060405180910390f35b341561035857600080fd5b61038d600480803573ffffffffffffffffffffffffffffffffffffffff16906020019091908035906020019091905050610cea565b604051808215151515815260200191505060405180910390f35b34156103b257600080fd5b6103de600480803573ffffffffffffffffffffffffffffffffffffffff16906020019091905050610f7b565b6040518082815260200191505060405180910390f35b34156103ff57600080fd5b610407610fc3565b6040518080602001828103825283818151815260200191508051906020019080838360005b8381101561044757808201518184015260208101905061042c565b50505050905090810190601f1680156104745780820380516001836020036101000a031916815260200191505b509250505060405180910390f35b341561048d57600080fd5b610495611061565b6040518080602001828103825283818151815260200191508051906020019060200280838360005b838110156104d85780820151818401526020810190506104bd565b505050509050019250505060405180910390f35b34156104f757600080fd5b61052c600480803573ffffffffffffffffffffffffffffffffffffffff169060200190919080359060200190919050506110f5565b604051808215151515815260200191505060405180910390f35b341561055157600080fd5b6105676004808035906020019091905050611314565b604051808273ffffffffffffffffffffffffffffffffffffffff1673ffffffffffffffffffffffffffffffffffffffff16815260200191505060405180910390f35b34156105b457600080fd5b6105ca6004808035906020019091905050611353565b604051808215151515815260200191505060405180910390f35b34156105ef57600080fd5b610624600480803573ffffffffffffffffffffffffffffffffffffffff169060200190919080359060200190919050506115fe565b604051808215151515815260200191505060405180910390f35b341561064957600080fd5b61065f60048080359060200190919050506117fa565b604051808215151515815260200191505060405180910390f35b341561068457600080fd5b6106cf600480803573ffffffffffffffffffffffffffffffffffffffff1690602001909190803573ffffffffffffffffffffffffffffffffffffffff16906020019091905050611abf565b6040518082815260200191505060405180910390f35b34156106f057600080fd5b6107066004808035906020019091905050611b46565b6040518082815260200191505060405180910390f35b610724611bf7565b600880548060200260200160405190810160405280929190818152602001828054801561077057602002820191906000526020600020905b81548152602001906001019080831161075c575b5050505050905090565b60038054600181600116156101000203166002900480601f0160208091040260200160405190810160405280929190818152602001828054600181600116156101000203166002900480156108105780601f106107e557610100808354040283529160200191610810565b820191906000526020600020905b8154815290600101906020018083116107f357829003601f168201915b505050505081565b600081600260003373ffffffffffffffffffffffffffffffffffffffff1673ffffffffffffffffffffffffffffffffffffffff16815260200190815260200160002060008573ffffffffffffffffffffffffffffffffffffffff1673ffffffffffffffffffffffffffffffffffffffff168152602001908152602001600020819055508273ffffffffffffffffffffffffffffffffffffffff163373ffffffffffffffffffffffffffffffffffffffff167f8c5be1e5ebec7d5bd14f71427d1e84f3dd0314c0f7b2291e5b200ac8c7c3b925846040518082815260200191505060405180910390a36001905092915050565b60065481565b6000600780549050905090565b60008073ffffffffffffffffffffffffffffffffffffffff168373ffffffffffffffffffffffffffffffffffffffff161415151561095a57600080fd5b6000808573ffffffffffffffffffffffffffffffffffffffff1673ffffffffffffffffffffffffffffffffffffffff1681526020019081526020016000205482111515156109a757600080fd5b600260008573ffffffffffffffffffffffffffffffffffffffff1673ffffffffffffffffffffffffffffffffffffffff16815260200190815260200160002060003373ffffffffffffffffffffffffffffffffffffffff1673ffffffffffffffffffffffffffffffffffffffff168152602001908152602001600020548211151515610a3257600080fd5b610a83826000808773ffffffffffffffffffffffffffffffffffffffff1673ffffffffffffffffffffffffffffffffffffffff16815260200190815260200160002054611b6a90919063ffffffff16565b6000808673ffffffffffffffffffffffffffffffffffffffff1673ffffffffffffffffffffffffffffffffffffffff16815260200190815260200160002081905550610b16826000808673ffffffffffffffffffffffffffffffffffffffff1673ffffffffffffffffffffffffffffffffffffffff16815260200190815260200160002054611b8390919063ffffffff16565b6000808573ffffffffffffffffffffffffffffffffffffffff1673ffffffffffffffffffffffffffffffffffffffff16815260200190815260200160002081905550610be782600260008773ffffffffffffffffffffffffffffffffffffffff1673ffffffffffffffffffffffffffffffffffffffff16815260200190815260200160002060003373ffffffffffffffffffffffffffffffffffffffff1673ffffffffffffffffffffffffffffffffffffffff16815260200190815260200160002054611b6a90919063ffffffff16565b600260008673ffffffffffffffffffffffffffffffffffffffff1673ffffffffffffffffffffffffffffffffffffffff16815260200190815260200160002060003373ffffffffffffffffffffffffffffffffffffffff1673ffffffffffffffffffffffffffffffffffffffff168152602001908152602001600020819055508273ffffffffffffffffffffffffffffffffffffffff168473ffffffffffffffffffffffffffffffffffffffff167fddf252ad1be2c89b69c2b068fc378daa952ba7f163c4a11628f55a4df523b3ef846040518082815260200191505060405180910390a3600190509392505050565b600560009054906101000a900460ff1681565b600080600260003373ffffffffffffffffffffffffffffffffffffffff1673ffffffffffffffffffffffffffffffffffffffff16815260200190815260200160002060008573ffffffffffffffffffffffffffffffffffffffff1673ffffffffffffffffffffffffffffffffffffffff16815260200190815260200160002054905080831115610dfb576000600260003373ffffffffffffffffffffffffffffffffffffffff1673ffffffffffffffffffffffffffffffffffffffff16815260200190815260200160002060008673ffffffffffffffffffffffffffffffffffffffff1673ffffffffffffffffffffffffffffffffffffffff16815260200190815260200160002081905550610e8f565b610e0e8382611b6a90919063ffffffff16565b600260003373ffffffffffffffffffffffffffffffffffffffff1673ffffffffffffffffffffffffffffffffffffffff16815260200190815260200160002060008673ffffffffffffffffffffffffffffffffffffffff1673ffffffffffffffffffffffffffffffffffffffff168152602001908152602001600020819055505b8373ffffffffffffffffffffffffffffffffffffffff163373ffffffffffffffffffffffffffffffffffffffff167f8c5be1e5ebec7d5bd14f71427d1e84f3dd0314c0f7b2291e5b200ac8c7c3b925600260003373ffffffffffffffffffffffffffffffffffffffff1673ffffffffffffffffffffffffffffffffffffffff16815260200190815260200160002060008873ffffffffffffffffffffffffffffffffffffffff1673ffffffffffffffffffffffffffffffffffffffff168152602001908152602001600020546040518082815260200191505060405180910390a3600191505092915050565b60008060008373ffffffffffffffffffffffffffffffffffffffff1673ffffffffffffffffffffffffffffffffffffffff168152602001908152602001600020549050919050565b60048054600181600116156101000203166002900480601f0160208091040260200160405190810160405280929190818152602001828054600181600116156101000203166002900480156110595780601f1061102e57610100808354040283529160200191611059565b820191906000526020600020905b81548152906001019060200180831161103c57829003601f168201915b505050505081565b611069611c0b565b60078054806020026020016040519081016040528092919081815260200182805480156110eb57602002820191906000526020600020905b8160009054906101000a900473ffffffffffffffffffffffffffffffffffffffff1673ffffffffffffffffffffffffffffffffffffffff16815260200190600101908083116110a1575b5050505050905090565b60008073ffffffffffffffffffffffffffffffffffffffff168373ffffffffffffffffffffffffffffffffffffffff161415151561113257600080fd5b6000803373ffffffffffffffffffffffffffffffffffffffff1673ffffffffffffffffffffffffffffffffffffffff16815260200190815260200160002054821115151561117f57600080fd5b6111d0826000803373ffffffffffffffffffffffffffffffffffffffff1673ffffffffffffffffffffffffffffffffffffffff16815260200190815260200160002054611b6a90919063ffffffff16565b6000803373ffffffffffffffffffffffffffffffffffffffff1673ffffffffffffffffffffffffffffffffffffffff16815260200190815260200160002081905550611263826000808673ffffffffffffffffffffffffffffffffffffffff1673ffffffffffffffffffffffffffffffffffffffff16815260200190815260200160002054611b8390919063ffffffff16565b6000808573ffffffffffffffffffffffffffffffffffffffff1673ffffffffffffffffffffffffffffffffffffffff168152602001908152602001600020819055508273ffffffffffffffffffffffffffffffffffffffff163373ffffffffffffffffffffffffffffffffffffffff167fddf252ad1be2c89b69c2b068fc378daa952ba7f163c4a11628f55a4df523b3ef846040518082815260200191505060405180910390a36001905092915050565b60078181548110151561132357fe5b90600052602060002090016000915054906101000a900473ffffffffffffffffffffffffffffffffffffffff1681565b60008060008060008093505b6007805490508410156114ff5760078481548110151561137b57fe5b906000526020600020900160009054906101000a900473ffffffffffffffffffffffffffffffffffffffff1692506008848154811015156113b857fe5b90600052602060002090015491506113ef633b9aca006113e18885611ba190919063ffffffff16565b611bdc90919063ffffffff16565b90506000811115156113fd57fe5b8273ffffffffffffffffffffffffffffffffffffffff166323b872dd3330846040518463ffffffff167c0100000000000000000000000000000000000000000000000000000000028152600401808473ffffffffffffffffffffffffffffffffffffffff1673ffffffffffffffffffffffffffffffffffffffff1681526020018373ffffffffffffffffffffffffffffffffffffffff1673ffffffffffffffffffffffffffffffffffffffff1681526020018281526020019350505050602060405180830381600087803b15156114d357600080fd5b5af115156114e057600080fd5b5050506040518051905015156114f257fe5b838060010194505061135f565b611550866000803373ffffffffffffffffffffffffffffffffffffffff1673ffffffffffffffffffffffffffffffffffffffff16815260200190815260200160002054611b8390919063ffffffff16565b6000803373ffffffffffffffffffffffffffffffffffffffff1673ffffffffffffffffffffffffffffffffffffffff168152602001908152602001600020819055506115a786600654611b8390919063ffffffff16565b600681905550853373ffffffffffffffffffffffffffffffffffffffff167ffbd21f8762dc0c4fc0dbc03a2f816a0a617102a0f9d1908bbc09d377a0b9c6ab60405160405180910390a36001945050505050919050565b600061168f82600260003373ffffffffffffffffffffffffffffffffffffffff1673ffffffffffffffffffffffffffffffffffffffff16815260200190815260200160002060008673ffffffffffffffffffffffffffffffffffffffff1673ffffffffffffffffffffffffffffffffffffffff16815260200190815260200160002054611b8390919063ffffffff16565b600260003373ffffffffffffffffffffffffffffffffffffffff1673ffffffffffffffffffffffffffffffffffffffff16815260200190815260200160002060008573ffffffffffffffffffffffffffffffffffffffff1673ffffffffffffffffffffffffffffffffffffffff168152602001908152602001600020819055508273ffffffffffffffffffffffffffffffffffffffff163373ffffffffffffffffffffffffffffffffffffffff167f8c5be1e5ebec7d5bd14f71427d1e84f3dd0314c0f7b2291e5b200ac8c7c3b925600260003373ffffffffffffffffffffffffffffffffffffffff1673ffffffffffffffffffffffffffffffffffffffff16815260200190815260200160002060008773ffffffffffffffffffffffffffffffffffffffff1673ffffffffffffffffffffffffffffffffffffffff168152602001908152602001600020546040518082815260200191505060405180910390a36001905092915050565b6000806000806000856000803373ffffffffffffffffffffffffffffffffffffffff1673ffffffffffffffffffffffffffffffffffffffff168152602001908152602001600020541015151561184f57600080fd5b6118a0866000803373ffffffffffffffffffffffffffffffffffffffff1673ffffffffffffffffffffffffffffffffffffffff16815260200190815260200160002054611b6a90919063ffffffff16565b6000803373ffffffffffffffffffffffffffffffffffffffff1673ffffffffffffffffffffffffffffffffffffffff168152602001908152602001600020819055506118f786600654611b6a90919063ffffffff16565b600681905550600093505b600780549050841015611a6e5760078481548110151561191e57fe5b906000526020600020900160009054906101000a900473ffffffffffffffffffffffffffffffffffffffff16925060088481548110151561195b57fe5b9060005260206000209001549150611992633b9aca006119848885611ba190919063ffffffff16565b611bdc90919063ffffffff16565b90506000811115156119a057fe5b8273ffffffffffffffffffffffffffffffffffffffff1663a9059cbb33836040518363ffffffff167c0100000000000000000000000000000000000000000000000000000000028152600401808373ffffffffffffffffffffffffffffffffffffffff1673ffffffffffffffffffffffffffffffffffffffff16815260200182815260200192505050602060405180830381600087803b1515611a4257600080fd5b5af11515611a4f57600080fd5b505050604051805190501515611a6157fe5b8380600101945050611902565b853373ffffffffffffffffffffffffffffffffffffffff167f2de3ebe1bb56079998f2617612ba527a2690a100757600dfc0d7253c808b742960405160405180910390a36001945050505050919050565b6000600260008473ffffffffffffffffffffffffffffffffffffffff1673ffffffffffffffffffffffffffffffffffffffff16815260200190815260200160002060008373ffffffffffffffffffffffffffffffffffffffff1673ffffffffffffffffffffffffffffffffffffffff16815260200190815260200160002054905092915050565b600881815481101515611b5557fe5b90600052602060002090016000915090505481565b6000828211151515611b7857fe5b818303905092915050565b6000808284019050838110151515611b9757fe5b8091505092915050565b6000806000841415611bb65760009150611bd5565b8284029050828482811515611bc757fe5b04141515611bd157fe5b8091505b5092915050565b6000808284811515611bea57fe5b0490508091505092915050565b602060405190810160405280600081525090565b6020604051908101604052806000815250905600a165627a7a7230582015d678f8c4903b86c85e0a03f6f43c409a5ce7ee0cdf1a02e3850b633758adee0029",
  "source": "pragma solidity 0.4.21;\n\n\nimport \"zeppelin-solidity/contracts/token/ERC20/StandardToken.sol\";\nimport \"zeppelin-solidity/contracts/token/ERC20/ERC20.sol\";\nimport \"zeppelin-solidity/contracts/token/ERC20/DetailedERC20.sol\";\nimport \"zeppelin-solidity/contracts/math/SafeMath.sol\";\nimport \"./lib/Set.sol\";\n\n\n/**\n * @title {Set}\n * @author Felix Feng\n * @dev Implementation of the basic {Set} token.\n */\ncontract SetToken is StandardToken, DetailedERC20(\"\", \"\", 18), Set {\n  using SafeMath for uint256;\n\n  uint256 public totalSupply;\n\n  address[] public components;\n  uint[] public units;\n\n  /**\n   * @dev Constructor Function for the issuance of an {Set} token\n   * @param _components address[] A list of component address which you want to include\n   * @param _units uint[] A list of quantities in gWei of each component (corresponds to the {Set} of _components)\n   */\n  function SetToken(address[] _components, uint[] _units, string _name, string _symbol) public {\n    // There must be component present\n    require(_components.length > 0);\n\n    // There must be an array of units\n    require(_units.length > 0);\n\n    // The number of components must equal the number of units\n    require(_components.length == _units.length);\n\n    for (uint i = 0; i < _units.length; i++) {\n      // Check that all units are non-zero. Negative numbers will underflow\n      uint currentUnits = _units[i];\n      require(currentUnits > 0);\n\n      // Check that all addresses are non-zero\n      address currentComponent = _components[i];\n      require(currentComponent != address(0));\n    }\n\n    // As looping operations are expensive, checking for duplicates will be\n    // on the onus of the application developer\n\n    // NOTE: It will be the onus of developers to check whether the addressExists\n    // are in fact ERC20 addresses\n\n    components = _components;\n    units = _units;\n    name = _name;\n    symbol = _symbol;\n  }\n\n  /**\n   * @dev Function to convert component into {Set} Tokens\n   *\n   * Please note that the user's ERC20 component must be approved by\n   * their ERC20 contract to transfer their components to this contract.\n   *\n   * @param quantity uint The quantity of component desired to convert in Wei\n   */\n  function issue(uint quantity) public returns (bool success) {\n    // Transfers the sender's components to the contract\n    for (uint i = 0; i < components.length; i++) {\n      address currentComponent = components[i];\n      uint currentUnits = units[i];\n\n      // Transfer value is defined as the currentUnits (in GWei)\n      // multiplied by quantity in Wei divided by the units of gWei.\n      // We do this to allow fractional units to be defined\n      uint transferValue = currentUnits.mul(quantity).div(10**9);\n\n      // Protect against the case that the gWei divisor results in a value that is\n      // 0 and the user is able to generate Sets without sending a balance\n      assert(transferValue > 0);\n\n      assert(ERC20(currentComponent).transferFrom(msg.sender, this, transferValue));\n    }\n\n    // If successful, increment the balance of the users {Set} token\n    balances[msg.sender] = balances[msg.sender].add(quantity);\n\n    // Increment the total token supply\n    totalSupply = totalSupply.add(quantity);\n\n    LogIssuance(msg.sender, quantity);\n\n    return true;\n  }\n\n  /**\n   * @dev Function to convert {Set} Tokens into underlying components\n   *\n   * The ERC20 components do not need to be approved to call this function\n   *\n   * @param quantity uint The quantity of components desired to redeem in Wei\n   */\n  function redeem(uint quantity) public returns (bool success) {\n    // Check that the sender has sufficient components\n    require(balances[msg.sender] >= quantity);\n\n    // To prevent re-entrancy attacks, decrement the user's Set balance\n    balances[msg.sender] = balances[msg.sender].sub(quantity);\n\n    // Decrement the total token supply\n    totalSupply = totalSupply.sub(quantity);\n\n    for (uint i = 0; i < components.length; i++) {\n      address currentComponent = components[i];\n      uint currentUnits = units[i];\n\n      // The transaction will fail if any of the components fail to transfer\n      uint transferValue = currentUnits.mul(quantity).div(10**9);\n\n      // Protect against the case that the gWei divisor results in a value that is\n      // 0 and the user is able to generate Sets without sending a balance\n      assert(transferValue > 0);\n\n      assert(ERC20(currentComponent).transfer(msg.sender, transferValue));\n    }\n\n    LogRedemption(msg.sender, quantity);\n\n    return true;\n  }\n\n  function componentCount() public view returns(uint componentsLength) {\n    return components.length;\n  }\n\n  function getComponents() public view returns(address[]) {\n    return components;\n  }\n\n  function getUnits() public view returns(uint[]) {\n    return units;\n  }\n}\n",
  "sourcePath": "/Users/justinkchen/workspace/set-protocol-contracts/contracts/SetToken.sol",
  "compiler": {
    "name": "solc",
    "version": "0.4.21+commit.dfe3193c.Emscripten.clang"
  },
  "schemaVersion": "2.0.0",
  "updatedAt": "2018-04-09T06:08:42.799Z"
}