{
  "contractName": "TakerWalletWrapper",
  "abi": [
    {
      "constant": false,
      "inputs": [
        {
          "name": "_authTarget",
          "type": "address"
        }
      ],
      "name": "addAuthorizedAddress",
      "outputs": [],
      "payable": false,
      "stateMutability": "nonpayable",
      "type": "function"
    },
    {
      "constant": true,
      "inputs": [
        {
          "name": "",
          "type": "uint256"
        }
      ],
      "name": "authorities",
      "outputs": [
        {
          "name": "",
          "type": "address"
        }
      ],
      "payable": false,
      "stateMutability": "view",
      "type": "function"
    },
    {
      "constant": true,
      "inputs": [],
      "name": "transferProxy",
      "outputs": [
        {
          "name": "",
          "type": "address"
        }
      ],
      "payable": false,
      "stateMutability": "view",
      "type": "function"
    },
    {
      "constant": false,
      "inputs": [
        {
          "name": "_authTarget",
          "type": "address"
        }
      ],
      "name": "removeAuthorizedAddress",
      "outputs": [],
      "payable": false,
      "stateMutability": "nonpayable",
      "type": "function"
    },
    {
      "constant": false,
      "inputs": [],
      "name": "renounceOwnership",
      "outputs": [],
      "payable": false,
      "stateMutability": "nonpayable",
      "type": "function"
    },
    {
      "constant": true,
      "inputs": [],
      "name": "owner",
      "outputs": [
        {
          "name": "",
          "type": "address"
        }
      ],
      "payable": false,
      "stateMutability": "view",
      "type": "function"
    },
    {
      "constant": false,
      "inputs": [
        {
          "name": "_authTarget",
          "type": "address"
        },
        {
          "name": "_index",
          "type": "uint256"
        }
      ],
      "name": "removeAuthorizedAddressAtIndex",
      "outputs": [],
      "payable": false,
      "stateMutability": "nonpayable",
      "type": "function"
    },
    {
      "constant": true,
      "inputs": [
        {
          "name": "",
          "type": "address"
        }
      ],
      "name": "authorized",
      "outputs": [
        {
          "name": "",
          "type": "bool"
        }
      ],
      "payable": false,
      "stateMutability": "view",
      "type": "function"
    },
    {
      "constant": true,
      "inputs": [],
      "name": "getAuthorizedAddresses",
      "outputs": [
        {
          "name": "",
          "type": "address[]"
        }
      ],
      "payable": false,
      "stateMutability": "view",
      "type": "function"
    },
    {
      "constant": false,
      "inputs": [
        {
          "name": "_newOwner",
          "type": "address"
        }
      ],
      "name": "transferOwnership",
      "outputs": [],
      "payable": false,
      "stateMutability": "nonpayable",
      "type": "function"
    },
    {
      "constant": true,
      "inputs": [],
      "name": "vault",
      "outputs": [
        {
          "name": "",
          "type": "address"
        }
      ],
      "payable": false,
      "stateMutability": "view",
      "type": "function"
    },
    {
      "inputs": [
        {
          "name": "_transferProxy",
          "type": "address"
        },
        {
          "name": "_vault",
          "type": "address"
        }
      ],
      "payable": false,
      "stateMutability": "nonpayable",
      "type": "constructor"
    },
    {
      "anonymous": false,
      "inputs": [
        {
          "indexed": true,
          "name": "authAddress",
          "type": "address"
        },
        {
          "indexed": false,
          "name": "authorizedBy",
          "type": "address"
        }
      ],
      "name": "AddressAuthorized",
      "type": "event"
    },
    {
      "anonymous": false,
      "inputs": [
        {
          "indexed": true,
          "name": "addressRemoved",
          "type": "address"
        },
        {
          "indexed": false,
          "name": "authorizedBy",
          "type": "address"
        }
      ],
      "name": "AuthorizedAddressRemoved",
      "type": "event"
    },
    {
      "anonymous": false,
      "inputs": [
        {
          "indexed": true,
          "name": "previousOwner",
          "type": "address"
        }
      ],
      "name": "OwnershipRenounced",
      "type": "event"
    },
    {
      "anonymous": false,
      "inputs": [
        {
          "indexed": true,
          "name": "previousOwner",
          "type": "address"
        },
        {
          "indexed": true,
          "name": "newOwner",
          "type": "address"
        }
      ],
      "name": "OwnershipTransferred",
      "type": "event"
    },
    {
      "constant": false,
      "inputs": [
        {
          "name": "_tradeOriginator",
          "type": "address"
        },
        {
          "name": "_taker",
          "type": "address"
        },
        {
          "name": "_orderData",
          "type": "bytes"
        }
      ],
      "name": "exchange",
      "outputs": [],
      "payable": false,
      "stateMutability": "nonpayable",
      "type": "function"
    }
  ],
  "bytecode": "0x608060405234801561001057600080fd5b50604051604080611395833981018060405261002f919081019061007e565b60008054600160a060020a0319908116331790915560038054600160a060020a03948516908316179055600480549290931691161790556100c4565b600061007782516100b8565b9392505050565b6000806040838503121561009157600080fd5b600061009d858561006b565b92505060206100ae8582860161006b565b9150509250929050565b600160a060020a031690565b6112c2806100d36000396000f3006080604052600436106100b95763ffffffff7c01000000000000000000000000000000000000000000000000000000006000350416630970246981146100be57806342f1181e146100e0578063494503d4146101005780636e667db314610136578063707129391461014b578063715018a61461016b5780638da5cb5b146101805780639ad2674414610195578063b9181611146101b5578063d39de6e9146101e2578063f2fde38b14610204578063fbfa77cf14610224575b600080fd5b3480156100ca57600080fd5b506100de6100d9366004610f81565b610239565b005b3480156100ec57600080fd5b506100de6100fb366004610f5b565b610339565b34801561010c57600080fd5b5061012061011b366004611020565b6104ff565b60405161012d91906110eb565b60405180910390f35b34801561014257600080fd5b50610120610534565b34801561015757600080fd5b506100de610166366004610f5b565b610550565b34801561017757600080fd5b506100de610820565b34801561018c57600080fd5b506101206108b1565b3480156101a157600080fd5b506100de6101b0366004610fe6565b6108cd565b3480156101c157600080fd5b506101d56101d0366004610f5b565b610bec565b60405161012d9190611170565b3480156101ee57600080fd5b506101f7610c01565b60405161012d919061115f565b34801561021057600080fd5b506100de61021f366004610f5b565b610c71565b34801561023057600080fd5b50610120610ca1565b336000908152600160209081526040808320548151606081018352602a81527f53656e646572206e6f7420617574686f72697a656420746f2063616c6c207468938101939093527f6973206d6574686f642e00000000000000000000000000000000000000000000918301919091528291829160ff1615156102f1576040517f08c379a00000000000000000000000000000000000000000000000000000000081526004016102e8919061117e565b60405180910390fd5b50602092505b8351831015610331575050818101805160209091015161031985878484610cbd565b61032a83604063ffffffff610ddf16565b92506102f7565b505050505050565b60005473ffffffffffffffffffffffffffffffffffffffff16331461035d57600080fd5b73ffffffffffffffffffffffffffffffffffffffff8116600090815260016020908152604091829020548251606081018452602681527f546172676574206d757374206e6f7420616c726561647920626520617574686f928101929092527f72697a65642e0000000000000000000000000000000000000000000000000000928201929092529060ff161561041f576040517f08c379a00000000000000000000000000000000000000000000000000000000081526004016102e8919061117e565b5073ffffffffffffffffffffffffffffffffffffffff8116600081815260016020819052604080832080547fffffffffffffffffffffffffffffffffffffffffffffffffffffffffffffff0016831790556002805492830181559092527f405787fa12a823e0f2b7631cc41b3ba8828b3321ca811111fa75cd3aa3bb5ace0180547fffffffffffffffffffffffff00000000000000000000000000000000000000001683179055517f8918da6429714f0e9c40ae7f270773e27fc8caf7a256e19807f859563b7514de906104f49033906110eb565b60405180910390a250565b600280548290811061050d57fe5b60009182526020909120015473ffffffffffffffffffffffffffffffffffffffff16905081565b60035473ffffffffffffffffffffffffffffffffffffffff1681565b6000805473ffffffffffffffffffffffffffffffffffffffff16331461057557600080fd5b73ffffffffffffffffffffffffffffffffffffffff8216600090815260016020908152604091829020548251606081018452602281527f5461726765742061646472657373206d75737420626520617574686f72697a65928101929092527f642e000000000000000000000000000000000000000000000000000000000000928201929092529060ff161515610638576040517f08c379a00000000000000000000000000000000000000000000000000000000081526004016102e8919061117e565b505073ffffffffffffffffffffffffffffffffffffffff8116600090815260016020526040812080547fffffffffffffffffffffffffffffffffffffffffffffffffffffffffffffff001690555b60025481101561081c578173ffffffffffffffffffffffffffffffffffffffff166002828154811015156106b657fe5b60009182526020909120015473ffffffffffffffffffffffffffffffffffffffff16141561081457600280547fffffffffffffffffffffffffffffffffffffffffffffffffffffffffffffffff810190811061070e57fe5b6000918252602090912001546002805473ffffffffffffffffffffffffffffffffffffffff909216918390811061074157fe5b600091825260209091200180547fffffffffffffffffffffffff00000000000000000000000000000000000000001673ffffffffffffffffffffffffffffffffffffffff92909216919091179055600280547fffffffffffffffffffffffffffffffffffffffffffffffffffffffffffffffff01906107c09082610ea1565b508173ffffffffffffffffffffffffffffffffffffffff167f1f32c1b084e2de0713b8fb16bd46bb9df710a3dbeae2f3ca93af46e016dcc6b03360405161080791906110eb565b60405180910390a261081c565b600101610686565b5050565b60005473ffffffffffffffffffffffffffffffffffffffff16331461084457600080fd5b6000805460405173ffffffffffffffffffffffffffffffffffffffff909116917ff8df31144d9c2f0f6b59d69b8b98abd5459d07f2742c4df920b25aae33c6482091a2600080547fffffffffffffffffffffffff0000000000000000000000000000000000000000169055565b60005473ffffffffffffffffffffffffffffffffffffffff1681565b60005473ffffffffffffffffffffffffffffffffffffffff1633146108f157600080fd5b60025460408051606081018252602781527f53706563696669656420617272617920696e646578206973206f7574206f662060208201527f626f756e64732e000000000000000000000000000000000000000000000000009181019190915290821061098a576040517f08c379a00000000000000000000000000000000000000000000000000000000081526004016102e8919061117e565b508173ffffffffffffffffffffffffffffffffffffffff166002828154811015156109b157fe5b6000918252602091829020015460408051606081018252602d81527f4164647265737320666f756e6420617420696e64657820646f6573206e6f7420938101939093527f6d61746368207461726765742e0000000000000000000000000000000000000090830152909173ffffffffffffffffffffffffffffffffffffffff90911614610a6b576040517f08c379a00000000000000000000000000000000000000000000000000000000081526004016102e8919061117e565b5073ffffffffffffffffffffffffffffffffffffffff8216600090815260016020526040902080547fffffffffffffffffffffffffffffffffffffffffffffffffffffffffffffff00169055600280547fffffffffffffffffffffffffffffffffffffffffffffffffffffffffffffffff8101908110610ae757fe5b6000918252602090912001546002805473ffffffffffffffffffffffffffffffffffffffff9092169183908110610b1a57fe5b600091825260209091200180547fffffffffffffffffffffffff00000000000000000000000000000000000000001673ffffffffffffffffffffffffffffffffffffffff92909216919091179055600280547fffffffffffffffffffffffffffffffffffffffffffffffffffffffffffffffff0190610b999082610ea1565b508173ffffffffffffffffffffffffffffffffffffffff167f1f32c1b084e2de0713b8fb16bd46bb9df710a3dbeae2f3ca93af46e016dcc6b033604051610be091906110eb565b60405180910390a25050565b60016020526000908152604090205460ff1681565b60606002805480602002602001604051908101604052809291908181526020018280548015610c6657602002820191906000526020600020905b815473ffffffffffffffffffffffffffffffffffffffff168152600190910190602001808311610c3b575b505050505090505b90565b60005473ffffffffffffffffffffffffffffffffffffffff163314610c9557600080fd5b610c9e81610df2565b50565b60045473ffffffffffffffffffffffffffffffffffffffff1681565b600354600480546040517fa6c4e46700000000000000000000000000000000000000000000000000000000815273ffffffffffffffffffffffffffffffffffffffff9384169363a6c4e46793610d1c93889388938c9392169101611121565b600060405180830381600087803b158015610d3657600080fd5b505af1158015610d4a573d6000803e3d6000fd5b5050600480546040517fbada572600000000000000000000000000000000000000000000000000000000815273ffffffffffffffffffffffffffffffffffffffff909116935063bada57269250610da791879187918791016110f9565b600060405180830381600087803b158015610dc157600080fd5b505af1158015610dd5573d6000803e3d6000fd5b5050505050505050565b81810182811015610dec57fe5b92915050565b73ffffffffffffffffffffffffffffffffffffffff81161515610e1457600080fd5b6000805460405173ffffffffffffffffffffffffffffffffffffffff808516939216917f8be0079c531659141344cd1fd0a4f28419497f9722a3daafe3b4186f6b6457e091a3600080547fffffffffffffffffffffffff00000000000000000000000000000000000000001673ffffffffffffffffffffffffffffffffffffffff92909216919091179055565b815481835581811115610ec557600083815260209020610ec5918101908301610eca565b505050565b610c6e91905b80821115610ee45760008155600101610ed0565b5090565b6000610ef48235611206565b9392505050565b6000601f82018313610f0c57600080fd5b8135610f1f610f1a826111b6565b61118f565b91508082526020830160208301858383011115610f3b57600080fd5b610f46838284611224565b50505092915050565b6000610ef48235610c6e565b600060208284031215610f6d57600080fd5b6000610f798484610ee8565b949350505050565b600080600060608486031215610f9657600080fd5b6000610fa28686610ee8565b9350506020610fb386828701610ee8565b925050604084013567ffffffffffffffff811115610fd057600080fd5b610fdc86828701610efb565b9150509250925092565b60008060408385031215610ff957600080fd5b60006110058585610ee8565b925050602061101685828601610f4f565b9150509250929050565b60006020828403121561103257600080fd5b6000610f798484610f4f565b61104781611206565b82525050565b600061105882611202565b80845260208401935061106a836111fc565b60005b8281101561109a5761108086835161103e565b611089826111fc565b60209690960195915060010161106d565b5093949350505050565b6110478161121f565b60006110b882611202565b8084526110cc816020860160208601611230565b6110d581611260565b9093016020019392505050565b61104781610c6e565b60208101610dec828461103e565b60608101611107828661103e565b611114602083018561103e565b610f7960408301846110e2565b6080810161112f828761103e565b61113c60208301866110e2565b611149604083018561103e565b611156606083018461103e565b95945050505050565b60208082528101610ef4818461104d565b60208101610dec82846110a4565b60208082528101610ef481846110ad565b60405181810167ffffffffffffffff811182821017156111ae57600080fd5b604052919050565b600067ffffffffffffffff8211156111cd57600080fd5b506020601f919091017fffffffffffffffffffffffffffffffffffffffffffffffffffffffffffffffe0160190565b60200190565b5190565b73ffffffffffffffffffffffffffffffffffffffff1690565b151590565b82818337506000910152565b60005b8381101561124b578181015183820152602001611233565b8381111561125a576000848401525b50505050565b601f017fffffffffffffffffffffffffffffffffffffffffffffffffffffffffffffffe016905600a265627a7a723058205411bc93fdc2f4f7d79411fd6c53f2f02bc76f566435c112ab88c9d9f75be4236c6578706572696d656e74616cf50037",
  "source": "/*\n    Copyright 2018 Set Labs Inc.\n\n    Licensed under the Apache License, Version 2.0 (the \"License\");\n    you may not use this file except in compliance with the License.\n    You may obtain a copy of the License at\n\n    http://www.apache.org/licenses/LICENSE-2.0\n\n    Unless required by applicable law or agreed to in writing, software\n    distributed under the License is distributed on an \"AS IS\" BASIS,\n    WITHOUT WARRANTIES OR CONDITIONS OF ANY KIND, either express or implied.\n    See the License for the specific language governing permissions and\n    limitations under the License.\n*/\n\npragma solidity 0.4.24;\npragma experimental \"ABIEncoderV2\";\n\nimport { SafeMath } from \"zeppelin-solidity/contracts/math/SafeMath.sol\";\nimport { Authorizable } from \"../../lib/Authorizable.sol\";\nimport { LibBytes } from \"../../external/0x/LibBytes.sol\";\nimport { ITransferProxy } from \"../interfaces/ITransferProxy.sol\";\nimport { IVault } from \"../interfaces/IVault.sol\";\n\n\n/**\n * @title TakerWalletWrapper\n * @author Set Protocol\n *\n * The TakerWalletWrapper contract wrapper to transfer tokens directly from order taker\n */\ncontract TakerWalletWrapper is\n    Authorizable\n{\n    using SafeMath for uint256;\n\n    /* ============ State Variables ============ */\n\n    address public transferProxy;\n    address public vault;\n\n    /* ============ Constants ============ */\n\n    uint256 constant TRANSFER_REQUEST_LENGTH = 64;\n\n    /* ============ Constructor ============ */\n\n    constructor(\n        address _transferProxy,\n        address _vault\n    )\n        public\n    {\n        transferProxy = _transferProxy;\n        vault = _vault;\n    }\n\n    /* ============ Public Functions ============ */\n\n    function exchange(\n        address _tradeOriginator,\n        address _taker,\n        bytes _orderData\n    )\n        public\n        onlyAuthorized\n    {\n        uint256 scannedBytes = 32;\n        while (scannedBytes < _orderData.length) {\n\n            // Read the next transfer order\n            address takerToken;\n            uint256 takerTokenAmount;\n            assembly {\n                takerToken := mload(add(_orderData, scannedBytes))\n                takerTokenAmount := mload(add(_orderData, add(scannedBytes, 32)))\n            }\n\n            executeTransfer(\n                _taker,\n                _tradeOriginator,\n                takerToken,\n                takerTokenAmount\n            );\n\n            // Update scanned bytes with header and body lengths\n            scannedBytes = scannedBytes.add(TRANSFER_REQUEST_LENGTH);\n        }\n    }\n\n    /* ============ Private ============ */\n    \n    function executeTransfer(\n        address _taker,\n        address _tradeOriginator,\n        address _takerToken,\n        uint256 _takerTokenAmount\n    )\n        private\n    {\n        ITransferProxy(transferProxy).transfer(\n            _takerToken,\n            _takerTokenAmount,\n            _taker,\n            vault\n        );\n\n        IVault(vault).incrementTokenOwner(\n            _tradeOriginator,\n            _takerToken,\n            _takerTokenAmount\n        );\n    }\n}\n",
  "sourcePath": "/Users/inje/Documents/repos/set-protocol-contracts/contracts/core/exchange-wrappers/TakerWalletWrapper.sol",
  "compiler": {
    "name": "solc",
    "version": "0.4.24+commit.e67f0147.Emscripten.clang"
  },
  "schemaVersion": "2.0.0",
  "updatedAt": "2018-07-13T21:55:38.167Z"
}