{
  "contractName": "TakerWalletWrapper",
  "abi": [
    {
      "constant": false,
      "inputs": [
        {
          "name": "_authTarget",
          "type": "address"
        }
      ],
      "name": "addAuthorizedAddress",
      "outputs": [],
      "payable": false,
      "stateMutability": "nonpayable",
      "type": "function"
    },
    {
      "constant": true,
      "inputs": [
        {
          "name": "",
          "type": "uint256"
        }
      ],
      "name": "authorities",
      "outputs": [
        {
          "name": "",
          "type": "address"
        }
      ],
      "payable": false,
      "stateMutability": "view",
      "type": "function"
    },
    {
      "constant": true,
      "inputs": [],
      "name": "transferProxy",
      "outputs": [
        {
          "name": "",
          "type": "address"
        }
      ],
      "payable": false,
      "stateMutability": "view",
      "type": "function"
    },
    {
      "constant": false,
      "inputs": [
        {
          "name": "_authTarget",
          "type": "address"
        }
      ],
      "name": "removeAuthorizedAddress",
      "outputs": [],
      "payable": false,
      "stateMutability": "nonpayable",
      "type": "function"
    },
    {
      "constant": false,
      "inputs": [],
      "name": "renounceOwnership",
      "outputs": [],
      "payable": false,
      "stateMutability": "nonpayable",
      "type": "function"
    },
    {
      "constant": true,
      "inputs": [],
      "name": "owner",
      "outputs": [
        {
          "name": "",
          "type": "address"
        }
      ],
      "payable": false,
      "stateMutability": "view",
      "type": "function"
    },
    {
      "constant": false,
      "inputs": [
        {
          "name": "_authTarget",
          "type": "address"
        },
        {
          "name": "_index",
          "type": "uint256"
        }
      ],
      "name": "removeAuthorizedAddressAtIndex",
      "outputs": [],
      "payable": false,
      "stateMutability": "nonpayable",
      "type": "function"
    },
    {
      "constant": true,
      "inputs": [
        {
          "name": "",
          "type": "address"
        }
      ],
      "name": "authorized",
      "outputs": [
        {
          "name": "",
          "type": "bool"
        }
      ],
      "payable": false,
      "stateMutability": "view",
      "type": "function"
    },
    {
      "constant": true,
      "inputs": [],
      "name": "getAuthorizedAddresses",
      "outputs": [
        {
          "name": "",
          "type": "address[]"
        }
      ],
      "payable": false,
      "stateMutability": "view",
      "type": "function"
    },
    {
      "constant": false,
      "inputs": [
        {
          "name": "_newOwner",
          "type": "address"
        }
      ],
      "name": "transferOwnership",
      "outputs": [],
      "payable": false,
      "stateMutability": "nonpayable",
      "type": "function"
    },
    {
      "inputs": [
        {
          "name": "_transferProxy",
          "type": "address"
        }
      ],
      "payable": false,
      "stateMutability": "nonpayable",
      "type": "constructor"
    },
    {
      "anonymous": false,
      "inputs": [
        {
          "indexed": true,
          "name": "authAddress",
          "type": "address"
        },
        {
          "indexed": false,
          "name": "authorizedBy",
          "type": "address"
        }
      ],
      "name": "AddressAuthorized",
      "type": "event"
    },
    {
      "anonymous": false,
      "inputs": [
        {
          "indexed": true,
          "name": "addressRemoved",
          "type": "address"
        },
        {
          "indexed": false,
          "name": "authorizedBy",
          "type": "address"
        }
      ],
      "name": "AuthorizedAddressRemoved",
      "type": "event"
    },
    {
      "anonymous": false,
      "inputs": [
        {
          "indexed": true,
          "name": "previousOwner",
          "type": "address"
        }
      ],
      "name": "OwnershipRenounced",
      "type": "event"
    },
    {
      "anonymous": false,
      "inputs": [
        {
          "indexed": true,
          "name": "previousOwner",
          "type": "address"
        },
        {
          "indexed": true,
          "name": "newOwner",
          "type": "address"
        }
      ],
      "name": "OwnershipTransferred",
      "type": "event"
    },
    {
      "constant": false,
      "inputs": [
        {
          "name": "_taker",
          "type": "address"
        },
        {
          "name": "_orderCount",
          "type": "uint256"
        },
        {
          "name": "_ordersData",
          "type": "bytes"
        }
      ],
      "name": "exchange",
      "outputs": [
        {
          "name": "",
          "type": "address[]"
        },
        {
          "name": "",
          "type": "uint256[]"
        }
      ],
      "payable": false,
      "stateMutability": "nonpayable",
      "type": "function"
    }
  ],
  "bytecode": "0x608060405234801561001057600080fd5b506040516020806112f2833981018060405261002f9190810190610075565b6000805433600160a060020a03199182161790915560038054909116600160a060020a03929092169190911790556100a7565b600061006e825161009b565b9392505050565b60006020828403121561008757600080fd5b60006100938484610062565b949350505050565b600160a060020a031690565b61123c806100b66000396000f3006080604052600436106100ae5763ffffffff7c010000000000000000000000000000000000000000000000000000000060003504166342f1181e81146100b3578063494503d4146100d55780636e667db31461010b5780637071293914610120578063715018a6146101405780638da5cb5b146101555780639ad267441461016a578063b91816111461018a578063bd5b3046146101b7578063d39de6e9146101e5578063f2fde38b14610207575b600080fd5b3480156100bf57600080fd5b506100d36100ce366004610e62565b610227565b005b3480156100e157600080fd5b506100f56100f0366004610f45565b61038f565b604051610102919061107b565b60405180910390f35b34801561011757600080fd5b506100f56103b7565b34801561012c57600080fd5b506100d361013b366004610e62565b6103c6565b34801561014c57600080fd5b506100d36105b2565b34801561016157600080fd5b506100f561061e565b34801561017657600080fd5b506100d3610185366004610e88565b61062d565b34801561019657600080fd5b506101aa6101a5366004610e62565b61085e565b6040516101029190611133565b3480156101c357600080fd5b506101d76101d2366004610ec2565b610873565b60405161010292919061110e565b3480156101f157600080fd5b506101fa610ac9565b60405161010291906110fd565b34801561021357600080fd5b506100d3610222366004610e62565b610b2c565b600054600160a060020a0316331461023e57600080fd5b600160a060020a038116600090815260016020908152604091829020548251606081018452602681527f546172676574206d757374206e6f7420616c726561647920626520617574686f928101929092527f72697a65642e0000000000000000000000000000000000000000000000000000928201929092529060ff16156102e55760405160e560020a62461bcd0281526004016102dc9190611141565b60405180910390fd5b50600160a060020a0381166000818152600160208190526040808320805460ff1916831790556002805492830181559092527f405787fa12a823e0f2b7631cc41b3ba8828b3321ca811111fa75cd3aa3bb5ace01805473ffffffffffffffffffffffffffffffffffffffff191683179055517f8918da6429714f0e9c40ae7f270773e27fc8caf7a256e19807f859563b7514de9061038490339061107b565b60405180910390a250565b600280548290811061039d57fe5b600091825260209091200154600160a060020a0316905081565b600354600160a060020a031681565b60008054600160a060020a031633146103de57600080fd5b600160a060020a038216600090815260016020908152604091829020548251606081018452602281527f5461726765742061646472657373206d75737420626520617574686f72697a65928101929092527f642e000000000000000000000000000000000000000000000000000000000000928201929092529060ff16151561047d5760405160e560020a62461bcd0281526004016102dc9190611141565b5050600160a060020a0381166000908152600160205260408120805460ff191690555b6002548110156105ae5781600160a060020a03166002828154811015156104c357fe5b600091825260209091200154600160a060020a031614156105a6576002805460001981019081106104f057fe5b60009182526020909120015460028054600160a060020a03909216918390811061051657fe5b6000918252602090912001805473ffffffffffffffffffffffffffffffffffffffff1916600160a060020a039290921691909117905560028054600019019061055f9082610da5565b5081600160a060020a03167f1f32c1b084e2de0713b8fb16bd46bb9df710a3dbeae2f3ca93af46e016dcc6b033604051610599919061107b565b60405180910390a26105ae565b6001016104a0565b5050565b600054600160a060020a031633146105c957600080fd5b60008054604051600160a060020a03909116917ff8df31144d9c2f0f6b59d69b8b98abd5459d07f2742c4df920b25aae33c6482091a26000805473ffffffffffffffffffffffffffffffffffffffff19169055565b600054600160a060020a031681565b600054600160a060020a0316331461064457600080fd5b60025460408051606081018252602781527f53706563696669656420617272617920696e646578206973206f7574206f662060208201527f626f756e64732e00000000000000000000000000000000000000000000000000918101919091529082106106c65760405160e560020a62461bcd0281526004016102dc9190611141565b5081600160a060020a03166002828154811015156106e057fe5b6000918252602091829020015460408051606081018252602d81527f4164647265737320666f756e6420617420696e64657820646f6573206e6f7420938101939093527f6d61746368207461726765742e00000000000000000000000000000000000000908301529091600160a060020a03909116146107765760405160e560020a62461bcd0281526004016102dc9190611141565b50600160a060020a0382166000908152600160205260409020805460ff191690556002805460001981019081106107a957fe5b60009182526020909120015460028054600160a060020a0390921691839081106107cf57fe5b6000918252602090912001805473ffffffffffffffffffffffffffffffffffffffff1916600160a060020a03929092169190911790556002805460001901906108189082610da5565b5081600160a060020a03167f1f32c1b084e2de0713b8fb16bd46bb9df710a3dbeae2f3ca93af46e016dcc6b033604051610852919061107b565b60405180910390a25050565b60016020526000908152604090205460ff1681565b6060806060806000806000806001600033600160a060020a0316600160a060020a0316815260200190815260200160002060009054906101000a900460ff16606060405190810160405280602a81526020017f53656e646572206e6f7420617574686f72697a656420746f2063616c6c20746881526020017f6973206d6574686f642e000000000000000000000000000000000000000000008152509015156109325760405160e560020a62461bcd0281526004016102dc9190611141565b508960405190808252806020026020018201604052801561095d578160200160208202803883390190505b5095508960405190808252806020026020018201604052801561098a578160200160208202803883390190505b509450602093505b8851841015610ab857838901519250602084018901519150600360009054906101000a9004600160a060020a0316600160a060020a031663a6c4e46784848e306040518563ffffffff167c0100000000000000000000000000000000000000000000000000000000028152600401610a0d94939291906110bf565b600060405180830381600087803b158015610a2757600080fd5b505af1158015610a3b573d6000803e3d6000fd5b5050600354610a5992508591503090600160a060020a031685610b4f565b50845160408404908390879083908110610a6f57fe5b600160a060020a0390921660209283029091019091015284518290869083908110610a9657fe5b60209081029091010152610ab184604063ffffffff610b7f16565b9350610992565b509399929850919650505050505050565b60606002805480602002602001604051908101604052809291908181526020018280548015610b2157602002820191906000526020600020905b8154600160a060020a03168152600190910190602001808311610b03575b505050505090505b90565b600054600160a060020a03163314610b4357600080fd5b610b4c81610b92565b50565b6000610b5c858585610c0f565b905081811015610b7857610b788584610b73610cb5565b610cbb565b5050505050565b81810182811015610b8c57fe5b92915050565b600160a060020a0381161515610ba757600080fd5b60008054604051600160a060020a03808516939216917f8be0079c531659141344cd1fd0a4f28419497f9722a3daafe3b4186f6b6457e091a36000805473ffffffffffffffffffffffffffffffffffffffff1916600160a060020a0392909216919091179055565b6040517fdd62ed3e000000000000000000000000000000000000000000000000000000008152600090600160a060020a0385169063dd62ed3e90610c599086908690600401611089565b602060405180830381600087803b158015610c7357600080fd5b505af1158015610c87573d6000803e3d6000fd5b505050506040513d601f19601f82011682018060405250610cab9190810190610f63565b90505b9392505050565b60001990565b6040517f095ea7b3000000000000000000000000000000000000000000000000000000008152600160a060020a0384169063095ea7b390610d0290859085906004016110a4565b602060405180830381600087803b158015610d1c57600080fd5b505af1158015610d30573d6000803e3d6000fd5b505050506040513d601f19601f82011682018060405250610d549190810190610f27565b50610d5d610d6d565b1515610d6857600080fd5b505050565b6000803d8015610d845760208114610d8d57610d99565b60019150610d99565b60206000803e60005191505b508060011491505b5090565b815481835581811115610d6857600083815260209020610d68918101908301610b2991905b80821115610da15760008155600101610dca565b6000610cae82356111ab565b6000610cae82516111b7565b6000601f82018313610e0757600080fd5b8135610e1a610e1582611179565b611152565b91508082526020830160208301858383011115610e3657600080fd5b610e418382846111bc565b50505092915050565b6000610cae8235610b29565b6000610cae8251610b29565b600060208284031215610e7457600080fd5b6000610e808484610dde565b949350505050565b60008060408385031215610e9b57600080fd5b6000610ea78585610dde565b9250506020610eb885828601610e4a565b9150509250929050565b600080600060608486031215610ed757600080fd5b6000610ee38686610dde565b9350506020610ef486828701610e4a565b925050604084013567ffffffffffffffff811115610f1157600080fd5b610f1d86828701610df6565b9150509250925092565b600060208284031215610f3957600080fd5b6000610e808484610dea565b600060208284031215610f5757600080fd5b6000610e808484610e4a565b600060208284031215610f7557600080fd5b6000610e808484610e56565b610f8a816111ab565b82525050565b6000610f9b826111a7565b808452602084019350610fad836111a1565b60005b82811015610fdd57610fc3868351610f81565b610fcc826111a1565b602096909601959150600101610fb0565b5093949350505050565b6000610ff2826111a7565b808452602084019350611004836111a1565b60005b82811015610fdd5761101a868351611072565b611023826111a1565b602096909601959150600101611007565b610f8a816111b7565b6000611048826111a7565b80845261105c8160208601602086016111c8565b611065816111f8565b9093016020019392505050565b610f8a81610b29565b60208101610b8c8284610f81565b604081016110978285610f81565b610cae6020830184610f81565b604081016110b28285610f81565b610cae6020830184611072565b608081016110cd8287610f81565b6110da6020830186611072565b6110e76040830185610f81565b6110f46060830184610f81565b95945050505050565b60208082528101610cae8184610f90565b6040808252810161111f8185610f90565b90508181036020830152610cab8184610fe7565b60208101610b8c8284611034565b60208082528101610cae818461103d565b60405181810167ffffffffffffffff8111828210171561117157600080fd5b604052919050565b600067ffffffffffffffff82111561119057600080fd5b506020601f91909101601f19160190565b60200190565b5190565b600160a060020a031690565b151590565b82818337506000910152565b60005b838110156111e35781810151838201526020016111cb565b838111156111f2576000848401525b50505050565b601f01601f1916905600a265627a7a7230582036ee4540c264aada6acdd67b7ef643c37b5a52d1def4b45606133e7d7f4c5b496c6578706572696d656e74616cf50037",
  "source": "/*\n    Copyright 2018 Set Labs Inc.\n\n    Licensed under the Apache License, Version 2.0 (the \"License\");\n    you may not use this file except in compliance with the License.\n    You may obtain a copy of the License at\n\n    http://www.apache.org/licenses/LICENSE-2.0\n\n    Unless required by applicable law or agreed to in writing, software\n    distributed under the License is distributed on an \"AS IS\" BASIS,\n    WITHOUT WARRANTIES OR CONDITIONS OF ANY KIND, either express or implied.\n    See the License for the specific language governing permissions and\n    limitations under the License.\n*/\n\npragma solidity 0.4.24;\npragma experimental \"ABIEncoderV2\";\n\nimport { SafeMath } from \"zeppelin-solidity/contracts/math/SafeMath.sol\";\nimport { Authorizable } from \"../../lib/Authorizable.sol\";\nimport { ERC20Wrapper } from \"../../lib/ERC20Wrapper.sol\";\nimport { ITransferProxy } from \"../interfaces/ITransferProxy.sol\";\nimport { LibBytes } from \"../../external/0x/LibBytes.sol\";\n\n\n/**\n * @title TakerWalletWrapper\n * @author Set Protocol\n *\n * The TakerWalletWrapper contract wrapper to transfer tokens directly from order taker\n */\ncontract TakerWalletWrapper is\n    Authorizable\n{\n    using SafeMath for uint256;\n\n    /* ============ State Variables ============ */\n\n    address public transferProxy;\n\n    /* ============ Constructor ============ */\n\n    /**\n     * Sets the transferProxy address for the contract\n     *\n     * @param  _transferProxy    Address of current transferProxy\n     */\n    constructor(\n        address _transferProxy\n    )\n        public\n    {\n        // Set transferProxy address\n        transferProxy = _transferProxy;\n    }\n\n    /* ============ Public Functions ============ */\n\n    /**\n     * IExchange interface delegate method.\n     * Parses taker wallet orders and transfers tokens from taker's wallet.\n     *\n     * @param  _taker              Taker wallet address\n     * @param  _orderCount         Amount of orders in exchange request\n     * @param  _ordersData         Encoded taker wallet order data\n     * @return Array of token addresses executed in orders\n     * @return Array of token amounts executed in orders\n     */\n    function exchange(\n        address _taker,\n        uint256 _orderCount,\n        bytes _ordersData\n    )\n        public\n        onlyAuthorized\n        returns(address[], uint256[])\n    {\n        address[] memory takerTokens = new address[](_orderCount);\n        uint256[] memory takerTokenAmounts = new uint256[](_orderCount);\n\n        uint256 scannedBytes = 32;\n        while (scannedBytes < _ordersData.length) {\n\n            // Read the next transfer order\n            address takerToken;\n            uint256 takerTokenAmount;\n            assembly {\n                takerToken := mload(add(_ordersData, scannedBytes))\n                takerTokenAmount := mload(add(_ordersData, add(scannedBytes, 32)))\n            }\n\n            // Transfer from taker's wallet to this wrapper\n            ITransferProxy(transferProxy).transfer(\n                takerToken,\n                takerTokenAmount,\n                _taker,\n                address(this)\n            );\n\n            // Ensure allowance of transfer from this wrapper to TransferProxy\n            ERC20Wrapper.ensureAllowance(\n                takerToken,\n                address(this),\n                transferProxy,\n                takerTokenAmount\n            );\n\n            // Record taker token and amount to return values\n            uint256 orderCount = scannedBytes >> 6;\n            takerTokens[orderCount] = takerToken;\n            takerTokenAmounts[orderCount] = takerTokenAmount;\n\n            // Update scanned bytes with length of each transfer request (64)\n            scannedBytes = scannedBytes.add(64);\n        }\n\n        return (takerTokens, takerTokenAmounts);\n    }\n}\n",
  "sourcePath": "/Users/justinkchen/workspace/set-protocol-contracts/contracts/core/exchange-wrappers/TakerWalletWrapper.sol",
  "compiler": {
    "name": "solc",
    "version": "0.4.24+commit.e67f0147.Emscripten.clang"
  },
  "schemaVersion": "2.0.0",
  "updatedAt": "2018-08-10T03:42:05.695Z"
}