{
  "contractName": "TransferProxy",
  "abi": [
    {
      "constant": false,
      "inputs": [
        {
          "name": "_authTarget",
          "type": "address"
        }
      ],
      "name": "addAuthorizedAddress",
      "outputs": [],
      "payable": false,
      "stateMutability": "nonpayable",
      "type": "function"
    },
    {
      "constant": true,
      "inputs": [
        {
          "name": "",
          "type": "uint256"
        }
      ],
      "name": "authorities",
      "outputs": [
        {
          "name": "",
          "type": "address"
        }
      ],
      "payable": false,
      "stateMutability": "view",
      "type": "function"
    },
    {
      "constant": false,
      "inputs": [
        {
          "name": "_authTarget",
          "type": "address"
        }
      ],
      "name": "removeAuthorizedAddress",
      "outputs": [],
      "payable": false,
      "stateMutability": "nonpayable",
      "type": "function"
    },
    {
      "constant": false,
      "inputs": [],
      "name": "renounceOwnership",
      "outputs": [],
      "payable": false,
      "stateMutability": "nonpayable",
      "type": "function"
    },
    {
      "constant": true,
      "inputs": [],
      "name": "owner",
      "outputs": [
        {
          "name": "",
          "type": "address"
        }
      ],
      "payable": false,
      "stateMutability": "view",
      "type": "function"
    },
    {
      "constant": false,
      "inputs": [
        {
          "name": "_authTarget",
          "type": "address"
        },
        {
          "name": "_index",
          "type": "uint256"
        }
      ],
      "name": "removeAuthorizedAddressAtIndex",
      "outputs": [],
      "payable": false,
      "stateMutability": "nonpayable",
      "type": "function"
    },
    {
      "constant": true,
      "inputs": [
        {
          "name": "",
          "type": "address"
        }
      ],
      "name": "authorized",
      "outputs": [
        {
          "name": "",
          "type": "bool"
        }
      ],
      "payable": false,
      "stateMutability": "view",
      "type": "function"
    },
    {
      "constant": true,
      "inputs": [],
      "name": "getAuthorizedAddresses",
      "outputs": [
        {
          "name": "",
          "type": "address[]"
        }
      ],
      "payable": false,
      "stateMutability": "view",
      "type": "function"
    },
    {
      "constant": true,
      "inputs": [],
      "name": "gracePeriodEnd",
      "outputs": [
        {
          "name": "",
          "type": "uint256"
        }
      ],
      "payable": false,
      "stateMutability": "view",
      "type": "function"
    },
    {
      "constant": false,
      "inputs": [
        {
          "name": "_newOwner",
          "type": "address"
        }
      ],
      "name": "transferOwnership",
      "outputs": [],
      "payable": false,
      "stateMutability": "nonpayable",
      "type": "function"
    },
    {
      "inputs": [],
      "payable": false,
      "stateMutability": "nonpayable",
      "type": "constructor"
    },
    {
      "anonymous": false,
      "inputs": [
        {
          "indexed": true,
          "name": "authAddress",
          "type": "address"
        },
        {
          "indexed": false,
          "name": "authorizedBy",
          "type": "address"
        }
      ],
      "name": "AddressAuthorized",
      "type": "event"
    },
    {
      "anonymous": false,
      "inputs": [
        {
          "indexed": true,
          "name": "addressRemoved",
          "type": "address"
        },
        {
          "indexed": false,
          "name": "authorizedBy",
          "type": "address"
        }
      ],
      "name": "AuthorizedAddressRemoved",
      "type": "event"
    },
    {
      "anonymous": false,
      "inputs": [
        {
          "indexed": true,
          "name": "previousOwner",
          "type": "address"
        }
      ],
      "name": "OwnershipRenounced",
      "type": "event"
    },
    {
      "anonymous": false,
      "inputs": [
        {
          "indexed": true,
          "name": "previousOwner",
          "type": "address"
        },
        {
          "indexed": true,
          "name": "newOwner",
          "type": "address"
        }
      ],
      "name": "OwnershipTransferred",
      "type": "event"
    },
    {
      "constant": false,
      "inputs": [
        {
          "name": "_token",
          "type": "address"
        },
        {
          "name": "_quantity",
          "type": "uint256"
        },
        {
          "name": "_from",
          "type": "address"
        },
        {
          "name": "_to",
          "type": "address"
        }
      ],
      "name": "transfer",
      "outputs": [],
      "payable": false,
      "stateMutability": "nonpayable",
      "type": "function"
    }
  ],
  "bytecode": "0x608060405234801561001057600080fd5b5060008054600160a060020a0319163317905562278d0061003e42826401000000006109d961004782021704565b6001555061005a565b8181018281101561005457fe5b92915050565b610cee806100696000396000f3006080604052600436106100ae5763ffffffff7c010000000000000000000000000000000000000000000000000000000060003504166342f1181e81146100b3578063494503d4146100d6578063707129391461010a578063715018a61461012b5780638da5cb5b146101405780639ad2674414610155578063a6c4e46714610179578063b9181611146101aa578063d39de6e9146101df578063dae2a76c14610244578063f2fde38b1461026b575b600080fd5b3480156100bf57600080fd5b506100d4600160a060020a036004351661028c565b005b3480156100e257600080fd5b506100ee600435610381565b60408051600160a060020a039092168252519081900360200190f35b34801561011657600080fd5b506100d4600160a060020a03600435166103a9565b34801561013757600080fd5b506100d46104d9565b34801561014c57600080fd5b506100ee610545565b34801561016157600080fd5b506100d4600160a060020a0360043516602435610554565b34801561018557600080fd5b506100d4600160a060020a0360043581169060243590604435811690606435166106b7565b3480156101b657600080fd5b506101cb600160a060020a03600435166108f0565b604080519115158252519081900360200190f35b3480156101eb57600080fd5b506101f4610905565b60408051602080825283518183015283519192839290830191858101910280838360005b83811015610230578181015183820152602001610218565b505050509050019250505060405180910390f35b34801561025057600080fd5b50610259610968565b60408051918252519081900360200190f35b34801561027757600080fd5b506100d4600160a060020a036004351661096e565b600054600160a060020a031633146102a357600080fd5b60015442106102b157600080fd5b600160a060020a03811660009081526002602052604090205460ff16156102d757600080fd5b600160a060020a0381166000818152600260209081526040808320805460ff191660019081179091556003805491820181559093527fc2575a0e9e593c00f959f8c92f12db2869c3395a3b0502d05e2516446f71f85b909201805473ffffffffffffffffffffffffffffffffffffffff191684179055815133815291517f8918da6429714f0e9c40ae7f270773e27fc8caf7a256e19807f859563b7514de9281900390910190a250565b600380548290811061038f57fe5b600091825260209091200154600160a060020a0316905081565b600054600160a060020a031633146103c057600080fd5b60015442106103ce57600080fd5b600160a060020a03811660009081526002602052604090205460ff1615156103f557600080fd5b600160a060020a038116600090815260026020908152604091829020805460ff19169055600380548351818402810184019094528084526104829385939092919083018282801561046f57602002820191906000526020600020905b8154600160a060020a03168152600190910190602001808311610451575b505050505061099190919063ffffffff16565b805161049691600391602090910190610bdc565b50604080513381529051600160a060020a038316917f1f32c1b084e2de0713b8fb16bd46bb9df710a3dbeae2f3ca93af46e016dcc6b0919081900360200190a250565b600054600160a060020a031633146104f057600080fd5b60008054604051600160a060020a03909116917ff8df31144d9c2f0f6b59d69b8b98abd5459d07f2742c4df920b25aae33c6482091a26000805473ffffffffffffffffffffffffffffffffffffffff19169055565b600054600160a060020a031681565b600054600160a060020a0316331461056b57600080fd5b600154421061057957600080fd5b600354811061058757600080fd5b81600160a060020a03166003828154811015156105a057fe5b600091825260209091200154600160a060020a0316146105bf57600080fd5b600160a060020a0382166000908152600260205260409020805460ff19169055600380546105f490600163ffffffff6109c716565b815481106105fe57fe5b60009182526020909120015460038054600160a060020a03909216918390811061062457fe5b6000918252602090912001805473ffffffffffffffffffffffffffffffffffffffff1916600160a060020a03929092169190911790556003546106689060016109c7565b610673600382610c4e565b50604080513381529051600160a060020a038416917f1f32c1b084e2de0713b8fb16bd46bb9df710a3dbeae2f3ca93af46e016dcc6b0919081900360200190a25050565b33600090815260026020526040812054819060ff1615156106d757600080fd5b604080517ff7888aec000000000000000000000000000000000000000000000000000000008152600160a060020a03808916600483015285166024820152905173__ERC20Wrapper__________________________9163f7888aec916044808301926020929190829003018186803b15801561075257600080fd5b505af4158015610766573d6000803e3d6000fd5b505050506040513d602081101561077c57600080fd5b5051604080517f15dacbea000000000000000000000000000000000000000000000000000000008152600160a060020a03808a16600483015280881660248301528616604482015260648101889052905191935073__ERC20Wrapper__________________________916315dacbea91608480820192600092909190829003018186803b15801561080c57600080fd5b505af4158015610820573d6000803e3d6000fd5b5050604080517ff7888aec000000000000000000000000000000000000000000000000000000008152600160a060020a03808b16600483015287166024820152905173__ERC20Wrapper__________________________935063f7888aec92506044808301926020929190829003018186803b15801561089f57600080fd5b505af41580156108b3573d6000803e3d6000fd5b505050506040513d60208110156108c957600080fd5b505190506108dd828663ffffffff6109d916565b81146108e857600080fd5b505050505050565b60026020526000908152604090205460ff1681565b6060600380548060200260200160405190810160405280929190818152602001828054801561095d57602002820191906000526020600020905b8154600160a060020a0316815260019091019060200180831161093f575b505050505090505b90565b60015481565b600054600160a060020a0316331461098557600080fd5b61098e816109ec565b50565b606060008060606109a28686610a69565b925092508115156109b257600080fd5b6109bc8684610ad0565b509695505050505050565b6000828211156109d357fe5b50900390565b818101828110156109e657fe5b92915050565b600160a060020a0381161515610a0157600080fd5b60008054604051600160a060020a03808516939216917f8be0079c531659141344cd1fd0a4f28419497f9722a3daafe3b4186f6b6457e091a36000805473ffffffffffffffffffffffffffffffffffffffff1916600160a060020a0392909216919091179055565b81516000908190815b81811015610abf5784600160a060020a03168682815181101515610a9257fe5b90602001906020020151600160a060020a03161415610ab75780600193509350610ac7565b600101610a72565b600093508392505b50509250929050565b6060600080606060008651925060018303604051908082528060200260200182016040528015610b0a578160200160208202803883390190505b509150600090505b85811015610b5f578681815181101515610b2857fe5b906020019060200201518282815181101515610b4057fe5b600160a060020a03909216602092830290910190910152600101610b12565b50600185015b82811015610bb5578681815181101515610b7b57fe5b906020019060200201518260018303815181101515610b9657fe5b600160a060020a03909216602092830290910190910152600101610b65565b818787815181101515610bc457fe5b90602001906020020151945094505050509250929050565b828054828255906000526020600020908101928215610c3e579160200282015b82811115610c3e578251825473ffffffffffffffffffffffffffffffffffffffff1916600160a060020a03909116178255602090920191600190910190610bfc565b50610c4a929150610c77565b5090565b815481835581811115610c7257600083815260209020610c72918101908301610ca8565b505050565b61096591905b80821115610c4a57805473ffffffffffffffffffffffffffffffffffffffff19168155600101610c7d565b61096591905b80821115610c4a5760008155600101610cae5600a165627a7a723058201ca0a2d31cbe32b1c549ba2821f8d6fd2c1c14c2e2a53975361f412b784167fa0029",
  "source": "/*\n    Copyright 2018 Set Labs Inc.\n\n    Licensed under the Apache License, Version 2.0 (the \"License\");\n    you may not use this file except in compliance with the License.\n    You may obtain a copy of the License at\n\n    http://www.apache.org/licenses/LICENSE-2.0\n\n    Unless required by applicable law or agreed to in writing, software\n    distributed under the License is distributed on an \"AS IS\" BASIS,\n    WITHOUT WARRANTIES OR CONDITIONS OF ANY KIND, either express or implied.\n    See the License for the specific language governing permissions and\n    limitations under the License.\n*/\n\npragma solidity 0.4.24;\n\nimport { SafeMath } from \"zeppelin-solidity/contracts/math/SafeMath.sol\";\nimport { Authorizable } from \"../lib/Authorizable.sol\";\nimport { ERC20Wrapper } from \"../lib/ERC20Wrapper.sol\";\n\n\n/**\n * @title TransferProxy\n * @author Set Protocol\n *\n * The transferProxy contract is responsible for moving tokens through the system to\n * assist with issuance and filling issuance orders.\n */\n\ncontract TransferProxy is\n    Authorizable\n{\n    using SafeMath for uint256;\n\n    /* ============ Constructor ============ */\n    \n    constructor()\n        Authorizable(2592000) // About 4 weeks\n    {}\n\n    /* ============ External Functions ============ */\n\n    /**\n     * Transfers tokens from an address (that has set allowance on the proxy).\n     * Can only be called by authorized core contracts.\n     *\n     * @param  _token          The address of the ERC20 token\n     * @param  _quantity       The number of tokens to transfer\n     * @param  _from           The address to transfer from\n     * @param  _to             The address to transfer to\n     */\n    function transfer(\n        address _token,\n        uint256 _quantity,\n        address _from,\n        address _to\n    )\n        external\n        onlyAuthorized\n    {\n        // Retrieve current balance of token for the receiver\n        uint256 existingBalance = ERC20Wrapper.balanceOf(\n            _token,\n            _to\n        );\n\n        // Call specified ERC20 contract to transfer tokens (via proxy).\n        ERC20Wrapper.transferFrom(\n            _token,\n            _from,\n            _to,\n            _quantity\n        );\n\n        // Get new balance of transferred token for receiver\n        uint256 newBalance = ERC20Wrapper.balanceOf(\n            _token,\n            _to\n        );\n\n        // Verify transfer quantity is reflected in balance\n        require(newBalance == existingBalance.add(_quantity));\n    }\n}\n",
  "sourcePath": "/Users/justinkchen/workspace/set-protocol-contracts/contracts/core/TransferProxy.sol",
  "compiler": {
    "name": "solc",
    "version": "0.4.24+commit.e67f0147.Emscripten.clang"
  },
  "schemaVersion": "2.0.0",
  "updatedAt": "2018-08-25T17:34:40.939Z"
}