{
  "contractName": "TransferProxy",
  "abi": [
    {
      "constant": false,
      "inputs": [
        {
          "name": "_authTarget",
          "type": "address"
        }
      ],
      "name": "addAuthorizedAddress",
      "outputs": [],
      "payable": false,
      "stateMutability": "nonpayable",
      "type": "function"
    },
    {
      "constant": true,
      "inputs": [
        {
          "name": "",
          "type": "uint256"
        }
      ],
      "name": "authorities",
      "outputs": [
        {
          "name": "",
          "type": "address"
        }
      ],
      "payable": false,
      "stateMutability": "view",
      "type": "function"
    },
    {
      "constant": false,
      "inputs": [
        {
          "name": "_authTarget",
          "type": "address"
        }
      ],
      "name": "removeAuthorizedAddress",
      "outputs": [],
      "payable": false,
      "stateMutability": "nonpayable",
      "type": "function"
    },
    {
      "constant": false,
      "inputs": [],
      "name": "renounceOwnership",
      "outputs": [],
      "payable": false,
      "stateMutability": "nonpayable",
      "type": "function"
    },
    {
      "constant": true,
      "inputs": [],
      "name": "owner",
      "outputs": [
        {
          "name": "",
          "type": "address"
        }
      ],
      "payable": false,
      "stateMutability": "view",
      "type": "function"
    },
    {
      "constant": false,
      "inputs": [
        {
          "name": "_authTarget",
          "type": "address"
        },
        {
          "name": "_index",
          "type": "uint256"
        }
      ],
      "name": "removeAuthorizedAddressAtIndex",
      "outputs": [],
      "payable": false,
      "stateMutability": "nonpayable",
      "type": "function"
    },
    {
      "constant": true,
      "inputs": [
        {
          "name": "",
          "type": "address"
        }
      ],
      "name": "authorized",
      "outputs": [
        {
          "name": "",
          "type": "bool"
        }
      ],
      "payable": false,
      "stateMutability": "view",
      "type": "function"
    },
    {
      "constant": true,
      "inputs": [],
      "name": "getAuthorizedAddresses",
      "outputs": [
        {
          "name": "",
          "type": "address[]"
        }
      ],
      "payable": false,
      "stateMutability": "view",
      "type": "function"
    },
    {
      "constant": false,
      "inputs": [
        {
          "name": "_newOwner",
          "type": "address"
        }
      ],
      "name": "transferOwnership",
      "outputs": [],
      "payable": false,
      "stateMutability": "nonpayable",
      "type": "function"
    },
    {
      "anonymous": false,
      "inputs": [
        {
          "indexed": true,
          "name": "authAddress",
          "type": "address"
        },
        {
          "indexed": false,
          "name": "authorizedBy",
          "type": "address"
        }
      ],
      "name": "AddressAuthorized",
      "type": "event"
    },
    {
      "anonymous": false,
      "inputs": [
        {
          "indexed": true,
          "name": "addressRemoved",
          "type": "address"
        },
        {
          "indexed": false,
          "name": "authorizedBy",
          "type": "address"
        }
      ],
      "name": "AuthorizedAddressRemoved",
      "type": "event"
    },
    {
      "anonymous": false,
      "inputs": [
        {
          "indexed": true,
          "name": "previousOwner",
          "type": "address"
        }
      ],
      "name": "OwnershipRenounced",
      "type": "event"
    },
    {
      "anonymous": false,
      "inputs": [
        {
          "indexed": true,
          "name": "previousOwner",
          "type": "address"
        },
        {
          "indexed": true,
          "name": "newOwner",
          "type": "address"
        }
      ],
      "name": "OwnershipTransferred",
      "type": "event"
    },
    {
      "constant": false,
      "inputs": [
        {
          "name": "_token",
          "type": "address"
        },
        {
          "name": "_quantity",
          "type": "uint256"
        },
        {
          "name": "_from",
          "type": "address"
        },
        {
          "name": "_to",
          "type": "address"
        }
      ],
      "name": "transfer",
      "outputs": [],
      "payable": false,
      "stateMutability": "nonpayable",
      "type": "function"
    }
  ],
  "bytecode": "0x608060405260008054600160a060020a03191633179055610de8806100256000396000f3006080604052600436106100a35763ffffffff7c010000000000000000000000000000000000000000000000000000000060003504166342f1181e81146100a8578063494503d4146100cb57806370712939146100ff578063715018a6146101205780638da5cb5b146101355780639ad267441461014a578063a6c4e4671461016e578063b91816111461019f578063d39de6e9146101d4578063f2fde38b14610239575b600080fd5b3480156100b457600080fd5b506100c9600160a060020a036004351661025a565b005b3480156100d757600080fd5b506100e3600435610421565b60408051600160a060020a039092168252519081900360200190f35b34801561010b57600080fd5b506100c9600160a060020a0360043516610449565b34801561012c57600080fd5b506100c9610662565b34801561014157600080fd5b506100e36106ce565b34801561015657600080fd5b506100c9600160a060020a03600435166024356106dd565b34801561017a57600080fd5b506100c9600160a060020a03600435811690602435906044358116906064351661096a565b3480156101ab57600080fd5b506101c0600160a060020a0360043516610c4a565b604080519115158252519081900360200190f35b3480156101e057600080fd5b506101e9610c5f565b60408051602080825283518183015283519192839290830191858101910280838360005b8381101561022557818101518382015260200161020d565b505050509050019250505060405180910390f35b34801561024557600080fd5b506100c9600160a060020a0360043516610cc2565b600054600160a060020a0316331461027157600080fd5b600160a060020a038116600090815260016020908152604091829020548251606081018452602681527f546172676574206d757374206e6f7420616c726561647920626520617574686f928101929092527f72697a65642e0000000000000000000000000000000000000000000000000000928201929092529060ff161561037a5760405160e560020a62461bcd0281526004018080602001828103825283818151815260200191508051906020019080838360005b8381101561033f578181015183820152602001610327565b50505050905090810190601f16801561036c5780820380516001836020036101000a031916815260200191505b509250505060405180910390fd5b50600160a060020a0381166000818152600160208181526040808420805460ff1916841790556002805493840181559093527f405787fa12a823e0f2b7631cc41b3ba8828b3321ca811111fa75cd3aa3bb5ace909101805473ffffffffffffffffffffffffffffffffffffffff191684179055815133815291517f8918da6429714f0e9c40ae7f270773e27fc8caf7a256e19807f859563b7514de9281900390910190a250565b600280548290811061042f57fe5b600091825260209091200154600160a060020a0316905081565b60008054600160a060020a0316331461046157600080fd5b600160a060020a038216600090815260016020908152604091829020548251606081018452602281527f5461726765742061646472657373206d75737420626520617574686f72697a65928101929092527f642e000000000000000000000000000000000000000000000000000000000000928201929092529060ff16151561052f5760405160e560020a62461bcd0281526004018080602001828103825283818151815260200191508051906020019080838360008381101561033f578181015183820152602001610327565b5050600160a060020a0381166000908152600160205260408120805460ff191690555b60025481101561065e5781600160a060020a031660028281548110151561057557fe5b600091825260209091200154600160a060020a03161415610656576002805460001981019081106105a257fe5b60009182526020909120015460028054600160a060020a0390921691839081106105c857fe5b6000918252602090912001805473ffffffffffffffffffffffffffffffffffffffff1916600160a060020a03929092169190911790556002805460001901906106119082610d75565b50604080513381529051600160a060020a038416917f1f32c1b084e2de0713b8fb16bd46bb9df710a3dbeae2f3ca93af46e016dcc6b0919081900360200190a261065e565b600101610552565b5050565b600054600160a060020a0316331461067957600080fd5b60008054604051600160a060020a03909116917ff8df31144d9c2f0f6b59d69b8b98abd5459d07f2742c4df920b25aae33c6482091a26000805473ffffffffffffffffffffffffffffffffffffffff19169055565b600054600160a060020a031681565b600054600160a060020a031633146106f457600080fd5b60025460408051606081018252602781527f53706563696669656420617272617920696e646578206973206f7574206f662060208201527f626f756e64732e00000000000000000000000000000000000000000000000000918101919091529082106107a55760405160e560020a62461bcd0281526004018080602001828103825283818151815260200191508051906020019080838360008381101561033f578181015183820152602001610327565b5081600160a060020a03166002828154811015156107bf57fe5b6000918252602091829020015460408051606081018252602d81527f4164647265737320666f756e6420617420696e64657820646f6573206e6f7420938101939093527f6d61746368207461726765742e00000000000000000000000000000000000000908301529091600160a060020a03909116146108845760405160e560020a62461bcd0281526004018080602001828103825283818151815260200191508051906020019080838360008381101561033f578181015183820152602001610327565b50600160a060020a0382166000908152600160205260409020805460ff191690556002805460001981019081106108b757fe5b60009182526020909120015460028054600160a060020a0390921691839081106108dd57fe5b6000918252602090912001805473ffffffffffffffffffffffffffffffffffffffff1916600160a060020a03929092169190911790556002805460001901906109269082610d75565b50604080513381529051600160a060020a038416917f1f32c1b084e2de0713b8fb16bd46bb9df710a3dbeae2f3ca93af46e016dcc6b0919081900360200190a25050565b336000908152600160209081526040808320548151606081018352602a81527f53656e646572206e6f7420617574686f72697a656420746f2063616c6c207468938101939093527f6973206d6574686f642e000000000000000000000000000000000000000000009183019190915282919060ff161515610a305760405160e560020a62461bcd0281526004018080602001828103825283818151815260200191508051906020019080838360008381101561033f578181015183820152602001610327565b50604080517ff7888aec000000000000000000000000000000000000000000000000000000008152600160a060020a03808916600483015285166024820152905173__ERC20Wrapper__________________________9163f7888aec916044808301926020929190829003018186803b158015610aac57600080fd5b505af4158015610ac0573d6000803e3d6000fd5b505050506040513d6020811015610ad657600080fd5b5051604080517f15dacbea000000000000000000000000000000000000000000000000000000008152600160a060020a03808a16600483015280881660248301528616604482015260648101889052905191935073__ERC20Wrapper__________________________916315dacbea91608480820192600092909190829003018186803b158015610b6657600080fd5b505af4158015610b7a573d6000803e3d6000fd5b5050604080517ff7888aec000000000000000000000000000000000000000000000000000000008152600160a060020a03808b16600483015287166024820152905173__ERC20Wrapper__________________________935063f7888aec92506044808301926020929190829003018186803b158015610bf957600080fd5b505af4158015610c0d573d6000803e3d6000fd5b505050506040513d6020811015610c2357600080fd5b50519050610c37828663ffffffff610ce516565b8114610c4257600080fd5b505050505050565b60016020526000908152604090205460ff1681565b60606002805480602002602001604051908101604052809291908181526020018280548015610cb757602002820191906000526020600020905b8154600160a060020a03168152600190910190602001808311610c99575b505050505090505b90565b600054600160a060020a03163314610cd957600080fd5b610ce281610cf8565b50565b81810182811015610cf257fe5b92915050565b600160a060020a0381161515610d0d57600080fd5b60008054604051600160a060020a03808516939216917f8be0079c531659141344cd1fd0a4f28419497f9722a3daafe3b4186f6b6457e091a36000805473ffffffffffffffffffffffffffffffffffffffff1916600160a060020a0392909216919091179055565b815481835581811115610d9957600083815260209020610d99918101908301610d9e565b505050565b610cbf91905b80821115610db85760008155600101610da4565b50905600a165627a7a7230582066ed975013cf87fdf670565d3070b1fadd33c1c9b80ea740bf8c21e2e14036c10029",
  "source": "/*\n    Copyright 2018 Set Labs Inc.\n\n    Licensed under the Apache License, Version 2.0 (the \"License\");\n    you may not use this file except in compliance with the License.\n    You may obtain a copy of the License at\n\n    http://www.apache.org/licenses/LICENSE-2.0\n\n    Unless required by applicable law or agreed to in writing, software\n    distributed under the License is distributed on an \"AS IS\" BASIS,\n    WITHOUT WARRANTIES OR CONDITIONS OF ANY KIND, either express or implied.\n    See the License for the specific language governing permissions and\n    limitations under the License.\n*/\n\npragma solidity 0.4.24;\n\nimport { SafeMath } from \"zeppelin-solidity/contracts/math/SafeMath.sol\";\nimport { Authorizable } from \"../lib/Authorizable.sol\";\nimport { ERC20Wrapper } from \"../lib/ERC20Wrapper.sol\";\n\n\n/**\n * @title TransferProxy\n * @author Set Protocol\n *\n * The transferProxy contract is responsible for moving tokens through the system to\n * assist with issuance and filling issuance orders.\n */\n\ncontract TransferProxy is\n    Authorizable\n{\n    using SafeMath for uint256;\n\n    /* ============ External Functions ============ */\n\n    /**\n     * Transfers tokens from an address (that has set allowance on the proxy).\n     * Can only be called by authorized core contracts.\n     *\n     * @param  _token          The address of the ERC20 token\n     * @param  _quantity       The number of tokens to transfer\n     * @param  _from           The address to transfer from\n     * @param  _to             The address to transfer to\n     */\n    function transfer(\n        address _token,\n        uint256 _quantity,\n        address _from,\n        address _to\n    )\n        external\n        onlyAuthorized\n    {\n        // Retrieve current balance of token for the receiver\n        uint256 existingBalance = ERC20Wrapper.balanceOf(\n            _token,\n            _to\n        );\n\n        // Call specified ERC20 contract to transfer tokens (via proxy).\n        ERC20Wrapper.transferFrom(\n            _token,\n            _from,\n            _to,\n            _quantity\n        );\n\n        // Get new balance of transferred token for receiver\n        uint256 newBalance = ERC20Wrapper.balanceOf(\n            _token,\n            _to\n        );\n\n        // Verify transfer quantity is reflected in balance\n        require(newBalance == existingBalance.add(_quantity));\n    }\n}\n",
  "sourcePath": "/Users/justinkchen/workspace/set-protocol-contracts/contracts/core/TransferProxy.sol",
  "compiler": {
    "name": "solc",
    "version": "0.4.24+commit.e67f0147.Emscripten.clang"
  },
  "schemaVersion": "2.0.0",
  "updatedAt": "2018-08-10T03:42:05.680Z"
}