{
  "contractName": "Vault",
  "abi": [
    {
      "constant": false,
      "inputs": [
        {
          "name": "_authTarget",
          "type": "address"
        }
      ],
      "name": "addAuthorizedAddress",
      "outputs": [],
      "payable": false,
      "stateMutability": "nonpayable",
      "type": "function"
    },
    {
      "constant": true,
      "inputs": [
        {
          "name": "",
          "type": "uint256"
        }
      ],
      "name": "authorities",
      "outputs": [
        {
          "name": "",
          "type": "address"
        }
      ],
      "payable": false,
      "stateMutability": "view",
      "type": "function"
    },
    {
      "constant": false,
      "inputs": [
        {
          "name": "_authTarget",
          "type": "address"
        }
      ],
      "name": "removeAuthorizedAddress",
      "outputs": [],
      "payable": false,
      "stateMutability": "nonpayable",
      "type": "function"
    },
    {
      "constant": false,
      "inputs": [],
      "name": "renounceOwnership",
      "outputs": [],
      "payable": false,
      "stateMutability": "nonpayable",
      "type": "function"
    },
    {
      "constant": true,
      "inputs": [],
      "name": "owner",
      "outputs": [
        {
          "name": "",
          "type": "address"
        }
      ],
      "payable": false,
      "stateMutability": "view",
      "type": "function"
    },
    {
      "constant": false,
      "inputs": [
        {
          "name": "_authTarget",
          "type": "address"
        },
        {
          "name": "_index",
          "type": "uint256"
        }
      ],
      "name": "removeAuthorizedAddressAtIndex",
      "outputs": [],
      "payable": false,
      "stateMutability": "nonpayable",
      "type": "function"
    },
    {
      "constant": true,
      "inputs": [
        {
          "name": "",
          "type": "address"
        }
      ],
      "name": "authorized",
      "outputs": [
        {
          "name": "",
          "type": "bool"
        }
      ],
      "payable": false,
      "stateMutability": "view",
      "type": "function"
    },
    {
      "constant": true,
      "inputs": [
        {
          "name": "",
          "type": "address"
        },
        {
          "name": "",
          "type": "address"
        }
      ],
      "name": "balances",
      "outputs": [
        {
          "name": "",
          "type": "uint256"
        }
      ],
      "payable": false,
      "stateMutability": "view",
      "type": "function"
    },
    {
      "constant": true,
      "inputs": [],
      "name": "getAuthorizedAddresses",
      "outputs": [
        {
          "name": "",
          "type": "address[]"
        }
      ],
      "payable": false,
      "stateMutability": "view",
      "type": "function"
    },
    {
      "constant": false,
      "inputs": [
        {
          "name": "_newOwner",
          "type": "address"
        }
      ],
      "name": "transferOwnership",
      "outputs": [],
      "payable": false,
      "stateMutability": "nonpayable",
      "type": "function"
    },
    {
      "anonymous": false,
      "inputs": [
        {
          "indexed": true,
          "name": "authAddress",
          "type": "address"
        },
        {
          "indexed": false,
          "name": "authorizedBy",
          "type": "address"
        }
      ],
      "name": "AddressAuthorized",
      "type": "event"
    },
    {
      "anonymous": false,
      "inputs": [
        {
          "indexed": true,
          "name": "addressRemoved",
          "type": "address"
        },
        {
          "indexed": false,
          "name": "authorizedBy",
          "type": "address"
        }
      ],
      "name": "AuthorizedAddressRemoved",
      "type": "event"
    },
    {
      "anonymous": false,
      "inputs": [
        {
          "indexed": true,
          "name": "previousOwner",
          "type": "address"
        }
      ],
      "name": "OwnershipRenounced",
      "type": "event"
    },
    {
      "anonymous": false,
      "inputs": [
        {
          "indexed": true,
          "name": "previousOwner",
          "type": "address"
        },
        {
          "indexed": true,
          "name": "newOwner",
          "type": "address"
        }
      ],
      "name": "OwnershipTransferred",
      "type": "event"
    },
    {
      "constant": false,
      "inputs": [
        {
          "name": "_token",
          "type": "address"
        },
        {
          "name": "_to",
          "type": "address"
        },
        {
          "name": "_quantity",
          "type": "uint256"
        }
      ],
      "name": "withdrawTo",
      "outputs": [],
      "payable": false,
      "stateMutability": "nonpayable",
      "type": "function"
    },
    {
      "constant": false,
      "inputs": [
        {
          "name": "_owner",
          "type": "address"
        },
        {
          "name": "_token",
          "type": "address"
        },
        {
          "name": "_quantity",
          "type": "uint256"
        }
      ],
      "name": "incrementTokenOwner",
      "outputs": [],
      "payable": false,
      "stateMutability": "nonpayable",
      "type": "function"
    },
    {
      "constant": false,
      "inputs": [
        {
          "name": "_owner",
          "type": "address"
        },
        {
          "name": "_token",
          "type": "address"
        },
        {
          "name": "_quantity",
          "type": "uint256"
        }
      ],
      "name": "decrementTokenOwner",
      "outputs": [],
      "payable": false,
      "stateMutability": "nonpayable",
      "type": "function"
    },
    {
      "constant": false,
      "inputs": [
        {
          "name": "_to",
          "type": "address"
        },
        {
          "name": "_from",
          "type": "address"
        },
        {
          "name": "_token",
          "type": "address"
        },
        {
          "name": "_quantity",
          "type": "uint256"
        }
      ],
      "name": "transferBalance",
      "outputs": [],
      "payable": false,
      "stateMutability": "nonpayable",
      "type": "function"
    },
    {
      "constant": true,
      "inputs": [
        {
          "name": "_owner",
          "type": "address"
        },
        {
          "name": "_token",
          "type": "address"
        }
      ],
      "name": "getOwnerBalance",
      "outputs": [
        {
          "name": "",
          "type": "uint256"
        }
      ],
      "payable": false,
      "stateMutability": "view",
      "type": "function"
    }
  ],
  "bytecode": "0x608060405260008054600160a060020a03191633179055610def806100256000396000f3006080604052600436106100da5763ffffffff7c01000000000000000000000000000000000000000000000000000000006000350416631f98ade381146100df57806342f1181e14610118578063494503d41461013b578063707129391461016f578063715018a61461019057806380ddda30146101a55780638da5cb5b146101cf5780639ad26744146101e4578063b19ad57714610208578063b918161114610238578063bada57261461026d578063c23f001f14610297578063c3b35a7e146102be578063d39de6e9146102e8578063f2fde38b1461034d575b600080fd5b3480156100eb57600080fd5b50610106600160a060020a036004358116906024351661036e565b60408051918252519081900360200190f35b34801561012457600080fd5b50610139600160a060020a036004351661039a565b005b34801561014757600080fd5b5061015360043561047d565b60408051600160a060020a039092168252519081900360200190f35b34801561017b57600080fd5b50610139600160a060020a03600435166104a5565b34801561019c57600080fd5b50610139610629565b3480156101b157600080fd5b50610139600160a060020a0360043581169060243516604435610695565b3480156101db57600080fd5b50610153610749565b3480156101f057600080fd5b50610139600160a060020a0360043516602435610758565b34801561021457600080fd5b50610139600160a060020a03600435811690602435811690604435166064356108b1565b34801561024457600080fd5b50610259600160a060020a03600435166109a2565b604080519115158252519081900360200190f35b34801561027957600080fd5b50610139600160a060020a03600435811690602435166044356109b7565b3480156102a357600080fd5b50610106600160a060020a0360043581169060243516610a0b565b3480156102ca57600080fd5b50610139600160a060020a0360043581169060243516604435610a28565b3480156102f457600080fd5b506102fd610c54565b60408051602080825283518183015283519192839290830191858101910280838360005b83811015610339578181015183820152602001610321565b505050509050019250505060405180910390f35b34801561035957600080fd5b50610139600160a060020a0360043516610cb7565b600160a060020a0380821660009081526003602090815260408083209386168352929052205492915050565b600054600160a060020a031633146103b157600080fd5b600160a060020a03811660009081526001602052604090205460ff16156103d757600080fd5b600160a060020a0381166000818152600160208181526040808420805460ff1916841790556002805493840181559093527f405787fa12a823e0f2b7631cc41b3ba8828b3321ca811111fa75cd3aa3bb5ace909101805473ffffffffffffffffffffffffffffffffffffffff191684179055815133815291517f8918da6429714f0e9c40ae7f270773e27fc8caf7a256e19807f859563b7514de9281900390910190a250565b600280548290811061048b57fe5b600091825260209091200154600160a060020a0316905081565b60008054600160a060020a031633146104bd57600080fd5b600160a060020a03821660009081526001602052604090205460ff1615156104e457600080fd5b50600160a060020a0381166000908152600160205260408120805460ff191690555b6002548110156106255781600160a060020a031660028281548110151561052957fe5b600091825260209091200154600160a060020a0316141561061d576002805461055990600163ffffffff610cda16565b8154811061056357fe5b60009182526020909120015460028054600160a060020a03909216918390811061058957fe5b6000918252602090912001805473ffffffffffffffffffffffffffffffffffffffff1916600160a060020a03929092169190911790556002546105cd906001610cda565b6105d8600282610d7c565b50604080513381529051600160a060020a038416917f1f32c1b084e2de0713b8fb16bd46bb9df710a3dbeae2f3ca93af46e016dcc6b0919081900360200190a2610625565b600101610506565b5050565b600054600160a060020a0316331461064057600080fd5b60008054604051600160a060020a03909116917ff8df31144d9c2f0f6b59d69b8b98abd5459d07f2742c4df920b25aae33c6482091a26000805473ffffffffffffffffffffffffffffffffffffffff19169055565b3360009081526001602052604090205460ff1615156106b357600080fd5b600160a060020a038083166000908152600360209081526040808320938716835292905220548111156106e557600080fd5b600160a060020a0380831660009081526003602090815260408083209387168352929052205461071b908263ffffffff610cda16565b600160a060020a03928316600090815260036020908152604080832096909516825294909452919092205550565b600054600160a060020a031681565b600054600160a060020a0316331461076f57600080fd5b600254811061077d57600080fd5b81600160a060020a031660028281548110151561079657fe5b600091825260209091200154600160a060020a0316146107b557600080fd5b600160a060020a0382166000908152600160208190526040909120805460ff191690556002805490916107ee919063ffffffff610cda16565b815481106107f857fe5b60009182526020909120015460028054600160a060020a03909216918390811061081e57fe5b6000918252602090912001805473ffffffffffffffffffffffffffffffffffffffff1916600160a060020a0392909216919091179055600254610862906001610cda565b61086d600282610d7c565b50604080513381529051600160a060020a038416917f1f32c1b084e2de0713b8fb16bd46bb9df710a3dbeae2f3ca93af46e016dcc6b0919081900360200190a25050565b3360009081526001602052604090205460ff1615156108cf57600080fd5b600160a060020a0380831660009081526003602090815260408083209387168352929052205481111561090157600080fd5b600160a060020a03808316600090815260036020908152604080832093871683529290522054610937908263ffffffff610cda16565b600160a060020a038381166000908152600360209081526040808320888516845290915280822093909355908616815220546109739082610cec565b600160a060020a0392831660009081526003602090815260408083209790951682529590955291909320555050565b60016020526000908152604090205460ff1681565b3360009081526001602052604090205460ff1615156109d557600080fd5b600160a060020a0380831660009081526003602090815260408083209387168352929052205461071b908263ffffffff610cec16565b600360209081526000928352604080842090915290825290205481565b33600090815260016020526040812054819060ff161515610a4857600080fd5b604080517ff7888aec000000000000000000000000000000000000000000000000000000008152600160a060020a0387166004820152306024820152905173__ERC20Wrapper__________________________9163f7888aec916044808301926020929190829003018186803b158015610ac157600080fd5b505af4158015610ad5573d6000803e3d6000fd5b505050506040513d6020811015610aeb57600080fd5b5051604080517fbeabacc8000000000000000000000000000000000000000000000000000000008152600160a060020a0380891660048301528716602482015260448101869052905191935073__ERC20Wrapper__________________________9163beabacc891606480820192600092909190829003018186803b158015610b7357600080fd5b505af4158015610b87573d6000803e3d6000fd5b5050604080517ff7888aec000000000000000000000000000000000000000000000000000000008152600160a060020a0389166004820152306024820152905173__ERC20Wrapper__________________________935063f7888aec92506044808301926020929190829003018186803b158015610c0457600080fd5b505af4158015610c18573d6000803e3d6000fd5b505050506040513d6020811015610c2e57600080fd5b50519050610c42828463ffffffff610cda16565b8114610c4d57600080fd5b5050505050565b60606002805480602002602001604051908101604052809291908181526020018280548015610cac57602002820191906000526020600020905b8154600160a060020a03168152600190910190602001808311610c8e575b505050505090505b90565b600054600160a060020a03163314610cce57600080fd5b610cd781610cff565b50565b600082821115610ce657fe5b50900390565b81810182811015610cf957fe5b92915050565b600160a060020a0381161515610d1457600080fd5b60008054604051600160a060020a03808516939216917f8be0079c531659141344cd1fd0a4f28419497f9722a3daafe3b4186f6b6457e091a36000805473ffffffffffffffffffffffffffffffffffffffff1916600160a060020a0392909216919091179055565b815481835581811115610da057600083815260209020610da0918101908301610da5565b505050565b610cb491905b80821115610dbf5760008155600101610dab565b50905600a165627a7a72305820d3265adb63083ac8826b078a2eb7a8b61d6102405d3fe4651d5d46de692885890029",
  "source": "/*\n    Copyright 2018 Set Labs Inc.\n\n    Licensed under the Apache License, Version 2.0 (the \"License\");\n    you may not use this file except in compliance with the License.\n    You may obtain a copy of the License at\n\n    http://www.apache.org/licenses/LICENSE-2.0\n\n    Unless required by applicable law or agreed to in writing, software\n    distributed under the License is distributed on an \"AS IS\" BASIS,\n    WITHOUT WARRANTIES OR CONDITIONS OF ANY KIND, either express or implied.\n    See the License for the specific language governing permissions and\n    limitations under the License.\n*/\n\npragma solidity 0.4.24;\n\n\nimport { SafeMath } from \"zeppelin-solidity/contracts/math/SafeMath.sol\";\nimport { Authorizable } from \"../lib/Authorizable.sol\";\nimport { ERC20Wrapper } from \"../lib/ERC20Wrapper.sol\";\n\n\n/**\n * @title Vault\n * @author Set Protocol\n *\n * The vault contract is responsible for holding all funds and keeping track of the\n * fund state and which Sets own which funds.\n *\n */\n\ncontract Vault is\n    Authorizable\n{\n    // Use SafeMath library for all uint256 arithmetic\n    using SafeMath for uint256;\n\n    /* ============ State Variables ============ */\n\n    // Mapping of token address to map of owner or Set address to balance.\n    // Example of mapping below:\n    // +--------------+---------------------+--------+\n    // | TokenAddress | Set OR User Address | Amount |\n    // +--------------+---------------------+--------+\n    // | TokenA       | User 0x123          |    500 |\n    // |              | User 0xABC          |    300 |\n    // |              | Set  0x456          |   1000 |\n    // | TokenB       | User 0xDEF          |    100 |\n    // |              | Set  0xSET          |    700 |\n    // +--------------+---------------------+--------+\n    mapping (address => mapping (address => uint256)) public balances;\n\n    /* ============ External Functions ============ */\n\n    /*\n     * Withdraws user's unassociated tokens to user account. Can only be\n     * called by authorized core contracts.\n     *\n     * @param  _token          The address of the ERC20 token\n     * @param  _to             The address to transfer token to\n     * @param  _quantity       The number of tokens to transfer\n     */\n    function withdrawTo(\n        address _token,\n        address _to,\n        uint256 _quantity\n    )\n        external\n        onlyAuthorized\n    {\n        // Retrieve current balance of token for the vault\n        uint256 existingVaultBalance = ERC20Wrapper.balanceOf(\n            _token,\n            this\n        );\n\n        // Call specified ERC20 token contract to transfer tokens from Vault to user\n        ERC20Wrapper.transfer(\n            _token,\n            _to,\n            _quantity\n        );\n\n        // Verify transfer quantity is reflected in balance\n        uint256 newVaultBalance = ERC20Wrapper.balanceOf(\n            _token,\n            this\n        );\n        // Check to make sure current balances are as expected\n        require(newVaultBalance == existingVaultBalance.sub(_quantity));\n    }\n\n    /*\n     * Increment quantity owned of a token for a given address. Can\n     * only be called by authorized core contracts.\n     *\n     * @param  _owner           The address of the token owner\n     * @param  _token           The address of the ERC20 token\n     * @param  _quantity        The number of tokens to attribute to owner\n     */\n    function incrementTokenOwner(\n        address _owner,\n        address _token,\n        uint256 _quantity\n    )\n        external\n        onlyAuthorized\n    {\n        // Increment balances state variable adding _quantity to user's token amount\n        balances[_token][_owner] = balances[_token][_owner].add(_quantity);\n    }\n\n    /*\n     * Decrement quantity owned of a token for a given address. Can only\n     * be called by authorized core contracts.\n     *\n     * @param  _owner           The address of the token owner\n     * @param  _token           The address of the ERC20 token\n     * @param  _quantity        The number of tokens to deattribute to owner\n     */\n    function decrementTokenOwner(\n        address _owner,\n        address _token,\n        uint256 _quantity\n    )\n        external\n        onlyAuthorized\n    {\n        // Require that user has enough unassociated tokens to withdraw tokens or issue Set\n        require(balances[_token][_owner] >= _quantity);\n\n        // Decrement balances state variable subtracting _quantity to user's token amount\n        balances[_token][_owner] = balances[_token][_owner].sub(_quantity);\n    }\n\n    /**\n     * Transfers tokens associated with one account to another account in the vault\n     *\n     * @param  _to             Address token being transferred to\n     * @param  _from           Address token being transferred from\n     * @param  _token          Address of token being transferred\n     * @param  _quantity       Amount of tokens being transferred\n     */\n\n    function transferBalance(\n        address _to,\n        address _from,\n        address _token,\n        uint256 _quantity\n    )\n        external\n        onlyAuthorized\n    {\n        // Require that user has enough unassociated tokens to withdraw tokens or issue Set\n        require(balances[_token][_from] >= _quantity);\n\n        // Decrement balances state variable subtracting _quantity to user's token amount\n        balances[_token][_from] = balances[_token][_from].sub(_quantity);\n\n        // Increment balances state variable adding _quantity to user's token amount\n        balances[_token][_to] = balances[_token][_to].add(_quantity);\n    }\n\n    /*\n     * Get balance of particular contract for owner.\n     *\n     * @param  _owner           The address of the token owner\n     * @param  _token           The address of the ERC20 token\n     */\n    function getOwnerBalance(\n        address _owner,\n        address _token\n    )\n        external\n        view\n        returns (uint256)\n    {\n        // Return owners token balance\n        return balances[_token][_owner];\n    }\n}\n",
  "sourcePath": "/Users/alexsoong/Source/set-protocol/set-protocol-contracts/contracts/core/Vault.sol",
  "compiler": {
    "name": "solc",
    "version": "0.4.24+commit.e67f0147.Emscripten.clang"
  },
  "schemaVersion": "2.0.0",
  "updatedAt": "2018-08-10T21:21:49.336Z"
}