{
  "contractName": "Vault",
  "abi": [
    {
      "constant": false,
      "inputs": [
        {
          "name": "_authTarget",
          "type": "address"
        }
      ],
      "name": "addAuthorizedAddress",
      "outputs": [],
      "payable": false,
      "stateMutability": "nonpayable",
      "type": "function"
    },
    {
      "constant": true,
      "inputs": [
        {
          "name": "",
          "type": "uint256"
        }
      ],
      "name": "authorities",
      "outputs": [
        {
          "name": "",
          "type": "address"
        }
      ],
      "payable": false,
      "stateMutability": "view",
      "type": "function"
    },
    {
      "constant": false,
      "inputs": [
        {
          "name": "_authTarget",
          "type": "address"
        }
      ],
      "name": "removeAuthorizedAddress",
      "outputs": [],
      "payable": false,
      "stateMutability": "nonpayable",
      "type": "function"
    },
    {
      "constant": false,
      "inputs": [],
      "name": "renounceOwnership",
      "outputs": [],
      "payable": false,
      "stateMutability": "nonpayable",
      "type": "function"
    },
    {
      "constant": true,
      "inputs": [],
      "name": "owner",
      "outputs": [
        {
          "name": "",
          "type": "address"
        }
      ],
      "payable": false,
      "stateMutability": "view",
      "type": "function"
    },
    {
      "constant": false,
      "inputs": [
        {
          "name": "_authTarget",
          "type": "address"
        },
        {
          "name": "_index",
          "type": "uint256"
        }
      ],
      "name": "removeAuthorizedAddressAtIndex",
      "outputs": [],
      "payable": false,
      "stateMutability": "nonpayable",
      "type": "function"
    },
    {
      "constant": true,
      "inputs": [
        {
          "name": "",
          "type": "address"
        }
      ],
      "name": "authorized",
      "outputs": [
        {
          "name": "",
          "type": "bool"
        }
      ],
      "payable": false,
      "stateMutability": "view",
      "type": "function"
    },
    {
      "constant": true,
      "inputs": [
        {
          "name": "",
          "type": "address"
        },
        {
          "name": "",
          "type": "address"
        }
      ],
      "name": "balances",
      "outputs": [
        {
          "name": "",
          "type": "uint256"
        }
      ],
      "payable": false,
      "stateMutability": "view",
      "type": "function"
    },
    {
      "constant": true,
      "inputs": [],
      "name": "getAuthorizedAddresses",
      "outputs": [
        {
          "name": "",
          "type": "address[]"
        }
      ],
      "payable": false,
      "stateMutability": "view",
      "type": "function"
    },
    {
      "constant": false,
      "inputs": [
        {
          "name": "_newOwner",
          "type": "address"
        }
      ],
      "name": "transferOwnership",
      "outputs": [],
      "payable": false,
      "stateMutability": "nonpayable",
      "type": "function"
    },
    {
      "anonymous": false,
      "inputs": [
        {
          "indexed": true,
          "name": "authAddress",
          "type": "address"
        },
        {
          "indexed": false,
          "name": "authorizedBy",
          "type": "address"
        }
      ],
      "name": "AddressAuthorized",
      "type": "event"
    },
    {
      "anonymous": false,
      "inputs": [
        {
          "indexed": true,
          "name": "addressRemoved",
          "type": "address"
        },
        {
          "indexed": false,
          "name": "authorizedBy",
          "type": "address"
        }
      ],
      "name": "AuthorizedAddressRemoved",
      "type": "event"
    },
    {
      "anonymous": false,
      "inputs": [
        {
          "indexed": true,
          "name": "previousOwner",
          "type": "address"
        }
      ],
      "name": "OwnershipRenounced",
      "type": "event"
    },
    {
      "anonymous": false,
      "inputs": [
        {
          "indexed": true,
          "name": "previousOwner",
          "type": "address"
        },
        {
          "indexed": true,
          "name": "newOwner",
          "type": "address"
        }
      ],
      "name": "OwnershipTransferred",
      "type": "event"
    },
    {
      "constant": false,
      "inputs": [
        {
          "name": "_tokenAddress",
          "type": "address"
        },
        {
          "name": "_to",
          "type": "address"
        },
        {
          "name": "_quantity",
          "type": "uint256"
        }
      ],
      "name": "withdrawTo",
      "outputs": [],
      "payable": false,
      "stateMutability": "nonpayable",
      "type": "function"
    },
    {
      "constant": false,
      "inputs": [
        {
          "name": "_owner",
          "type": "address"
        },
        {
          "name": "_tokenAddress",
          "type": "address"
        },
        {
          "name": "_quantity",
          "type": "uint256"
        }
      ],
      "name": "incrementTokenOwner",
      "outputs": [],
      "payable": false,
      "stateMutability": "nonpayable",
      "type": "function"
    },
    {
      "constant": false,
      "inputs": [
        {
          "name": "_owner",
          "type": "address"
        },
        {
          "name": "_tokenAddress",
          "type": "address"
        },
        {
          "name": "_quantity",
          "type": "uint256"
        }
      ],
      "name": "decrementTokenOwner",
      "outputs": [],
      "payable": false,
      "stateMutability": "nonpayable",
      "type": "function"
    },
    {
      "constant": true,
      "inputs": [
        {
          "name": "_owner",
          "type": "address"
        },
        {
          "name": "_tokenAddress",
          "type": "address"
        }
      ],
      "name": "getOwnerBalance",
      "outputs": [
        {
          "name": "",
          "type": "uint256"
        }
      ],
      "payable": false,
      "stateMutability": "view",
      "type": "function"
    }
  ],
  "bytecode": "0x6080604052336000806101000a81548173ffffffffffffffffffffffffffffffffffffffff021916908373ffffffffffffffffffffffffffffffffffffffff160217905550612144806100536000396000f3006080604052600436106100d0576000357c0100000000000000000000000000000000000000000000000000000000900463ffffffff1680631f98ade3146100d557806342f1181e1461014c578063494503d41461018f57806370712939146101fc578063715018a61461023f57806380ddda30146102565780638da5cb5b146102c35780639ad267441461031a578063b918161114610367578063bada5726146103c2578063c23f001f1461042f578063c3b35a7e146104a6578063d39de6e914610513578063f2fde38b1461057f575b600080fd5b3480156100e157600080fd5b50610136600480360381019080803573ffffffffffffffffffffffffffffffffffffffff169060200190929190803573ffffffffffffffffffffffffffffffffffffffff1690602001909291905050506105c2565b6040518082815260200191505060405180910390f35b34801561015857600080fd5b5061018d600480360381019080803573ffffffffffffffffffffffffffffffffffffffff169060200190929190505050610649565b005b34801561019b57600080fd5b506101ba60048036038101908080359060200190929190505050610932565b604051808273ffffffffffffffffffffffffffffffffffffffff1673ffffffffffffffffffffffffffffffffffffffff16815260200191505060405180910390f35b34801561020857600080fd5b5061023d600480360381019080803573ffffffffffffffffffffffffffffffffffffffff169060200190929190505050610970565b005b34801561024b57600080fd5b50610254610d30565b005b34801561026257600080fd5b506102c1600480360381019080803573ffffffffffffffffffffffffffffffffffffffff169060200190929190803573ffffffffffffffffffffffffffffffffffffffff16906020019092919080359060200190929190505050610e32565b005b3480156102cf57600080fd5b506102d8611230565b604051808273ffffffffffffffffffffffffffffffffffffffff1673ffffffffffffffffffffffffffffffffffffffff16815260200191505060405180910390f35b34801561032657600080fd5b50610365600480360381019080803573ffffffffffffffffffffffffffffffffffffffff16906020019092919080359060200190929190505050611255565b005b34801561037357600080fd5b506103a8600480360381019080803573ffffffffffffffffffffffffffffffffffffffff1690602001909291905050506116ab565b604051808215151515815260200191505060405180910390f35b3480156103ce57600080fd5b5061042d600480360381019080803573ffffffffffffffffffffffffffffffffffffffff169060200190929190803573ffffffffffffffffffffffffffffffffffffffff169060200190929190803590602001909291905050506116cb565b005b34801561043b57600080fd5b50610490600480360381019080803573ffffffffffffffffffffffffffffffffffffffff169060200190929190803573ffffffffffffffffffffffffffffffffffffffff169060200190929190505050611943565b6040518082815260200191505060405180910390f35b3480156104b257600080fd5b50610511600480360381019080803573ffffffffffffffffffffffffffffffffffffffff169060200190929190803573ffffffffffffffffffffffffffffffffffffffff16906020019092919080359060200190929190505050611968565b005b34801561051f57600080fd5b50610528611b92565b6040518080602001828103825283818151815260200191508051906020019060200280838360005b8381101561056b578082015181840152602081019050610550565b505050509050019250505060405180910390f35b34801561058b57600080fd5b506105c0600480360381019080803573ffffffffffffffffffffffffffffffffffffffff169060200190929190505050611c20565b005b6000600360008373ffffffffffffffffffffffffffffffffffffffff1673ffffffffffffffffffffffffffffffffffffffff16815260200190815260200160002060008473ffffffffffffffffffffffffffffffffffffffff1673ffffffffffffffffffffffffffffffffffffffff16815260200190815260200160002054905092915050565b6000809054906101000a900473ffffffffffffffffffffffffffffffffffffffff1673ffffffffffffffffffffffffffffffffffffffff163373ffffffffffffffffffffffffffffffffffffffff161415156106a457600080fd5b600160008273ffffffffffffffffffffffffffffffffffffffff1673ffffffffffffffffffffffffffffffffffffffff16815260200190815260200160002060009054906101000a900460ff1615606060405190810160405280602681526020017f546172676574206d757374206e6f7420616c726561647920626520617574686f81526020017f72697a65642e00000000000000000000000000000000000000000000000000008152509015156107f7576040517f08c379a00000000000000000000000000000000000000000000000000000000081526004018080602001828103825283818151815260200191508051906020019080838360005b838110156107bc5780820151818401526020810190506107a1565b50505050905090810190601f1680156107e95780820380516001836020036101000a031916815260200191505b509250505060405180910390fd5b5060018060008373ffffffffffffffffffffffffffffffffffffffff1673ffffffffffffffffffffffffffffffffffffffff16815260200190815260200160002060006101000a81548160ff02191690831515021790555060028190806001815401808255809150509060018203906000526020600020016000909192909190916101000a81548173ffffffffffffffffffffffffffffffffffffffff021916908373ffffffffffffffffffffffffffffffffffffffff160217905550508073ffffffffffffffffffffffffffffffffffffffff167f8918da6429714f0e9c40ae7f270773e27fc8caf7a256e19807f859563b7514de33604051808273ffffffffffffffffffffffffffffffffffffffff1673ffffffffffffffffffffffffffffffffffffffff16815260200191505060405180910390a250565b60028181548110151561094157fe5b906000526020600020016000915054906101000a900473ffffffffffffffffffffffffffffffffffffffff1681565b60008060009054906101000a900473ffffffffffffffffffffffffffffffffffffffff1673ffffffffffffffffffffffffffffffffffffffff163373ffffffffffffffffffffffffffffffffffffffff161415156109cd57600080fd5b600160008373ffffffffffffffffffffffffffffffffffffffff1673ffffffffffffffffffffffffffffffffffffffff16815260200190815260200160002060009054906101000a900460ff16606060405190810160405280602281526020017f5461726765742061646472657373206d75737420626520617574686f72697a6581526020017f642e000000000000000000000000000000000000000000000000000000000000815250901515610b1f576040517f08c379a00000000000000000000000000000000000000000000000000000000081526004018080602001828103825283818151815260200191508051906020019080838360005b83811015610ae4578082015181840152602081019050610ac9565b50505050905090810190601f168015610b115780820380516001836020036101000a031916815260200191505b509250505060405180910390fd5b50600160008373ffffffffffffffffffffffffffffffffffffffff1673ffffffffffffffffffffffffffffffffffffffff16815260200190815260200160002060006101000a81549060ff0219169055600090505b600280549050811015610d2c578173ffffffffffffffffffffffffffffffffffffffff16600282815481101515610ba757fe5b9060005260206000200160009054906101000a900473ffffffffffffffffffffffffffffffffffffffff1673ffffffffffffffffffffffffffffffffffffffff161415610d1f576002600160028054905003815481101515610c0557fe5b9060005260206000200160009054906101000a900473ffffffffffffffffffffffffffffffffffffffff16600282815481101515610c3f57fe5b9060005260206000200160006101000a81548173ffffffffffffffffffffffffffffffffffffffff021916908373ffffffffffffffffffffffffffffffffffffffff1602179055506001600281818054905003915081610c9f91906120c7565b508173ffffffffffffffffffffffffffffffffffffffff167f1f32c1b084e2de0713b8fb16bd46bb9df710a3dbeae2f3ca93af46e016dcc6b033604051808273ffffffffffffffffffffffffffffffffffffffff1673ffffffffffffffffffffffffffffffffffffffff16815260200191505060405180910390a2610d2c565b8080600101915050610b74565b5050565b6000809054906101000a900473ffffffffffffffffffffffffffffffffffffffff1673ffffffffffffffffffffffffffffffffffffffff163373ffffffffffffffffffffffffffffffffffffffff16141515610d8b57600080fd5b6000809054906101000a900473ffffffffffffffffffffffffffffffffffffffff1673ffffffffffffffffffffffffffffffffffffffff167ff8df31144d9c2f0f6b59d69b8b98abd5459d07f2742c4df920b25aae33c6482060405160405180910390a260008060006101000a81548173ffffffffffffffffffffffffffffffffffffffff021916908373ffffffffffffffffffffffffffffffffffffffff160217905550565b600160003373ffffffffffffffffffffffffffffffffffffffff1673ffffffffffffffffffffffffffffffffffffffff16815260200190815260200160002060009054906101000a900460ff16606060405190810160405280602a81526020017f53656e646572206e6f7420617574686f72697a656420746f2063616c6c20746881526020017f6973206d6574686f642e00000000000000000000000000000000000000000000815250901515610f84576040517f08c379a00000000000000000000000000000000000000000000000000000000081526004018080602001828103825283818151815260200191508051906020019080838360005b83811015610f49578082015181840152602081019050610f2e565b50505050905090810190601f168015610f765780820380516001836020036101000a031916815260200191505b509250505060405180910390fd5b5080600081111515610f9557600080fd5b81600360008573ffffffffffffffffffffffffffffffffffffffff1673ffffffffffffffffffffffffffffffffffffffff16815260200190815260200160002060008673ffffffffffffffffffffffffffffffffffffffff1673ffffffffffffffffffffffffffffffffffffffff168152602001908152602001600020541015606060405190810160405280602681526020017f5573657220646f6573206e6f7420686176652073756666696369656e7420626181526020017f6c616e63652e000000000000000000000000000000000000000000000000000081525090151561111a576040517f08c379a00000000000000000000000000000000000000000000000000000000081526004018080602001828103825283818151815260200191508051906020019080838360005b838110156110df5780820151818401526020810190506110c4565b50505050905090810190601f16801561110c5780820380516001836020036101000a031916815260200191505b509250505060405180910390fd5b506111aa82600360008673ffffffffffffffffffffffffffffffffffffffff1673ffffffffffffffffffffffffffffffffffffffff16815260200190815260200160002060008773ffffffffffffffffffffffffffffffffffffffff1673ffffffffffffffffffffffffffffffffffffffff16815260200190815260200160002054611c8790919063ffffffff16565b600360008573ffffffffffffffffffffffffffffffffffffffff1673ffffffffffffffffffffffffffffffffffffffff16815260200190815260200160002060008673ffffffffffffffffffffffffffffffffffffffff1673ffffffffffffffffffffffffffffffffffffffff1681526020019081526020016000208190555050505050565b6000809054906101000a900473ffffffffffffffffffffffffffffffffffffffff1681565b6000809054906101000a900473ffffffffffffffffffffffffffffffffffffffff1673ffffffffffffffffffffffffffffffffffffffff163373ffffffffffffffffffffffffffffffffffffffff161415156112b057600080fd5b6002805490508110606060405190810160405280602781526020017f53706563696669656420617272617920696e646578206973206f7574206f662081526020017f626f756e64732e000000000000000000000000000000000000000000000000008152509015156113bd576040517f08c379a00000000000000000000000000000000000000000000000000000000081526004018080602001828103825283818151815260200191508051906020019080838360005b83811015611382578082015181840152602081019050611367565b50505050905090810190601f1680156113af5780820380516001836020036101000a031916815260200191505b509250505060405180910390fd5b508173ffffffffffffffffffffffffffffffffffffffff166002828154811015156113e457fe5b9060005260206000200160009054906101000a900473ffffffffffffffffffffffffffffffffffffffff1673ffffffffffffffffffffffffffffffffffffffff1614606060405190810160405280602d81526020017f4164647265737320666f756e6420617420696e64657820646f6573206e6f742081526020017f6d61746368207461726765742e0000000000000000000000000000000000000081525090151561152b576040517f08c379a00000000000000000000000000000000000000000000000000000000081526004018080602001828103825283818151815260200191508051906020019080838360005b838110156114f05780820151818401526020810190506114d5565b50505050905090810190601f16801561151d5780820380516001836020036101000a031916815260200191505b509250505060405180910390fd5b50600160008373ffffffffffffffffffffffffffffffffffffffff1673ffffffffffffffffffffffffffffffffffffffff16815260200190815260200160002060006101000a81549060ff0219169055600260016002805490500381548110151561159257fe5b9060005260206000200160009054906101000a900473ffffffffffffffffffffffffffffffffffffffff166002828154811015156115cc57fe5b9060005260206000200160006101000a81548173ffffffffffffffffffffffffffffffffffffffff021916908373ffffffffffffffffffffffffffffffffffffffff160217905550600160028181805490500391508161162c91906120c7565b508173ffffffffffffffffffffffffffffffffffffffff167f1f32c1b084e2de0713b8fb16bd46bb9df710a3dbeae2f3ca93af46e016dcc6b033604051808273ffffffffffffffffffffffffffffffffffffffff1673ffffffffffffffffffffffffffffffffffffffff16815260200191505060405180910390a25050565b60016020528060005260406000206000915054906101000a900460ff1681565b600160003373ffffffffffffffffffffffffffffffffffffffff1673ffffffffffffffffffffffffffffffffffffffff16815260200190815260200160002060009054906101000a900460ff16606060405190810160405280602a81526020017f53656e646572206e6f7420617574686f72697a656420746f2063616c6c20746881526020017f6973206d6574686f642e0000000000000000000000000000000000000000000081525090151561181d576040517f08c379a00000000000000000000000000000000000000000000000000000000081526004018080602001828103825283818151815260200191508051906020019080838360005b838110156117e25780820151818401526020810190506117c7565b50505050905090810190601f16801561180f5780820380516001836020036101000a031916815260200191505b509250505060405180910390fd5b508060008111151561182e57600080fd5b6118bd82600360008673ffffffffffffffffffffffffffffffffffffffff1673ffffffffffffffffffffffffffffffffffffffff16815260200190815260200160002060008773ffffffffffffffffffffffffffffffffffffffff1673ffffffffffffffffffffffffffffffffffffffff16815260200190815260200160002054611ca090919063ffffffff16565b600360008573ffffffffffffffffffffffffffffffffffffffff1673ffffffffffffffffffffffffffffffffffffffff16815260200190815260200160002060008673ffffffffffffffffffffffffffffffffffffffff1673ffffffffffffffffffffffffffffffffffffffff1681526020019081526020016000208190555050505050565b6003602052816000526040600020602052806000526040600020600091509150505481565b600080600160003373ffffffffffffffffffffffffffffffffffffffff1673ffffffffffffffffffffffffffffffffffffffff16815260200190815260200160002060009054906101000a900460ff16606060405190810160405280602a81526020017f53656e646572206e6f7420617574686f72697a656420746f2063616c6c20746881526020017f6973206d6574686f642e00000000000000000000000000000000000000000000815250901515611abd576040517f08c379a00000000000000000000000000000000000000000000000000000000081526004018080602001828103825283818151815260200191508051906020019080838360005b83811015611a82578082015181840152602081019050611a67565b50505050905090810190601f168015611aaf5780820380516001836020036101000a031916815260200191505b509250505060405180910390fd5b5082600081111515611ace57600080fd5b84600073ffffffffffffffffffffffffffffffffffffffff168173ffffffffffffffffffffffffffffffffffffffff1614151515611b0b57600080fd5b3073ffffffffffffffffffffffffffffffffffffffff168173ffffffffffffffffffffffffffffffffffffffff1614151515611b4657600080fd5b611b508730611cbc565b9350611b5d878787611d9c565b611b678730611cbc565b9250611b7c8585611c8790919063ffffffff16565b83141515611b8957600080fd5b50505050505050565b60606002805480602002602001604051908101604052809291908181526020018280548015611c1657602002820191906000526020600020905b8160009054906101000a900473ffffffffffffffffffffffffffffffffffffffff1673ffffffffffffffffffffffffffffffffffffffff1681526020019060010190808311611bcc575b5050505050905090565b6000809054906101000a900473ffffffffffffffffffffffffffffffffffffffff1673ffffffffffffffffffffffffffffffffffffffff163373ffffffffffffffffffffffffffffffffffffffff16141515611c7b57600080fd5b611c8481611f90565b50565b6000828211151515611c9557fe5b818303905092915050565b60008183019050828110151515611cb357fe5b80905092915050565b60008273ffffffffffffffffffffffffffffffffffffffff166370a08231836040518263ffffffff167c0100000000000000000000000000000000000000000000000000000000028152600401808273ffffffffffffffffffffffffffffffffffffffff1673ffffffffffffffffffffffffffffffffffffffff168152602001915050602060405180830381600087803b158015611d5957600080fd5b505af1158015611d6d573d6000803e3d6000fd5b505050506040513d6020811015611d8357600080fd5b8101908080519060200190929190505050905092915050565b8273ffffffffffffffffffffffffffffffffffffffff1663a9059cbb83836040518363ffffffff167c0100000000000000000000000000000000000000000000000000000000028152600401808373ffffffffffffffffffffffffffffffffffffffff1673ffffffffffffffffffffffffffffffffffffffff16815260200182815260200192505050600060405180830381600087803b158015611e3f57600080fd5b505af1158015611e53573d6000803e3d6000fd5b50505050611e5f61208a565b608060405190810160405280604681526020017f5472616e7366657272656420746f6b656e20646f6573206e6f7420726574757281526020017f6e206e756c6c206f722074727565206f6e207375636365737366756c2074726181526020017f6e736665722e0000000000000000000000000000000000000000000000000000815250901515611f8a576040517f08c379a00000000000000000000000000000000000000000000000000000000081526004018080602001828103825283818151815260200191508051906020019080838360005b83811015611f4f578082015181840152602081019050611f34565b50505050905090810190601f168015611f7c5780820380516001836020036101000a031916815260200191505b509250505060405180910390fd5b50505050565b600073ffffffffffffffffffffffffffffffffffffffff168173ffffffffffffffffffffffffffffffffffffffff1614151515611fcc57600080fd5b8073ffffffffffffffffffffffffffffffffffffffff166000809054906101000a900473ffffffffffffffffffffffffffffffffffffffff1673ffffffffffffffffffffffffffffffffffffffff167f8be0079c531659141344cd1fd0a4f28419497f9722a3daafe3b4186f6b6457e060405160405180910390a3806000806101000a81548173ffffffffffffffffffffffffffffffffffffffff021916908373ffffffffffffffffffffffffffffffffffffffff16021790555050565b600080600090503d600081146120a757602081146120b0576120bc565b600191506120bc565b60206000803e60005191505b506001811491505090565b8154818355818111156120ee578183600052602060002091820191016120ed91906120f3565b5b505050565b61211591905b808211156121115760008160009055506001016120f9565b5090565b905600a165627a7a72305820c90b35e96726f9549adf2cfe9a6abafe36f4e0392f5049603589720bfec723680029",
  "source": "/*\n    Copyright 2018 Set Labs Inc.\n\n    Licensed under the Apache License, Version 2.0 (the \"License\");\n    you may not use this file except in compliance with the License.\n    You may obtain a copy of the License at\n\n    http://www.apache.org/licenses/LICENSE-2.0\n\n    Unless required by applicable law or agreed to in writing, software\n    distributed under the License is distributed on an \"AS IS\" BASIS,\n    WITHOUT WARRANTIES OR CONDITIONS OF ANY KIND, either express or implied.\n    See the License for the specific language governing permissions and\n    limitations under the License.\n*/\n\npragma solidity 0.4.24;\n\n\nimport { Authorizable } from \"../lib/Authorizable.sol\";\nimport { SafeMath } from \"zeppelin-solidity/contracts/math/SafeMath.sol\";\nimport { ERC20Wrapper } from \"./lib/ERC20Wrapper.sol\";\n\n\n/**\n * @title Vault\n * @author Set Protocol\n *\n * The vault contract is responsible for holding all funds and keeping track of the\n * fund state and which Sets own which funds.\n *\n */\n\ncontract Vault is\n    Authorizable\n{\n    // Use SafeMath library for all uint256 arithmetic\n    using SafeMath for uint256;\n\n    /* ============ Constants ============ */\n\n    // Error messages\n    string constant INSUFFICIENT_BALANCE = \"User does not have sufficient balance.\";\n\n    /* ============ State Variables ============ */\n\n    // Mapping of token address to map of owner address to balance.\n    mapping (address => mapping (address => uint256)) public balances;\n\n\n    /* ============ Modifiers ============ */\n\n    // Checks to make sure a valid account to withdrawTo is given.\n    modifier isValidDestination(address _to) {\n        // Confirm address is not null\n        require(_to != address(0));\n        // Confirm address is not Vault address\n        require(_to != address(this));\n        _;\n    }\n\n    /*\n     * Checks to make sure a positive quantity of tokens is being withdrawn\n     * or decremented/incremented\n     */\n    modifier isNonZero(uint _quantity) {\n        // Confirm quantity is greater than zero\n        require(_quantity > 0);\n        _;\n    }\n\n    /* ============ No Constructor ============ */\n\n    /* ============ Public Functions ============ */\n\n    /*\n     * Withdraws user's unassociated tokens to user account. Can only be\n     * called by authorized core contracts.\n     *\n     * @param  _tokenAddress   The address of the ERC20 token\n     * @param  _to             The address to transfer token to\n     * @param  _quantity       The number of tokens to transfer\n     */\n    function withdrawTo(\n        address _tokenAddress,\n        address _to,\n        uint _quantity\n    )\n        external\n        onlyAuthorized\n        isNonZero(_quantity)\n        isValidDestination(_to)\n    {\n        // Retrieve current balance of token for the vault\n        uint existingVaultBalance = ERC20Wrapper.balanceOf(\n            _tokenAddress,\n            this\n        );\n\n        // Call specified ERC20 token contract to transfer tokens from Vault to user\n        ERC20Wrapper.transfer(\n            _tokenAddress,\n            _to,\n            _quantity\n        );\n\n        // Verify transfer quantity is reflected in balance\n        uint newVaultBalance = ERC20Wrapper.balanceOf(\n            _tokenAddress,\n            this\n        );\n        require(newVaultBalance == existingVaultBalance.sub(_quantity));\n    }\n\n    /*\n     * Increment quantity owned of a token for a given address. Can\n     * only be called by authorized core contracts.\n     *\n     * @param  _owner           The address of the token owner\n     * @param  _tokenAddress    The address of the ERC20 token\n     * @param  _quantity        The number of tokens to attribute to owner\n     */\n    function incrementTokenOwner(\n        address _owner,\n        address _tokenAddress,\n        uint _quantity\n    )\n        external\n        onlyAuthorized\n        isNonZero(_quantity)\n    {\n        // Increment balances state variable adding _quantity to user's token amount\n        balances[_tokenAddress][_owner] = balances[_tokenAddress][_owner].add(_quantity);\n    }\n\n    /*\n     * Decrement quantity owned of a token for a given address. Can only\n     * be called by authorized core contracts.\n     *\n     * @param  _owner           The address of the token owner\n     * @param  _tokenAddress    The address of the ERC20 token\n     * @param  _quantity        The number of tokens to deattribute to owner\n     */\n    function decrementTokenOwner(\n        address _owner,\n        address _tokenAddress,\n        uint _quantity\n    )\n        external\n        onlyAuthorized\n        isNonZero(_quantity)\n    {\n        // Require that user has enough unassociated tokens to withdraw tokens or issue Set\n        require(\n            balances[_tokenAddress][_owner] >= _quantity,\n            INSUFFICIENT_BALANCE\n        );\n\n        // Decrement balances state variable subtracting _quantity to user's token amount\n        balances[_tokenAddress][_owner] = balances[_tokenAddress][_owner].sub(_quantity);\n    }\n\n    /* ============ Getter Functions ============ */\n\n    /*\n     * Get balance of particular contract for owner.\n     *\n     * @param  _owner           The address of the token owner\n     * @param  _tokenAddress    The address of the ERC20 token\n     */\n    function getOwnerBalance(\n        address _owner,\n        address _tokenAddress\n    )\n        external\n        view\n        returns (uint256)\n    {\n        // Return owners token balance\n        return balances[_tokenAddress][_owner];\n    }\n}\n",
  "sourcePath": "/Users/justinkchen/workspace/set-protocol-contracts/contracts/core/Vault.sol",
  "compiler": {
    "name": "solc",
    "version": "0.4.24+commit.e67f0147.Emscripten.clang"
  },
  "schemaVersion": "2.0.0",
  "updatedAt": "2018-07-07T07:45:08.892Z"
}