{
  "contractName": "ZeroExExchangeWrapper",
  "abi": [
    {
      "constant": true,
      "inputs": [],
      "name": "zeroExExchange",
      "outputs": [
        {
          "name": "",
          "type": "address"
        }
      ],
      "payable": false,
      "stateMutability": "view",
      "type": "function"
    },
    {
      "constant": true,
      "inputs": [],
      "name": "setTransferProxy",
      "outputs": [
        {
          "name": "",
          "type": "address"
        }
      ],
      "payable": false,
      "stateMutability": "view",
      "type": "function"
    },
    {
      "constant": true,
      "inputs": [],
      "name": "zeroExProxy",
      "outputs": [
        {
          "name": "",
          "type": "address"
        }
      ],
      "payable": false,
      "stateMutability": "view",
      "type": "function"
    },
    {
      "inputs": [
        {
          "name": "_zeroExExchange",
          "type": "address"
        },
        {
          "name": "_zeroExProxy",
          "type": "address"
        },
        {
          "name": "_setTransferProxy",
          "type": "address"
        }
      ],
      "payable": false,
      "stateMutability": "nonpayable",
      "type": "constructor"
    },
    {
      "constant": false,
      "inputs": [
        {
          "name": "_taker",
          "type": "address"
        },
        {
          "name": "_orderCount",
          "type": "uint256"
        },
        {
          "name": "_orderData",
          "type": "bytes"
        }
      ],
      "name": "exchange",
      "outputs": [
        {
          "name": "",
          "type": "address[]"
        },
        {
          "name": "",
          "type": "uint256[]"
        }
      ],
      "payable": false,
      "stateMutability": "nonpayable",
      "type": "function"
    }
  ],
  "bytecode": "0x608060405234801561001057600080fd5b506040516060806104c3833981018060405261002f9190810190610084565b60008054600160a060020a03948516600160a060020a0319918216179091556001805493851693821693909317909255600280549190931691161790556100dd565b600061007d82516100d1565b9392505050565b60008060006060848603121561009957600080fd5b60006100a58686610071565b93505060206100b686828701610071565b92505060406100c786828701610071565b9150509250925092565b600160a060020a031690565b6103d7806100ec6000396000f3006080604052600436106100615763ffffffff7c01000000000000000000000000000000000000000000000000000000006000350416630b2d45aa81146100665780633f80cff814610091578063bd5b3046146100a6578063e6d39541146100d4575b600080fd5b34801561007257600080fd5b5061007b6100e9565b6040516100889190610336565b60405180910390f35b34801561009d57600080fd5b5061007b610105565b3480156100b257600080fd5b506100c66100c1366004610212565b610121565b60405161008892919061034a565b3480156100e057600080fd5b5061007b61018e565b60005473ffffffffffffffffffffffffffffffffffffffff1681565b60025473ffffffffffffffffffffffffffffffffffffffff1681565b60608060608086604051908082528060200260200182016040528015610151578160200160208202803883390190505b5091508660405190808252806020026020018201604052801561017e578160200160208202803883390190505b5091989197509095505050505050565b60015473ffffffffffffffffffffffffffffffffffffffff1681565b60006101b68235610381565b9392505050565b600080601f830184136101cf57600080fd5b50813567ffffffffffffffff8111156101e757600080fd5b6020830191508360018202830111156101ff57600080fd5b9250929050565b60006101b6823561039a565b6000806000806060858703121561022857600080fd5b600061023487876101aa565b945050602061024587828801610206565b935050604085013567ffffffffffffffff81111561026257600080fd5b61026e878288016101bd565b95989497509550505050565b61028381610381565b82525050565b60006102948261037d565b8084526020840193506102a683610377565b60005b828110156102d6576102bc86835161027a565b6102c582610377565b6020969096019591506001016102a9565b5093949350505050565b60006102eb8261037d565b8084526020840193506102fd83610377565b60005b828110156102d65761031386835161032d565b61031c82610377565b602096909601959150600101610300565b6102838161039a565b60208101610344828461027a565b92915050565b6040808252810161035b8185610289565b9050818103602083015261036f81846102e0565b949350505050565b60200190565b5190565b73ffffffffffffffffffffffffffffffffffffffff1690565b905600a265627a7a723058206b180be6577ef51be900ed2c9d34683676226750c6bc7b76c296312eb2c2df036c6578706572696d656e74616cf50037",
  "source": "/*\n    Copyright 2018 Set Labs Inc.\n\n    Licensed under the Apache License, Version 2.0 (the \"License\");\n    you may not use this file except in compliance with the License.\n    You may obtain a copy of the License at\n\n    http://www.apache.org/licenses/LICENSE-2.0\n\n    Unless required by applicable law or agreed to in writing, software\n    distributed under the License is distributed on an \"AS IS\" BASIS,\n    WITHOUT WARRANTIES OR CONDITIONS OF ANY KIND, either express or implied.\n    See the License for the specific language governing permissions and\n    limitations under the License.\n*/\n\npragma solidity 0.4.24;\npragma experimental \"ABIEncoderV2\";\n\nimport { SafeMath } from \"zeppelin-solidity/contracts/math/SafeMath.sol\";\nimport { ERC20Wrapper as ERC20 } from \"../../lib/ERC20Wrapper.sol\";\nimport { IExchange as ZeroExExchange } from \"../../external/0x/Exchange/interfaces/IExchange.sol\";\nimport { LibBytes } from \"../../external/0x/LibBytes.sol\";\nimport { LibFillResults as ZeroExFillResults } from \"../../external/0x/Exchange/libs/LibFillResults.sol\";\nimport { LibOrder as ZeroExOrder } from \"../../external/0x/Exchange/libs/LibOrder.sol\";\nimport { ZeroExOrderDataHandler as OrderHandler } from \"./lib/ZeroExOrderDataHandler.sol\";\n\n\n/**\n * @title ZeroExExchangeWrapper\n * @author Set Protocol\n *\n * The ZeroExExchangeWrapper contract wrapper to interface with 0x V2\n */\ncontract ZeroExExchangeWrapper {\n    using SafeMath for uint256;\n\n    /* ============ Structs ============ */\n\n    struct TakerFillResults {\n        address token;\n        uint256 fillAmount;\n    }\n\n    /* ============ State Variables ============ */\n\n    address public zeroExExchange;\n    address public zeroExProxy;\n    address public setTransferProxy;\n\n    /* ============ Constructor ============ */\n\n    /**\n     * Initialize exchange wrapper with required addresses to facilitate 0x orders\n     *\n     * @param  _zeroExExchange     0x Exchange contract for filling orders\n     * @param  _zeroExProxy        0x Proxy contract for transferring\n     * @param  _setTransferProxy   Set Protocol transfer proxy contract\n     */\n    constructor(\n        address _zeroExExchange,\n        address _zeroExProxy,\n        address _setTransferProxy\n    )\n        public\n    {\n        zeroExExchange = _zeroExExchange;\n        zeroExProxy = _zeroExProxy;\n        setTransferProxy = _setTransferProxy;\n    }\n\n    /* ============ Public Functions ============ */\n\n    /**\n     * IExchange interface delegate method.\n     * Parses 0x exchange orders and transfers tokens from taker's wallet.\n     *\n     * TODO: We are currently assuming no taker fee. Add in taker fee going forward\n     *\n     * @param  _taker              Taker wallet address\n     * @param  _orderCount         Amount of orders in exchange request\n     * @param  _orderData          Encoded taker wallet order data\n     * @return Array of token addresses executed in orders\n     * @return Array of token amounts executed in orders\n     */\n    function exchange(\n        address _taker,\n        uint _orderCount,\n        bytes _orderData\n    )\n        external\n        returns (address[], uint256[])\n    {\n        address[] memory takerTokens = new address[](_orderCount);\n        uint256[] memory takerAmounts = new uint256[](_orderCount);\n\n        // First 32 bytes are reserved for the number of orders\n        // uint256 orderNum = 0;\n        // uint256 offset = 32;\n        // while (offset < _orderData.length) {\n        //     bytes memory zeroExOrder = OrderHandler.sliceOrderBody(_orderData, offset);\n            \n        //     TakerFillResults memory takerFillResults = fillZeroExOrder(zeroExOrder);\n\n        //     // TODO: optimize so that fill results are aggregated on a per-token basis\n        //     takerTokens[orderNum] = takerFillResults.token;\n        //     takerAmounts[orderNum] = takerFillResults.fillAmount;\n\n        //     // Update current bytes\n        //     offset += OrderHandler.getZeroExOrderDataLength(_orderData, offset);\n        //     orderNum += 1;\n        // }\n\n        return (\n            takerTokens,\n            takerAmounts\n        );\n    }\n\n    /* ============ Private ============ */\n\n    /**\n     * Executes 0x order from signed order data\n     *\n     * @param  _zeroExOrderData   Bytes array for a 0x order, its signature, and the fill amount\n     */\n    function fillZeroExOrder(\n        bytes memory _zeroExOrderData\n    )\n        private\n        returns (TakerFillResults memory)\n    {\n        OrderHandler.OrderHeader memory header = OrderHandler.parseOrderHeader(_zeroExOrderData);\n        bytes memory signature = OrderHandler.parseSignature(header.signatureLength, _zeroExOrderData);\n        ZeroExOrder.Order memory order = OrderHandler.parseZeroExOrder(_zeroExOrderData);\n\n        // Ensure the maker token is allowed to be transferred by ZeroEx Proxy\n        address takerToken = OrderHandler.parseERC20TokenAddress(order.takerAssetData);\n        ERC20.ensureAllowance(\n            takerToken,\n            address(this),\n            zeroExProxy,\n            order.takerAssetAmount\n        );\n\n        ZeroExFillResults.FillResults memory fillResults = ZeroExExchange(zeroExExchange).fillOrKillOrder(\n            order,\n            header.fillAmount,\n            signature\n        );\n\n        // Ensure the maker token is allowed to be transferred by Set TransferProxy\n        address makerToken = OrderHandler.parseERC20TokenAddress(order.makerAssetData);\n        ERC20.ensureAllowance(\n            makerToken,\n            address(this),\n            setTransferProxy,\n            order.makerAssetAmount\n        );\n\n        return TakerFillResults({\n            token: takerToken,\n            fillAmount: fillResults.takerAssetFilledAmount\n        });\n    }\n}\n",
  "sourcePath": "/Users/justinkchen/workspace/set-protocol-contracts/contracts/core/exchange-wrappers/ZeroExExchangeWrapper.sol",
  "compiler": {
    "name": "solc",
    "version": "0.4.24+commit.e67f0147.Emscripten.clang"
  },
  "schemaVersion": "2.0.0",
  "updatedAt": "2018-08-07T02:05:30.469Z"
}