{
  "contractName": "ZeroExExchangeWrapper",
  "abi": [
    {
      "constant": true,
      "inputs": [],
      "name": "zeroExExchange",
      "outputs": [
        {
          "name": "",
          "type": "address"
        }
      ],
      "payable": false,
      "stateMutability": "view",
      "type": "function"
    },
    {
      "constant": true,
      "inputs": [],
      "name": "setTransferProxy",
      "outputs": [
        {
          "name": "",
          "type": "address"
        }
      ],
      "payable": false,
      "stateMutability": "view",
      "type": "function"
    },
    {
      "constant": true,
      "inputs": [],
      "name": "zeroExProxy",
      "outputs": [
        {
          "name": "",
          "type": "address"
        }
      ],
      "payable": false,
      "stateMutability": "view",
      "type": "function"
    },
    {
      "inputs": [
        {
          "name": "_zeroExExchange",
          "type": "address"
        },
        {
          "name": "_zeroExProxy",
          "type": "address"
        },
        {
          "name": "_setTransferProxy",
          "type": "address"
        }
      ],
      "payable": false,
      "stateMutability": "nonpayable",
      "type": "constructor"
    },
    {
      "constant": false,
      "inputs": [
        {
          "name": "_",
          "type": "address"
        },
        {
          "name": "_orderCount",
          "type": "uint256"
        },
        {
          "name": "_ordersData",
          "type": "bytes"
        }
      ],
      "name": "exchange",
      "outputs": [
        {
          "name": "",
          "type": "address[]"
        },
        {
          "name": "",
          "type": "uint256[]"
        }
      ],
      "payable": false,
      "stateMutability": "nonpayable",
      "type": "function"
    }
  ],
  "bytecode": "0x608060405234801561001057600080fd5b506040516060806200124983398101806040526100309190810190610085565b60008054600160a060020a03948516600160a060020a0319918216179091556001805493851693821693909317909255600280549190931691161790556100de565b600061007e82516100d2565b9392505050565b60008060006060848603121561009a57600080fd5b60006100a68686610072565b93505060206100b786828701610072565b92505060406100c886828701610072565b9150509250925092565b600160a060020a031690565b61115b80620000ee6000396000f3006080604052600436106100615763ffffffff7c01000000000000000000000000000000000000000000000000000000006000350416630b2d45aa81146100665780633f80cff814610091578063bd5b3046146100a6578063e6d39541146100d4575b600080fd5b34801561007257600080fd5b5061007b6100e9565b6040516100889190610fcd565b60405180910390f35b34801561009d57600080fd5b5061007b6100f8565b3480156100b257600080fd5b506100c66100c1366004610c0b565b610107565b604051610088929190611011565b3480156100e057600080fd5b5061007b61031f565b600054600160a060020a031681565b600254600160a060020a031681565b606080606080600080610118610a2d565b60006060610124610a5d565b61012c610ae3565b8d604051908082528060200260200182016040528015610156578160200160208202803883390190505b5098508d604051908082528060200260200182016040528015610183578160200160208202803883390190505b50975060009650600095505b8d86101561030a576101d28d8d8080601f016020809104026020016040519081016040528093929190818152602001838380828437508d945061032e9350505050565b94506101fc60a06101f087600001518a61038190919063ffffffff16565b9063ffffffff61038116565b93506102536102128860a063ffffffff61038116565b858f8f8080601f0160208091040260200160405190810160405280939291908181526020018383808284375094969594505063ffffffff6103941692505050565b92506102928d8d8080601f016020809104026020016040519081016040528093929190818152602001838380828437820191505050505050868661043e565b915061029f828487610553565b9050806000015189878151811015156102b457fe5b600160a060020a03909216602092830290910182015281015188518990889081106102db57fe5b60209081029091018101919091528501516102fd90859063ffffffff61038116565b965060019095019461018f565b50969d959c50949a5050505050505050505050565b600154600160a060020a031681565b610336610a2d565b61033e610a2d565b600061034d846101f0876106a0565b8051835260208082015190840152604080820151908401526060808201519084015260809081015190830152509392505050565b8181018281101561038e57fe5b92915050565b6060818311156103c25760405160e560020a62461bcd0281526004016103b990611036565b60405180910390fd5b83518211156103e65760405160e560020a62461bcd0281526004016103b990611046565b8282036040519080825280601f01601f191660200182016040528015610416578160200160208202803883390190505b509050610437610425826106a0565b8461042f876106a0565b0183516106a6565b9392505050565b610446610a5d565b61044e610a5d565b60008061045e856101f0896106a0565b9150815183526020820151602084015260408201516040840152606082015160608401526080820151608084015260a082015160a084015260c082015160c084015260e082015160e08401526101008201516101008401526101208201516101208401526104db610140876040015161038190919063ffffffff16565b90506105106104f28661014063ffffffff61038116565b610502878463ffffffff61038116565b89919063ffffffff61039416565b610140840152610542610529868363ffffffff61038116565b6060880151610502906101f0898663ffffffff61038116565b610160840152509095945050505050565b61055b610ae3565b6000610565610afa565b600061057587610160015161074c565b925061059c8330600160009054906101000a9004600160a060020a03168a60a001516107ea565b60005460808601516040517f64a3bc15000000000000000000000000000000000000000000000000000000008152600160a060020a03909216916364a3bc15916105ed918b91908b90600401611076565b608060405180830381600087803b15801561060757600080fd5b505af115801561061b573d6000803e3d6000fd5b505050506040513d601f19601f8201168201806040525061063f9190810190610c91565b915061064f87610140015161074c565b90506106768130600260009054906101000a9004600160a060020a03168a608001516107ea565b5060408051808201909152600160a060020a03909216825260209081015190820152949350505050565b60200190565b60208110156106d0576001816020036101000a038019835116818551168082178652505050610747565b828214156106dd57610747565b828211156107175760208103905080820181840181515b8285101561070f5784518652602095860195909401936106f4565b905250610747565b60208103905080820181840183515b818612156107425782518252601f199283019290910190610726565b855250505b505050565b604080517f4552433230546f6b656e28616464726573732900000000000000000000000000815290519081900360130190206000907bffffffffffffffffffffffffffffffffffffffffffffffffffffffff19166107b0838363ffffffff61081a16565b7bffffffffffffffffffffffffffffffffffffffffffffffffffffffff1916146107d957600080fd5b61038e82600463ffffffff61086d16565b60006107f78585856108a1565b90508181101561081357610813858461080e610945565b61094b565b5050505050565b6000816004018351101515156108455760405160e560020a62461bcd0281526004016103b990611066565b5050602001517bffffffffffffffffffffffffffffffffffffffffffffffffffffffff191690565b6000816020018351101515156108985760405160e560020a62461bcd0281526004016103b990611056565b50016020015190565b6040517fdd62ed3e000000000000000000000000000000000000000000000000000000008152600090600160a060020a0385169063dd62ed3e906108eb9086908690600401610fdb565b602060405180830381600087803b15801561090557600080fd5b505af1158015610919573d6000803e3d6000fd5b505050506040513d601f19601f8201168201806040525061093d9190810190610caf565b949350505050565b60001990565b6040517f095ea7b3000000000000000000000000000000000000000000000000000000008152600160a060020a0384169063095ea7b3906109929085908590600401610ff6565b602060405180830381600087803b1580156109ac57600080fd5b505af11580156109c0573d6000803e3d6000fd5b505050506040513d601f19601f820116820180604052506109e49190810190610c73565b506109ed6109f8565b151561074757600080fd5b6000803d8015610a0f5760208114610a1857610a24565b60019150610a24565b60206000803e60005191505b50600114919050565b60a06040519081016040528060008152602001600081526020016000815260200160008152602001600081525090565b610180604051908101604052806000600160a060020a031681526020016000600160a060020a031681526020016000600160a060020a031681526020016000600160a060020a0316815260200160008152602001600081526020016000815260200160008152602001600081526020016000815260200160608152602001606081525090565b604080518082019091526000808252602082015290565b608060405190810160405280600081526020016000815260200160008152602001600081525090565b600061043782356110d3565b600061043782516110e2565b600080601f83018413610b4d57600080fd5b50813567ffffffffffffffff811115610b6557600080fd5b602083019150836001820283011115610b7d57600080fd5b9250929050565b600060808284031215610b9657600080fd5b610ba060806110a8565b90506000610bae8484610bff565b8252506020610bbf84848301610bff565b6020830152506040610bd384828501610bff565b6040830152506060610be784828501610bff565b60608301525092915050565b600061043782356110df565b600061043782516110df565b60008060008060608587031215610c2157600080fd5b6000610c2d8787610b23565b9450506020610c3e87828801610bf3565b935050604085013567ffffffffffffffff811115610c5b57600080fd5b610c6787828801610b3b565b95989497509550505050565b600060208284031215610c8557600080fd5b600061093d8484610b2f565b600060808284031215610ca357600080fd5b600061093d8484610b84565b600060208284031215610cc157600080fd5b600061093d8484610bff565b610cd6816110d3565b82525050565b6000610ce7826110cf565b808452602084019350610cf9836106a0565b60005b82811015610d2957610d0f868351610ccd565b610d18826106a0565b602096909601959150600101610cfc565b5093949350505050565b6000610d3e826110cf565b808452602084019350610d50836106a0565b60005b82811015610d2957610d66868351610fc4565b610d6f826106a0565b602096909601959150600101610d53565b6000610d8b826110cf565b808452610d9f8160208601602086016110e7565b610da881611117565b9093016020019392505050565b601a81527f46524f4d5f4c4553535f5448414e5f544f5f5245515549524544000000000000602082015260400190565b601c81527f544f5f4c4553535f5448414e5f4c454e4754485f524551554952454400000000602082015260400190565b602681527f475245415445525f4f525f455155414c5f544f5f33325f4c454e4754485f524560208201527f5155495245440000000000000000000000000000000000000000000000000000604082015260600190565b602581527f475245415445525f4f525f455155414c5f544f5f345f4c454e4754485f52455160208201527f5549524544000000000000000000000000000000000000000000000000000000604082015260600190565b8051600090610180840190610ed68582610ccd565b506020830151610ee96020860182610ccd565b506040830151610efc6040860182610ccd565b506060830151610f0f6060860182610ccd565b506080830151610f226080860182610fc4565b5060a0830151610f3560a0860182610fc4565b5060c0830151610f4860c0860182610fc4565b5060e0830151610f5b60e0860182610fc4565b50610100830151610f70610100860182610fc4565b50610120830151610f85610120860182610fc4565b50610140830151848203610140860152610f9f8282610d80565b915050610160830151848203610160860152610fbb8282610d80565b95945050505050565b610cd6816110df565b6020810161038e8284610ccd565b60408101610fe98285610ccd565b6104376020830184610ccd565b604081016110048285610ccd565b6104376020830184610fc4565b604080825281016110228185610cdc565b9050818103602083015261093d8184610d33565b6020808252810161038e81610db5565b6020808252810161038e81610de5565b6020808252810161038e81610e15565b6020808252810161038e81610e6b565b606080825281016110878186610ec1565b90506110966020830185610fc4565b8181036040830152610fbb8184610d80565b60405181810167ffffffffffffffff811182821017156110c757600080fd5b604052919050565b5190565b600160a060020a031690565b90565b151590565b60005b838110156111025781810151838201526020016110ea565b83811115611111576000848401525b50505050565b601f01601f1916905600a265627a7a723058206fbdc5df3712d73a8f29783d67f381ad41d7564c1dfc8f7814772935a0821b186c6578706572696d656e74616cf50037",
  "source": "/*\n    Copyright 2018 Set Labs Inc.\n\n    Licensed under the Apache License, Version 2.0 (the \"License\");\n    you may not use this file except in compliance with the License.\n    You may obtain a copy of the License at\n\n    http://www.apache.org/licenses/LICENSE-2.0\n\n    Unless required by applicable law or agreed to in writing, software\n    distributed under the License is distributed on an \"AS IS\" BASIS,\n    WITHOUT WARRANTIES OR CONDITIONS OF ANY KIND, either express or implied.\n    See the License for the specific language governing permissions and\n    limitations under the License.\n*/\n\npragma solidity 0.4.24;\npragma experimental \"ABIEncoderV2\";\n\nimport { SafeMath } from \"zeppelin-solidity/contracts/math/SafeMath.sol\";\nimport { ERC20Wrapper as ERC20 } from \"../../lib/ERC20Wrapper.sol\";\nimport { IExchange as ZeroExExchange } from \"../../external/0x/Exchange/interfaces/IExchange.sol\";\nimport { LibBytes } from \"../../external/0x/LibBytes.sol\";\nimport { LibFillResults as ZeroExFillResults } from \"../../external/0x/Exchange/libs/LibFillResults.sol\";\nimport { LibOrder as ZeroExOrder } from \"../../external/0x/Exchange/libs/LibOrder.sol\";\nimport { ZeroExOrderDataHandler as OrderHandler } from \"./lib/ZeroExOrderDataHandler.sol\";\n\n\n/**\n * @title ZeroExExchangeWrapper\n * @author Set Protocol\n *\n * The ZeroExExchangeWrapper contract wrapper to interface with 0x V2\n */\ncontract ZeroExExchangeWrapper {\n    using SafeMath for uint256;\n    using LibBytes for bytes;\n\n    /* ============ Structs ============ */\n\n    struct TakerFillResults {\n        address token;\n        uint256 fillAmount;\n    }\n\n    /* ============ State Variables ============ */\n\n    address public zeroExExchange;\n    address public zeroExProxy;\n    address public setTransferProxy;\n\n    /* ============ Constructor ============ */\n\n    /**\n     * Initialize exchange wrapper with required addresses to facilitate 0x orders\n     *\n     * @param  _zeroExExchange     0x Exchange contract for filling orders\n     * @param  _zeroExProxy        0x Proxy contract for transferring\n     * @param  _setTransferProxy   Set Protocol transfer proxy contract\n     */\n    constructor(\n        address _zeroExExchange,\n        address _zeroExProxy,\n        address _setTransferProxy\n    )\n        public\n    {\n        zeroExExchange = _zeroExExchange;\n        zeroExProxy = _zeroExProxy;\n        setTransferProxy = _setTransferProxy;\n    }\n\n    /* ============ Public Functions ============ */\n\n    /**\n     * IExchangeWrapper interface delegate method.\n     * Parses 0x exchange orders and transfers tokens from taker's wallet.\n     *\n     * TODO: We are currently assuming no taker fee. Add in taker fee going forward\n     *\n     * @param  _             Unused address of fillOrder caller to conform to IExchangeWrapper\n     * @param  _orderCount   Amount of orders in exchange request\n     * @param  _ordersData   Byte string containing (multiple) 0x wrapper orders\n     * @return address[]     Array of token addresses executed in orders\n     * @return uint256[]     Array of token amounts executed in orders\n     */\n    function exchange(\n        address _,\n        uint256 _orderCount,\n        bytes _ordersData\n    )\n        external\n        returns (address[], uint256[])\n    {\n        address[] memory takerTokens = new address[](_orderCount);\n        uint256[] memory takerAmounts = new uint256[](_orderCount);\n\n        uint256 scannedBytes = 0;\n        for (uint256 i = 0; i < _orderCount; i++) {\n            // Parse header of current wrapper order\n            OrderHandler.OrderHeader memory header = OrderHandler.parseOrderHeader(\n                _ordersData,\n                scannedBytes\n            );\n\n            // Helper reduce math, keeping the position of the start of the next 0x order body\n            uint256 orderBodyStart = scannedBytes.add(header.signatureLength).add(160);\n\n            // Grab signature of current wrapper order after the header of length 160 and before the start of the body\n            bytes memory signature = _ordersData.slice(\n                scannedBytes.add(160),\n                orderBodyStart\n            );\n\n            // Parse 0x order of current wrapper order\n            ZeroExOrder.Order memory order = OrderHandler.parseZeroExOrder(\n                _ordersData,\n                header,\n                orderBodyStart\n            );\n\n            // Fill the order via the 0x exchange\n            TakerFillResults memory takerFillResults = fillZeroExOrder(\n                order,\n                signature,\n                header\n            );\n\n            // TODO: optimize so that fill results are aggregated on a per-token basis\n            takerTokens[i] = takerFillResults.token;\n            takerAmounts[i] = takerFillResults.fillAmount;\n\n            // Update current bytes\n            scannedBytes = orderBodyStart.add(header.orderLength);\n        }\n\n        return (\n            takerTokens,\n            takerAmounts\n        );\n    }\n\n    /* ============ Private ============ */\n\n    /**\n     * Executes 0x order from signed order data\n     *\n     * @param  _order             0x order struct\n     * @param  _signature         Signature for order\n     * @param  _header            Struct containing wrapper order header data for order\n     * @return TakerFillResults   0x fill order structs\n     */\n    function fillZeroExOrder(\n        ZeroExOrder.Order memory _order,\n        bytes memory _signature,\n        OrderHandler.OrderHeader memory _header\n    )\n        private\n        returns (TakerFillResults memory)\n    {\n        // Ensure the maker token is allowed to be transferred by ZeroEx Proxy\n        address takerToken = OrderHandler.parseERC20TokenAddress(_order.takerAssetData);\n        ERC20.ensureAllowance(\n            takerToken,\n            address(this),\n            zeroExProxy,\n            _order.takerAssetAmount\n        );\n\n        ZeroExFillResults.FillResults memory fillResults = ZeroExExchange(zeroExExchange).fillOrKillOrder(\n            _order,\n            _header.fillAmount,\n            _signature\n        );\n\n        // Ensure the maker token is allowed to be transferred by Set TransferProxy\n        address makerToken = OrderHandler.parseERC20TokenAddress(_order.makerAssetData);\n        ERC20.ensureAllowance(\n            makerToken,\n            address(this),\n            setTransferProxy,\n            _order.makerAssetAmount\n        );\n\n        return TakerFillResults({\n            token: takerToken,\n            fillAmount: fillResults.takerAssetFilledAmount\n        });\n    }\n}\n",
  "sourcePath": "/Users/justinkchen/workspace/set-protocol-contracts/contracts/core/exchange-wrappers/ZeroExExchangeWrapper.sol",
  "compiler": {
    "name": "solc",
    "version": "0.4.24+commit.e67f0147.Emscripten.clang"
  },
  "schemaVersion": "2.0.0",
  "updatedAt": "2018-08-10T03:42:05.699Z"
}