{
  "contractName": "ZeroExExchangeWrapper",
  "abi": [
    {
      "constant": true,
      "inputs": [],
      "name": "ZERO_EX_EXCHANGE",
      "outputs": [
        {
          "name": "",
          "type": "address"
        }
      ],
      "payable": false,
      "stateMutability": "view",
      "type": "function"
    },
    {
      "constant": true,
      "inputs": [],
      "name": "ZERO_EX_PROXY",
      "outputs": [
        {
          "name": "",
          "type": "address"
        }
      ],
      "payable": false,
      "stateMutability": "view",
      "type": "function"
    },
    {
      "constant": true,
      "inputs": [],
      "name": "SET_PROXY",
      "outputs": [
        {
          "name": "",
          "type": "address"
        }
      ],
      "payable": false,
      "stateMutability": "view",
      "type": "function"
    },
    {
      "inputs": [
        {
          "name": "_zeroExExchange",
          "type": "address"
        },
        {
          "name": "_zeroExProxy",
          "type": "address"
        },
        {
          "name": "_setProxy",
          "type": "address"
        }
      ],
      "payable": false,
      "stateMutability": "nonpayable",
      "type": "constructor"
    },
    {
      "constant": false,
      "inputs": [
        {
          "name": "_tradeOriginator",
          "type": "address"
        },
        {
          "name": "_orderData",
          "type": "bytes"
        }
      ],
      "name": "exchange",
      "outputs": [],
      "payable": false,
      "stateMutability": "nonpayable",
      "type": "function"
    }
  ],
  "bytecode": "0x608060405234801561001057600080fd5b5060405160608061034a833981018060405261002f9190810190610084565b60008054600160a060020a03948516600160a060020a0319918216179091556001805493851693821693909317909255600280549190931691161790556100dd565b600061007d82516100d1565b9392505050565b60008060006060848603121561009957600080fd5b60006100a58686610071565b93505060206100b686828701610071565b92505060406100c786828701610071565b9150509250925092565b600160a060020a031690565b61025e806100ec6000396000f3006080604052600436106100615763ffffffff7c01000000000000000000000000000000000000000000000000000000006000350416635da270fc8114610066578063881e142e14610091578063b6c8e453146100b3578063e5345524146100c8575b600080fd5b34801561007257600080fd5b5061007b6100dd565b60405161008891906101f7565b60405180910390f35b34801561009d57600080fd5b506100b16100ac366004610192565b6100f9565b005b3480156100bf57600080fd5b5061007b6100fe565b3480156100d457600080fd5b5061007b61011a565b60005473ffffffffffffffffffffffffffffffffffffffff1681565b505050565b60015473ffffffffffffffffffffffffffffffffffffffff1681565b60025473ffffffffffffffffffffffffffffffffffffffff1681565b6000610142823561020b565b9392505050565b600080601f8301841361015b57600080fd5b50813567ffffffffffffffff81111561017357600080fd5b60208301915083600182028301111561018b57600080fd5b9250929050565b6000806000604084860312156101a757600080fd5b60006101b38686610136565b935050602084013567ffffffffffffffff8111156101d057600080fd5b6101dc86828701610149565b92509250509250925092565b6101f18161020b565b82525050565b6020810161020582846101e8565b92915050565b73ffffffffffffffffffffffffffffffffffffffff16905600a265627a7a723058207d5fcdf1968532a6c611ffb93da73fb4a64333ecede95c8044e2d7c181d670306c6578706572696d656e74616cf50037",
  "source": "/*\n    Copyright 2018 Set Labs Inc.\n\n    Licensed under the Apache License, Version 2.0 (the \"License\");\n    you may not use this file except in compliance with the License.\n    You may obtain a copy of the License at\n\n    http://www.apache.org/licenses/LICENSE-2.0\n\n    Unless required by applicable law or agreed to in writing, software\n    distributed under the License is distributed on an \"AS IS\" BASIS,\n    WITHOUT WARRANTIES OR CONDITIONS OF ANY KIND, either express or implied.\n    See the License for the specific language governing permissions and\n    limitations under the License.\n*/\n\npragma solidity 0.4.24;\npragma experimental \"ABIEncoderV2\";\n\nimport { SafeMath } from \"zeppelin-solidity/contracts/math/SafeMath.sol\";\nimport { ZeroExOrderDataHandler as OrderHandler } from \"./lib/ZeroExOrderDataHandler.sol\";\nimport { LibBytes } from \"../../external/0x/LibBytes.sol\";\nimport { LibOrder as ZeroExOrder } from \"../../external/0x/Exchange/libs/LibOrder.sol\";\nimport { LibFillResults as ZeroExFillResults } from \"../../external/0x/Exchange/libs/LibFillResults.sol\";\nimport { IExchange as ZeroExExchange } from \"../../external/0x/Exchange/interfaces/IExchange.sol\";\nimport { ERC20Wrapper as ERC20 } from \"../../lib/ERC20Wrapper.sol\";\n\n\n\n/**\n * @title ZeroExExchangeWrapper\n * @author Set Protocol\n *\n * The ZeroExExchangeWrapper contract wrapper to interface with 0x V2\n */\ncontract ZeroExExchangeWrapper\n{\n    using SafeMath for uint256;\n\n    /* ============ State Variables ============ */\n\n    address public ZERO_EX_EXCHANGE;\n    address public ZERO_EX_PROXY;\n    address public SET_PROXY;\n\n\n    /* ============ Constructor ============ */\n\n    constructor(\n        address _zeroExExchange,\n        address _zeroExProxy,\n        address _setProxy\n    )\n        public\n    {\n        ZERO_EX_EXCHANGE = _zeroExExchange;\n        ZERO_EX_PROXY = _zeroExProxy;\n        SET_PROXY = _setProxy;\n    }\n\n\n    /* ============ Public Functions ============ */\n\n\n    // The purpose of this function is to decode the order data and execute the trade\n    // TODO - We are currently assuming no taker fee. Add in taker fee going forward\n    function exchange(\n        address _tradeOriginator,\n        bytes _orderData\n    )\n        external\n        // returns (uint256)\n    {\n        // Loop through order data and perform each order\n\n        // Approve the taker token for transfer to the Set Vault\n\n\n        // return 1;\n    }\n\n    /* ============ Getters ============ */\n\n    /* ============ Private ============ */\n    \n    function fillZeroExOrder(\n        bytes _zeroExOrderData\n    )\n        private\n        returns (ZeroExFillResults.FillResults memory)\n    {\n        uint256 fillAmount = OrderHandler.parseFillAmount(_zeroExOrderData);\n        bytes memory signature = OrderHandler.sliceSignature(_zeroExOrderData);\n        ZeroExOrder.Order memory order = OrderHandler.parseZeroExOrder(_zeroExOrderData);\n\n        // Ensure the maker token is allowed to be approved to the ZeroEx proxy\n\n\n        ZeroExFillResults.FillResults memory fillResults = \n            ZeroExExchange(ZERO_EX_EXCHANGE).fillOrKillOrder(\n                order,\n                fillAmount,\n                signature\n            );\n\n        // Ensure the taker token is allowed to be approved to the TransferProxy\n    }\n}\n",
  "sourcePath": "/Users/inje/Documents/repos/set-protocol-contracts/contracts/core/exchange-wrappers/ZeroExExchangeWrapper.sol",
  "compiler": {
    "name": "solc",
    "version": "0.4.24+commit.e67f0147.Emscripten.clang"
  },
  "schemaVersion": "2.0.0",
  "updatedAt": "2018-07-13T21:55:38.168Z"
}