{
  "contractName": "ZeroExOrderDataHandlerMock",
  "abi": [
    {
      "constant": true,
      "inputs": [
        {
          "name": "_orderData",
          "type": "bytes"
        }
      ],
      "name": "parseOrderDataHeader",
      "outputs": [
        {
          "name": "",
          "type": "uint256[4]"
        }
      ],
      "payable": false,
      "stateMutability": "pure",
      "type": "function"
    },
    {
      "constant": true,
      "inputs": [
        {
          "name": "_orderData",
          "type": "bytes"
        }
      ],
      "name": "parseFillAmount",
      "outputs": [
        {
          "name": "",
          "type": "uint256"
        }
      ],
      "payable": false,
      "stateMutability": "pure",
      "type": "function"
    },
    {
      "constant": true,
      "inputs": [
        {
          "name": "_orderData",
          "type": "bytes"
        }
      ],
      "name": "parseSignature",
      "outputs": [
        {
          "name": "",
          "type": "bytes"
        }
      ],
      "payable": false,
      "stateMutability": "pure",
      "type": "function"
    },
    {
      "constant": true,
      "inputs": [
        {
          "name": "_orderData",
          "type": "bytes"
        }
      ],
      "name": "parseZeroExOrderData",
      "outputs": [
        {
          "name": "",
          "type": "address[4]"
        },
        {
          "name": "",
          "type": "uint256[6]"
        },
        {
          "name": "",
          "type": "bytes"
        },
        {
          "name": "",
          "type": "bytes"
        }
      ],
      "payable": false,
      "stateMutability": "pure",
      "type": "function"
    },
    {
      "constant": false,
      "inputs": [
        {
          "name": "_assetData",
          "type": "bytes"
        }
      ],
      "name": "parseERC20TokenAddress",
      "outputs": [
        {
          "name": "",
          "type": "address"
        }
      ],
      "payable": false,
      "stateMutability": "nonpayable",
      "type": "function"
    }
  ],
  "bytecode": "0x608060405234801561001057600080fd5b50610e08806100206000396000f30060806040526004361061006c5763ffffffff7c010000000000000000000000000000000000000000000000000000000060003504166339a3968b8114610071578063aa688c58146100a7578063c66479bb146100d7578063ef6b78ef14610104578063f596d10a14610131575b600080fd5b34801561007d57600080fd5b5061009161008c3660046109ad565b61015e565b60405161009e9190610cc3565b60405180910390f35b3480156100b357600080fd5b506100c76100c23660046109ad565b61016f565b60405161009e9493929190610c16565b3480156100e357600080fd5b506100f76100f23660046109ad565b610244565b60405161009e9190610c64565b34801561011057600080fd5b5061012461011f3660046109ad565b610299565b60405161009e9190610c08565b34801561013d57600080fd5b5061015161014c3660046109ad565b6102ac565b60405161009e9190610c72565b6000610169826102b7565b92915050565b610177610838565b61017f610857565b60608061018a610876565b610193866102d1565b6040805160808181018352835173ffffffffffffffffffffffffffffffffffffffff90811683526020808601518216818501528486015182168486015260608087015190921682850152845160c0818101875284880151825260a080890151938301939093528701519581019590955260e086015191850191909152610100850151918401919091526101208401519083015261014083015161016090930151909991985091965090945092505050565b61024c610838565b610254610930565b61025d83610321565b90506080604051908101604052808260000151815260200182602001518152602001826040015181526020018260600151815250915050919050565b6000806102a583610365565b9392505050565b606061016982610458565b60008060006102c58461049b565b60800151949350505050565b6102d9610876565b6102e1610930565b6102e9610876565b6102f284610321565b915061031961030a85846000015185602001516104a1565b836040015184606001516104f2565b949350505050565b610329610930565b610331610930565b600061033c8461049b565b805183526020808201519084015260408082015190840152606090810151908301525092915050565b60008080610379848263ffffffff6105ec16565b604080517f4552433230546f6b656e2861646472657373290000000000000000000000000081528151908190036013018120818301909252601f81527f41646472657373206973206e6f7420666f722045524332302061737365742e0060208201529193507fffffffff0000000000000000000000000000000000000000000000000000000090811690841614610446576040517f08c379a000000000000000000000000000000000000000000000000000000000815260040161043d9190610c72565b60405180910390fd5b5061031984600463ffffffff61065916565b606060008060606104688561049b565b8051909350915061049260a0610484848263ffffffff6106a416565b87919063ffffffff6106b116565b95945050505050565b60200190565b606060008060606104b18761049b565b92506104c3838763ffffffff6106a416565b91506104e7826104d9818863ffffffff6106a416565b89919063ffffffff6106b116565b979650505050505050565b6104fa610876565b610502610876565b600061050d8661049b565b9050805182526020810151602083015260408101516040830152606081015160608301526080810151608083015260a081015160a083015260c081015160c083015260e081015160e083015261010081015161010083015261012081015161012083015261059a61014061058c610140886106a490919063ffffffff16565b88919063ffffffff6106b116565b8261014001819052506105dd6105bb610140876106a490919063ffffffff16565b61058c866105d18961014063ffffffff6106a416565b9063ffffffff6106a416565b61016083015250949350505050565b60008160040183511015151561062e576040517f08c379a000000000000000000000000000000000000000000000000000000000815260040161043d90610cb3565b5050602001517fffffffff000000000000000000000000000000000000000000000000000000001690565b60008160200183511015151561069b576040517f08c379a000000000000000000000000000000000000000000000000000000000815260040161043d90610ca3565b50016020015190565b8181018281101561016957fe5b6060818311156106ed576040517f08c379a000000000000000000000000000000000000000000000000000000000815260040161043d90610c83565b8351821115610728576040517f08c379a000000000000000000000000000000000000000000000000000000000815260040161043d90610c93565b8282036040519080825280601f01601f191660200182016040528015610758578160200160208202803883390190505b5090506102a56107678261049b565b846107718761049b565b018351602081101561079e576001816020036101000a038019835116818551168082178652505050610833565b828214156107ab57610833565b828211156107e55760208103905080820181840181515b828510156107dd5784518652602095860195909401936107c2565b905250610833565b60208103905080820181840183515b8186121561082e57825182527fffffffffffffffffffffffffffffffffffffffffffffffffffffffffffffffe092830192909101906107f4565b855250505b505050565b6080604051908101604052806004906020820280388339509192915050565b60c0604051908101604052806006906020820280388339509192915050565b61018060405190810160405280600073ffffffffffffffffffffffffffffffffffffffff168152602001600073ffffffffffffffffffffffffffffffffffffffff168152602001600073ffffffffffffffffffffffffffffffffffffffff168152602001600073ffffffffffffffffffffffffffffffffffffffff16815260200160008152602001600081526020016000815260200160008152602001600081526020016000815260200160608152602001606081525090565b608060405190810160405280600081526020016000815260200160008152602001600081525090565b6000601f8201831361096a57600080fd5b813561097d61097882610cf8565b610cd1565b9150808252602083016020830185838301111561099957600080fd5b6109a4838284610d6a565b50505092915050565b6000602082840312156109bf57600080fd5b813567ffffffffffffffff8111156109d657600080fd5b61031984828501610959565b6109eb81610d51565b82525050565b6109fa81610d41565b610a0382610d3e565b60005b82811015610a3357610a198583516109e2565b610a228261049b565b602095909501949150600101610a06565b5050505050565b610a4381610d41565b610a4c82610d3e565b60005b82811015610a3357610a62858351610bff565b610a6b8261049b565b602095909501949150600101610a4f565b610a8581610d47565b610a8e82610d3e565b60005b82811015610a3357610aa4858351610bff565b610aad8261049b565b602095909501949150600101610a91565b6000610ac982610d4d565b808452610add816020860160208601610d76565b610ae681610da6565b9093016020019392505050565b601a81527f46524f4d5f4c4553535f5448414e5f544f5f5245515549524544000000000000602082015260400190565b601c81527f544f5f4c4553535f5448414e5f4c454e4754485f524551554952454400000000602082015260400190565b602681527f475245415445525f4f525f455155414c5f544f5f33325f4c454e4754485f524560208201527f5155495245440000000000000000000000000000000000000000000000000000604082015260600190565b602581527f475245415445525f4f525f455155414c5f544f5f345f4c454e4754485f52455160208201527f5549524544000000000000000000000000000000000000000000000000000000604082015260600190565b6109eb81610d3e565b6020810161016982846109e2565b6101808101610c2582876109f1565b610c326080830186610a7c565b818103610140830152610c458185610abe565b9050818103610160830152610c5a8184610abe565b9695505050505050565b608081016101698284610a3a565b602080825281016102a58184610abe565b6020808252810161016981610af3565b6020808252810161016981610b23565b6020808252810161016981610b53565b6020808252810161016981610ba9565b602081016101698284610bff565b60405181810167ffffffffffffffff81118282101715610cf057600080fd5b604052919050565b600067ffffffffffffffff821115610d0f57600080fd5b506020601f919091017fffffffffffffffffffffffffffffffffffffffffffffffffffffffffffffffe0160190565b90565b50600490565b50600690565b5190565b73ffffffffffffffffffffffffffffffffffffffff1690565b82818337506000910152565b60005b83811015610d91578181015183820152602001610d79565b83811115610da0576000848401525b50505050565b601f017fffffffffffffffffffffffffffffffffffffffffffffffffffffffffffffffe016905600a265627a7a7230582067e8378169a5a1c2769620304c7cea94bd70983ad97a5d30f0e6f3f5c6bdcc956c6578706572696d656e74616cf50037",
  "source": "pragma solidity 0.4.24;\npragma experimental \"ABIEncoderV2\";\n\nimport { ZeroExOrderDataHandler } from \"../../../../core/exchange-wrappers/lib/ZeroExOrderDataHandler.sol\";\nimport { LibBytes } from \"../../../../external/0x/LibBytes.sol\";\nimport { LibOrder } from \"../../../../external/0x/Exchange/libs/LibOrder.sol\";\n\n\n// Mock class implementing internal OrderHandler methods\ncontract ZeroExOrderDataHandlerMock {\n    using LibBytes for bytes;\n\n    function parseOrderDataHeader(bytes _orderData)\n        public\n        pure\n        returns (uint256[4])\n    {\n        ZeroExOrderDataHandler.ZeroExHeader memory header = ZeroExOrderDataHandler.parseOrderHeader(_orderData);\n        return [\n            header.signatureLength,\n            header.orderLength,\n            header.makerAssetDataLength,\n            header.takerAssetDataLength\n        ];\n    }\n\n    function parseFillAmount(bytes _orderData)\n        public\n        pure\n        returns (uint256)\n    {\n        return ZeroExOrderDataHandler.parseFillAmount(_orderData);\n    }\n\n    function parseSignature(bytes _orderData)\n        public\n        pure\n        returns (bytes)\n    {\n        return ZeroExOrderDataHandler.sliceSignature(_orderData);\n    }\n\n    function parseZeroExOrderData(bytes _orderData)\n        public\n        pure\n        returns(address[4], uint256[6], bytes, bytes)\n    {\n        LibOrder.Order memory order = ZeroExOrderDataHandler.parseZeroExOrder(_orderData);\n\n        return (\n            [\n                order.makerAddress,\n                order.takerAddress,\n                order.feeRecipientAddress,\n                order.senderAddress\n            ],\n            [\n                order.makerAssetAmount,\n                order.takerAssetAmount,\n                order.makerFee,\n                order.takerFee,\n                order.expirationTimeSeconds,\n                order.salt\n            ],\n            order.makerAssetData,\n            order.takerAssetData\n        );\n    }\n\n    function parseERC20TokenAddress(bytes _assetData)\n        public\n        returns (address)\n    {\n        address tokenAddress = ZeroExOrderDataHandler.parseERC20TokenAddress(_assetData);\n        return tokenAddress;\n    }\n}\n",
  "sourcePath": "/Users/inje/Documents/repos/set-protocol-contracts/contracts/mocks/core/exchange-wrappers/lib/ZeroExOrderDataHandlerMock.sol",
  "compiler": {
    "name": "solc",
    "version": "0.4.24+commit.e67f0147.Emscripten.clang"
  },
  "schemaVersion": "2.0.0",
  "updatedAt": "2018-07-13T21:55:38.431Z"
}